{
	"contracts/ReadyDocs.sol": {
		"ReadyDocs": {
			"abi": [
				{
					"inputs": [
						{
							"internalType": "address",
							"name": "admin",
							"type": "address"
						},
						{
							"internalType": "address",
							"name": "registryAddress",
							"type": "address"
						}
					],
					"stateMutability": "nonpayable",
					"type": "constructor"
				},
				{
					"anonymous": false,
					"inputs": [
						{
							"indexed": true,
							"internalType": "bytes32",
							"name": "docId",
							"type": "bytes32"
						},
						{
							"indexed": false,
							"internalType": "enum IReadyDocs.DocType",
							"name": "docType",
							"type": "uint8"
						},
						{
							"indexed": false,
							"internalType": "string",
							"name": "caseId",
							"type": "string"
						},
						{
							"indexed": true,
							"internalType": "address",
							"name": "author",
							"type": "address"
						}
					],
					"name": "DocCreated",
					"type": "event"
				},
				{
					"anonymous": false,
					"inputs": [
						{
							"indexed": false,
							"internalType": "address",
							"name": "account",
							"type": "address"
						}
					],
					"name": "Paused",
					"type": "event"
				},
				{
					"anonymous": false,
					"inputs": [
						{
							"indexed": true,
							"internalType": "bytes32",
							"name": "role",
							"type": "bytes32"
						},
						{
							"indexed": true,
							"internalType": "bytes32",
							"name": "previousAdminRole",
							"type": "bytes32"
						},
						{
							"indexed": true,
							"internalType": "bytes32",
							"name": "newAdminRole",
							"type": "bytes32"
						}
					],
					"name": "RoleAdminChanged",
					"type": "event"
				},
				{
					"anonymous": false,
					"inputs": [
						{
							"indexed": true,
							"internalType": "bytes32",
							"name": "role",
							"type": "bytes32"
						},
						{
							"indexed": true,
							"internalType": "address",
							"name": "account",
							"type": "address"
						},
						{
							"indexed": true,
							"internalType": "address",
							"name": "sender",
							"type": "address"
						}
					],
					"name": "RoleGranted",
					"type": "event"
				},
				{
					"anonymous": false,
					"inputs": [
						{
							"indexed": true,
							"internalType": "bytes32",
							"name": "role",
							"type": "bytes32"
						},
						{
							"indexed": true,
							"internalType": "address",
							"name": "account",
							"type": "address"
						},
						{
							"indexed": true,
							"internalType": "address",
							"name": "sender",
							"type": "address"
						}
					],
					"name": "RoleRevoked",
					"type": "event"
				},
				{
					"anonymous": false,
					"inputs": [
						{
							"indexed": false,
							"internalType": "address",
							"name": "account",
							"type": "address"
						}
					],
					"name": "Unpaused",
					"type": "event"
				},
				{
					"anonymous": false,
					"inputs": [
						{
							"indexed": true,
							"internalType": "bytes32",
							"name": "docId",
							"type": "bytes32"
						},
						{
							"indexed": false,
							"internalType": "uint256",
							"name": "versionIndex",
							"type": "uint256"
						},
						{
							"indexed": false,
							"internalType": "string",
							"name": "cid",
							"type": "string"
						},
						{
							"indexed": true,
							"internalType": "address",
							"name": "author",
							"type": "address"
						}
					],
					"name": "VersionAdded",
					"type": "event"
				},
				{
					"anonymous": false,
					"inputs": [
						{
							"indexed": true,
							"internalType": "bytes32",
							"name": "docId",
							"type": "bytes32"
						},
						{
							"indexed": false,
							"internalType": "uint256",
							"name": "versionIndex",
							"type": "uint256"
						},
						{
							"indexed": true,
							"internalType": "address",
							"name": "by",
							"type": "address"
						}
					],
					"name": "VersionRevoked",
					"type": "event"
				},
				{
					"inputs": [],
					"name": "DEFAULT_ADMIN_ROLE",
					"outputs": [
						{
							"internalType": "bytes32",
							"name": "",
							"type": "bytes32"
						}
					],
					"stateMutability": "view",
					"type": "function"
				},
				{
					"inputs": [],
					"name": "OPERATOR_ROLE",
					"outputs": [
						{
							"internalType": "bytes32",
							"name": "",
							"type": "bytes32"
						}
					],
					"stateMutability": "view",
					"type": "function"
				},
				{
					"inputs": [
						{
							"internalType": "bytes32",
							"name": "docId",
							"type": "bytes32"
						},
						{
							"internalType": "string",
							"name": "cid",
							"type": "string"
						}
					],
					"name": "addVersion",
					"outputs": [],
					"stateMutability": "nonpayable",
					"type": "function"
				},
				{
					"inputs": [
						{
							"internalType": "bytes32",
							"name": "docId",
							"type": "bytes32"
						},
						{
							"internalType": "enum IReadyDocs.DocType",
							"name": "docType",
							"type": "uint8"
						},
						{
							"internalType": "string",
							"name": "caseId",
							"type": "string"
						},
						{
							"internalType": "string",
							"name": "initialCid",
							"type": "string"
						}
					],
					"name": "createDocument",
					"outputs": [],
					"stateMutability": "nonpayable",
					"type": "function"
				},
				{
					"inputs": [
						{
							"internalType": "bytes32",
							"name": "docId",
							"type": "bytes32"
						}
					],
					"name": "docTypeOf",
					"outputs": [
						{
							"internalType": "enum IReadyDocs.DocType",
							"name": "",
							"type": "uint8"
						}
					],
					"stateMutability": "view",
					"type": "function"
				},
				{
					"inputs": [
						{
							"internalType": "bytes32",
							"name": "role",
							"type": "bytes32"
						}
					],
					"name": "getRoleAdmin",
					"outputs": [
						{
							"internalType": "bytes32",
							"name": "",
							"type": "bytes32"
						}
					],
					"stateMutability": "view",
					"type": "function"
				},
				{
					"inputs": [
						{
							"internalType": "bytes32",
							"name": "docId",
							"type": "bytes32"
						},
						{
							"internalType": "uint256",
							"name": "index",
							"type": "uint256"
						}
					],
					"name": "getVersion",
					"outputs": [
						{
							"components": [
								{
									"internalType": "string",
									"name": "cid",
									"type": "string"
								},
								{
									"internalType": "uint256",
									"name": "timestamp",
									"type": "uint256"
								},
								{
									"internalType": "bool",
									"name": "revoked",
									"type": "bool"
								},
								{
									"internalType": "address",
									"name": "author",
									"type": "address"
								}
							],
							"internalType": "struct IReadyDocs.Version",
							"name": "",
							"type": "tuple"
						}
					],
					"stateMutability": "view",
					"type": "function"
				},
				{
					"inputs": [
						{
							"internalType": "bytes32",
							"name": "role",
							"type": "bytes32"
						},
						{
							"internalType": "address",
							"name": "account",
							"type": "address"
						}
					],
					"name": "grantRole",
					"outputs": [],
					"stateMutability": "nonpayable",
					"type": "function"
				},
				{
					"inputs": [
						{
							"internalType": "bytes32",
							"name": "role",
							"type": "bytes32"
						},
						{
							"internalType": "address",
							"name": "account",
							"type": "address"
						}
					],
					"name": "hasRole",
					"outputs": [
						{
							"internalType": "bool",
							"name": "",
							"type": "bool"
						}
					],
					"stateMutability": "view",
					"type": "function"
				},
				{
					"inputs": [],
					"name": "pause",
					"outputs": [],
					"stateMutability": "nonpayable",
					"type": "function"
				},
				{
					"inputs": [],
					"name": "paused",
					"outputs": [
						{
							"internalType": "bool",
							"name": "",
							"type": "bool"
						}
					],
					"stateMutability": "view",
					"type": "function"
				},
				{
					"inputs": [],
					"name": "registry",
					"outputs": [
						{
							"internalType": "contract ILegalPractitionerRegistry",
							"name": "",
							"type": "address"
						}
					],
					"stateMutability": "view",
					"type": "function"
				},
				{
					"inputs": [
						{
							"internalType": "bytes32",
							"name": "role",
							"type": "bytes32"
						},
						{
							"internalType": "address",
							"name": "account",
							"type": "address"
						}
					],
					"name": "renounceRole",
					"outputs": [],
					"stateMutability": "nonpayable",
					"type": "function"
				},
				{
					"inputs": [
						{
							"internalType": "bytes32",
							"name": "role",
							"type": "bytes32"
						},
						{
							"internalType": "address",
							"name": "account",
							"type": "address"
						}
					],
					"name": "revokeRole",
					"outputs": [],
					"stateMutability": "nonpayable",
					"type": "function"
				},
				{
					"inputs": [
						{
							"internalType": "bytes32",
							"name": "docId",
							"type": "bytes32"
						},
						{
							"internalType": "uint256",
							"name": "index",
							"type": "uint256"
						}
					],
					"name": "revokeVersion",
					"outputs": [],
					"stateMutability": "nonpayable",
					"type": "function"
				},
				{
					"inputs": [
						{
							"internalType": "address",
							"name": "account",
							"type": "address"
						},
						{
							"internalType": "bool",
							"name": "ok",
							"type": "bool"
						}
					],
					"name": "setOperator",
					"outputs": [],
					"stateMutability": "nonpayable",
					"type": "function"
				},
				{
					"inputs": [
						{
							"internalType": "bytes4",
							"name": "interfaceId",
							"type": "bytes4"
						}
					],
					"name": "supportsInterface",
					"outputs": [
						{
							"internalType": "bool",
							"name": "",
							"type": "bool"
						}
					],
					"stateMutability": "view",
					"type": "function"
				},
				{
					"inputs": [],
					"name": "unpause",
					"outputs": [],
					"stateMutability": "nonpayable",
					"type": "function"
				},
				{
					"inputs": [
						{
							"internalType": "bytes32",
							"name": "docId",
							"type": "bytes32"
						}
					],
					"name": "versionCount",
					"outputs": [
						{
							"internalType": "uint256",
							"name": "",
							"type": "uint256"
						}
					],
					"stateMutability": "view",
					"type": "function"
				}
			],
			"devdoc": {
				"events": {
					"Paused(address)": {
						"details": "Emitted when the pause is triggered by `account`."
					},
					"RoleAdminChanged(bytes32,bytes32,bytes32)": {
						"details": "Emitted when `newAdminRole` is set as ``role``'s admin role, replacing `previousAdminRole` `DEFAULT_ADMIN_ROLE` is the starting admin for all roles, despite {RoleAdminChanged} not being emitted signaling this. _Available since v3.1._"
					},
					"RoleGranted(bytes32,address,address)": {
						"details": "Emitted when `account` is granted `role`. `sender` is the account that originated the contract call, an admin role bearer except when using {AccessControl-_setupRole}."
					},
					"RoleRevoked(bytes32,address,address)": {
						"details": "Emitted when `account` is revoked `role`. `sender` is the account that originated the contract call:   - if using `revokeRole`, it is the admin role bearer   - if using `renounceRole`, it is the role bearer (i.e. `account`)"
					},
					"Unpaused(address)": {
						"details": "Emitted when the pause is lifted by `account`."
					}
				},
				"kind": "dev",
				"methods": {
					"getRoleAdmin(bytes32)": {
						"details": "Returns the admin role that controls `role`. See {grantRole} and {revokeRole}. To change a role's admin, use {_setRoleAdmin}."
					},
					"grantRole(bytes32,address)": {
						"details": "Grants `role` to `account`. If `account` had not been already granted `role`, emits a {RoleGranted} event. Requirements: - the caller must have ``role``'s admin role. May emit a {RoleGranted} event."
					},
					"hasRole(bytes32,address)": {
						"details": "Returns `true` if `account` has been granted `role`."
					},
					"paused()": {
						"details": "Returns true if the contract is paused, and false otherwise."
					},
					"renounceRole(bytes32,address)": {
						"details": "Revokes `role` from the calling account. Roles are often managed via {grantRole} and {revokeRole}: this function's purpose is to provide a mechanism for accounts to lose their privileges if they are compromised (such as when a trusted device is misplaced). If the calling account had been revoked `role`, emits a {RoleRevoked} event. Requirements: - the caller must be `account`. May emit a {RoleRevoked} event."
					},
					"revokeRole(bytes32,address)": {
						"details": "Revokes `role` from `account`. If `account` had been granted `role`, emits a {RoleRevoked} event. Requirements: - the caller must have ``role``'s admin role. May emit a {RoleRevoked} event."
					},
					"supportsInterface(bytes4)": {
						"details": "See {IERC165-supportsInterface}."
					}
				},
				"version": 1
			},
			"evm": {
				"assembly": "    /* \"contracts/ReadyDocs.sol\":294:4024  contract ReadyDocs is IReadyDocs, AccessControl, Pausable {... */\n  mstore(0x40, 0xa0)\n    /* \"contracts/ReadyDocs.sol\":866:1082  constructor(address admin, address registryAddress) {... */\n  callvalue\n  dup1\n  iszero\n  tag_1\n  jumpi\n  revert(0x00, 0x00)\ntag_1:\n  pop\n  mload(0x40)\n  sub(codesize, bytecodeSize)\n  dup1\n  bytecodeSize\n  dup4\n  codecopy\n  dup2\n  dup2\n  add\n  0x40\n  mstore\n  dup2\n  add\n  swap1\n  tag_2\n  swap2\n  swap1\n  tag_3\n  jump\t// in\ntag_2:\n    /* \"@openzeppelin/contracts@4.9.6/security/Pausable.sol\":1006:1011  false */\n  0x00\n    /* \"@openzeppelin/contracts@4.9.6/security/Pausable.sol\":996:1003  _paused */\n  0x01\n  0x00\n    /* \"@openzeppelin/contracts@4.9.6/security/Pausable.sol\":996:1011  _paused = false */\n  0x0100\n  exp\n  dup2\n  sload\n  dup2\n  0xff\n  mul\n  not\n  and\n  swap1\n  dup4\n  iszero\n  iszero\n  mul\n  or\n  swap1\n  sstore\n  pop\n    /* \"contracts/ReadyDocs.sol\":929:966  _grantRole(DEFAULT_ADMIN_ROLE, admin) */\n  tag_8\n    /* \"@openzeppelin/contracts@4.9.6/access/AccessControl.sol\":2198:2202  0x00 */\n  0x00\n    /* \"contracts/ReadyDocs.sol\":940:958  DEFAULT_ADMIN_ROLE */\n  0x00\n  shl\n    /* \"contracts/ReadyDocs.sol\":960:965  admin */\n  dup4\n    /* \"contracts/ReadyDocs.sol\":929:939  _grantRole */\n  shl(0x20, tag_9)\n    /* \"contracts/ReadyDocs.sol\":929:966  _grantRole(DEFAULT_ADMIN_ROLE, admin) */\n  0x20\n  shr\n  jump\t// in\ntag_8:\n    /* \"contracts/ReadyDocs.sol\":977:1009  _grantRole(OPERATOR_ROLE, admin) */\n  tag_10\n    /* \"contracts/ReadyDocs.sol\":460:486  keccak256(\"OPERATOR_ROLE\") */\n  0x97667070c54ef182b0f5858b034beac1b6f3089aa2d3188bb1e8929f4fa9b929\n    /* \"contracts/ReadyDocs.sol\":1003:1008  admin */\n  dup4\n    /* \"contracts/ReadyDocs.sol\":977:987  _grantRole */\n  shl(0x20, tag_9)\n    /* \"contracts/ReadyDocs.sol\":977:1009  _grantRole(OPERATOR_ROLE, admin) */\n  0x20\n  shr\n  jump\t// in\ntag_10:\n    /* \"contracts/ReadyDocs.sol\":1058:1073  registryAddress */\n  dup1\n    /* \"contracts/ReadyDocs.sol\":1020:1074  registry = ILegalPractitionerRegistry(registryAddress) */\n  0xffffffffffffffffffffffffffffffffffffffff\n  and\n  0x80\n  dup2\n  0xffffffffffffffffffffffffffffffffffffffff\n  and\n  dup2\n  mstore\n  pop\n  pop\n    /* \"contracts/ReadyDocs.sol\":866:1082  constructor(address admin, address registryAddress) {... */\n  pop\n  pop\n    /* \"contracts/ReadyDocs.sol\":294:4024  contract ReadyDocs is IReadyDocs, AccessControl, Pausable {... */\n  jump(tag_11)\n    /* \"@openzeppelin/contracts@4.9.6/access/AccessControl.sol\":7587:7820  function _grantRole(bytes32 role, address account) internal virtual {... */\ntag_9:\n    /* \"@openzeppelin/contracts@4.9.6/access/AccessControl.sol\":7670:7692  hasRole(role, account) */\n  tag_13\n    /* \"@openzeppelin/contracts@4.9.6/access/AccessControl.sol\":7678:7682  role */\n  dup3\n    /* \"@openzeppelin/contracts@4.9.6/access/AccessControl.sol\":7684:7691  account */\n  dup3\n    /* \"@openzeppelin/contracts@4.9.6/access/AccessControl.sol\":7670:7677  hasRole */\n  shl(0x20, tag_14)\n    /* \"@openzeppelin/contracts@4.9.6/access/AccessControl.sol\":7670:7692  hasRole(role, account) */\n  0x20\n  shr\n  jump\t// in\ntag_13:\n    /* \"@openzeppelin/contracts@4.9.6/access/AccessControl.sol\":7665:7814  if (!hasRole(role, account)) {... */\n  tag_15\n  jumpi\n    /* \"@openzeppelin/contracts@4.9.6/access/AccessControl.sol\":7740:7744  true */\n  0x01\n    /* \"@openzeppelin/contracts@4.9.6/access/AccessControl.sol\":7708:7714  _roles */\n  0x00\n    /* \"@openzeppelin/contracts@4.9.6/access/AccessControl.sol\":7708:7720  _roles[role] */\n  0x00\n    /* \"@openzeppelin/contracts@4.9.6/access/AccessControl.sol\":7715:7719  role */\n  dup5\n    /* \"@openzeppelin/contracts@4.9.6/access/AccessControl.sol\":7708:7720  _roles[role] */\n  dup2\n  mstore\n  0x20\n  add\n  swap1\n  dup2\n  mstore\n  0x20\n  add\n  0x00\n  keccak256\n    /* \"@openzeppelin/contracts@4.9.6/access/AccessControl.sol\":7708:7728  _roles[role].members */\n  0x00\n  add\n    /* \"@openzeppelin/contracts@4.9.6/access/AccessControl.sol\":7708:7737  _roles[role].members[account] */\n  0x00\n    /* \"@openzeppelin/contracts@4.9.6/access/AccessControl.sol\":7729:7736  account */\n  dup4\n    /* \"@openzeppelin/contracts@4.9.6/access/AccessControl.sol\":7708:7737  _roles[role].members[account] */\n  0xffffffffffffffffffffffffffffffffffffffff\n  and\n  0xffffffffffffffffffffffffffffffffffffffff\n  and\n  dup2\n  mstore\n  0x20\n  add\n  swap1\n  dup2\n  mstore\n  0x20\n  add\n  0x00\n  keccak256\n  0x00\n    /* \"@openzeppelin/contracts@4.9.6/access/AccessControl.sol\":7708:7744  _roles[role].members[account] = true */\n  0x0100\n  exp\n  dup2\n  sload\n  dup2\n  0xff\n  mul\n  not\n  and\n  swap1\n  dup4\n  iszero\n  iszero\n  mul\n  or\n  swap1\n  sstore\n  pop\n    /* \"@openzeppelin/contracts@4.9.6/access/AccessControl.sol\":7790:7802  _msgSender() */\n  tag_16\n    /* \"@openzeppelin/contracts@4.9.6/access/AccessControl.sol\":7790:7800  _msgSender */\n  shl(0x20, tag_17)\n    /* \"@openzeppelin/contracts@4.9.6/access/AccessControl.sol\":7790:7802  _msgSender() */\n  0x20\n  shr\n  jump\t// in\ntag_16:\n    /* \"@openzeppelin/contracts@4.9.6/access/AccessControl.sol\":7763:7803  RoleGranted(role, account, _msgSender()) */\n  0xffffffffffffffffffffffffffffffffffffffff\n  and\n    /* \"@openzeppelin/contracts@4.9.6/access/AccessControl.sol\":7781:7788  account */\n  dup2\n    /* \"@openzeppelin/contracts@4.9.6/access/AccessControl.sol\":7763:7803  RoleGranted(role, account, _msgSender()) */\n  0xffffffffffffffffffffffffffffffffffffffff\n  and\n    /* \"@openzeppelin/contracts@4.9.6/access/AccessControl.sol\":7775:7779  role */\n  dup4\n    /* \"@openzeppelin/contracts@4.9.6/access/AccessControl.sol\":7763:7803  RoleGranted(role, account, _msgSender()) */\n  0x2f8788117e7eff1d82e926ec794901d17c78024a50270940304540a733656f0d\n  mload(0x40)\n  mload(0x40)\n  dup1\n  swap2\n  sub\n  swap1\n  log4\n    /* \"@openzeppelin/contracts@4.9.6/access/AccessControl.sol\":7665:7814  if (!hasRole(role, account)) {... */\ntag_15:\n    /* \"@openzeppelin/contracts@4.9.6/access/AccessControl.sol\":7587:7820  function _grantRole(bytes32 role, address account) internal virtual {... */\n  pop\n  pop\n  jump\t// out\n    /* \"@openzeppelin/contracts@4.9.6/access/AccessControl.sol\":3021:3166  function hasRole(bytes32 role, address account) public view virtual override returns (bool) {... */\ntag_14:\n    /* \"@openzeppelin/contracts@4.9.6/access/AccessControl.sol\":3107:3111  bool */\n  0x00\n    /* \"@openzeppelin/contracts@4.9.6/access/AccessControl.sol\":3130:3136  _roles */\n  0x00\n    /* \"@openzeppelin/contracts@4.9.6/access/AccessControl.sol\":3130:3142  _roles[role] */\n  0x00\n    /* \"@openzeppelin/contracts@4.9.6/access/AccessControl.sol\":3137:3141  role */\n  dup5\n    /* \"@openzeppelin/contracts@4.9.6/access/AccessControl.sol\":3130:3142  _roles[role] */\n  dup2\n  mstore\n  0x20\n  add\n  swap1\n  dup2\n  mstore\n  0x20\n  add\n  0x00\n  keccak256\n    /* \"@openzeppelin/contracts@4.9.6/access/AccessControl.sol\":3130:3150  _roles[role].members */\n  0x00\n  add\n    /* \"@openzeppelin/contracts@4.9.6/access/AccessControl.sol\":3130:3159  _roles[role].members[account] */\n  0x00\n    /* \"@openzeppelin/contracts@4.9.6/access/AccessControl.sol\":3151:3158  account */\n  dup4\n    /* \"@openzeppelin/contracts@4.9.6/access/AccessControl.sol\":3130:3159  _roles[role].members[account] */\n  0xffffffffffffffffffffffffffffffffffffffff\n  and\n  0xffffffffffffffffffffffffffffffffffffffff\n  and\n  dup2\n  mstore\n  0x20\n  add\n  swap1\n  dup2\n  mstore\n  0x20\n  add\n  0x00\n  keccak256\n  0x00\n  swap1\n  sload\n  swap1\n  0x0100\n  exp\n  swap1\n  div\n  0xff\n  and\n    /* \"@openzeppelin/contracts@4.9.6/access/AccessControl.sol\":3123:3159  return _roles[role].members[account] */\n  swap1\n  pop\n    /* \"@openzeppelin/contracts@4.9.6/access/AccessControl.sol\":3021:3166  function hasRole(bytes32 role, address account) public view virtual override returns (bool) {... */\n  swap3\n  swap2\n  pop\n  pop\n  jump\t// out\n    /* \"@openzeppelin/contracts@4.9.6/utils/Context.sol\":655:751  function _msgSender() internal view virtual returns (address) {... */\ntag_17:\n    /* \"@openzeppelin/contracts@4.9.6/utils/Context.sol\":708:715  address */\n  0x00\n    /* \"@openzeppelin/contracts@4.9.6/utils/Context.sol\":734:744  msg.sender */\n  caller\n    /* \"@openzeppelin/contracts@4.9.6/utils/Context.sol\":727:744  return msg.sender */\n  swap1\n  pop\n    /* \"@openzeppelin/contracts@4.9.6/utils/Context.sol\":655:751  function _msgSender() internal view virtual returns (address) {... */\n  swap1\n  jump\t// out\n    /* \"#utility.yul\":88:205   */\ntag_21:\n    /* \"#utility.yul\":197:198   */\n  0x00\n    /* \"#utility.yul\":194:195   */\n  0x00\n    /* \"#utility.yul\":187:199   */\n  revert\n    /* \"#utility.yul\":334:460   */\ntag_23:\n    /* \"#utility.yul\":371:378   */\n  0x00\n    /* \"#utility.yul\":411:453   */\n  0xffffffffffffffffffffffffffffffffffffffff\n    /* \"#utility.yul\":404:409   */\n  dup3\n    /* \"#utility.yul\":400:454   */\n  and\n    /* \"#utility.yul\":389:454   */\n  swap1\n  pop\n    /* \"#utility.yul\":334:460   */\n  swap2\n  swap1\n  pop\n  jump\t// out\n    /* \"#utility.yul\":466:562   */\ntag_24:\n    /* \"#utility.yul\":503:510   */\n  0x00\n    /* \"#utility.yul\":532:556   */\n  tag_33\n    /* \"#utility.yul\":550:555   */\n  dup3\n    /* \"#utility.yul\":532:556   */\n  tag_23\n  jump\t// in\ntag_33:\n    /* \"#utility.yul\":521:556   */\n  swap1\n  pop\n    /* \"#utility.yul\":466:562   */\n  swap2\n  swap1\n  pop\n  jump\t// out\n    /* \"#utility.yul\":568:690   */\ntag_25:\n    /* \"#utility.yul\":641:665   */\n  tag_35\n    /* \"#utility.yul\":659:664   */\n  dup2\n    /* \"#utility.yul\":641:665   */\n  tag_24\n  jump\t// in\ntag_35:\n    /* \"#utility.yul\":634:639   */\n  dup2\n    /* \"#utility.yul\":631:666   */\n  eq\n    /* \"#utility.yul\":621:684   */\n  tag_36\n  jumpi\n    /* \"#utility.yul\":680:681   */\n  0x00\n    /* \"#utility.yul\":677:678   */\n  0x00\n    /* \"#utility.yul\":670:682   */\n  revert\n    /* \"#utility.yul\":621:684   */\ntag_36:\n    /* \"#utility.yul\":568:690   */\n  pop\n  jump\t// out\n    /* \"#utility.yul\":696:839   */\ntag_26:\n    /* \"#utility.yul\":753:758   */\n  0x00\n    /* \"#utility.yul\":784:790   */\n  dup2\n    /* \"#utility.yul\":778:791   */\n  mload\n    /* \"#utility.yul\":769:791   */\n  swap1\n  pop\n    /* \"#utility.yul\":800:833   */\n  tag_38\n    /* \"#utility.yul\":827:832   */\n  dup2\n    /* \"#utility.yul\":800:833   */\n  tag_25\n  jump\t// in\ntag_38:\n    /* \"#utility.yul\":696:839   */\n  swap3\n  swap2\n  pop\n  pop\n  jump\t// out\n    /* \"#utility.yul\":845:1352   */\ntag_3:\n    /* \"#utility.yul\":924:930   */\n  0x00\n    /* \"#utility.yul\":932:938   */\n  0x00\n    /* \"#utility.yul\":981:983   */\n  0x40\n    /* \"#utility.yul\":969:978   */\n  dup4\n    /* \"#utility.yul\":960:967   */\n  dup6\n    /* \"#utility.yul\":956:979   */\n  sub\n    /* \"#utility.yul\":952:984   */\n  slt\n    /* \"#utility.yul\":949:1068   */\n  iszero\n  tag_40\n  jumpi\n    /* \"#utility.yul\":987:1066   */\n  tag_41\n  tag_21\n  jump\t// in\ntag_41:\n    /* \"#utility.yul\":949:1068   */\ntag_40:\n    /* \"#utility.yul\":1107:1108   */\n  0x00\n    /* \"#utility.yul\":1132:1196   */\n  tag_42\n    /* \"#utility.yul\":1188:1195   */\n  dup6\n    /* \"#utility.yul\":1179:1185   */\n  dup3\n    /* \"#utility.yul\":1168:1177   */\n  dup7\n    /* \"#utility.yul\":1164:1186   */\n  add\n    /* \"#utility.yul\":1132:1196   */\n  tag_26\n  jump\t// in\ntag_42:\n    /* \"#utility.yul\":1122:1196   */\n  swap3\n  pop\n    /* \"#utility.yul\":1078:1206   */\n  pop\n    /* \"#utility.yul\":1245:1247   */\n  0x20\n    /* \"#utility.yul\":1271:1335   */\n  tag_43\n    /* \"#utility.yul\":1327:1334   */\n  dup6\n    /* \"#utility.yul\":1318:1324   */\n  dup3\n    /* \"#utility.yul\":1307:1316   */\n  dup7\n    /* \"#utility.yul\":1303:1325   */\n  add\n    /* \"#utility.yul\":1271:1335   */\n  tag_26\n  jump\t// in\ntag_43:\n    /* \"#utility.yul\":1261:1335   */\n  swap2\n  pop\n    /* \"#utility.yul\":1216:1345   */\n  pop\n    /* \"#utility.yul\":845:1352   */\n  swap3\n  pop\n  swap3\n  swap1\n  pop\n  jump\t// out\n    /* \"contracts/ReadyDocs.sol\":294:4024  contract ReadyDocs is IReadyDocs, AccessControl, Pausable {... */\ntag_11:\n  mload(0x80)\n  codecopy(0x00, dataOffset(sub_0), dataSize(sub_0))\n  0x00\n  assignImmutable(\"0xab8d769fd3bb2ad700183759eb21b77f2db7ac77bcbda1f27a61bbc684dd0630\")\n  return(0x00, dataSize(sub_0))\nstop\n\nsub_0: assembly {\n        /* \"contracts/ReadyDocs.sol\":294:4024  contract ReadyDocs is IReadyDocs, AccessControl, Pausable {... */\n      mstore(0x40, 0x80)\n      callvalue\n      dup1\n      iszero\n      tag_1\n      jumpi\n      revert(0x00, 0x00)\n    tag_1:\n      pop\n      jumpi(tag_2, lt(calldatasize, 0x04))\n      shr(0xe0, calldataload(0x00))\n      dup1\n      0x7b103999\n      gt\n      tag_22\n      jumpi\n      dup1\n      0xc39e4d22\n      gt\n      tag_23\n      jumpi\n      dup1\n      0xc39e4d22\n      eq\n      tag_17\n      jumpi\n      dup1\n      0xc6ad6c69\n      eq\n      tag_18\n      jumpi\n      dup1\n      0xd547741f\n      eq\n      tag_19\n      jumpi\n      dup1\n      0xf5b541a6\n      eq\n      tag_20\n      jumpi\n      dup1\n      0xf8605b2b\n      eq\n      tag_21\n      jumpi\n      jump(tag_2)\n    tag_23:\n      dup1\n      0x7b103999\n      eq\n      tag_12\n      jumpi\n      dup1\n      0x8456cb59\n      eq\n      tag_13\n      jumpi\n      dup1\n      0x91d14854\n      eq\n      tag_14\n      jumpi\n      dup1\n      0xa217fddf\n      eq\n      tag_15\n      jumpi\n      dup1\n      0xaf904a06\n      eq\n      tag_16\n      jumpi\n      jump(tag_2)\n    tag_22:\n      dup1\n      0x2f2ff15d\n      gt\n      tag_24\n      jumpi\n      dup1\n      0x2f2ff15d\n      eq\n      tag_7\n      jumpi\n      dup1\n      0x36568abe\n      eq\n      tag_8\n      jumpi\n      dup1\n      0x3f4ba83a\n      eq\n      tag_9\n      jumpi\n      dup1\n      0x558a7297\n      eq\n      tag_10\n      jumpi\n      dup1\n      0x5c975abb\n      eq\n      tag_11\n      jumpi\n      jump(tag_2)\n    tag_24:\n      dup1\n      0x01ffc9a7\n      eq\n      tag_3\n      jumpi\n      dup1\n      0x03af914f\n      eq\n      tag_4\n      jumpi\n      dup1\n      0x0db6e43d\n      eq\n      tag_5\n      jumpi\n      dup1\n      0x248a9ca3\n      eq\n      tag_6\n      jumpi\n    tag_2:\n      revert(0x00, 0x00)\n        /* \"@openzeppelin/contracts@4.9.6/access/AccessControl.sol\":2732:2934  function supportsInterface(bytes4 interfaceId) public view virtual override returns (bool) {... */\n    tag_3:\n      tag_25\n      0x04\n      dup1\n      calldatasize\n      sub\n      dup2\n      add\n      swap1\n      tag_26\n      swap2\n      swap1\n      tag_27\n      jump\t// in\n    tag_26:\n      tag_28\n      jump\t// in\n    tag_25:\n      mload(0x40)\n      tag_29\n      swap2\n      swap1\n      tag_30\n      jump\t// in\n    tag_29:\n      mload(0x40)\n      dup1\n      swap2\n      sub\n      swap1\n      return\n        /* \"contracts/ReadyDocs.sol\":3642:3749  function docTypeOf(bytes32 docId) external view override returns (DocType) { return _docs[docId].docType; } */\n    tag_4:\n      tag_31\n      0x04\n      dup1\n      calldatasize\n      sub\n      dup2\n      add\n      swap1\n      tag_32\n      swap2\n      swap1\n      tag_33\n      jump\t// in\n    tag_32:\n      tag_34\n      jump\t// in\n    tag_31:\n      mload(0x40)\n      tag_35\n      swap2\n      swap1\n      tag_36\n      jump\t// in\n    tag_35:\n      mload(0x40)\n      dup1\n      swap2\n      sub\n      swap1\n      return\n        /* \"contracts/ReadyDocs.sol\":1458:2356  function createDocument(bytes32 docId, DocType docType, string calldata caseId, string calldata initialCid)... */\n    tag_5:\n      tag_37\n      0x04\n      dup1\n      calldatasize\n      sub\n      dup2\n      add\n      swap1\n      tag_38\n      swap2\n      swap1\n      tag_39\n      jump\t// in\n    tag_38:\n      tag_40\n      jump\t// in\n    tag_37:\n      stop\n        /* \"@openzeppelin/contracts@4.9.6/access/AccessControl.sol\":4504:4633  function getRoleAdmin(bytes32 role) public view virtual override returns (bytes32) {... */\n    tag_6:\n      tag_41\n      0x04\n      dup1\n      calldatasize\n      sub\n      dup2\n      add\n      swap1\n      tag_42\n      swap2\n      swap1\n      tag_33\n      jump\t// in\n    tag_42:\n      tag_43\n      jump\t// in\n    tag_41:\n      mload(0x40)\n      tag_44\n      swap2\n      swap1\n      tag_45\n      jump\t// in\n    tag_44:\n      mload(0x40)\n      dup1\n      swap2\n      sub\n      swap1\n      return\n        /* \"@openzeppelin/contracts@4.9.6/access/AccessControl.sol\":4929:5074  function grantRole(bytes32 role, address account) public virtual override onlyRole(getRoleAdmin(role)) {... */\n    tag_7:\n      tag_46\n      0x04\n      dup1\n      calldatasize\n      sub\n      dup2\n      add\n      swap1\n      tag_47\n      swap2\n      swap1\n      tag_48\n      jump\t// in\n    tag_47:\n      tag_49\n      jump\t// in\n    tag_46:\n      stop\n        /* \"@openzeppelin/contracts@4.9.6/access/AccessControl.sol\":6038:6252  function renounceRole(bytes32 role, address account) public virtual override {... */\n    tag_8:\n      tag_50\n      0x04\n      dup1\n      calldatasize\n      sub\n      dup2\n      add\n      swap1\n      tag_51\n      swap2\n      swap1\n      tag_48\n      jump\t// in\n    tag_51:\n      tag_52\n      jump\t// in\n    tag_50:\n      stop\n        /* \"contracts/ReadyDocs.sol\":1171:1224  function unpause() external onlyAdmin { _unpause(); } */\n    tag_9:\n      tag_53\n      tag_54\n      jump\t// in\n    tag_53:\n      stop\n        /* \"contracts/ReadyDocs.sol\":1230:1408  function setOperator(address account, bool ok) external onlyAdmin {... */\n    tag_10:\n      tag_55\n      0x04\n      dup1\n      calldatasize\n      sub\n      dup2\n      add\n      swap1\n      tag_56\n      swap2\n      swap1\n      tag_57\n      jump\t// in\n    tag_56:\n      tag_58\n      jump\t// in\n    tag_55:\n      stop\n        /* \"@openzeppelin/contracts@4.9.6/security/Pausable.sol\":1615:1699  function paused() public view virtual returns (bool) {... */\n    tag_11:\n      tag_59\n      tag_60\n      jump\t// in\n    tag_59:\n      mload(0x40)\n      tag_61\n      swap2\n      swap1\n      tag_30\n      jump\t// in\n    tag_61:\n      mload(0x40)\n      dup1\n      swap2\n      sub\n      swap1\n      return\n        /* \"contracts/ReadyDocs.sol\":359:411  ILegalPractitionerRegistry public immutable registry */\n    tag_12:\n      tag_62\n      tag_63\n      jump\t// in\n    tag_62:\n      mload(0x40)\n      tag_64\n      swap2\n      swap1\n      tag_65\n      jump\t// in\n    tag_64:\n      mload(0x40)\n      dup1\n      swap2\n      sub\n      swap1\n      return\n        /* \"contracts/ReadyDocs.sol\":1116:1165  function pause() external onlyAdmin { _pause(); } */\n    tag_13:\n      tag_66\n      tag_67\n      jump\t// in\n    tag_66:\n      stop\n        /* \"@openzeppelin/contracts@4.9.6/access/AccessControl.sol\":3021:3166  function hasRole(bytes32 role, address account) public view virtual override returns (bool) {... */\n    tag_14:\n      tag_68\n      0x04\n      dup1\n      calldatasize\n      sub\n      dup2\n      add\n      swap1\n      tag_69\n      swap2\n      swap1\n      tag_48\n      jump\t// in\n    tag_69:\n      tag_70\n      jump\t// in\n    tag_68:\n      mload(0x40)\n      tag_71\n      swap2\n      swap1\n      tag_30\n      jump\t// in\n    tag_71:\n      mload(0x40)\n      dup1\n      swap2\n      sub\n      swap1\n      return\n        /* \"@openzeppelin/contracts@4.9.6/access/AccessControl.sol\":2153:2202  bytes32 public constant DEFAULT_ADMIN_ROLE = 0x00 */\n    tag_15:\n      tag_72\n      tag_73\n      jump\t// in\n    tag_72:\n      mload(0x40)\n      tag_74\n      swap2\n      swap1\n      tag_45\n      jump\t// in\n    tag_74:\n      mload(0x40)\n      dup1\n      swap2\n      sub\n      swap1\n      return\n        /* \"contracts/ReadyDocs.sol\":3874:4021  function getVersion(bytes32 docId, uint256 index) external view override returns (Version memory) {... */\n    tag_16:\n      tag_75\n      0x04\n      dup1\n      calldatasize\n      sub\n      dup2\n      add\n      swap1\n      tag_76\n      swap2\n      swap1\n      tag_77\n      jump\t// in\n    tag_76:\n      tag_78\n      jump\t// in\n    tag_75:\n      mload(0x40)\n      tag_79\n      swap2\n      swap1\n      tag_80\n      jump\t// in\n    tag_79:\n      mload(0x40)\n      dup1\n      swap2\n      sub\n      swap1\n      return\n        /* \"contracts/ReadyDocs.sol\":3755:3868  function versionCount(bytes32 docId) external view override returns (uint256) { return _versions[docId].length; } */\n    tag_17:\n      tag_81\n      0x04\n      dup1\n      calldatasize\n      sub\n      dup2\n      add\n      swap1\n      tag_82\n      swap2\n      swap1\n      tag_33\n      jump\t// in\n    tag_82:\n      tag_83\n      jump\t// in\n    tag_81:\n      mload(0x40)\n      tag_84\n      swap2\n      swap1\n      tag_85\n      jump\t// in\n    tag_84:\n      mload(0x40)\n      dup1\n      swap2\n      sub\n      swap1\n      return\n        /* \"contracts/ReadyDocs.sol\":3167:3608  function revokeVersion(bytes32 docId, uint256 index) external whenNotPaused {... */\n    tag_18:\n      tag_86\n      0x04\n      dup1\n      calldatasize\n      sub\n      dup2\n      add\n      swap1\n      tag_87\n      swap2\n      swap1\n      tag_77\n      jump\t// in\n    tag_87:\n      tag_88\n      jump\t// in\n    tag_86:\n      stop\n        /* \"@openzeppelin/contracts@4.9.6/access/AccessControl.sol\":5354:5501  function revokeRole(bytes32 role, address account) public virtual override onlyRole(getRoleAdmin(role)) {... */\n    tag_19:\n      tag_89\n      0x04\n      dup1\n      calldatasize\n      sub\n      dup2\n      add\n      swap1\n      tag_90\n      swap2\n      swap1\n      tag_48\n      jump\t// in\n    tag_90:\n      tag_91\n      jump\t// in\n    tag_89:\n      stop\n        /* \"contracts/ReadyDocs.sol\":420:486  bytes32 public constant OPERATOR_ROLE = keccak256(\"OPERATOR_ROLE\") */\n    tag_20:\n      tag_92\n      tag_93\n      jump\t// in\n    tag_92:\n      mload(0x40)\n      tag_94\n      swap2\n      swap1\n      tag_45\n      jump\t// in\n    tag_94:\n      mload(0x40)\n      dup1\n      swap2\n      sub\n      swap1\n      return\n        /* \"contracts/ReadyDocs.sol\":2364:3098  function addVersion(bytes32 docId, string calldata cid) external whenNotPaused {... */\n    tag_21:\n      tag_95\n      0x04\n      dup1\n      calldatasize\n      sub\n      dup2\n      add\n      swap1\n      tag_96\n      swap2\n      swap1\n      tag_97\n      jump\t// in\n    tag_96:\n      tag_98\n      jump\t// in\n    tag_95:\n      stop\n        /* \"@openzeppelin/contracts@4.9.6/access/AccessControl.sol\":2732:2934  function supportsInterface(bytes4 interfaceId) public view virtual override returns (bool) {... */\n    tag_28:\n        /* \"@openzeppelin/contracts@4.9.6/access/AccessControl.sol\":2817:2821  bool */\n      0x00\n        /* \"@openzeppelin/contracts@4.9.6/access/AccessControl.sol\":2855:2887  type(IAccessControl).interfaceId */\n      0x7965db0b00000000000000000000000000000000000000000000000000000000\n        /* \"@openzeppelin/contracts@4.9.6/access/AccessControl.sol\":2840:2887  interfaceId == type(IAccessControl).interfaceId */\n      not(0xffffffffffffffffffffffffffffffffffffffffffffffffffffffff)\n      and\n        /* \"@openzeppelin/contracts@4.9.6/access/AccessControl.sol\":2840:2851  interfaceId */\n      dup3\n        /* \"@openzeppelin/contracts@4.9.6/access/AccessControl.sol\":2840:2887  interfaceId == type(IAccessControl).interfaceId */\n      not(0xffffffffffffffffffffffffffffffffffffffffffffffffffffffff)\n      and\n      eq\n        /* \"@openzeppelin/contracts@4.9.6/access/AccessControl.sol\":2840:2927  interfaceId == type(IAccessControl).interfaceId || super.supportsInterface(interfaceId) */\n      dup1\n      tag_100\n      jumpi\n      pop\n        /* \"@openzeppelin/contracts@4.9.6/access/AccessControl.sol\":2891:2927  super.supportsInterface(interfaceId) */\n      tag_101\n        /* \"@openzeppelin/contracts@4.9.6/access/AccessControl.sol\":2915:2926  interfaceId */\n      dup3\n        /* \"@openzeppelin/contracts@4.9.6/access/AccessControl.sol\":2891:2914  super.supportsInterface */\n      tag_102\n        /* \"@openzeppelin/contracts@4.9.6/access/AccessControl.sol\":2891:2927  super.supportsInterface(interfaceId) */\n      jump\t// in\n    tag_101:\n        /* \"@openzeppelin/contracts@4.9.6/access/AccessControl.sol\":2840:2927  interfaceId == type(IAccessControl).interfaceId || super.supportsInterface(interfaceId) */\n    tag_100:\n        /* \"@openzeppelin/contracts@4.9.6/access/AccessControl.sol\":2833:2927  return interfaceId == type(IAccessControl).interfaceId || super.supportsInterface(interfaceId) */\n      swap1\n      pop\n        /* \"@openzeppelin/contracts@4.9.6/access/AccessControl.sol\":2732:2934  function supportsInterface(bytes4 interfaceId) public view virtual override returns (bool) {... */\n      swap2\n      swap1\n      pop\n      jump\t// out\n        /* \"contracts/ReadyDocs.sol\":3642:3749  function docTypeOf(bytes32 docId) external view override returns (DocType) { return _docs[docId].docType; } */\n    tag_34:\n        /* \"contracts/ReadyDocs.sol\":3708:3715  DocType */\n      0x00\n        /* \"contracts/ReadyDocs.sol\":3726:3731  _docs */\n      0x02\n        /* \"contracts/ReadyDocs.sol\":3726:3738  _docs[docId] */\n      0x00\n        /* \"contracts/ReadyDocs.sol\":3732:3737  docId */\n      dup4\n        /* \"contracts/ReadyDocs.sol\":3726:3738  _docs[docId] */\n      dup2\n      mstore\n      0x20\n      add\n      swap1\n      dup2\n      mstore\n      0x20\n      add\n      0x00\n      keccak256\n        /* \"contracts/ReadyDocs.sol\":3726:3746  _docs[docId].docType */\n      0x00\n      add\n      0x00\n      swap1\n      sload\n      swap1\n      0x0100\n      exp\n      swap1\n      div\n      0xff\n      and\n        /* \"contracts/ReadyDocs.sol\":3719:3746  return _docs[docId].docType */\n      swap1\n      pop\n        /* \"contracts/ReadyDocs.sol\":3642:3749  function docTypeOf(bytes32 docId) external view override returns (DocType) { return _docs[docId].docType; } */\n      swap2\n      swap1\n      pop\n      jump\t// out\n        /* \"contracts/ReadyDocs.sol\":1458:2356  function createDocument(bytes32 docId, DocType docType, string calldata caseId, string calldata initialCid)... */\n    tag_40:\n        /* \"@openzeppelin/contracts@4.9.6/security/Pausable.sol\":1239:1258  _requireNotPaused() */\n      tag_105\n        /* \"@openzeppelin/contracts@4.9.6/security/Pausable.sol\":1239:1256  _requireNotPaused */\n      tag_106\n        /* \"@openzeppelin/contracts@4.9.6/security/Pausable.sol\":1239:1258  _requireNotPaused() */\n      jump\t// in\n    tag_105:\n        /* \"contracts/ReadyDocs.sol\":1632:1637  _docs */\n      0x02\n        /* \"contracts/ReadyDocs.sol\":1632:1644  _docs[docId] */\n      0x00\n        /* \"contracts/ReadyDocs.sol\":1638:1643  docId */\n      dup8\n        /* \"contracts/ReadyDocs.sol\":1632:1644  _docs[docId] */\n      dup2\n      mstore\n      0x20\n      add\n      swap1\n      dup2\n      mstore\n      0x20\n      add\n      0x00\n      keccak256\n        /* \"contracts/ReadyDocs.sol\":1632:1651  _docs[docId].exists */\n      0x02\n      add\n      0x00\n      swap1\n      sload\n      swap1\n      0x0100\n      exp\n      swap1\n      div\n      0xff\n      and\n        /* \"contracts/ReadyDocs.sol\":1631:1651  !_docs[docId].exists */\n      iszero\n        /* \"contracts/ReadyDocs.sol\":1623:1666  require(!_docs[docId].exists, \"doc exists\") */\n      tag_108\n      jumpi\n      mload(0x40)\n      0x08c379a000000000000000000000000000000000000000000000000000000000\n      dup2\n      mstore\n      0x04\n      add\n      tag_109\n      swap1\n      tag_110\n      jump\t// in\n    tag_109:\n      mload(0x40)\n      dup1\n      swap2\n      sub\n      swap1\n      revert\n    tag_108:\n        /* \"contracts/ReadyDocs.sol\":1734:1750  DocType.Judgment */\n      0x02\n        /* \"contracts/ReadyDocs.sol\":1723:1750  docType == DocType.Judgment */\n      0x04\n      dup2\n      gt\n      iszero\n      tag_111\n      jumpi\n      tag_112\n      tag_113\n      jump\t// in\n    tag_112:\n    tag_111:\n        /* \"contracts/ReadyDocs.sol\":1723:1730  docType */\n      dup6\n        /* \"contracts/ReadyDocs.sol\":1723:1750  docType == DocType.Judgment */\n      0x04\n      dup2\n      gt\n      iszero\n      tag_114\n      jumpi\n      tag_115\n      tag_113\n      jump\t// in\n    tag_115:\n    tag_114:\n      sub\n        /* \"contracts/ReadyDocs.sol\":1719:1949  if (docType == DocType.Judgment) {... */\n      tag_116\n      jumpi\n        /* \"contracts/ReadyDocs.sol\":1775:1783  registry */\n      immutable(\"0xab8d769fd3bb2ad700183759eb21b77f2db7ac77bcbda1f27a61bbc684dd0630\")\n        /* \"contracts/ReadyDocs.sol\":1775:1791  registry.isJudge */\n      0xffffffffffffffffffffffffffffffffffffffff\n      and\n      0xed896d66\n        /* \"contracts/ReadyDocs.sol\":1792:1802  msg.sender */\n      caller\n        /* \"contracts/ReadyDocs.sol\":1775:1803  registry.isJudge(msg.sender) */\n      mload(0x40)\n      dup3\n      0xffffffff\n      and\n      0xe0\n      shl\n      dup2\n      mstore\n      0x04\n      add\n      tag_117\n      swap2\n      swap1\n      tag_118\n      jump\t// in\n    tag_117:\n      0x20\n      mload(0x40)\n      dup1\n      dup4\n      sub\n      dup2\n      dup7\n      gas\n      staticcall\n      iszero\n      dup1\n      iszero\n      tag_120\n      jumpi\n      returndatacopy(0x00, 0x00, returndatasize)\n      revert(0x00, returndatasize)\n    tag_120:\n      pop\n      pop\n      pop\n      pop\n      mload(0x40)\n      returndatasize\n      not(0x1f)\n      0x1f\n      dup3\n      add\n      and\n      dup3\n      add\n      dup1\n      0x40\n      mstore\n      pop\n      dup2\n      add\n      swap1\n      tag_121\n      swap2\n      swap1\n      tag_122\n      jump\t// in\n    tag_121:\n        /* \"contracts/ReadyDocs.sol\":1767:1818  require(registry.isJudge(msg.sender), \"judge only\") */\n      tag_123\n      jumpi\n      mload(0x40)\n      0x08c379a000000000000000000000000000000000000000000000000000000000\n      dup2\n      mstore\n      0x04\n      add\n      tag_124\n      swap1\n      tag_125\n      jump\t// in\n    tag_124:\n      mload(0x40)\n      dup1\n      swap2\n      sub\n      swap1\n      revert\n    tag_123:\n        /* \"contracts/ReadyDocs.sol\":1719:1949  if (docType == DocType.Judgment) {... */\n      jump(tag_126)\n    tag_116:\n        /* \"contracts/ReadyDocs.sol\":1851:1867  DocType.Pleading */\n      0x01\n        /* \"contracts/ReadyDocs.sol\":1840:1867  docType == DocType.Pleading */\n      0x04\n      dup2\n      gt\n      iszero\n      tag_127\n      jumpi\n      tag_128\n      tag_113\n      jump\t// in\n    tag_128:\n    tag_127:\n        /* \"contracts/ReadyDocs.sol\":1840:1847  docType */\n      dup6\n        /* \"contracts/ReadyDocs.sol\":1840:1867  docType == DocType.Pleading */\n      0x04\n      dup2\n      gt\n      iszero\n      tag_129\n      jumpi\n      tag_130\n      tag_113\n      jump\t// in\n    tag_130:\n    tag_129:\n      sub\n        /* \"contracts/ReadyDocs.sol\":1836:1949  if (docType == DocType.Pleading) {... */\n      tag_131\n      jumpi\n        /* \"contracts/ReadyDocs.sol\":1892:1900  registry */\n      immutable(\"0xab8d769fd3bb2ad700183759eb21b77f2db7ac77bcbda1f27a61bbc684dd0630\")\n        /* \"contracts/ReadyDocs.sol\":1892:1909  registry.isLawyer */\n      0xffffffffffffffffffffffffffffffffffffffff\n      and\n      0x5939a84e\n        /* \"contracts/ReadyDocs.sol\":1910:1920  msg.sender */\n      caller\n        /* \"contracts/ReadyDocs.sol\":1892:1921  registry.isLawyer(msg.sender) */\n      mload(0x40)\n      dup3\n      0xffffffff\n      and\n      0xe0\n      shl\n      dup2\n      mstore\n      0x04\n      add\n      tag_132\n      swap2\n      swap1\n      tag_118\n      jump\t// in\n    tag_132:\n      0x20\n      mload(0x40)\n      dup1\n      dup4\n      sub\n      dup2\n      dup7\n      gas\n      staticcall\n      iszero\n      dup1\n      iszero\n      tag_134\n      jumpi\n      returndatacopy(0x00, 0x00, returndatasize)\n      revert(0x00, returndatasize)\n    tag_134:\n      pop\n      pop\n      pop\n      pop\n      mload(0x40)\n      returndatasize\n      not(0x1f)\n      0x1f\n      dup3\n      add\n      and\n      dup3\n      add\n      dup1\n      0x40\n      mstore\n      pop\n      dup2\n      add\n      swap1\n      tag_135\n      swap2\n      swap1\n      tag_122\n      jump\t// in\n    tag_135:\n        /* \"contracts/ReadyDocs.sol\":1884:1937  require(registry.isLawyer(msg.sender), \"lawyer only\") */\n      tag_136\n      jumpi\n      mload(0x40)\n      0x08c379a000000000000000000000000000000000000000000000000000000000\n      dup2\n      mstore\n      0x04\n      add\n      tag_137\n      swap1\n      tag_138\n      jump\t// in\n    tag_137:\n      mload(0x40)\n      dup1\n      swap2\n      sub\n      swap1\n      revert\n    tag_136:\n        /* \"contracts/ReadyDocs.sol\":1836:1949  if (docType == DocType.Pleading) {... */\n    tag_131:\n        /* \"contracts/ReadyDocs.sol\":1719:1949  if (docType == DocType.Judgment) {... */\n    tag_126:\n        /* \"contracts/ReadyDocs.sol\":1974:2033  DocMeta({ docType: docType, caseId: caseId, exists: true }) */\n      mload(0x40)\n      dup1\n      0x60\n      add\n      0x40\n      mstore\n      dup1\n        /* \"contracts/ReadyDocs.sol\":1993:2000  docType */\n      dup7\n        /* \"contracts/ReadyDocs.sol\":1974:2033  DocMeta({ docType: docType, caseId: caseId, exists: true }) */\n      0x04\n      dup2\n      gt\n      iszero\n      tag_139\n      jumpi\n      tag_140\n      tag_113\n      jump\t// in\n    tag_140:\n    tag_139:\n      dup2\n      mstore\n      0x20\n      add\n        /* \"contracts/ReadyDocs.sol\":2010:2016  caseId */\n      dup6\n      dup6\n        /* \"contracts/ReadyDocs.sol\":1974:2033  DocMeta({ docType: docType, caseId: caseId, exists: true }) */\n      dup1\n      dup1\n      0x1f\n      add\n      0x20\n      dup1\n      swap2\n      div\n      mul\n      0x20\n      add\n      mload(0x40)\n      swap1\n      dup2\n      add\n      0x40\n      mstore\n      dup1\n      swap4\n      swap3\n      swap2\n      swap1\n      dup2\n      dup2\n      mstore\n      0x20\n      add\n      dup4\n      dup4\n      dup1\n      dup3\n      dup5\n      calldatacopy\n      0x00\n      dup2\n      dup5\n      add\n      mstore\n      not(0x1f)\n      0x1f\n      dup3\n      add\n      and\n      swap1\n      pop\n      dup1\n      dup4\n      add\n      swap3\n      pop\n      pop\n      pop\n      pop\n      pop\n      pop\n      pop\n      dup2\n      mstore\n      0x20\n      add\n        /* \"contracts/ReadyDocs.sol\":2026:2030  true */\n      0x01\n        /* \"contracts/ReadyDocs.sol\":1974:2033  DocMeta({ docType: docType, caseId: caseId, exists: true }) */\n      iszero\n      iszero\n      dup2\n      mstore\n      pop\n        /* \"contracts/ReadyDocs.sol\":1959:1964  _docs */\n      0x02\n        /* \"contracts/ReadyDocs.sol\":1959:1971  _docs[docId] */\n      0x00\n        /* \"contracts/ReadyDocs.sol\":1965:1970  docId */\n      dup9\n        /* \"contracts/ReadyDocs.sol\":1959:1971  _docs[docId] */\n      dup2\n      mstore\n      0x20\n      add\n      swap1\n      dup2\n      mstore\n      0x20\n      add\n      0x00\n      keccak256\n        /* \"contracts/ReadyDocs.sol\":1959:2033  _docs[docId] = DocMeta({ docType: docType, caseId: caseId, exists: true }) */\n      0x00\n      dup3\n      add\n      mload\n      dup2\n      0x00\n      add\n      exp(0x0100, 0x00)\n      dup2\n      sload\n      dup2\n      0xff\n      mul\n      not\n      and\n      swap1\n      dup4\n      0x04\n      dup2\n      gt\n      iszero\n      tag_141\n      jumpi\n      tag_142\n      tag_113\n      jump\t// in\n    tag_142:\n    tag_141:\n      mul\n      or\n      swap1\n      sstore\n      pop\n      0x20\n      dup3\n      add\n      mload\n      dup2\n      0x01\n      add\n      swap1\n      dup2\n      tag_143\n      swap2\n      swap1\n      tag_144\n      jump\t// in\n    tag_143:\n      pop\n      0x40\n      dup3\n      add\n      mload\n      dup2\n      0x02\n      add\n      exp(0x0100, 0x00)\n      dup2\n      sload\n      dup2\n      0xff\n      mul\n      not\n      and\n      swap1\n      dup4\n      iszero\n      iszero\n      mul\n      or\n      swap1\n      sstore\n      pop\n      swap1\n      pop\n      pop\n        /* \"contracts/ReadyDocs.sol\":2046:2055  _versions */\n      0x03\n        /* \"contracts/ReadyDocs.sol\":2046:2062  _versions[docId] */\n      0x00\n        /* \"contracts/ReadyDocs.sol\":2056:2061  docId */\n      dup8\n        /* \"contracts/ReadyDocs.sol\":2046:2062  _versions[docId] */\n      dup2\n      mstore\n      0x20\n      add\n      swap1\n      dup2\n      mstore\n      0x20\n      add\n      0x00\n      keccak256\n        /* \"contracts/ReadyDocs.sol\":2068:2221  Version({... */\n      mload(0x40)\n      dup1\n      0x80\n      add\n      0x40\n      mstore\n      dup1\n        /* \"contracts/ReadyDocs.sol\":2096:2106  initialCid */\n      dup5\n      dup5\n        /* \"contracts/ReadyDocs.sol\":2068:2221  Version({... */\n      dup1\n      dup1\n      0x1f\n      add\n      0x20\n      dup1\n      swap2\n      div\n      mul\n      0x20\n      add\n      mload(0x40)\n      swap1\n      dup2\n      add\n      0x40\n      mstore\n      dup1\n      swap4\n      swap3\n      swap2\n      swap1\n      dup2\n      dup2\n      mstore\n      0x20\n      add\n      dup4\n      dup4\n      dup1\n      dup3\n      dup5\n      calldatacopy\n      0x00\n      dup2\n      dup5\n      add\n      mstore\n      not(0x1f)\n      0x1f\n      dup3\n      add\n      and\n      swap1\n      pop\n      dup1\n      dup4\n      add\n      swap3\n      pop\n      pop\n      pop\n      pop\n      pop\n      pop\n      pop\n      dup2\n      mstore\n      0x20\n      add\n        /* \"contracts/ReadyDocs.sol\":2132:2147  block.timestamp */\n      timestamp\n        /* \"contracts/ReadyDocs.sol\":2068:2221  Version({... */\n      dup2\n      mstore\n      0x20\n      add\n        /* \"contracts/ReadyDocs.sol\":2171:2176  false */\n      0x00\n        /* \"contracts/ReadyDocs.sol\":2068:2221  Version({... */\n      iszero\n      iszero\n      dup2\n      mstore\n      0x20\n      add\n        /* \"contracts/ReadyDocs.sol\":2199:2209  msg.sender */\n      caller\n        /* \"contracts/ReadyDocs.sol\":2068:2221  Version({... */\n      0xffffffffffffffffffffffffffffffffffffffff\n      and\n      dup2\n      mstore\n      pop\n        /* \"contracts/ReadyDocs.sol\":2046:2222  _versions[docId].push(Version({... */\n      swap1\n      dup1\n      0x01\n      dup2\n      sload\n      add\n      dup1\n      dup3\n      sstore\n      dup1\n      swap2\n      pop\n      pop\n      0x01\n      swap1\n      sub\n      swap1\n      0x00\n      mstore\n      keccak256(0x00, 0x20)\n      swap1\n      0x03\n      mul\n      add\n      0x00\n      swap1\n      swap2\n      swap1\n      swap2\n      swap1\n      swap2\n      pop\n      0x00\n      dup3\n      add\n      mload\n      dup2\n      0x00\n      add\n      swap1\n      dup2\n      tag_146\n      swap2\n      swap1\n      tag_144\n      jump\t// in\n    tag_146:\n      pop\n      0x20\n      dup3\n      add\n      mload\n      dup2\n      0x01\n      add\n      sstore\n      0x40\n      dup3\n      add\n      mload\n      dup2\n      0x02\n      add\n      exp(0x0100, 0x00)\n      dup2\n      sload\n      dup2\n      0xff\n      mul\n      not\n      and\n      swap1\n      dup4\n      iszero\n      iszero\n      mul\n      or\n      swap1\n      sstore\n      pop\n      0x60\n      dup3\n      add\n      mload\n      dup2\n      0x02\n      add\n      exp(0x0100, 0x01)\n      dup2\n      sload\n      dup2\n      0xffffffffffffffffffffffffffffffffffffffff\n      mul\n      not\n      and\n      swap1\n      dup4\n      0xffffffffffffffffffffffffffffffffffffffff\n      and\n      mul\n      or\n      swap1\n      sstore\n      pop\n      pop\n      pop\n        /* \"contracts/ReadyDocs.sol\":2275:2285  msg.sender */\n      caller\n        /* \"contracts/ReadyDocs.sol\":2240:2286  DocCreated(docId, docType, caseId, msg.sender) */\n      0xffffffffffffffffffffffffffffffffffffffff\n      and\n        /* \"contracts/ReadyDocs.sol\":2251:2256  docId */\n      dup7\n        /* \"contracts/ReadyDocs.sol\":2240:2286  DocCreated(docId, docType, caseId, msg.sender) */\n      0xea4e0cd675f42c3f1fd2c55462cec5b5222aeb79e2dc3c176e71a64286cef89b\n        /* \"contracts/ReadyDocs.sol\":2258:2265  docType */\n      dup8\n        /* \"contracts/ReadyDocs.sol\":2267:2273  caseId */\n      dup8\n      dup8\n        /* \"contracts/ReadyDocs.sol\":2240:2286  DocCreated(docId, docType, caseId, msg.sender) */\n      mload(0x40)\n      tag_147\n      swap4\n      swap3\n      swap2\n      swap1\n      tag_148\n      jump\t// in\n    tag_147:\n      mload(0x40)\n      dup1\n      swap2\n      sub\n      swap1\n      log3\n        /* \"contracts/ReadyDocs.sol\":2337:2347  msg.sender */\n      caller\n        /* \"contracts/ReadyDocs.sol\":2302:2348  VersionAdded(docId, 0, initialCid, msg.sender) */\n      0xffffffffffffffffffffffffffffffffffffffff\n      and\n        /* \"contracts/ReadyDocs.sol\":2315:2320  docId */\n      dup7\n        /* \"contracts/ReadyDocs.sol\":2302:2348  VersionAdded(docId, 0, initialCid, msg.sender) */\n      0x7501c85d0a5528fcb8b24e8b76029197b6ad4d5d05561490f81d3b9e4f3b01d3\n        /* \"contracts/ReadyDocs.sol\":2322:2323  0 */\n      0x00\n        /* \"contracts/ReadyDocs.sol\":2325:2335  initialCid */\n      dup6\n      dup6\n        /* \"contracts/ReadyDocs.sol\":2302:2348  VersionAdded(docId, 0, initialCid, msg.sender) */\n      mload(0x40)\n      tag_149\n      swap4\n      swap3\n      swap2\n      swap1\n      tag_150\n      jump\t// in\n    tag_149:\n      mload(0x40)\n      dup1\n      swap2\n      sub\n      swap1\n      log3\n        /* \"contracts/ReadyDocs.sol\":1458:2356  function createDocument(bytes32 docId, DocType docType, string calldata caseId, string calldata initialCid)... */\n      pop\n      pop\n      pop\n      pop\n      pop\n      pop\n      jump\t// out\n        /* \"@openzeppelin/contracts@4.9.6/access/AccessControl.sol\":4504:4633  function getRoleAdmin(bytes32 role) public view virtual override returns (bytes32) {... */\n    tag_43:\n        /* \"@openzeppelin/contracts@4.9.6/access/AccessControl.sol\":4578:4585  bytes32 */\n      0x00\n        /* \"@openzeppelin/contracts@4.9.6/access/AccessControl.sol\":4604:4610  _roles */\n      0x00\n        /* \"@openzeppelin/contracts@4.9.6/access/AccessControl.sol\":4604:4616  _roles[role] */\n      0x00\n        /* \"@openzeppelin/contracts@4.9.6/access/AccessControl.sol\":4611:4615  role */\n      dup4\n        /* \"@openzeppelin/contracts@4.9.6/access/AccessControl.sol\":4604:4616  _roles[role] */\n      dup2\n      mstore\n      0x20\n      add\n      swap1\n      dup2\n      mstore\n      0x20\n      add\n      0x00\n      keccak256\n        /* \"@openzeppelin/contracts@4.9.6/access/AccessControl.sol\":4604:4626  _roles[role].adminRole */\n      0x01\n      add\n      sload\n        /* \"@openzeppelin/contracts@4.9.6/access/AccessControl.sol\":4597:4626  return _roles[role].adminRole */\n      swap1\n      pop\n        /* \"@openzeppelin/contracts@4.9.6/access/AccessControl.sol\":4504:4633  function getRoleAdmin(bytes32 role) public view virtual override returns (bytes32) {... */\n      swap2\n      swap1\n      pop\n      jump\t// out\n        /* \"@openzeppelin/contracts@4.9.6/access/AccessControl.sol\":4929:5074  function grantRole(bytes32 role, address account) public virtual override onlyRole(getRoleAdmin(role)) {... */\n    tag_49:\n        /* \"@openzeppelin/contracts@4.9.6/access/AccessControl.sol\":5012:5030  getRoleAdmin(role) */\n      tag_152\n        /* \"@openzeppelin/contracts@4.9.6/access/AccessControl.sol\":5025:5029  role */\n      dup3\n        /* \"@openzeppelin/contracts@4.9.6/access/AccessControl.sol\":5012:5024  getRoleAdmin */\n      tag_43\n        /* \"@openzeppelin/contracts@4.9.6/access/AccessControl.sol\":5012:5030  getRoleAdmin(role) */\n      jump\t// in\n    tag_152:\n        /* \"@openzeppelin/contracts@4.9.6/access/AccessControl.sol\":2631:2647  _checkRole(role) */\n      tag_154\n        /* \"@openzeppelin/contracts@4.9.6/access/AccessControl.sol\":2642:2646  role */\n      dup2\n        /* \"@openzeppelin/contracts@4.9.6/access/AccessControl.sol\":2631:2641  _checkRole */\n      tag_155\n        /* \"@openzeppelin/contracts@4.9.6/access/AccessControl.sol\":2631:2647  _checkRole(role) */\n      jump\t// in\n    tag_154:\n        /* \"@openzeppelin/contracts@4.9.6/access/AccessControl.sol\":5042:5067  _grantRole(role, account) */\n      tag_157\n        /* \"@openzeppelin/contracts@4.9.6/access/AccessControl.sol\":5053:5057  role */\n      dup4\n        /* \"@openzeppelin/contracts@4.9.6/access/AccessControl.sol\":5059:5066  account */\n      dup4\n        /* \"@openzeppelin/contracts@4.9.6/access/AccessControl.sol\":5042:5052  _grantRole */\n      tag_158\n        /* \"@openzeppelin/contracts@4.9.6/access/AccessControl.sol\":5042:5067  _grantRole(role, account) */\n      jump\t// in\n    tag_157:\n        /* \"@openzeppelin/contracts@4.9.6/access/AccessControl.sol\":4929:5074  function grantRole(bytes32 role, address account) public virtual override onlyRole(getRoleAdmin(role)) {... */\n      pop\n      pop\n      pop\n      jump\t// out\n        /* \"@openzeppelin/contracts@4.9.6/access/AccessControl.sol\":6038:6252  function renounceRole(bytes32 role, address account) public virtual override {... */\n    tag_52:\n        /* \"@openzeppelin/contracts@4.9.6/access/AccessControl.sol\":6144:6156  _msgSender() */\n      tag_160\n        /* \"@openzeppelin/contracts@4.9.6/access/AccessControl.sol\":6144:6154  _msgSender */\n      tag_161\n        /* \"@openzeppelin/contracts@4.9.6/access/AccessControl.sol\":6144:6156  _msgSender() */\n      jump\t// in\n    tag_160:\n        /* \"@openzeppelin/contracts@4.9.6/access/AccessControl.sol\":6133:6156  account == _msgSender() */\n      0xffffffffffffffffffffffffffffffffffffffff\n      and\n        /* \"@openzeppelin/contracts@4.9.6/access/AccessControl.sol\":6133:6140  account */\n      dup2\n        /* \"@openzeppelin/contracts@4.9.6/access/AccessControl.sol\":6133:6156  account == _msgSender() */\n      0xffffffffffffffffffffffffffffffffffffffff\n      and\n      eq\n        /* \"@openzeppelin/contracts@4.9.6/access/AccessControl.sol\":6125:6208  require(account == _msgSender(), \"AccessControl: can only renounce roles for self\") */\n      tag_162\n      jumpi\n      mload(0x40)\n      0x08c379a000000000000000000000000000000000000000000000000000000000\n      dup2\n      mstore\n      0x04\n      add\n      tag_163\n      swap1\n      tag_164\n      jump\t// in\n    tag_163:\n      mload(0x40)\n      dup1\n      swap2\n      sub\n      swap1\n      revert\n    tag_162:\n        /* \"@openzeppelin/contracts@4.9.6/access/AccessControl.sol\":6219:6245  _revokeRole(role, account) */\n      tag_165\n        /* \"@openzeppelin/contracts@4.9.6/access/AccessControl.sol\":6231:6235  role */\n      dup3\n        /* \"@openzeppelin/contracts@4.9.6/access/AccessControl.sol\":6237:6244  account */\n      dup3\n        /* \"@openzeppelin/contracts@4.9.6/access/AccessControl.sol\":6219:6230  _revokeRole */\n      tag_166\n        /* \"@openzeppelin/contracts@4.9.6/access/AccessControl.sol\":6219:6245  _revokeRole(role, account) */\n      jump\t// in\n    tag_165:\n        /* \"@openzeppelin/contracts@4.9.6/access/AccessControl.sol\":6038:6252  function renounceRole(bytes32 role, address account) public virtual override {... */\n      pop\n      pop\n      jump\t// out\n        /* \"contracts/ReadyDocs.sol\":1171:1224  function unpause() external onlyAdmin { _unpause(); } */\n    tag_54:\n        /* \"contracts/ReadyDocs.sol\":785:824  hasRole(DEFAULT_ADMIN_ROLE, msg.sender) */\n      tag_168\n        /* \"@openzeppelin/contracts@4.9.6/access/AccessControl.sol\":2198:2202  0x00 */\n      0x00\n        /* \"contracts/ReadyDocs.sol\":793:811  DEFAULT_ADMIN_ROLE */\n      0x00\n      shl\n        /* \"contracts/ReadyDocs.sol\":813:823  msg.sender */\n      caller\n        /* \"contracts/ReadyDocs.sol\":785:792  hasRole */\n      tag_70\n        /* \"contracts/ReadyDocs.sol\":785:824  hasRole(DEFAULT_ADMIN_ROLE, msg.sender) */\n      jump\t// in\n    tag_168:\n        /* \"contracts/ReadyDocs.sol\":777:838  require(hasRole(DEFAULT_ADMIN_ROLE, msg.sender), \"Not admin\") */\n      tag_169\n      jumpi\n      mload(0x40)\n      0x08c379a000000000000000000000000000000000000000000000000000000000\n      dup2\n      mstore\n      0x04\n      add\n      tag_170\n      swap1\n      tag_171\n      jump\t// in\n    tag_170:\n      mload(0x40)\n      dup1\n      swap2\n      sub\n      swap1\n      revert\n    tag_169:\n        /* \"contracts/ReadyDocs.sol\":1211:1221  _unpause() */\n      tag_173\n        /* \"contracts/ReadyDocs.sol\":1211:1219  _unpause */\n      tag_174\n        /* \"contracts/ReadyDocs.sol\":1211:1221  _unpause() */\n      jump\t// in\n    tag_173:\n        /* \"contracts/ReadyDocs.sol\":1171:1224  function unpause() external onlyAdmin { _unpause(); } */\n      jump\t// out\n        /* \"contracts/ReadyDocs.sol\":1230:1408  function setOperator(address account, bool ok) external onlyAdmin {... */\n    tag_58:\n        /* \"contracts/ReadyDocs.sol\":785:824  hasRole(DEFAULT_ADMIN_ROLE, msg.sender) */\n      tag_176\n        /* \"@openzeppelin/contracts@4.9.6/access/AccessControl.sol\":2198:2202  0x00 */\n      0x00\n        /* \"contracts/ReadyDocs.sol\":793:811  DEFAULT_ADMIN_ROLE */\n      0x00\n      shl\n        /* \"contracts/ReadyDocs.sol\":813:823  msg.sender */\n      caller\n        /* \"contracts/ReadyDocs.sol\":785:792  hasRole */\n      tag_70\n        /* \"contracts/ReadyDocs.sol\":785:824  hasRole(DEFAULT_ADMIN_ROLE, msg.sender) */\n      jump\t// in\n    tag_176:\n        /* \"contracts/ReadyDocs.sol\":777:838  require(hasRole(DEFAULT_ADMIN_ROLE, msg.sender), \"Not admin\") */\n      tag_177\n      jumpi\n      mload(0x40)\n      0x08c379a000000000000000000000000000000000000000000000000000000000\n      dup2\n      mstore\n      0x04\n      add\n      tag_178\n      swap1\n      tag_171\n      jump\t// in\n    tag_178:\n      mload(0x40)\n      dup1\n      swap2\n      sub\n      swap1\n      revert\n    tag_177:\n        /* \"contracts/ReadyDocs.sol\":1311:1313  ok */\n      dup1\n        /* \"contracts/ReadyDocs.sol\":1307:1400  if (ok) _grantRole(OPERATOR_ROLE, account);... */\n      iszero\n      tag_180\n      jumpi\n        /* \"contracts/ReadyDocs.sol\":1315:1349  _grantRole(OPERATOR_ROLE, account) */\n      tag_181\n        /* \"contracts/ReadyDocs.sol\":460:486  keccak256(\"OPERATOR_ROLE\") */\n      0x97667070c54ef182b0f5858b034beac1b6f3089aa2d3188bb1e8929f4fa9b929\n        /* \"contracts/ReadyDocs.sol\":1341:1348  account */\n      dup4\n        /* \"contracts/ReadyDocs.sol\":1315:1325  _grantRole */\n      tag_158\n        /* \"contracts/ReadyDocs.sol\":1315:1349  _grantRole(OPERATOR_ROLE, account) */\n      jump\t// in\n    tag_181:\n        /* \"contracts/ReadyDocs.sol\":1307:1400  if (ok) _grantRole(OPERATOR_ROLE, account);... */\n      jump(tag_182)\n    tag_180:\n        /* \"contracts/ReadyDocs.sol\":1365:1400  _revokeRole(OPERATOR_ROLE, account) */\n      tag_183\n        /* \"contracts/ReadyDocs.sol\":460:486  keccak256(\"OPERATOR_ROLE\") */\n      0x97667070c54ef182b0f5858b034beac1b6f3089aa2d3188bb1e8929f4fa9b929\n        /* \"contracts/ReadyDocs.sol\":1392:1399  account */\n      dup4\n        /* \"contracts/ReadyDocs.sol\":1365:1376  _revokeRole */\n      tag_166\n        /* \"contracts/ReadyDocs.sol\":1365:1400  _revokeRole(OPERATOR_ROLE, account) */\n      jump\t// in\n    tag_183:\n        /* \"contracts/ReadyDocs.sol\":1307:1400  if (ok) _grantRole(OPERATOR_ROLE, account);... */\n    tag_182:\n        /* \"contracts/ReadyDocs.sol\":1230:1408  function setOperator(address account, bool ok) external onlyAdmin {... */\n      pop\n      pop\n      jump\t// out\n        /* \"@openzeppelin/contracts@4.9.6/security/Pausable.sol\":1615:1699  function paused() public view virtual returns (bool) {... */\n    tag_60:\n        /* \"@openzeppelin/contracts@4.9.6/security/Pausable.sol\":1662:1666  bool */\n      0x00\n        /* \"@openzeppelin/contracts@4.9.6/security/Pausable.sol\":1685:1692  _paused */\n      0x01\n      0x00\n      swap1\n      sload\n      swap1\n      0x0100\n      exp\n      swap1\n      div\n      0xff\n      and\n        /* \"@openzeppelin/contracts@4.9.6/security/Pausable.sol\":1678:1692  return _paused */\n      swap1\n      pop\n        /* \"@openzeppelin/contracts@4.9.6/security/Pausable.sol\":1615:1699  function paused() public view virtual returns (bool) {... */\n      swap1\n      jump\t// out\n        /* \"contracts/ReadyDocs.sol\":359:411  ILegalPractitionerRegistry public immutable registry */\n    tag_63:\n      immutable(\"0xab8d769fd3bb2ad700183759eb21b77f2db7ac77bcbda1f27a61bbc684dd0630\")\n      dup2\n      jump\t// out\n        /* \"contracts/ReadyDocs.sol\":1116:1165  function pause() external onlyAdmin { _pause(); } */\n    tag_67:\n        /* \"contracts/ReadyDocs.sol\":785:824  hasRole(DEFAULT_ADMIN_ROLE, msg.sender) */\n      tag_186\n        /* \"@openzeppelin/contracts@4.9.6/access/AccessControl.sol\":2198:2202  0x00 */\n      0x00\n        /* \"contracts/ReadyDocs.sol\":793:811  DEFAULT_ADMIN_ROLE */\n      0x00\n      shl\n        /* \"contracts/ReadyDocs.sol\":813:823  msg.sender */\n      caller\n        /* \"contracts/ReadyDocs.sol\":785:792  hasRole */\n      tag_70\n        /* \"contracts/ReadyDocs.sol\":785:824  hasRole(DEFAULT_ADMIN_ROLE, msg.sender) */\n      jump\t// in\n    tag_186:\n        /* \"contracts/ReadyDocs.sol\":777:838  require(hasRole(DEFAULT_ADMIN_ROLE, msg.sender), \"Not admin\") */\n      tag_187\n      jumpi\n      mload(0x40)\n      0x08c379a000000000000000000000000000000000000000000000000000000000\n      dup2\n      mstore\n      0x04\n      add\n      tag_188\n      swap1\n      tag_171\n      jump\t// in\n    tag_188:\n      mload(0x40)\n      dup1\n      swap2\n      sub\n      swap1\n      revert\n    tag_187:\n        /* \"contracts/ReadyDocs.sol\":1154:1162  _pause() */\n      tag_190\n        /* \"contracts/ReadyDocs.sol\":1154:1160  _pause */\n      tag_191\n        /* \"contracts/ReadyDocs.sol\":1154:1162  _pause() */\n      jump\t// in\n    tag_190:\n        /* \"contracts/ReadyDocs.sol\":1116:1165  function pause() external onlyAdmin { _pause(); } */\n      jump\t// out\n        /* \"@openzeppelin/contracts@4.9.6/access/AccessControl.sol\":3021:3166  function hasRole(bytes32 role, address account) public view virtual override returns (bool) {... */\n    tag_70:\n        /* \"@openzeppelin/contracts@4.9.6/access/AccessControl.sol\":3107:3111  bool */\n      0x00\n        /* \"@openzeppelin/contracts@4.9.6/access/AccessControl.sol\":3130:3136  _roles */\n      0x00\n        /* \"@openzeppelin/contracts@4.9.6/access/AccessControl.sol\":3130:3142  _roles[role] */\n      0x00\n        /* \"@openzeppelin/contracts@4.9.6/access/AccessControl.sol\":3137:3141  role */\n      dup5\n        /* \"@openzeppelin/contracts@4.9.6/access/AccessControl.sol\":3130:3142  _roles[role] */\n      dup2\n      mstore\n      0x20\n      add\n      swap1\n      dup2\n      mstore\n      0x20\n      add\n      0x00\n      keccak256\n        /* \"@openzeppelin/contracts@4.9.6/access/AccessControl.sol\":3130:3150  _roles[role].members */\n      0x00\n      add\n        /* \"@openzeppelin/contracts@4.9.6/access/AccessControl.sol\":3130:3159  _roles[role].members[account] */\n      0x00\n        /* \"@openzeppelin/contracts@4.9.6/access/AccessControl.sol\":3151:3158  account */\n      dup4\n        /* \"@openzeppelin/contracts@4.9.6/access/AccessControl.sol\":3130:3159  _roles[role].members[account] */\n      0xffffffffffffffffffffffffffffffffffffffff\n      and\n      0xffffffffffffffffffffffffffffffffffffffff\n      and\n      dup2\n      mstore\n      0x20\n      add\n      swap1\n      dup2\n      mstore\n      0x20\n      add\n      0x00\n      keccak256\n      0x00\n      swap1\n      sload\n      swap1\n      0x0100\n      exp\n      swap1\n      div\n      0xff\n      and\n        /* \"@openzeppelin/contracts@4.9.6/access/AccessControl.sol\":3123:3159  return _roles[role].members[account] */\n      swap1\n      pop\n        /* \"@openzeppelin/contracts@4.9.6/access/AccessControl.sol\":3021:3166  function hasRole(bytes32 role, address account) public view virtual override returns (bool) {... */\n      swap3\n      swap2\n      pop\n      pop\n      jump\t// out\n        /* \"@openzeppelin/contracts@4.9.6/access/AccessControl.sol\":2153:2202  bytes32 public constant DEFAULT_ADMIN_ROLE = 0x00 */\n    tag_73:\n        /* \"@openzeppelin/contracts@4.9.6/access/AccessControl.sol\":2198:2202  0x00 */\n      0x00\n        /* \"@openzeppelin/contracts@4.9.6/access/AccessControl.sol\":2153:2202  bytes32 public constant DEFAULT_ADMIN_ROLE = 0x00 */\n      0x00\n      shl\n      dup2\n      jump\t// out\n        /* \"contracts/ReadyDocs.sol\":3874:4021  function getVersion(bytes32 docId, uint256 index) external view override returns (Version memory) {... */\n    tag_78:\n        /* \"contracts/ReadyDocs.sol\":3956:3970  Version memory */\n      tag_193\n      tag_194\n      jump\t// in\n    tag_193:\n        /* \"contracts/ReadyDocs.sol\":3990:3999  _versions */\n      0x03\n        /* \"contracts/ReadyDocs.sol\":3990:4006  _versions[docId] */\n      0x00\n        /* \"contracts/ReadyDocs.sol\":4000:4005  docId */\n      dup5\n        /* \"contracts/ReadyDocs.sol\":3990:4006  _versions[docId] */\n      dup2\n      mstore\n      0x20\n      add\n      swap1\n      dup2\n      mstore\n      0x20\n      add\n      0x00\n      keccak256\n        /* \"contracts/ReadyDocs.sol\":4007:4012  index */\n      dup3\n        /* \"contracts/ReadyDocs.sol\":3990:4013  _versions[docId][index] */\n      dup2\n      sload\n      dup2\n      lt\n      tag_196\n      jumpi\n      tag_197\n      tag_198\n      jump\t// in\n    tag_197:\n    tag_196:\n      swap1\n      0x00\n      mstore\n      keccak256(0x00, 0x20)\n      swap1\n      0x03\n      mul\n      add\n        /* \"contracts/ReadyDocs.sol\":3983:4013  return _versions[docId][index] */\n      mload(0x40)\n      dup1\n      0x80\n      add\n      0x40\n      mstore\n      swap1\n      dup2\n      0x00\n      dup3\n      add\n      dup1\n      sload\n      tag_200\n      swap1\n      tag_201\n      jump\t// in\n    tag_200:\n      dup1\n      0x1f\n      add\n      0x20\n      dup1\n      swap2\n      div\n      mul\n      0x20\n      add\n      mload(0x40)\n      swap1\n      dup2\n      add\n      0x40\n      mstore\n      dup1\n      swap3\n      swap2\n      swap1\n      dup2\n      dup2\n      mstore\n      0x20\n      add\n      dup3\n      dup1\n      sload\n      tag_202\n      swap1\n      tag_201\n      jump\t// in\n    tag_202:\n      dup1\n      iszero\n      tag_203\n      jumpi\n      dup1\n      0x1f\n      lt\n      tag_204\n      jumpi\n      0x0100\n      dup1\n      dup4\n      sload\n      div\n      mul\n      dup4\n      mstore\n      swap2\n      0x20\n      add\n      swap2\n      jump(tag_203)\n    tag_204:\n      dup3\n      add\n      swap2\n      swap1\n      0x00\n      mstore\n      keccak256(0x00, 0x20)\n      swap1\n    tag_205:\n      dup2\n      sload\n      dup2\n      mstore\n      swap1\n      0x01\n      add\n      swap1\n      0x20\n      add\n      dup1\n      dup4\n      gt\n      tag_205\n      jumpi\n      dup3\n      swap1\n      sub\n      0x1f\n      and\n      dup3\n      add\n      swap2\n    tag_203:\n      pop\n      pop\n      pop\n      pop\n      pop\n      dup2\n      mstore\n      0x20\n      add\n      0x01\n      dup3\n      add\n      sload\n      dup2\n      mstore\n      0x20\n      add\n      0x02\n      dup3\n      add\n      0x00\n      swap1\n      sload\n      swap1\n      0x0100\n      exp\n      swap1\n      div\n      0xff\n      and\n      iszero\n      iszero\n      iszero\n      iszero\n      dup2\n      mstore\n      0x20\n      add\n      0x02\n      dup3\n      add\n      0x01\n      swap1\n      sload\n      swap1\n      0x0100\n      exp\n      swap1\n      div\n      0xffffffffffffffffffffffffffffffffffffffff\n      and\n      0xffffffffffffffffffffffffffffffffffffffff\n      and\n      0xffffffffffffffffffffffffffffffffffffffff\n      and\n      dup2\n      mstore\n      pop\n      pop\n      swap1\n      pop\n        /* \"contracts/ReadyDocs.sol\":3874:4021  function getVersion(bytes32 docId, uint256 index) external view override returns (Version memory) {... */\n      swap3\n      swap2\n      pop\n      pop\n      jump\t// out\n        /* \"contracts/ReadyDocs.sol\":3755:3868  function versionCount(bytes32 docId) external view override returns (uint256) { return _versions[docId].length; } */\n    tag_83:\n        /* \"contracts/ReadyDocs.sol\":3824:3831  uint256 */\n      0x00\n        /* \"contracts/ReadyDocs.sol\":3842:3851  _versions */\n      0x03\n        /* \"contracts/ReadyDocs.sol\":3842:3858  _versions[docId] */\n      0x00\n        /* \"contracts/ReadyDocs.sol\":3852:3857  docId */\n      dup4\n        /* \"contracts/ReadyDocs.sol\":3842:3858  _versions[docId] */\n      dup2\n      mstore\n      0x20\n      add\n      swap1\n      dup2\n      mstore\n      0x20\n      add\n      0x00\n      keccak256\n        /* \"contracts/ReadyDocs.sol\":3842:3865  _versions[docId].length */\n      dup1\n      sload\n      swap1\n      pop\n        /* \"contracts/ReadyDocs.sol\":3835:3865  return _versions[docId].length */\n      swap1\n      pop\n        /* \"contracts/ReadyDocs.sol\":3755:3868  function versionCount(bytes32 docId) external view override returns (uint256) { return _versions[docId].length; } */\n      swap2\n      swap1\n      pop\n      jump\t// out\n        /* \"contracts/ReadyDocs.sol\":3167:3608  function revokeVersion(bytes32 docId, uint256 index) external whenNotPaused {... */\n    tag_88:\n        /* \"@openzeppelin/contracts@4.9.6/security/Pausable.sol\":1239:1258  _requireNotPaused() */\n      tag_208\n        /* \"@openzeppelin/contracts@4.9.6/security/Pausable.sol\":1239:1256  _requireNotPaused */\n      tag_106\n        /* \"@openzeppelin/contracts@4.9.6/security/Pausable.sol\":1239:1258  _requireNotPaused() */\n      jump\t// in\n    tag_208:\n        /* \"contracts/ReadyDocs.sol\":3270:3279  _versions */\n      0x03\n        /* \"contracts/ReadyDocs.sol\":3270:3286  _versions[docId] */\n      0x00\n        /* \"contracts/ReadyDocs.sol\":3280:3285  docId */\n      dup4\n        /* \"contracts/ReadyDocs.sol\":3270:3286  _versions[docId] */\n      dup2\n      mstore\n      0x20\n      add\n      swap1\n      dup2\n      mstore\n      0x20\n      add\n      0x00\n      keccak256\n        /* \"contracts/ReadyDocs.sol\":3270:3293  _versions[docId].length */\n      dup1\n      sload\n      swap1\n      pop\n        /* \"contracts/ReadyDocs.sol\":3262:3267  index */\n      dup2\n        /* \"contracts/ReadyDocs.sol\":3262:3293  index < _versions[docId].length */\n      lt\n        /* \"contracts/ReadyDocs.sol\":3254:3307  require(index < _versions[docId].length, \"bad index\") */\n      tag_210\n      jumpi\n      mload(0x40)\n      0x08c379a000000000000000000000000000000000000000000000000000000000\n      dup2\n      mstore\n      0x04\n      add\n      tag_211\n      swap1\n      tag_212\n      jump\t// in\n    tag_211:\n      mload(0x40)\n      dup1\n      swap2\n      sub\n      swap1\n      revert\n    tag_210:\n        /* \"contracts/ReadyDocs.sol\":3318:3335  Version storage v */\n      0x00\n        /* \"contracts/ReadyDocs.sol\":3338:3347  _versions */\n      0x03\n        /* \"contracts/ReadyDocs.sol\":3338:3354  _versions[docId] */\n      0x00\n        /* \"contracts/ReadyDocs.sol\":3348:3353  docId */\n      dup5\n        /* \"contracts/ReadyDocs.sol\":3338:3354  _versions[docId] */\n      dup2\n      mstore\n      0x20\n      add\n      swap1\n      dup2\n      mstore\n      0x20\n      add\n      0x00\n      keccak256\n        /* \"contracts/ReadyDocs.sol\":3355:3360  index */\n      dup3\n        /* \"contracts/ReadyDocs.sol\":3338:3361  _versions[docId][index] */\n      dup2\n      sload\n      dup2\n      lt\n      tag_213\n      jumpi\n      tag_214\n      tag_198\n      jump\t// in\n    tag_214:\n    tag_213:\n      swap1\n      0x00\n      mstore\n      keccak256(0x00, 0x20)\n      swap1\n      0x03\n      mul\n      add\n        /* \"contracts/ReadyDocs.sol\":3318:3361  Version storage v = _versions[docId][index] */\n      swap1\n      pop\n        /* \"contracts/ReadyDocs.sol\":3381:3382  v */\n      dup1\n        /* \"contracts/ReadyDocs.sol\":3381:3390  v.revoked */\n      0x02\n      add\n      0x00\n      swap1\n      sload\n      swap1\n      0x0100\n      exp\n      swap1\n      div\n      0xff\n      and\n        /* \"contracts/ReadyDocs.sol\":3380:3390  !v.revoked */\n      iszero\n        /* \"contracts/ReadyDocs.sol\":3372:3410  require(!v.revoked, \"already revoked\") */\n      tag_216\n      jumpi\n      mload(0x40)\n      0x08c379a000000000000000000000000000000000000000000000000000000000\n      dup2\n      mstore\n      0x04\n      add\n      tag_217\n      swap1\n      tag_218\n      jump\t// in\n    tag_217:\n      mload(0x40)\n      dup1\n      swap2\n      sub\n      swap1\n      revert\n    tag_216:\n        /* \"contracts/ReadyDocs.sol\":3441:3451  msg.sender */\n      caller\n        /* \"contracts/ReadyDocs.sol\":3429:3451  v.author == msg.sender */\n      0xffffffffffffffffffffffffffffffffffffffff\n      and\n        /* \"contracts/ReadyDocs.sol\":3429:3430  v */\n      dup2\n        /* \"contracts/ReadyDocs.sol\":3429:3437  v.author */\n      0x02\n      add\n      0x01\n      swap1\n      sload\n      swap1\n      0x0100\n      exp\n      swap1\n      div\n      0xffffffffffffffffffffffffffffffffffffffff\n      and\n        /* \"contracts/ReadyDocs.sol\":3429:3451  v.author == msg.sender */\n      0xffffffffffffffffffffffffffffffffffffffff\n      and\n      eq\n        /* \"contracts/ReadyDocs.sol\":3429:3494  v.author == msg.sender || hasRole(DEFAULT_ADMIN_ROLE, msg.sender) */\n      dup1\n      tag_219\n      jumpi\n      pop\n        /* \"contracts/ReadyDocs.sol\":3455:3494  hasRole(DEFAULT_ADMIN_ROLE, msg.sender) */\n      tag_220\n        /* \"@openzeppelin/contracts@4.9.6/access/AccessControl.sol\":2198:2202  0x00 */\n      0x00\n        /* \"contracts/ReadyDocs.sol\":3463:3481  DEFAULT_ADMIN_ROLE */\n      0x00\n      shl\n        /* \"contracts/ReadyDocs.sol\":3483:3493  msg.sender */\n      caller\n        /* \"contracts/ReadyDocs.sol\":3455:3462  hasRole */\n      tag_70\n        /* \"contracts/ReadyDocs.sol\":3455:3494  hasRole(DEFAULT_ADMIN_ROLE, msg.sender) */\n      jump\t// in\n    tag_220:\n        /* \"contracts/ReadyDocs.sol\":3429:3494  v.author == msg.sender || hasRole(DEFAULT_ADMIN_ROLE, msg.sender) */\n    tag_219:\n        /* \"contracts/ReadyDocs.sol\":3421:3515  require(v.author == msg.sender || hasRole(DEFAULT_ADMIN_ROLE, msg.sender), \"not author/admin\") */\n      tag_221\n      jumpi\n      mload(0x40)\n      0x08c379a000000000000000000000000000000000000000000000000000000000\n      dup2\n      mstore\n      0x04\n      add\n      tag_222\n      swap1\n      tag_223\n      jump\t// in\n    tag_222:\n      mload(0x40)\n      dup1\n      swap2\n      sub\n      swap1\n      revert\n    tag_221:\n        /* \"contracts/ReadyDocs.sol\":3540:3544  true */\n      0x01\n        /* \"contracts/ReadyDocs.sol\":3528:3529  v */\n      dup2\n        /* \"contracts/ReadyDocs.sol\":3528:3537  v.revoked */\n      0x02\n      add\n      0x00\n        /* \"contracts/ReadyDocs.sol\":3528:3544  v.revoked = true */\n      0x0100\n      exp\n      dup2\n      sload\n      dup2\n      0xff\n      mul\n      not\n      and\n      swap1\n      dup4\n      iszero\n      iszero\n      mul\n      or\n      swap1\n      sstore\n      pop\n        /* \"contracts/ReadyDocs.sol\":3589:3599  msg.sender */\n      caller\n        /* \"contracts/ReadyDocs.sol\":3560:3600  VersionRevoked(docId, index, msg.sender) */\n      0xffffffffffffffffffffffffffffffffffffffff\n      and\n        /* \"contracts/ReadyDocs.sol\":3575:3580  docId */\n      dup4\n        /* \"contracts/ReadyDocs.sol\":3560:3600  VersionRevoked(docId, index, msg.sender) */\n      0x37d67bb547a4bafbf5d40641eca855e25ab648c5f67f850072e7793bf04552\n        /* \"contracts/ReadyDocs.sol\":3582:3587  index */\n      dup5\n        /* \"contracts/ReadyDocs.sol\":3560:3600  VersionRevoked(docId, index, msg.sender) */\n      mload(0x40)\n      tag_224\n      swap2\n      swap1\n      tag_85\n      jump\t// in\n    tag_224:\n      mload(0x40)\n      dup1\n      swap2\n      sub\n      swap1\n      log3\n        /* \"contracts/ReadyDocs.sol\":3243:3608  {... */\n      pop\n        /* \"contracts/ReadyDocs.sol\":3167:3608  function revokeVersion(bytes32 docId, uint256 index) external whenNotPaused {... */\n      pop\n      pop\n      jump\t// out\n        /* \"@openzeppelin/contracts@4.9.6/access/AccessControl.sol\":5354:5501  function revokeRole(bytes32 role, address account) public virtual override onlyRole(getRoleAdmin(role)) {... */\n    tag_91:\n        /* \"@openzeppelin/contracts@4.9.6/access/AccessControl.sol\":5438:5456  getRoleAdmin(role) */\n      tag_225\n        /* \"@openzeppelin/contracts@4.9.6/access/AccessControl.sol\":5451:5455  role */\n      dup3\n        /* \"@openzeppelin/contracts@4.9.6/access/AccessControl.sol\":5438:5450  getRoleAdmin */\n      tag_43\n        /* \"@openzeppelin/contracts@4.9.6/access/AccessControl.sol\":5438:5456  getRoleAdmin(role) */\n      jump\t// in\n    tag_225:\n        /* \"@openzeppelin/contracts@4.9.6/access/AccessControl.sol\":2631:2647  _checkRole(role) */\n      tag_227\n        /* \"@openzeppelin/contracts@4.9.6/access/AccessControl.sol\":2642:2646  role */\n      dup2\n        /* \"@openzeppelin/contracts@4.9.6/access/AccessControl.sol\":2631:2641  _checkRole */\n      tag_155\n        /* \"@openzeppelin/contracts@4.9.6/access/AccessControl.sol\":2631:2647  _checkRole(role) */\n      jump\t// in\n    tag_227:\n        /* \"@openzeppelin/contracts@4.9.6/access/AccessControl.sol\":5468:5494  _revokeRole(role, account) */\n      tag_229\n        /* \"@openzeppelin/contracts@4.9.6/access/AccessControl.sol\":5480:5484  role */\n      dup4\n        /* \"@openzeppelin/contracts@4.9.6/access/AccessControl.sol\":5486:5493  account */\n      dup4\n        /* \"@openzeppelin/contracts@4.9.6/access/AccessControl.sol\":5468:5479  _revokeRole */\n      tag_166\n        /* \"@openzeppelin/contracts@4.9.6/access/AccessControl.sol\":5468:5494  _revokeRole(role, account) */\n      jump\t// in\n    tag_229:\n        /* \"@openzeppelin/contracts@4.9.6/access/AccessControl.sol\":5354:5501  function revokeRole(bytes32 role, address account) public virtual override onlyRole(getRoleAdmin(role)) {... */\n      pop\n      pop\n      pop\n      jump\t// out\n        /* \"contracts/ReadyDocs.sol\":420:486  bytes32 public constant OPERATOR_ROLE = keccak256(\"OPERATOR_ROLE\") */\n    tag_93:\n        /* \"contracts/ReadyDocs.sol\":460:486  keccak256(\"OPERATOR_ROLE\") */\n      0x97667070c54ef182b0f5858b034beac1b6f3089aa2d3188bb1e8929f4fa9b929\n        /* \"contracts/ReadyDocs.sol\":420:486  bytes32 public constant OPERATOR_ROLE = keccak256(\"OPERATOR_ROLE\") */\n      dup2\n      jump\t// out\n        /* \"contracts/ReadyDocs.sol\":2364:3098  function addVersion(bytes32 docId, string calldata cid) external whenNotPaused {... */\n    tag_98:\n        /* \"@openzeppelin/contracts@4.9.6/security/Pausable.sol\":1239:1258  _requireNotPaused() */\n      tag_231\n        /* \"@openzeppelin/contracts@4.9.6/security/Pausable.sol\":1239:1256  _requireNotPaused */\n      tag_106\n        /* \"@openzeppelin/contracts@4.9.6/security/Pausable.sol\":1239:1258  _requireNotPaused() */\n      jump\t// in\n    tag_231:\n        /* \"contracts/ReadyDocs.sol\":2454:2471  DocMeta memory dm */\n      0x00\n        /* \"contracts/ReadyDocs.sol\":2474:2479  _docs */\n      0x02\n        /* \"contracts/ReadyDocs.sol\":2474:2486  _docs[docId] */\n      0x00\n        /* \"contracts/ReadyDocs.sol\":2480:2485  docId */\n      dup6\n        /* \"contracts/ReadyDocs.sol\":2474:2486  _docs[docId] */\n      dup2\n      mstore\n      0x20\n      add\n      swap1\n      dup2\n      mstore\n      0x20\n      add\n      0x00\n      keccak256\n        /* \"contracts/ReadyDocs.sol\":2454:2486  DocMeta memory dm = _docs[docId] */\n      mload(0x40)\n      dup1\n      0x60\n      add\n      0x40\n      mstore\n      swap1\n      dup2\n      0x00\n      dup3\n      add\n      0x00\n      swap1\n      sload\n      swap1\n      0x0100\n      exp\n      swap1\n      div\n      0xff\n      and\n      0x04\n      dup2\n      gt\n      iszero\n      tag_233\n      jumpi\n      tag_234\n      tag_113\n      jump\t// in\n    tag_234:\n    tag_233:\n      0x04\n      dup2\n      gt\n      iszero\n      tag_235\n      jumpi\n      tag_236\n      tag_113\n      jump\t// in\n    tag_236:\n    tag_235:\n      dup2\n      mstore\n      0x20\n      add\n      0x01\n      dup3\n      add\n      dup1\n      sload\n      tag_237\n      swap1\n      tag_201\n      jump\t// in\n    tag_237:\n      dup1\n      0x1f\n      add\n      0x20\n      dup1\n      swap2\n      div\n      mul\n      0x20\n      add\n      mload(0x40)\n      swap1\n      dup2\n      add\n      0x40\n      mstore\n      dup1\n      swap3\n      swap2\n      swap1\n      dup2\n      dup2\n      mstore\n      0x20\n      add\n      dup3\n      dup1\n      sload\n      tag_238\n      swap1\n      tag_201\n      jump\t// in\n    tag_238:\n      dup1\n      iszero\n      tag_239\n      jumpi\n      dup1\n      0x1f\n      lt\n      tag_240\n      jumpi\n      0x0100\n      dup1\n      dup4\n      sload\n      div\n      mul\n      dup4\n      mstore\n      swap2\n      0x20\n      add\n      swap2\n      jump(tag_239)\n    tag_240:\n      dup3\n      add\n      swap2\n      swap1\n      0x00\n      mstore\n      keccak256(0x00, 0x20)\n      swap1\n    tag_241:\n      dup2\n      sload\n      dup2\n      mstore\n      swap1\n      0x01\n      add\n      swap1\n      0x20\n      add\n      dup1\n      dup4\n      gt\n      tag_241\n      jumpi\n      dup3\n      swap1\n      sub\n      0x1f\n      and\n      dup3\n      add\n      swap2\n    tag_239:\n      pop\n      pop\n      pop\n      pop\n      pop\n      dup2\n      mstore\n      0x20\n      add\n      0x02\n      dup3\n      add\n      0x00\n      swap1\n      sload\n      swap1\n      0x0100\n      exp\n      swap1\n      div\n      0xff\n      and\n      iszero\n      iszero\n      iszero\n      iszero\n      dup2\n      mstore\n      pop\n      pop\n      swap1\n      pop\n        /* \"contracts/ReadyDocs.sol\":2505:2507  dm */\n      dup1\n        /* \"contracts/ReadyDocs.sol\":2505:2514  dm.exists */\n      0x40\n      add\n      mload\n        /* \"contracts/ReadyDocs.sol\":2497:2525  require(dm.exists, \"no doc\") */\n      tag_242\n      jumpi\n      mload(0x40)\n      0x08c379a000000000000000000000000000000000000000000000000000000000\n      dup2\n      mstore\n      0x04\n      add\n      tag_243\n      swap1\n      tag_244\n      jump\t// in\n    tag_243:\n      mload(0x40)\n      dup1\n      swap2\n      sub\n      swap1\n      revert\n    tag_242:\n        /* \"contracts/ReadyDocs.sol\":2608:2624  DocType.Judgment */\n      0x02\n        /* \"contracts/ReadyDocs.sol\":2594:2624  dm.docType == DocType.Judgment */\n      0x04\n      dup2\n      gt\n      iszero\n      tag_245\n      jumpi\n      tag_246\n      tag_113\n      jump\t// in\n    tag_246:\n    tag_245:\n        /* \"contracts/ReadyDocs.sol\":2594:2596  dm */\n      dup2\n        /* \"contracts/ReadyDocs.sol\":2594:2604  dm.docType */\n      0x00\n      add\n      mload\n        /* \"contracts/ReadyDocs.sol\":2594:2624  dm.docType == DocType.Judgment */\n      0x04\n      dup2\n      gt\n      iszero\n      tag_247\n      jumpi\n      tag_248\n      tag_113\n      jump\t// in\n    tag_248:\n    tag_247:\n      sub\n        /* \"contracts/ReadyDocs.sol\":2590:2826  if (dm.docType == DocType.Judgment) {... */\n      tag_249\n      jumpi\n        /* \"contracts/ReadyDocs.sol\":2649:2657  registry */\n      immutable(\"0xab8d769fd3bb2ad700183759eb21b77f2db7ac77bcbda1f27a61bbc684dd0630\")\n        /* \"contracts/ReadyDocs.sol\":2649:2665  registry.isJudge */\n      0xffffffffffffffffffffffffffffffffffffffff\n      and\n      0xed896d66\n        /* \"contracts/ReadyDocs.sol\":2666:2676  msg.sender */\n      caller\n        /* \"contracts/ReadyDocs.sol\":2649:2677  registry.isJudge(msg.sender) */\n      mload(0x40)\n      dup3\n      0xffffffff\n      and\n      0xe0\n      shl\n      dup2\n      mstore\n      0x04\n      add\n      tag_250\n      swap2\n      swap1\n      tag_118\n      jump\t// in\n    tag_250:\n      0x20\n      mload(0x40)\n      dup1\n      dup4\n      sub\n      dup2\n      dup7\n      gas\n      staticcall\n      iszero\n      dup1\n      iszero\n      tag_252\n      jumpi\n      returndatacopy(0x00, 0x00, returndatasize)\n      revert(0x00, returndatasize)\n    tag_252:\n      pop\n      pop\n      pop\n      pop\n      mload(0x40)\n      returndatasize\n      not(0x1f)\n      0x1f\n      dup3\n      add\n      and\n      dup3\n      add\n      dup1\n      0x40\n      mstore\n      pop\n      dup2\n      add\n      swap1\n      tag_253\n      swap2\n      swap1\n      tag_122\n      jump\t// in\n    tag_253:\n        /* \"contracts/ReadyDocs.sol\":2641:2692  require(registry.isJudge(msg.sender), \"judge only\") */\n      tag_254\n      jumpi\n      mload(0x40)\n      0x08c379a000000000000000000000000000000000000000000000000000000000\n      dup2\n      mstore\n      0x04\n      add\n      tag_255\n      swap1\n      tag_125\n      jump\t// in\n    tag_255:\n      mload(0x40)\n      dup1\n      swap2\n      sub\n      swap1\n      revert\n    tag_254:\n        /* \"contracts/ReadyDocs.sol\":2590:2826  if (dm.docType == DocType.Judgment) {... */\n      jump(tag_256)\n    tag_249:\n        /* \"contracts/ReadyDocs.sol\":2728:2744  DocType.Pleading */\n      0x01\n        /* \"contracts/ReadyDocs.sol\":2714:2744  dm.docType == DocType.Pleading */\n      0x04\n      dup2\n      gt\n      iszero\n      tag_257\n      jumpi\n      tag_258\n      tag_113\n      jump\t// in\n    tag_258:\n    tag_257:\n        /* \"contracts/ReadyDocs.sol\":2714:2716  dm */\n      dup2\n        /* \"contracts/ReadyDocs.sol\":2714:2724  dm.docType */\n      0x00\n      add\n      mload\n        /* \"contracts/ReadyDocs.sol\":2714:2744  dm.docType == DocType.Pleading */\n      0x04\n      dup2\n      gt\n      iszero\n      tag_259\n      jumpi\n      tag_260\n      tag_113\n      jump\t// in\n    tag_260:\n    tag_259:\n      sub\n        /* \"contracts/ReadyDocs.sol\":2710:2826  if (dm.docType == DocType.Pleading) {... */\n      tag_261\n      jumpi\n        /* \"contracts/ReadyDocs.sol\":2769:2777  registry */\n      immutable(\"0xab8d769fd3bb2ad700183759eb21b77f2db7ac77bcbda1f27a61bbc684dd0630\")\n        /* \"contracts/ReadyDocs.sol\":2769:2786  registry.isLawyer */\n      0xffffffffffffffffffffffffffffffffffffffff\n      and\n      0x5939a84e\n        /* \"contracts/ReadyDocs.sol\":2787:2797  msg.sender */\n      caller\n        /* \"contracts/ReadyDocs.sol\":2769:2798  registry.isLawyer(msg.sender) */\n      mload(0x40)\n      dup3\n      0xffffffff\n      and\n      0xe0\n      shl\n      dup2\n      mstore\n      0x04\n      add\n      tag_262\n      swap2\n      swap1\n      tag_118\n      jump\t// in\n    tag_262:\n      0x20\n      mload(0x40)\n      dup1\n      dup4\n      sub\n      dup2\n      dup7\n      gas\n      staticcall\n      iszero\n      dup1\n      iszero\n      tag_264\n      jumpi\n      returndatacopy(0x00, 0x00, returndatasize)\n      revert(0x00, returndatasize)\n    tag_264:\n      pop\n      pop\n      pop\n      pop\n      mload(0x40)\n      returndatasize\n      not(0x1f)\n      0x1f\n      dup3\n      add\n      and\n      dup3\n      add\n      dup1\n      0x40\n      mstore\n      pop\n      dup2\n      add\n      swap1\n      tag_265\n      swap2\n      swap1\n      tag_122\n      jump\t// in\n    tag_265:\n        /* \"contracts/ReadyDocs.sol\":2761:2814  require(registry.isLawyer(msg.sender), \"lawyer only\") */\n      tag_266\n      jumpi\n      mload(0x40)\n      0x08c379a000000000000000000000000000000000000000000000000000000000\n      dup2\n      mstore\n      0x04\n      add\n      tag_267\n      swap1\n      tag_138\n      jump\t// in\n    tag_267:\n      mload(0x40)\n      dup1\n      swap2\n      sub\n      swap1\n      revert\n    tag_266:\n        /* \"contracts/ReadyDocs.sol\":2710:2826  if (dm.docType == DocType.Pleading) {... */\n    tag_261:\n        /* \"contracts/ReadyDocs.sol\":2590:2826  if (dm.docType == DocType.Judgment) {... */\n    tag_256:\n        /* \"contracts/ReadyDocs.sol\":2838:2847  _versions */\n      0x03\n        /* \"contracts/ReadyDocs.sol\":2838:2854  _versions[docId] */\n      0x00\n        /* \"contracts/ReadyDocs.sol\":2848:2853  docId */\n      dup6\n        /* \"contracts/ReadyDocs.sol\":2838:2854  _versions[docId] */\n      dup2\n      mstore\n      0x20\n      add\n      swap1\n      dup2\n      mstore\n      0x20\n      add\n      0x00\n      keccak256\n        /* \"contracts/ReadyDocs.sol\":2860:3006  Version({... */\n      mload(0x40)\n      dup1\n      0x80\n      add\n      0x40\n      mstore\n      dup1\n        /* \"contracts/ReadyDocs.sol\":2888:2891  cid */\n      dup6\n      dup6\n        /* \"contracts/ReadyDocs.sol\":2860:3006  Version({... */\n      dup1\n      dup1\n      0x1f\n      add\n      0x20\n      dup1\n      swap2\n      div\n      mul\n      0x20\n      add\n      mload(0x40)\n      swap1\n      dup2\n      add\n      0x40\n      mstore\n      dup1\n      swap4\n      swap3\n      swap2\n      swap1\n      dup2\n      dup2\n      mstore\n      0x20\n      add\n      dup4\n      dup4\n      dup1\n      dup3\n      dup5\n      calldatacopy\n      0x00\n      dup2\n      dup5\n      add\n      mstore\n      not(0x1f)\n      0x1f\n      dup3\n      add\n      and\n      swap1\n      pop\n      dup1\n      dup4\n      add\n      swap3\n      pop\n      pop\n      pop\n      pop\n      pop\n      pop\n      pop\n      dup2\n      mstore\n      0x20\n      add\n        /* \"contracts/ReadyDocs.sol\":2917:2932  block.timestamp */\n      timestamp\n        /* \"contracts/ReadyDocs.sol\":2860:3006  Version({... */\n      dup2\n      mstore\n      0x20\n      add\n        /* \"contracts/ReadyDocs.sol\":2956:2961  false */\n      0x00\n        /* \"contracts/ReadyDocs.sol\":2860:3006  Version({... */\n      iszero\n      iszero\n      dup2\n      mstore\n      0x20\n      add\n        /* \"contracts/ReadyDocs.sol\":2984:2994  msg.sender */\n      caller\n        /* \"contracts/ReadyDocs.sol\":2860:3006  Version({... */\n      0xffffffffffffffffffffffffffffffffffffffff\n      and\n      dup2\n      mstore\n      pop\n        /* \"contracts/ReadyDocs.sol\":2838:3007  _versions[docId].push(Version({... */\n      swap1\n      dup1\n      0x01\n      dup2\n      sload\n      add\n      dup1\n      dup3\n      sstore\n      dup1\n      swap2\n      pop\n      pop\n      0x01\n      swap1\n      sub\n      swap1\n      0x00\n      mstore\n      keccak256(0x00, 0x20)\n      swap1\n      0x03\n      mul\n      add\n      0x00\n      swap1\n      swap2\n      swap1\n      swap2\n      swap1\n      swap2\n      pop\n      0x00\n      dup3\n      add\n      mload\n      dup2\n      0x00\n      add\n      swap1\n      dup2\n      tag_269\n      swap2\n      swap1\n      tag_144\n      jump\t// in\n    tag_269:\n      pop\n      0x20\n      dup3\n      add\n      mload\n      dup2\n      0x01\n      add\n      sstore\n      0x40\n      dup3\n      add\n      mload\n      dup2\n      0x02\n      add\n      exp(0x0100, 0x00)\n      dup2\n      sload\n      dup2\n      0xff\n      mul\n      not\n      and\n      swap1\n      dup4\n      iszero\n      iszero\n      mul\n      or\n      swap1\n      sstore\n      pop\n      0x60\n      dup3\n      add\n      mload\n      dup2\n      0x02\n      add\n      exp(0x0100, 0x01)\n      dup2\n      sload\n      dup2\n      0xffffffffffffffffffffffffffffffffffffffff\n      mul\n      not\n      and\n      swap1\n      dup4\n      0xffffffffffffffffffffffffffffffffffffffff\n      and\n      mul\n      or\n      swap1\n      sstore\n      pop\n      pop\n      pop\n        /* \"contracts/ReadyDocs.sol\":3079:3089  msg.sender */\n      caller\n        /* \"contracts/ReadyDocs.sol\":3025:3090  VersionAdded(docId, _versions[docId].length - 1, cid, msg.sender) */\n      0xffffffffffffffffffffffffffffffffffffffff\n      and\n        /* \"contracts/ReadyDocs.sol\":3038:3043  docId */\n      dup5\n        /* \"contracts/ReadyDocs.sol\":3025:3090  VersionAdded(docId, _versions[docId].length - 1, cid, msg.sender) */\n      0x7501c85d0a5528fcb8b24e8b76029197b6ad4d5d05561490f81d3b9e4f3b01d3\n        /* \"contracts/ReadyDocs.sol\":3071:3072  1 */\n      0x01\n        /* \"contracts/ReadyDocs.sol\":3045:3054  _versions */\n      0x03\n        /* \"contracts/ReadyDocs.sol\":3045:3061  _versions[docId] */\n      0x00\n        /* \"contracts/ReadyDocs.sol\":3055:3060  docId */\n      dup10\n        /* \"contracts/ReadyDocs.sol\":3045:3061  _versions[docId] */\n      dup2\n      mstore\n      0x20\n      add\n      swap1\n      dup2\n      mstore\n      0x20\n      add\n      0x00\n      keccak256\n        /* \"contracts/ReadyDocs.sol\":3045:3068  _versions[docId].length */\n      dup1\n      sload\n      swap1\n      pop\n        /* \"contracts/ReadyDocs.sol\":3045:3072  _versions[docId].length - 1 */\n      tag_270\n      swap2\n      swap1\n      tag_271\n      jump\t// in\n    tag_270:\n        /* \"contracts/ReadyDocs.sol\":3074:3077  cid */\n      dup7\n      dup7\n        /* \"contracts/ReadyDocs.sol\":3025:3090  VersionAdded(docId, _versions[docId].length - 1, cid, msg.sender) */\n      mload(0x40)\n      tag_272\n      swap4\n      swap3\n      swap2\n      swap1\n      tag_273\n      jump\t// in\n    tag_272:\n      mload(0x40)\n      dup1\n      swap2\n      sub\n      swap1\n      log3\n        /* \"contracts/ReadyDocs.sol\":2443:3098  {... */\n      pop\n        /* \"contracts/ReadyDocs.sol\":2364:3098  function addVersion(bytes32 docId, string calldata cid) external whenNotPaused {... */\n      pop\n      pop\n      pop\n      jump\t// out\n        /* \"@openzeppelin/contracts@4.9.6/utils/introspection/ERC165.sol\":829:984  function supportsInterface(bytes4 interfaceId) public view virtual override returns (bool) {... */\n    tag_102:\n        /* \"@openzeppelin/contracts@4.9.6/utils/introspection/ERC165.sol\":914:918  bool */\n      0x00\n        /* \"@openzeppelin/contracts@4.9.6/utils/introspection/ERC165.sol\":952:977  type(IERC165).interfaceId */\n      0x01ffc9a700000000000000000000000000000000000000000000000000000000\n        /* \"@openzeppelin/contracts@4.9.6/utils/introspection/ERC165.sol\":937:977  interfaceId == type(IERC165).interfaceId */\n      not(0xffffffffffffffffffffffffffffffffffffffffffffffffffffffff)\n      and\n        /* \"@openzeppelin/contracts@4.9.6/utils/introspection/ERC165.sol\":937:948  interfaceId */\n      dup3\n        /* \"@openzeppelin/contracts@4.9.6/utils/introspection/ERC165.sol\":937:977  interfaceId == type(IERC165).interfaceId */\n      not(0xffffffffffffffffffffffffffffffffffffffffffffffffffffffff)\n      and\n      eq\n        /* \"@openzeppelin/contracts@4.9.6/utils/introspection/ERC165.sol\":930:977  return interfaceId == type(IERC165).interfaceId */\n      swap1\n      pop\n        /* \"@openzeppelin/contracts@4.9.6/utils/introspection/ERC165.sol\":829:984  function supportsInterface(bytes4 interfaceId) public view virtual override returns (bool) {... */\n      swap2\n      swap1\n      pop\n      jump\t// out\n        /* \"@openzeppelin/contracts@4.9.6/security/Pausable.sol\":1767:1873  function _requireNotPaused() internal view virtual {... */\n    tag_106:\n        /* \"@openzeppelin/contracts@4.9.6/security/Pausable.sol\":1837:1845  paused() */\n      tag_276\n        /* \"@openzeppelin/contracts@4.9.6/security/Pausable.sol\":1837:1843  paused */\n      tag_60\n        /* \"@openzeppelin/contracts@4.9.6/security/Pausable.sol\":1837:1845  paused() */\n      jump\t// in\n    tag_276:\n        /* \"@openzeppelin/contracts@4.9.6/security/Pausable.sol\":1836:1845  !paused() */\n      iszero\n        /* \"@openzeppelin/contracts@4.9.6/security/Pausable.sol\":1828:1866  require(!paused(), \"Pausable: paused\") */\n      tag_277\n      jumpi\n      mload(0x40)\n      0x08c379a000000000000000000000000000000000000000000000000000000000\n      dup2\n      mstore\n      0x04\n      add\n      tag_278\n      swap1\n      tag_279\n      jump\t// in\n    tag_278:\n      mload(0x40)\n      dup1\n      swap2\n      sub\n      swap1\n      revert\n    tag_277:\n        /* \"@openzeppelin/contracts@4.9.6/security/Pausable.sol\":1767:1873  function _requireNotPaused() internal view virtual {... */\n      jump\t// out\n        /* \"@openzeppelin/contracts@4.9.6/access/AccessControl.sol\":3460:3563  function _checkRole(bytes32 role) internal view virtual {... */\n    tag_155:\n        /* \"@openzeppelin/contracts@4.9.6/access/AccessControl.sol\":3526:3556  _checkRole(role, _msgSender()) */\n      tag_281\n        /* \"@openzeppelin/contracts@4.9.6/access/AccessControl.sol\":3537:3541  role */\n      dup2\n        /* \"@openzeppelin/contracts@4.9.6/access/AccessControl.sol\":3543:3555  _msgSender() */\n      tag_282\n        /* \"@openzeppelin/contracts@4.9.6/access/AccessControl.sol\":3543:3553  _msgSender */\n      tag_161\n        /* \"@openzeppelin/contracts@4.9.6/access/AccessControl.sol\":3543:3555  _msgSender() */\n      jump\t// in\n    tag_282:\n        /* \"@openzeppelin/contracts@4.9.6/access/AccessControl.sol\":3526:3536  _checkRole */\n      tag_283\n        /* \"@openzeppelin/contracts@4.9.6/access/AccessControl.sol\":3526:3556  _checkRole(role, _msgSender()) */\n      jump\t// in\n    tag_281:\n        /* \"@openzeppelin/contracts@4.9.6/access/AccessControl.sol\":3460:3563  function _checkRole(bytes32 role) internal view virtual {... */\n      pop\n      jump\t// out\n        /* \"@openzeppelin/contracts@4.9.6/access/AccessControl.sol\":7587:7820  function _grantRole(bytes32 role, address account) internal virtual {... */\n    tag_158:\n        /* \"@openzeppelin/contracts@4.9.6/access/AccessControl.sol\":7670:7692  hasRole(role, account) */\n      tag_285\n        /* \"@openzeppelin/contracts@4.9.6/access/AccessControl.sol\":7678:7682  role */\n      dup3\n        /* \"@openzeppelin/contracts@4.9.6/access/AccessControl.sol\":7684:7691  account */\n      dup3\n        /* \"@openzeppelin/contracts@4.9.6/access/AccessControl.sol\":7670:7677  hasRole */\n      tag_70\n        /* \"@openzeppelin/contracts@4.9.6/access/AccessControl.sol\":7670:7692  hasRole(role, account) */\n      jump\t// in\n    tag_285:\n        /* \"@openzeppelin/contracts@4.9.6/access/AccessControl.sol\":7665:7814  if (!hasRole(role, account)) {... */\n      tag_286\n      jumpi\n        /* \"@openzeppelin/contracts@4.9.6/access/AccessControl.sol\":7740:7744  true */\n      0x01\n        /* \"@openzeppelin/contracts@4.9.6/access/AccessControl.sol\":7708:7714  _roles */\n      0x00\n        /* \"@openzeppelin/contracts@4.9.6/access/AccessControl.sol\":7708:7720  _roles[role] */\n      0x00\n        /* \"@openzeppelin/contracts@4.9.6/access/AccessControl.sol\":7715:7719  role */\n      dup5\n        /* \"@openzeppelin/contracts@4.9.6/access/AccessControl.sol\":7708:7720  _roles[role] */\n      dup2\n      mstore\n      0x20\n      add\n      swap1\n      dup2\n      mstore\n      0x20\n      add\n      0x00\n      keccak256\n        /* \"@openzeppelin/contracts@4.9.6/access/AccessControl.sol\":7708:7728  _roles[role].members */\n      0x00\n      add\n        /* \"@openzeppelin/contracts@4.9.6/access/AccessControl.sol\":7708:7737  _roles[role].members[account] */\n      0x00\n        /* \"@openzeppelin/contracts@4.9.6/access/AccessControl.sol\":7729:7736  account */\n      dup4\n        /* \"@openzeppelin/contracts@4.9.6/access/AccessControl.sol\":7708:7737  _roles[role].members[account] */\n      0xffffffffffffffffffffffffffffffffffffffff\n      and\n      0xffffffffffffffffffffffffffffffffffffffff\n      and\n      dup2\n      mstore\n      0x20\n      add\n      swap1\n      dup2\n      mstore\n      0x20\n      add\n      0x00\n      keccak256\n      0x00\n        /* \"@openzeppelin/contracts@4.9.6/access/AccessControl.sol\":7708:7744  _roles[role].members[account] = true */\n      0x0100\n      exp\n      dup2\n      sload\n      dup2\n      0xff\n      mul\n      not\n      and\n      swap1\n      dup4\n      iszero\n      iszero\n      mul\n      or\n      swap1\n      sstore\n      pop\n        /* \"@openzeppelin/contracts@4.9.6/access/AccessControl.sol\":7790:7802  _msgSender() */\n      tag_287\n        /* \"@openzeppelin/contracts@4.9.6/access/AccessControl.sol\":7790:7800  _msgSender */\n      tag_161\n        /* \"@openzeppelin/contracts@4.9.6/access/AccessControl.sol\":7790:7802  _msgSender() */\n      jump\t// in\n    tag_287:\n        /* \"@openzeppelin/contracts@4.9.6/access/AccessControl.sol\":7763:7803  RoleGranted(role, account, _msgSender()) */\n      0xffffffffffffffffffffffffffffffffffffffff\n      and\n        /* \"@openzeppelin/contracts@4.9.6/access/AccessControl.sol\":7781:7788  account */\n      dup2\n        /* \"@openzeppelin/contracts@4.9.6/access/AccessControl.sol\":7763:7803  RoleGranted(role, account, _msgSender()) */\n      0xffffffffffffffffffffffffffffffffffffffff\n      and\n        /* \"@openzeppelin/contracts@4.9.6/access/AccessControl.sol\":7775:7779  role */\n      dup4\n        /* \"@openzeppelin/contracts@4.9.6/access/AccessControl.sol\":7763:7803  RoleGranted(role, account, _msgSender()) */\n      0x2f8788117e7eff1d82e926ec794901d17c78024a50270940304540a733656f0d\n      mload(0x40)\n      mload(0x40)\n      dup1\n      swap2\n      sub\n      swap1\n      log4\n        /* \"@openzeppelin/contracts@4.9.6/access/AccessControl.sol\":7665:7814  if (!hasRole(role, account)) {... */\n    tag_286:\n        /* \"@openzeppelin/contracts@4.9.6/access/AccessControl.sol\":7587:7820  function _grantRole(bytes32 role, address account) internal virtual {... */\n      pop\n      pop\n      jump\t// out\n        /* \"@openzeppelin/contracts@4.9.6/utils/Context.sol\":655:751  function _msgSender() internal view virtual returns (address) {... */\n    tag_161:\n        /* \"@openzeppelin/contracts@4.9.6/utils/Context.sol\":708:715  address */\n      0x00\n        /* \"@openzeppelin/contracts@4.9.6/utils/Context.sol\":734:744  msg.sender */\n      caller\n        /* \"@openzeppelin/contracts@4.9.6/utils/Context.sol\":727:744  return msg.sender */\n      swap1\n      pop\n        /* \"@openzeppelin/contracts@4.9.6/utils/Context.sol\":655:751  function _msgSender() internal view virtual returns (address) {... */\n      swap1\n      jump\t// out\n        /* \"@openzeppelin/contracts@4.9.6/access/AccessControl.sol\":7991:8225  function _revokeRole(bytes32 role, address account) internal virtual {... */\n    tag_166:\n        /* \"@openzeppelin/contracts@4.9.6/access/AccessControl.sol\":8074:8096  hasRole(role, account) */\n      tag_290\n        /* \"@openzeppelin/contracts@4.9.6/access/AccessControl.sol\":8082:8086  role */\n      dup3\n        /* \"@openzeppelin/contracts@4.9.6/access/AccessControl.sol\":8088:8095  account */\n      dup3\n        /* \"@openzeppelin/contracts@4.9.6/access/AccessControl.sol\":8074:8081  hasRole */\n      tag_70\n        /* \"@openzeppelin/contracts@4.9.6/access/AccessControl.sol\":8074:8096  hasRole(role, account) */\n      jump\t// in\n    tag_290:\n        /* \"@openzeppelin/contracts@4.9.6/access/AccessControl.sol\":8070:8219  if (hasRole(role, account)) {... */\n      iszero\n      tag_291\n      jumpi\n        /* \"@openzeppelin/contracts@4.9.6/access/AccessControl.sol\":8144:8149  false */\n      0x00\n        /* \"@openzeppelin/contracts@4.9.6/access/AccessControl.sol\":8112:8118  _roles */\n      0x00\n        /* \"@openzeppelin/contracts@4.9.6/access/AccessControl.sol\":8112:8124  _roles[role] */\n      0x00\n        /* \"@openzeppelin/contracts@4.9.6/access/AccessControl.sol\":8119:8123  role */\n      dup5\n        /* \"@openzeppelin/contracts@4.9.6/access/AccessControl.sol\":8112:8124  _roles[role] */\n      dup2\n      mstore\n      0x20\n      add\n      swap1\n      dup2\n      mstore\n      0x20\n      add\n      0x00\n      keccak256\n        /* \"@openzeppelin/contracts@4.9.6/access/AccessControl.sol\":8112:8132  _roles[role].members */\n      0x00\n      add\n        /* \"@openzeppelin/contracts@4.9.6/access/AccessControl.sol\":8112:8141  _roles[role].members[account] */\n      0x00\n        /* \"@openzeppelin/contracts@4.9.6/access/AccessControl.sol\":8133:8140  account */\n      dup4\n        /* \"@openzeppelin/contracts@4.9.6/access/AccessControl.sol\":8112:8141  _roles[role].members[account] */\n      0xffffffffffffffffffffffffffffffffffffffff\n      and\n      0xffffffffffffffffffffffffffffffffffffffff\n      and\n      dup2\n      mstore\n      0x20\n      add\n      swap1\n      dup2\n      mstore\n      0x20\n      add\n      0x00\n      keccak256\n      0x00\n        /* \"@openzeppelin/contracts@4.9.6/access/AccessControl.sol\":8112:8149  _roles[role].members[account] = false */\n      0x0100\n      exp\n      dup2\n      sload\n      dup2\n      0xff\n      mul\n      not\n      and\n      swap1\n      dup4\n      iszero\n      iszero\n      mul\n      or\n      swap1\n      sstore\n      pop\n        /* \"@openzeppelin/contracts@4.9.6/access/AccessControl.sol\":8195:8207  _msgSender() */\n      tag_292\n        /* \"@openzeppelin/contracts@4.9.6/access/AccessControl.sol\":8195:8205  _msgSender */\n      tag_161\n        /* \"@openzeppelin/contracts@4.9.6/access/AccessControl.sol\":8195:8207  _msgSender() */\n      jump\t// in\n    tag_292:\n        /* \"@openzeppelin/contracts@4.9.6/access/AccessControl.sol\":8168:8208  RoleRevoked(role, account, _msgSender()) */\n      0xffffffffffffffffffffffffffffffffffffffff\n      and\n        /* \"@openzeppelin/contracts@4.9.6/access/AccessControl.sol\":8186:8193  account */\n      dup2\n        /* \"@openzeppelin/contracts@4.9.6/access/AccessControl.sol\":8168:8208  RoleRevoked(role, account, _msgSender()) */\n      0xffffffffffffffffffffffffffffffffffffffff\n      and\n        /* \"@openzeppelin/contracts@4.9.6/access/AccessControl.sol\":8180:8184  role */\n      dup4\n        /* \"@openzeppelin/contracts@4.9.6/access/AccessControl.sol\":8168:8208  RoleRevoked(role, account, _msgSender()) */\n      0xf6391f5c32d9c69d2a47ea670b442974b53935d1edc7fd64eb21e047a839171b\n      mload(0x40)\n      mload(0x40)\n      dup1\n      swap2\n      sub\n      swap1\n      log4\n        /* \"@openzeppelin/contracts@4.9.6/access/AccessControl.sol\":8070:8219  if (hasRole(role, account)) {... */\n    tag_291:\n        /* \"@openzeppelin/contracts@4.9.6/access/AccessControl.sol\":7991:8225  function _revokeRole(bytes32 role, address account) internal virtual {... */\n      pop\n      pop\n      jump\t// out\n        /* \"@openzeppelin/contracts@4.9.6/security/Pausable.sol\":2433:2550  function _unpause() internal virtual whenPaused {... */\n    tag_174:\n        /* \"@openzeppelin/contracts@4.9.6/security/Pausable.sol\":1486:1502  _requirePaused() */\n      tag_294\n        /* \"@openzeppelin/contracts@4.9.6/security/Pausable.sol\":1486:1500  _requirePaused */\n      tag_295\n        /* \"@openzeppelin/contracts@4.9.6/security/Pausable.sol\":1486:1502  _requirePaused() */\n      jump\t// in\n    tag_294:\n        /* \"@openzeppelin/contracts@4.9.6/security/Pausable.sol\":2501:2506  false */\n      0x00\n        /* \"@openzeppelin/contracts@4.9.6/security/Pausable.sol\":2491:2498  _paused */\n      0x01\n      0x00\n        /* \"@openzeppelin/contracts@4.9.6/security/Pausable.sol\":2491:2506  _paused = false */\n      0x0100\n      exp\n      dup2\n      sload\n      dup2\n      0xff\n      mul\n      not\n      and\n      swap1\n      dup4\n      iszero\n      iszero\n      mul\n      or\n      swap1\n      sstore\n      pop\n        /* \"@openzeppelin/contracts@4.9.6/security/Pausable.sol\":2521:2543  Unpaused(_msgSender()) */\n      0x5db9ee0a495bf2e6ff9c91a7834c1ba4fdd244a5e8aa4e537bd38aeae4b073aa\n        /* \"@openzeppelin/contracts@4.9.6/security/Pausable.sol\":2530:2542  _msgSender() */\n      tag_297\n        /* \"@openzeppelin/contracts@4.9.6/security/Pausable.sol\":2530:2540  _msgSender */\n      tag_161\n        /* \"@openzeppelin/contracts@4.9.6/security/Pausable.sol\":2530:2542  _msgSender() */\n      jump\t// in\n    tag_297:\n        /* \"@openzeppelin/contracts@4.9.6/security/Pausable.sol\":2521:2543  Unpaused(_msgSender()) */\n      mload(0x40)\n      tag_298\n      swap2\n      swap1\n      tag_118\n      jump\t// in\n    tag_298:\n      mload(0x40)\n      dup1\n      swap2\n      sub\n      swap1\n      log1\n        /* \"@openzeppelin/contracts@4.9.6/security/Pausable.sol\":2433:2550  function _unpause() internal virtual whenPaused {... */\n      jump\t// out\n        /* \"@openzeppelin/contracts@4.9.6/security/Pausable.sol\":2186:2301  function _pause() internal virtual whenNotPaused {... */\n    tag_191:\n        /* \"@openzeppelin/contracts@4.9.6/security/Pausable.sol\":1239:1258  _requireNotPaused() */\n      tag_300\n        /* \"@openzeppelin/contracts@4.9.6/security/Pausable.sol\":1239:1256  _requireNotPaused */\n      tag_106\n        /* \"@openzeppelin/contracts@4.9.6/security/Pausable.sol\":1239:1258  _requireNotPaused() */\n      jump\t// in\n    tag_300:\n        /* \"@openzeppelin/contracts@4.9.6/security/Pausable.sol\":2255:2259  true */\n      0x01\n        /* \"@openzeppelin/contracts@4.9.6/security/Pausable.sol\":2245:2252  _paused */\n      dup1\n      0x00\n        /* \"@openzeppelin/contracts@4.9.6/security/Pausable.sol\":2245:2259  _paused = true */\n      0x0100\n      exp\n      dup2\n      sload\n      dup2\n      0xff\n      mul\n      not\n      and\n      swap1\n      dup4\n      iszero\n      iszero\n      mul\n      or\n      swap1\n      sstore\n      pop\n        /* \"@openzeppelin/contracts@4.9.6/security/Pausable.sol\":2274:2294  Paused(_msgSender()) */\n      0x62e78cea01bee320cd4e420270b5ea74000d11b0c9f74754ebdbfc544b05a258\n        /* \"@openzeppelin/contracts@4.9.6/security/Pausable.sol\":2281:2293  _msgSender() */\n      tag_302\n        /* \"@openzeppelin/contracts@4.9.6/security/Pausable.sol\":2281:2291  _msgSender */\n      tag_161\n        /* \"@openzeppelin/contracts@4.9.6/security/Pausable.sol\":2281:2293  _msgSender() */\n      jump\t// in\n    tag_302:\n        /* \"@openzeppelin/contracts@4.9.6/security/Pausable.sol\":2274:2294  Paused(_msgSender()) */\n      mload(0x40)\n      tag_303\n      swap2\n      swap1\n      tag_118\n      jump\t// in\n    tag_303:\n      mload(0x40)\n      dup1\n      swap2\n      sub\n      swap1\n      log1\n        /* \"@openzeppelin/contracts@4.9.6/security/Pausable.sol\":2186:2301  function _pause() internal virtual whenNotPaused {... */\n      jump\t// out\n        /* \"@openzeppelin/contracts@4.9.6/access/AccessControl.sol\":3844:4323  function _checkRole(bytes32 role, address account) internal view virtual {... */\n    tag_283:\n        /* \"@openzeppelin/contracts@4.9.6/access/AccessControl.sol\":3932:3954  hasRole(role, account) */\n      tag_305\n        /* \"@openzeppelin/contracts@4.9.6/access/AccessControl.sol\":3940:3944  role */\n      dup3\n        /* \"@openzeppelin/contracts@4.9.6/access/AccessControl.sol\":3946:3953  account */\n      dup3\n        /* \"@openzeppelin/contracts@4.9.6/access/AccessControl.sol\":3932:3939  hasRole */\n      tag_70\n        /* \"@openzeppelin/contracts@4.9.6/access/AccessControl.sol\":3932:3954  hasRole(role, account) */\n      jump\t// in\n    tag_305:\n        /* \"@openzeppelin/contracts@4.9.6/access/AccessControl.sol\":3927:4317  if (!hasRole(role, account)) {... */\n      tag_306\n      jumpi\n        /* \"@openzeppelin/contracts@4.9.6/access/AccessControl.sol\":4115:4143  Strings.toHexString(account) */\n      tag_307\n        /* \"@openzeppelin/contracts@4.9.6/access/AccessControl.sol\":4135:4142  account */\n      dup2\n        /* \"@openzeppelin/contracts@4.9.6/access/AccessControl.sol\":4115:4134  Strings.toHexString */\n      tag_308\n        /* \"@openzeppelin/contracts@4.9.6/access/AccessControl.sol\":4115:4143  Strings.toHexString(account) */\n      jump\t// in\n    tag_307:\n        /* \"@openzeppelin/contracts@4.9.6/access/AccessControl.sol\":4214:4252  Strings.toHexString(uint256(role), 32) */\n      tag_309\n        /* \"@openzeppelin/contracts@4.9.6/access/AccessControl.sol\":4242:4246  role */\n      dup4\n        /* \"@openzeppelin/contracts@4.9.6/access/AccessControl.sol\":4234:4247  uint256(role) */\n      0x00\n      shr\n        /* \"@openzeppelin/contracts@4.9.6/access/AccessControl.sol\":4249:4251  32 */\n      0x20\n        /* \"@openzeppelin/contracts@4.9.6/access/AccessControl.sol\":4214:4233  Strings.toHexString */\n      tag_310\n        /* \"@openzeppelin/contracts@4.9.6/access/AccessControl.sol\":4214:4252  Strings.toHexString(uint256(role), 32) */\n      jump\t// in\n    tag_309:\n        /* \"@openzeppelin/contracts@4.9.6/access/AccessControl.sol\":4022:4274  abi.encodePacked(... */\n      add(0x20, mload(0x40))\n      tag_311\n      swap3\n      swap2\n      swap1\n      tag_312\n      jump\t// in\n    tag_311:\n      mload(0x40)\n      0x20\n      dup2\n      dup4\n      sub\n      sub\n      dup2\n      mstore\n      swap1\n      0x40\n      mstore\n        /* \"@openzeppelin/contracts@4.9.6/access/AccessControl.sol\":3970:4306  revert(... */\n      mload(0x40)\n      0x08c379a000000000000000000000000000000000000000000000000000000000\n      dup2\n      mstore\n      0x04\n      add\n      tag_313\n      swap2\n      swap1\n      tag_314\n      jump\t// in\n    tag_313:\n      mload(0x40)\n      dup1\n      swap2\n      sub\n      swap1\n      revert\n        /* \"@openzeppelin/contracts@4.9.6/access/AccessControl.sol\":3927:4317  if (!hasRole(role, account)) {... */\n    tag_306:\n        /* \"@openzeppelin/contracts@4.9.6/access/AccessControl.sol\":3844:4323  function _checkRole(bytes32 role, address account) internal view virtual {... */\n      pop\n      pop\n      jump\t// out\n        /* \"@openzeppelin/contracts@4.9.6/security/Pausable.sol\":1945:2051  function _requirePaused() internal view virtual {... */\n    tag_295:\n        /* \"@openzeppelin/contracts@4.9.6/security/Pausable.sol\":2011:2019  paused() */\n      tag_316\n        /* \"@openzeppelin/contracts@4.9.6/security/Pausable.sol\":2011:2017  paused */\n      tag_60\n        /* \"@openzeppelin/contracts@4.9.6/security/Pausable.sol\":2011:2019  paused() */\n      jump\t// in\n    tag_316:\n        /* \"@openzeppelin/contracts@4.9.6/security/Pausable.sol\":2003:2044  require(paused(), \"Pausable: not paused\") */\n      tag_317\n      jumpi\n      mload(0x40)\n      0x08c379a000000000000000000000000000000000000000000000000000000000\n      dup2\n      mstore\n      0x04\n      add\n      tag_318\n      swap1\n      tag_319\n      jump\t// in\n    tag_318:\n      mload(0x40)\n      dup1\n      swap2\n      sub\n      swap1\n      revert\n    tag_317:\n        /* \"@openzeppelin/contracts@4.9.6/security/Pausable.sol\":1945:2051  function _requirePaused() internal view virtual {... */\n      jump\t// out\n        /* \"@openzeppelin/contracts@4.9.6/utils/Strings.sol\":2407:2556  function toHexString(address addr) internal pure returns (string memory) {... */\n    tag_308:\n        /* \"@openzeppelin/contracts@4.9.6/utils/Strings.sol\":2465:2478  string memory */\n      0x60\n        /* \"@openzeppelin/contracts@4.9.6/utils/Strings.sol\":2497:2549  toHexString(uint256(uint160(addr)), _ADDRESS_LENGTH) */\n      tag_321\n        /* \"@openzeppelin/contracts@4.9.6/utils/Strings.sol\":2525:2529  addr */\n      dup3\n        /* \"@openzeppelin/contracts@4.9.6/utils/Strings.sol\":2509:2531  uint256(uint160(addr)) */\n      0xffffffffffffffffffffffffffffffffffffffff\n      and\n        /* \"@openzeppelin/contracts@4.9.6/utils/Strings.sol\":343:345  20 */\n      0x14\n        /* \"@openzeppelin/contracts@4.9.6/utils/Strings.sol\":2497:2549  toHexString(uint256(uint160(addr)), _ADDRESS_LENGTH) */\n      0xff\n      and\n        /* \"@openzeppelin/contracts@4.9.6/utils/Strings.sol\":2497:2508  toHexString */\n      tag_310\n        /* \"@openzeppelin/contracts@4.9.6/utils/Strings.sol\":2497:2549  toHexString(uint256(uint160(addr)), _ADDRESS_LENGTH) */\n      jump\t// in\n    tag_321:\n        /* \"@openzeppelin/contracts@4.9.6/utils/Strings.sol\":2490:2549  return toHexString(uint256(uint160(addr)), _ADDRESS_LENGTH) */\n      swap1\n      pop\n        /* \"@openzeppelin/contracts@4.9.6/utils/Strings.sol\":2407:2556  function toHexString(address addr) internal pure returns (string memory) {... */\n      swap2\n      swap1\n      pop\n      jump\t// out\n        /* \"@openzeppelin/contracts@4.9.6/utils/Strings.sol\":1818:2255  function toHexString(uint256 value, uint256 length) internal pure returns (string memory) {... */\n    tag_310:\n        /* \"@openzeppelin/contracts@4.9.6/utils/Strings.sol\":1893:1906  string memory */\n      0x60\n        /* \"@openzeppelin/contracts@4.9.6/utils/Strings.sol\":1918:1937  bytes memory buffer */\n      0x00\n        /* \"@openzeppelin/contracts@4.9.6/utils/Strings.sol\":1963:1964  2 */\n      0x02\n        /* \"@openzeppelin/contracts@4.9.6/utils/Strings.sol\":1954:1960  length */\n      dup4\n        /* \"@openzeppelin/contracts@4.9.6/utils/Strings.sol\":1950:1951  2 */\n      0x02\n        /* \"@openzeppelin/contracts@4.9.6/utils/Strings.sol\":1950:1960  2 * length */\n      tag_323\n      swap2\n      swap1\n      tag_324\n      jump\t// in\n    tag_323:\n        /* \"@openzeppelin/contracts@4.9.6/utils/Strings.sol\":1950:1964  2 * length + 2 */\n      tag_325\n      swap2\n      swap1\n      tag_326\n      jump\t// in\n    tag_325:\n        /* \"@openzeppelin/contracts@4.9.6/utils/Strings.sol\":1940:1965  new bytes(2 * length + 2) */\n      0xffffffffffffffff\n      dup2\n      gt\n      iszero\n      tag_327\n      jumpi\n      tag_328\n      tag_329\n      jump\t// in\n    tag_328:\n    tag_327:\n      mload(0x40)\n      swap1\n      dup1\n      dup3\n      mstore\n      dup1\n      0x1f\n      add\n      not(0x1f)\n      and\n      0x20\n      add\n      dup3\n      add\n      0x40\n      mstore\n      dup1\n      iszero\n      tag_330\n      jumpi\n      dup2\n      0x20\n      add\n      0x01\n      dup3\n      mul\n      dup1\n      calldatasize\n      dup4\n      calldatacopy\n      dup1\n      dup3\n      add\n      swap2\n      pop\n      pop\n      swap1\n      pop\n    tag_330:\n      pop\n        /* \"@openzeppelin/contracts@4.9.6/utils/Strings.sol\":1918:1965  bytes memory buffer = new bytes(2 * length + 2) */\n      swap1\n      pop\n        /* \"@openzeppelin/contracts@4.9.6/utils/Strings.sol\":1975:1990  buffer[0] = \"0\" */\n      0x3000000000000000000000000000000000000000000000000000000000000000\n        /* \"@openzeppelin/contracts@4.9.6/utils/Strings.sol\":1975:1981  buffer */\n      dup2\n        /* \"@openzeppelin/contracts@4.9.6/utils/Strings.sol\":1982:1983  0 */\n      0x00\n        /* \"@openzeppelin/contracts@4.9.6/utils/Strings.sol\":1975:1984  buffer[0] */\n      dup2\n      mload\n      dup2\n      lt\n      tag_331\n      jumpi\n      tag_332\n      tag_198\n      jump\t// in\n    tag_332:\n    tag_331:\n      0x20\n      add\n      add\n        /* \"@openzeppelin/contracts@4.9.6/utils/Strings.sol\":1975:1990  buffer[0] = \"0\" */\n      swap1\n      not(0xffffffffffffffffffffffffffffffffffffffffffffffffffffffffffffff)\n      and\n      swap1\n      dup2\n      0x00\n      byte\n      swap1\n      mstore8\n      pop\n        /* \"@openzeppelin/contracts@4.9.6/utils/Strings.sol\":2000:2015  buffer[1] = \"x\" */\n      0x7800000000000000000000000000000000000000000000000000000000000000\n        /* \"@openzeppelin/contracts@4.9.6/utils/Strings.sol\":2000:2006  buffer */\n      dup2\n        /* \"@openzeppelin/contracts@4.9.6/utils/Strings.sol\":2007:2008  1 */\n      0x01\n        /* \"@openzeppelin/contracts@4.9.6/utils/Strings.sol\":2000:2009  buffer[1] */\n      dup2\n      mload\n      dup2\n      lt\n      tag_333\n      jumpi\n      tag_334\n      tag_198\n      jump\t// in\n    tag_334:\n    tag_333:\n      0x20\n      add\n      add\n        /* \"@openzeppelin/contracts@4.9.6/utils/Strings.sol\":2000:2015  buffer[1] = \"x\" */\n      swap1\n      not(0xffffffffffffffffffffffffffffffffffffffffffffffffffffffffffffff)\n      and\n      swap1\n      dup2\n      0x00\n      byte\n      swap1\n      mstore8\n      pop\n        /* \"@openzeppelin/contracts@4.9.6/utils/Strings.sol\":2030:2039  uint256 i */\n      0x00\n        /* \"@openzeppelin/contracts@4.9.6/utils/Strings.sol\":2055:2056  1 */\n      0x01\n        /* \"@openzeppelin/contracts@4.9.6/utils/Strings.sol\":2046:2052  length */\n      dup5\n        /* \"@openzeppelin/contracts@4.9.6/utils/Strings.sol\":2042:2043  2 */\n      0x02\n        /* \"@openzeppelin/contracts@4.9.6/utils/Strings.sol\":2042:2052  2 * length */\n      tag_338\n      swap2\n      swap1\n      tag_324\n      jump\t// in\n    tag_338:\n        /* \"@openzeppelin/contracts@4.9.6/utils/Strings.sol\":2042:2056  2 * length + 1 */\n      tag_339\n      swap2\n      swap1\n      tag_326\n      jump\t// in\n    tag_339:\n        /* \"@openzeppelin/contracts@4.9.6/utils/Strings.sol\":2030:2056  uint256 i = 2 * length + 1 */\n      swap1\n      pop\n        /* \"@openzeppelin/contracts@4.9.6/utils/Strings.sol\":2025:2153  for (uint256 i = 2 * length + 1; i > 1; --i) {... */\n    tag_335:\n        /* \"@openzeppelin/contracts@4.9.6/utils/Strings.sol\":2062:2063  1 */\n      0x01\n        /* \"@openzeppelin/contracts@4.9.6/utils/Strings.sol\":2058:2059  i */\n      dup2\n        /* \"@openzeppelin/contracts@4.9.6/utils/Strings.sol\":2058:2063  i > 1 */\n      gt\n        /* \"@openzeppelin/contracts@4.9.6/utils/Strings.sol\":2025:2153  for (uint256 i = 2 * length + 1; i > 1; --i) {... */\n      iszero\n      tag_336\n      jumpi\n        /* \"@openzeppelin/contracts@4.9.6/utils/Strings.sol\":2096:2104  _SYMBOLS */\n      0x3031323334353637383961626364656600000000000000000000000000000000\n        /* \"@openzeppelin/contracts@4.9.6/utils/Strings.sol\":2113:2116  0xf */\n      0x0f\n        /* \"@openzeppelin/contracts@4.9.6/utils/Strings.sol\":2105:2110  value */\n      dup7\n        /* \"@openzeppelin/contracts@4.9.6/utils/Strings.sol\":2105:2116  value & 0xf */\n      and\n        /* \"@openzeppelin/contracts@4.9.6/utils/Strings.sol\":2096:2117  _SYMBOLS[value & 0xf] */\n      0x10\n      dup2\n      lt\n      tag_340\n      jumpi\n      tag_341\n      tag_198\n      jump\t// in\n    tag_341:\n    tag_340:\n      byte\n      0xf8\n      shl\n        /* \"@openzeppelin/contracts@4.9.6/utils/Strings.sol\":2084:2090  buffer */\n      dup3\n        /* \"@openzeppelin/contracts@4.9.6/utils/Strings.sol\":2091:2092  i */\n      dup3\n        /* \"@openzeppelin/contracts@4.9.6/utils/Strings.sol\":2084:2093  buffer[i] */\n      dup2\n      mload\n      dup2\n      lt\n      tag_342\n      jumpi\n      tag_343\n      tag_198\n      jump\t// in\n    tag_343:\n    tag_342:\n      0x20\n      add\n      add\n        /* \"@openzeppelin/contracts@4.9.6/utils/Strings.sol\":2084:2117  buffer[i] = _SYMBOLS[value & 0xf] */\n      swap1\n      not(0xffffffffffffffffffffffffffffffffffffffffffffffffffffffffffffff)\n      and\n      swap1\n      dup2\n      0x00\n      byte\n      swap1\n      mstore8\n      pop\n        /* \"@openzeppelin/contracts@4.9.6/utils/Strings.sol\":2141:2142  4 */\n      0x04\n        /* \"@openzeppelin/contracts@4.9.6/utils/Strings.sol\":2131:2142  value >>= 4 */\n      dup6\n      swap1\n      shr\n      swap5\n      pop\n        /* \"@openzeppelin/contracts@4.9.6/utils/Strings.sol\":2065:2068  --i */\n      dup1\n      tag_344\n      swap1\n      tag_345\n      jump\t// in\n    tag_344:\n      swap1\n      pop\n        /* \"@openzeppelin/contracts@4.9.6/utils/Strings.sol\":2025:2153  for (uint256 i = 2 * length + 1; i > 1; --i) {... */\n      jump(tag_335)\n    tag_336:\n      pop\n        /* \"@openzeppelin/contracts@4.9.6/utils/Strings.sol\":2179:2180  0 */\n      0x00\n        /* \"@openzeppelin/contracts@4.9.6/utils/Strings.sol\":2170:2175  value */\n      dup5\n        /* \"@openzeppelin/contracts@4.9.6/utils/Strings.sol\":2170:2180  value == 0 */\n      eq\n        /* \"@openzeppelin/contracts@4.9.6/utils/Strings.sol\":2162:2217  require(value == 0, \"Strings: hex length insufficient\") */\n      tag_346\n      jumpi\n      mload(0x40)\n      0x08c379a000000000000000000000000000000000000000000000000000000000\n      dup2\n      mstore\n      0x04\n      add\n      tag_347\n      swap1\n      tag_348\n      jump\t// in\n    tag_347:\n      mload(0x40)\n      dup1\n      swap2\n      sub\n      swap1\n      revert\n    tag_346:\n        /* \"@openzeppelin/contracts@4.9.6/utils/Strings.sol\":2241:2247  buffer */\n      dup1\n        /* \"@openzeppelin/contracts@4.9.6/utils/Strings.sol\":2227:2248  return string(buffer) */\n      swap2\n      pop\n      pop\n        /* \"@openzeppelin/contracts@4.9.6/utils/Strings.sol\":1818:2255  function toHexString(uint256 value, uint256 length) internal pure returns (string memory) {... */\n      swap3\n      swap2\n      pop\n      pop\n      jump\t// out\n    tag_194:\n      mload(0x40)\n      dup1\n      0x80\n      add\n      0x40\n      mstore\n      dup1\n      0x60\n      dup2\n      mstore\n      0x20\n      add\n      0x00\n      dup2\n      mstore\n      0x20\n      add\n      iszero(iszero(0x00))\n      dup2\n      mstore\n      0x20\n      add\n      and(0xffffffffffffffffffffffffffffffffffffffff, 0x00)\n      dup2\n      mstore\n      pop\n      swap1\n      jump\t// out\n        /* \"#utility.yul\":88:205   */\n    tag_350:\n        /* \"#utility.yul\":197:198   */\n      0x00\n        /* \"#utility.yul\":194:195   */\n      0x00\n        /* \"#utility.yul\":187:199   */\n      revert\n        /* \"#utility.yul\":211:328   */\n    tag_351:\n        /* \"#utility.yul\":320:321   */\n      0x00\n        /* \"#utility.yul\":317:318   */\n      0x00\n        /* \"#utility.yul\":310:322   */\n      revert\n        /* \"#utility.yul\":334:483   */\n    tag_352:\n        /* \"#utility.yul\":370:377   */\n      0x00\n        /* \"#utility.yul\":410:476   */\n      0xffffffff00000000000000000000000000000000000000000000000000000000\n        /* \"#utility.yul\":403:408   */\n      dup3\n        /* \"#utility.yul\":399:477   */\n      and\n        /* \"#utility.yul\":388:477   */\n      swap1\n      pop\n        /* \"#utility.yul\":334:483   */\n      swap2\n      swap1\n      pop\n      jump\t// out\n        /* \"#utility.yul\":489:609   */\n    tag_353:\n        /* \"#utility.yul\":561:584   */\n      tag_456\n        /* \"#utility.yul\":578:583   */\n      dup2\n        /* \"#utility.yul\":561:584   */\n      tag_352\n      jump\t// in\n    tag_456:\n        /* \"#utility.yul\":554:559   */\n      dup2\n        /* \"#utility.yul\":551:585   */\n      eq\n        /* \"#utility.yul\":541:603   */\n      tag_457\n      jumpi\n        /* \"#utility.yul\":599:600   */\n      0x00\n        /* \"#utility.yul\":596:597   */\n      0x00\n        /* \"#utility.yul\":589:601   */\n      revert\n        /* \"#utility.yul\":541:603   */\n    tag_457:\n        /* \"#utility.yul\":489:609   */\n      pop\n      jump\t// out\n        /* \"#utility.yul\":615:752   */\n    tag_354:\n        /* \"#utility.yul\":660:665   */\n      0x00\n        /* \"#utility.yul\":698:704   */\n      dup2\n        /* \"#utility.yul\":685:705   */\n      calldataload\n        /* \"#utility.yul\":676:705   */\n      swap1\n      pop\n        /* \"#utility.yul\":714:746   */\n      tag_459\n        /* \"#utility.yul\":740:745   */\n      dup2\n        /* \"#utility.yul\":714:746   */\n      tag_353\n      jump\t// in\n    tag_459:\n        /* \"#utility.yul\":615:752   */\n      swap3\n      swap2\n      pop\n      pop\n      jump\t// out\n        /* \"#utility.yul\":758:1085   */\n    tag_27:\n        /* \"#utility.yul\":816:822   */\n      0x00\n        /* \"#utility.yul\":865:867   */\n      0x20\n        /* \"#utility.yul\":853:862   */\n      dup3\n        /* \"#utility.yul\":844:851   */\n      dup5\n        /* \"#utility.yul\":840:863   */\n      sub\n        /* \"#utility.yul\":836:868   */\n      slt\n        /* \"#utility.yul\":833:952   */\n      iszero\n      tag_461\n      jumpi\n        /* \"#utility.yul\":871:950   */\n      tag_462\n      tag_350\n      jump\t// in\n    tag_462:\n        /* \"#utility.yul\":833:952   */\n    tag_461:\n        /* \"#utility.yul\":991:992   */\n      0x00\n        /* \"#utility.yul\":1016:1068   */\n      tag_463\n        /* \"#utility.yul\":1060:1067   */\n      dup5\n        /* \"#utility.yul\":1051:1057   */\n      dup3\n        /* \"#utility.yul\":1040:1049   */\n      dup6\n        /* \"#utility.yul\":1036:1058   */\n      add\n        /* \"#utility.yul\":1016:1068   */\n      tag_354\n      jump\t// in\n    tag_463:\n        /* \"#utility.yul\":1006:1068   */\n      swap2\n      pop\n        /* \"#utility.yul\":962:1078   */\n      pop\n        /* \"#utility.yul\":758:1085   */\n      swap3\n      swap2\n      pop\n      pop\n      jump\t// out\n        /* \"#utility.yul\":1091:1181   */\n    tag_355:\n        /* \"#utility.yul\":1125:1132   */\n      0x00\n        /* \"#utility.yul\":1168:1173   */\n      dup2\n        /* \"#utility.yul\":1161:1174   */\n      iszero\n        /* \"#utility.yul\":1154:1175   */\n      iszero\n        /* \"#utility.yul\":1143:1175   */\n      swap1\n      pop\n        /* \"#utility.yul\":1091:1181   */\n      swap2\n      swap1\n      pop\n      jump\t// out\n        /* \"#utility.yul\":1187:1296   */\n    tag_356:\n        /* \"#utility.yul\":1268:1289   */\n      tag_466\n        /* \"#utility.yul\":1283:1288   */\n      dup2\n        /* \"#utility.yul\":1268:1289   */\n      tag_355\n      jump\t// in\n    tag_466:\n        /* \"#utility.yul\":1263:1266   */\n      dup3\n        /* \"#utility.yul\":1256:1290   */\n      mstore\n        /* \"#utility.yul\":1187:1296   */\n      pop\n      pop\n      jump\t// out\n        /* \"#utility.yul\":1302:1512   */\n    tag_30:\n        /* \"#utility.yul\":1389:1393   */\n      0x00\n        /* \"#utility.yul\":1427:1429   */\n      0x20\n        /* \"#utility.yul\":1416:1425   */\n      dup3\n        /* \"#utility.yul\":1412:1430   */\n      add\n        /* \"#utility.yul\":1404:1430   */\n      swap1\n      pop\n        /* \"#utility.yul\":1440:1505   */\n      tag_468\n        /* \"#utility.yul\":1502:1503   */\n      0x00\n        /* \"#utility.yul\":1491:1500   */\n      dup4\n        /* \"#utility.yul\":1487:1504   */\n      add\n        /* \"#utility.yul\":1478:1484   */\n      dup5\n        /* \"#utility.yul\":1440:1505   */\n      tag_356\n      jump\t// in\n    tag_468:\n        /* \"#utility.yul\":1302:1512   */\n      swap3\n      swap2\n      pop\n      pop\n      jump\t// out\n        /* \"#utility.yul\":1518:1595   */\n    tag_357:\n        /* \"#utility.yul\":1555:1562   */\n      0x00\n        /* \"#utility.yul\":1584:1589   */\n      dup2\n        /* \"#utility.yul\":1573:1589   */\n      swap1\n      pop\n        /* \"#utility.yul\":1518:1595   */\n      swap2\n      swap1\n      pop\n      jump\t// out\n        /* \"#utility.yul\":1601:1723   */\n    tag_358:\n        /* \"#utility.yul\":1674:1698   */\n      tag_471\n        /* \"#utility.yul\":1692:1697   */\n      dup2\n        /* \"#utility.yul\":1674:1698   */\n      tag_357\n      jump\t// in\n    tag_471:\n        /* \"#utility.yul\":1667:1672   */\n      dup2\n        /* \"#utility.yul\":1664:1699   */\n      eq\n        /* \"#utility.yul\":1654:1717   */\n      tag_472\n      jumpi\n        /* \"#utility.yul\":1713:1714   */\n      0x00\n        /* \"#utility.yul\":1710:1711   */\n      0x00\n        /* \"#utility.yul\":1703:1715   */\n      revert\n        /* \"#utility.yul\":1654:1717   */\n    tag_472:\n        /* \"#utility.yul\":1601:1723   */\n      pop\n      jump\t// out\n        /* \"#utility.yul\":1729:1868   */\n    tag_359:\n        /* \"#utility.yul\":1775:1780   */\n      0x00\n        /* \"#utility.yul\":1813:1819   */\n      dup2\n        /* \"#utility.yul\":1800:1820   */\n      calldataload\n        /* \"#utility.yul\":1791:1820   */\n      swap1\n      pop\n        /* \"#utility.yul\":1829:1862   */\n      tag_474\n        /* \"#utility.yul\":1856:1861   */\n      dup2\n        /* \"#utility.yul\":1829:1862   */\n      tag_358\n      jump\t// in\n    tag_474:\n        /* \"#utility.yul\":1729:1868   */\n      swap3\n      swap2\n      pop\n      pop\n      jump\t// out\n        /* \"#utility.yul\":1874:2203   */\n    tag_33:\n        /* \"#utility.yul\":1933:1939   */\n      0x00\n        /* \"#utility.yul\":1982:1984   */\n      0x20\n        /* \"#utility.yul\":1970:1979   */\n      dup3\n        /* \"#utility.yul\":1961:1968   */\n      dup5\n        /* \"#utility.yul\":1957:1980   */\n      sub\n        /* \"#utility.yul\":1953:1985   */\n      slt\n        /* \"#utility.yul\":1950:2069   */\n      iszero\n      tag_476\n      jumpi\n        /* \"#utility.yul\":1988:2067   */\n      tag_477\n      tag_350\n      jump\t// in\n    tag_477:\n        /* \"#utility.yul\":1950:2069   */\n    tag_476:\n        /* \"#utility.yul\":2108:2109   */\n      0x00\n        /* \"#utility.yul\":2133:2186   */\n      tag_478\n        /* \"#utility.yul\":2178:2185   */\n      dup5\n        /* \"#utility.yul\":2169:2175   */\n      dup3\n        /* \"#utility.yul\":2158:2167   */\n      dup6\n        /* \"#utility.yul\":2154:2176   */\n      add\n        /* \"#utility.yul\":2133:2186   */\n      tag_359\n      jump\t// in\n    tag_478:\n        /* \"#utility.yul\":2123:2186   */\n      swap2\n      pop\n        /* \"#utility.yul\":2079:2196   */\n      pop\n        /* \"#utility.yul\":1874:2203   */\n      swap3\n      swap2\n      pop\n      pop\n      jump\t// out\n        /* \"#utility.yul\":2209:2389   */\n    tag_113:\n        /* \"#utility.yul\":2257:2334   */\n      0x4e487b7100000000000000000000000000000000000000000000000000000000\n        /* \"#utility.yul\":2254:2255   */\n      0x00\n        /* \"#utility.yul\":2247:2335   */\n      mstore\n        /* \"#utility.yul\":2354:2358   */\n      0x21\n        /* \"#utility.yul\":2351:2352   */\n      0x04\n        /* \"#utility.yul\":2344:2359   */\n      mstore\n        /* \"#utility.yul\":2378:2382   */\n      0x24\n        /* \"#utility.yul\":2375:2376   */\n      0x00\n        /* \"#utility.yul\":2368:2383   */\n      revert\n        /* \"#utility.yul\":2395:2512   */\n    tag_360:\n        /* \"#utility.yul\":2480:2481   */\n      0x05\n        /* \"#utility.yul\":2473:2478   */\n      dup2\n        /* \"#utility.yul\":2470:2482   */\n      lt\n        /* \"#utility.yul\":2460:2506   */\n      tag_481\n      jumpi\n        /* \"#utility.yul\":2486:2504   */\n      tag_482\n      tag_113\n      jump\t// in\n    tag_482:\n        /* \"#utility.yul\":2460:2506   */\n    tag_481:\n        /* \"#utility.yul\":2395:2512   */\n      pop\n      jump\t// out\n        /* \"#utility.yul\":2518:2653   */\n    tag_361:\n        /* \"#utility.yul\":2567:2574   */\n      0x00\n        /* \"#utility.yul\":2596:2601   */\n      dup2\n        /* \"#utility.yul\":2585:2601   */\n      swap1\n      pop\n        /* \"#utility.yul\":2602:2647   */\n      tag_484\n        /* \"#utility.yul\":2641:2646   */\n      dup3\n        /* \"#utility.yul\":2602:2647   */\n      tag_360\n      jump\t// in\n    tag_484:\n        /* \"#utility.yul\":2518:2653   */\n      swap2\n      swap1\n      pop\n      jump\t// out\n        /* \"#utility.yul\":2659:2794   */\n    tag_362:\n        /* \"#utility.yul\":2719:2728   */\n      0x00\n        /* \"#utility.yul\":2752:2788   */\n      tag_486\n        /* \"#utility.yul\":2782:2787   */\n      dup3\n        /* \"#utility.yul\":2752:2788   */\n      tag_361\n      jump\t// in\n    tag_486:\n        /* \"#utility.yul\":2739:2788   */\n      swap1\n      pop\n        /* \"#utility.yul\":2659:2794   */\n      swap2\n      swap1\n      pop\n      jump\t// out\n        /* \"#utility.yul\":2800:2951   */\n    tag_363:\n        /* \"#utility.yul\":2897:2944   */\n      tag_488\n        /* \"#utility.yul\":2938:2943   */\n      dup2\n        /* \"#utility.yul\":2897:2944   */\n      tag_362\n      jump\t// in\n    tag_488:\n        /* \"#utility.yul\":2892:2895   */\n      dup3\n        /* \"#utility.yul\":2885:2945   */\n      mstore\n        /* \"#utility.yul\":2800:2951   */\n      pop\n      pop\n      jump\t// out\n        /* \"#utility.yul\":2957:3199   */\n    tag_36:\n        /* \"#utility.yul\":3060:3064   */\n      0x00\n        /* \"#utility.yul\":3098:3100   */\n      0x20\n        /* \"#utility.yul\":3087:3096   */\n      dup3\n        /* \"#utility.yul\":3083:3101   */\n      add\n        /* \"#utility.yul\":3075:3101   */\n      swap1\n      pop\n        /* \"#utility.yul\":3111:3192   */\n      tag_490\n        /* \"#utility.yul\":3189:3190   */\n      0x00\n        /* \"#utility.yul\":3178:3187   */\n      dup4\n        /* \"#utility.yul\":3174:3191   */\n      add\n        /* \"#utility.yul\":3165:3171   */\n      dup5\n        /* \"#utility.yul\":3111:3192   */\n      tag_363\n      jump\t// in\n    tag_490:\n        /* \"#utility.yul\":2957:3199   */\n      swap3\n      swap2\n      pop\n      pop\n      jump\t// out\n        /* \"#utility.yul\":3205:3316   */\n    tag_364:\n        /* \"#utility.yul\":3290:3291   */\n      0x05\n        /* \"#utility.yul\":3283:3288   */\n      dup2\n        /* \"#utility.yul\":3280:3292   */\n      lt\n        /* \"#utility.yul\":3270:3310   */\n      tag_492\n      jumpi\n        /* \"#utility.yul\":3306:3307   */\n      0x00\n        /* \"#utility.yul\":3303:3304   */\n      0x00\n        /* \"#utility.yul\":3296:3308   */\n      revert\n        /* \"#utility.yul\":3270:3310   */\n    tag_492:\n        /* \"#utility.yul\":3205:3316   */\n      pop\n      jump\t// out\n        /* \"#utility.yul\":3322:3485   */\n    tag_365:\n        /* \"#utility.yul\":3380:3385   */\n      0x00\n        /* \"#utility.yul\":3418:3424   */\n      dup2\n        /* \"#utility.yul\":3405:3425   */\n      calldataload\n        /* \"#utility.yul\":3396:3425   */\n      swap1\n      pop\n        /* \"#utility.yul\":3434:3479   */\n      tag_494\n        /* \"#utility.yul\":3473:3478   */\n      dup2\n        /* \"#utility.yul\":3434:3479   */\n      tag_364\n      jump\t// in\n    tag_494:\n        /* \"#utility.yul\":3322:3485   */\n      swap3\n      swap2\n      pop\n      pop\n      jump\t// out\n        /* \"#utility.yul\":3491:3608   */\n    tag_366:\n        /* \"#utility.yul\":3600:3601   */\n      0x00\n        /* \"#utility.yul\":3597:3598   */\n      0x00\n        /* \"#utility.yul\":3590:3602   */\n      revert\n        /* \"#utility.yul\":3614:3731   */\n    tag_367:\n        /* \"#utility.yul\":3723:3724   */\n      0x00\n        /* \"#utility.yul\":3720:3721   */\n      0x00\n        /* \"#utility.yul\":3713:3725   */\n      revert\n        /* \"#utility.yul\":3737:3854   */\n    tag_368:\n        /* \"#utility.yul\":3846:3847   */\n      0x00\n        /* \"#utility.yul\":3843:3844   */\n      0x00\n        /* \"#utility.yul\":3836:3848   */\n      revert\n        /* \"#utility.yul\":3874:4427   */\n    tag_369:\n        /* \"#utility.yul\":3932:3940   */\n      0x00\n        /* \"#utility.yul\":3942:3948   */\n      0x00\n        /* \"#utility.yul\":3992:3995   */\n      dup4\n        /* \"#utility.yul\":3985:3989   */\n      0x1f\n        /* \"#utility.yul\":3977:3983   */\n      dup5\n        /* \"#utility.yul\":3973:3990   */\n      add\n        /* \"#utility.yul\":3969:3996   */\n      slt\n        /* \"#utility.yul\":3959:4081   */\n      tag_499\n      jumpi\n        /* \"#utility.yul\":4000:4079   */\n      tag_500\n      tag_366\n      jump\t// in\n    tag_500:\n        /* \"#utility.yul\":3959:4081   */\n    tag_499:\n        /* \"#utility.yul\":4113:4119   */\n      dup3\n        /* \"#utility.yul\":4100:4120   */\n      calldataload\n        /* \"#utility.yul\":4090:4120   */\n      swap1\n      pop\n        /* \"#utility.yul\":4143:4161   */\n      0xffffffffffffffff\n        /* \"#utility.yul\":4135:4141   */\n      dup2\n        /* \"#utility.yul\":4132:4162   */\n      gt\n        /* \"#utility.yul\":4129:4246   */\n      iszero\n      tag_501\n      jumpi\n        /* \"#utility.yul\":4165:4244   */\n      tag_502\n      tag_367\n      jump\t// in\n    tag_502:\n        /* \"#utility.yul\":4129:4246   */\n    tag_501:\n        /* \"#utility.yul\":4279:4283   */\n      0x20\n        /* \"#utility.yul\":4271:4277   */\n      dup4\n        /* \"#utility.yul\":4267:4284   */\n      add\n        /* \"#utility.yul\":4255:4284   */\n      swap2\n      pop\n        /* \"#utility.yul\":4333:4336   */\n      dup4\n        /* \"#utility.yul\":4325:4329   */\n      0x01\n        /* \"#utility.yul\":4317:4323   */\n      dup3\n        /* \"#utility.yul\":4313:4330   */\n      mul\n        /* \"#utility.yul\":4303:4311   */\n      dup4\n        /* \"#utility.yul\":4299:4331   */\n      add\n        /* \"#utility.yul\":4296:4337   */\n      gt\n        /* \"#utility.yul\":4293:4421   */\n      iszero\n      tag_503\n      jumpi\n        /* \"#utility.yul\":4340:4419   */\n      tag_504\n      tag_368\n      jump\t// in\n    tag_504:\n        /* \"#utility.yul\":4293:4421   */\n    tag_503:\n        /* \"#utility.yul\":3874:4427   */\n      swap3\n      pop\n      swap3\n      swap1\n      pop\n      jump\t// out\n        /* \"#utility.yul\":4433:5622   */\n    tag_39:\n        /* \"#utility.yul\":4555:4561   */\n      0x00\n        /* \"#utility.yul\":4563:4569   */\n      0x00\n        /* \"#utility.yul\":4571:4577   */\n      0x00\n        /* \"#utility.yul\":4579:4585   */\n      0x00\n        /* \"#utility.yul\":4587:4593   */\n      0x00\n        /* \"#utility.yul\":4595:4601   */\n      0x00\n        /* \"#utility.yul\":4644:4647   */\n      0x80\n        /* \"#utility.yul\":4632:4641   */\n      dup8\n        /* \"#utility.yul\":4623:4630   */\n      dup10\n        /* \"#utility.yul\":4619:4642   */\n      sub\n        /* \"#utility.yul\":4615:4648   */\n      slt\n        /* \"#utility.yul\":4612:4732   */\n      iszero\n      tag_506\n      jumpi\n        /* \"#utility.yul\":4651:4730   */\n      tag_507\n      tag_350\n      jump\t// in\n    tag_507:\n        /* \"#utility.yul\":4612:4732   */\n    tag_506:\n        /* \"#utility.yul\":4771:4772   */\n      0x00\n        /* \"#utility.yul\":4796:4849   */\n      tag_508\n        /* \"#utility.yul\":4841:4848   */\n      dup10\n        /* \"#utility.yul\":4832:4838   */\n      dup3\n        /* \"#utility.yul\":4821:4830   */\n      dup11\n        /* \"#utility.yul\":4817:4839   */\n      add\n        /* \"#utility.yul\":4796:4849   */\n      tag_359\n      jump\t// in\n    tag_508:\n        /* \"#utility.yul\":4786:4849   */\n      swap7\n      pop\n        /* \"#utility.yul\":4742:4859   */\n      pop\n        /* \"#utility.yul\":4898:4900   */\n      0x20\n        /* \"#utility.yul\":4924:4989   */\n      tag_509\n        /* \"#utility.yul\":4981:4988   */\n      dup10\n        /* \"#utility.yul\":4972:4978   */\n      dup3\n        /* \"#utility.yul\":4961:4970   */\n      dup11\n        /* \"#utility.yul\":4957:4979   */\n      add\n        /* \"#utility.yul\":4924:4989   */\n      tag_365\n      jump\t// in\n    tag_509:\n        /* \"#utility.yul\":4914:4989   */\n      swap6\n      pop\n        /* \"#utility.yul\":4869:4999   */\n      pop\n        /* \"#utility.yul\":5066:5068   */\n      0x40\n        /* \"#utility.yul\":5055:5064   */\n      dup8\n        /* \"#utility.yul\":5051:5069   */\n      add\n        /* \"#utility.yul\":5038:5070   */\n      calldataload\n        /* \"#utility.yul\":5097:5115   */\n      0xffffffffffffffff\n        /* \"#utility.yul\":5089:5095   */\n      dup2\n        /* \"#utility.yul\":5086:5116   */\n      gt\n        /* \"#utility.yul\":5083:5200   */\n      iszero\n      tag_510\n      jumpi\n        /* \"#utility.yul\":5119:5198   */\n      tag_511\n      tag_351\n      jump\t// in\n    tag_511:\n        /* \"#utility.yul\":5083:5200   */\n    tag_510:\n        /* \"#utility.yul\":5232:5297   */\n      tag_512\n        /* \"#utility.yul\":5289:5296   */\n      dup10\n        /* \"#utility.yul\":5280:5286   */\n      dup3\n        /* \"#utility.yul\":5269:5278   */\n      dup11\n        /* \"#utility.yul\":5265:5287   */\n      add\n        /* \"#utility.yul\":5232:5297   */\n      tag_369\n      jump\t// in\n    tag_512:\n        /* \"#utility.yul\":5214:5297   */\n      swap5\n      pop\n      swap5\n      pop\n        /* \"#utility.yul\":5009:5307   */\n      pop\n        /* \"#utility.yul\":5374:5376   */\n      0x60\n        /* \"#utility.yul\":5363:5372   */\n      dup8\n        /* \"#utility.yul\":5359:5377   */\n      add\n        /* \"#utility.yul\":5346:5378   */\n      calldataload\n        /* \"#utility.yul\":5405:5423   */\n      0xffffffffffffffff\n        /* \"#utility.yul\":5397:5403   */\n      dup2\n        /* \"#utility.yul\":5394:5424   */\n      gt\n        /* \"#utility.yul\":5391:5508   */\n      iszero\n      tag_513\n      jumpi\n        /* \"#utility.yul\":5427:5506   */\n      tag_514\n      tag_351\n      jump\t// in\n    tag_514:\n        /* \"#utility.yul\":5391:5508   */\n    tag_513:\n        /* \"#utility.yul\":5540:5605   */\n      tag_515\n        /* \"#utility.yul\":5597:5604   */\n      dup10\n        /* \"#utility.yul\":5588:5594   */\n      dup3\n        /* \"#utility.yul\":5577:5586   */\n      dup11\n        /* \"#utility.yul\":5573:5595   */\n      add\n        /* \"#utility.yul\":5540:5605   */\n      tag_369\n      jump\t// in\n    tag_515:\n        /* \"#utility.yul\":5522:5605   */\n      swap3\n      pop\n      swap3\n      pop\n        /* \"#utility.yul\":5317:5615   */\n      pop\n        /* \"#utility.yul\":4433:5622   */\n      swap3\n      swap6\n      pop\n      swap3\n      swap6\n      pop\n      swap3\n      swap6\n      jump\t// out\n        /* \"#utility.yul\":5628:5746   */\n    tag_370:\n        /* \"#utility.yul\":5715:5739   */\n      tag_517\n        /* \"#utility.yul\":5733:5738   */\n      dup2\n        /* \"#utility.yul\":5715:5739   */\n      tag_357\n      jump\t// in\n    tag_517:\n        /* \"#utility.yul\":5710:5713   */\n      dup3\n        /* \"#utility.yul\":5703:5740   */\n      mstore\n        /* \"#utility.yul\":5628:5746   */\n      pop\n      pop\n      jump\t// out\n        /* \"#utility.yul\":5752:5974   */\n    tag_45:\n        /* \"#utility.yul\":5845:5849   */\n      0x00\n        /* \"#utility.yul\":5883:5885   */\n      0x20\n        /* \"#utility.yul\":5872:5881   */\n      dup3\n        /* \"#utility.yul\":5868:5886   */\n      add\n        /* \"#utility.yul\":5860:5886   */\n      swap1\n      pop\n        /* \"#utility.yul\":5896:5967   */\n      tag_519\n        /* \"#utility.yul\":5964:5965   */\n      0x00\n        /* \"#utility.yul\":5953:5962   */\n      dup4\n        /* \"#utility.yul\":5949:5966   */\n      add\n        /* \"#utility.yul\":5940:5946   */\n      dup5\n        /* \"#utility.yul\":5896:5967   */\n      tag_370\n      jump\t// in\n    tag_519:\n        /* \"#utility.yul\":5752:5974   */\n      swap3\n      swap2\n      pop\n      pop\n      jump\t// out\n        /* \"#utility.yul\":5980:6106   */\n    tag_371:\n        /* \"#utility.yul\":6017:6024   */\n      0x00\n        /* \"#utility.yul\":6057:6099   */\n      0xffffffffffffffffffffffffffffffffffffffff\n        /* \"#utility.yul\":6050:6055   */\n      dup3\n        /* \"#utility.yul\":6046:6100   */\n      and\n        /* \"#utility.yul\":6035:6100   */\n      swap1\n      pop\n        /* \"#utility.yul\":5980:6106   */\n      swap2\n      swap1\n      pop\n      jump\t// out\n        /* \"#utility.yul\":6112:6208   */\n    tag_372:\n        /* \"#utility.yul\":6149:6156   */\n      0x00\n        /* \"#utility.yul\":6178:6202   */\n      tag_522\n        /* \"#utility.yul\":6196:6201   */\n      dup3\n        /* \"#utility.yul\":6178:6202   */\n      tag_371\n      jump\t// in\n    tag_522:\n        /* \"#utility.yul\":6167:6202   */\n      swap1\n      pop\n        /* \"#utility.yul\":6112:6208   */\n      swap2\n      swap1\n      pop\n      jump\t// out\n        /* \"#utility.yul\":6214:6336   */\n    tag_373:\n        /* \"#utility.yul\":6287:6311   */\n      tag_524\n        /* \"#utility.yul\":6305:6310   */\n      dup2\n        /* \"#utility.yul\":6287:6311   */\n      tag_372\n      jump\t// in\n    tag_524:\n        /* \"#utility.yul\":6280:6285   */\n      dup2\n        /* \"#utility.yul\":6277:6312   */\n      eq\n        /* \"#utility.yul\":6267:6330   */\n      tag_525\n      jumpi\n        /* \"#utility.yul\":6326:6327   */\n      0x00\n        /* \"#utility.yul\":6323:6324   */\n      0x00\n        /* \"#utility.yul\":6316:6328   */\n      revert\n        /* \"#utility.yul\":6267:6330   */\n    tag_525:\n        /* \"#utility.yul\":6214:6336   */\n      pop\n      jump\t// out\n        /* \"#utility.yul\":6342:6481   */\n    tag_374:\n        /* \"#utility.yul\":6388:6393   */\n      0x00\n        /* \"#utility.yul\":6426:6432   */\n      dup2\n        /* \"#utility.yul\":6413:6433   */\n      calldataload\n        /* \"#utility.yul\":6404:6433   */\n      swap1\n      pop\n        /* \"#utility.yul\":6442:6475   */\n      tag_527\n        /* \"#utility.yul\":6469:6474   */\n      dup2\n        /* \"#utility.yul\":6442:6475   */\n      tag_373\n      jump\t// in\n    tag_527:\n        /* \"#utility.yul\":6342:6481   */\n      swap3\n      swap2\n      pop\n      pop\n      jump\t// out\n        /* \"#utility.yul\":6487:6961   */\n    tag_48:\n        /* \"#utility.yul\":6555:6561   */\n      0x00\n        /* \"#utility.yul\":6563:6569   */\n      0x00\n        /* \"#utility.yul\":6612:6614   */\n      0x40\n        /* \"#utility.yul\":6600:6609   */\n      dup4\n        /* \"#utility.yul\":6591:6598   */\n      dup6\n        /* \"#utility.yul\":6587:6610   */\n      sub\n        /* \"#utility.yul\":6583:6615   */\n      slt\n        /* \"#utility.yul\":6580:6699   */\n      iszero\n      tag_529\n      jumpi\n        /* \"#utility.yul\":6618:6697   */\n      tag_530\n      tag_350\n      jump\t// in\n    tag_530:\n        /* \"#utility.yul\":6580:6699   */\n    tag_529:\n        /* \"#utility.yul\":6738:6739   */\n      0x00\n        /* \"#utility.yul\":6763:6816   */\n      tag_531\n        /* \"#utility.yul\":6808:6815   */\n      dup6\n        /* \"#utility.yul\":6799:6805   */\n      dup3\n        /* \"#utility.yul\":6788:6797   */\n      dup7\n        /* \"#utility.yul\":6784:6806   */\n      add\n        /* \"#utility.yul\":6763:6816   */\n      tag_359\n      jump\t// in\n    tag_531:\n        /* \"#utility.yul\":6753:6816   */\n      swap3\n      pop\n        /* \"#utility.yul\":6709:6826   */\n      pop\n        /* \"#utility.yul\":6865:6867   */\n      0x20\n        /* \"#utility.yul\":6891:6944   */\n      tag_532\n        /* \"#utility.yul\":6936:6943   */\n      dup6\n        /* \"#utility.yul\":6927:6933   */\n      dup3\n        /* \"#utility.yul\":6916:6925   */\n      dup7\n        /* \"#utility.yul\":6912:6934   */\n      add\n        /* \"#utility.yul\":6891:6944   */\n      tag_374\n      jump\t// in\n    tag_532:\n        /* \"#utility.yul\":6881:6944   */\n      swap2\n      pop\n        /* \"#utility.yul\":6836:6954   */\n      pop\n        /* \"#utility.yul\":6487:6961   */\n      swap3\n      pop\n      swap3\n      swap1\n      pop\n      jump\t// out\n        /* \"#utility.yul\":6967:7083   */\n    tag_375:\n        /* \"#utility.yul\":7037:7058   */\n      tag_534\n        /* \"#utility.yul\":7052:7057   */\n      dup2\n        /* \"#utility.yul\":7037:7058   */\n      tag_355\n      jump\t// in\n    tag_534:\n        /* \"#utility.yul\":7030:7035   */\n      dup2\n        /* \"#utility.yul\":7027:7059   */\n      eq\n        /* \"#utility.yul\":7017:7077   */\n      tag_535\n      jumpi\n        /* \"#utility.yul\":7073:7074   */\n      0x00\n        /* \"#utility.yul\":7070:7071   */\n      0x00\n        /* \"#utility.yul\":7063:7075   */\n      revert\n        /* \"#utility.yul\":7017:7077   */\n    tag_535:\n        /* \"#utility.yul\":6967:7083   */\n      pop\n      jump\t// out\n        /* \"#utility.yul\":7089:7222   */\n    tag_376:\n        /* \"#utility.yul\":7132:7137   */\n      0x00\n        /* \"#utility.yul\":7170:7176   */\n      dup2\n        /* \"#utility.yul\":7157:7177   */\n      calldataload\n        /* \"#utility.yul\":7148:7177   */\n      swap1\n      pop\n        /* \"#utility.yul\":7186:7216   */\n      tag_537\n        /* \"#utility.yul\":7210:7215   */\n      dup2\n        /* \"#utility.yul\":7186:7216   */\n      tag_375\n      jump\t// in\n    tag_537:\n        /* \"#utility.yul\":7089:7222   */\n      swap3\n      swap2\n      pop\n      pop\n      jump\t// out\n        /* \"#utility.yul\":7228:7696   */\n    tag_57:\n        /* \"#utility.yul\":7293:7299   */\n      0x00\n        /* \"#utility.yul\":7301:7307   */\n      0x00\n        /* \"#utility.yul\":7350:7352   */\n      0x40\n        /* \"#utility.yul\":7338:7347   */\n      dup4\n        /* \"#utility.yul\":7329:7336   */\n      dup6\n        /* \"#utility.yul\":7325:7348   */\n      sub\n        /* \"#utility.yul\":7321:7353   */\n      slt\n        /* \"#utility.yul\":7318:7437   */\n      iszero\n      tag_539\n      jumpi\n        /* \"#utility.yul\":7356:7435   */\n      tag_540\n      tag_350\n      jump\t// in\n    tag_540:\n        /* \"#utility.yul\":7318:7437   */\n    tag_539:\n        /* \"#utility.yul\":7476:7477   */\n      0x00\n        /* \"#utility.yul\":7501:7554   */\n      tag_541\n        /* \"#utility.yul\":7546:7553   */\n      dup6\n        /* \"#utility.yul\":7537:7543   */\n      dup3\n        /* \"#utility.yul\":7526:7535   */\n      dup7\n        /* \"#utility.yul\":7522:7544   */\n      add\n        /* \"#utility.yul\":7501:7554   */\n      tag_374\n      jump\t// in\n    tag_541:\n        /* \"#utility.yul\":7491:7554   */\n      swap3\n      pop\n        /* \"#utility.yul\":7447:7564   */\n      pop\n        /* \"#utility.yul\":7603:7605   */\n      0x20\n        /* \"#utility.yul\":7629:7679   */\n      tag_542\n        /* \"#utility.yul\":7671:7678   */\n      dup6\n        /* \"#utility.yul\":7662:7668   */\n      dup3\n        /* \"#utility.yul\":7651:7660   */\n      dup7\n        /* \"#utility.yul\":7647:7669   */\n      add\n        /* \"#utility.yul\":7629:7679   */\n      tag_376\n      jump\t// in\n    tag_542:\n        /* \"#utility.yul\":7619:7679   */\n      swap2\n      pop\n        /* \"#utility.yul\":7574:7689   */\n      pop\n        /* \"#utility.yul\":7228:7696   */\n      swap3\n      pop\n      swap3\n      swap1\n      pop\n      jump\t// out\n        /* \"#utility.yul\":7702:7762   */\n    tag_377:\n        /* \"#utility.yul\":7730:7733   */\n      0x00\n        /* \"#utility.yul\":7751:7756   */\n      dup2\n        /* \"#utility.yul\":7744:7756   */\n      swap1\n      pop\n        /* \"#utility.yul\":7702:7762   */\n      swap2\n      swap1\n      pop\n      jump\t// out\n        /* \"#utility.yul\":7768:7910   */\n    tag_378:\n        /* \"#utility.yul\":7818:7827   */\n      0x00\n        /* \"#utility.yul\":7851:7904   */\n      tag_545\n        /* \"#utility.yul\":7869:7903   */\n      tag_546\n        /* \"#utility.yul\":7878:7902   */\n      tag_547\n        /* \"#utility.yul\":7896:7901   */\n      dup5\n        /* \"#utility.yul\":7878:7902   */\n      tag_371\n      jump\t// in\n    tag_547:\n        /* \"#utility.yul\":7869:7903   */\n      tag_377\n      jump\t// in\n    tag_546:\n        /* \"#utility.yul\":7851:7904   */\n      tag_371\n      jump\t// in\n    tag_545:\n        /* \"#utility.yul\":7838:7904   */\n      swap1\n      pop\n        /* \"#utility.yul\":7768:7910   */\n      swap2\n      swap1\n      pop\n      jump\t// out\n        /* \"#utility.yul\":7916:8042   */\n    tag_379:\n        /* \"#utility.yul\":7966:7975   */\n      0x00\n        /* \"#utility.yul\":7999:8036   */\n      tag_549\n        /* \"#utility.yul\":8030:8035   */\n      dup3\n        /* \"#utility.yul\":7999:8036   */\n      tag_378\n      jump\t// in\n    tag_549:\n        /* \"#utility.yul\":7986:8036   */\n      swap1\n      pop\n        /* \"#utility.yul\":7916:8042   */\n      swap2\n      swap1\n      pop\n      jump\t// out\n        /* \"#utility.yul\":8048:8209   */\n    tag_380:\n        /* \"#utility.yul\":8133:8142   */\n      0x00\n        /* \"#utility.yul\":8166:8203   */\n      tag_551\n        /* \"#utility.yul\":8197:8202   */\n      dup3\n        /* \"#utility.yul\":8166:8203   */\n      tag_379\n      jump\t// in\n    tag_551:\n        /* \"#utility.yul\":8153:8203   */\n      swap1\n      pop\n        /* \"#utility.yul\":8048:8209   */\n      swap2\n      swap1\n      pop\n      jump\t// out\n        /* \"#utility.yul\":8215:8416   */\n    tag_381:\n        /* \"#utility.yul\":8337:8409   */\n      tag_553\n        /* \"#utility.yul\":8403:8408   */\n      dup2\n        /* \"#utility.yul\":8337:8409   */\n      tag_380\n      jump\t// in\n    tag_553:\n        /* \"#utility.yul\":8332:8335   */\n      dup3\n        /* \"#utility.yul\":8325:8410   */\n      mstore\n        /* \"#utility.yul\":8215:8416   */\n      pop\n      pop\n      jump\t// out\n        /* \"#utility.yul\":8422:8714   */\n    tag_65:\n        /* \"#utility.yul\":8550:8554   */\n      0x00\n        /* \"#utility.yul\":8588:8590   */\n      0x20\n        /* \"#utility.yul\":8577:8586   */\n      dup3\n        /* \"#utility.yul\":8573:8591   */\n      add\n        /* \"#utility.yul\":8565:8591   */\n      swap1\n      pop\n        /* \"#utility.yul\":8601:8707   */\n      tag_555\n        /* \"#utility.yul\":8704:8705   */\n      0x00\n        /* \"#utility.yul\":8693:8702   */\n      dup4\n        /* \"#utility.yul\":8689:8706   */\n      add\n        /* \"#utility.yul\":8680:8686   */\n      dup5\n        /* \"#utility.yul\":8601:8707   */\n      tag_381\n      jump\t// in\n    tag_555:\n        /* \"#utility.yul\":8422:8714   */\n      swap3\n      swap2\n      pop\n      pop\n      jump\t// out\n        /* \"#utility.yul\":8720:8797   */\n    tag_382:\n        /* \"#utility.yul\":8757:8764   */\n      0x00\n        /* \"#utility.yul\":8786:8791   */\n      dup2\n        /* \"#utility.yul\":8775:8791   */\n      swap1\n      pop\n        /* \"#utility.yul\":8720:8797   */\n      swap2\n      swap1\n      pop\n      jump\t// out\n        /* \"#utility.yul\":8803:8925   */\n    tag_383:\n        /* \"#utility.yul\":8876:8900   */\n      tag_558\n        /* \"#utility.yul\":8894:8899   */\n      dup2\n        /* \"#utility.yul\":8876:8900   */\n      tag_382\n      jump\t// in\n    tag_558:\n        /* \"#utility.yul\":8869:8874   */\n      dup2\n        /* \"#utility.yul\":8866:8901   */\n      eq\n        /* \"#utility.yul\":8856:8919   */\n      tag_559\n      jumpi\n        /* \"#utility.yul\":8915:8916   */\n      0x00\n        /* \"#utility.yul\":8912:8913   */\n      0x00\n        /* \"#utility.yul\":8905:8917   */\n      revert\n        /* \"#utility.yul\":8856:8919   */\n    tag_559:\n        /* \"#utility.yul\":8803:8925   */\n      pop\n      jump\t// out\n        /* \"#utility.yul\":8931:9070   */\n    tag_384:\n        /* \"#utility.yul\":8977:8982   */\n      0x00\n        /* \"#utility.yul\":9015:9021   */\n      dup2\n        /* \"#utility.yul\":9002:9022   */\n      calldataload\n        /* \"#utility.yul\":8993:9022   */\n      swap1\n      pop\n        /* \"#utility.yul\":9031:9064   */\n      tag_561\n        /* \"#utility.yul\":9058:9063   */\n      dup2\n        /* \"#utility.yul\":9031:9064   */\n      tag_383\n      jump\t// in\n    tag_561:\n        /* \"#utility.yul\":8931:9070   */\n      swap3\n      swap2\n      pop\n      pop\n      jump\t// out\n        /* \"#utility.yul\":9076:9550   */\n    tag_77:\n        /* \"#utility.yul\":9144:9150   */\n      0x00\n        /* \"#utility.yul\":9152:9158   */\n      0x00\n        /* \"#utility.yul\":9201:9203   */\n      0x40\n        /* \"#utility.yul\":9189:9198   */\n      dup4\n        /* \"#utility.yul\":9180:9187   */\n      dup6\n        /* \"#utility.yul\":9176:9199   */\n      sub\n        /* \"#utility.yul\":9172:9204   */\n      slt\n        /* \"#utility.yul\":9169:9288   */\n      iszero\n      tag_563\n      jumpi\n        /* \"#utility.yul\":9207:9286   */\n      tag_564\n      tag_350\n      jump\t// in\n    tag_564:\n        /* \"#utility.yul\":9169:9288   */\n    tag_563:\n        /* \"#utility.yul\":9327:9328   */\n      0x00\n        /* \"#utility.yul\":9352:9405   */\n      tag_565\n        /* \"#utility.yul\":9397:9404   */\n      dup6\n        /* \"#utility.yul\":9388:9394   */\n      dup3\n        /* \"#utility.yul\":9377:9386   */\n      dup7\n        /* \"#utility.yul\":9373:9395   */\n      add\n        /* \"#utility.yul\":9352:9405   */\n      tag_359\n      jump\t// in\n    tag_565:\n        /* \"#utility.yul\":9342:9405   */\n      swap3\n      pop\n        /* \"#utility.yul\":9298:9415   */\n      pop\n        /* \"#utility.yul\":9454:9456   */\n      0x20\n        /* \"#utility.yul\":9480:9533   */\n      tag_566\n        /* \"#utility.yul\":9525:9532   */\n      dup6\n        /* \"#utility.yul\":9516:9522   */\n      dup3\n        /* \"#utility.yul\":9505:9514   */\n      dup7\n        /* \"#utility.yul\":9501:9523   */\n      add\n        /* \"#utility.yul\":9480:9533   */\n      tag_384\n      jump\t// in\n    tag_566:\n        /* \"#utility.yul\":9470:9533   */\n      swap2\n      pop\n        /* \"#utility.yul\":9425:9543   */\n      pop\n        /* \"#utility.yul\":9076:9550   */\n      swap3\n      pop\n      swap3\n      swap1\n      pop\n      jump\t// out\n        /* \"#utility.yul\":9556:9655   */\n    tag_385:\n        /* \"#utility.yul\":9608:9614   */\n      0x00\n        /* \"#utility.yul\":9642:9647   */\n      dup2\n        /* \"#utility.yul\":9636:9648   */\n      mload\n        /* \"#utility.yul\":9626:9648   */\n      swap1\n      pop\n        /* \"#utility.yul\":9556:9655   */\n      swap2\n      swap1\n      pop\n      jump\t// out\n        /* \"#utility.yul\":9661:9820   */\n    tag_386:\n        /* \"#utility.yul\":9735:9746   */\n      0x00\n        /* \"#utility.yul\":9769:9775   */\n      dup3\n        /* \"#utility.yul\":9764:9767   */\n      dup3\n        /* \"#utility.yul\":9757:9776   */\n      mstore\n        /* \"#utility.yul\":9809:9813   */\n      0x20\n        /* \"#utility.yul\":9804:9807   */\n      dup3\n        /* \"#utility.yul\":9800:9814   */\n      add\n        /* \"#utility.yul\":9785:9814   */\n      swap1\n      pop\n        /* \"#utility.yul\":9661:9820   */\n      swap3\n      swap2\n      pop\n      pop\n      jump\t// out\n        /* \"#utility.yul\":9826:9965   */\n    tag_387:\n        /* \"#utility.yul\":9915:9921   */\n      dup3\n        /* \"#utility.yul\":9910:9913   */\n      dup2\n        /* \"#utility.yul\":9905:9908   */\n      dup4\n        /* \"#utility.yul\":9899:9922   */\n      mcopy\n        /* \"#utility.yul\":9956:9957   */\n      0x00\n        /* \"#utility.yul\":9947:9953   */\n      dup4\n        /* \"#utility.yul\":9942:9945   */\n      dup4\n        /* \"#utility.yul\":9938:9954   */\n      add\n        /* \"#utility.yul\":9931:9958   */\n      mstore\n        /* \"#utility.yul\":9826:9965   */\n      pop\n      pop\n      pop\n      jump\t// out\n        /* \"#utility.yul\":9971:10073   */\n    tag_388:\n        /* \"#utility.yul\":10012:10018   */\n      0x00\n        /* \"#utility.yul\":10063:10065   */\n      0x1f\n        /* \"#utility.yul\":10059:10066   */\n      not\n        /* \"#utility.yul\":10054:10056   */\n      0x1f\n        /* \"#utility.yul\":10047:10052   */\n      dup4\n        /* \"#utility.yul\":10043:10057   */\n      add\n        /* \"#utility.yul\":10039:10067   */\n      and\n        /* \"#utility.yul\":10029:10067   */\n      swap1\n      pop\n        /* \"#utility.yul\":9971:10073   */\n      swap2\n      swap1\n      pop\n      jump\t// out\n        /* \"#utility.yul\":10079:10436   */\n    tag_389:\n        /* \"#utility.yul\":10157:10160   */\n      0x00\n        /* \"#utility.yul\":10185:10224   */\n      tag_572\n        /* \"#utility.yul\":10218:10223   */\n      dup3\n        /* \"#utility.yul\":10185:10224   */\n      tag_385\n      jump\t// in\n    tag_572:\n        /* \"#utility.yul\":10240:10301   */\n      tag_573\n        /* \"#utility.yul\":10294:10300   */\n      dup2\n        /* \"#utility.yul\":10289:10292   */\n      dup6\n        /* \"#utility.yul\":10240:10301   */\n      tag_386\n      jump\t// in\n    tag_573:\n        /* \"#utility.yul\":10233:10301   */\n      swap4\n      pop\n        /* \"#utility.yul\":10310:10375   */\n      tag_574\n        /* \"#utility.yul\":10368:10374   */\n      dup2\n        /* \"#utility.yul\":10363:10366   */\n      dup6\n        /* \"#utility.yul\":10356:10360   */\n      0x20\n        /* \"#utility.yul\":10349:10354   */\n      dup7\n        /* \"#utility.yul\":10345:10361   */\n      add\n        /* \"#utility.yul\":10310:10375   */\n      tag_387\n      jump\t// in\n    tag_574:\n        /* \"#utility.yul\":10400:10429   */\n      tag_575\n        /* \"#utility.yul\":10422:10428   */\n      dup2\n        /* \"#utility.yul\":10400:10429   */\n      tag_388\n      jump\t// in\n    tag_575:\n        /* \"#utility.yul\":10395:10398   */\n      dup5\n        /* \"#utility.yul\":10391:10430   */\n      add\n        /* \"#utility.yul\":10384:10430   */\n      swap2\n      pop\n        /* \"#utility.yul\":10161:10436   */\n      pop\n        /* \"#utility.yul\":10079:10436   */\n      swap3\n      swap2\n      pop\n      pop\n      jump\t// out\n        /* \"#utility.yul\":10442:10550   */\n    tag_390:\n        /* \"#utility.yul\":10519:10543   */\n      tag_577\n        /* \"#utility.yul\":10537:10542   */\n      dup2\n        /* \"#utility.yul\":10519:10543   */\n      tag_382\n      jump\t// in\n    tag_577:\n        /* \"#utility.yul\":10514:10517   */\n      dup3\n        /* \"#utility.yul\":10507:10544   */\n      mstore\n        /* \"#utility.yul\":10442:10550   */\n      pop\n      pop\n      jump\t// out\n        /* \"#utility.yul\":10556:10655   */\n    tag_391:\n        /* \"#utility.yul\":10627:10648   */\n      tag_579\n        /* \"#utility.yul\":10642:10647   */\n      dup2\n        /* \"#utility.yul\":10627:10648   */\n      tag_355\n      jump\t// in\n    tag_579:\n        /* \"#utility.yul\":10622:10625   */\n      dup3\n        /* \"#utility.yul\":10615:10649   */\n      mstore\n        /* \"#utility.yul\":10556:10655   */\n      pop\n      pop\n      jump\t// out\n        /* \"#utility.yul\":10661:10769   */\n    tag_392:\n        /* \"#utility.yul\":10738:10762   */\n      tag_581\n        /* \"#utility.yul\":10756:10761   */\n      dup2\n        /* \"#utility.yul\":10738:10762   */\n      tag_372\n      jump\t// in\n    tag_581:\n        /* \"#utility.yul\":10733:10736   */\n      dup3\n        /* \"#utility.yul\":10726:10763   */\n      mstore\n        /* \"#utility.yul\":10661:10769   */\n      pop\n      pop\n      jump\t// out\n        /* \"#utility.yul\":10837:11794   */\n    tag_393:\n        /* \"#utility.yul\":10956:10959   */\n      0x00\n        /* \"#utility.yul\":10992:10996   */\n      0x80\n        /* \"#utility.yul\":10987:10990   */\n      dup4\n        /* \"#utility.yul\":10983:10997   */\n      add\n        /* \"#utility.yul\":11078:11082   */\n      0x00\n        /* \"#utility.yul\":11071:11076   */\n      dup4\n        /* \"#utility.yul\":11067:11083   */\n      add\n        /* \"#utility.yul\":11061:11084   */\n      mload\n        /* \"#utility.yul\":11131:11134   */\n      dup5\n        /* \"#utility.yul\":11125:11129   */\n      dup3\n        /* \"#utility.yul\":11121:11135   */\n      sub\n        /* \"#utility.yul\":11114:11118   */\n      0x00\n        /* \"#utility.yul\":11109:11112   */\n      dup7\n        /* \"#utility.yul\":11105:11119   */\n      add\n        /* \"#utility.yul\":11098:11136   */\n      mstore\n        /* \"#utility.yul\":11157:11230   */\n      tag_583\n        /* \"#utility.yul\":11225:11229   */\n      dup3\n        /* \"#utility.yul\":11211:11223   */\n      dup3\n        /* \"#utility.yul\":11157:11230   */\n      tag_389\n      jump\t// in\n    tag_583:\n        /* \"#utility.yul\":11149:11230   */\n      swap2\n      pop\n        /* \"#utility.yul\":11007:11241   */\n      pop\n        /* \"#utility.yul\":11328:11332   */\n      0x20\n        /* \"#utility.yul\":11321:11326   */\n      dup4\n        /* \"#utility.yul\":11317:11333   */\n      add\n        /* \"#utility.yul\":11311:11334   */\n      mload\n        /* \"#utility.yul\":11347:11410   */\n      tag_584\n        /* \"#utility.yul\":11404:11408   */\n      0x20\n        /* \"#utility.yul\":11399:11402   */\n      dup7\n        /* \"#utility.yul\":11395:11409   */\n      add\n        /* \"#utility.yul\":11381:11393   */\n      dup3\n        /* \"#utility.yul\":11347:11410   */\n      tag_390\n      jump\t// in\n    tag_584:\n        /* \"#utility.yul\":11251:11420   */\n      pop\n        /* \"#utility.yul\":11505:11509   */\n      0x40\n        /* \"#utility.yul\":11498:11503   */\n      dup4\n        /* \"#utility.yul\":11494:11510   */\n      add\n        /* \"#utility.yul\":11488:11511   */\n      mload\n        /* \"#utility.yul\":11524:11581   */\n      tag_585\n        /* \"#utility.yul\":11575:11579   */\n      0x40\n        /* \"#utility.yul\":11570:11573   */\n      dup7\n        /* \"#utility.yul\":11566:11580   */\n      add\n        /* \"#utility.yul\":11552:11564   */\n      dup3\n        /* \"#utility.yul\":11524:11581   */\n      tag_391\n      jump\t// in\n    tag_585:\n        /* \"#utility.yul\":11430:11591   */\n      pop\n        /* \"#utility.yul\":11675:11679   */\n      0x60\n        /* \"#utility.yul\":11668:11673   */\n      dup4\n        /* \"#utility.yul\":11664:11680   */\n      add\n        /* \"#utility.yul\":11658:11681   */\n      mload\n        /* \"#utility.yul\":11694:11757   */\n      tag_586\n        /* \"#utility.yul\":11751:11755   */\n      0x60\n        /* \"#utility.yul\":11746:11749   */\n      dup7\n        /* \"#utility.yul\":11742:11756   */\n      add\n        /* \"#utility.yul\":11728:11740   */\n      dup3\n        /* \"#utility.yul\":11694:11757   */\n      tag_392\n      jump\t// in\n    tag_586:\n        /* \"#utility.yul\":11601:11767   */\n      pop\n        /* \"#utility.yul\":11784:11788   */\n      dup1\n        /* \"#utility.yul\":11777:11788   */\n      swap2\n      pop\n        /* \"#utility.yul\":10961:11794   */\n      pop\n        /* \"#utility.yul\":10837:11794   */\n      swap3\n      swap2\n      pop\n      pop\n      jump\t// out\n        /* \"#utility.yul\":11800:12173   */\n    tag_80:\n        /* \"#utility.yul\":11943:11947   */\n      0x00\n        /* \"#utility.yul\":11981:11983   */\n      0x20\n        /* \"#utility.yul\":11970:11979   */\n      dup3\n        /* \"#utility.yul\":11966:11984   */\n      add\n        /* \"#utility.yul\":11958:11984   */\n      swap1\n      pop\n        /* \"#utility.yul\":12030:12039   */\n      dup2\n        /* \"#utility.yul\":12024:12028   */\n      dup2\n        /* \"#utility.yul\":12020:12040   */\n      sub\n        /* \"#utility.yul\":12016:12017   */\n      0x00\n        /* \"#utility.yul\":12005:12014   */\n      dup4\n        /* \"#utility.yul\":12001:12018   */\n      add\n        /* \"#utility.yul\":11994:12041   */\n      mstore\n        /* \"#utility.yul\":12058:12166   */\n      tag_588\n        /* \"#utility.yul\":12161:12165   */\n      dup2\n        /* \"#utility.yul\":12152:12158   */\n      dup5\n        /* \"#utility.yul\":12058:12166   */\n      tag_393\n      jump\t// in\n    tag_588:\n        /* \"#utility.yul\":12050:12166   */\n      swap1\n      pop\n        /* \"#utility.yul\":11800:12173   */\n      swap3\n      swap2\n      pop\n      pop\n      jump\t// out\n        /* \"#utility.yul\":12179:12297   */\n    tag_394:\n        /* \"#utility.yul\":12266:12290   */\n      tag_590\n        /* \"#utility.yul\":12284:12289   */\n      dup2\n        /* \"#utility.yul\":12266:12290   */\n      tag_382\n      jump\t// in\n    tag_590:\n        /* \"#utility.yul\":12261:12264   */\n      dup3\n        /* \"#utility.yul\":12254:12291   */\n      mstore\n        /* \"#utility.yul\":12179:12297   */\n      pop\n      pop\n      jump\t// out\n        /* \"#utility.yul\":12303:12525   */\n    tag_85:\n        /* \"#utility.yul\":12396:12400   */\n      0x00\n        /* \"#utility.yul\":12434:12436   */\n      0x20\n        /* \"#utility.yul\":12423:12432   */\n      dup3\n        /* \"#utility.yul\":12419:12437   */\n      add\n        /* \"#utility.yul\":12411:12437   */\n      swap1\n      pop\n        /* \"#utility.yul\":12447:12518   */\n      tag_592\n        /* \"#utility.yul\":12515:12516   */\n      0x00\n        /* \"#utility.yul\":12504:12513   */\n      dup4\n        /* \"#utility.yul\":12500:12517   */\n      add\n        /* \"#utility.yul\":12491:12497   */\n      dup5\n        /* \"#utility.yul\":12447:12518   */\n      tag_394\n      jump\t// in\n    tag_592:\n        /* \"#utility.yul\":12303:12525   */\n      swap3\n      swap2\n      pop\n      pop\n      jump\t// out\n        /* \"#utility.yul\":12531:13205   */\n    tag_97:\n        /* \"#utility.yul\":12611:12617   */\n      0x00\n        /* \"#utility.yul\":12619:12625   */\n      0x00\n        /* \"#utility.yul\":12627:12633   */\n      0x00\n        /* \"#utility.yul\":12676:12678   */\n      0x40\n        /* \"#utility.yul\":12664:12673   */\n      dup5\n        /* \"#utility.yul\":12655:12662   */\n      dup7\n        /* \"#utility.yul\":12651:12674   */\n      sub\n        /* \"#utility.yul\":12647:12679   */\n      slt\n        /* \"#utility.yul\":12644:12763   */\n      iszero\n      tag_594\n      jumpi\n        /* \"#utility.yul\":12682:12761   */\n      tag_595\n      tag_350\n      jump\t// in\n    tag_595:\n        /* \"#utility.yul\":12644:12763   */\n    tag_594:\n        /* \"#utility.yul\":12802:12803   */\n      0x00\n        /* \"#utility.yul\":12827:12880   */\n      tag_596\n        /* \"#utility.yul\":12872:12879   */\n      dup7\n        /* \"#utility.yul\":12863:12869   */\n      dup3\n        /* \"#utility.yul\":12852:12861   */\n      dup8\n        /* \"#utility.yul\":12848:12870   */\n      add\n        /* \"#utility.yul\":12827:12880   */\n      tag_359\n      jump\t// in\n    tag_596:\n        /* \"#utility.yul\":12817:12880   */\n      swap4\n      pop\n        /* \"#utility.yul\":12773:12890   */\n      pop\n        /* \"#utility.yul\":12957:12959   */\n      0x20\n        /* \"#utility.yul\":12946:12955   */\n      dup5\n        /* \"#utility.yul\":12942:12960   */\n      add\n        /* \"#utility.yul\":12929:12961   */\n      calldataload\n        /* \"#utility.yul\":12988:13006   */\n      0xffffffffffffffff\n        /* \"#utility.yul\":12980:12986   */\n      dup2\n        /* \"#utility.yul\":12977:13007   */\n      gt\n        /* \"#utility.yul\":12974:13091   */\n      iszero\n      tag_597\n      jumpi\n        /* \"#utility.yul\":13010:13089   */\n      tag_598\n      tag_351\n      jump\t// in\n    tag_598:\n        /* \"#utility.yul\":12974:13091   */\n    tag_597:\n        /* \"#utility.yul\":13123:13188   */\n      tag_599\n        /* \"#utility.yul\":13180:13187   */\n      dup7\n        /* \"#utility.yul\":13171:13177   */\n      dup3\n        /* \"#utility.yul\":13160:13169   */\n      dup8\n        /* \"#utility.yul\":13156:13178   */\n      add\n        /* \"#utility.yul\":13123:13188   */\n      tag_369\n      jump\t// in\n    tag_599:\n        /* \"#utility.yul\":13105:13188   */\n      swap3\n      pop\n      swap3\n      pop\n        /* \"#utility.yul\":12900:13198   */\n      pop\n        /* \"#utility.yul\":12531:13205   */\n      swap3\n      pop\n      swap3\n      pop\n      swap3\n      jump\t// out\n        /* \"#utility.yul\":13211:13380   */\n    tag_395:\n        /* \"#utility.yul\":13295:13306   */\n      0x00\n        /* \"#utility.yul\":13329:13335   */\n      dup3\n        /* \"#utility.yul\":13324:13327   */\n      dup3\n        /* \"#utility.yul\":13317:13336   */\n      mstore\n        /* \"#utility.yul\":13369:13373   */\n      0x20\n        /* \"#utility.yul\":13364:13367   */\n      dup3\n        /* \"#utility.yul\":13360:13374   */\n      add\n        /* \"#utility.yul\":13345:13374   */\n      swap1\n      pop\n        /* \"#utility.yul\":13211:13380   */\n      swap3\n      swap2\n      pop\n      pop\n      jump\t// out\n        /* \"#utility.yul\":13386:13546   */\n    tag_396:\n        /* \"#utility.yul\":13526:13538   */\n      0x646f632065786973747300000000000000000000000000000000000000000000\n        /* \"#utility.yul\":13522:13523   */\n      0x00\n        /* \"#utility.yul\":13514:13520   */\n      dup3\n        /* \"#utility.yul\":13510:13524   */\n      add\n        /* \"#utility.yul\":13503:13539   */\n      mstore\n        /* \"#utility.yul\":13386:13546   */\n      pop\n      jump\t// out\n        /* \"#utility.yul\":13552:13918   */\n    tag_397:\n        /* \"#utility.yul\":13694:13697   */\n      0x00\n        /* \"#utility.yul\":13715:13782   */\n      tag_603\n        /* \"#utility.yul\":13779:13781   */\n      0x0a\n        /* \"#utility.yul\":13774:13777   */\n      dup4\n        /* \"#utility.yul\":13715:13782   */\n      tag_395\n      jump\t// in\n    tag_603:\n        /* \"#utility.yul\":13708:13782   */\n      swap2\n      pop\n        /* \"#utility.yul\":13791:13884   */\n      tag_604\n        /* \"#utility.yul\":13880:13883   */\n      dup3\n        /* \"#utility.yul\":13791:13884   */\n      tag_396\n      jump\t// in\n    tag_604:\n        /* \"#utility.yul\":13909:13911   */\n      0x20\n        /* \"#utility.yul\":13904:13907   */\n      dup3\n        /* \"#utility.yul\":13900:13912   */\n      add\n        /* \"#utility.yul\":13893:13912   */\n      swap1\n      pop\n        /* \"#utility.yul\":13552:13918   */\n      swap2\n      swap1\n      pop\n      jump\t// out\n        /* \"#utility.yul\":13924:14343   */\n    tag_110:\n        /* \"#utility.yul\":14090:14094   */\n      0x00\n        /* \"#utility.yul\":14128:14130   */\n      0x20\n        /* \"#utility.yul\":14117:14126   */\n      dup3\n        /* \"#utility.yul\":14113:14131   */\n      add\n        /* \"#utility.yul\":14105:14131   */\n      swap1\n      pop\n        /* \"#utility.yul\":14177:14186   */\n      dup2\n        /* \"#utility.yul\":14171:14175   */\n      dup2\n        /* \"#utility.yul\":14167:14187   */\n      sub\n        /* \"#utility.yul\":14163:14164   */\n      0x00\n        /* \"#utility.yul\":14152:14161   */\n      dup4\n        /* \"#utility.yul\":14148:14165   */\n      add\n        /* \"#utility.yul\":14141:14188   */\n      mstore\n        /* \"#utility.yul\":14205:14336   */\n      tag_606\n        /* \"#utility.yul\":14331:14335   */\n      dup2\n        /* \"#utility.yul\":14205:14336   */\n      tag_397\n      jump\t// in\n    tag_606:\n        /* \"#utility.yul\":14197:14336   */\n      swap1\n      pop\n        /* \"#utility.yul\":13924:14343   */\n      swap2\n      swap1\n      pop\n      jump\t// out\n        /* \"#utility.yul\":14349:14467   */\n    tag_398:\n        /* \"#utility.yul\":14436:14460   */\n      tag_608\n        /* \"#utility.yul\":14454:14459   */\n      dup2\n        /* \"#utility.yul\":14436:14460   */\n      tag_372\n      jump\t// in\n    tag_608:\n        /* \"#utility.yul\":14431:14434   */\n      dup3\n        /* \"#utility.yul\":14424:14461   */\n      mstore\n        /* \"#utility.yul\":14349:14467   */\n      pop\n      pop\n      jump\t// out\n        /* \"#utility.yul\":14473:14695   */\n    tag_118:\n        /* \"#utility.yul\":14566:14570   */\n      0x00\n        /* \"#utility.yul\":14604:14606   */\n      0x20\n        /* \"#utility.yul\":14593:14602   */\n      dup3\n        /* \"#utility.yul\":14589:14607   */\n      add\n        /* \"#utility.yul\":14581:14607   */\n      swap1\n      pop\n        /* \"#utility.yul\":14617:14688   */\n      tag_610\n        /* \"#utility.yul\":14685:14686   */\n      0x00\n        /* \"#utility.yul\":14674:14683   */\n      dup4\n        /* \"#utility.yul\":14670:14687   */\n      add\n        /* \"#utility.yul\":14661:14667   */\n      dup5\n        /* \"#utility.yul\":14617:14688   */\n      tag_398\n      jump\t// in\n    tag_610:\n        /* \"#utility.yul\":14473:14695   */\n      swap3\n      swap2\n      pop\n      pop\n      jump\t// out\n        /* \"#utility.yul\":14701:14838   */\n    tag_399:\n        /* \"#utility.yul\":14755:14760   */\n      0x00\n        /* \"#utility.yul\":14786:14792   */\n      dup2\n        /* \"#utility.yul\":14780:14793   */\n      mload\n        /* \"#utility.yul\":14771:14793   */\n      swap1\n      pop\n        /* \"#utility.yul\":14802:14832   */\n      tag_612\n        /* \"#utility.yul\":14826:14831   */\n      dup2\n        /* \"#utility.yul\":14802:14832   */\n      tag_375\n      jump\t// in\n    tag_612:\n        /* \"#utility.yul\":14701:14838   */\n      swap3\n      swap2\n      pop\n      pop\n      jump\t// out\n        /* \"#utility.yul\":14844:15189   */\n    tag_122:\n        /* \"#utility.yul\":14911:14917   */\n      0x00\n        /* \"#utility.yul\":14960:14962   */\n      0x20\n        /* \"#utility.yul\":14948:14957   */\n      dup3\n        /* \"#utility.yul\":14939:14946   */\n      dup5\n        /* \"#utility.yul\":14935:14958   */\n      sub\n        /* \"#utility.yul\":14931:14963   */\n      slt\n        /* \"#utility.yul\":14928:15047   */\n      iszero\n      tag_614\n      jumpi\n        /* \"#utility.yul\":14966:15045   */\n      tag_615\n      tag_350\n      jump\t// in\n    tag_615:\n        /* \"#utility.yul\":14928:15047   */\n    tag_614:\n        /* \"#utility.yul\":15086:15087   */\n      0x00\n        /* \"#utility.yul\":15111:15172   */\n      tag_616\n        /* \"#utility.yul\":15164:15171   */\n      dup5\n        /* \"#utility.yul\":15155:15161   */\n      dup3\n        /* \"#utility.yul\":15144:15153   */\n      dup6\n        /* \"#utility.yul\":15140:15162   */\n      add\n        /* \"#utility.yul\":15111:15172   */\n      tag_399\n      jump\t// in\n    tag_616:\n        /* \"#utility.yul\":15101:15172   */\n      swap2\n      pop\n        /* \"#utility.yul\":15057:15182   */\n      pop\n        /* \"#utility.yul\":14844:15189   */\n      swap3\n      swap2\n      pop\n      pop\n      jump\t// out\n        /* \"#utility.yul\":15195:15355   */\n    tag_400:\n        /* \"#utility.yul\":15335:15347   */\n      0x6a75646765206f6e6c7900000000000000000000000000000000000000000000\n        /* \"#utility.yul\":15331:15332   */\n      0x00\n        /* \"#utility.yul\":15323:15329   */\n      dup3\n        /* \"#utility.yul\":15319:15333   */\n      add\n        /* \"#utility.yul\":15312:15348   */\n      mstore\n        /* \"#utility.yul\":15195:15355   */\n      pop\n      jump\t// out\n        /* \"#utility.yul\":15361:15727   */\n    tag_401:\n        /* \"#utility.yul\":15503:15506   */\n      0x00\n        /* \"#utility.yul\":15524:15591   */\n      tag_619\n        /* \"#utility.yul\":15588:15590   */\n      0x0a\n        /* \"#utility.yul\":15583:15586   */\n      dup4\n        /* \"#utility.yul\":15524:15591   */\n      tag_395\n      jump\t// in\n    tag_619:\n        /* \"#utility.yul\":15517:15591   */\n      swap2\n      pop\n        /* \"#utility.yul\":15600:15693   */\n      tag_620\n        /* \"#utility.yul\":15689:15692   */\n      dup3\n        /* \"#utility.yul\":15600:15693   */\n      tag_400\n      jump\t// in\n    tag_620:\n        /* \"#utility.yul\":15718:15720   */\n      0x20\n        /* \"#utility.yul\":15713:15716   */\n      dup3\n        /* \"#utility.yul\":15709:15721   */\n      add\n        /* \"#utility.yul\":15702:15721   */\n      swap1\n      pop\n        /* \"#utility.yul\":15361:15727   */\n      swap2\n      swap1\n      pop\n      jump\t// out\n        /* \"#utility.yul\":15733:16152   */\n    tag_125:\n        /* \"#utility.yul\":15899:15903   */\n      0x00\n        /* \"#utility.yul\":15937:15939   */\n      0x20\n        /* \"#utility.yul\":15926:15935   */\n      dup3\n        /* \"#utility.yul\":15922:15940   */\n      add\n        /* \"#utility.yul\":15914:15940   */\n      swap1\n      pop\n        /* \"#utility.yul\":15986:15995   */\n      dup2\n        /* \"#utility.yul\":15980:15984   */\n      dup2\n        /* \"#utility.yul\":15976:15996   */\n      sub\n        /* \"#utility.yul\":15972:15973   */\n      0x00\n        /* \"#utility.yul\":15961:15970   */\n      dup4\n        /* \"#utility.yul\":15957:15974   */\n      add\n        /* \"#utility.yul\":15950:15997   */\n      mstore\n        /* \"#utility.yul\":16014:16145   */\n      tag_622\n        /* \"#utility.yul\":16140:16144   */\n      dup2\n        /* \"#utility.yul\":16014:16145   */\n      tag_401\n      jump\t// in\n    tag_622:\n        /* \"#utility.yul\":16006:16145   */\n      swap1\n      pop\n        /* \"#utility.yul\":15733:16152   */\n      swap2\n      swap1\n      pop\n      jump\t// out\n        /* \"#utility.yul\":16158:16319   */\n    tag_402:\n        /* \"#utility.yul\":16298:16311   */\n      0x6c6177796572206f6e6c79000000000000000000000000000000000000000000\n        /* \"#utility.yul\":16294:16295   */\n      0x00\n        /* \"#utility.yul\":16286:16292   */\n      dup3\n        /* \"#utility.yul\":16282:16296   */\n      add\n        /* \"#utility.yul\":16275:16312   */\n      mstore\n        /* \"#utility.yul\":16158:16319   */\n      pop\n      jump\t// out\n        /* \"#utility.yul\":16325:16691   */\n    tag_403:\n        /* \"#utility.yul\":16467:16470   */\n      0x00\n        /* \"#utility.yul\":16488:16555   */\n      tag_625\n        /* \"#utility.yul\":16552:16554   */\n      0x0b\n        /* \"#utility.yul\":16547:16550   */\n      dup4\n        /* \"#utility.yul\":16488:16555   */\n      tag_395\n      jump\t// in\n    tag_625:\n        /* \"#utility.yul\":16481:16555   */\n      swap2\n      pop\n        /* \"#utility.yul\":16564:16657   */\n      tag_626\n        /* \"#utility.yul\":16653:16656   */\n      dup3\n        /* \"#utility.yul\":16564:16657   */\n      tag_402\n      jump\t// in\n    tag_626:\n        /* \"#utility.yul\":16682:16684   */\n      0x20\n        /* \"#utility.yul\":16677:16680   */\n      dup3\n        /* \"#utility.yul\":16673:16685   */\n      add\n        /* \"#utility.yul\":16666:16685   */\n      swap1\n      pop\n        /* \"#utility.yul\":16325:16691   */\n      swap2\n      swap1\n      pop\n      jump\t// out\n        /* \"#utility.yul\":16697:17116   */\n    tag_138:\n        /* \"#utility.yul\":16863:16867   */\n      0x00\n        /* \"#utility.yul\":16901:16903   */\n      0x20\n        /* \"#utility.yul\":16890:16899   */\n      dup3\n        /* \"#utility.yul\":16886:16904   */\n      add\n        /* \"#utility.yul\":16878:16904   */\n      swap1\n      pop\n        /* \"#utility.yul\":16950:16959   */\n      dup2\n        /* \"#utility.yul\":16944:16948   */\n      dup2\n        /* \"#utility.yul\":16940:16960   */\n      sub\n        /* \"#utility.yul\":16936:16937   */\n      0x00\n        /* \"#utility.yul\":16925:16934   */\n      dup4\n        /* \"#utility.yul\":16921:16938   */\n      add\n        /* \"#utility.yul\":16914:16961   */\n      mstore\n        /* \"#utility.yul\":16978:17109   */\n      tag_628\n        /* \"#utility.yul\":17104:17108   */\n      dup2\n        /* \"#utility.yul\":16978:17109   */\n      tag_403\n      jump\t// in\n    tag_628:\n        /* \"#utility.yul\":16970:17109   */\n      swap1\n      pop\n        /* \"#utility.yul\":16697:17116   */\n      swap2\n      swap1\n      pop\n      jump\t// out\n        /* \"#utility.yul\":17122:17302   */\n    tag_329:\n        /* \"#utility.yul\":17170:17247   */\n      0x4e487b7100000000000000000000000000000000000000000000000000000000\n        /* \"#utility.yul\":17167:17168   */\n      0x00\n        /* \"#utility.yul\":17160:17248   */\n      mstore\n        /* \"#utility.yul\":17267:17271   */\n      0x41\n        /* \"#utility.yul\":17264:17265   */\n      0x04\n        /* \"#utility.yul\":17257:17272   */\n      mstore\n        /* \"#utility.yul\":17291:17295   */\n      0x24\n        /* \"#utility.yul\":17288:17289   */\n      0x00\n        /* \"#utility.yul\":17281:17296   */\n      revert\n        /* \"#utility.yul\":17308:17488   */\n    tag_404:\n        /* \"#utility.yul\":17356:17433   */\n      0x4e487b7100000000000000000000000000000000000000000000000000000000\n        /* \"#utility.yul\":17353:17354   */\n      0x00\n        /* \"#utility.yul\":17346:17434   */\n      mstore\n        /* \"#utility.yul\":17453:17457   */\n      0x22\n        /* \"#utility.yul\":17450:17451   */\n      0x04\n        /* \"#utility.yul\":17443:17458   */\n      mstore\n        /* \"#utility.yul\":17477:17481   */\n      0x24\n        /* \"#utility.yul\":17474:17475   */\n      0x00\n        /* \"#utility.yul\":17467:17482   */\n      revert\n        /* \"#utility.yul\":17494:17814   */\n    tag_201:\n        /* \"#utility.yul\":17538:17544   */\n      0x00\n        /* \"#utility.yul\":17575:17576   */\n      0x02\n        /* \"#utility.yul\":17569:17573   */\n      dup3\n        /* \"#utility.yul\":17565:17577   */\n      div\n        /* \"#utility.yul\":17555:17577   */\n      swap1\n      pop\n        /* \"#utility.yul\":17622:17623   */\n      0x01\n        /* \"#utility.yul\":17616:17620   */\n      dup3\n        /* \"#utility.yul\":17612:17624   */\n      and\n        /* \"#utility.yul\":17643:17661   */\n      dup1\n        /* \"#utility.yul\":17633:17714   */\n      tag_632\n      jumpi\n        /* \"#utility.yul\":17699:17703   */\n      0x7f\n        /* \"#utility.yul\":17691:17697   */\n      dup3\n        /* \"#utility.yul\":17687:17704   */\n      and\n        /* \"#utility.yul\":17677:17704   */\n      swap2\n      pop\n        /* \"#utility.yul\":17633:17714   */\n    tag_632:\n        /* \"#utility.yul\":17761:17763   */\n      0x20\n        /* \"#utility.yul\":17753:17759   */\n      dup3\n        /* \"#utility.yul\":17750:17764   */\n      lt\n        /* \"#utility.yul\":17730:17748   */\n      dup2\n        /* \"#utility.yul\":17727:17765   */\n      sub\n        /* \"#utility.yul\":17724:17808   */\n      tag_633\n      jumpi\n        /* \"#utility.yul\":17780:17798   */\n      tag_634\n      tag_404\n      jump\t// in\n    tag_634:\n        /* \"#utility.yul\":17724:17808   */\n    tag_633:\n        /* \"#utility.yul\":17545:17814   */\n      pop\n        /* \"#utility.yul\":17494:17814   */\n      swap2\n      swap1\n      pop\n      jump\t// out\n        /* \"#utility.yul\":17820:17961   */\n    tag_405:\n        /* \"#utility.yul\":17869:17873   */\n      0x00\n        /* \"#utility.yul\":17892:17895   */\n      dup2\n        /* \"#utility.yul\":17884:17895   */\n      swap1\n      pop\n        /* \"#utility.yul\":17915:17918   */\n      dup2\n        /* \"#utility.yul\":17912:17913   */\n      0x00\n        /* \"#utility.yul\":17905:17919   */\n      mstore\n        /* \"#utility.yul\":17949:17953   */\n      0x20\n        /* \"#utility.yul\":17946:17947   */\n      0x00\n        /* \"#utility.yul\":17936:17954   */\n      keccak256\n        /* \"#utility.yul\":17928:17954   */\n      swap1\n      pop\n        /* \"#utility.yul\":17820:17961   */\n      swap2\n      swap1\n      pop\n      jump\t// out\n        /* \"#utility.yul\":17967:18060   */\n    tag_406:\n        /* \"#utility.yul\":18004:18010   */\n      0x00\n        /* \"#utility.yul\":18051:18053   */\n      0x20\n        /* \"#utility.yul\":18046:18048   */\n      0x1f\n        /* \"#utility.yul\":18039:18044   */\n      dup4\n        /* \"#utility.yul\":18035:18049   */\n      add\n        /* \"#utility.yul\":18031:18054   */\n      div\n        /* \"#utility.yul\":18021:18054   */\n      swap1\n      pop\n        /* \"#utility.yul\":17967:18060   */\n      swap2\n      swap1\n      pop\n      jump\t// out\n        /* \"#utility.yul\":18066:18173   */\n    tag_407:\n        /* \"#utility.yul\":18110:18118   */\n      0x00\n        /* \"#utility.yul\":18160:18165   */\n      dup3\n        /* \"#utility.yul\":18154:18158   */\n      dup3\n        /* \"#utility.yul\":18150:18166   */\n      shl\n        /* \"#utility.yul\":18129:18166   */\n      swap1\n      pop\n        /* \"#utility.yul\":18066:18173   */\n      swap3\n      swap2\n      pop\n      pop\n      jump\t// out\n        /* \"#utility.yul\":18179:18572   */\n    tag_408:\n        /* \"#utility.yul\":18248:18254   */\n      0x00\n        /* \"#utility.yul\":18298:18299   */\n      0x08\n        /* \"#utility.yul\":18286:18296   */\n      dup4\n        /* \"#utility.yul\":18282:18300   */\n      mul\n        /* \"#utility.yul\":18321:18418   */\n      tag_639\n        /* \"#utility.yul\":18351:18417   */\n      0xffffffffffffffffffffffffffffffffffffffffffffffffffffffffffffffff\n        /* \"#utility.yul\":18340:18349   */\n      dup3\n        /* \"#utility.yul\":18321:18418   */\n      tag_407\n      jump\t// in\n    tag_639:\n        /* \"#utility.yul\":18439:18478   */\n      tag_640\n        /* \"#utility.yul\":18469:18477   */\n      dup7\n        /* \"#utility.yul\":18458:18467   */\n      dup4\n        /* \"#utility.yul\":18439:18478   */\n      tag_407\n      jump\t// in\n    tag_640:\n        /* \"#utility.yul\":18427:18478   */\n      swap6\n      pop\n        /* \"#utility.yul\":18511:18515   */\n      dup1\n        /* \"#utility.yul\":18507:18516   */\n      not\n        /* \"#utility.yul\":18500:18505   */\n      dup5\n        /* \"#utility.yul\":18496:18517   */\n      and\n        /* \"#utility.yul\":18487:18517   */\n      swap4\n      pop\n        /* \"#utility.yul\":18560:18564   */\n      dup1\n        /* \"#utility.yul\":18550:18558   */\n      dup7\n        /* \"#utility.yul\":18546:18565   */\n      and\n        /* \"#utility.yul\":18539:18544   */\n      dup5\n        /* \"#utility.yul\":18536:18566   */\n      or\n        /* \"#utility.yul\":18526:18566   */\n      swap3\n      pop\n        /* \"#utility.yul\":18255:18572   */\n      pop\n      pop\n        /* \"#utility.yul\":18179:18572   */\n      swap4\n      swap3\n      pop\n      pop\n      pop\n      jump\t// out\n        /* \"#utility.yul\":18578:18720   */\n    tag_409:\n        /* \"#utility.yul\":18628:18637   */\n      0x00\n        /* \"#utility.yul\":18661:18714   */\n      tag_642\n        /* \"#utility.yul\":18679:18713   */\n      tag_643\n        /* \"#utility.yul\":18688:18712   */\n      tag_644\n        /* \"#utility.yul\":18706:18711   */\n      dup5\n        /* \"#utility.yul\":18688:18712   */\n      tag_382\n      jump\t// in\n    tag_644:\n        /* \"#utility.yul\":18679:18713   */\n      tag_377\n      jump\t// in\n    tag_643:\n        /* \"#utility.yul\":18661:18714   */\n      tag_382\n      jump\t// in\n    tag_642:\n        /* \"#utility.yul\":18648:18714   */\n      swap1\n      pop\n        /* \"#utility.yul\":18578:18720   */\n      swap2\n      swap1\n      pop\n      jump\t// out\n        /* \"#utility.yul\":18726:18801   */\n    tag_410:\n        /* \"#utility.yul\":18769:18772   */\n      0x00\n        /* \"#utility.yul\":18790:18795   */\n      dup2\n        /* \"#utility.yul\":18783:18795   */\n      swap1\n      pop\n        /* \"#utility.yul\":18726:18801   */\n      swap2\n      swap1\n      pop\n      jump\t// out\n        /* \"#utility.yul\":18807:19076   */\n    tag_411:\n        /* \"#utility.yul\":18917:18956   */\n      tag_647\n        /* \"#utility.yul\":18948:18955   */\n      dup4\n        /* \"#utility.yul\":18917:18956   */\n      tag_409\n      jump\t// in\n    tag_647:\n        /* \"#utility.yul\":18978:19069   */\n      tag_648\n        /* \"#utility.yul\":19027:19068   */\n      tag_649\n        /* \"#utility.yul\":19051:19067   */\n      dup3\n        /* \"#utility.yul\":19027:19068   */\n      tag_410\n      jump\t// in\n    tag_649:\n        /* \"#utility.yul\":19019:19025   */\n      dup5\n        /* \"#utility.yul\":19012:19016   */\n      dup5\n        /* \"#utility.yul\":19006:19017   */\n      sload\n        /* \"#utility.yul\":18978:19069   */\n      tag_408\n      jump\t// in\n    tag_648:\n        /* \"#utility.yul\":18972:18976   */\n      dup3\n        /* \"#utility.yul\":18965:19070   */\n      sstore\n        /* \"#utility.yul\":18883:19076   */\n      pop\n        /* \"#utility.yul\":18807:19076   */\n      pop\n      pop\n      pop\n      jump\t// out\n        /* \"#utility.yul\":19082:19155   */\n    tag_412:\n        /* \"#utility.yul\":19127:19130   */\n      0x00\n        /* \"#utility.yul\":19148:19149   */\n      0x00\n        /* \"#utility.yul\":19141:19149   */\n      swap1\n      pop\n        /* \"#utility.yul\":19082:19155   */\n      swap1\n      jump\t// out\n        /* \"#utility.yul\":19161:19350   */\n    tag_413:\n        /* \"#utility.yul\":19238:19270   */\n      tag_652\n      tag_412\n      jump\t// in\n    tag_652:\n        /* \"#utility.yul\":19279:19344   */\n      tag_653\n        /* \"#utility.yul\":19337:19343   */\n      dup2\n        /* \"#utility.yul\":19329:19335   */\n      dup5\n        /* \"#utility.yul\":19323:19327   */\n      dup5\n        /* \"#utility.yul\":19279:19344   */\n      tag_411\n      jump\t// in\n    tag_653:\n        /* \"#utility.yul\":19214:19350   */\n      pop\n        /* \"#utility.yul\":19161:19350   */\n      pop\n      pop\n      jump\t// out\n        /* \"#utility.yul\":19356:19542   */\n    tag_414:\n        /* \"#utility.yul\":19416:19536   */\n    tag_655:\n        /* \"#utility.yul\":19433:19436   */\n      dup2\n        /* \"#utility.yul\":19426:19431   */\n      dup2\n        /* \"#utility.yul\":19423:19437   */\n      lt\n        /* \"#utility.yul\":19416:19536   */\n      iszero\n      tag_657\n      jumpi\n        /* \"#utility.yul\":19487:19526   */\n      tag_658\n        /* \"#utility.yul\":19524:19525   */\n      0x00\n        /* \"#utility.yul\":19517:19522   */\n      dup3\n        /* \"#utility.yul\":19487:19526   */\n      tag_413\n      jump\t// in\n    tag_658:\n        /* \"#utility.yul\":19460:19461   */\n      0x01\n        /* \"#utility.yul\":19453:19458   */\n      dup2\n        /* \"#utility.yul\":19449:19462   */\n      add\n        /* \"#utility.yul\":19440:19462   */\n      swap1\n      pop\n        /* \"#utility.yul\":19416:19536   */\n      jump(tag_655)\n    tag_657:\n        /* \"#utility.yul\":19356:19542   */\n      pop\n      pop\n      jump\t// out\n        /* \"#utility.yul\":19548:20091   */\n    tag_415:\n        /* \"#utility.yul\":19649:19651   */\n      0x1f\n        /* \"#utility.yul\":19644:19647   */\n      dup3\n        /* \"#utility.yul\":19641:19652   */\n      gt\n        /* \"#utility.yul\":19638:20084   */\n      iszero\n      tag_660\n      jumpi\n        /* \"#utility.yul\":19683:19721   */\n      tag_661\n        /* \"#utility.yul\":19715:19720   */\n      dup2\n        /* \"#utility.yul\":19683:19721   */\n      tag_405\n      jump\t// in\n    tag_661:\n        /* \"#utility.yul\":19767:19796   */\n      tag_662\n        /* \"#utility.yul\":19785:19795   */\n      dup5\n        /* \"#utility.yul\":19767:19796   */\n      tag_406\n      jump\t// in\n    tag_662:\n        /* \"#utility.yul\":19757:19765   */\n      dup2\n        /* \"#utility.yul\":19753:19797   */\n      add\n        /* \"#utility.yul\":19950:19952   */\n      0x20\n        /* \"#utility.yul\":19938:19948   */\n      dup6\n        /* \"#utility.yul\":19935:19953   */\n      lt\n        /* \"#utility.yul\":19932:19981   */\n      iszero\n      tag_663\n      jumpi\n        /* \"#utility.yul\":19971:19979   */\n      dup2\n        /* \"#utility.yul\":19956:19979   */\n      swap1\n      pop\n        /* \"#utility.yul\":19932:19981   */\n    tag_663:\n        /* \"#utility.yul\":19994:20074   */\n      tag_664\n        /* \"#utility.yul\":20050:20072   */\n      tag_665\n        /* \"#utility.yul\":20068:20071   */\n      dup6\n        /* \"#utility.yul\":20050:20072   */\n      tag_406\n      jump\t// in\n    tag_665:\n        /* \"#utility.yul\":20040:20048   */\n      dup4\n        /* \"#utility.yul\":20036:20073   */\n      add\n        /* \"#utility.yul\":20023:20034   */\n      dup3\n        /* \"#utility.yul\":19994:20074   */\n      tag_414\n      jump\t// in\n    tag_664:\n        /* \"#utility.yul\":19653:20084   */\n      pop\n      pop\n        /* \"#utility.yul\":19638:20084   */\n    tag_660:\n        /* \"#utility.yul\":19548:20091   */\n      pop\n      pop\n      pop\n      jump\t// out\n        /* \"#utility.yul\":20097:20214   */\n    tag_416:\n        /* \"#utility.yul\":20151:20159   */\n      0x00\n        /* \"#utility.yul\":20201:20206   */\n      dup3\n        /* \"#utility.yul\":20195:20199   */\n      dup3\n        /* \"#utility.yul\":20191:20207   */\n      shr\n        /* \"#utility.yul\":20170:20207   */\n      swap1\n      pop\n        /* \"#utility.yul\":20097:20214   */\n      swap3\n      swap2\n      pop\n      pop\n      jump\t// out\n        /* \"#utility.yul\":20220:20389   */\n    tag_417:\n        /* \"#utility.yul\":20264:20270   */\n      0x00\n        /* \"#utility.yul\":20297:20348   */\n      tag_668\n        /* \"#utility.yul\":20345:20346   */\n      0x00\n        /* \"#utility.yul\":20341:20347   */\n      not\n        /* \"#utility.yul\":20333:20338   */\n      dup5\n        /* \"#utility.yul\":20330:20331   */\n      0x08\n        /* \"#utility.yul\":20326:20339   */\n      mul\n        /* \"#utility.yul\":20297:20348   */\n      tag_416\n      jump\t// in\n    tag_668:\n        /* \"#utility.yul\":20293:20349   */\n      not\n        /* \"#utility.yul\":20378:20382   */\n      dup1\n        /* \"#utility.yul\":20372:20376   */\n      dup4\n        /* \"#utility.yul\":20368:20383   */\n      and\n        /* \"#utility.yul\":20358:20383   */\n      swap2\n      pop\n        /* \"#utility.yul\":20271:20389   */\n      pop\n        /* \"#utility.yul\":20220:20389   */\n      swap3\n      swap2\n      pop\n      pop\n      jump\t// out\n        /* \"#utility.yul\":20394:20689   */\n    tag_418:\n        /* \"#utility.yul\":20470:20474   */\n      0x00\n        /* \"#utility.yul\":20616:20645   */\n      tag_670\n        /* \"#utility.yul\":20641:20644   */\n      dup4\n        /* \"#utility.yul\":20635:20639   */\n      dup4\n        /* \"#utility.yul\":20616:20645   */\n      tag_417\n      jump\t// in\n    tag_670:\n        /* \"#utility.yul\":20608:20645   */\n      swap2\n      pop\n        /* \"#utility.yul\":20678:20681   */\n      dup3\n        /* \"#utility.yul\":20675:20676   */\n      0x02\n        /* \"#utility.yul\":20671:20682   */\n      mul\n        /* \"#utility.yul\":20665:20669   */\n      dup3\n        /* \"#utility.yul\":20662:20683   */\n      or\n        /* \"#utility.yul\":20654:20683   */\n      swap1\n      pop\n        /* \"#utility.yul\":20394:20689   */\n      swap3\n      swap2\n      pop\n      pop\n      jump\t// out\n        /* \"#utility.yul\":20694:22089   */\n    tag_144:\n        /* \"#utility.yul\":20811:20848   */\n      tag_672\n        /* \"#utility.yul\":20844:20847   */\n      dup3\n        /* \"#utility.yul\":20811:20848   */\n      tag_385\n      jump\t// in\n    tag_672:\n        /* \"#utility.yul\":20913:20931   */\n      0xffffffffffffffff\n        /* \"#utility.yul\":20905:20911   */\n      dup2\n        /* \"#utility.yul\":20902:20932   */\n      gt\n        /* \"#utility.yul\":20899:20955   */\n      iszero\n      tag_673\n      jumpi\n        /* \"#utility.yul\":20935:20953   */\n      tag_674\n      tag_329\n      jump\t// in\n    tag_674:\n        /* \"#utility.yul\":20899:20955   */\n    tag_673:\n        /* \"#utility.yul\":20979:21017   */\n      tag_675\n        /* \"#utility.yul\":21011:21015   */\n      dup3\n        /* \"#utility.yul\":21005:21016   */\n      sload\n        /* \"#utility.yul\":20979:21017   */\n      tag_201\n      jump\t// in\n    tag_675:\n        /* \"#utility.yul\":21064:21131   */\n      tag_676\n        /* \"#utility.yul\":21124:21130   */\n      dup3\n        /* \"#utility.yul\":21116:21122   */\n      dup3\n        /* \"#utility.yul\":21110:21114   */\n      dup6\n        /* \"#utility.yul\":21064:21131   */\n      tag_415\n      jump\t// in\n    tag_676:\n        /* \"#utility.yul\":21158:21159   */\n      0x00\n        /* \"#utility.yul\":21182:21186   */\n      0x20\n        /* \"#utility.yul\":21169:21186   */\n      swap1\n      pop\n        /* \"#utility.yul\":21214:21216   */\n      0x1f\n        /* \"#utility.yul\":21206:21212   */\n      dup4\n        /* \"#utility.yul\":21203:21217   */\n      gt\n        /* \"#utility.yul\":21231:21232   */\n      0x01\n        /* \"#utility.yul\":21226:21844   */\n      dup2\n      eq\n      tag_678\n      jumpi\n        /* \"#utility.yul\":21888:21889   */\n      0x00\n        /* \"#utility.yul\":21905:21911   */\n      dup5\n        /* \"#utility.yul\":21902:21979   */\n      iszero\n      tag_679\n      jumpi\n        /* \"#utility.yul\":21954:21963   */\n      dup3\n        /* \"#utility.yul\":21949:21952   */\n      dup8\n        /* \"#utility.yul\":21945:21964   */\n      add\n        /* \"#utility.yul\":21939:21965   */\n      mload\n        /* \"#utility.yul\":21930:21965   */\n      swap1\n      pop\n        /* \"#utility.yul\":21902:21979   */\n    tag_679:\n        /* \"#utility.yul\":22005:22072   */\n      tag_680\n        /* \"#utility.yul\":22065:22071   */\n      dup6\n        /* \"#utility.yul\":22058:22063   */\n      dup3\n        /* \"#utility.yul\":22005:22072   */\n      tag_418\n      jump\t// in\n    tag_680:\n        /* \"#utility.yul\":21999:22003   */\n      dup7\n        /* \"#utility.yul\":21992:22073   */\n      sstore\n        /* \"#utility.yul\":21861:22083   */\n      pop\n        /* \"#utility.yul\":21196:22083   */\n      jump(tag_677)\n        /* \"#utility.yul\":21226:21844   */\n    tag_678:\n        /* \"#utility.yul\":21278:21282   */\n      0x1f\n        /* \"#utility.yul\":21274:21283   */\n      not\n        /* \"#utility.yul\":21266:21272   */\n      dup5\n        /* \"#utility.yul\":21262:21284   */\n      and\n        /* \"#utility.yul\":21312:21349   */\n      tag_681\n        /* \"#utility.yul\":21344:21348   */\n      dup7\n        /* \"#utility.yul\":21312:21349   */\n      tag_405\n      jump\t// in\n    tag_681:\n        /* \"#utility.yul\":21371:21372   */\n      0x00\n        /* \"#utility.yul\":21385:21593   */\n    tag_682:\n        /* \"#utility.yul\":21399:21406   */\n      dup3\n        /* \"#utility.yul\":21396:21397   */\n      dup2\n        /* \"#utility.yul\":21393:21407   */\n      lt\n        /* \"#utility.yul\":21385:21593   */\n      iszero\n      tag_684\n      jumpi\n        /* \"#utility.yul\":21478:21487   */\n      dup5\n        /* \"#utility.yul\":21473:21476   */\n      dup10\n        /* \"#utility.yul\":21469:21488   */\n      add\n        /* \"#utility.yul\":21463:21489   */\n      mload\n        /* \"#utility.yul\":21455:21461   */\n      dup3\n        /* \"#utility.yul\":21448:21490   */\n      sstore\n        /* \"#utility.yul\":21529:21530   */\n      0x01\n        /* \"#utility.yul\":21521:21527   */\n      dup3\n        /* \"#utility.yul\":21517:21531   */\n      add\n        /* \"#utility.yul\":21507:21531   */\n      swap2\n      pop\n        /* \"#utility.yul\":21576:21578   */\n      0x20\n        /* \"#utility.yul\":21565:21574   */\n      dup6\n        /* \"#utility.yul\":21561:21579   */\n      add\n        /* \"#utility.yul\":21548:21579   */\n      swap5\n      pop\n        /* \"#utility.yul\":21422:21426   */\n      0x20\n        /* \"#utility.yul\":21419:21420   */\n      dup2\n        /* \"#utility.yul\":21415:21427   */\n      add\n        /* \"#utility.yul\":21410:21427   */\n      swap1\n      pop\n        /* \"#utility.yul\":21385:21593   */\n      jump(tag_682)\n    tag_684:\n        /* \"#utility.yul\":21621:21627   */\n      dup7\n        /* \"#utility.yul\":21612:21619   */\n      dup4\n        /* \"#utility.yul\":21609:21628   */\n      lt\n        /* \"#utility.yul\":21606:21785   */\n      iszero\n      tag_685\n      jumpi\n        /* \"#utility.yul\":21679:21688   */\n      dup5\n        /* \"#utility.yul\":21674:21677   */\n      dup10\n        /* \"#utility.yul\":21670:21689   */\n      add\n        /* \"#utility.yul\":21664:21690   */\n      mload\n        /* \"#utility.yul\":21722:21770   */\n      tag_686\n        /* \"#utility.yul\":21764:21768   */\n      0x1f\n        /* \"#utility.yul\":21756:21762   */\n      dup10\n        /* \"#utility.yul\":21752:21769   */\n      and\n        /* \"#utility.yul\":21741:21750   */\n      dup3\n        /* \"#utility.yul\":21722:21770   */\n      tag_417\n      jump\t// in\n    tag_686:\n        /* \"#utility.yul\":21714:21720   */\n      dup4\n        /* \"#utility.yul\":21707:21771   */\n      sstore\n        /* \"#utility.yul\":21629:21785   */\n      pop\n        /* \"#utility.yul\":21606:21785   */\n    tag_685:\n        /* \"#utility.yul\":21831:21832   */\n      0x01\n        /* \"#utility.yul\":21827:21828   */\n      0x02\n        /* \"#utility.yul\":21819:21825   */\n      dup9\n        /* \"#utility.yul\":21815:21829   */\n      mul\n        /* \"#utility.yul\":21811:21833   */\n      add\n        /* \"#utility.yul\":21805:21809   */\n      dup9\n        /* \"#utility.yul\":21798:21834   */\n      sstore\n        /* \"#utility.yul\":21233:21844   */\n      pop\n      pop\n      pop\n        /* \"#utility.yul\":21196:22083   */\n    tag_677:\n      pop\n        /* \"#utility.yul\":20786:22089   */\n      pop\n      pop\n      pop\n        /* \"#utility.yul\":20694:22089   */\n      pop\n      pop\n      jump\t// out\n        /* \"#utility.yul\":22095:22243   */\n    tag_419:\n        /* \"#utility.yul\":22193:22199   */\n      dup3\n        /* \"#utility.yul\":22188:22191   */\n      dup2\n        /* \"#utility.yul\":22183:22186   */\n      dup4\n        /* \"#utility.yul\":22170:22200   */\n      calldatacopy\n        /* \"#utility.yul\":22234:22235   */\n      0x00\n        /* \"#utility.yul\":22225:22231   */\n      dup4\n        /* \"#utility.yul\":22220:22223   */\n      dup4\n        /* \"#utility.yul\":22216:22232   */\n      add\n        /* \"#utility.yul\":22209:22236   */\n      mstore\n        /* \"#utility.yul\":22095:22243   */\n      pop\n      pop\n      pop\n      jump\t// out\n        /* \"#utility.yul\":22273:22590   */\n    tag_420:\n        /* \"#utility.yul\":22371:22374   */\n      0x00\n        /* \"#utility.yul\":22392:22463   */\n      tag_689\n        /* \"#utility.yul\":22456:22462   */\n      dup4\n        /* \"#utility.yul\":22451:22454   */\n      dup6\n        /* \"#utility.yul\":22392:22463   */\n      tag_395\n      jump\t// in\n    tag_689:\n        /* \"#utility.yul\":22385:22463   */\n      swap4\n      pop\n        /* \"#utility.yul\":22473:22529   */\n      tag_690\n        /* \"#utility.yul\":22522:22528   */\n      dup4\n        /* \"#utility.yul\":22517:22520   */\n      dup6\n        /* \"#utility.yul\":22510:22515   */\n      dup5\n        /* \"#utility.yul\":22473:22529   */\n      tag_419\n      jump\t// in\n    tag_690:\n        /* \"#utility.yul\":22554:22583   */\n      tag_691\n        /* \"#utility.yul\":22576:22582   */\n      dup4\n        /* \"#utility.yul\":22554:22583   */\n      tag_388\n      jump\t// in\n    tag_691:\n        /* \"#utility.yul\":22549:22552   */\n      dup5\n        /* \"#utility.yul\":22545:22584   */\n      add\n        /* \"#utility.yul\":22538:22584   */\n      swap1\n      pop\n        /* \"#utility.yul\":22273:22590   */\n      swap4\n      swap3\n      pop\n      pop\n      pop\n      jump\t// out\n        /* \"#utility.yul\":22596:23059   */\n    tag_148:\n        /* \"#utility.yul\":22757:22761   */\n      0x00\n        /* \"#utility.yul\":22795:22797   */\n      0x40\n        /* \"#utility.yul\":22784:22793   */\n      dup3\n        /* \"#utility.yul\":22780:22798   */\n      add\n        /* \"#utility.yul\":22772:22798   */\n      swap1\n      pop\n        /* \"#utility.yul\":22808:22889   */\n      tag_693\n        /* \"#utility.yul\":22886:22887   */\n      0x00\n        /* \"#utility.yul\":22875:22884   */\n      dup4\n        /* \"#utility.yul\":22871:22888   */\n      add\n        /* \"#utility.yul\":22862:22868   */\n      dup7\n        /* \"#utility.yul\":22808:22889   */\n      tag_363\n      jump\t// in\n    tag_693:\n        /* \"#utility.yul\":22936:22945   */\n      dup2\n        /* \"#utility.yul\":22930:22934   */\n      dup2\n        /* \"#utility.yul\":22926:22946   */\n      sub\n        /* \"#utility.yul\":22921:22923   */\n      0x20\n        /* \"#utility.yul\":22910:22919   */\n      dup4\n        /* \"#utility.yul\":22906:22924   */\n      add\n        /* \"#utility.yul\":22899:22947   */\n      mstore\n        /* \"#utility.yul\":22964:23052   */\n      tag_694\n        /* \"#utility.yul\":23047:23051   */\n      dup2\n        /* \"#utility.yul\":23038:23044   */\n      dup5\n        /* \"#utility.yul\":23030:23036   */\n      dup7\n        /* \"#utility.yul\":22964:23052   */\n      tag_420\n      jump\t// in\n    tag_694:\n        /* \"#utility.yul\":22956:23052   */\n      swap1\n      pop\n        /* \"#utility.yul\":22596:23059   */\n      swap5\n      swap4\n      pop\n      pop\n      pop\n      pop\n      jump\t// out\n        /* \"#utility.yul\":23065:23150   */\n    tag_421:\n        /* \"#utility.yul\":23110:23117   */\n      0x00\n        /* \"#utility.yul\":23139:23144   */\n      dup2\n        /* \"#utility.yul\":23128:23144   */\n      swap1\n      pop\n        /* \"#utility.yul\":23065:23150   */\n      swap2\n      swap1\n      pop\n      jump\t// out\n        /* \"#utility.yul\":23156:23314   */\n    tag_422:\n        /* \"#utility.yul\":23214:23223   */\n      0x00\n        /* \"#utility.yul\":23247:23308   */\n      tag_697\n        /* \"#utility.yul\":23265:23307   */\n      tag_698\n        /* \"#utility.yul\":23274:23306   */\n      tag_699\n        /* \"#utility.yul\":23300:23305   */\n      dup5\n        /* \"#utility.yul\":23274:23306   */\n      tag_421\n      jump\t// in\n    tag_699:\n        /* \"#utility.yul\":23265:23307   */\n      tag_377\n      jump\t// in\n    tag_698:\n        /* \"#utility.yul\":23247:23308   */\n      tag_382\n      jump\t// in\n    tag_697:\n        /* \"#utility.yul\":23234:23308   */\n      swap1\n      pop\n        /* \"#utility.yul\":23156:23314   */\n      swap2\n      swap1\n      pop\n      jump\t// out\n        /* \"#utility.yul\":23320:23467   */\n    tag_423:\n        /* \"#utility.yul\":23415:23460   */\n      tag_701\n        /* \"#utility.yul\":23454:23459   */\n      dup2\n        /* \"#utility.yul\":23415:23460   */\n      tag_422\n      jump\t// in\n    tag_701:\n        /* \"#utility.yul\":23410:23413   */\n      dup3\n        /* \"#utility.yul\":23403:23461   */\n      mstore\n        /* \"#utility.yul\":23320:23467   */\n      pop\n      pop\n      jump\t// out\n        /* \"#utility.yul\":23473:23932   */\n    tag_150:\n        /* \"#utility.yul\":23632:23636   */\n      0x00\n        /* \"#utility.yul\":23670:23672   */\n      0x40\n        /* \"#utility.yul\":23659:23668   */\n      dup3\n        /* \"#utility.yul\":23655:23673   */\n      add\n        /* \"#utility.yul\":23647:23673   */\n      swap1\n      pop\n        /* \"#utility.yul\":23683:23762   */\n      tag_703\n        /* \"#utility.yul\":23759:23760   */\n      0x00\n        /* \"#utility.yul\":23748:23757   */\n      dup4\n        /* \"#utility.yul\":23744:23761   */\n      add\n        /* \"#utility.yul\":23735:23741   */\n      dup7\n        /* \"#utility.yul\":23683:23762   */\n      tag_423\n      jump\t// in\n    tag_703:\n        /* \"#utility.yul\":23809:23818   */\n      dup2\n        /* \"#utility.yul\":23803:23807   */\n      dup2\n        /* \"#utility.yul\":23799:23819   */\n      sub\n        /* \"#utility.yul\":23794:23796   */\n      0x20\n        /* \"#utility.yul\":23783:23792   */\n      dup4\n        /* \"#utility.yul\":23779:23797   */\n      add\n        /* \"#utility.yul\":23772:23820   */\n      mstore\n        /* \"#utility.yul\":23837:23925   */\n      tag_704\n        /* \"#utility.yul\":23920:23924   */\n      dup2\n        /* \"#utility.yul\":23911:23917   */\n      dup5\n        /* \"#utility.yul\":23903:23909   */\n      dup7\n        /* \"#utility.yul\":23837:23925   */\n      tag_420\n      jump\t// in\n    tag_704:\n        /* \"#utility.yul\":23829:23925   */\n      swap1\n      pop\n        /* \"#utility.yul\":23473:23932   */\n      swap5\n      swap4\n      pop\n      pop\n      pop\n      pop\n      jump\t// out\n        /* \"#utility.yul\":23938:24172   */\n    tag_424:\n        /* \"#utility.yul\":24078:24112   */\n      0x416363657373436f6e74726f6c3a2063616e206f6e6c792072656e6f756e6365\n        /* \"#utility.yul\":24074:24075   */\n      0x00\n        /* \"#utility.yul\":24066:24072   */\n      dup3\n        /* \"#utility.yul\":24062:24076   */\n      add\n        /* \"#utility.yul\":24055:24113   */\n      mstore\n        /* \"#utility.yul\":24147:24164   */\n      0x20726f6c657320666f722073656c660000000000000000000000000000000000\n        /* \"#utility.yul\":24142:24144   */\n      0x20\n        /* \"#utility.yul\":24134:24140   */\n      dup3\n        /* \"#utility.yul\":24130:24145   */\n      add\n        /* \"#utility.yul\":24123:24165   */\n      mstore\n        /* \"#utility.yul\":23938:24172   */\n      pop\n      jump\t// out\n        /* \"#utility.yul\":24178:24544   */\n    tag_425:\n        /* \"#utility.yul\":24320:24323   */\n      0x00\n        /* \"#utility.yul\":24341:24408   */\n      tag_707\n        /* \"#utility.yul\":24405:24407   */\n      0x2f\n        /* \"#utility.yul\":24400:24403   */\n      dup4\n        /* \"#utility.yul\":24341:24408   */\n      tag_395\n      jump\t// in\n    tag_707:\n        /* \"#utility.yul\":24334:24408   */\n      swap2\n      pop\n        /* \"#utility.yul\":24417:24510   */\n      tag_708\n        /* \"#utility.yul\":24506:24509   */\n      dup3\n        /* \"#utility.yul\":24417:24510   */\n      tag_424\n      jump\t// in\n    tag_708:\n        /* \"#utility.yul\":24535:24537   */\n      0x40\n        /* \"#utility.yul\":24530:24533   */\n      dup3\n        /* \"#utility.yul\":24526:24538   */\n      add\n        /* \"#utility.yul\":24519:24538   */\n      swap1\n      pop\n        /* \"#utility.yul\":24178:24544   */\n      swap2\n      swap1\n      pop\n      jump\t// out\n        /* \"#utility.yul\":24550:24969   */\n    tag_164:\n        /* \"#utility.yul\":24716:24720   */\n      0x00\n        /* \"#utility.yul\":24754:24756   */\n      0x20\n        /* \"#utility.yul\":24743:24752   */\n      dup3\n        /* \"#utility.yul\":24739:24757   */\n      add\n        /* \"#utility.yul\":24731:24757   */\n      swap1\n      pop\n        /* \"#utility.yul\":24803:24812   */\n      dup2\n        /* \"#utility.yul\":24797:24801   */\n      dup2\n        /* \"#utility.yul\":24793:24813   */\n      sub\n        /* \"#utility.yul\":24789:24790   */\n      0x00\n        /* \"#utility.yul\":24778:24787   */\n      dup4\n        /* \"#utility.yul\":24774:24791   */\n      add\n        /* \"#utility.yul\":24767:24814   */\n      mstore\n        /* \"#utility.yul\":24831:24962   */\n      tag_710\n        /* \"#utility.yul\":24957:24961   */\n      dup2\n        /* \"#utility.yul\":24831:24962   */\n      tag_425\n      jump\t// in\n    tag_710:\n        /* \"#utility.yul\":24823:24962   */\n      swap1\n      pop\n        /* \"#utility.yul\":24550:24969   */\n      swap2\n      swap1\n      pop\n      jump\t// out\n        /* \"#utility.yul\":24975:25134   */\n    tag_426:\n        /* \"#utility.yul\":25115:25126   */\n      0x4e6f742061646d696e0000000000000000000000000000000000000000000000\n        /* \"#utility.yul\":25111:25112   */\n      0x00\n        /* \"#utility.yul\":25103:25109   */\n      dup3\n        /* \"#utility.yul\":25099:25113   */\n      add\n        /* \"#utility.yul\":25092:25127   */\n      mstore\n        /* \"#utility.yul\":24975:25134   */\n      pop\n      jump\t// out\n        /* \"#utility.yul\":25140:25505   */\n    tag_427:\n        /* \"#utility.yul\":25282:25285   */\n      0x00\n        /* \"#utility.yul\":25303:25369   */\n      tag_713\n        /* \"#utility.yul\":25367:25368   */\n      0x09\n        /* \"#utility.yul\":25362:25365   */\n      dup4\n        /* \"#utility.yul\":25303:25369   */\n      tag_395\n      jump\t// in\n    tag_713:\n        /* \"#utility.yul\":25296:25369   */\n      swap2\n      pop\n        /* \"#utility.yul\":25378:25471   */\n      tag_714\n        /* \"#utility.yul\":25467:25470   */\n      dup3\n        /* \"#utility.yul\":25378:25471   */\n      tag_426\n      jump\t// in\n    tag_714:\n        /* \"#utility.yul\":25496:25498   */\n      0x20\n        /* \"#utility.yul\":25491:25494   */\n      dup3\n        /* \"#utility.yul\":25487:25499   */\n      add\n        /* \"#utility.yul\":25480:25499   */\n      swap1\n      pop\n        /* \"#utility.yul\":25140:25505   */\n      swap2\n      swap1\n      pop\n      jump\t// out\n        /* \"#utility.yul\":25511:25930   */\n    tag_171:\n        /* \"#utility.yul\":25677:25681   */\n      0x00\n        /* \"#utility.yul\":25715:25717   */\n      0x20\n        /* \"#utility.yul\":25704:25713   */\n      dup3\n        /* \"#utility.yul\":25700:25718   */\n      add\n        /* \"#utility.yul\":25692:25718   */\n      swap1\n      pop\n        /* \"#utility.yul\":25764:25773   */\n      dup2\n        /* \"#utility.yul\":25758:25762   */\n      dup2\n        /* \"#utility.yul\":25754:25774   */\n      sub\n        /* \"#utility.yul\":25750:25751   */\n      0x00\n        /* \"#utility.yul\":25739:25748   */\n      dup4\n        /* \"#utility.yul\":25735:25752   */\n      add\n        /* \"#utility.yul\":25728:25775   */\n      mstore\n        /* \"#utility.yul\":25792:25923   */\n      tag_716\n        /* \"#utility.yul\":25918:25922   */\n      dup2\n        /* \"#utility.yul\":25792:25923   */\n      tag_427\n      jump\t// in\n    tag_716:\n        /* \"#utility.yul\":25784:25923   */\n      swap1\n      pop\n        /* \"#utility.yul\":25511:25930   */\n      swap2\n      swap1\n      pop\n      jump\t// out\n        /* \"#utility.yul\":25936:26116   */\n    tag_198:\n        /* \"#utility.yul\":25984:26061   */\n      0x4e487b7100000000000000000000000000000000000000000000000000000000\n        /* \"#utility.yul\":25981:25982   */\n      0x00\n        /* \"#utility.yul\":25974:26062   */\n      mstore\n        /* \"#utility.yul\":26081:26085   */\n      0x32\n        /* \"#utility.yul\":26078:26079   */\n      0x04\n        /* \"#utility.yul\":26071:26086   */\n      mstore\n        /* \"#utility.yul\":26105:26109   */\n      0x24\n        /* \"#utility.yul\":26102:26103   */\n      0x00\n        /* \"#utility.yul\":26095:26110   */\n      revert\n        /* \"#utility.yul\":26122:26281   */\n    tag_428:\n        /* \"#utility.yul\":26262:26273   */\n      0x62616420696e6465780000000000000000000000000000000000000000000000\n        /* \"#utility.yul\":26258:26259   */\n      0x00\n        /* \"#utility.yul\":26250:26256   */\n      dup3\n        /* \"#utility.yul\":26246:26260   */\n      add\n        /* \"#utility.yul\":26239:26274   */\n      mstore\n        /* \"#utility.yul\":26122:26281   */\n      pop\n      jump\t// out\n        /* \"#utility.yul\":26287:26652   */\n    tag_429:\n        /* \"#utility.yul\":26429:26432   */\n      0x00\n        /* \"#utility.yul\":26450:26516   */\n      tag_720\n        /* \"#utility.yul\":26514:26515   */\n      0x09\n        /* \"#utility.yul\":26509:26512   */\n      dup4\n        /* \"#utility.yul\":26450:26516   */\n      tag_395\n      jump\t// in\n    tag_720:\n        /* \"#utility.yul\":26443:26516   */\n      swap2\n      pop\n        /* \"#utility.yul\":26525:26618   */\n      tag_721\n        /* \"#utility.yul\":26614:26617   */\n      dup3\n        /* \"#utility.yul\":26525:26618   */\n      tag_428\n      jump\t// in\n    tag_721:\n        /* \"#utility.yul\":26643:26645   */\n      0x20\n        /* \"#utility.yul\":26638:26641   */\n      dup3\n        /* \"#utility.yul\":26634:26646   */\n      add\n        /* \"#utility.yul\":26627:26646   */\n      swap1\n      pop\n        /* \"#utility.yul\":26287:26652   */\n      swap2\n      swap1\n      pop\n      jump\t// out\n        /* \"#utility.yul\":26658:27077   */\n    tag_212:\n        /* \"#utility.yul\":26824:26828   */\n      0x00\n        /* \"#utility.yul\":26862:26864   */\n      0x20\n        /* \"#utility.yul\":26851:26860   */\n      dup3\n        /* \"#utility.yul\":26847:26865   */\n      add\n        /* \"#utility.yul\":26839:26865   */\n      swap1\n      pop\n        /* \"#utility.yul\":26911:26920   */\n      dup2\n        /* \"#utility.yul\":26905:26909   */\n      dup2\n        /* \"#utility.yul\":26901:26921   */\n      sub\n        /* \"#utility.yul\":26897:26898   */\n      0x00\n        /* \"#utility.yul\":26886:26895   */\n      dup4\n        /* \"#utility.yul\":26882:26899   */\n      add\n        /* \"#utility.yul\":26875:26922   */\n      mstore\n        /* \"#utility.yul\":26939:27070   */\n      tag_723\n        /* \"#utility.yul\":27065:27069   */\n      dup2\n        /* \"#utility.yul\":26939:27070   */\n      tag_429\n      jump\t// in\n    tag_723:\n        /* \"#utility.yul\":26931:27070   */\n      swap1\n      pop\n        /* \"#utility.yul\":26658:27077   */\n      swap2\n      swap1\n      pop\n      jump\t// out\n        /* \"#utility.yul\":27083:27248   */\n    tag_430:\n        /* \"#utility.yul\":27223:27240   */\n      0x616c7265616479207265766f6b65640000000000000000000000000000000000\n        /* \"#utility.yul\":27219:27220   */\n      0x00\n        /* \"#utility.yul\":27211:27217   */\n      dup3\n        /* \"#utility.yul\":27207:27221   */\n      add\n        /* \"#utility.yul\":27200:27241   */\n      mstore\n        /* \"#utility.yul\":27083:27248   */\n      pop\n      jump\t// out\n        /* \"#utility.yul\":27254:27620   */\n    tag_431:\n        /* \"#utility.yul\":27396:27399   */\n      0x00\n        /* \"#utility.yul\":27417:27484   */\n      tag_726\n        /* \"#utility.yul\":27481:27483   */\n      0x0f\n        /* \"#utility.yul\":27476:27479   */\n      dup4\n        /* \"#utility.yul\":27417:27484   */\n      tag_395\n      jump\t// in\n    tag_726:\n        /* \"#utility.yul\":27410:27484   */\n      swap2\n      pop\n        /* \"#utility.yul\":27493:27586   */\n      tag_727\n        /* \"#utility.yul\":27582:27585   */\n      dup3\n        /* \"#utility.yul\":27493:27586   */\n      tag_430\n      jump\t// in\n    tag_727:\n        /* \"#utility.yul\":27611:27613   */\n      0x20\n        /* \"#utility.yul\":27606:27609   */\n      dup3\n        /* \"#utility.yul\":27602:27614   */\n      add\n        /* \"#utility.yul\":27595:27614   */\n      swap1\n      pop\n        /* \"#utility.yul\":27254:27620   */\n      swap2\n      swap1\n      pop\n      jump\t// out\n        /* \"#utility.yul\":27626:28045   */\n    tag_218:\n        /* \"#utility.yul\":27792:27796   */\n      0x00\n        /* \"#utility.yul\":27830:27832   */\n      0x20\n        /* \"#utility.yul\":27819:27828   */\n      dup3\n        /* \"#utility.yul\":27815:27833   */\n      add\n        /* \"#utility.yul\":27807:27833   */\n      swap1\n      pop\n        /* \"#utility.yul\":27879:27888   */\n      dup2\n        /* \"#utility.yul\":27873:27877   */\n      dup2\n        /* \"#utility.yul\":27869:27889   */\n      sub\n        /* \"#utility.yul\":27865:27866   */\n      0x00\n        /* \"#utility.yul\":27854:27863   */\n      dup4\n        /* \"#utility.yul\":27850:27867   */\n      add\n        /* \"#utility.yul\":27843:27890   */\n      mstore\n        /* \"#utility.yul\":27907:28038   */\n      tag_729\n        /* \"#utility.yul\":28033:28037   */\n      dup2\n        /* \"#utility.yul\":27907:28038   */\n      tag_431\n      jump\t// in\n    tag_729:\n        /* \"#utility.yul\":27899:28038   */\n      swap1\n      pop\n        /* \"#utility.yul\":27626:28045   */\n      swap2\n      swap1\n      pop\n      jump\t// out\n        /* \"#utility.yul\":28051:28217   */\n    tag_432:\n        /* \"#utility.yul\":28191:28209   */\n      0x6e6f7420617574686f722f61646d696e00000000000000000000000000000000\n        /* \"#utility.yul\":28187:28188   */\n      0x00\n        /* \"#utility.yul\":28179:28185   */\n      dup3\n        /* \"#utility.yul\":28175:28189   */\n      add\n        /* \"#utility.yul\":28168:28210   */\n      mstore\n        /* \"#utility.yul\":28051:28217   */\n      pop\n      jump\t// out\n        /* \"#utility.yul\":28223:28589   */\n    tag_433:\n        /* \"#utility.yul\":28365:28368   */\n      0x00\n        /* \"#utility.yul\":28386:28453   */\n      tag_732\n        /* \"#utility.yul\":28450:28452   */\n      0x10\n        /* \"#utility.yul\":28445:28448   */\n      dup4\n        /* \"#utility.yul\":28386:28453   */\n      tag_395\n      jump\t// in\n    tag_732:\n        /* \"#utility.yul\":28379:28453   */\n      swap2\n      pop\n        /* \"#utility.yul\":28462:28555   */\n      tag_733\n        /* \"#utility.yul\":28551:28554   */\n      dup3\n        /* \"#utility.yul\":28462:28555   */\n      tag_432\n      jump\t// in\n    tag_733:\n        /* \"#utility.yul\":28580:28582   */\n      0x20\n        /* \"#utility.yul\":28575:28578   */\n      dup3\n        /* \"#utility.yul\":28571:28583   */\n      add\n        /* \"#utility.yul\":28564:28583   */\n      swap1\n      pop\n        /* \"#utility.yul\":28223:28589   */\n      swap2\n      swap1\n      pop\n      jump\t// out\n        /* \"#utility.yul\":28595:29014   */\n    tag_223:\n        /* \"#utility.yul\":28761:28765   */\n      0x00\n        /* \"#utility.yul\":28799:28801   */\n      0x20\n        /* \"#utility.yul\":28788:28797   */\n      dup3\n        /* \"#utility.yul\":28784:28802   */\n      add\n        /* \"#utility.yul\":28776:28802   */\n      swap1\n      pop\n        /* \"#utility.yul\":28848:28857   */\n      dup2\n        /* \"#utility.yul\":28842:28846   */\n      dup2\n        /* \"#utility.yul\":28838:28858   */\n      sub\n        /* \"#utility.yul\":28834:28835   */\n      0x00\n        /* \"#utility.yul\":28823:28832   */\n      dup4\n        /* \"#utility.yul\":28819:28836   */\n      add\n        /* \"#utility.yul\":28812:28859   */\n      mstore\n        /* \"#utility.yul\":28876:29007   */\n      tag_735\n        /* \"#utility.yul\":29002:29006   */\n      dup2\n        /* \"#utility.yul\":28876:29007   */\n      tag_433\n      jump\t// in\n    tag_735:\n        /* \"#utility.yul\":28868:29007   */\n      swap1\n      pop\n        /* \"#utility.yul\":28595:29014   */\n      swap2\n      swap1\n      pop\n      jump\t// out\n        /* \"#utility.yul\":29020:29176   */\n    tag_434:\n        /* \"#utility.yul\":29160:29168   */\n      0x6e6f20646f630000000000000000000000000000000000000000000000000000\n        /* \"#utility.yul\":29156:29157   */\n      0x00\n        /* \"#utility.yul\":29148:29154   */\n      dup3\n        /* \"#utility.yul\":29144:29158   */\n      add\n        /* \"#utility.yul\":29137:29169   */\n      mstore\n        /* \"#utility.yul\":29020:29176   */\n      pop\n      jump\t// out\n        /* \"#utility.yul\":29182:29547   */\n    tag_435:\n        /* \"#utility.yul\":29324:29327   */\n      0x00\n        /* \"#utility.yul\":29345:29411   */\n      tag_738\n        /* \"#utility.yul\":29409:29410   */\n      0x06\n        /* \"#utility.yul\":29404:29407   */\n      dup4\n        /* \"#utility.yul\":29345:29411   */\n      tag_395\n      jump\t// in\n    tag_738:\n        /* \"#utility.yul\":29338:29411   */\n      swap2\n      pop\n        /* \"#utility.yul\":29420:29513   */\n      tag_739\n        /* \"#utility.yul\":29509:29512   */\n      dup3\n        /* \"#utility.yul\":29420:29513   */\n      tag_434\n      jump\t// in\n    tag_739:\n        /* \"#utility.yul\":29538:29540   */\n      0x20\n        /* \"#utility.yul\":29533:29536   */\n      dup3\n        /* \"#utility.yul\":29529:29541   */\n      add\n        /* \"#utility.yul\":29522:29541   */\n      swap1\n      pop\n        /* \"#utility.yul\":29182:29547   */\n      swap2\n      swap1\n      pop\n      jump\t// out\n        /* \"#utility.yul\":29553:29972   */\n    tag_244:\n        /* \"#utility.yul\":29719:29723   */\n      0x00\n        /* \"#utility.yul\":29757:29759   */\n      0x20\n        /* \"#utility.yul\":29746:29755   */\n      dup3\n        /* \"#utility.yul\":29742:29760   */\n      add\n        /* \"#utility.yul\":29734:29760   */\n      swap1\n      pop\n        /* \"#utility.yul\":29806:29815   */\n      dup2\n        /* \"#utility.yul\":29800:29804   */\n      dup2\n        /* \"#utility.yul\":29796:29816   */\n      sub\n        /* \"#utility.yul\":29792:29793   */\n      0x00\n        /* \"#utility.yul\":29781:29790   */\n      dup4\n        /* \"#utility.yul\":29777:29794   */\n      add\n        /* \"#utility.yul\":29770:29817   */\n      mstore\n        /* \"#utility.yul\":29834:29965   */\n      tag_741\n        /* \"#utility.yul\":29960:29964   */\n      dup2\n        /* \"#utility.yul\":29834:29965   */\n      tag_435\n      jump\t// in\n    tag_741:\n        /* \"#utility.yul\":29826:29965   */\n      swap1\n      pop\n        /* \"#utility.yul\":29553:29972   */\n      swap2\n      swap1\n      pop\n      jump\t// out\n        /* \"#utility.yul\":29978:30158   */\n    tag_436:\n        /* \"#utility.yul\":30026:30103   */\n      0x4e487b7100000000000000000000000000000000000000000000000000000000\n        /* \"#utility.yul\":30023:30024   */\n      0x00\n        /* \"#utility.yul\":30016:30104   */\n      mstore\n        /* \"#utility.yul\":30123:30127   */\n      0x11\n        /* \"#utility.yul\":30120:30121   */\n      0x04\n        /* \"#utility.yul\":30113:30128   */\n      mstore\n        /* \"#utility.yul\":30147:30151   */\n      0x24\n        /* \"#utility.yul\":30144:30145   */\n      0x00\n        /* \"#utility.yul\":30137:30152   */\n      revert\n        /* \"#utility.yul\":30164:30358   */\n    tag_271:\n        /* \"#utility.yul\":30204:30208   */\n      0x00\n        /* \"#utility.yul\":30224:30244   */\n      tag_744\n        /* \"#utility.yul\":30242:30243   */\n      dup3\n        /* \"#utility.yul\":30224:30244   */\n      tag_382\n      jump\t// in\n    tag_744:\n        /* \"#utility.yul\":30219:30244   */\n      swap2\n      pop\n        /* \"#utility.yul\":30258:30278   */\n      tag_745\n        /* \"#utility.yul\":30276:30277   */\n      dup4\n        /* \"#utility.yul\":30258:30278   */\n      tag_382\n      jump\t// in\n    tag_745:\n        /* \"#utility.yul\":30253:30278   */\n      swap3\n      pop\n        /* \"#utility.yul\":30302:30303   */\n      dup3\n        /* \"#utility.yul\":30299:30300   */\n      dup3\n        /* \"#utility.yul\":30295:30304   */\n      sub\n        /* \"#utility.yul\":30287:30304   */\n      swap1\n      pop\n        /* \"#utility.yul\":30326:30327   */\n      dup2\n        /* \"#utility.yul\":30320:30324   */\n      dup2\n        /* \"#utility.yul\":30317:30328   */\n      gt\n        /* \"#utility.yul\":30314:30351   */\n      iszero\n      tag_746\n      jumpi\n        /* \"#utility.yul\":30331:30349   */\n      tag_747\n      tag_436\n      jump\t// in\n    tag_747:\n        /* \"#utility.yul\":30314:30351   */\n    tag_746:\n        /* \"#utility.yul\":30164:30358   */\n      swap3\n      swap2\n      pop\n      pop\n      jump\t// out\n        /* \"#utility.yul\":30364:30807   */\n    tag_273:\n        /* \"#utility.yul\":30515:30519   */\n      0x00\n        /* \"#utility.yul\":30553:30555   */\n      0x40\n        /* \"#utility.yul\":30542:30551   */\n      dup3\n        /* \"#utility.yul\":30538:30556   */\n      add\n        /* \"#utility.yul\":30530:30556   */\n      swap1\n      pop\n        /* \"#utility.yul\":30566:30637   */\n      tag_749\n        /* \"#utility.yul\":30634:30635   */\n      0x00\n        /* \"#utility.yul\":30623:30632   */\n      dup4\n        /* \"#utility.yul\":30619:30636   */\n      add\n        /* \"#utility.yul\":30610:30616   */\n      dup7\n        /* \"#utility.yul\":30566:30637   */\n      tag_394\n      jump\t// in\n    tag_749:\n        /* \"#utility.yul\":30684:30693   */\n      dup2\n        /* \"#utility.yul\":30678:30682   */\n      dup2\n        /* \"#utility.yul\":30674:30694   */\n      sub\n        /* \"#utility.yul\":30669:30671   */\n      0x20\n        /* \"#utility.yul\":30658:30667   */\n      dup4\n        /* \"#utility.yul\":30654:30672   */\n      add\n        /* \"#utility.yul\":30647:30695   */\n      mstore\n        /* \"#utility.yul\":30712:30800   */\n      tag_750\n        /* \"#utility.yul\":30795:30799   */\n      dup2\n        /* \"#utility.yul\":30786:30792   */\n      dup5\n        /* \"#utility.yul\":30778:30784   */\n      dup7\n        /* \"#utility.yul\":30712:30800   */\n      tag_420\n      jump\t// in\n    tag_750:\n        /* \"#utility.yul\":30704:30800   */\n      swap1\n      pop\n        /* \"#utility.yul\":30364:30807   */\n      swap5\n      swap4\n      pop\n      pop\n      pop\n      pop\n      jump\t// out\n        /* \"#utility.yul\":30813:30979   */\n    tag_437:\n        /* \"#utility.yul\":30953:30971   */\n      0x5061757361626c653a2070617573656400000000000000000000000000000000\n        /* \"#utility.yul\":30949:30950   */\n      0x00\n        /* \"#utility.yul\":30941:30947   */\n      dup3\n        /* \"#utility.yul\":30937:30951   */\n      add\n        /* \"#utility.yul\":30930:30972   */\n      mstore\n        /* \"#utility.yul\":30813:30979   */\n      pop\n      jump\t// out\n        /* \"#utility.yul\":30985:31351   */\n    tag_438:\n        /* \"#utility.yul\":31127:31130   */\n      0x00\n        /* \"#utility.yul\":31148:31215   */\n      tag_753\n        /* \"#utility.yul\":31212:31214   */\n      0x10\n        /* \"#utility.yul\":31207:31210   */\n      dup4\n        /* \"#utility.yul\":31148:31215   */\n      tag_395\n      jump\t// in\n    tag_753:\n        /* \"#utility.yul\":31141:31215   */\n      swap2\n      pop\n        /* \"#utility.yul\":31224:31317   */\n      tag_754\n        /* \"#utility.yul\":31313:31316   */\n      dup3\n        /* \"#utility.yul\":31224:31317   */\n      tag_437\n      jump\t// in\n    tag_754:\n        /* \"#utility.yul\":31342:31344   */\n      0x20\n        /* \"#utility.yul\":31337:31340   */\n      dup3\n        /* \"#utility.yul\":31333:31345   */\n      add\n        /* \"#utility.yul\":31326:31345   */\n      swap1\n      pop\n        /* \"#utility.yul\":30985:31351   */\n      swap2\n      swap1\n      pop\n      jump\t// out\n        /* \"#utility.yul\":31357:31776   */\n    tag_279:\n        /* \"#utility.yul\":31523:31527   */\n      0x00\n        /* \"#utility.yul\":31561:31563   */\n      0x20\n        /* \"#utility.yul\":31550:31559   */\n      dup3\n        /* \"#utility.yul\":31546:31564   */\n      add\n        /* \"#utility.yul\":31538:31564   */\n      swap1\n      pop\n        /* \"#utility.yul\":31610:31619   */\n      dup2\n        /* \"#utility.yul\":31604:31608   */\n      dup2\n        /* \"#utility.yul\":31600:31620   */\n      sub\n        /* \"#utility.yul\":31596:31597   */\n      0x00\n        /* \"#utility.yul\":31585:31594   */\n      dup4\n        /* \"#utility.yul\":31581:31598   */\n      add\n        /* \"#utility.yul\":31574:31621   */\n      mstore\n        /* \"#utility.yul\":31638:31769   */\n      tag_756\n        /* \"#utility.yul\":31764:31768   */\n      dup2\n        /* \"#utility.yul\":31638:31769   */\n      tag_438\n      jump\t// in\n    tag_756:\n        /* \"#utility.yul\":31630:31769   */\n      swap1\n      pop\n        /* \"#utility.yul\":31357:31776   */\n      swap2\n      swap1\n      pop\n      jump\t// out\n        /* \"#utility.yul\":31782:31930   */\n    tag_439:\n        /* \"#utility.yul\":31884:31895   */\n      0x00\n        /* \"#utility.yul\":31921:31924   */\n      dup2\n        /* \"#utility.yul\":31906:31924   */\n      swap1\n      pop\n        /* \"#utility.yul\":31782:31930   */\n      swap3\n      swap2\n      pop\n      pop\n      jump\t// out\n        /* \"#utility.yul\":31936:32109   */\n    tag_440:\n        /* \"#utility.yul\":32076:32101   */\n      0x416363657373436f6e74726f6c3a206163636f756e7420000000000000000000\n        /* \"#utility.yul\":32072:32073   */\n      0x00\n        /* \"#utility.yul\":32064:32070   */\n      dup3\n        /* \"#utility.yul\":32060:32074   */\n      add\n        /* \"#utility.yul\":32053:32102   */\n      mstore\n        /* \"#utility.yul\":31936:32109   */\n      pop\n      jump\t// out\n        /* \"#utility.yul\":32115:32517   */\n    tag_441:\n        /* \"#utility.yul\":32275:32278   */\n      0x00\n        /* \"#utility.yul\":32296:32381   */\n      tag_760\n        /* \"#utility.yul\":32378:32380   */\n      0x17\n        /* \"#utility.yul\":32373:32376   */\n      dup4\n        /* \"#utility.yul\":32296:32381   */\n      tag_439\n      jump\t// in\n    tag_760:\n        /* \"#utility.yul\":32289:32381   */\n      swap2\n      pop\n        /* \"#utility.yul\":32390:32483   */\n      tag_761\n        /* \"#utility.yul\":32479:32482   */\n      dup3\n        /* \"#utility.yul\":32390:32483   */\n      tag_440\n      jump\t// in\n    tag_761:\n        /* \"#utility.yul\":32508:32510   */\n      0x17\n        /* \"#utility.yul\":32503:32506   */\n      dup3\n        /* \"#utility.yul\":32499:32511   */\n      add\n        /* \"#utility.yul\":32492:32511   */\n      swap1\n      pop\n        /* \"#utility.yul\":32115:32517   */\n      swap2\n      swap1\n      pop\n      jump\t// out\n        /* \"#utility.yul\":32523:32913   */\n    tag_442:\n        /* \"#utility.yul\":32629:32632   */\n      0x00\n        /* \"#utility.yul\":32657:32696   */\n      tag_763\n        /* \"#utility.yul\":32690:32695   */\n      dup3\n        /* \"#utility.yul\":32657:32696   */\n      tag_385\n      jump\t// in\n    tag_763:\n        /* \"#utility.yul\":32712:32801   */\n      tag_764\n        /* \"#utility.yul\":32794:32800   */\n      dup2\n        /* \"#utility.yul\":32789:32792   */\n      dup6\n        /* \"#utility.yul\":32712:32801   */\n      tag_439\n      jump\t// in\n    tag_764:\n        /* \"#utility.yul\":32705:32801   */\n      swap4\n      pop\n        /* \"#utility.yul\":32810:32875   */\n      tag_765\n        /* \"#utility.yul\":32868:32874   */\n      dup2\n        /* \"#utility.yul\":32863:32866   */\n      dup6\n        /* \"#utility.yul\":32856:32860   */\n      0x20\n        /* \"#utility.yul\":32849:32854   */\n      dup7\n        /* \"#utility.yul\":32845:32861   */\n      add\n        /* \"#utility.yul\":32810:32875   */\n      tag_387\n      jump\t// in\n    tag_765:\n        /* \"#utility.yul\":32900:32906   */\n      dup1\n        /* \"#utility.yul\":32895:32898   */\n      dup5\n        /* \"#utility.yul\":32891:32907   */\n      add\n        /* \"#utility.yul\":32884:32907   */\n      swap2\n      pop\n        /* \"#utility.yul\":32633:32913   */\n      pop\n        /* \"#utility.yul\":32523:32913   */\n      swap3\n      swap2\n      pop\n      pop\n      jump\t// out\n        /* \"#utility.yul\":32919:33086   */\n    tag_443:\n        /* \"#utility.yul\":33059:33078   */\n      0x206973206d697373696e6720726f6c6520000000000000000000000000000000\n        /* \"#utility.yul\":33055:33056   */\n      0x00\n        /* \"#utility.yul\":33047:33053   */\n      dup3\n        /* \"#utility.yul\":33043:33057   */\n      add\n        /* \"#utility.yul\":33036:33079   */\n      mstore\n        /* \"#utility.yul\":32919:33086   */\n      pop\n      jump\t// out\n        /* \"#utility.yul\":33092:33494   */\n    tag_444:\n        /* \"#utility.yul\":33252:33255   */\n      0x00\n        /* \"#utility.yul\":33273:33358   */\n      tag_768\n        /* \"#utility.yul\":33355:33357   */\n      0x11\n        /* \"#utility.yul\":33350:33353   */\n      dup4\n        /* \"#utility.yul\":33273:33358   */\n      tag_439\n      jump\t// in\n    tag_768:\n        /* \"#utility.yul\":33266:33358   */\n      swap2\n      pop\n        /* \"#utility.yul\":33367:33460   */\n      tag_769\n        /* \"#utility.yul\":33456:33459   */\n      dup3\n        /* \"#utility.yul\":33367:33460   */\n      tag_443\n      jump\t// in\n    tag_769:\n        /* \"#utility.yul\":33485:33487   */\n      0x11\n        /* \"#utility.yul\":33480:33483   */\n      dup3\n        /* \"#utility.yul\":33476:33488   */\n      add\n        /* \"#utility.yul\":33469:33488   */\n      swap1\n      pop\n        /* \"#utility.yul\":33092:33494   */\n      swap2\n      swap1\n      pop\n      jump\t// out\n        /* \"#utility.yul\":33500:34467   */\n    tag_312:\n        /* \"#utility.yul\":33882:33885   */\n      0x00\n        /* \"#utility.yul\":33904:34052   */\n      tag_771\n        /* \"#utility.yul\":34048:34051   */\n      dup3\n        /* \"#utility.yul\":33904:34052   */\n      tag_441\n      jump\t// in\n    tag_771:\n        /* \"#utility.yul\":33897:34052   */\n      swap2\n      pop\n        /* \"#utility.yul\":34069:34164   */\n      tag_772\n        /* \"#utility.yul\":34160:34163   */\n      dup3\n        /* \"#utility.yul\":34151:34157   */\n      dup6\n        /* \"#utility.yul\":34069:34164   */\n      tag_442\n      jump\t// in\n    tag_772:\n        /* \"#utility.yul\":34062:34164   */\n      swap2\n      pop\n        /* \"#utility.yul\":34181:34329   */\n      tag_773\n        /* \"#utility.yul\":34325:34328   */\n      dup3\n        /* \"#utility.yul\":34181:34329   */\n      tag_444\n      jump\t// in\n    tag_773:\n        /* \"#utility.yul\":34174:34329   */\n      swap2\n      pop\n        /* \"#utility.yul\":34346:34441   */\n      tag_774\n        /* \"#utility.yul\":34437:34440   */\n      dup3\n        /* \"#utility.yul\":34428:34434   */\n      dup5\n        /* \"#utility.yul\":34346:34441   */\n      tag_442\n      jump\t// in\n    tag_774:\n        /* \"#utility.yul\":34339:34441   */\n      swap2\n      pop\n        /* \"#utility.yul\":34458:34461   */\n      dup2\n        /* \"#utility.yul\":34451:34461   */\n      swap1\n      pop\n        /* \"#utility.yul\":33500:34467   */\n      swap4\n      swap3\n      pop\n      pop\n      pop\n      jump\t// out\n        /* \"#utility.yul\":34473:34850   */\n    tag_445:\n        /* \"#utility.yul\":34561:34564   */\n      0x00\n        /* \"#utility.yul\":34589:34628   */\n      tag_776\n        /* \"#utility.yul\":34622:34627   */\n      dup3\n        /* \"#utility.yul\":34589:34628   */\n      tag_385\n      jump\t// in\n    tag_776:\n        /* \"#utility.yul\":34644:34715   */\n      tag_777\n        /* \"#utility.yul\":34708:34714   */\n      dup2\n        /* \"#utility.yul\":34703:34706   */\n      dup6\n        /* \"#utility.yul\":34644:34715   */\n      tag_395\n      jump\t// in\n    tag_777:\n        /* \"#utility.yul\":34637:34715   */\n      swap4\n      pop\n        /* \"#utility.yul\":34724:34789   */\n      tag_778\n        /* \"#utility.yul\":34782:34788   */\n      dup2\n        /* \"#utility.yul\":34777:34780   */\n      dup6\n        /* \"#utility.yul\":34770:34774   */\n      0x20\n        /* \"#utility.yul\":34763:34768   */\n      dup7\n        /* \"#utility.yul\":34759:34775   */\n      add\n        /* \"#utility.yul\":34724:34789   */\n      tag_387\n      jump\t// in\n    tag_778:\n        /* \"#utility.yul\":34814:34843   */\n      tag_779\n        /* \"#utility.yul\":34836:34842   */\n      dup2\n        /* \"#utility.yul\":34814:34843   */\n      tag_388\n      jump\t// in\n    tag_779:\n        /* \"#utility.yul\":34809:34812   */\n      dup5\n        /* \"#utility.yul\":34805:34844   */\n      add\n        /* \"#utility.yul\":34798:34844   */\n      swap2\n      pop\n        /* \"#utility.yul\":34565:34850   */\n      pop\n        /* \"#utility.yul\":34473:34850   */\n      swap3\n      swap2\n      pop\n      pop\n      jump\t// out\n        /* \"#utility.yul\":34856:35169   */\n    tag_314:\n        /* \"#utility.yul\":34969:34973   */\n      0x00\n        /* \"#utility.yul\":35007:35009   */\n      0x20\n        /* \"#utility.yul\":34996:35005   */\n      dup3\n        /* \"#utility.yul\":34992:35010   */\n      add\n        /* \"#utility.yul\":34984:35010   */\n      swap1\n      pop\n        /* \"#utility.yul\":35056:35065   */\n      dup2\n        /* \"#utility.yul\":35050:35054   */\n      dup2\n        /* \"#utility.yul\":35046:35066   */\n      sub\n        /* \"#utility.yul\":35042:35043   */\n      0x00\n        /* \"#utility.yul\":35031:35040   */\n      dup4\n        /* \"#utility.yul\":35027:35044   */\n      add\n        /* \"#utility.yul\":35020:35067   */\n      mstore\n        /* \"#utility.yul\":35084:35162   */\n      tag_781\n        /* \"#utility.yul\":35157:35161   */\n      dup2\n        /* \"#utility.yul\":35148:35154   */\n      dup5\n        /* \"#utility.yul\":35084:35162   */\n      tag_445\n      jump\t// in\n    tag_781:\n        /* \"#utility.yul\":35076:35162   */\n      swap1\n      pop\n        /* \"#utility.yul\":34856:35169   */\n      swap3\n      swap2\n      pop\n      pop\n      jump\t// out\n        /* \"#utility.yul\":35175:35345   */\n    tag_446:\n        /* \"#utility.yul\":35315:35337   */\n      0x5061757361626c653a206e6f7420706175736564000000000000000000000000\n        /* \"#utility.yul\":35311:35312   */\n      0x00\n        /* \"#utility.yul\":35303:35309   */\n      dup3\n        /* \"#utility.yul\":35299:35313   */\n      add\n        /* \"#utility.yul\":35292:35338   */\n      mstore\n        /* \"#utility.yul\":35175:35345   */\n      pop\n      jump\t// out\n        /* \"#utility.yul\":35351:35717   */\n    tag_447:\n        /* \"#utility.yul\":35493:35496   */\n      0x00\n        /* \"#utility.yul\":35514:35581   */\n      tag_784\n        /* \"#utility.yul\":35578:35580   */\n      0x14\n        /* \"#utility.yul\":35573:35576   */\n      dup4\n        /* \"#utility.yul\":35514:35581   */\n      tag_395\n      jump\t// in\n    tag_784:\n        /* \"#utility.yul\":35507:35581   */\n      swap2\n      pop\n        /* \"#utility.yul\":35590:35683   */\n      tag_785\n        /* \"#utility.yul\":35679:35682   */\n      dup3\n        /* \"#utility.yul\":35590:35683   */\n      tag_446\n      jump\t// in\n    tag_785:\n        /* \"#utility.yul\":35708:35710   */\n      0x20\n        /* \"#utility.yul\":35703:35706   */\n      dup3\n        /* \"#utility.yul\":35699:35711   */\n      add\n        /* \"#utility.yul\":35692:35711   */\n      swap1\n      pop\n        /* \"#utility.yul\":35351:35717   */\n      swap2\n      swap1\n      pop\n      jump\t// out\n        /* \"#utility.yul\":35723:36142   */\n    tag_319:\n        /* \"#utility.yul\":35889:35893   */\n      0x00\n        /* \"#utility.yul\":35927:35929   */\n      0x20\n        /* \"#utility.yul\":35916:35925   */\n      dup3\n        /* \"#utility.yul\":35912:35930   */\n      add\n        /* \"#utility.yul\":35904:35930   */\n      swap1\n      pop\n        /* \"#utility.yul\":35976:35985   */\n      dup2\n        /* \"#utility.yul\":35970:35974   */\n      dup2\n        /* \"#utility.yul\":35966:35986   */\n      sub\n        /* \"#utility.yul\":35962:35963   */\n      0x00\n        /* \"#utility.yul\":35951:35960   */\n      dup4\n        /* \"#utility.yul\":35947:35964   */\n      add\n        /* \"#utility.yul\":35940:35987   */\n      mstore\n        /* \"#utility.yul\":36004:36135   */\n      tag_787\n        /* \"#utility.yul\":36130:36134   */\n      dup2\n        /* \"#utility.yul\":36004:36135   */\n      tag_447\n      jump\t// in\n    tag_787:\n        /* \"#utility.yul\":35996:36135   */\n      swap1\n      pop\n        /* \"#utility.yul\":35723:36142   */\n      swap2\n      swap1\n      pop\n      jump\t// out\n        /* \"#utility.yul\":36148:36558   */\n    tag_324:\n        /* \"#utility.yul\":36188:36195   */\n      0x00\n        /* \"#utility.yul\":36211:36231   */\n      tag_789\n        /* \"#utility.yul\":36229:36230   */\n      dup3\n        /* \"#utility.yul\":36211:36231   */\n      tag_382\n      jump\t// in\n    tag_789:\n        /* \"#utility.yul\":36206:36231   */\n      swap2\n      pop\n        /* \"#utility.yul\":36245:36265   */\n      tag_790\n        /* \"#utility.yul\":36263:36264   */\n      dup4\n        /* \"#utility.yul\":36245:36265   */\n      tag_382\n      jump\t// in\n    tag_790:\n        /* \"#utility.yul\":36240:36265   */\n      swap3\n      pop\n        /* \"#utility.yul\":36300:36301   */\n      dup3\n        /* \"#utility.yul\":36297:36298   */\n      dup3\n        /* \"#utility.yul\":36293:36302   */\n      mul\n        /* \"#utility.yul\":36322:36352   */\n      tag_791\n        /* \"#utility.yul\":36340:36351   */\n      dup2\n        /* \"#utility.yul\":36322:36352   */\n      tag_382\n      jump\t// in\n    tag_791:\n        /* \"#utility.yul\":36311:36352   */\n      swap2\n      pop\n        /* \"#utility.yul\":36501:36502   */\n      dup3\n        /* \"#utility.yul\":36492:36499   */\n      dup3\n        /* \"#utility.yul\":36488:36503   */\n      div\n        /* \"#utility.yul\":36485:36486   */\n      dup5\n        /* \"#utility.yul\":36482:36504   */\n      eq\n        /* \"#utility.yul\":36462:36463   */\n      dup4\n        /* \"#utility.yul\":36455:36464   */\n      iszero\n        /* \"#utility.yul\":36435:36518   */\n      or\n        /* \"#utility.yul\":36412:36551   */\n      tag_792\n      jumpi\n        /* \"#utility.yul\":36531:36549   */\n      tag_793\n      tag_436\n      jump\t// in\n    tag_793:\n        /* \"#utility.yul\":36412:36551   */\n    tag_792:\n        /* \"#utility.yul\":36196:36558   */\n      pop\n        /* \"#utility.yul\":36148:36558   */\n      swap3\n      swap2\n      pop\n      pop\n      jump\t// out\n        /* \"#utility.yul\":36564:36755   */\n    tag_326:\n        /* \"#utility.yul\":36604:36607   */\n      0x00\n        /* \"#utility.yul\":36623:36643   */\n      tag_795\n        /* \"#utility.yul\":36641:36642   */\n      dup3\n        /* \"#utility.yul\":36623:36643   */\n      tag_382\n      jump\t// in\n    tag_795:\n        /* \"#utility.yul\":36618:36643   */\n      swap2\n      pop\n        /* \"#utility.yul\":36657:36677   */\n      tag_796\n        /* \"#utility.yul\":36675:36676   */\n      dup4\n        /* \"#utility.yul\":36657:36677   */\n      tag_382\n      jump\t// in\n    tag_796:\n        /* \"#utility.yul\":36652:36677   */\n      swap3\n      pop\n        /* \"#utility.yul\":36700:36701   */\n      dup3\n        /* \"#utility.yul\":36697:36698   */\n      dup3\n        /* \"#utility.yul\":36693:36702   */\n      add\n        /* \"#utility.yul\":36686:36702   */\n      swap1\n      pop\n        /* \"#utility.yul\":36721:36724   */\n      dup1\n        /* \"#utility.yul\":36718:36719   */\n      dup3\n        /* \"#utility.yul\":36715:36725   */\n      gt\n        /* \"#utility.yul\":36712:36748   */\n      iszero\n      tag_797\n      jumpi\n        /* \"#utility.yul\":36728:36746   */\n      tag_798\n      tag_436\n      jump\t// in\n    tag_798:\n        /* \"#utility.yul\":36712:36748   */\n    tag_797:\n        /* \"#utility.yul\":36564:36755   */\n      swap3\n      swap2\n      pop\n      pop\n      jump\t// out\n        /* \"#utility.yul\":36761:36932   */\n    tag_345:\n        /* \"#utility.yul\":36800:36803   */\n      0x00\n        /* \"#utility.yul\":36823:36847   */\n      tag_800\n        /* \"#utility.yul\":36841:36846   */\n      dup3\n        /* \"#utility.yul\":36823:36847   */\n      tag_382\n      jump\t// in\n    tag_800:\n        /* \"#utility.yul\":36814:36847   */\n      swap2\n      pop\n        /* \"#utility.yul\":36869:36873   */\n      0x00\n        /* \"#utility.yul\":36862:36867   */\n      dup3\n        /* \"#utility.yul\":36859:36874   */\n      sub\n        /* \"#utility.yul\":36856:36897   */\n      tag_801\n      jumpi\n        /* \"#utility.yul\":36877:36895   */\n      tag_802\n      tag_436\n      jump\t// in\n    tag_802:\n        /* \"#utility.yul\":36856:36897   */\n    tag_801:\n        /* \"#utility.yul\":36924:36925   */\n      0x01\n        /* \"#utility.yul\":36917:36922   */\n      dup3\n        /* \"#utility.yul\":36913:36926   */\n      sub\n        /* \"#utility.yul\":36906:36926   */\n      swap1\n      pop\n        /* \"#utility.yul\":36761:36932   */\n      swap2\n      swap1\n      pop\n      jump\t// out\n        /* \"#utility.yul\":36938:37120   */\n    tag_448:\n        /* \"#utility.yul\":37078:37112   */\n      0x537472696e67733a20686578206c656e67746820696e73756666696369656e74\n        /* \"#utility.yul\":37074:37075   */\n      0x00\n        /* \"#utility.yul\":37066:37072   */\n      dup3\n        /* \"#utility.yul\":37062:37076   */\n      add\n        /* \"#utility.yul\":37055:37113   */\n      mstore\n        /* \"#utility.yul\":36938:37120   */\n      pop\n      jump\t// out\n        /* \"#utility.yul\":37126:37492   */\n    tag_449:\n        /* \"#utility.yul\":37268:37271   */\n      0x00\n        /* \"#utility.yul\":37289:37356   */\n      tag_805\n        /* \"#utility.yul\":37353:37355   */\n      0x20\n        /* \"#utility.yul\":37348:37351   */\n      dup4\n        /* \"#utility.yul\":37289:37356   */\n      tag_395\n      jump\t// in\n    tag_805:\n        /* \"#utility.yul\":37282:37356   */\n      swap2\n      pop\n        /* \"#utility.yul\":37365:37458   */\n      tag_806\n        /* \"#utility.yul\":37454:37457   */\n      dup3\n        /* \"#utility.yul\":37365:37458   */\n      tag_448\n      jump\t// in\n    tag_806:\n        /* \"#utility.yul\":37483:37485   */\n      0x20\n        /* \"#utility.yul\":37478:37481   */\n      dup3\n        /* \"#utility.yul\":37474:37486   */\n      add\n        /* \"#utility.yul\":37467:37486   */\n      swap1\n      pop\n        /* \"#utility.yul\":37126:37492   */\n      swap2\n      swap1\n      pop\n      jump\t// out\n        /* \"#utility.yul\":37498:37917   */\n    tag_348:\n        /* \"#utility.yul\":37664:37668   */\n      0x00\n        /* \"#utility.yul\":37702:37704   */\n      0x20\n        /* \"#utility.yul\":37691:37700   */\n      dup3\n        /* \"#utility.yul\":37687:37705   */\n      add\n        /* \"#utility.yul\":37679:37705   */\n      swap1\n      pop\n        /* \"#utility.yul\":37751:37760   */\n      dup2\n        /* \"#utility.yul\":37745:37749   */\n      dup2\n        /* \"#utility.yul\":37741:37761   */\n      sub\n        /* \"#utility.yul\":37737:37738   */\n      0x00\n        /* \"#utility.yul\":37726:37735   */\n      dup4\n        /* \"#utility.yul\":37722:37739   */\n      add\n        /* \"#utility.yul\":37715:37762   */\n      mstore\n        /* \"#utility.yul\":37779:37910   */\n      tag_808\n        /* \"#utility.yul\":37905:37909   */\n      dup2\n        /* \"#utility.yul\":37779:37910   */\n      tag_449\n      jump\t// in\n    tag_808:\n        /* \"#utility.yul\":37771:37910   */\n      swap1\n      pop\n        /* \"#utility.yul\":37498:37917   */\n      swap2\n      swap1\n      pop\n      jump\t// out\n\n    auxdata: 0xa26469706673582212200e0f74fafcf8fd439e9bc4519a9119eaa357379e5f27ef4e17f67e2b0cbfeee264736f6c634300081e0033\n}\n",
				"bytecode": {
					"linkReferences": {},
					"object": "60a060405234801561000f575f5ffd5b5060405161313138038061313183398181016040528101906100319190610275565b5f60015f6101000a81548160ff02191690831515021790555061005c5f5f1b836100c760201b60201c565b61008c7f97667070c54ef182b0f5858b034beac1b6f3089aa2d3188bb1e8929f4fa9b929836100c760201b60201c565b8073ffffffffffffffffffffffffffffffffffffffff1660808173ffffffffffffffffffffffffffffffffffffffff168152505050506102b3565b6100d782826101ad60201b60201c565b6101a95760015f5f8481526020019081526020015f205f015f8373ffffffffffffffffffffffffffffffffffffffff1673ffffffffffffffffffffffffffffffffffffffff1681526020019081526020015f205f6101000a81548160ff02191690831515021790555061014e61021060201b60201c565b73ffffffffffffffffffffffffffffffffffffffff168173ffffffffffffffffffffffffffffffffffffffff16837f2f8788117e7eff1d82e926ec794901d17c78024a50270940304540a733656f0d60405160405180910390a45b5050565b5f5f5f8481526020019081526020015f205f015f8373ffffffffffffffffffffffffffffffffffffffff1673ffffffffffffffffffffffffffffffffffffffff1681526020019081526020015f205f9054906101000a900460ff16905092915050565b5f33905090565b5f5ffd5b5f73ffffffffffffffffffffffffffffffffffffffff82169050919050565b5f6102448261021b565b9050919050565b6102548161023a565b811461025e575f5ffd5b50565b5f8151905061026f8161024b565b92915050565b5f5f6040838503121561028b5761028a610217565b5b5f61029885828601610261565b92505060206102a985828601610261565b9150509250929050565b608051612e4a6102e75f395f81816104cb015281816105d301528181610b550152818161115e01526112690152612e4a5ff3fe608060405234801561000f575f5ffd5b506004361061011f575f3560e01c80637b103999116100ab578063c39e4d221161006f578063c39e4d22146102f1578063c6ad6c6914610321578063d547741f1461033d578063f5b541a614610359578063f8605b2b146103775761011f565b80637b1039991461024b5780638456cb591461026957806391d1485414610273578063a217fddf146102a3578063af904a06146102c15761011f565b80632f2ff15d116100f25780632f2ff15d146101cf57806336568abe146101eb5780633f4ba83a14610207578063558a7297146102115780635c975abb1461022d5761011f565b806301ffc9a71461012357806303af914f146101535780630db6e43d14610183578063248a9ca31461019f575b5f5ffd5b61013d60048036038101906101389190611bff565b610393565b60405161014a9190611c44565b60405180910390f35b61016d60048036038101906101689190611c90565b61040c565b60405161017a9190611d2e565b60405180910390f35b61019d60048036038101906101989190611dcb565b610434565b005b6101b960048036038101906101b49190611c90565b61097a565b6040516101c69190611e7d565b60405180910390f35b6101e960048036038101906101e49190611ef0565b610996565b005b61020560048036038101906102009190611ef0565b6109b7565b005b61020f610a3a565b005b61022b60048036038101906102269190611f58565b610a8f565b005b610235610b3e565b6040516102429190611c44565b60405180910390f35b610253610b53565b6040516102609190611ff1565b60405180910390f35b610271610b77565b005b61028d60048036038101906102889190611ef0565b610bcc565b60405161029a9190611c44565b60405180910390f35b6102ab610c2f565b6040516102b89190611e7d565b60405180910390f35b6102db60048036038101906102d6919061203d565b610c35565b6040516102e89190612178565b60405180910390f35b61030b60048036038101906103069190611c90565b610d88565b60405161031891906121a7565b60405180910390f35b61033b6004803603810190610336919061203d565b610da5565b005b61035760048036038101906103529190611ef0565b610f9a565b005b610361610fbb565b60405161036e9190611e7d565b60405180910390f35b610391600480360381019061038c91906121c0565b610fdf565b005b5f7f7965db0b000000000000000000000000000000000000000000000000000000007bffffffffffffffffffffffffffffffffffffffffffffffffffffffff1916827bffffffffffffffffffffffffffffffffffffffffffffffffffffffff191614806104055750610404826114f2565b5b9050919050565b5f60025f8381526020019081526020015f205f015f9054906101000a900460ff169050919050565b61043c61155b565b60025f8781526020019081526020015f206002015f9054906101000a900460ff161561049d576040517f08c379a000000000000000000000000000000000000000000000000000000000815260040161049490612277565b60405180910390fd5b600260048111156104b1576104b0611cbb565b5b8560048111156104c4576104c3611cbb565b5b036105a5577f000000000000000000000000000000000000000000000000000000000000000073ffffffffffffffffffffffffffffffffffffffff1663ed896d66336040518263ffffffff1660e01b815260040161052291906122a4565b602060405180830381865afa15801561053d573d5f5f3e3d5ffd5b505050506040513d601f19601f8201168201806040525081019061056191906122d1565b6105a0576040517f08c379a000000000000000000000000000000000000000000000000000000000815260040161059790612346565b60405180910390fd5b6106aa565b600160048111156105b9576105b8611cbb565b5b8560048111156105cc576105cb611cbb565b5b036106a9577f000000000000000000000000000000000000000000000000000000000000000073ffffffffffffffffffffffffffffffffffffffff16635939a84e336040518263ffffffff1660e01b815260040161062a91906122a4565b602060405180830381865afa158015610645573d5f5f3e3d5ffd5b505050506040513d601f19601f8201168201806040525081019061066991906122d1565b6106a8576040517f08c379a000000000000000000000000000000000000000000000000000000000815260040161069f906123ae565b60405180910390fd5b5b5b60405180606001604052808660048111156106c8576106c7611cbb565b5b815260200185858080601f0160208091040260200160405190810160405280939291908181526020018383808284375f81840152601f19601f8201169050808301925050505050505081526020016001151581525060025f8881526020019081526020015f205f820151815f015f6101000a81548160ff0219169083600481111561075657610755611cbb565b5b0217905550602082015181600101908161077091906125ed565b506040820151816002015f6101000a81548160ff02191690831515021790555090505060035f8781526020019081526020015f20604051806080016040528084848080601f0160208091040260200160405190810160405280939291908181526020018383808284375f81840152601f19601f8201169050808301925050505050505081526020014281526020015f151581526020013373ffffffffffffffffffffffffffffffffffffffff16815250908060018154018082558091505060019003905f5260205f2090600302015f909190919091505f820151815f01908161085991906125ed565b50602082015181600101556040820151816002015f6101000a81548160ff02191690831515021790555060608201518160020160016101000a81548173ffffffffffffffffffffffffffffffffffffffff021916908373ffffffffffffffffffffffffffffffffffffffff16021790555050503373ffffffffffffffffffffffffffffffffffffffff16867fea4e0cd675f42c3f1fd2c55462cec5b5222aeb79e2dc3c176e71a64286cef89b878787604051610917939291906126f6565b60405180910390a33373ffffffffffffffffffffffffffffffffffffffff16867f7501c85d0a5528fcb8b24e8b76029197b6ad4d5d05561490f81d3b9e4f3b01d35f858560405161096a9392919061275f565b60405180910390a3505050505050565b5f5f5f8381526020019081526020015f20600101549050919050565b61099f8261097a565b6109a8816115a5565b6109b283836115b9565b505050565b6109bf611693565b73ffffffffffffffffffffffffffffffffffffffff168173ffffffffffffffffffffffffffffffffffffffff1614610a2c576040517f08c379a0000000000000000000000000000000000000000000000000000000008152600401610a23906127ff565b60405180910390fd5b610a36828261169a565b5050565b610a465f5f1b33610bcc565b610a85576040517f08c379a0000000000000000000000000000000000000000000000000000000008152600401610a7c90612867565b60405180910390fd5b610a8d611774565b565b610a9b5f5f1b33610bcc565b610ada576040517f08c379a0000000000000000000000000000000000000000000000000000000008152600401610ad190612867565b60405180910390fd5b8015610b0f57610b0a7f97667070c54ef182b0f5858b034beac1b6f3089aa2d3188bb1e8929f4fa9b929836115b9565b610b3a565b610b397f97667070c54ef182b0f5858b034beac1b6f3089aa2d3188bb1e8929f4fa9b9298361169a565b5b5050565b5f60015f9054906101000a900460ff16905090565b7f000000000000000000000000000000000000000000000000000000000000000081565b610b835f5f1b33610bcc565b610bc2576040517f08c379a0000000000000000000000000000000000000000000000000000000008152600401610bb990612867565b60405180910390fd5b610bca6117d5565b565b5f5f5f8481526020019081526020015f205f015f8373ffffffffffffffffffffffffffffffffffffffff1673ffffffffffffffffffffffffffffffffffffffff1681526020019081526020015f205f9054906101000a900460ff16905092915050565b5f5f1b81565b610c3d611b65565b60035f8481526020019081526020015f208281548110610c6057610c5f612885565b5b905f5260205f2090600302016040518060800160405290815f82018054610c8690612426565b80601f0160208091040260200160405190810160405280929190818152602001828054610cb290612426565b8015610cfd5780601f10610cd457610100808354040283529160200191610cfd565b820191905f5260205f20905b815481529060010190602001808311610ce057829003601f168201915b5050505050815260200160018201548152602001600282015f9054906101000a900460ff161515151581526020016002820160019054906101000a900473ffffffffffffffffffffffffffffffffffffffff1673ffffffffffffffffffffffffffffffffffffffff1673ffffffffffffffffffffffffffffffffffffffff1681525050905092915050565b5f60035f8381526020019081526020015f20805490509050919050565b610dad61155b565b60035f8381526020019081526020015f20805490508110610e03576040517f08c379a0000000000000000000000000000000000000000000000000000000008152600401610dfa906128fc565b60405180910390fd5b5f60035f8481526020019081526020015f208281548110610e2757610e26612885565b5b905f5260205f2090600302019050806002015f9054906101000a900460ff1615610e86576040517f08c379a0000000000000000000000000000000000000000000000000000000008152600401610e7d90612964565b60405180910390fd5b3373ffffffffffffffffffffffffffffffffffffffff168160020160019054906101000a900473ffffffffffffffffffffffffffffffffffffffff1673ffffffffffffffffffffffffffffffffffffffff161480610eec5750610eeb5f5f1b33610bcc565b5b610f2b576040517f08c379a0000000000000000000000000000000000000000000000000000000008152600401610f22906129cc565b60405180910390fd5b6001816002015f6101000a81548160ff0219169083151502179055503373ffffffffffffffffffffffffffffffffffffffff16837e37d67bb547a4bafbf5d40641eca855e25ab648c5f67f850072e7793bf0455284604051610f8d91906121a7565b60405180910390a3505050565b610fa38261097a565b610fac816115a5565b610fb6838361169a565b505050565b7f97667070c54ef182b0f5858b034beac1b6f3089aa2d3188bb1e8929f4fa9b92981565b610fe761155b565b5f60025f8581526020019081526020015f206040518060600160405290815f82015f9054906101000a900460ff16600481111561102757611026611cbb565b5b600481111561103957611038611cbb565b5b815260200160018201805461104d90612426565b80601f016020809104026020016040519081016040528092919081815260200182805461107990612426565b80156110c45780601f1061109b576101008083540402835291602001916110c4565b820191905f5260205f20905b8154815290600101906020018083116110a757829003601f168201915b50505050508152602001600282015f9054906101000a900460ff1615151515815250509050806040015161112d576040517f08c379a000000000000000000000000000000000000000000000000000000000815260040161112490612a34565b60405180910390fd5b6002600481111561114157611140611cbb565b5b815f0151600481111561115757611156611cbb565b5b03611238577f000000000000000000000000000000000000000000000000000000000000000073ffffffffffffffffffffffffffffffffffffffff1663ed896d66336040518263ffffffff1660e01b81526004016111b591906122a4565b602060405180830381865afa1580156111d0573d5f5f3e3d5ffd5b505050506040513d601f19601f820116820180604052508101906111f491906122d1565b611233576040517f08c379a000000000000000000000000000000000000000000000000000000000815260040161122a90612346565b60405180910390fd5b611340565b6001600481111561124c5761124b611cbb565b5b815f0151600481111561126257611261611cbb565b5b0361133f577f000000000000000000000000000000000000000000000000000000000000000073ffffffffffffffffffffffffffffffffffffffff16635939a84e336040518263ffffffff1660e01b81526004016112c091906122a4565b602060405180830381865afa1580156112db573d5f5f3e3d5ffd5b505050506040513d601f19601f820116820180604052508101906112ff91906122d1565b61133e576040517f08c379a0000000000000000000000000000000000000000000000000000000008152600401611335906123ae565b60405180910390fd5b5b5b60035f8581526020019081526020015f20604051806080016040528085858080601f0160208091040260200160405190810160405280939291908181526020018383808284375f81840152601f19601f8201169050808301925050505050505081526020014281526020015f151581526020013373ffffffffffffffffffffffffffffffffffffffff16815250908060018154018082558091505060019003905f5260205f2090600302015f909190919091505f820151815f01908161140691906125ed565b50602082015181600101556040820151816002015f6101000a81548160ff02191690831515021790555060608201518160020160016101000a81548173ffffffffffffffffffffffffffffffffffffffff021916908373ffffffffffffffffffffffffffffffffffffffff16021790555050503373ffffffffffffffffffffffffffffffffffffffff16847f7501c85d0a5528fcb8b24e8b76029197b6ad4d5d05561490f81d3b9e4f3b01d3600160035f8981526020019081526020015f20805490506114d39190612a7f565b86866040516114e493929190612ab2565b60405180910390a350505050565b5f7f01ffc9a7000000000000000000000000000000000000000000000000000000007bffffffffffffffffffffffffffffffffffffffffffffffffffffffff1916827bffffffffffffffffffffffffffffffffffffffffffffffffffffffff1916149050919050565b611563610b3e565b156115a3576040517f08c379a000000000000000000000000000000000000000000000000000000000815260040161159a90612b2c565b60405180910390fd5b565b6115b6816115b1611693565b611836565b50565b6115c38282610bcc565b61168f5760015f5f8481526020019081526020015f205f015f8373ffffffffffffffffffffffffffffffffffffffff1673ffffffffffffffffffffffffffffffffffffffff1681526020019081526020015f205f6101000a81548160ff021916908315150217905550611634611693565b73ffffffffffffffffffffffffffffffffffffffff168173ffffffffffffffffffffffffffffffffffffffff16837f2f8788117e7eff1d82e926ec794901d17c78024a50270940304540a733656f0d60405160405180910390a45b5050565b5f33905090565b6116a48282610bcc565b15611770575f5f5f8481526020019081526020015f205f015f8373ffffffffffffffffffffffffffffffffffffffff1673ffffffffffffffffffffffffffffffffffffffff1681526020019081526020015f205f6101000a81548160ff021916908315150217905550611715611693565b73ffffffffffffffffffffffffffffffffffffffff168173ffffffffffffffffffffffffffffffffffffffff16837ff6391f5c32d9c69d2a47ea670b442974b53935d1edc7fd64eb21e047a839171b60405160405180910390a45b5050565b61177c6118ba565b5f60015f6101000a81548160ff0219169083151502179055507f5db9ee0a495bf2e6ff9c91a7834c1ba4fdd244a5e8aa4e537bd38aeae4b073aa6117be611693565b6040516117cb91906122a4565b60405180910390a1565b6117dd61155b565b6001805f6101000a81548160ff0219169083151502179055507f62e78cea01bee320cd4e420270b5ea74000d11b0c9f74754ebdbfc544b05a25861181f611693565b60405161182c91906122a4565b60405180910390a1565b6118408282610bcc565b6118b65761184d81611903565b61185a835f1c6020611930565b60405160200161186b929190612c18565b6040516020818303038152906040526040517f08c379a00000000000000000000000000000000000000000000000000000000081526004016118ad9190612c89565b60405180910390fd5b5050565b6118c2610b3e565b611901576040517f08c379a00000000000000000000000000000000000000000000000000000000081526004016118f890612cf3565b60405180910390fd5b565b60606119298273ffffffffffffffffffffffffffffffffffffffff16601460ff16611930565b9050919050565b60605f60028360026119429190612d11565b61194c9190612d52565b67ffffffffffffffff811115611965576119646123cc565b5b6040519080825280601f01601f1916602001820160405280156119975781602001600182028036833780820191505090505b5090507f3000000000000000000000000000000000000000000000000000000000000000815f815181106119ce576119cd612885565b5b60200101907effffffffffffffffffffffffffffffffffffffffffffffffffffffffffffff191690815f1a9053507f780000000000000000000000000000000000000000000000000000000000000081600181518110611a3157611a30612885565b5b60200101907effffffffffffffffffffffffffffffffffffffffffffffffffffffffffffff191690815f1a9053505f6001846002611a6f9190612d11565b611a799190612d52565b90505b6001811115611b18577f3031323334353637383961626364656600000000000000000000000000000000600f861660108110611abb57611aba612885565b5b1a60f81b828281518110611ad257611ad1612885565b5b60200101907effffffffffffffffffffffffffffffffffffffffffffffffffffffffffffff191690815f1a905350600485901c945080611b1190612d85565b9050611a7c565b505f8414611b5b576040517f08c379a0000000000000000000000000000000000000000000000000000000008152600401611b5290612df6565b60405180910390fd5b8091505092915050565b6040518060800160405280606081526020015f81526020015f151581526020015f73ffffffffffffffffffffffffffffffffffffffff1681525090565b5f5ffd5b5f5ffd5b5f7fffffffff0000000000000000000000000000000000000000000000000000000082169050919050565b611bde81611baa565b8114611be8575f5ffd5b50565b5f81359050611bf981611bd5565b92915050565b5f60208284031215611c1457611c13611ba2565b5b5f611c2184828501611beb565b91505092915050565b5f8115159050919050565b611c3e81611c2a565b82525050565b5f602082019050611c575f830184611c35565b92915050565b5f819050919050565b611c6f81611c5d565b8114611c79575f5ffd5b50565b5f81359050611c8a81611c66565b92915050565b5f60208284031215611ca557611ca4611ba2565b5b5f611cb284828501611c7c565b91505092915050565b7f4e487b71000000000000000000000000000000000000000000000000000000005f52602160045260245ffd5b60058110611cf957611cf8611cbb565b5b50565b5f819050611d0982611ce8565b919050565b5f611d1882611cfc565b9050919050565b611d2881611d0e565b82525050565b5f602082019050611d415f830184611d1f565b92915050565b60058110611d53575f5ffd5b50565b5f81359050611d6481611d47565b92915050565b5f5ffd5b5f5ffd5b5f5ffd5b5f5f83601f840112611d8b57611d8a611d6a565b5b8235905067ffffffffffffffff811115611da857611da7611d6e565b5b602083019150836001820283011115611dc457611dc3611d72565b5b9250929050565b5f5f5f5f5f5f60808789031215611de557611de4611ba2565b5b5f611df289828a01611c7c565b9650506020611e0389828a01611d56565b955050604087013567ffffffffffffffff811115611e2457611e23611ba6565b5b611e3089828a01611d76565b9450945050606087013567ffffffffffffffff811115611e5357611e52611ba6565b5b611e5f89828a01611d76565b92509250509295509295509295565b611e7781611c5d565b82525050565b5f602082019050611e905f830184611e6e565b92915050565b5f73ffffffffffffffffffffffffffffffffffffffff82169050919050565b5f611ebf82611e96565b9050919050565b611ecf81611eb5565b8114611ed9575f5ffd5b50565b5f81359050611eea81611ec6565b92915050565b5f5f60408385031215611f0657611f05611ba2565b5b5f611f1385828601611c7c565b9250506020611f2485828601611edc565b9150509250929050565b611f3781611c2a565b8114611f41575f5ffd5b50565b5f81359050611f5281611f2e565b92915050565b5f5f60408385031215611f6e57611f6d611ba2565b5b5f611f7b85828601611edc565b9250506020611f8c85828601611f44565b9150509250929050565b5f819050919050565b5f611fb9611fb4611faf84611e96565b611f96565b611e96565b9050919050565b5f611fca82611f9f565b9050919050565b5f611fdb82611fc0565b9050919050565b611feb81611fd1565b82525050565b5f6020820190506120045f830184611fe2565b92915050565b5f819050919050565b61201c8161200a565b8114612026575f5ffd5b50565b5f8135905061203781612013565b92915050565b5f5f6040838503121561205357612052611ba2565b5b5f61206085828601611c7c565b925050602061207185828601612029565b9150509250929050565b5f81519050919050565b5f82825260208201905092915050565b8281835e5f83830152505050565b5f601f19601f8301169050919050565b5f6120bd8261207b565b6120c78185612085565b93506120d7818560208601612095565b6120e0816120a3565b840191505092915050565b6120f48161200a565b82525050565b61210381611c2a565b82525050565b61211281611eb5565b82525050565b5f608083015f8301518482035f86015261213282826120b3565b915050602083015161214760208601826120eb565b50604083015161215a60408601826120fa565b50606083015161216d6060860182612109565b508091505092915050565b5f6020820190508181035f8301526121908184612118565b905092915050565b6121a18161200a565b82525050565b5f6020820190506121ba5f830184612198565b92915050565b5f5f5f604084860312156121d7576121d6611ba2565b5b5f6121e486828701611c7c565b935050602084013567ffffffffffffffff81111561220557612204611ba6565b5b61221186828701611d76565b92509250509250925092565b5f82825260208201905092915050565b7f646f6320657869737473000000000000000000000000000000000000000000005f82015250565b5f612261600a8361221d565b915061226c8261222d565b602082019050919050565b5f6020820190508181035f83015261228e81612255565b9050919050565b61229e81611eb5565b82525050565b5f6020820190506122b75f830184612295565b92915050565b5f815190506122cb81611f2e565b92915050565b5f602082840312156122e6576122e5611ba2565b5b5f6122f3848285016122bd565b91505092915050565b7f6a75646765206f6e6c79000000000000000000000000000000000000000000005f82015250565b5f612330600a8361221d565b915061233b826122fc565b602082019050919050565b5f6020820190508181035f83015261235d81612324565b9050919050565b7f6c6177796572206f6e6c790000000000000000000000000000000000000000005f82015250565b5f612398600b8361221d565b91506123a382612364565b602082019050919050565b5f6020820190508181035f8301526123c58161238c565b9050919050565b7f4e487b71000000000000000000000000000000000000000000000000000000005f52604160045260245ffd5b7f4e487b71000000000000000000000000000000000000000000000000000000005f52602260045260245ffd5b5f600282049050600182168061243d57607f821691505b6020821081036124505761244f6123f9565b5b50919050565b5f819050815f5260205f209050919050565b5f6020601f8301049050919050565b5f82821b905092915050565b5f600883026124b27fffffffffffffffffffffffffffffffffffffffffffffffffffffffffffffffff82612477565b6124bc8683612477565b95508019841693508086168417925050509392505050565b5f6124ee6124e96124e48461200a565b611f96565b61200a565b9050919050565b5f819050919050565b612507836124d4565b61251b612513826124f5565b848454612483565b825550505050565b5f5f905090565b612532612523565b61253d8184846124fe565b505050565b5b81811015612560576125555f8261252a565b600181019050612543565b5050565b601f8211156125a55761257681612456565b61257f84612468565b8101602085101561258e578190505b6125a261259a85612468565b830182612542565b50505b505050565b5f82821c905092915050565b5f6125c55f19846008026125aa565b1980831691505092915050565b5f6125dd83836125b6565b9150826002028217905092915050565b6125f68261207b565b67ffffffffffffffff81111561260f5761260e6123cc565b5b6126198254612426565b612624828285612564565b5f60209050601f831160018114612655575f8415612643578287015190505b61264d85826125d2565b8655506126b4565b601f19841661266386612456565b5f5b8281101561268a57848901518255600182019150602085019450602081019050612665565b868310156126a757848901516126a3601f8916826125b6565b8355505b6001600288020188555050505b505050505050565b828183375f83830152505050565b5f6126d5838561221d565b93506126e28385846126bc565b6126eb836120a3565b840190509392505050565b5f6040820190506127095f830186611d1f565b818103602083015261271c8184866126ca565b9050949350505050565b5f819050919050565b5f61274961274461273f84612726565b611f96565b61200a565b9050919050565b6127598161272f565b82525050565b5f6040820190506127725f830186612750565b81810360208301526127858184866126ca565b9050949350505050565b7f416363657373436f6e74726f6c3a2063616e206f6e6c792072656e6f756e63655f8201527f20726f6c657320666f722073656c660000000000000000000000000000000000602082015250565b5f6127e9602f8361221d565b91506127f48261278f565b604082019050919050565b5f6020820190508181035f830152612816816127dd565b9050919050565b7f4e6f742061646d696e00000000000000000000000000000000000000000000005f82015250565b5f61285160098361221d565b915061285c8261281d565b602082019050919050565b5f6020820190508181035f83015261287e81612845565b9050919050565b7f4e487b71000000000000000000000000000000000000000000000000000000005f52603260045260245ffd5b7f62616420696e64657800000000000000000000000000000000000000000000005f82015250565b5f6128e660098361221d565b91506128f1826128b2565b602082019050919050565b5f6020820190508181035f830152612913816128da565b9050919050565b7f616c7265616479207265766f6b656400000000000000000000000000000000005f82015250565b5f61294e600f8361221d565b91506129598261291a565b602082019050919050565b5f6020820190508181035f83015261297b81612942565b9050919050565b7f6e6f7420617574686f722f61646d696e000000000000000000000000000000005f82015250565b5f6129b660108361221d565b91506129c182612982565b602082019050919050565b5f6020820190508181035f8301526129e3816129aa565b9050919050565b7f6e6f20646f6300000000000000000000000000000000000000000000000000005f82015250565b5f612a1e60068361221d565b9150612a29826129ea565b602082019050919050565b5f6020820190508181035f830152612a4b81612a12565b9050919050565b7f4e487b71000000000000000000000000000000000000000000000000000000005f52601160045260245ffd5b5f612a898261200a565b9150612a948361200a565b9250828203905081811115612aac57612aab612a52565b5b92915050565b5f604082019050612ac55f830186612198565b8181036020830152612ad88184866126ca565b9050949350505050565b7f5061757361626c653a20706175736564000000000000000000000000000000005f82015250565b5f612b1660108361221d565b9150612b2182612ae2565b602082019050919050565b5f6020820190508181035f830152612b4381612b0a565b9050919050565b5f81905092915050565b7f416363657373436f6e74726f6c3a206163636f756e74200000000000000000005f82015250565b5f612b88601783612b4a565b9150612b9382612b54565b601782019050919050565b5f612ba88261207b565b612bb28185612b4a565b9350612bc2818560208601612095565b80840191505092915050565b7f206973206d697373696e6720726f6c65200000000000000000000000000000005f82015250565b5f612c02601183612b4a565b9150612c0d82612bce565b601182019050919050565b5f612c2282612b7c565b9150612c2e8285612b9e565b9150612c3982612bf6565b9150612c458284612b9e565b91508190509392505050565b5f612c5b8261207b565b612c65818561221d565b9350612c75818560208601612095565b612c7e816120a3565b840191505092915050565b5f6020820190508181035f830152612ca18184612c51565b905092915050565b7f5061757361626c653a206e6f74207061757365640000000000000000000000005f82015250565b5f612cdd60148361221d565b9150612ce882612ca9565b602082019050919050565b5f6020820190508181035f830152612d0a81612cd1565b9050919050565b5f612d1b8261200a565b9150612d268361200a565b9250828202612d348161200a565b91508282048414831517612d4b57612d4a612a52565b5b5092915050565b5f612d5c8261200a565b9150612d678361200a565b9250828201905080821115612d7f57612d7e612a52565b5b92915050565b5f612d8f8261200a565b91505f8203612da157612da0612a52565b5b600182039050919050565b7f537472696e67733a20686578206c656e67746820696e73756666696369656e745f82015250565b5f612de060208361221d565b9150612deb82612dac565b602082019050919050565b5f6020820190508181035f830152612e0d81612dd4565b905091905056fea26469706673582212200e0f74fafcf8fd439e9bc4519a9119eaa357379e5f27ef4e17f67e2b0cbfeee264736f6c634300081e0033",
					"opcodes": "PUSH1 0xA0 PUSH1 0x40 MSTORE CALLVALUE DUP1 ISZERO PUSH2 0xF JUMPI PUSH0 PUSH0 REVERT JUMPDEST POP PUSH1 0x40 MLOAD PUSH2 0x3131 CODESIZE SUB DUP1 PUSH2 0x3131 DUP4 CODECOPY DUP2 DUP2 ADD PUSH1 0x40 MSTORE DUP2 ADD SWAP1 PUSH2 0x31 SWAP2 SWAP1 PUSH2 0x275 JUMP JUMPDEST PUSH0 PUSH1 0x1 PUSH0 PUSH2 0x100 EXP DUP2 SLOAD DUP2 PUSH1 0xFF MUL NOT AND SWAP1 DUP4 ISZERO ISZERO MUL OR SWAP1 SSTORE POP PUSH2 0x5C PUSH0 PUSH0 SHL DUP4 PUSH2 0xC7 PUSH1 0x20 SHL PUSH1 0x20 SHR JUMP JUMPDEST PUSH2 0x8C PUSH32 0x97667070C54EF182B0F5858B034BEAC1B6F3089AA2D3188BB1E8929F4FA9B929 DUP4 PUSH2 0xC7 PUSH1 0x20 SHL PUSH1 0x20 SHR JUMP JUMPDEST DUP1 PUSH20 0xFFFFFFFFFFFFFFFFFFFFFFFFFFFFFFFFFFFFFFFF AND PUSH1 0x80 DUP2 PUSH20 0xFFFFFFFFFFFFFFFFFFFFFFFFFFFFFFFFFFFFFFFF AND DUP2 MSTORE POP POP POP POP PUSH2 0x2B3 JUMP JUMPDEST PUSH2 0xD7 DUP3 DUP3 PUSH2 0x1AD PUSH1 0x20 SHL PUSH1 0x20 SHR JUMP JUMPDEST PUSH2 0x1A9 JUMPI PUSH1 0x1 PUSH0 PUSH0 DUP5 DUP2 MSTORE PUSH1 0x20 ADD SWAP1 DUP2 MSTORE PUSH1 0x20 ADD PUSH0 KECCAK256 PUSH0 ADD PUSH0 DUP4 PUSH20 0xFFFFFFFFFFFFFFFFFFFFFFFFFFFFFFFFFFFFFFFF AND PUSH20 0xFFFFFFFFFFFFFFFFFFFFFFFFFFFFFFFFFFFFFFFF AND DUP2 MSTORE PUSH1 0x20 ADD SWAP1 DUP2 MSTORE PUSH1 0x20 ADD PUSH0 KECCAK256 PUSH0 PUSH2 0x100 EXP DUP2 SLOAD DUP2 PUSH1 0xFF MUL NOT AND SWAP1 DUP4 ISZERO ISZERO MUL OR SWAP1 SSTORE POP PUSH2 0x14E PUSH2 0x210 PUSH1 0x20 SHL PUSH1 0x20 SHR JUMP JUMPDEST PUSH20 0xFFFFFFFFFFFFFFFFFFFFFFFFFFFFFFFFFFFFFFFF AND DUP2 PUSH20 0xFFFFFFFFFFFFFFFFFFFFFFFFFFFFFFFFFFFFFFFF AND DUP4 PUSH32 0x2F8788117E7EFF1D82E926EC794901D17C78024A50270940304540A733656F0D PUSH1 0x40 MLOAD PUSH1 0x40 MLOAD DUP1 SWAP2 SUB SWAP1 LOG4 JUMPDEST POP POP JUMP JUMPDEST PUSH0 PUSH0 PUSH0 DUP5 DUP2 MSTORE PUSH1 0x20 ADD SWAP1 DUP2 MSTORE PUSH1 0x20 ADD PUSH0 KECCAK256 PUSH0 ADD PUSH0 DUP4 PUSH20 0xFFFFFFFFFFFFFFFFFFFFFFFFFFFFFFFFFFFFFFFF AND PUSH20 0xFFFFFFFFFFFFFFFFFFFFFFFFFFFFFFFFFFFFFFFF AND DUP2 MSTORE PUSH1 0x20 ADD SWAP1 DUP2 MSTORE PUSH1 0x20 ADD PUSH0 KECCAK256 PUSH0 SWAP1 SLOAD SWAP1 PUSH2 0x100 EXP SWAP1 DIV PUSH1 0xFF AND SWAP1 POP SWAP3 SWAP2 POP POP JUMP JUMPDEST PUSH0 CALLER SWAP1 POP SWAP1 JUMP JUMPDEST PUSH0 PUSH0 REVERT JUMPDEST PUSH0 PUSH20 0xFFFFFFFFFFFFFFFFFFFFFFFFFFFFFFFFFFFFFFFF DUP3 AND SWAP1 POP SWAP2 SWAP1 POP JUMP JUMPDEST PUSH0 PUSH2 0x244 DUP3 PUSH2 0x21B JUMP JUMPDEST SWAP1 POP SWAP2 SWAP1 POP JUMP JUMPDEST PUSH2 0x254 DUP2 PUSH2 0x23A JUMP JUMPDEST DUP2 EQ PUSH2 0x25E JUMPI PUSH0 PUSH0 REVERT JUMPDEST POP JUMP JUMPDEST PUSH0 DUP2 MLOAD SWAP1 POP PUSH2 0x26F DUP2 PUSH2 0x24B JUMP JUMPDEST SWAP3 SWAP2 POP POP JUMP JUMPDEST PUSH0 PUSH0 PUSH1 0x40 DUP4 DUP6 SUB SLT ISZERO PUSH2 0x28B JUMPI PUSH2 0x28A PUSH2 0x217 JUMP JUMPDEST JUMPDEST PUSH0 PUSH2 0x298 DUP6 DUP3 DUP7 ADD PUSH2 0x261 JUMP JUMPDEST SWAP3 POP POP PUSH1 0x20 PUSH2 0x2A9 DUP6 DUP3 DUP7 ADD PUSH2 0x261 JUMP JUMPDEST SWAP2 POP POP SWAP3 POP SWAP3 SWAP1 POP JUMP JUMPDEST PUSH1 0x80 MLOAD PUSH2 0x2E4A PUSH2 0x2E7 PUSH0 CODECOPY PUSH0 DUP2 DUP2 PUSH2 0x4CB ADD MSTORE DUP2 DUP2 PUSH2 0x5D3 ADD MSTORE DUP2 DUP2 PUSH2 0xB55 ADD MSTORE DUP2 DUP2 PUSH2 0x115E ADD MSTORE PUSH2 0x1269 ADD MSTORE PUSH2 0x2E4A PUSH0 RETURN INVALID PUSH1 0x80 PUSH1 0x40 MSTORE CALLVALUE DUP1 ISZERO PUSH2 0xF JUMPI PUSH0 PUSH0 REVERT JUMPDEST POP PUSH1 0x4 CALLDATASIZE LT PUSH2 0x11F JUMPI PUSH0 CALLDATALOAD PUSH1 0xE0 SHR DUP1 PUSH4 0x7B103999 GT PUSH2 0xAB JUMPI DUP1 PUSH4 0xC39E4D22 GT PUSH2 0x6F JUMPI DUP1 PUSH4 0xC39E4D22 EQ PUSH2 0x2F1 JUMPI DUP1 PUSH4 0xC6AD6C69 EQ PUSH2 0x321 JUMPI DUP1 PUSH4 0xD547741F EQ PUSH2 0x33D JUMPI DUP1 PUSH4 0xF5B541A6 EQ PUSH2 0x359 JUMPI DUP1 PUSH4 0xF8605B2B EQ PUSH2 0x377 JUMPI PUSH2 0x11F JUMP JUMPDEST DUP1 PUSH4 0x7B103999 EQ PUSH2 0x24B JUMPI DUP1 PUSH4 0x8456CB59 EQ PUSH2 0x269 JUMPI DUP1 PUSH4 0x91D14854 EQ PUSH2 0x273 JUMPI DUP1 PUSH4 0xA217FDDF EQ PUSH2 0x2A3 JUMPI DUP1 PUSH4 0xAF904A06 EQ PUSH2 0x2C1 JUMPI PUSH2 0x11F JUMP JUMPDEST DUP1 PUSH4 0x2F2FF15D GT PUSH2 0xF2 JUMPI DUP1 PUSH4 0x2F2FF15D EQ PUSH2 0x1CF JUMPI DUP1 PUSH4 0x36568ABE EQ PUSH2 0x1EB JUMPI DUP1 PUSH4 0x3F4BA83A EQ PUSH2 0x207 JUMPI DUP1 PUSH4 0x558A7297 EQ PUSH2 0x211 JUMPI DUP1 PUSH4 0x5C975ABB EQ PUSH2 0x22D JUMPI PUSH2 0x11F JUMP JUMPDEST DUP1 PUSH4 0x1FFC9A7 EQ PUSH2 0x123 JUMPI DUP1 PUSH4 0x3AF914F EQ PUSH2 0x153 JUMPI DUP1 PUSH4 0xDB6E43D EQ PUSH2 0x183 JUMPI DUP1 PUSH4 0x248A9CA3 EQ PUSH2 0x19F JUMPI JUMPDEST PUSH0 PUSH0 REVERT JUMPDEST PUSH2 0x13D PUSH1 0x4 DUP1 CALLDATASIZE SUB DUP2 ADD SWAP1 PUSH2 0x138 SWAP2 SWAP1 PUSH2 0x1BFF JUMP JUMPDEST PUSH2 0x393 JUMP JUMPDEST PUSH1 0x40 MLOAD PUSH2 0x14A SWAP2 SWAP1 PUSH2 0x1C44 JUMP JUMPDEST PUSH1 0x40 MLOAD DUP1 SWAP2 SUB SWAP1 RETURN JUMPDEST PUSH2 0x16D PUSH1 0x4 DUP1 CALLDATASIZE SUB DUP2 ADD SWAP1 PUSH2 0x168 SWAP2 SWAP1 PUSH2 0x1C90 JUMP JUMPDEST PUSH2 0x40C JUMP JUMPDEST PUSH1 0x40 MLOAD PUSH2 0x17A SWAP2 SWAP1 PUSH2 0x1D2E JUMP JUMPDEST PUSH1 0x40 MLOAD DUP1 SWAP2 SUB SWAP1 RETURN JUMPDEST PUSH2 0x19D PUSH1 0x4 DUP1 CALLDATASIZE SUB DUP2 ADD SWAP1 PUSH2 0x198 SWAP2 SWAP1 PUSH2 0x1DCB JUMP JUMPDEST PUSH2 0x434 JUMP JUMPDEST STOP JUMPDEST PUSH2 0x1B9 PUSH1 0x4 DUP1 CALLDATASIZE SUB DUP2 ADD SWAP1 PUSH2 0x1B4 SWAP2 SWAP1 PUSH2 0x1C90 JUMP JUMPDEST PUSH2 0x97A JUMP JUMPDEST PUSH1 0x40 MLOAD PUSH2 0x1C6 SWAP2 SWAP1 PUSH2 0x1E7D JUMP JUMPDEST PUSH1 0x40 MLOAD DUP1 SWAP2 SUB SWAP1 RETURN JUMPDEST PUSH2 0x1E9 PUSH1 0x4 DUP1 CALLDATASIZE SUB DUP2 ADD SWAP1 PUSH2 0x1E4 SWAP2 SWAP1 PUSH2 0x1EF0 JUMP JUMPDEST PUSH2 0x996 JUMP JUMPDEST STOP JUMPDEST PUSH2 0x205 PUSH1 0x4 DUP1 CALLDATASIZE SUB DUP2 ADD SWAP1 PUSH2 0x200 SWAP2 SWAP1 PUSH2 0x1EF0 JUMP JUMPDEST PUSH2 0x9B7 JUMP JUMPDEST STOP JUMPDEST PUSH2 0x20F PUSH2 0xA3A JUMP JUMPDEST STOP JUMPDEST PUSH2 0x22B PUSH1 0x4 DUP1 CALLDATASIZE SUB DUP2 ADD SWAP1 PUSH2 0x226 SWAP2 SWAP1 PUSH2 0x1F58 JUMP JUMPDEST PUSH2 0xA8F JUMP JUMPDEST STOP JUMPDEST PUSH2 0x235 PUSH2 0xB3E JUMP JUMPDEST PUSH1 0x40 MLOAD PUSH2 0x242 SWAP2 SWAP1 PUSH2 0x1C44 JUMP JUMPDEST PUSH1 0x40 MLOAD DUP1 SWAP2 SUB SWAP1 RETURN JUMPDEST PUSH2 0x253 PUSH2 0xB53 JUMP JUMPDEST PUSH1 0x40 MLOAD PUSH2 0x260 SWAP2 SWAP1 PUSH2 0x1FF1 JUMP JUMPDEST PUSH1 0x40 MLOAD DUP1 SWAP2 SUB SWAP1 RETURN JUMPDEST PUSH2 0x271 PUSH2 0xB77 JUMP JUMPDEST STOP JUMPDEST PUSH2 0x28D PUSH1 0x4 DUP1 CALLDATASIZE SUB DUP2 ADD SWAP1 PUSH2 0x288 SWAP2 SWAP1 PUSH2 0x1EF0 JUMP JUMPDEST PUSH2 0xBCC JUMP JUMPDEST PUSH1 0x40 MLOAD PUSH2 0x29A SWAP2 SWAP1 PUSH2 0x1C44 JUMP JUMPDEST PUSH1 0x40 MLOAD DUP1 SWAP2 SUB SWAP1 RETURN JUMPDEST PUSH2 0x2AB PUSH2 0xC2F JUMP JUMPDEST PUSH1 0x40 MLOAD PUSH2 0x2B8 SWAP2 SWAP1 PUSH2 0x1E7D JUMP JUMPDEST PUSH1 0x40 MLOAD DUP1 SWAP2 SUB SWAP1 RETURN JUMPDEST PUSH2 0x2DB PUSH1 0x4 DUP1 CALLDATASIZE SUB DUP2 ADD SWAP1 PUSH2 0x2D6 SWAP2 SWAP1 PUSH2 0x203D JUMP JUMPDEST PUSH2 0xC35 JUMP JUMPDEST PUSH1 0x40 MLOAD PUSH2 0x2E8 SWAP2 SWAP1 PUSH2 0x2178 JUMP JUMPDEST PUSH1 0x40 MLOAD DUP1 SWAP2 SUB SWAP1 RETURN JUMPDEST PUSH2 0x30B PUSH1 0x4 DUP1 CALLDATASIZE SUB DUP2 ADD SWAP1 PUSH2 0x306 SWAP2 SWAP1 PUSH2 0x1C90 JUMP JUMPDEST PUSH2 0xD88 JUMP JUMPDEST PUSH1 0x40 MLOAD PUSH2 0x318 SWAP2 SWAP1 PUSH2 0x21A7 JUMP JUMPDEST PUSH1 0x40 MLOAD DUP1 SWAP2 SUB SWAP1 RETURN JUMPDEST PUSH2 0x33B PUSH1 0x4 DUP1 CALLDATASIZE SUB DUP2 ADD SWAP1 PUSH2 0x336 SWAP2 SWAP1 PUSH2 0x203D JUMP JUMPDEST PUSH2 0xDA5 JUMP JUMPDEST STOP JUMPDEST PUSH2 0x357 PUSH1 0x4 DUP1 CALLDATASIZE SUB DUP2 ADD SWAP1 PUSH2 0x352 SWAP2 SWAP1 PUSH2 0x1EF0 JUMP JUMPDEST PUSH2 0xF9A JUMP JUMPDEST STOP JUMPDEST PUSH2 0x361 PUSH2 0xFBB JUMP JUMPDEST PUSH1 0x40 MLOAD PUSH2 0x36E SWAP2 SWAP1 PUSH2 0x1E7D JUMP JUMPDEST PUSH1 0x40 MLOAD DUP1 SWAP2 SUB SWAP1 RETURN JUMPDEST PUSH2 0x391 PUSH1 0x4 DUP1 CALLDATASIZE SUB DUP2 ADD SWAP1 PUSH2 0x38C SWAP2 SWAP1 PUSH2 0x21C0 JUMP JUMPDEST PUSH2 0xFDF JUMP JUMPDEST STOP JUMPDEST PUSH0 PUSH32 0x7965DB0B00000000000000000000000000000000000000000000000000000000 PUSH28 0xFFFFFFFFFFFFFFFFFFFFFFFFFFFFFFFFFFFFFFFFFFFFFFFFFFFFFFFF NOT AND DUP3 PUSH28 0xFFFFFFFFFFFFFFFFFFFFFFFFFFFFFFFFFFFFFFFFFFFFFFFFFFFFFFFF NOT AND EQ DUP1 PUSH2 0x405 JUMPI POP PUSH2 0x404 DUP3 PUSH2 0x14F2 JUMP JUMPDEST JUMPDEST SWAP1 POP SWAP2 SWAP1 POP JUMP JUMPDEST PUSH0 PUSH1 0x2 PUSH0 DUP4 DUP2 MSTORE PUSH1 0x20 ADD SWAP1 DUP2 MSTORE PUSH1 0x20 ADD PUSH0 KECCAK256 PUSH0 ADD PUSH0 SWAP1 SLOAD SWAP1 PUSH2 0x100 EXP SWAP1 DIV PUSH1 0xFF AND SWAP1 POP SWAP2 SWAP1 POP JUMP JUMPDEST PUSH2 0x43C PUSH2 0x155B JUMP JUMPDEST PUSH1 0x2 PUSH0 DUP8 DUP2 MSTORE PUSH1 0x20 ADD SWAP1 DUP2 MSTORE PUSH1 0x20 ADD PUSH0 KECCAK256 PUSH1 0x2 ADD PUSH0 SWAP1 SLOAD SWAP1 PUSH2 0x100 EXP SWAP1 DIV PUSH1 0xFF AND ISZERO PUSH2 0x49D JUMPI PUSH1 0x40 MLOAD PUSH32 0x8C379A000000000000000000000000000000000000000000000000000000000 DUP2 MSTORE PUSH1 0x4 ADD PUSH2 0x494 SWAP1 PUSH2 0x2277 JUMP JUMPDEST PUSH1 0x40 MLOAD DUP1 SWAP2 SUB SWAP1 REVERT JUMPDEST PUSH1 0x2 PUSH1 0x4 DUP2 GT ISZERO PUSH2 0x4B1 JUMPI PUSH2 0x4B0 PUSH2 0x1CBB JUMP JUMPDEST JUMPDEST DUP6 PUSH1 0x4 DUP2 GT ISZERO PUSH2 0x4C4 JUMPI PUSH2 0x4C3 PUSH2 0x1CBB JUMP JUMPDEST JUMPDEST SUB PUSH2 0x5A5 JUMPI PUSH32 0x0 PUSH20 0xFFFFFFFFFFFFFFFFFFFFFFFFFFFFFFFFFFFFFFFF AND PUSH4 0xED896D66 CALLER PUSH1 0x40 MLOAD DUP3 PUSH4 0xFFFFFFFF AND PUSH1 0xE0 SHL DUP2 MSTORE PUSH1 0x4 ADD PUSH2 0x522 SWAP2 SWAP1 PUSH2 0x22A4 JUMP JUMPDEST PUSH1 0x20 PUSH1 0x40 MLOAD DUP1 DUP4 SUB DUP2 DUP7 GAS STATICCALL ISZERO DUP1 ISZERO PUSH2 0x53D JUMPI RETURNDATASIZE PUSH0 PUSH0 RETURNDATACOPY RETURNDATASIZE PUSH0 REVERT JUMPDEST POP POP POP POP PUSH1 0x40 MLOAD RETURNDATASIZE PUSH1 0x1F NOT PUSH1 0x1F DUP3 ADD AND DUP3 ADD DUP1 PUSH1 0x40 MSTORE POP DUP2 ADD SWAP1 PUSH2 0x561 SWAP2 SWAP1 PUSH2 0x22D1 JUMP JUMPDEST PUSH2 0x5A0 JUMPI PUSH1 0x40 MLOAD PUSH32 0x8C379A000000000000000000000000000000000000000000000000000000000 DUP2 MSTORE PUSH1 0x4 ADD PUSH2 0x597 SWAP1 PUSH2 0x2346 JUMP JUMPDEST PUSH1 0x40 MLOAD DUP1 SWAP2 SUB SWAP1 REVERT JUMPDEST PUSH2 0x6AA JUMP JUMPDEST PUSH1 0x1 PUSH1 0x4 DUP2 GT ISZERO PUSH2 0x5B9 JUMPI PUSH2 0x5B8 PUSH2 0x1CBB JUMP JUMPDEST JUMPDEST DUP6 PUSH1 0x4 DUP2 GT ISZERO PUSH2 0x5CC JUMPI PUSH2 0x5CB PUSH2 0x1CBB JUMP JUMPDEST JUMPDEST SUB PUSH2 0x6A9 JUMPI PUSH32 0x0 PUSH20 0xFFFFFFFFFFFFFFFFFFFFFFFFFFFFFFFFFFFFFFFF AND PUSH4 0x5939A84E CALLER PUSH1 0x40 MLOAD DUP3 PUSH4 0xFFFFFFFF AND PUSH1 0xE0 SHL DUP2 MSTORE PUSH1 0x4 ADD PUSH2 0x62A SWAP2 SWAP1 PUSH2 0x22A4 JUMP JUMPDEST PUSH1 0x20 PUSH1 0x40 MLOAD DUP1 DUP4 SUB DUP2 DUP7 GAS STATICCALL ISZERO DUP1 ISZERO PUSH2 0x645 JUMPI RETURNDATASIZE PUSH0 PUSH0 RETURNDATACOPY RETURNDATASIZE PUSH0 REVERT JUMPDEST POP POP POP POP PUSH1 0x40 MLOAD RETURNDATASIZE PUSH1 0x1F NOT PUSH1 0x1F DUP3 ADD AND DUP3 ADD DUP1 PUSH1 0x40 MSTORE POP DUP2 ADD SWAP1 PUSH2 0x669 SWAP2 SWAP1 PUSH2 0x22D1 JUMP JUMPDEST PUSH2 0x6A8 JUMPI PUSH1 0x40 MLOAD PUSH32 0x8C379A000000000000000000000000000000000000000000000000000000000 DUP2 MSTORE PUSH1 0x4 ADD PUSH2 0x69F SWAP1 PUSH2 0x23AE JUMP JUMPDEST PUSH1 0x40 MLOAD DUP1 SWAP2 SUB SWAP1 REVERT JUMPDEST JUMPDEST JUMPDEST PUSH1 0x40 MLOAD DUP1 PUSH1 0x60 ADD PUSH1 0x40 MSTORE DUP1 DUP7 PUSH1 0x4 DUP2 GT ISZERO PUSH2 0x6C8 JUMPI PUSH2 0x6C7 PUSH2 0x1CBB JUMP JUMPDEST JUMPDEST DUP2 MSTORE PUSH1 0x20 ADD DUP6 DUP6 DUP1 DUP1 PUSH1 0x1F ADD PUSH1 0x20 DUP1 SWAP2 DIV MUL PUSH1 0x20 ADD PUSH1 0x40 MLOAD SWAP1 DUP2 ADD PUSH1 0x40 MSTORE DUP1 SWAP4 SWAP3 SWAP2 SWAP1 DUP2 DUP2 MSTORE PUSH1 0x20 ADD DUP4 DUP4 DUP1 DUP3 DUP5 CALLDATACOPY PUSH0 DUP2 DUP5 ADD MSTORE PUSH1 0x1F NOT PUSH1 0x1F DUP3 ADD AND SWAP1 POP DUP1 DUP4 ADD SWAP3 POP POP POP POP POP POP POP DUP2 MSTORE PUSH1 0x20 ADD PUSH1 0x1 ISZERO ISZERO DUP2 MSTORE POP PUSH1 0x2 PUSH0 DUP9 DUP2 MSTORE PUSH1 0x20 ADD SWAP1 DUP2 MSTORE PUSH1 0x20 ADD PUSH0 KECCAK256 PUSH0 DUP3 ADD MLOAD DUP2 PUSH0 ADD PUSH0 PUSH2 0x100 EXP DUP2 SLOAD DUP2 PUSH1 0xFF MUL NOT AND SWAP1 DUP4 PUSH1 0x4 DUP2 GT ISZERO PUSH2 0x756 JUMPI PUSH2 0x755 PUSH2 0x1CBB JUMP JUMPDEST JUMPDEST MUL OR SWAP1 SSTORE POP PUSH1 0x20 DUP3 ADD MLOAD DUP2 PUSH1 0x1 ADD SWAP1 DUP2 PUSH2 0x770 SWAP2 SWAP1 PUSH2 0x25ED JUMP JUMPDEST POP PUSH1 0x40 DUP3 ADD MLOAD DUP2 PUSH1 0x2 ADD PUSH0 PUSH2 0x100 EXP DUP2 SLOAD DUP2 PUSH1 0xFF MUL NOT AND SWAP1 DUP4 ISZERO ISZERO MUL OR SWAP1 SSTORE POP SWAP1 POP POP PUSH1 0x3 PUSH0 DUP8 DUP2 MSTORE PUSH1 0x20 ADD SWAP1 DUP2 MSTORE PUSH1 0x20 ADD PUSH0 KECCAK256 PUSH1 0x40 MLOAD DUP1 PUSH1 0x80 ADD PUSH1 0x40 MSTORE DUP1 DUP5 DUP5 DUP1 DUP1 PUSH1 0x1F ADD PUSH1 0x20 DUP1 SWAP2 DIV MUL PUSH1 0x20 ADD PUSH1 0x40 MLOAD SWAP1 DUP2 ADD PUSH1 0x40 MSTORE DUP1 SWAP4 SWAP3 SWAP2 SWAP1 DUP2 DUP2 MSTORE PUSH1 0x20 ADD DUP4 DUP4 DUP1 DUP3 DUP5 CALLDATACOPY PUSH0 DUP2 DUP5 ADD MSTORE PUSH1 0x1F NOT PUSH1 0x1F DUP3 ADD AND SWAP1 POP DUP1 DUP4 ADD SWAP3 POP POP POP POP POP POP POP DUP2 MSTORE PUSH1 0x20 ADD TIMESTAMP DUP2 MSTORE PUSH1 0x20 ADD PUSH0 ISZERO ISZERO DUP2 MSTORE PUSH1 0x20 ADD CALLER PUSH20 0xFFFFFFFFFFFFFFFFFFFFFFFFFFFFFFFFFFFFFFFF AND DUP2 MSTORE POP SWAP1 DUP1 PUSH1 0x1 DUP2 SLOAD ADD DUP1 DUP3 SSTORE DUP1 SWAP2 POP POP PUSH1 0x1 SWAP1 SUB SWAP1 PUSH0 MSTORE PUSH1 0x20 PUSH0 KECCAK256 SWAP1 PUSH1 0x3 MUL ADD PUSH0 SWAP1 SWAP2 SWAP1 SWAP2 SWAP1 SWAP2 POP PUSH0 DUP3 ADD MLOAD DUP2 PUSH0 ADD SWAP1 DUP2 PUSH2 0x859 SWAP2 SWAP1 PUSH2 0x25ED JUMP JUMPDEST POP PUSH1 0x20 DUP3 ADD MLOAD DUP2 PUSH1 0x1 ADD SSTORE PUSH1 0x40 DUP3 ADD MLOAD DUP2 PUSH1 0x2 ADD PUSH0 PUSH2 0x100 EXP DUP2 SLOAD DUP2 PUSH1 0xFF MUL NOT AND SWAP1 DUP4 ISZERO ISZERO MUL OR SWAP1 SSTORE POP PUSH1 0x60 DUP3 ADD MLOAD DUP2 PUSH1 0x2 ADD PUSH1 0x1 PUSH2 0x100 EXP DUP2 SLOAD DUP2 PUSH20 0xFFFFFFFFFFFFFFFFFFFFFFFFFFFFFFFFFFFFFFFF MUL NOT AND SWAP1 DUP4 PUSH20 0xFFFFFFFFFFFFFFFFFFFFFFFFFFFFFFFFFFFFFFFF AND MUL OR SWAP1 SSTORE POP POP POP CALLER PUSH20 0xFFFFFFFFFFFFFFFFFFFFFFFFFFFFFFFFFFFFFFFF AND DUP7 PUSH32 0xEA4E0CD675F42C3F1FD2C55462CEC5B5222AEB79E2DC3C176E71A64286CEF89B DUP8 DUP8 DUP8 PUSH1 0x40 MLOAD PUSH2 0x917 SWAP4 SWAP3 SWAP2 SWAP1 PUSH2 0x26F6 JUMP JUMPDEST PUSH1 0x40 MLOAD DUP1 SWAP2 SUB SWAP1 LOG3 CALLER PUSH20 0xFFFFFFFFFFFFFFFFFFFFFFFFFFFFFFFFFFFFFFFF AND DUP7 PUSH32 0x7501C85D0A5528FCB8B24E8B76029197B6AD4D5D05561490F81D3B9E4F3B01D3 PUSH0 DUP6 DUP6 PUSH1 0x40 MLOAD PUSH2 0x96A SWAP4 SWAP3 SWAP2 SWAP1 PUSH2 0x275F JUMP JUMPDEST PUSH1 0x40 MLOAD DUP1 SWAP2 SUB SWAP1 LOG3 POP POP POP POP POP POP JUMP JUMPDEST PUSH0 PUSH0 PUSH0 DUP4 DUP2 MSTORE PUSH1 0x20 ADD SWAP1 DUP2 MSTORE PUSH1 0x20 ADD PUSH0 KECCAK256 PUSH1 0x1 ADD SLOAD SWAP1 POP SWAP2 SWAP1 POP JUMP JUMPDEST PUSH2 0x99F DUP3 PUSH2 0x97A JUMP JUMPDEST PUSH2 0x9A8 DUP2 PUSH2 0x15A5 JUMP JUMPDEST PUSH2 0x9B2 DUP4 DUP4 PUSH2 0x15B9 JUMP JUMPDEST POP POP POP JUMP JUMPDEST PUSH2 0x9BF PUSH2 0x1693 JUMP JUMPDEST PUSH20 0xFFFFFFFFFFFFFFFFFFFFFFFFFFFFFFFFFFFFFFFF AND DUP2 PUSH20 0xFFFFFFFFFFFFFFFFFFFFFFFFFFFFFFFFFFFFFFFF AND EQ PUSH2 0xA2C JUMPI PUSH1 0x40 MLOAD PUSH32 0x8C379A000000000000000000000000000000000000000000000000000000000 DUP2 MSTORE PUSH1 0x4 ADD PUSH2 0xA23 SWAP1 PUSH2 0x27FF JUMP JUMPDEST PUSH1 0x40 MLOAD DUP1 SWAP2 SUB SWAP1 REVERT JUMPDEST PUSH2 0xA36 DUP3 DUP3 PUSH2 0x169A JUMP JUMPDEST POP POP JUMP JUMPDEST PUSH2 0xA46 PUSH0 PUSH0 SHL CALLER PUSH2 0xBCC JUMP JUMPDEST PUSH2 0xA85 JUMPI PUSH1 0x40 MLOAD PUSH32 0x8C379A000000000000000000000000000000000000000000000000000000000 DUP2 MSTORE PUSH1 0x4 ADD PUSH2 0xA7C SWAP1 PUSH2 0x2867 JUMP JUMPDEST PUSH1 0x40 MLOAD DUP1 SWAP2 SUB SWAP1 REVERT JUMPDEST PUSH2 0xA8D PUSH2 0x1774 JUMP JUMPDEST JUMP JUMPDEST PUSH2 0xA9B PUSH0 PUSH0 SHL CALLER PUSH2 0xBCC JUMP JUMPDEST PUSH2 0xADA JUMPI PUSH1 0x40 MLOAD PUSH32 0x8C379A000000000000000000000000000000000000000000000000000000000 DUP2 MSTORE PUSH1 0x4 ADD PUSH2 0xAD1 SWAP1 PUSH2 0x2867 JUMP JUMPDEST PUSH1 0x40 MLOAD DUP1 SWAP2 SUB SWAP1 REVERT JUMPDEST DUP1 ISZERO PUSH2 0xB0F JUMPI PUSH2 0xB0A PUSH32 0x97667070C54EF182B0F5858B034BEAC1B6F3089AA2D3188BB1E8929F4FA9B929 DUP4 PUSH2 0x15B9 JUMP JUMPDEST PUSH2 0xB3A JUMP JUMPDEST PUSH2 0xB39 PUSH32 0x97667070C54EF182B0F5858B034BEAC1B6F3089AA2D3188BB1E8929F4FA9B929 DUP4 PUSH2 0x169A JUMP JUMPDEST JUMPDEST POP POP JUMP JUMPDEST PUSH0 PUSH1 0x1 PUSH0 SWAP1 SLOAD SWAP1 PUSH2 0x100 EXP SWAP1 DIV PUSH1 0xFF AND SWAP1 POP SWAP1 JUMP JUMPDEST PUSH32 0x0 DUP2 JUMP JUMPDEST PUSH2 0xB83 PUSH0 PUSH0 SHL CALLER PUSH2 0xBCC JUMP JUMPDEST PUSH2 0xBC2 JUMPI PUSH1 0x40 MLOAD PUSH32 0x8C379A000000000000000000000000000000000000000000000000000000000 DUP2 MSTORE PUSH1 0x4 ADD PUSH2 0xBB9 SWAP1 PUSH2 0x2867 JUMP JUMPDEST PUSH1 0x40 MLOAD DUP1 SWAP2 SUB SWAP1 REVERT JUMPDEST PUSH2 0xBCA PUSH2 0x17D5 JUMP JUMPDEST JUMP JUMPDEST PUSH0 PUSH0 PUSH0 DUP5 DUP2 MSTORE PUSH1 0x20 ADD SWAP1 DUP2 MSTORE PUSH1 0x20 ADD PUSH0 KECCAK256 PUSH0 ADD PUSH0 DUP4 PUSH20 0xFFFFFFFFFFFFFFFFFFFFFFFFFFFFFFFFFFFFFFFF AND PUSH20 0xFFFFFFFFFFFFFFFFFFFFFFFFFFFFFFFFFFFFFFFF AND DUP2 MSTORE PUSH1 0x20 ADD SWAP1 DUP2 MSTORE PUSH1 0x20 ADD PUSH0 KECCAK256 PUSH0 SWAP1 SLOAD SWAP1 PUSH2 0x100 EXP SWAP1 DIV PUSH1 0xFF AND SWAP1 POP SWAP3 SWAP2 POP POP JUMP JUMPDEST PUSH0 PUSH0 SHL DUP2 JUMP JUMPDEST PUSH2 0xC3D PUSH2 0x1B65 JUMP JUMPDEST PUSH1 0x3 PUSH0 DUP5 DUP2 MSTORE PUSH1 0x20 ADD SWAP1 DUP2 MSTORE PUSH1 0x20 ADD PUSH0 KECCAK256 DUP3 DUP2 SLOAD DUP2 LT PUSH2 0xC60 JUMPI PUSH2 0xC5F PUSH2 0x2885 JUMP JUMPDEST JUMPDEST SWAP1 PUSH0 MSTORE PUSH1 0x20 PUSH0 KECCAK256 SWAP1 PUSH1 0x3 MUL ADD PUSH1 0x40 MLOAD DUP1 PUSH1 0x80 ADD PUSH1 0x40 MSTORE SWAP1 DUP2 PUSH0 DUP3 ADD DUP1 SLOAD PUSH2 0xC86 SWAP1 PUSH2 0x2426 JUMP JUMPDEST DUP1 PUSH1 0x1F ADD PUSH1 0x20 DUP1 SWAP2 DIV MUL PUSH1 0x20 ADD PUSH1 0x40 MLOAD SWAP1 DUP2 ADD PUSH1 0x40 MSTORE DUP1 SWAP3 SWAP2 SWAP1 DUP2 DUP2 MSTORE PUSH1 0x20 ADD DUP3 DUP1 SLOAD PUSH2 0xCB2 SWAP1 PUSH2 0x2426 JUMP JUMPDEST DUP1 ISZERO PUSH2 0xCFD JUMPI DUP1 PUSH1 0x1F LT PUSH2 0xCD4 JUMPI PUSH2 0x100 DUP1 DUP4 SLOAD DIV MUL DUP4 MSTORE SWAP2 PUSH1 0x20 ADD SWAP2 PUSH2 0xCFD JUMP JUMPDEST DUP3 ADD SWAP2 SWAP1 PUSH0 MSTORE PUSH1 0x20 PUSH0 KECCAK256 SWAP1 JUMPDEST DUP2 SLOAD DUP2 MSTORE SWAP1 PUSH1 0x1 ADD SWAP1 PUSH1 0x20 ADD DUP1 DUP4 GT PUSH2 0xCE0 JUMPI DUP3 SWAP1 SUB PUSH1 0x1F AND DUP3 ADD SWAP2 JUMPDEST POP POP POP POP POP DUP2 MSTORE PUSH1 0x20 ADD PUSH1 0x1 DUP3 ADD SLOAD DUP2 MSTORE PUSH1 0x20 ADD PUSH1 0x2 DUP3 ADD PUSH0 SWAP1 SLOAD SWAP1 PUSH2 0x100 EXP SWAP1 DIV PUSH1 0xFF AND ISZERO ISZERO ISZERO ISZERO DUP2 MSTORE PUSH1 0x20 ADD PUSH1 0x2 DUP3 ADD PUSH1 0x1 SWAP1 SLOAD SWAP1 PUSH2 0x100 EXP SWAP1 DIV PUSH20 0xFFFFFFFFFFFFFFFFFFFFFFFFFFFFFFFFFFFFFFFF AND PUSH20 0xFFFFFFFFFFFFFFFFFFFFFFFFFFFFFFFFFFFFFFFF AND PUSH20 0xFFFFFFFFFFFFFFFFFFFFFFFFFFFFFFFFFFFFFFFF AND DUP2 MSTORE POP POP SWAP1 POP SWAP3 SWAP2 POP POP JUMP JUMPDEST PUSH0 PUSH1 0x3 PUSH0 DUP4 DUP2 MSTORE PUSH1 0x20 ADD SWAP1 DUP2 MSTORE PUSH1 0x20 ADD PUSH0 KECCAK256 DUP1 SLOAD SWAP1 POP SWAP1 POP SWAP2 SWAP1 POP JUMP JUMPDEST PUSH2 0xDAD PUSH2 0x155B JUMP JUMPDEST PUSH1 0x3 PUSH0 DUP4 DUP2 MSTORE PUSH1 0x20 ADD SWAP1 DUP2 MSTORE PUSH1 0x20 ADD PUSH0 KECCAK256 DUP1 SLOAD SWAP1 POP DUP2 LT PUSH2 0xE03 JUMPI PUSH1 0x40 MLOAD PUSH32 0x8C379A000000000000000000000000000000000000000000000000000000000 DUP2 MSTORE PUSH1 0x4 ADD PUSH2 0xDFA SWAP1 PUSH2 0x28FC JUMP JUMPDEST PUSH1 0x40 MLOAD DUP1 SWAP2 SUB SWAP1 REVERT JUMPDEST PUSH0 PUSH1 0x3 PUSH0 DUP5 DUP2 MSTORE PUSH1 0x20 ADD SWAP1 DUP2 MSTORE PUSH1 0x20 ADD PUSH0 KECCAK256 DUP3 DUP2 SLOAD DUP2 LT PUSH2 0xE27 JUMPI PUSH2 0xE26 PUSH2 0x2885 JUMP JUMPDEST JUMPDEST SWAP1 PUSH0 MSTORE PUSH1 0x20 PUSH0 KECCAK256 SWAP1 PUSH1 0x3 MUL ADD SWAP1 POP DUP1 PUSH1 0x2 ADD PUSH0 SWAP1 SLOAD SWAP1 PUSH2 0x100 EXP SWAP1 DIV PUSH1 0xFF AND ISZERO PUSH2 0xE86 JUMPI PUSH1 0x40 MLOAD PUSH32 0x8C379A000000000000000000000000000000000000000000000000000000000 DUP2 MSTORE PUSH1 0x4 ADD PUSH2 0xE7D SWAP1 PUSH2 0x2964 JUMP JUMPDEST PUSH1 0x40 MLOAD DUP1 SWAP2 SUB SWAP1 REVERT JUMPDEST CALLER PUSH20 0xFFFFFFFFFFFFFFFFFFFFFFFFFFFFFFFFFFFFFFFF AND DUP2 PUSH1 0x2 ADD PUSH1 0x1 SWAP1 SLOAD SWAP1 PUSH2 0x100 EXP SWAP1 DIV PUSH20 0xFFFFFFFFFFFFFFFFFFFFFFFFFFFFFFFFFFFFFFFF AND PUSH20 0xFFFFFFFFFFFFFFFFFFFFFFFFFFFFFFFFFFFFFFFF AND EQ DUP1 PUSH2 0xEEC JUMPI POP PUSH2 0xEEB PUSH0 PUSH0 SHL CALLER PUSH2 0xBCC JUMP JUMPDEST JUMPDEST PUSH2 0xF2B JUMPI PUSH1 0x40 MLOAD PUSH32 0x8C379A000000000000000000000000000000000000000000000000000000000 DUP2 MSTORE PUSH1 0x4 ADD PUSH2 0xF22 SWAP1 PUSH2 0x29CC JUMP JUMPDEST PUSH1 0x40 MLOAD DUP1 SWAP2 SUB SWAP1 REVERT JUMPDEST PUSH1 0x1 DUP2 PUSH1 0x2 ADD PUSH0 PUSH2 0x100 EXP DUP2 SLOAD DUP2 PUSH1 0xFF MUL NOT AND SWAP1 DUP4 ISZERO ISZERO MUL OR SWAP1 SSTORE POP CALLER PUSH20 0xFFFFFFFFFFFFFFFFFFFFFFFFFFFFFFFFFFFFFFFF AND DUP4 PUSH31 0x37D67BB547A4BAFBF5D40641ECA855E25AB648C5F67F850072E7793BF04552 DUP5 PUSH1 0x40 MLOAD PUSH2 0xF8D SWAP2 SWAP1 PUSH2 0x21A7 JUMP JUMPDEST PUSH1 0x40 MLOAD DUP1 SWAP2 SUB SWAP1 LOG3 POP POP POP JUMP JUMPDEST PUSH2 0xFA3 DUP3 PUSH2 0x97A JUMP JUMPDEST PUSH2 0xFAC DUP2 PUSH2 0x15A5 JUMP JUMPDEST PUSH2 0xFB6 DUP4 DUP4 PUSH2 0x169A JUMP JUMPDEST POP POP POP JUMP JUMPDEST PUSH32 0x97667070C54EF182B0F5858B034BEAC1B6F3089AA2D3188BB1E8929F4FA9B929 DUP2 JUMP JUMPDEST PUSH2 0xFE7 PUSH2 0x155B JUMP JUMPDEST PUSH0 PUSH1 0x2 PUSH0 DUP6 DUP2 MSTORE PUSH1 0x20 ADD SWAP1 DUP2 MSTORE PUSH1 0x20 ADD PUSH0 KECCAK256 PUSH1 0x40 MLOAD DUP1 PUSH1 0x60 ADD PUSH1 0x40 MSTORE SWAP1 DUP2 PUSH0 DUP3 ADD PUSH0 SWAP1 SLOAD SWAP1 PUSH2 0x100 EXP SWAP1 DIV PUSH1 0xFF AND PUSH1 0x4 DUP2 GT ISZERO PUSH2 0x1027 JUMPI PUSH2 0x1026 PUSH2 0x1CBB JUMP JUMPDEST JUMPDEST PUSH1 0x4 DUP2 GT ISZERO PUSH2 0x1039 JUMPI PUSH2 0x1038 PUSH2 0x1CBB JUMP JUMPDEST JUMPDEST DUP2 MSTORE PUSH1 0x20 ADD PUSH1 0x1 DUP3 ADD DUP1 SLOAD PUSH2 0x104D SWAP1 PUSH2 0x2426 JUMP JUMPDEST DUP1 PUSH1 0x1F ADD PUSH1 0x20 DUP1 SWAP2 DIV MUL PUSH1 0x20 ADD PUSH1 0x40 MLOAD SWAP1 DUP2 ADD PUSH1 0x40 MSTORE DUP1 SWAP3 SWAP2 SWAP1 DUP2 DUP2 MSTORE PUSH1 0x20 ADD DUP3 DUP1 SLOAD PUSH2 0x1079 SWAP1 PUSH2 0x2426 JUMP JUMPDEST DUP1 ISZERO PUSH2 0x10C4 JUMPI DUP1 PUSH1 0x1F LT PUSH2 0x109B JUMPI PUSH2 0x100 DUP1 DUP4 SLOAD DIV MUL DUP4 MSTORE SWAP2 PUSH1 0x20 ADD SWAP2 PUSH2 0x10C4 JUMP JUMPDEST DUP3 ADD SWAP2 SWAP1 PUSH0 MSTORE PUSH1 0x20 PUSH0 KECCAK256 SWAP1 JUMPDEST DUP2 SLOAD DUP2 MSTORE SWAP1 PUSH1 0x1 ADD SWAP1 PUSH1 0x20 ADD DUP1 DUP4 GT PUSH2 0x10A7 JUMPI DUP3 SWAP1 SUB PUSH1 0x1F AND DUP3 ADD SWAP2 JUMPDEST POP POP POP POP POP DUP2 MSTORE PUSH1 0x20 ADD PUSH1 0x2 DUP3 ADD PUSH0 SWAP1 SLOAD SWAP1 PUSH2 0x100 EXP SWAP1 DIV PUSH1 0xFF AND ISZERO ISZERO ISZERO ISZERO DUP2 MSTORE POP POP SWAP1 POP DUP1 PUSH1 0x40 ADD MLOAD PUSH2 0x112D JUMPI PUSH1 0x40 MLOAD PUSH32 0x8C379A000000000000000000000000000000000000000000000000000000000 DUP2 MSTORE PUSH1 0x4 ADD PUSH2 0x1124 SWAP1 PUSH2 0x2A34 JUMP JUMPDEST PUSH1 0x40 MLOAD DUP1 SWAP2 SUB SWAP1 REVERT JUMPDEST PUSH1 0x2 PUSH1 0x4 DUP2 GT ISZERO PUSH2 0x1141 JUMPI PUSH2 0x1140 PUSH2 0x1CBB JUMP JUMPDEST JUMPDEST DUP2 PUSH0 ADD MLOAD PUSH1 0x4 DUP2 GT ISZERO PUSH2 0x1157 JUMPI PUSH2 0x1156 PUSH2 0x1CBB JUMP JUMPDEST JUMPDEST SUB PUSH2 0x1238 JUMPI PUSH32 0x0 PUSH20 0xFFFFFFFFFFFFFFFFFFFFFFFFFFFFFFFFFFFFFFFF AND PUSH4 0xED896D66 CALLER PUSH1 0x40 MLOAD DUP3 PUSH4 0xFFFFFFFF AND PUSH1 0xE0 SHL DUP2 MSTORE PUSH1 0x4 ADD PUSH2 0x11B5 SWAP2 SWAP1 PUSH2 0x22A4 JUMP JUMPDEST PUSH1 0x20 PUSH1 0x40 MLOAD DUP1 DUP4 SUB DUP2 DUP7 GAS STATICCALL ISZERO DUP1 ISZERO PUSH2 0x11D0 JUMPI RETURNDATASIZE PUSH0 PUSH0 RETURNDATACOPY RETURNDATASIZE PUSH0 REVERT JUMPDEST POP POP POP POP PUSH1 0x40 MLOAD RETURNDATASIZE PUSH1 0x1F NOT PUSH1 0x1F DUP3 ADD AND DUP3 ADD DUP1 PUSH1 0x40 MSTORE POP DUP2 ADD SWAP1 PUSH2 0x11F4 SWAP2 SWAP1 PUSH2 0x22D1 JUMP JUMPDEST PUSH2 0x1233 JUMPI PUSH1 0x40 MLOAD PUSH32 0x8C379A000000000000000000000000000000000000000000000000000000000 DUP2 MSTORE PUSH1 0x4 ADD PUSH2 0x122A SWAP1 PUSH2 0x2346 JUMP JUMPDEST PUSH1 0x40 MLOAD DUP1 SWAP2 SUB SWAP1 REVERT JUMPDEST PUSH2 0x1340 JUMP JUMPDEST PUSH1 0x1 PUSH1 0x4 DUP2 GT ISZERO PUSH2 0x124C JUMPI PUSH2 0x124B PUSH2 0x1CBB JUMP JUMPDEST JUMPDEST DUP2 PUSH0 ADD MLOAD PUSH1 0x4 DUP2 GT ISZERO PUSH2 0x1262 JUMPI PUSH2 0x1261 PUSH2 0x1CBB JUMP JUMPDEST JUMPDEST SUB PUSH2 0x133F JUMPI PUSH32 0x0 PUSH20 0xFFFFFFFFFFFFFFFFFFFFFFFFFFFFFFFFFFFFFFFF AND PUSH4 0x5939A84E CALLER PUSH1 0x40 MLOAD DUP3 PUSH4 0xFFFFFFFF AND PUSH1 0xE0 SHL DUP2 MSTORE PUSH1 0x4 ADD PUSH2 0x12C0 SWAP2 SWAP1 PUSH2 0x22A4 JUMP JUMPDEST PUSH1 0x20 PUSH1 0x40 MLOAD DUP1 DUP4 SUB DUP2 DUP7 GAS STATICCALL ISZERO DUP1 ISZERO PUSH2 0x12DB JUMPI RETURNDATASIZE PUSH0 PUSH0 RETURNDATACOPY RETURNDATASIZE PUSH0 REVERT JUMPDEST POP POP POP POP PUSH1 0x40 MLOAD RETURNDATASIZE PUSH1 0x1F NOT PUSH1 0x1F DUP3 ADD AND DUP3 ADD DUP1 PUSH1 0x40 MSTORE POP DUP2 ADD SWAP1 PUSH2 0x12FF SWAP2 SWAP1 PUSH2 0x22D1 JUMP JUMPDEST PUSH2 0x133E JUMPI PUSH1 0x40 MLOAD PUSH32 0x8C379A000000000000000000000000000000000000000000000000000000000 DUP2 MSTORE PUSH1 0x4 ADD PUSH2 0x1335 SWAP1 PUSH2 0x23AE JUMP JUMPDEST PUSH1 0x40 MLOAD DUP1 SWAP2 SUB SWAP1 REVERT JUMPDEST JUMPDEST JUMPDEST PUSH1 0x3 PUSH0 DUP6 DUP2 MSTORE PUSH1 0x20 ADD SWAP1 DUP2 MSTORE PUSH1 0x20 ADD PUSH0 KECCAK256 PUSH1 0x40 MLOAD DUP1 PUSH1 0x80 ADD PUSH1 0x40 MSTORE DUP1 DUP6 DUP6 DUP1 DUP1 PUSH1 0x1F ADD PUSH1 0x20 DUP1 SWAP2 DIV MUL PUSH1 0x20 ADD PUSH1 0x40 MLOAD SWAP1 DUP2 ADD PUSH1 0x40 MSTORE DUP1 SWAP4 SWAP3 SWAP2 SWAP1 DUP2 DUP2 MSTORE PUSH1 0x20 ADD DUP4 DUP4 DUP1 DUP3 DUP5 CALLDATACOPY PUSH0 DUP2 DUP5 ADD MSTORE PUSH1 0x1F NOT PUSH1 0x1F DUP3 ADD AND SWAP1 POP DUP1 DUP4 ADD SWAP3 POP POP POP POP POP POP POP DUP2 MSTORE PUSH1 0x20 ADD TIMESTAMP DUP2 MSTORE PUSH1 0x20 ADD PUSH0 ISZERO ISZERO DUP2 MSTORE PUSH1 0x20 ADD CALLER PUSH20 0xFFFFFFFFFFFFFFFFFFFFFFFFFFFFFFFFFFFFFFFF AND DUP2 MSTORE POP SWAP1 DUP1 PUSH1 0x1 DUP2 SLOAD ADD DUP1 DUP3 SSTORE DUP1 SWAP2 POP POP PUSH1 0x1 SWAP1 SUB SWAP1 PUSH0 MSTORE PUSH1 0x20 PUSH0 KECCAK256 SWAP1 PUSH1 0x3 MUL ADD PUSH0 SWAP1 SWAP2 SWAP1 SWAP2 SWAP1 SWAP2 POP PUSH0 DUP3 ADD MLOAD DUP2 PUSH0 ADD SWAP1 DUP2 PUSH2 0x1406 SWAP2 SWAP1 PUSH2 0x25ED JUMP JUMPDEST POP PUSH1 0x20 DUP3 ADD MLOAD DUP2 PUSH1 0x1 ADD SSTORE PUSH1 0x40 DUP3 ADD MLOAD DUP2 PUSH1 0x2 ADD PUSH0 PUSH2 0x100 EXP DUP2 SLOAD DUP2 PUSH1 0xFF MUL NOT AND SWAP1 DUP4 ISZERO ISZERO MUL OR SWAP1 SSTORE POP PUSH1 0x60 DUP3 ADD MLOAD DUP2 PUSH1 0x2 ADD PUSH1 0x1 PUSH2 0x100 EXP DUP2 SLOAD DUP2 PUSH20 0xFFFFFFFFFFFFFFFFFFFFFFFFFFFFFFFFFFFFFFFF MUL NOT AND SWAP1 DUP4 PUSH20 0xFFFFFFFFFFFFFFFFFFFFFFFFFFFFFFFFFFFFFFFF AND MUL OR SWAP1 SSTORE POP POP POP CALLER PUSH20 0xFFFFFFFFFFFFFFFFFFFFFFFFFFFFFFFFFFFFFFFF AND DUP5 PUSH32 0x7501C85D0A5528FCB8B24E8B76029197B6AD4D5D05561490F81D3B9E4F3B01D3 PUSH1 0x1 PUSH1 0x3 PUSH0 DUP10 DUP2 MSTORE PUSH1 0x20 ADD SWAP1 DUP2 MSTORE PUSH1 0x20 ADD PUSH0 KECCAK256 DUP1 SLOAD SWAP1 POP PUSH2 0x14D3 SWAP2 SWAP1 PUSH2 0x2A7F JUMP JUMPDEST DUP7 DUP7 PUSH1 0x40 MLOAD PUSH2 0x14E4 SWAP4 SWAP3 SWAP2 SWAP1 PUSH2 0x2AB2 JUMP JUMPDEST PUSH1 0x40 MLOAD DUP1 SWAP2 SUB SWAP1 LOG3 POP POP POP POP JUMP JUMPDEST PUSH0 PUSH32 0x1FFC9A700000000000000000000000000000000000000000000000000000000 PUSH28 0xFFFFFFFFFFFFFFFFFFFFFFFFFFFFFFFFFFFFFFFFFFFFFFFFFFFFFFFF NOT AND DUP3 PUSH28 0xFFFFFFFFFFFFFFFFFFFFFFFFFFFFFFFFFFFFFFFFFFFFFFFFFFFFFFFF NOT AND EQ SWAP1 POP SWAP2 SWAP1 POP JUMP JUMPDEST PUSH2 0x1563 PUSH2 0xB3E JUMP JUMPDEST ISZERO PUSH2 0x15A3 JUMPI PUSH1 0x40 MLOAD PUSH32 0x8C379A000000000000000000000000000000000000000000000000000000000 DUP2 MSTORE PUSH1 0x4 ADD PUSH2 0x159A SWAP1 PUSH2 0x2B2C JUMP JUMPDEST PUSH1 0x40 MLOAD DUP1 SWAP2 SUB SWAP1 REVERT JUMPDEST JUMP JUMPDEST PUSH2 0x15B6 DUP2 PUSH2 0x15B1 PUSH2 0x1693 JUMP JUMPDEST PUSH2 0x1836 JUMP JUMPDEST POP JUMP JUMPDEST PUSH2 0x15C3 DUP3 DUP3 PUSH2 0xBCC JUMP JUMPDEST PUSH2 0x168F JUMPI PUSH1 0x1 PUSH0 PUSH0 DUP5 DUP2 MSTORE PUSH1 0x20 ADD SWAP1 DUP2 MSTORE PUSH1 0x20 ADD PUSH0 KECCAK256 PUSH0 ADD PUSH0 DUP4 PUSH20 0xFFFFFFFFFFFFFFFFFFFFFFFFFFFFFFFFFFFFFFFF AND PUSH20 0xFFFFFFFFFFFFFFFFFFFFFFFFFFFFFFFFFFFFFFFF AND DUP2 MSTORE PUSH1 0x20 ADD SWAP1 DUP2 MSTORE PUSH1 0x20 ADD PUSH0 KECCAK256 PUSH0 PUSH2 0x100 EXP DUP2 SLOAD DUP2 PUSH1 0xFF MUL NOT AND SWAP1 DUP4 ISZERO ISZERO MUL OR SWAP1 SSTORE POP PUSH2 0x1634 PUSH2 0x1693 JUMP JUMPDEST PUSH20 0xFFFFFFFFFFFFFFFFFFFFFFFFFFFFFFFFFFFFFFFF AND DUP2 PUSH20 0xFFFFFFFFFFFFFFFFFFFFFFFFFFFFFFFFFFFFFFFF AND DUP4 PUSH32 0x2F8788117E7EFF1D82E926EC794901D17C78024A50270940304540A733656F0D PUSH1 0x40 MLOAD PUSH1 0x40 MLOAD DUP1 SWAP2 SUB SWAP1 LOG4 JUMPDEST POP POP JUMP JUMPDEST PUSH0 CALLER SWAP1 POP SWAP1 JUMP JUMPDEST PUSH2 0x16A4 DUP3 DUP3 PUSH2 0xBCC JUMP JUMPDEST ISZERO PUSH2 0x1770 JUMPI PUSH0 PUSH0 PUSH0 DUP5 DUP2 MSTORE PUSH1 0x20 ADD SWAP1 DUP2 MSTORE PUSH1 0x20 ADD PUSH0 KECCAK256 PUSH0 ADD PUSH0 DUP4 PUSH20 0xFFFFFFFFFFFFFFFFFFFFFFFFFFFFFFFFFFFFFFFF AND PUSH20 0xFFFFFFFFFFFFFFFFFFFFFFFFFFFFFFFFFFFFFFFF AND DUP2 MSTORE PUSH1 0x20 ADD SWAP1 DUP2 MSTORE PUSH1 0x20 ADD PUSH0 KECCAK256 PUSH0 PUSH2 0x100 EXP DUP2 SLOAD DUP2 PUSH1 0xFF MUL NOT AND SWAP1 DUP4 ISZERO ISZERO MUL OR SWAP1 SSTORE POP PUSH2 0x1715 PUSH2 0x1693 JUMP JUMPDEST PUSH20 0xFFFFFFFFFFFFFFFFFFFFFFFFFFFFFFFFFFFFFFFF AND DUP2 PUSH20 0xFFFFFFFFFFFFFFFFFFFFFFFFFFFFFFFFFFFFFFFF AND DUP4 PUSH32 0xF6391F5C32D9C69D2A47EA670B442974B53935D1EDC7FD64EB21E047A839171B PUSH1 0x40 MLOAD PUSH1 0x40 MLOAD DUP1 SWAP2 SUB SWAP1 LOG4 JUMPDEST POP POP JUMP JUMPDEST PUSH2 0x177C PUSH2 0x18BA JUMP JUMPDEST PUSH0 PUSH1 0x1 PUSH0 PUSH2 0x100 EXP DUP2 SLOAD DUP2 PUSH1 0xFF MUL NOT AND SWAP1 DUP4 ISZERO ISZERO MUL OR SWAP1 SSTORE POP PUSH32 0x5DB9EE0A495BF2E6FF9C91A7834C1BA4FDD244A5E8AA4E537BD38AEAE4B073AA PUSH2 0x17BE PUSH2 0x1693 JUMP JUMPDEST PUSH1 0x40 MLOAD PUSH2 0x17CB SWAP2 SWAP1 PUSH2 0x22A4 JUMP JUMPDEST PUSH1 0x40 MLOAD DUP1 SWAP2 SUB SWAP1 LOG1 JUMP JUMPDEST PUSH2 0x17DD PUSH2 0x155B JUMP JUMPDEST PUSH1 0x1 DUP1 PUSH0 PUSH2 0x100 EXP DUP2 SLOAD DUP2 PUSH1 0xFF MUL NOT AND SWAP1 DUP4 ISZERO ISZERO MUL OR SWAP1 SSTORE POP PUSH32 0x62E78CEA01BEE320CD4E420270B5EA74000D11B0C9F74754EBDBFC544B05A258 PUSH2 0x181F PUSH2 0x1693 JUMP JUMPDEST PUSH1 0x40 MLOAD PUSH2 0x182C SWAP2 SWAP1 PUSH2 0x22A4 JUMP JUMPDEST PUSH1 0x40 MLOAD DUP1 SWAP2 SUB SWAP1 LOG1 JUMP JUMPDEST PUSH2 0x1840 DUP3 DUP3 PUSH2 0xBCC JUMP JUMPDEST PUSH2 0x18B6 JUMPI PUSH2 0x184D DUP2 PUSH2 0x1903 JUMP JUMPDEST PUSH2 0x185A DUP4 PUSH0 SHR PUSH1 0x20 PUSH2 0x1930 JUMP JUMPDEST PUSH1 0x40 MLOAD PUSH1 0x20 ADD PUSH2 0x186B SWAP3 SWAP2 SWAP1 PUSH2 0x2C18 JUMP JUMPDEST PUSH1 0x40 MLOAD PUSH1 0x20 DUP2 DUP4 SUB SUB DUP2 MSTORE SWAP1 PUSH1 0x40 MSTORE PUSH1 0x40 MLOAD PUSH32 0x8C379A000000000000000000000000000000000000000000000000000000000 DUP2 MSTORE PUSH1 0x4 ADD PUSH2 0x18AD SWAP2 SWAP1 PUSH2 0x2C89 JUMP JUMPDEST PUSH1 0x40 MLOAD DUP1 SWAP2 SUB SWAP1 REVERT JUMPDEST POP POP JUMP JUMPDEST PUSH2 0x18C2 PUSH2 0xB3E JUMP JUMPDEST PUSH2 0x1901 JUMPI PUSH1 0x40 MLOAD PUSH32 0x8C379A000000000000000000000000000000000000000000000000000000000 DUP2 MSTORE PUSH1 0x4 ADD PUSH2 0x18F8 SWAP1 PUSH2 0x2CF3 JUMP JUMPDEST PUSH1 0x40 MLOAD DUP1 SWAP2 SUB SWAP1 REVERT JUMPDEST JUMP JUMPDEST PUSH1 0x60 PUSH2 0x1929 DUP3 PUSH20 0xFFFFFFFFFFFFFFFFFFFFFFFFFFFFFFFFFFFFFFFF AND PUSH1 0x14 PUSH1 0xFF AND PUSH2 0x1930 JUMP JUMPDEST SWAP1 POP SWAP2 SWAP1 POP JUMP JUMPDEST PUSH1 0x60 PUSH0 PUSH1 0x2 DUP4 PUSH1 0x2 PUSH2 0x1942 SWAP2 SWAP1 PUSH2 0x2D11 JUMP JUMPDEST PUSH2 0x194C SWAP2 SWAP1 PUSH2 0x2D52 JUMP JUMPDEST PUSH8 0xFFFFFFFFFFFFFFFF DUP2 GT ISZERO PUSH2 0x1965 JUMPI PUSH2 0x1964 PUSH2 0x23CC JUMP JUMPDEST JUMPDEST PUSH1 0x40 MLOAD SWAP1 DUP1 DUP3 MSTORE DUP1 PUSH1 0x1F ADD PUSH1 0x1F NOT AND PUSH1 0x20 ADD DUP3 ADD PUSH1 0x40 MSTORE DUP1 ISZERO PUSH2 0x1997 JUMPI DUP2 PUSH1 0x20 ADD PUSH1 0x1 DUP3 MUL DUP1 CALLDATASIZE DUP4 CALLDATACOPY DUP1 DUP3 ADD SWAP2 POP POP SWAP1 POP JUMPDEST POP SWAP1 POP PUSH32 0x3000000000000000000000000000000000000000000000000000000000000000 DUP2 PUSH0 DUP2 MLOAD DUP2 LT PUSH2 0x19CE JUMPI PUSH2 0x19CD PUSH2 0x2885 JUMP JUMPDEST JUMPDEST PUSH1 0x20 ADD ADD SWAP1 PUSH31 0xFFFFFFFFFFFFFFFFFFFFFFFFFFFFFFFFFFFFFFFFFFFFFFFFFFFFFFFFFFFFFF NOT AND SWAP1 DUP2 PUSH0 BYTE SWAP1 MSTORE8 POP PUSH32 0x7800000000000000000000000000000000000000000000000000000000000000 DUP2 PUSH1 0x1 DUP2 MLOAD DUP2 LT PUSH2 0x1A31 JUMPI PUSH2 0x1A30 PUSH2 0x2885 JUMP JUMPDEST JUMPDEST PUSH1 0x20 ADD ADD SWAP1 PUSH31 0xFFFFFFFFFFFFFFFFFFFFFFFFFFFFFFFFFFFFFFFFFFFFFFFFFFFFFFFFFFFFFF NOT AND SWAP1 DUP2 PUSH0 BYTE SWAP1 MSTORE8 POP PUSH0 PUSH1 0x1 DUP5 PUSH1 0x2 PUSH2 0x1A6F SWAP2 SWAP1 PUSH2 0x2D11 JUMP JUMPDEST PUSH2 0x1A79 SWAP2 SWAP1 PUSH2 0x2D52 JUMP JUMPDEST SWAP1 POP JUMPDEST PUSH1 0x1 DUP2 GT ISZERO PUSH2 0x1B18 JUMPI PUSH32 0x3031323334353637383961626364656600000000000000000000000000000000 PUSH1 0xF DUP7 AND PUSH1 0x10 DUP2 LT PUSH2 0x1ABB JUMPI PUSH2 0x1ABA PUSH2 0x2885 JUMP JUMPDEST JUMPDEST BYTE PUSH1 0xF8 SHL DUP3 DUP3 DUP2 MLOAD DUP2 LT PUSH2 0x1AD2 JUMPI PUSH2 0x1AD1 PUSH2 0x2885 JUMP JUMPDEST JUMPDEST PUSH1 0x20 ADD ADD SWAP1 PUSH31 0xFFFFFFFFFFFFFFFFFFFFFFFFFFFFFFFFFFFFFFFFFFFFFFFFFFFFFFFFFFFFFF NOT AND SWAP1 DUP2 PUSH0 BYTE SWAP1 MSTORE8 POP PUSH1 0x4 DUP6 SWAP1 SHR SWAP5 POP DUP1 PUSH2 0x1B11 SWAP1 PUSH2 0x2D85 JUMP JUMPDEST SWAP1 POP PUSH2 0x1A7C JUMP JUMPDEST POP PUSH0 DUP5 EQ PUSH2 0x1B5B JUMPI PUSH1 0x40 MLOAD PUSH32 0x8C379A000000000000000000000000000000000000000000000000000000000 DUP2 MSTORE PUSH1 0x4 ADD PUSH2 0x1B52 SWAP1 PUSH2 0x2DF6 JUMP JUMPDEST PUSH1 0x40 MLOAD DUP1 SWAP2 SUB SWAP1 REVERT JUMPDEST DUP1 SWAP2 POP POP SWAP3 SWAP2 POP POP JUMP JUMPDEST PUSH1 0x40 MLOAD DUP1 PUSH1 0x80 ADD PUSH1 0x40 MSTORE DUP1 PUSH1 0x60 DUP2 MSTORE PUSH1 0x20 ADD PUSH0 DUP2 MSTORE PUSH1 0x20 ADD PUSH0 ISZERO ISZERO DUP2 MSTORE PUSH1 0x20 ADD PUSH0 PUSH20 0xFFFFFFFFFFFFFFFFFFFFFFFFFFFFFFFFFFFFFFFF AND DUP2 MSTORE POP SWAP1 JUMP JUMPDEST PUSH0 PUSH0 REVERT JUMPDEST PUSH0 PUSH0 REVERT JUMPDEST PUSH0 PUSH32 0xFFFFFFFF00000000000000000000000000000000000000000000000000000000 DUP3 AND SWAP1 POP SWAP2 SWAP1 POP JUMP JUMPDEST PUSH2 0x1BDE DUP2 PUSH2 0x1BAA JUMP JUMPDEST DUP2 EQ PUSH2 0x1BE8 JUMPI PUSH0 PUSH0 REVERT JUMPDEST POP JUMP JUMPDEST PUSH0 DUP2 CALLDATALOAD SWAP1 POP PUSH2 0x1BF9 DUP2 PUSH2 0x1BD5 JUMP JUMPDEST SWAP3 SWAP2 POP POP JUMP JUMPDEST PUSH0 PUSH1 0x20 DUP3 DUP5 SUB SLT ISZERO PUSH2 0x1C14 JUMPI PUSH2 0x1C13 PUSH2 0x1BA2 JUMP JUMPDEST JUMPDEST PUSH0 PUSH2 0x1C21 DUP5 DUP3 DUP6 ADD PUSH2 0x1BEB JUMP JUMPDEST SWAP2 POP POP SWAP3 SWAP2 POP POP JUMP JUMPDEST PUSH0 DUP2 ISZERO ISZERO SWAP1 POP SWAP2 SWAP1 POP JUMP JUMPDEST PUSH2 0x1C3E DUP2 PUSH2 0x1C2A JUMP JUMPDEST DUP3 MSTORE POP POP JUMP JUMPDEST PUSH0 PUSH1 0x20 DUP3 ADD SWAP1 POP PUSH2 0x1C57 PUSH0 DUP4 ADD DUP5 PUSH2 0x1C35 JUMP JUMPDEST SWAP3 SWAP2 POP POP JUMP JUMPDEST PUSH0 DUP2 SWAP1 POP SWAP2 SWAP1 POP JUMP JUMPDEST PUSH2 0x1C6F DUP2 PUSH2 0x1C5D JUMP JUMPDEST DUP2 EQ PUSH2 0x1C79 JUMPI PUSH0 PUSH0 REVERT JUMPDEST POP JUMP JUMPDEST PUSH0 DUP2 CALLDATALOAD SWAP1 POP PUSH2 0x1C8A DUP2 PUSH2 0x1C66 JUMP JUMPDEST SWAP3 SWAP2 POP POP JUMP JUMPDEST PUSH0 PUSH1 0x20 DUP3 DUP5 SUB SLT ISZERO PUSH2 0x1CA5 JUMPI PUSH2 0x1CA4 PUSH2 0x1BA2 JUMP JUMPDEST JUMPDEST PUSH0 PUSH2 0x1CB2 DUP5 DUP3 DUP6 ADD PUSH2 0x1C7C JUMP JUMPDEST SWAP2 POP POP SWAP3 SWAP2 POP POP JUMP JUMPDEST PUSH32 0x4E487B7100000000000000000000000000000000000000000000000000000000 PUSH0 MSTORE PUSH1 0x21 PUSH1 0x4 MSTORE PUSH1 0x24 PUSH0 REVERT JUMPDEST PUSH1 0x5 DUP2 LT PUSH2 0x1CF9 JUMPI PUSH2 0x1CF8 PUSH2 0x1CBB JUMP JUMPDEST JUMPDEST POP JUMP JUMPDEST PUSH0 DUP2 SWAP1 POP PUSH2 0x1D09 DUP3 PUSH2 0x1CE8 JUMP JUMPDEST SWAP2 SWAP1 POP JUMP JUMPDEST PUSH0 PUSH2 0x1D18 DUP3 PUSH2 0x1CFC JUMP JUMPDEST SWAP1 POP SWAP2 SWAP1 POP JUMP JUMPDEST PUSH2 0x1D28 DUP2 PUSH2 0x1D0E JUMP JUMPDEST DUP3 MSTORE POP POP JUMP JUMPDEST PUSH0 PUSH1 0x20 DUP3 ADD SWAP1 POP PUSH2 0x1D41 PUSH0 DUP4 ADD DUP5 PUSH2 0x1D1F JUMP JUMPDEST SWAP3 SWAP2 POP POP JUMP JUMPDEST PUSH1 0x5 DUP2 LT PUSH2 0x1D53 JUMPI PUSH0 PUSH0 REVERT JUMPDEST POP JUMP JUMPDEST PUSH0 DUP2 CALLDATALOAD SWAP1 POP PUSH2 0x1D64 DUP2 PUSH2 0x1D47 JUMP JUMPDEST SWAP3 SWAP2 POP POP JUMP JUMPDEST PUSH0 PUSH0 REVERT JUMPDEST PUSH0 PUSH0 REVERT JUMPDEST PUSH0 PUSH0 REVERT JUMPDEST PUSH0 PUSH0 DUP4 PUSH1 0x1F DUP5 ADD SLT PUSH2 0x1D8B JUMPI PUSH2 0x1D8A PUSH2 0x1D6A JUMP JUMPDEST JUMPDEST DUP3 CALLDATALOAD SWAP1 POP PUSH8 0xFFFFFFFFFFFFFFFF DUP2 GT ISZERO PUSH2 0x1DA8 JUMPI PUSH2 0x1DA7 PUSH2 0x1D6E JUMP JUMPDEST JUMPDEST PUSH1 0x20 DUP4 ADD SWAP2 POP DUP4 PUSH1 0x1 DUP3 MUL DUP4 ADD GT ISZERO PUSH2 0x1DC4 JUMPI PUSH2 0x1DC3 PUSH2 0x1D72 JUMP JUMPDEST JUMPDEST SWAP3 POP SWAP3 SWAP1 POP JUMP JUMPDEST PUSH0 PUSH0 PUSH0 PUSH0 PUSH0 PUSH0 PUSH1 0x80 DUP8 DUP10 SUB SLT ISZERO PUSH2 0x1DE5 JUMPI PUSH2 0x1DE4 PUSH2 0x1BA2 JUMP JUMPDEST JUMPDEST PUSH0 PUSH2 0x1DF2 DUP10 DUP3 DUP11 ADD PUSH2 0x1C7C JUMP JUMPDEST SWAP7 POP POP PUSH1 0x20 PUSH2 0x1E03 DUP10 DUP3 DUP11 ADD PUSH2 0x1D56 JUMP JUMPDEST SWAP6 POP POP PUSH1 0x40 DUP8 ADD CALLDATALOAD PUSH8 0xFFFFFFFFFFFFFFFF DUP2 GT ISZERO PUSH2 0x1E24 JUMPI PUSH2 0x1E23 PUSH2 0x1BA6 JUMP JUMPDEST JUMPDEST PUSH2 0x1E30 DUP10 DUP3 DUP11 ADD PUSH2 0x1D76 JUMP JUMPDEST SWAP5 POP SWAP5 POP POP PUSH1 0x60 DUP8 ADD CALLDATALOAD PUSH8 0xFFFFFFFFFFFFFFFF DUP2 GT ISZERO PUSH2 0x1E53 JUMPI PUSH2 0x1E52 PUSH2 0x1BA6 JUMP JUMPDEST JUMPDEST PUSH2 0x1E5F DUP10 DUP3 DUP11 ADD PUSH2 0x1D76 JUMP JUMPDEST SWAP3 POP SWAP3 POP POP SWAP3 SWAP6 POP SWAP3 SWAP6 POP SWAP3 SWAP6 JUMP JUMPDEST PUSH2 0x1E77 DUP2 PUSH2 0x1C5D JUMP JUMPDEST DUP3 MSTORE POP POP JUMP JUMPDEST PUSH0 PUSH1 0x20 DUP3 ADD SWAP1 POP PUSH2 0x1E90 PUSH0 DUP4 ADD DUP5 PUSH2 0x1E6E JUMP JUMPDEST SWAP3 SWAP2 POP POP JUMP JUMPDEST PUSH0 PUSH20 0xFFFFFFFFFFFFFFFFFFFFFFFFFFFFFFFFFFFFFFFF DUP3 AND SWAP1 POP SWAP2 SWAP1 POP JUMP JUMPDEST PUSH0 PUSH2 0x1EBF DUP3 PUSH2 0x1E96 JUMP JUMPDEST SWAP1 POP SWAP2 SWAP1 POP JUMP JUMPDEST PUSH2 0x1ECF DUP2 PUSH2 0x1EB5 JUMP JUMPDEST DUP2 EQ PUSH2 0x1ED9 JUMPI PUSH0 PUSH0 REVERT JUMPDEST POP JUMP JUMPDEST PUSH0 DUP2 CALLDATALOAD SWAP1 POP PUSH2 0x1EEA DUP2 PUSH2 0x1EC6 JUMP JUMPDEST SWAP3 SWAP2 POP POP JUMP JUMPDEST PUSH0 PUSH0 PUSH1 0x40 DUP4 DUP6 SUB SLT ISZERO PUSH2 0x1F06 JUMPI PUSH2 0x1F05 PUSH2 0x1BA2 JUMP JUMPDEST JUMPDEST PUSH0 PUSH2 0x1F13 DUP6 DUP3 DUP7 ADD PUSH2 0x1C7C JUMP JUMPDEST SWAP3 POP POP PUSH1 0x20 PUSH2 0x1F24 DUP6 DUP3 DUP7 ADD PUSH2 0x1EDC JUMP JUMPDEST SWAP2 POP POP SWAP3 POP SWAP3 SWAP1 POP JUMP JUMPDEST PUSH2 0x1F37 DUP2 PUSH2 0x1C2A JUMP JUMPDEST DUP2 EQ PUSH2 0x1F41 JUMPI PUSH0 PUSH0 REVERT JUMPDEST POP JUMP JUMPDEST PUSH0 DUP2 CALLDATALOAD SWAP1 POP PUSH2 0x1F52 DUP2 PUSH2 0x1F2E JUMP JUMPDEST SWAP3 SWAP2 POP POP JUMP JUMPDEST PUSH0 PUSH0 PUSH1 0x40 DUP4 DUP6 SUB SLT ISZERO PUSH2 0x1F6E JUMPI PUSH2 0x1F6D PUSH2 0x1BA2 JUMP JUMPDEST JUMPDEST PUSH0 PUSH2 0x1F7B DUP6 DUP3 DUP7 ADD PUSH2 0x1EDC JUMP JUMPDEST SWAP3 POP POP PUSH1 0x20 PUSH2 0x1F8C DUP6 DUP3 DUP7 ADD PUSH2 0x1F44 JUMP JUMPDEST SWAP2 POP POP SWAP3 POP SWAP3 SWAP1 POP JUMP JUMPDEST PUSH0 DUP2 SWAP1 POP SWAP2 SWAP1 POP JUMP JUMPDEST PUSH0 PUSH2 0x1FB9 PUSH2 0x1FB4 PUSH2 0x1FAF DUP5 PUSH2 0x1E96 JUMP JUMPDEST PUSH2 0x1F96 JUMP JUMPDEST PUSH2 0x1E96 JUMP JUMPDEST SWAP1 POP SWAP2 SWAP1 POP JUMP JUMPDEST PUSH0 PUSH2 0x1FCA DUP3 PUSH2 0x1F9F JUMP JUMPDEST SWAP1 POP SWAP2 SWAP1 POP JUMP JUMPDEST PUSH0 PUSH2 0x1FDB DUP3 PUSH2 0x1FC0 JUMP JUMPDEST SWAP1 POP SWAP2 SWAP1 POP JUMP JUMPDEST PUSH2 0x1FEB DUP2 PUSH2 0x1FD1 JUMP JUMPDEST DUP3 MSTORE POP POP JUMP JUMPDEST PUSH0 PUSH1 0x20 DUP3 ADD SWAP1 POP PUSH2 0x2004 PUSH0 DUP4 ADD DUP5 PUSH2 0x1FE2 JUMP JUMPDEST SWAP3 SWAP2 POP POP JUMP JUMPDEST PUSH0 DUP2 SWAP1 POP SWAP2 SWAP1 POP JUMP JUMPDEST PUSH2 0x201C DUP2 PUSH2 0x200A JUMP JUMPDEST DUP2 EQ PUSH2 0x2026 JUMPI PUSH0 PUSH0 REVERT JUMPDEST POP JUMP JUMPDEST PUSH0 DUP2 CALLDATALOAD SWAP1 POP PUSH2 0x2037 DUP2 PUSH2 0x2013 JUMP JUMPDEST SWAP3 SWAP2 POP POP JUMP JUMPDEST PUSH0 PUSH0 PUSH1 0x40 DUP4 DUP6 SUB SLT ISZERO PUSH2 0x2053 JUMPI PUSH2 0x2052 PUSH2 0x1BA2 JUMP JUMPDEST JUMPDEST PUSH0 PUSH2 0x2060 DUP6 DUP3 DUP7 ADD PUSH2 0x1C7C JUMP JUMPDEST SWAP3 POP POP PUSH1 0x20 PUSH2 0x2071 DUP6 DUP3 DUP7 ADD PUSH2 0x2029 JUMP JUMPDEST SWAP2 POP POP SWAP3 POP SWAP3 SWAP1 POP JUMP JUMPDEST PUSH0 DUP2 MLOAD SWAP1 POP SWAP2 SWAP1 POP JUMP JUMPDEST PUSH0 DUP3 DUP3 MSTORE PUSH1 0x20 DUP3 ADD SWAP1 POP SWAP3 SWAP2 POP POP JUMP JUMPDEST DUP3 DUP2 DUP4 MCOPY PUSH0 DUP4 DUP4 ADD MSTORE POP POP POP JUMP JUMPDEST PUSH0 PUSH1 0x1F NOT PUSH1 0x1F DUP4 ADD AND SWAP1 POP SWAP2 SWAP1 POP JUMP JUMPDEST PUSH0 PUSH2 0x20BD DUP3 PUSH2 0x207B JUMP JUMPDEST PUSH2 0x20C7 DUP2 DUP6 PUSH2 0x2085 JUMP JUMPDEST SWAP4 POP PUSH2 0x20D7 DUP2 DUP6 PUSH1 0x20 DUP7 ADD PUSH2 0x2095 JUMP JUMPDEST PUSH2 0x20E0 DUP2 PUSH2 0x20A3 JUMP JUMPDEST DUP5 ADD SWAP2 POP POP SWAP3 SWAP2 POP POP JUMP JUMPDEST PUSH2 0x20F4 DUP2 PUSH2 0x200A JUMP JUMPDEST DUP3 MSTORE POP POP JUMP JUMPDEST PUSH2 0x2103 DUP2 PUSH2 0x1C2A JUMP JUMPDEST DUP3 MSTORE POP POP JUMP JUMPDEST PUSH2 0x2112 DUP2 PUSH2 0x1EB5 JUMP JUMPDEST DUP3 MSTORE POP POP JUMP JUMPDEST PUSH0 PUSH1 0x80 DUP4 ADD PUSH0 DUP4 ADD MLOAD DUP5 DUP3 SUB PUSH0 DUP7 ADD MSTORE PUSH2 0x2132 DUP3 DUP3 PUSH2 0x20B3 JUMP JUMPDEST SWAP2 POP POP PUSH1 0x20 DUP4 ADD MLOAD PUSH2 0x2147 PUSH1 0x20 DUP7 ADD DUP3 PUSH2 0x20EB JUMP JUMPDEST POP PUSH1 0x40 DUP4 ADD MLOAD PUSH2 0x215A PUSH1 0x40 DUP7 ADD DUP3 PUSH2 0x20FA JUMP JUMPDEST POP PUSH1 0x60 DUP4 ADD MLOAD PUSH2 0x216D PUSH1 0x60 DUP7 ADD DUP3 PUSH2 0x2109 JUMP JUMPDEST POP DUP1 SWAP2 POP POP SWAP3 SWAP2 POP POP JUMP JUMPDEST PUSH0 PUSH1 0x20 DUP3 ADD SWAP1 POP DUP2 DUP2 SUB PUSH0 DUP4 ADD MSTORE PUSH2 0x2190 DUP2 DUP5 PUSH2 0x2118 JUMP JUMPDEST SWAP1 POP SWAP3 SWAP2 POP POP JUMP JUMPDEST PUSH2 0x21A1 DUP2 PUSH2 0x200A JUMP JUMPDEST DUP3 MSTORE POP POP JUMP JUMPDEST PUSH0 PUSH1 0x20 DUP3 ADD SWAP1 POP PUSH2 0x21BA PUSH0 DUP4 ADD DUP5 PUSH2 0x2198 JUMP JUMPDEST SWAP3 SWAP2 POP POP JUMP JUMPDEST PUSH0 PUSH0 PUSH0 PUSH1 0x40 DUP5 DUP7 SUB SLT ISZERO PUSH2 0x21D7 JUMPI PUSH2 0x21D6 PUSH2 0x1BA2 JUMP JUMPDEST JUMPDEST PUSH0 PUSH2 0x21E4 DUP7 DUP3 DUP8 ADD PUSH2 0x1C7C JUMP JUMPDEST SWAP4 POP POP PUSH1 0x20 DUP5 ADD CALLDATALOAD PUSH8 0xFFFFFFFFFFFFFFFF DUP2 GT ISZERO PUSH2 0x2205 JUMPI PUSH2 0x2204 PUSH2 0x1BA6 JUMP JUMPDEST JUMPDEST PUSH2 0x2211 DUP7 DUP3 DUP8 ADD PUSH2 0x1D76 JUMP JUMPDEST SWAP3 POP SWAP3 POP POP SWAP3 POP SWAP3 POP SWAP3 JUMP JUMPDEST PUSH0 DUP3 DUP3 MSTORE PUSH1 0x20 DUP3 ADD SWAP1 POP SWAP3 SWAP2 POP POP JUMP JUMPDEST PUSH32 0x646F632065786973747300000000000000000000000000000000000000000000 PUSH0 DUP3 ADD MSTORE POP JUMP JUMPDEST PUSH0 PUSH2 0x2261 PUSH1 0xA DUP4 PUSH2 0x221D JUMP JUMPDEST SWAP2 POP PUSH2 0x226C DUP3 PUSH2 0x222D JUMP JUMPDEST PUSH1 0x20 DUP3 ADD SWAP1 POP SWAP2 SWAP1 POP JUMP JUMPDEST PUSH0 PUSH1 0x20 DUP3 ADD SWAP1 POP DUP2 DUP2 SUB PUSH0 DUP4 ADD MSTORE PUSH2 0x228E DUP2 PUSH2 0x2255 JUMP JUMPDEST SWAP1 POP SWAP2 SWAP1 POP JUMP JUMPDEST PUSH2 0x229E DUP2 PUSH2 0x1EB5 JUMP JUMPDEST DUP3 MSTORE POP POP JUMP JUMPDEST PUSH0 PUSH1 0x20 DUP3 ADD SWAP1 POP PUSH2 0x22B7 PUSH0 DUP4 ADD DUP5 PUSH2 0x2295 JUMP JUMPDEST SWAP3 SWAP2 POP POP JUMP JUMPDEST PUSH0 DUP2 MLOAD SWAP1 POP PUSH2 0x22CB DUP2 PUSH2 0x1F2E JUMP JUMPDEST SWAP3 SWAP2 POP POP JUMP JUMPDEST PUSH0 PUSH1 0x20 DUP3 DUP5 SUB SLT ISZERO PUSH2 0x22E6 JUMPI PUSH2 0x22E5 PUSH2 0x1BA2 JUMP JUMPDEST JUMPDEST PUSH0 PUSH2 0x22F3 DUP5 DUP3 DUP6 ADD PUSH2 0x22BD JUMP JUMPDEST SWAP2 POP POP SWAP3 SWAP2 POP POP JUMP JUMPDEST PUSH32 0x6A75646765206F6E6C7900000000000000000000000000000000000000000000 PUSH0 DUP3 ADD MSTORE POP JUMP JUMPDEST PUSH0 PUSH2 0x2330 PUSH1 0xA DUP4 PUSH2 0x221D JUMP JUMPDEST SWAP2 POP PUSH2 0x233B DUP3 PUSH2 0x22FC JUMP JUMPDEST PUSH1 0x20 DUP3 ADD SWAP1 POP SWAP2 SWAP1 POP JUMP JUMPDEST PUSH0 PUSH1 0x20 DUP3 ADD SWAP1 POP DUP2 DUP2 SUB PUSH0 DUP4 ADD MSTORE PUSH2 0x235D DUP2 PUSH2 0x2324 JUMP JUMPDEST SWAP1 POP SWAP2 SWAP1 POP JUMP JUMPDEST PUSH32 0x6C6177796572206F6E6C79000000000000000000000000000000000000000000 PUSH0 DUP3 ADD MSTORE POP JUMP JUMPDEST PUSH0 PUSH2 0x2398 PUSH1 0xB DUP4 PUSH2 0x221D JUMP JUMPDEST SWAP2 POP PUSH2 0x23A3 DUP3 PUSH2 0x2364 JUMP JUMPDEST PUSH1 0x20 DUP3 ADD SWAP1 POP SWAP2 SWAP1 POP JUMP JUMPDEST PUSH0 PUSH1 0x20 DUP3 ADD SWAP1 POP DUP2 DUP2 SUB PUSH0 DUP4 ADD MSTORE PUSH2 0x23C5 DUP2 PUSH2 0x238C JUMP JUMPDEST SWAP1 POP SWAP2 SWAP1 POP JUMP JUMPDEST PUSH32 0x4E487B7100000000000000000000000000000000000000000000000000000000 PUSH0 MSTORE PUSH1 0x41 PUSH1 0x4 MSTORE PUSH1 0x24 PUSH0 REVERT JUMPDEST PUSH32 0x4E487B7100000000000000000000000000000000000000000000000000000000 PUSH0 MSTORE PUSH1 0x22 PUSH1 0x4 MSTORE PUSH1 0x24 PUSH0 REVERT JUMPDEST PUSH0 PUSH1 0x2 DUP3 DIV SWAP1 POP PUSH1 0x1 DUP3 AND DUP1 PUSH2 0x243D JUMPI PUSH1 0x7F DUP3 AND SWAP2 POP JUMPDEST PUSH1 0x20 DUP3 LT DUP2 SUB PUSH2 0x2450 JUMPI PUSH2 0x244F PUSH2 0x23F9 JUMP JUMPDEST JUMPDEST POP SWAP2 SWAP1 POP JUMP JUMPDEST PUSH0 DUP2 SWAP1 POP DUP2 PUSH0 MSTORE PUSH1 0x20 PUSH0 KECCAK256 SWAP1 POP SWAP2 SWAP1 POP JUMP JUMPDEST PUSH0 PUSH1 0x20 PUSH1 0x1F DUP4 ADD DIV SWAP1 POP SWAP2 SWAP1 POP JUMP JUMPDEST PUSH0 DUP3 DUP3 SHL SWAP1 POP SWAP3 SWAP2 POP POP JUMP JUMPDEST PUSH0 PUSH1 0x8 DUP4 MUL PUSH2 0x24B2 PUSH32 0xFFFFFFFFFFFFFFFFFFFFFFFFFFFFFFFFFFFFFFFFFFFFFFFFFFFFFFFFFFFFFFFF DUP3 PUSH2 0x2477 JUMP JUMPDEST PUSH2 0x24BC DUP7 DUP4 PUSH2 0x2477 JUMP JUMPDEST SWAP6 POP DUP1 NOT DUP5 AND SWAP4 POP DUP1 DUP7 AND DUP5 OR SWAP3 POP POP POP SWAP4 SWAP3 POP POP POP JUMP JUMPDEST PUSH0 PUSH2 0x24EE PUSH2 0x24E9 PUSH2 0x24E4 DUP5 PUSH2 0x200A JUMP JUMPDEST PUSH2 0x1F96 JUMP JUMPDEST PUSH2 0x200A JUMP JUMPDEST SWAP1 POP SWAP2 SWAP1 POP JUMP JUMPDEST PUSH0 DUP2 SWAP1 POP SWAP2 SWAP1 POP JUMP JUMPDEST PUSH2 0x2507 DUP4 PUSH2 0x24D4 JUMP JUMPDEST PUSH2 0x251B PUSH2 0x2513 DUP3 PUSH2 0x24F5 JUMP JUMPDEST DUP5 DUP5 SLOAD PUSH2 0x2483 JUMP JUMPDEST DUP3 SSTORE POP POP POP POP JUMP JUMPDEST PUSH0 PUSH0 SWAP1 POP SWAP1 JUMP JUMPDEST PUSH2 0x2532 PUSH2 0x2523 JUMP JUMPDEST PUSH2 0x253D DUP2 DUP5 DUP5 PUSH2 0x24FE JUMP JUMPDEST POP POP POP JUMP JUMPDEST JUMPDEST DUP2 DUP2 LT ISZERO PUSH2 0x2560 JUMPI PUSH2 0x2555 PUSH0 DUP3 PUSH2 0x252A JUMP JUMPDEST PUSH1 0x1 DUP2 ADD SWAP1 POP PUSH2 0x2543 JUMP JUMPDEST POP POP JUMP JUMPDEST PUSH1 0x1F DUP3 GT ISZERO PUSH2 0x25A5 JUMPI PUSH2 0x2576 DUP2 PUSH2 0x2456 JUMP JUMPDEST PUSH2 0x257F DUP5 PUSH2 0x2468 JUMP JUMPDEST DUP2 ADD PUSH1 0x20 DUP6 LT ISZERO PUSH2 0x258E JUMPI DUP2 SWAP1 POP JUMPDEST PUSH2 0x25A2 PUSH2 0x259A DUP6 PUSH2 0x2468 JUMP JUMPDEST DUP4 ADD DUP3 PUSH2 0x2542 JUMP JUMPDEST POP POP JUMPDEST POP POP POP JUMP JUMPDEST PUSH0 DUP3 DUP3 SHR SWAP1 POP SWAP3 SWAP2 POP POP JUMP JUMPDEST PUSH0 PUSH2 0x25C5 PUSH0 NOT DUP5 PUSH1 0x8 MUL PUSH2 0x25AA JUMP JUMPDEST NOT DUP1 DUP4 AND SWAP2 POP POP SWAP3 SWAP2 POP POP JUMP JUMPDEST PUSH0 PUSH2 0x25DD DUP4 DUP4 PUSH2 0x25B6 JUMP JUMPDEST SWAP2 POP DUP3 PUSH1 0x2 MUL DUP3 OR SWAP1 POP SWAP3 SWAP2 POP POP JUMP JUMPDEST PUSH2 0x25F6 DUP3 PUSH2 0x207B JUMP JUMPDEST PUSH8 0xFFFFFFFFFFFFFFFF DUP2 GT ISZERO PUSH2 0x260F JUMPI PUSH2 0x260E PUSH2 0x23CC JUMP JUMPDEST JUMPDEST PUSH2 0x2619 DUP3 SLOAD PUSH2 0x2426 JUMP JUMPDEST PUSH2 0x2624 DUP3 DUP3 DUP6 PUSH2 0x2564 JUMP JUMPDEST PUSH0 PUSH1 0x20 SWAP1 POP PUSH1 0x1F DUP4 GT PUSH1 0x1 DUP2 EQ PUSH2 0x2655 JUMPI PUSH0 DUP5 ISZERO PUSH2 0x2643 JUMPI DUP3 DUP8 ADD MLOAD SWAP1 POP JUMPDEST PUSH2 0x264D DUP6 DUP3 PUSH2 0x25D2 JUMP JUMPDEST DUP7 SSTORE POP PUSH2 0x26B4 JUMP JUMPDEST PUSH1 0x1F NOT DUP5 AND PUSH2 0x2663 DUP7 PUSH2 0x2456 JUMP JUMPDEST PUSH0 JUMPDEST DUP3 DUP2 LT ISZERO PUSH2 0x268A JUMPI DUP5 DUP10 ADD MLOAD DUP3 SSTORE PUSH1 0x1 DUP3 ADD SWAP2 POP PUSH1 0x20 DUP6 ADD SWAP5 POP PUSH1 0x20 DUP2 ADD SWAP1 POP PUSH2 0x2665 JUMP JUMPDEST DUP7 DUP4 LT ISZERO PUSH2 0x26A7 JUMPI DUP5 DUP10 ADD MLOAD PUSH2 0x26A3 PUSH1 0x1F DUP10 AND DUP3 PUSH2 0x25B6 JUMP JUMPDEST DUP4 SSTORE POP JUMPDEST PUSH1 0x1 PUSH1 0x2 DUP9 MUL ADD DUP9 SSTORE POP POP POP JUMPDEST POP POP POP POP POP POP JUMP JUMPDEST DUP3 DUP2 DUP4 CALLDATACOPY PUSH0 DUP4 DUP4 ADD MSTORE POP POP POP JUMP JUMPDEST PUSH0 PUSH2 0x26D5 DUP4 DUP6 PUSH2 0x221D JUMP JUMPDEST SWAP4 POP PUSH2 0x26E2 DUP4 DUP6 DUP5 PUSH2 0x26BC JUMP JUMPDEST PUSH2 0x26EB DUP4 PUSH2 0x20A3 JUMP JUMPDEST DUP5 ADD SWAP1 POP SWAP4 SWAP3 POP POP POP JUMP JUMPDEST PUSH0 PUSH1 0x40 DUP3 ADD SWAP1 POP PUSH2 0x2709 PUSH0 DUP4 ADD DUP7 PUSH2 0x1D1F JUMP JUMPDEST DUP2 DUP2 SUB PUSH1 0x20 DUP4 ADD MSTORE PUSH2 0x271C DUP2 DUP5 DUP7 PUSH2 0x26CA JUMP JUMPDEST SWAP1 POP SWAP5 SWAP4 POP POP POP POP JUMP JUMPDEST PUSH0 DUP2 SWAP1 POP SWAP2 SWAP1 POP JUMP JUMPDEST PUSH0 PUSH2 0x2749 PUSH2 0x2744 PUSH2 0x273F DUP5 PUSH2 0x2726 JUMP JUMPDEST PUSH2 0x1F96 JUMP JUMPDEST PUSH2 0x200A JUMP JUMPDEST SWAP1 POP SWAP2 SWAP1 POP JUMP JUMPDEST PUSH2 0x2759 DUP2 PUSH2 0x272F JUMP JUMPDEST DUP3 MSTORE POP POP JUMP JUMPDEST PUSH0 PUSH1 0x40 DUP3 ADD SWAP1 POP PUSH2 0x2772 PUSH0 DUP4 ADD DUP7 PUSH2 0x2750 JUMP JUMPDEST DUP2 DUP2 SUB PUSH1 0x20 DUP4 ADD MSTORE PUSH2 0x2785 DUP2 DUP5 DUP7 PUSH2 0x26CA JUMP JUMPDEST SWAP1 POP SWAP5 SWAP4 POP POP POP POP JUMP JUMPDEST PUSH32 0x416363657373436F6E74726F6C3A2063616E206F6E6C792072656E6F756E6365 PUSH0 DUP3 ADD MSTORE PUSH32 0x20726F6C657320666F722073656C660000000000000000000000000000000000 PUSH1 0x20 DUP3 ADD MSTORE POP JUMP JUMPDEST PUSH0 PUSH2 0x27E9 PUSH1 0x2F DUP4 PUSH2 0x221D JUMP JUMPDEST SWAP2 POP PUSH2 0x27F4 DUP3 PUSH2 0x278F JUMP JUMPDEST PUSH1 0x40 DUP3 ADD SWAP1 POP SWAP2 SWAP1 POP JUMP JUMPDEST PUSH0 PUSH1 0x20 DUP3 ADD SWAP1 POP DUP2 DUP2 SUB PUSH0 DUP4 ADD MSTORE PUSH2 0x2816 DUP2 PUSH2 0x27DD JUMP JUMPDEST SWAP1 POP SWAP2 SWAP1 POP JUMP JUMPDEST PUSH32 0x4E6F742061646D696E0000000000000000000000000000000000000000000000 PUSH0 DUP3 ADD MSTORE POP JUMP JUMPDEST PUSH0 PUSH2 0x2851 PUSH1 0x9 DUP4 PUSH2 0x221D JUMP JUMPDEST SWAP2 POP PUSH2 0x285C DUP3 PUSH2 0x281D JUMP JUMPDEST PUSH1 0x20 DUP3 ADD SWAP1 POP SWAP2 SWAP1 POP JUMP JUMPDEST PUSH0 PUSH1 0x20 DUP3 ADD SWAP1 POP DUP2 DUP2 SUB PUSH0 DUP4 ADD MSTORE PUSH2 0x287E DUP2 PUSH2 0x2845 JUMP JUMPDEST SWAP1 POP SWAP2 SWAP1 POP JUMP JUMPDEST PUSH32 0x4E487B7100000000000000000000000000000000000000000000000000000000 PUSH0 MSTORE PUSH1 0x32 PUSH1 0x4 MSTORE PUSH1 0x24 PUSH0 REVERT JUMPDEST PUSH32 0x62616420696E6465780000000000000000000000000000000000000000000000 PUSH0 DUP3 ADD MSTORE POP JUMP JUMPDEST PUSH0 PUSH2 0x28E6 PUSH1 0x9 DUP4 PUSH2 0x221D JUMP JUMPDEST SWAP2 POP PUSH2 0x28F1 DUP3 PUSH2 0x28B2 JUMP JUMPDEST PUSH1 0x20 DUP3 ADD SWAP1 POP SWAP2 SWAP1 POP JUMP JUMPDEST PUSH0 PUSH1 0x20 DUP3 ADD SWAP1 POP DUP2 DUP2 SUB PUSH0 DUP4 ADD MSTORE PUSH2 0x2913 DUP2 PUSH2 0x28DA JUMP JUMPDEST SWAP1 POP SWAP2 SWAP1 POP JUMP JUMPDEST PUSH32 0x616C7265616479207265766F6B65640000000000000000000000000000000000 PUSH0 DUP3 ADD MSTORE POP JUMP JUMPDEST PUSH0 PUSH2 0x294E PUSH1 0xF DUP4 PUSH2 0x221D JUMP JUMPDEST SWAP2 POP PUSH2 0x2959 DUP3 PUSH2 0x291A JUMP JUMPDEST PUSH1 0x20 DUP3 ADD SWAP1 POP SWAP2 SWAP1 POP JUMP JUMPDEST PUSH0 PUSH1 0x20 DUP3 ADD SWAP1 POP DUP2 DUP2 SUB PUSH0 DUP4 ADD MSTORE PUSH2 0x297B DUP2 PUSH2 0x2942 JUMP JUMPDEST SWAP1 POP SWAP2 SWAP1 POP JUMP JUMPDEST PUSH32 0x6E6F7420617574686F722F61646D696E00000000000000000000000000000000 PUSH0 DUP3 ADD MSTORE POP JUMP JUMPDEST PUSH0 PUSH2 0x29B6 PUSH1 0x10 DUP4 PUSH2 0x221D JUMP JUMPDEST SWAP2 POP PUSH2 0x29C1 DUP3 PUSH2 0x2982 JUMP JUMPDEST PUSH1 0x20 DUP3 ADD SWAP1 POP SWAP2 SWAP1 POP JUMP JUMPDEST PUSH0 PUSH1 0x20 DUP3 ADD SWAP1 POP DUP2 DUP2 SUB PUSH0 DUP4 ADD MSTORE PUSH2 0x29E3 DUP2 PUSH2 0x29AA JUMP JUMPDEST SWAP1 POP SWAP2 SWAP1 POP JUMP JUMPDEST PUSH32 0x6E6F20646F630000000000000000000000000000000000000000000000000000 PUSH0 DUP3 ADD MSTORE POP JUMP JUMPDEST PUSH0 PUSH2 0x2A1E PUSH1 0x6 DUP4 PUSH2 0x221D JUMP JUMPDEST SWAP2 POP PUSH2 0x2A29 DUP3 PUSH2 0x29EA JUMP JUMPDEST PUSH1 0x20 DUP3 ADD SWAP1 POP SWAP2 SWAP1 POP JUMP JUMPDEST PUSH0 PUSH1 0x20 DUP3 ADD SWAP1 POP DUP2 DUP2 SUB PUSH0 DUP4 ADD MSTORE PUSH2 0x2A4B DUP2 PUSH2 0x2A12 JUMP JUMPDEST SWAP1 POP SWAP2 SWAP1 POP JUMP JUMPDEST PUSH32 0x4E487B7100000000000000000000000000000000000000000000000000000000 PUSH0 MSTORE PUSH1 0x11 PUSH1 0x4 MSTORE PUSH1 0x24 PUSH0 REVERT JUMPDEST PUSH0 PUSH2 0x2A89 DUP3 PUSH2 0x200A JUMP JUMPDEST SWAP2 POP PUSH2 0x2A94 DUP4 PUSH2 0x200A JUMP JUMPDEST SWAP3 POP DUP3 DUP3 SUB SWAP1 POP DUP2 DUP2 GT ISZERO PUSH2 0x2AAC JUMPI PUSH2 0x2AAB PUSH2 0x2A52 JUMP JUMPDEST JUMPDEST SWAP3 SWAP2 POP POP JUMP JUMPDEST PUSH0 PUSH1 0x40 DUP3 ADD SWAP1 POP PUSH2 0x2AC5 PUSH0 DUP4 ADD DUP7 PUSH2 0x2198 JUMP JUMPDEST DUP2 DUP2 SUB PUSH1 0x20 DUP4 ADD MSTORE PUSH2 0x2AD8 DUP2 DUP5 DUP7 PUSH2 0x26CA JUMP JUMPDEST SWAP1 POP SWAP5 SWAP4 POP POP POP POP JUMP JUMPDEST PUSH32 0x5061757361626C653A2070617573656400000000000000000000000000000000 PUSH0 DUP3 ADD MSTORE POP JUMP JUMPDEST PUSH0 PUSH2 0x2B16 PUSH1 0x10 DUP4 PUSH2 0x221D JUMP JUMPDEST SWAP2 POP PUSH2 0x2B21 DUP3 PUSH2 0x2AE2 JUMP JUMPDEST PUSH1 0x20 DUP3 ADD SWAP1 POP SWAP2 SWAP1 POP JUMP JUMPDEST PUSH0 PUSH1 0x20 DUP3 ADD SWAP1 POP DUP2 DUP2 SUB PUSH0 DUP4 ADD MSTORE PUSH2 0x2B43 DUP2 PUSH2 0x2B0A JUMP JUMPDEST SWAP1 POP SWAP2 SWAP1 POP JUMP JUMPDEST PUSH0 DUP2 SWAP1 POP SWAP3 SWAP2 POP POP JUMP JUMPDEST PUSH32 0x416363657373436F6E74726F6C3A206163636F756E7420000000000000000000 PUSH0 DUP3 ADD MSTORE POP JUMP JUMPDEST PUSH0 PUSH2 0x2B88 PUSH1 0x17 DUP4 PUSH2 0x2B4A JUMP JUMPDEST SWAP2 POP PUSH2 0x2B93 DUP3 PUSH2 0x2B54 JUMP JUMPDEST PUSH1 0x17 DUP3 ADD SWAP1 POP SWAP2 SWAP1 POP JUMP JUMPDEST PUSH0 PUSH2 0x2BA8 DUP3 PUSH2 0x207B JUMP JUMPDEST PUSH2 0x2BB2 DUP2 DUP6 PUSH2 0x2B4A JUMP JUMPDEST SWAP4 POP PUSH2 0x2BC2 DUP2 DUP6 PUSH1 0x20 DUP7 ADD PUSH2 0x2095 JUMP JUMPDEST DUP1 DUP5 ADD SWAP2 POP POP SWAP3 SWAP2 POP POP JUMP JUMPDEST PUSH32 0x206973206D697373696E6720726F6C6520000000000000000000000000000000 PUSH0 DUP3 ADD MSTORE POP JUMP JUMPDEST PUSH0 PUSH2 0x2C02 PUSH1 0x11 DUP4 PUSH2 0x2B4A JUMP JUMPDEST SWAP2 POP PUSH2 0x2C0D DUP3 PUSH2 0x2BCE JUMP JUMPDEST PUSH1 0x11 DUP3 ADD SWAP1 POP SWAP2 SWAP1 POP JUMP JUMPDEST PUSH0 PUSH2 0x2C22 DUP3 PUSH2 0x2B7C JUMP JUMPDEST SWAP2 POP PUSH2 0x2C2E DUP3 DUP6 PUSH2 0x2B9E JUMP JUMPDEST SWAP2 POP PUSH2 0x2C39 DUP3 PUSH2 0x2BF6 JUMP JUMPDEST SWAP2 POP PUSH2 0x2C45 DUP3 DUP5 PUSH2 0x2B9E JUMP JUMPDEST SWAP2 POP DUP2 SWAP1 POP SWAP4 SWAP3 POP POP POP JUMP JUMPDEST PUSH0 PUSH2 0x2C5B DUP3 PUSH2 0x207B JUMP JUMPDEST PUSH2 0x2C65 DUP2 DUP6 PUSH2 0x221D JUMP JUMPDEST SWAP4 POP PUSH2 0x2C75 DUP2 DUP6 PUSH1 0x20 DUP7 ADD PUSH2 0x2095 JUMP JUMPDEST PUSH2 0x2C7E DUP2 PUSH2 0x20A3 JUMP JUMPDEST DUP5 ADD SWAP2 POP POP SWAP3 SWAP2 POP POP JUMP JUMPDEST PUSH0 PUSH1 0x20 DUP3 ADD SWAP1 POP DUP2 DUP2 SUB PUSH0 DUP4 ADD MSTORE PUSH2 0x2CA1 DUP2 DUP5 PUSH2 0x2C51 JUMP JUMPDEST SWAP1 POP SWAP3 SWAP2 POP POP JUMP JUMPDEST PUSH32 0x5061757361626C653A206E6F7420706175736564000000000000000000000000 PUSH0 DUP3 ADD MSTORE POP JUMP JUMPDEST PUSH0 PUSH2 0x2CDD PUSH1 0x14 DUP4 PUSH2 0x221D JUMP JUMPDEST SWAP2 POP PUSH2 0x2CE8 DUP3 PUSH2 0x2CA9 JUMP JUMPDEST PUSH1 0x20 DUP3 ADD SWAP1 POP SWAP2 SWAP1 POP JUMP JUMPDEST PUSH0 PUSH1 0x20 DUP3 ADD SWAP1 POP DUP2 DUP2 SUB PUSH0 DUP4 ADD MSTORE PUSH2 0x2D0A DUP2 PUSH2 0x2CD1 JUMP JUMPDEST SWAP1 POP SWAP2 SWAP1 POP JUMP JUMPDEST PUSH0 PUSH2 0x2D1B DUP3 PUSH2 0x200A JUMP JUMPDEST SWAP2 POP PUSH2 0x2D26 DUP4 PUSH2 0x200A JUMP JUMPDEST SWAP3 POP DUP3 DUP3 MUL PUSH2 0x2D34 DUP2 PUSH2 0x200A JUMP JUMPDEST SWAP2 POP DUP3 DUP3 DIV DUP5 EQ DUP4 ISZERO OR PUSH2 0x2D4B JUMPI PUSH2 0x2D4A PUSH2 0x2A52 JUMP JUMPDEST JUMPDEST POP SWAP3 SWAP2 POP POP JUMP JUMPDEST PUSH0 PUSH2 0x2D5C DUP3 PUSH2 0x200A JUMP JUMPDEST SWAP2 POP PUSH2 0x2D67 DUP4 PUSH2 0x200A JUMP JUMPDEST SWAP3 POP DUP3 DUP3 ADD SWAP1 POP DUP1 DUP3 GT ISZERO PUSH2 0x2D7F JUMPI PUSH2 0x2D7E PUSH2 0x2A52 JUMP JUMPDEST JUMPDEST SWAP3 SWAP2 POP POP JUMP JUMPDEST PUSH0 PUSH2 0x2D8F DUP3 PUSH2 0x200A JUMP JUMPDEST SWAP2 POP PUSH0 DUP3 SUB PUSH2 0x2DA1 JUMPI PUSH2 0x2DA0 PUSH2 0x2A52 JUMP JUMPDEST JUMPDEST PUSH1 0x1 DUP3 SUB SWAP1 POP SWAP2 SWAP1 POP JUMP JUMPDEST PUSH32 0x537472696E67733A20686578206C656E67746820696E73756666696369656E74 PUSH0 DUP3 ADD MSTORE POP JUMP JUMPDEST PUSH0 PUSH2 0x2DE0 PUSH1 0x20 DUP4 PUSH2 0x221D JUMP JUMPDEST SWAP2 POP PUSH2 0x2DEB DUP3 PUSH2 0x2DAC JUMP JUMPDEST PUSH1 0x20 DUP3 ADD SWAP1 POP SWAP2 SWAP1 POP JUMP JUMPDEST PUSH0 PUSH1 0x20 DUP3 ADD SWAP1 POP DUP2 DUP2 SUB PUSH0 DUP4 ADD MSTORE PUSH2 0x2E0D DUP2 PUSH2 0x2DD4 JUMP JUMPDEST SWAP1 POP SWAP2 SWAP1 POP JUMP INVALID LOG2 PUSH5 0x6970667358 0x22 SLT KECCAK256 0xE 0xF PUSH21 0xFAFCF8FD439E9BC4519A9119EAA357379E5F27EF4E OR 0xF6 PUSH31 0x2B0CBFEEE264736F6C634300081E0033000000000000000000000000000000 "
				},
				"gasEstimates": {
					"creation": {
						"codeDepositCost": "2370000",
						"executionCost": "infinite",
						"totalCost": "infinite"
					},
					"external": {
						"DEFAULT_ADMIN_ROLE()": "418",
						"OPERATOR_ROLE()": "413",
						"addVersion(bytes32,string)": "infinite",
						"createDocument(bytes32,uint8,string,string)": "infinite",
						"docTypeOf(bytes32)": "2949",
						"getRoleAdmin(bytes32)": "infinite",
						"getVersion(bytes32,uint256)": "infinite",
						"grantRole(bytes32,address)": "infinite",
						"hasRole(bytes32,address)": "3187",
						"pause()": "30330",
						"paused()": "2584",
						"registry()": "infinite",
						"renounceRole(bytes32,address)": "infinite",
						"revokeRole(bytes32,address)": "infinite",
						"revokeVersion(bytes32,uint256)": "infinite",
						"setOperator(address,bool)": "infinite",
						"supportsInterface(bytes4)": "741",
						"unpause()": "30348",
						"versionCount(bytes32)": "2799"
					}
				},
				"methodIdentifiers": {
					"DEFAULT_ADMIN_ROLE()": "a217fddf",
					"OPERATOR_ROLE()": "f5b541a6",
					"addVersion(bytes32,string)": "f8605b2b",
					"createDocument(bytes32,uint8,string,string)": "0db6e43d",
					"docTypeOf(bytes32)": "03af914f",
					"getRoleAdmin(bytes32)": "248a9ca3",
					"getVersion(bytes32,uint256)": "af904a06",
					"grantRole(bytes32,address)": "2f2ff15d",
					"hasRole(bytes32,address)": "91d14854",
					"pause()": "8456cb59",
					"paused()": "5c975abb",
					"registry()": "7b103999",
					"renounceRole(bytes32,address)": "36568abe",
					"revokeRole(bytes32,address)": "d547741f",
					"revokeVersion(bytes32,uint256)": "c6ad6c69",
					"setOperator(address,bool)": "558a7297",
					"supportsInterface(bytes4)": "01ffc9a7",
					"unpause()": "3f4ba83a",
					"versionCount(bytes32)": "c39e4d22"
				}
			},
			"storageLayout": {
				"storage": [
					{
						"astId": 24,
						"contract": "contracts/ReadyDocs.sol:ReadyDocs",
						"label": "_roles",
						"offset": 0,
						"slot": "0",
						"type": "t_mapping(t_bytes32,t_struct(RoleData)19_storage)"
					},
					{
						"astId": 406,
						"contract": "contracts/ReadyDocs.sol:ReadyDocs",
						"label": "_paused",
						"offset": 0,
						"slot": "1",
						"type": "t_bool"
					},
					{
						"astId": 1795,
						"contract": "contracts/ReadyDocs.sol:ReadyDocs",
						"label": "_docs",
						"offset": 0,
						"slot": "2",
						"type": "t_mapping(t_bytes32,t_struct(DocMeta)1790_storage)"
					},
					{
						"astId": 1801,
						"contract": "contracts/ReadyDocs.sol:ReadyDocs",
						"label": "_versions",
						"offset": 0,
						"slot": "3",
						"type": "t_mapping(t_bytes32,t_array(t_struct(Version)2235_storage)dyn_storage)"
					}
				],
				"types": {
					"t_address": {
						"encoding": "inplace",
						"label": "address",
						"numberOfBytes": "20"
					},
					"t_array(t_struct(Version)2235_storage)dyn_storage": {
						"base": "t_struct(Version)2235_storage",
						"encoding": "dynamic_array",
						"label": "struct IReadyDocs.Version[]",
						"numberOfBytes": "32"
					},
					"t_bool": {
						"encoding": "inplace",
						"label": "bool",
						"numberOfBytes": "1"
					},
					"t_bytes32": {
						"encoding": "inplace",
						"label": "bytes32",
						"numberOfBytes": "32"
					},
					"t_enum(DocType)2226": {
						"encoding": "inplace",
						"label": "enum IReadyDocs.DocType",
						"numberOfBytes": "1"
					},
					"t_mapping(t_address,t_bool)": {
						"encoding": "mapping",
						"key": "t_address",
						"label": "mapping(address => bool)",
						"numberOfBytes": "32",
						"value": "t_bool"
					},
					"t_mapping(t_bytes32,t_array(t_struct(Version)2235_storage)dyn_storage)": {
						"encoding": "mapping",
						"key": "t_bytes32",
						"label": "mapping(bytes32 => struct IReadyDocs.Version[])",
						"numberOfBytes": "32",
						"value": "t_array(t_struct(Version)2235_storage)dyn_storage"
					},
					"t_mapping(t_bytes32,t_struct(DocMeta)1790_storage)": {
						"encoding": "mapping",
						"key": "t_bytes32",
						"label": "mapping(bytes32 => struct ReadyDocs.DocMeta)",
						"numberOfBytes": "32",
						"value": "t_struct(DocMeta)1790_storage"
					},
					"t_mapping(t_bytes32,t_struct(RoleData)19_storage)": {
						"encoding": "mapping",
						"key": "t_bytes32",
						"label": "mapping(bytes32 => struct AccessControl.RoleData)",
						"numberOfBytes": "32",
						"value": "t_struct(RoleData)19_storage"
					},
					"t_string_storage": {
						"encoding": "bytes",
						"label": "string",
						"numberOfBytes": "32"
					},
					"t_struct(DocMeta)1790_storage": {
						"encoding": "inplace",
						"label": "struct ReadyDocs.DocMeta",
						"members": [
							{
								"astId": 1785,
								"contract": "contracts/ReadyDocs.sol:ReadyDocs",
								"label": "docType",
								"offset": 0,
								"slot": "0",
								"type": "t_enum(DocType)2226"
							},
							{
								"astId": 1787,
								"contract": "contracts/ReadyDocs.sol:ReadyDocs",
								"label": "caseId",
								"offset": 0,
								"slot": "1",
								"type": "t_string_storage"
							},
							{
								"astId": 1789,
								"contract": "contracts/ReadyDocs.sol:ReadyDocs",
								"label": "exists",
								"offset": 0,
								"slot": "2",
								"type": "t_bool"
							}
						],
						"numberOfBytes": "96"
					},
					"t_struct(RoleData)19_storage": {
						"encoding": "inplace",
						"label": "struct AccessControl.RoleData",
						"members": [
							{
								"astId": 16,
								"contract": "contracts/ReadyDocs.sol:ReadyDocs",
								"label": "members",
								"offset": 0,
								"slot": "0",
								"type": "t_mapping(t_address,t_bool)"
							},
							{
								"astId": 18,
								"contract": "contracts/ReadyDocs.sol:ReadyDocs",
								"label": "adminRole",
								"offset": 0,
								"slot": "1",
								"type": "t_bytes32"
							}
						],
						"numberOfBytes": "64"
					},
					"t_struct(Version)2235_storage": {
						"encoding": "inplace",
						"label": "struct IReadyDocs.Version",
						"members": [
							{
								"astId": 2228,
								"contract": "contracts/ReadyDocs.sol:ReadyDocs",
								"label": "cid",
								"offset": 0,
								"slot": "0",
								"type": "t_string_storage"
							},
							{
								"astId": 2230,
								"contract": "contracts/ReadyDocs.sol:ReadyDocs",
								"label": "timestamp",
								"offset": 0,
								"slot": "1",
								"type": "t_uint256"
							},
							{
								"astId": 2232,
								"contract": "contracts/ReadyDocs.sol:ReadyDocs",
								"label": "revoked",
								"offset": 0,
								"slot": "2",
								"type": "t_bool"
							},
							{
								"astId": 2234,
								"contract": "contracts/ReadyDocs.sol:ReadyDocs",
								"label": "author",
								"offset": 1,
								"slot": "2",
								"type": "t_address"
							}
						],
						"numberOfBytes": "96"
					},
					"t_uint256": {
						"encoding": "inplace",
						"label": "uint256",
						"numberOfBytes": "32"
					}
				}
			},
			"userdoc": {
				"kind": "user",
				"methods": {},
				"version": 1
			}
		}
	}
}