{
	"contracts/ReadyRoles.sol": {
		"ReadyRoles": {
			"abi": [
				{
					"inputs": [
						{
							"internalType": "address",
							"name": "admin",
							"type": "address"
						}
					],
					"stateMutability": "nonpayable",
					"type": "constructor"
				},
				{
					"anonymous": false,
					"inputs": [
						{
							"indexed": true,
							"internalType": "address",
							"name": "account",
							"type": "address"
						},
						{
							"indexed": false,
							"internalType": "string",
							"name": "profileURI",
							"type": "string"
						},
						{
							"indexed": false,
							"internalType": "bool",
							"name": "approved",
							"type": "bool"
						}
					],
					"name": "JudgeSet",
					"type": "event"
				},
				{
					"anonymous": false,
					"inputs": [
						{
							"indexed": true,
							"internalType": "address",
							"name": "account",
							"type": "address"
						},
						{
							"indexed": false,
							"internalType": "string",
							"name": "profileURI",
							"type": "string"
						}
					],
					"name": "LawyerApproved",
					"type": "event"
				},
				{
					"anonymous": false,
					"inputs": [
						{
							"indexed": true,
							"internalType": "address",
							"name": "account",
							"type": "address"
						}
					],
					"name": "LawyerRevoked",
					"type": "event"
				},
				{
					"anonymous": false,
					"inputs": [
						{
							"indexed": true,
							"internalType": "address",
							"name": "account",
							"type": "address"
						},
						{
							"indexed": false,
							"internalType": "string",
							"name": "profileURI",
							"type": "string"
						}
					],
					"name": "LawyerVerificationRequested",
					"type": "event"
				},
				{
					"anonymous": false,
					"inputs": [
						{
							"indexed": false,
							"internalType": "address",
							"name": "account",
							"type": "address"
						}
					],
					"name": "Paused",
					"type": "event"
				},
				{
					"anonymous": false,
					"inputs": [
						{
							"indexed": true,
							"internalType": "bytes32",
							"name": "role",
							"type": "bytes32"
						},
						{
							"indexed": true,
							"internalType": "bytes32",
							"name": "previousAdminRole",
							"type": "bytes32"
						},
						{
							"indexed": true,
							"internalType": "bytes32",
							"name": "newAdminRole",
							"type": "bytes32"
						}
					],
					"name": "RoleAdminChanged",
					"type": "event"
				},
				{
					"anonymous": false,
					"inputs": [
						{
							"indexed": true,
							"internalType": "bytes32",
							"name": "role",
							"type": "bytes32"
						},
						{
							"indexed": true,
							"internalType": "address",
							"name": "account",
							"type": "address"
						},
						{
							"indexed": true,
							"internalType": "address",
							"name": "sender",
							"type": "address"
						}
					],
					"name": "RoleGranted",
					"type": "event"
				},
				{
					"anonymous": false,
					"inputs": [
						{
							"indexed": true,
							"internalType": "bytes32",
							"name": "role",
							"type": "bytes32"
						},
						{
							"indexed": true,
							"internalType": "address",
							"name": "account",
							"type": "address"
						},
						{
							"indexed": true,
							"internalType": "address",
							"name": "sender",
							"type": "address"
						}
					],
					"name": "RoleRevoked",
					"type": "event"
				},
				{
					"anonymous": false,
					"inputs": [
						{
							"indexed": false,
							"internalType": "address",
							"name": "account",
							"type": "address"
						}
					],
					"name": "Unpaused",
					"type": "event"
				},
				{
					"inputs": [],
					"name": "DEFAULT_ADMIN_ROLE",
					"outputs": [
						{
							"internalType": "bytes32",
							"name": "",
							"type": "bytes32"
						}
					],
					"stateMutability": "view",
					"type": "function"
				},
				{
					"inputs": [],
					"name": "VERIFIER_ROLE",
					"outputs": [
						{
							"internalType": "bytes32",
							"name": "",
							"type": "bytes32"
						}
					],
					"stateMutability": "view",
					"type": "function"
				},
				{
					"inputs": [
						{
							"internalType": "address",
							"name": "account",
							"type": "address"
						}
					],
					"name": "addVerifier",
					"outputs": [],
					"stateMutability": "nonpayable",
					"type": "function"
				},
				{
					"inputs": [
						{
							"internalType": "address",
							"name": "account",
							"type": "address"
						},
						{
							"internalType": "string",
							"name": "profileURI",
							"type": "string"
						}
					],
					"name": "approveLawyer",
					"outputs": [],
					"stateMutability": "nonpayable",
					"type": "function"
				},
				{
					"inputs": [
						{
							"internalType": "bytes32",
							"name": "role",
							"type": "bytes32"
						}
					],
					"name": "getRoleAdmin",
					"outputs": [
						{
							"internalType": "bytes32",
							"name": "",
							"type": "bytes32"
						}
					],
					"stateMutability": "view",
					"type": "function"
				},
				{
					"inputs": [
						{
							"internalType": "bytes32",
							"name": "role",
							"type": "bytes32"
						},
						{
							"internalType": "address",
							"name": "account",
							"type": "address"
						}
					],
					"name": "grantRole",
					"outputs": [],
					"stateMutability": "nonpayable",
					"type": "function"
				},
				{
					"inputs": [
						{
							"internalType": "bytes32",
							"name": "role",
							"type": "bytes32"
						},
						{
							"internalType": "address",
							"name": "account",
							"type": "address"
						}
					],
					"name": "hasRole",
					"outputs": [
						{
							"internalType": "bool",
							"name": "",
							"type": "bool"
						}
					],
					"stateMutability": "view",
					"type": "function"
				},
				{
					"inputs": [
						{
							"internalType": "address",
							"name": "account",
							"type": "address"
						}
					],
					"name": "isJudge",
					"outputs": [
						{
							"internalType": "bool",
							"name": "",
							"type": "bool"
						}
					],
					"stateMutability": "view",
					"type": "function"
				},
				{
					"inputs": [
						{
							"internalType": "address",
							"name": "account",
							"type": "address"
						}
					],
					"name": "isLawyer",
					"outputs": [
						{
							"internalType": "bool",
							"name": "",
							"type": "bool"
						}
					],
					"stateMutability": "view",
					"type": "function"
				},
				{
					"inputs": [
						{
							"internalType": "address",
							"name": "account",
							"type": "address"
						}
					],
					"name": "judgeProfileURI",
					"outputs": [
						{
							"internalType": "string",
							"name": "",
							"type": "string"
						}
					],
					"stateMutability": "view",
					"type": "function"
				},
				{
					"inputs": [
						{
							"internalType": "address",
							"name": "account",
							"type": "address"
						}
					],
					"name": "judgeStatus",
					"outputs": [
						{
							"internalType": "enum ILegalPractitionerRegistry.Status",
							"name": "",
							"type": "uint8"
						}
					],
					"stateMutability": "view",
					"type": "function"
				},
				{
					"inputs": [
						{
							"internalType": "address",
							"name": "account",
							"type": "address"
						}
					],
					"name": "lawyerProfileURI",
					"outputs": [
						{
							"internalType": "string",
							"name": "",
							"type": "string"
						}
					],
					"stateMutability": "view",
					"type": "function"
				},
				{
					"inputs": [
						{
							"internalType": "address",
							"name": "account",
							"type": "address"
						}
					],
					"name": "lawyerStatus",
					"outputs": [
						{
							"internalType": "enum ILegalPractitionerRegistry.Status",
							"name": "",
							"type": "uint8"
						}
					],
					"stateMutability": "view",
					"type": "function"
				},
				{
					"inputs": [],
					"name": "pause",
					"outputs": [],
					"stateMutability": "nonpayable",
					"type": "function"
				},
				{
					"inputs": [],
					"name": "paused",
					"outputs": [
						{
							"internalType": "bool",
							"name": "",
							"type": "bool"
						}
					],
					"stateMutability": "view",
					"type": "function"
				},
				{
					"inputs": [
						{
							"internalType": "address",
							"name": "account",
							"type": "address"
						}
					],
					"name": "removeVerifier",
					"outputs": [],
					"stateMutability": "nonpayable",
					"type": "function"
				},
				{
					"inputs": [
						{
							"internalType": "bytes32",
							"name": "role",
							"type": "bytes32"
						},
						{
							"internalType": "address",
							"name": "account",
							"type": "address"
						}
					],
					"name": "renounceRole",
					"outputs": [],
					"stateMutability": "nonpayable",
					"type": "function"
				},
				{
					"inputs": [
						{
							"internalType": "string",
							"name": "profileURI",
							"type": "string"
						}
					],
					"name": "requestLawyerVerification",
					"outputs": [],
					"stateMutability": "nonpayable",
					"type": "function"
				},
				{
					"inputs": [
						{
							"internalType": "address",
							"name": "account",
							"type": "address"
						}
					],
					"name": "revokeLawyer",
					"outputs": [],
					"stateMutability": "nonpayable",
					"type": "function"
				},
				{
					"inputs": [
						{
							"internalType": "bytes32",
							"name": "role",
							"type": "bytes32"
						},
						{
							"internalType": "address",
							"name": "account",
							"type": "address"
						}
					],
					"name": "revokeRole",
					"outputs": [],
					"stateMutability": "nonpayable",
					"type": "function"
				},
				{
					"inputs": [
						{
							"internalType": "address",
							"name": "account",
							"type": "address"
						},
						{
							"internalType": "string",
							"name": "profileURI",
							"type": "string"
						},
						{
							"internalType": "bool",
							"name": "approved",
							"type": "bool"
						}
					],
					"name": "setJudge",
					"outputs": [],
					"stateMutability": "nonpayable",
					"type": "function"
				},
				{
					"inputs": [
						{
							"internalType": "bytes4",
							"name": "interfaceId",
							"type": "bytes4"
						}
					],
					"name": "supportsInterface",
					"outputs": [
						{
							"internalType": "bool",
							"name": "",
							"type": "bool"
						}
					],
					"stateMutability": "view",
					"type": "function"
				},
				{
					"inputs": [],
					"name": "unpause",
					"outputs": [],
					"stateMutability": "nonpayable",
					"type": "function"
				}
			],
			"devdoc": {
				"events": {
					"Paused(address)": {
						"details": "Emitted when the pause is triggered by `account`."
					},
					"RoleAdminChanged(bytes32,bytes32,bytes32)": {
						"details": "Emitted when `newAdminRole` is set as ``role``'s admin role, replacing `previousAdminRole` `DEFAULT_ADMIN_ROLE` is the starting admin for all roles, despite {RoleAdminChanged} not being emitted signaling this. _Available since v3.1._"
					},
					"RoleGranted(bytes32,address,address)": {
						"details": "Emitted when `account` is granted `role`. `sender` is the account that originated the contract call, an admin role bearer except when using {AccessControl-_setupRole}."
					},
					"RoleRevoked(bytes32,address,address)": {
						"details": "Emitted when `account` is revoked `role`. `sender` is the account that originated the contract call:   - if using `revokeRole`, it is the admin role bearer   - if using `renounceRole`, it is the role bearer (i.e. `account`)"
					},
					"Unpaused(address)": {
						"details": "Emitted when the pause is lifted by `account`."
					}
				},
				"kind": "dev",
				"methods": {
					"getRoleAdmin(bytes32)": {
						"details": "Returns the admin role that controls `role`. See {grantRole} and {revokeRole}. To change a role's admin, use {_setRoleAdmin}."
					},
					"grantRole(bytes32,address)": {
						"details": "Grants `role` to `account`. If `account` had not been already granted `role`, emits a {RoleGranted} event. Requirements: - the caller must have ``role``'s admin role. May emit a {RoleGranted} event."
					},
					"hasRole(bytes32,address)": {
						"details": "Returns `true` if `account` has been granted `role`."
					},
					"paused()": {
						"details": "Returns true if the contract is paused, and false otherwise."
					},
					"renounceRole(bytes32,address)": {
						"details": "Revokes `role` from the calling account. Roles are often managed via {grantRole} and {revokeRole}: this function's purpose is to provide a mechanism for accounts to lose their privileges if they are compromised (such as when a trusted device is misplaced). If the calling account had been revoked `role`, emits a {RoleRevoked} event. Requirements: - the caller must be `account`. May emit a {RoleRevoked} event."
					},
					"revokeRole(bytes32,address)": {
						"details": "Revokes `role` from `account`. If `account` had been granted `role`, emits a {RoleRevoked} event. Requirements: - the caller must have ``role``'s admin role. May emit a {RoleRevoked} event."
					},
					"supportsInterface(bytes4)": {
						"details": "See {IERC165-supportsInterface}."
					}
				},
				"version": 1
			},
			"evm": {
				"assembly": "    /* \"contracts/ReadyRoles.sol\":250:3808  contract ReadyRoles is AccessControl, Pausable, ILegalPractitionerRegistry {... */\n  mstore(0x40, 0x80)\n    /* \"contracts/ReadyRoles.sol\":955:1081  constructor(address admin) {... */\n  callvalue\n  dup1\n  iszero\n  tag_1\n  jumpi\n  revert(0x00, 0x00)\ntag_1:\n  pop\n  mload(0x40)\n  sub(codesize, bytecodeSize)\n  dup1\n  bytecodeSize\n  dup4\n  codecopy\n  dup2\n  dup2\n  add\n  0x40\n  mstore\n  dup2\n  add\n  swap1\n  tag_2\n  swap2\n  swap1\n  tag_3\n  jump\t// in\ntag_2:\n    /* \"@openzeppelin/contracts@4.9.6/security/Pausable.sol\":1006:1011  false */\n  0x00\n    /* \"@openzeppelin/contracts@4.9.6/security/Pausable.sol\":996:1003  _paused */\n  0x01\n  0x00\n    /* \"@openzeppelin/contracts@4.9.6/security/Pausable.sol\":996:1011  _paused = false */\n  0x0100\n  exp\n  dup2\n  sload\n  dup2\n  0xff\n  mul\n  not\n  and\n  swap1\n  dup4\n  iszero\n  iszero\n  mul\n  or\n  swap1\n  sstore\n  pop\n    /* \"contracts/ReadyRoles.sol\":993:1030  _grantRole(DEFAULT_ADMIN_ROLE, admin) */\n  tag_8\n    /* \"@openzeppelin/contracts@4.9.6/access/AccessControl.sol\":2198:2202  0x00 */\n  0x00\n    /* \"contracts/ReadyRoles.sol\":1004:1022  DEFAULT_ADMIN_ROLE */\n  0x00\n  shl\n    /* \"contracts/ReadyRoles.sol\":1024:1029  admin */\n  dup3\n    /* \"contracts/ReadyRoles.sol\":993:1003  _grantRole */\n  shl(0x20, tag_9)\n    /* \"contracts/ReadyRoles.sol\":993:1030  _grantRole(DEFAULT_ADMIN_ROLE, admin) */\n  0x20\n  shr\n  jump\t// in\ntag_8:\n    /* \"contracts/ReadyRoles.sol\":1041:1073  _grantRole(VERIFIER_ROLE, admin) */\n  tag_10\n    /* \"contracts/ReadyRoles.sol\":372:398  keccak256(\"VERIFIER_ROLE\") */\n  0x0ce23c3e399818cfee81a7ab0880f714e53d7672b08df0fa62f2843416e1ea09\n    /* \"contracts/ReadyRoles.sol\":1067:1072  admin */\n  dup3\n    /* \"contracts/ReadyRoles.sol\":1041:1051  _grantRole */\n  shl(0x20, tag_9)\n    /* \"contracts/ReadyRoles.sol\":1041:1073  _grantRole(VERIFIER_ROLE, admin) */\n  0x20\n  shr\n  jump\t// in\ntag_10:\n    /* \"contracts/ReadyRoles.sol\":955:1081  constructor(address admin) {... */\n  pop\n    /* \"contracts/ReadyRoles.sol\":250:3808  contract ReadyRoles is AccessControl, Pausable, ILegalPractitionerRegistry {... */\n  jump(tag_11)\n    /* \"@openzeppelin/contracts@4.9.6/access/AccessControl.sol\":7587:7820  function _grantRole(bytes32 role, address account) internal virtual {... */\ntag_9:\n    /* \"@openzeppelin/contracts@4.9.6/access/AccessControl.sol\":7670:7692  hasRole(role, account) */\n  tag_13\n    /* \"@openzeppelin/contracts@4.9.6/access/AccessControl.sol\":7678:7682  role */\n  dup3\n    /* \"@openzeppelin/contracts@4.9.6/access/AccessControl.sol\":7684:7691  account */\n  dup3\n    /* \"@openzeppelin/contracts@4.9.6/access/AccessControl.sol\":7670:7677  hasRole */\n  shl(0x20, tag_14)\n    /* \"@openzeppelin/contracts@4.9.6/access/AccessControl.sol\":7670:7692  hasRole(role, account) */\n  0x20\n  shr\n  jump\t// in\ntag_13:\n    /* \"@openzeppelin/contracts@4.9.6/access/AccessControl.sol\":7665:7814  if (!hasRole(role, account)) {... */\n  tag_15\n  jumpi\n    /* \"@openzeppelin/contracts@4.9.6/access/AccessControl.sol\":7740:7744  true */\n  0x01\n    /* \"@openzeppelin/contracts@4.9.6/access/AccessControl.sol\":7708:7714  _roles */\n  0x00\n    /* \"@openzeppelin/contracts@4.9.6/access/AccessControl.sol\":7708:7720  _roles[role] */\n  0x00\n    /* \"@openzeppelin/contracts@4.9.6/access/AccessControl.sol\":7715:7719  role */\n  dup5\n    /* \"@openzeppelin/contracts@4.9.6/access/AccessControl.sol\":7708:7720  _roles[role] */\n  dup2\n  mstore\n  0x20\n  add\n  swap1\n  dup2\n  mstore\n  0x20\n  add\n  0x00\n  keccak256\n    /* \"@openzeppelin/contracts@4.9.6/access/AccessControl.sol\":7708:7728  _roles[role].members */\n  0x00\n  add\n    /* \"@openzeppelin/contracts@4.9.6/access/AccessControl.sol\":7708:7737  _roles[role].members[account] */\n  0x00\n    /* \"@openzeppelin/contracts@4.9.6/access/AccessControl.sol\":7729:7736  account */\n  dup4\n    /* \"@openzeppelin/contracts@4.9.6/access/AccessControl.sol\":7708:7737  _roles[role].members[account] */\n  0xffffffffffffffffffffffffffffffffffffffff\n  and\n  0xffffffffffffffffffffffffffffffffffffffff\n  and\n  dup2\n  mstore\n  0x20\n  add\n  swap1\n  dup2\n  mstore\n  0x20\n  add\n  0x00\n  keccak256\n  0x00\n    /* \"@openzeppelin/contracts@4.9.6/access/AccessControl.sol\":7708:7744  _roles[role].members[account] = true */\n  0x0100\n  exp\n  dup2\n  sload\n  dup2\n  0xff\n  mul\n  not\n  and\n  swap1\n  dup4\n  iszero\n  iszero\n  mul\n  or\n  swap1\n  sstore\n  pop\n    /* \"@openzeppelin/contracts@4.9.6/access/AccessControl.sol\":7790:7802  _msgSender() */\n  tag_16\n    /* \"@openzeppelin/contracts@4.9.6/access/AccessControl.sol\":7790:7800  _msgSender */\n  shl(0x20, tag_17)\n    /* \"@openzeppelin/contracts@4.9.6/access/AccessControl.sol\":7790:7802  _msgSender() */\n  0x20\n  shr\n  jump\t// in\ntag_16:\n    /* \"@openzeppelin/contracts@4.9.6/access/AccessControl.sol\":7763:7803  RoleGranted(role, account, _msgSender()) */\n  0xffffffffffffffffffffffffffffffffffffffff\n  and\n    /* \"@openzeppelin/contracts@4.9.6/access/AccessControl.sol\":7781:7788  account */\n  dup2\n    /* \"@openzeppelin/contracts@4.9.6/access/AccessControl.sol\":7763:7803  RoleGranted(role, account, _msgSender()) */\n  0xffffffffffffffffffffffffffffffffffffffff\n  and\n    /* \"@openzeppelin/contracts@4.9.6/access/AccessControl.sol\":7775:7779  role */\n  dup4\n    /* \"@openzeppelin/contracts@4.9.6/access/AccessControl.sol\":7763:7803  RoleGranted(role, account, _msgSender()) */\n  0x2f8788117e7eff1d82e926ec794901d17c78024a50270940304540a733656f0d\n  mload(0x40)\n  mload(0x40)\n  dup1\n  swap2\n  sub\n  swap1\n  log4\n    /* \"@openzeppelin/contracts@4.9.6/access/AccessControl.sol\":7665:7814  if (!hasRole(role, account)) {... */\ntag_15:\n    /* \"@openzeppelin/contracts@4.9.6/access/AccessControl.sol\":7587:7820  function _grantRole(bytes32 role, address account) internal virtual {... */\n  pop\n  pop\n  jump\t// out\n    /* \"@openzeppelin/contracts@4.9.6/access/AccessControl.sol\":3021:3166  function hasRole(bytes32 role, address account) public view virtual override returns (bool) {... */\ntag_14:\n    /* \"@openzeppelin/contracts@4.9.6/access/AccessControl.sol\":3107:3111  bool */\n  0x00\n    /* \"@openzeppelin/contracts@4.9.6/access/AccessControl.sol\":3130:3136  _roles */\n  0x00\n    /* \"@openzeppelin/contracts@4.9.6/access/AccessControl.sol\":3130:3142  _roles[role] */\n  0x00\n    /* \"@openzeppelin/contracts@4.9.6/access/AccessControl.sol\":3137:3141  role */\n  dup5\n    /* \"@openzeppelin/contracts@4.9.6/access/AccessControl.sol\":3130:3142  _roles[role] */\n  dup2\n  mstore\n  0x20\n  add\n  swap1\n  dup2\n  mstore\n  0x20\n  add\n  0x00\n  keccak256\n    /* \"@openzeppelin/contracts@4.9.6/access/AccessControl.sol\":3130:3150  _roles[role].members */\n  0x00\n  add\n    /* \"@openzeppelin/contracts@4.9.6/access/AccessControl.sol\":3130:3159  _roles[role].members[account] */\n  0x00\n    /* \"@openzeppelin/contracts@4.9.6/access/AccessControl.sol\":3151:3158  account */\n  dup4\n    /* \"@openzeppelin/contracts@4.9.6/access/AccessControl.sol\":3130:3159  _roles[role].members[account] */\n  0xffffffffffffffffffffffffffffffffffffffff\n  and\n  0xffffffffffffffffffffffffffffffffffffffff\n  and\n  dup2\n  mstore\n  0x20\n  add\n  swap1\n  dup2\n  mstore\n  0x20\n  add\n  0x00\n  keccak256\n  0x00\n  swap1\n  sload\n  swap1\n  0x0100\n  exp\n  swap1\n  div\n  0xff\n  and\n    /* \"@openzeppelin/contracts@4.9.6/access/AccessControl.sol\":3123:3159  return _roles[role].members[account] */\n  swap1\n  pop\n    /* \"@openzeppelin/contracts@4.9.6/access/AccessControl.sol\":3021:3166  function hasRole(bytes32 role, address account) public view virtual override returns (bool) {... */\n  swap3\n  swap2\n  pop\n  pop\n  jump\t// out\n    /* \"@openzeppelin/contracts@4.9.6/utils/Context.sol\":655:751  function _msgSender() internal view virtual returns (address) {... */\ntag_17:\n    /* \"@openzeppelin/contracts@4.9.6/utils/Context.sol\":708:715  address */\n  0x00\n    /* \"@openzeppelin/contracts@4.9.6/utils/Context.sol\":734:744  msg.sender */\n  caller\n    /* \"@openzeppelin/contracts@4.9.6/utils/Context.sol\":727:744  return msg.sender */\n  swap1\n  pop\n    /* \"@openzeppelin/contracts@4.9.6/utils/Context.sol\":655:751  function _msgSender() internal view virtual returns (address) {... */\n  swap1\n  jump\t// out\n    /* \"#utility.yul\":88:205   */\ntag_21:\n    /* \"#utility.yul\":197:198   */\n  0x00\n    /* \"#utility.yul\":194:195   */\n  0x00\n    /* \"#utility.yul\":187:199   */\n  revert\n    /* \"#utility.yul\":334:460   */\ntag_23:\n    /* \"#utility.yul\":371:378   */\n  0x00\n    /* \"#utility.yul\":411:453   */\n  0xffffffffffffffffffffffffffffffffffffffff\n    /* \"#utility.yul\":404:409   */\n  dup3\n    /* \"#utility.yul\":400:454   */\n  and\n    /* \"#utility.yul\":389:454   */\n  swap1\n  pop\n    /* \"#utility.yul\":334:460   */\n  swap2\n  swap1\n  pop\n  jump\t// out\n    /* \"#utility.yul\":466:562   */\ntag_24:\n    /* \"#utility.yul\":503:510   */\n  0x00\n    /* \"#utility.yul\":532:556   */\n  tag_33\n    /* \"#utility.yul\":550:555   */\n  dup3\n    /* \"#utility.yul\":532:556   */\n  tag_23\n  jump\t// in\ntag_33:\n    /* \"#utility.yul\":521:556   */\n  swap1\n  pop\n    /* \"#utility.yul\":466:562   */\n  swap2\n  swap1\n  pop\n  jump\t// out\n    /* \"#utility.yul\":568:690   */\ntag_25:\n    /* \"#utility.yul\":641:665   */\n  tag_35\n    /* \"#utility.yul\":659:664   */\n  dup2\n    /* \"#utility.yul\":641:665   */\n  tag_24\n  jump\t// in\ntag_35:\n    /* \"#utility.yul\":634:639   */\n  dup2\n    /* \"#utility.yul\":631:666   */\n  eq\n    /* \"#utility.yul\":621:684   */\n  tag_36\n  jumpi\n    /* \"#utility.yul\":680:681   */\n  0x00\n    /* \"#utility.yul\":677:678   */\n  0x00\n    /* \"#utility.yul\":670:682   */\n  revert\n    /* \"#utility.yul\":621:684   */\ntag_36:\n    /* \"#utility.yul\":568:690   */\n  pop\n  jump\t// out\n    /* \"#utility.yul\":696:839   */\ntag_26:\n    /* \"#utility.yul\":753:758   */\n  0x00\n    /* \"#utility.yul\":784:790   */\n  dup2\n    /* \"#utility.yul\":778:791   */\n  mload\n    /* \"#utility.yul\":769:791   */\n  swap1\n  pop\n    /* \"#utility.yul\":800:833   */\n  tag_38\n    /* \"#utility.yul\":827:832   */\n  dup2\n    /* \"#utility.yul\":800:833   */\n  tag_25\n  jump\t// in\ntag_38:\n    /* \"#utility.yul\":696:839   */\n  swap3\n  swap2\n  pop\n  pop\n  jump\t// out\n    /* \"#utility.yul\":845:1196   */\ntag_3:\n    /* \"#utility.yul\":915:921   */\n  0x00\n    /* \"#utility.yul\":964:966   */\n  0x20\n    /* \"#utility.yul\":952:961   */\n  dup3\n    /* \"#utility.yul\":943:950   */\n  dup5\n    /* \"#utility.yul\":939:962   */\n  sub\n    /* \"#utility.yul\":935:967   */\n  slt\n    /* \"#utility.yul\":932:1051   */\n  iszero\n  tag_40\n  jumpi\n    /* \"#utility.yul\":970:1049   */\n  tag_41\n  tag_21\n  jump\t// in\ntag_41:\n    /* \"#utility.yul\":932:1051   */\ntag_40:\n    /* \"#utility.yul\":1090:1091   */\n  0x00\n    /* \"#utility.yul\":1115:1179   */\n  tag_42\n    /* \"#utility.yul\":1171:1178   */\n  dup5\n    /* \"#utility.yul\":1162:1168   */\n  dup3\n    /* \"#utility.yul\":1151:1160   */\n  dup6\n    /* \"#utility.yul\":1147:1169   */\n  add\n    /* \"#utility.yul\":1115:1179   */\n  tag_26\n  jump\t// in\ntag_42:\n    /* \"#utility.yul\":1105:1179   */\n  swap2\n  pop\n    /* \"#utility.yul\":1061:1189   */\n  pop\n    /* \"#utility.yul\":845:1196   */\n  swap3\n  swap2\n  pop\n  pop\n  jump\t// out\n    /* \"contracts/ReadyRoles.sol\":250:3808  contract ReadyRoles is AccessControl, Pausable, ILegalPractitionerRegistry {... */\ntag_11:\n  dataSize(sub_0)\n  dup1\n  dataOffset(sub_0)\n  0x00\n  codecopy\n  0x00\n  return\nstop\n\nsub_0: assembly {\n        /* \"contracts/ReadyRoles.sol\":250:3808  contract ReadyRoles is AccessControl, Pausable, ILegalPractitionerRegistry {... */\n      mstore(0x40, 0x80)\n      callvalue\n      dup1\n      iszero\n      tag_1\n      jumpi\n      revert(0x00, 0x00)\n    tag_1:\n      pop\n      jumpi(tag_2, lt(calldatasize, 0x04))\n      shr(0xe0, calldataload(0x00))\n      dup1\n      0x74bc116e\n      gt\n      tag_26\n      jumpi\n      dup1\n      0xc4eab79b\n      gt\n      tag_27\n      jumpi\n      dup1\n      0xc4eab79b\n      eq\n      tag_20\n      jumpi\n      dup1\n      0xca2dfd0a\n      eq\n      tag_21\n      jumpi\n      dup1\n      0xd28eaf85\n      eq\n      tag_22\n      jumpi\n      dup1\n      0xd547741f\n      eq\n      tag_23\n      jumpi\n      dup1\n      0xe7705db6\n      eq\n      tag_24\n      jumpi\n      dup1\n      0xed896d66\n      eq\n      tag_25\n      jumpi\n      jump(tag_2)\n    tag_27:\n      dup1\n      0x74bc116e\n      eq\n      tag_14\n      jumpi\n      dup1\n      0x78213c25\n      eq\n      tag_15\n      jumpi\n      dup1\n      0x8456cb59\n      eq\n      tag_16\n      jumpi\n      dup1\n      0x9000b3d6\n      eq\n      tag_17\n      jumpi\n      dup1\n      0x91d14854\n      eq\n      tag_18\n      jumpi\n      dup1\n      0xa217fddf\n      eq\n      tag_19\n      jumpi\n      jump(tag_2)\n    tag_26:\n      dup1\n      0x2f2ff15d\n      gt\n      tag_28\n      jumpi\n      dup1\n      0x2f2ff15d\n      eq\n      tag_8\n      jumpi\n      dup1\n      0x36568abe\n      eq\n      tag_9\n      jumpi\n      dup1\n      0x3e277782\n      eq\n      tag_10\n      jumpi\n      dup1\n      0x3f4ba83a\n      eq\n      tag_11\n      jumpi\n      dup1\n      0x5939a84e\n      eq\n      tag_12\n      jumpi\n      dup1\n      0x5c975abb\n      eq\n      tag_13\n      jumpi\n      jump(tag_2)\n    tag_28:\n      dup1\n      0x01ffc9a7\n      eq\n      tag_3\n      jumpi\n      dup1\n      0x16fbabca\n      eq\n      tag_4\n      jumpi\n      dup1\n      0x18ff1103\n      eq\n      tag_5\n      jumpi\n      dup1\n      0x248a9ca3\n      eq\n      tag_6\n      jumpi\n      dup1\n      0x2db9fc5f\n      eq\n      tag_7\n      jumpi\n    tag_2:\n      revert(0x00, 0x00)\n        /* \"@openzeppelin/contracts@4.9.6/access/AccessControl.sol\":2732:2934  function supportsInterface(bytes4 interfaceId) public view virtual override returns (bool) {... */\n    tag_3:\n      tag_29\n      0x04\n      dup1\n      calldatasize\n      sub\n      dup2\n      add\n      swap1\n      tag_30\n      swap2\n      swap1\n      tag_31\n      jump\t// in\n    tag_30:\n      tag_32\n      jump\t// in\n    tag_29:\n      mload(0x40)\n      tag_33\n      swap2\n      swap1\n      tag_34\n      jump\t// in\n    tag_33:\n      mload(0x40)\n      dup1\n      swap2\n      sub\n      swap1\n      return\n        /* \"contracts/ReadyRoles.sol\":3380:3507  function judgeStatus(address account) external view override returns (Status) {... */\n    tag_4:\n      tag_35\n      0x04\n      dup1\n      calldatasize\n      sub\n      dup2\n      add\n      swap1\n      tag_36\n      swap2\n      swap1\n      tag_37\n      jump\t// in\n    tag_36:\n      tag_38\n      jump\t// in\n    tag_35:\n      mload(0x40)\n      tag_39\n      swap2\n      swap1\n      tag_40\n      jump\t// in\n    tag_39:\n      mload(0x40)\n      dup1\n      swap2\n      sub\n      swap1\n      return\n        /* \"contracts/ReadyRoles.sol\":3513:3657  function lawyerProfileURI(address account) external view override returns (string memory) {... */\n    tag_5:\n      tag_41\n      0x04\n      dup1\n      calldatasize\n      sub\n      dup2\n      add\n      swap1\n      tag_42\n      swap2\n      swap1\n      tag_37\n      jump\t// in\n    tag_42:\n      tag_43\n      jump\t// in\n    tag_41:\n      mload(0x40)\n      tag_44\n      swap2\n      swap1\n      tag_45\n      jump\t// in\n    tag_44:\n      mload(0x40)\n      dup1\n      swap2\n      sub\n      swap1\n      return\n        /* \"@openzeppelin/contracts@4.9.6/access/AccessControl.sol\":4504:4633  function getRoleAdmin(bytes32 role) public view virtual override returns (bytes32) {... */\n    tag_6:\n      tag_46\n      0x04\n      dup1\n      calldatasize\n      sub\n      dup2\n      add\n      swap1\n      tag_47\n      swap2\n      swap1\n      tag_48\n      jump\t// in\n    tag_47:\n      tag_49\n      jump\t// in\n    tag_46:\n      mload(0x40)\n      tag_50\n      swap2\n      swap1\n      tag_51\n      jump\t// in\n    tag_50:\n      mload(0x40)\n      dup1\n      swap2\n      sub\n      swap1\n      return\n        /* \"contracts/ReadyRoles.sol\":1934:2204  function approveLawyer(address account, string calldata profileURI) external whenNotPaused onlyRole(VERIFIER_ROLE) {... */\n    tag_7:\n      tag_52\n      0x04\n      dup1\n      calldatasize\n      sub\n      dup2\n      add\n      swap1\n      tag_53\n      swap2\n      swap1\n      tag_54\n      jump\t// in\n    tag_53:\n      tag_55\n      jump\t// in\n    tag_52:\n      stop\n        /* \"@openzeppelin/contracts@4.9.6/access/AccessControl.sol\":4929:5074  function grantRole(bytes32 role, address account) public virtual override onlyRole(getRoleAdmin(role)) {... */\n    tag_8:\n      tag_56\n      0x04\n      dup1\n      calldatasize\n      sub\n      dup2\n      add\n      swap1\n      tag_57\n      swap2\n      swap1\n      tag_58\n      jump\t// in\n    tag_57:\n      tag_59\n      jump\t// in\n    tag_56:\n      stop\n        /* \"@openzeppelin/contracts@4.9.6/access/AccessControl.sol\":6038:6252  function renounceRole(bytes32 role, address account) public virtual override {... */\n    tag_9:\n      tag_60\n      0x04\n      dup1\n      calldatasize\n      sub\n      dup2\n      add\n      swap1\n      tag_61\n      swap2\n      swap1\n      tag_58\n      jump\t// in\n    tag_61:\n      tag_62\n      jump\t// in\n    tag_60:\n      stop\n        /* \"contracts/ReadyRoles.sol\":3663:3805  function judgeProfileURI(address account) external view override returns (string memory) {... */\n    tag_10:\n      tag_63\n      0x04\n      dup1\n      calldatasize\n      sub\n      dup2\n      add\n      swap1\n      tag_64\n      swap2\n      swap1\n      tag_37\n      jump\t// in\n    tag_64:\n      tag_65\n      jump\t// in\n    tag_63:\n      mload(0x40)\n      tag_66\n      swap2\n      swap1\n      tag_45\n      jump\t// in\n    tag_66:\n      mload(0x40)\n      dup1\n      swap2\n      sub\n      swap1\n      return\n        /* \"contracts/ReadyRoles.sol\":1194:1266  function unpause() external onlyRole(DEFAULT_ADMIN_ROLE) { _unpause(); } */\n    tag_11:\n      tag_67\n      tag_68\n      jump\t// in\n    tag_67:\n      stop\n        /* \"contracts/ReadyRoles.sol\":2953:3093  function isLawyer(address account) public view override returns (bool) {... */\n    tag_12:\n      tag_69\n      0x04\n      dup1\n      calldatasize\n      sub\n      dup2\n      add\n      swap1\n      tag_70\n      swap2\n      swap1\n      tag_37\n      jump\t// in\n    tag_70:\n      tag_71\n      jump\t// in\n    tag_69:\n      mload(0x40)\n      tag_72\n      swap2\n      swap1\n      tag_34\n      jump\t// in\n    tag_72:\n      mload(0x40)\n      dup1\n      swap2\n      sub\n      swap1\n      return\n        /* \"@openzeppelin/contracts@4.9.6/security/Pausable.sol\":1615:1699  function paused() public view virtual returns (bool) {... */\n    tag_13:\n      tag_73\n      tag_74\n      jump\t// in\n    tag_73:\n      mload(0x40)\n      tag_75\n      swap2\n      swap1\n      tag_34\n      jump\t// in\n    tag_75:\n      mload(0x40)\n      dup1\n      swap2\n      sub\n      swap1\n      return\n        /* \"contracts/ReadyRoles.sol\":2565:2911  function setJudge(address account, string calldata profileURI, bool approved) external whenNotPaused onlyRole(VERIFIER_ROLE) {... */\n    tag_14:\n      tag_76\n      0x04\n      dup1\n      calldatasize\n      sub\n      dup2\n      add\n      swap1\n      tag_77\n      swap2\n      swap1\n      tag_78\n      jump\t// in\n    tag_77:\n      tag_79\n      jump\t// in\n    tag_76:\n      stop\n        /* \"contracts/ReadyRoles.sol\":3245:3374  function lawyerStatus(address account) external view override returns (Status) {... */\n    tag_15:\n      tag_80\n      0x04\n      dup1\n      calldatasize\n      sub\n      dup2\n      add\n      swap1\n      tag_81\n      swap2\n      swap1\n      tag_37\n      jump\t// in\n    tag_81:\n      tag_82\n      jump\t// in\n    tag_80:\n      mload(0x40)\n      tag_83\n      swap2\n      swap1\n      tag_40\n      jump\t// in\n    tag_83:\n      mload(0x40)\n      dup1\n      swap2\n      sub\n      swap1\n      return\n        /* \"contracts/ReadyRoles.sol\":1120:1188  function pause() external onlyRole(DEFAULT_ADMIN_ROLE) { _pause(); } */\n    tag_16:\n      tag_84\n      tag_85\n      jump\t// in\n    tag_84:\n      stop\n        /* \"contracts/ReadyRoles.sol\":1272:1400  function addVerifier(address account) external onlyRole(DEFAULT_ADMIN_ROLE) {... */\n    tag_17:\n      tag_86\n      0x04\n      dup1\n      calldatasize\n      sub\n      dup2\n      add\n      swap1\n      tag_87\n      swap2\n      swap1\n      tag_37\n      jump\t// in\n    tag_87:\n      tag_88\n      jump\t// in\n    tag_86:\n      stop\n        /* \"@openzeppelin/contracts@4.9.6/access/AccessControl.sol\":3021:3166  function hasRole(bytes32 role, address account) public view virtual override returns (bool) {... */\n    tag_18:\n      tag_89\n      0x04\n      dup1\n      calldatasize\n      sub\n      dup2\n      add\n      swap1\n      tag_90\n      swap2\n      swap1\n      tag_58\n      jump\t// in\n    tag_90:\n      tag_91\n      jump\t// in\n    tag_89:\n      mload(0x40)\n      tag_92\n      swap2\n      swap1\n      tag_34\n      jump\t// in\n    tag_92:\n      mload(0x40)\n      dup1\n      swap2\n      sub\n      swap1\n      return\n        /* \"@openzeppelin/contracts@4.9.6/access/AccessControl.sol\":2153:2202  bytes32 public constant DEFAULT_ADMIN_ROLE = 0x00 */\n    tag_19:\n      tag_93\n      tag_94\n      jump\t// in\n    tag_93:\n      mload(0x40)\n      tag_95\n      swap2\n      swap1\n      tag_51\n      jump\t// in\n    tag_95:\n      mload(0x40)\n      dup1\n      swap2\n      sub\n      swap1\n      return\n        /* \"contracts/ReadyRoles.sol\":1570:1926  function requestLawyerVerification(string calldata profileURI) external whenNotPaused {... */\n    tag_20:\n      tag_96\n      0x04\n      dup1\n      calldatasize\n      sub\n      dup2\n      add\n      swap1\n      tag_97\n      swap2\n      swap1\n      tag_98\n      jump\t// in\n    tag_97:\n      tag_99\n      jump\t// in\n    tag_96:\n      stop\n        /* \"contracts/ReadyRoles.sol\":1406:1538  function removeVerifier(address account) external onlyRole(DEFAULT_ADMIN_ROLE) {... */\n    tag_21:\n      tag_100\n      0x04\n      dup1\n      calldatasize\n      sub\n      dup2\n      add\n      swap1\n      tag_101\n      swap2\n      swap1\n      tag_37\n      jump\t// in\n    tag_101:\n      tag_102\n      jump\t// in\n    tag_100:\n      stop\n        /* \"contracts/ReadyRoles.sol\":2212:2534  function revokeLawyer(address account) external whenNotPaused onlyRole(VERIFIER_ROLE) {... */\n    tag_22:\n      tag_103\n      0x04\n      dup1\n      calldatasize\n      sub\n      dup2\n      add\n      swap1\n      tag_104\n      swap2\n      swap1\n      tag_37\n      jump\t// in\n    tag_104:\n      tag_105\n      jump\t// in\n    tag_103:\n      stop\n        /* \"@openzeppelin/contracts@4.9.6/access/AccessControl.sol\":5354:5501  function revokeRole(bytes32 role, address account) public virtual override onlyRole(getRoleAdmin(role)) {... */\n    tag_23:\n      tag_106\n      0x04\n      dup1\n      calldatasize\n      sub\n      dup2\n      add\n      swap1\n      tag_107\n      swap2\n      swap1\n      tag_58\n      jump\t// in\n    tag_107:\n      tag_108\n      jump\t// in\n    tag_106:\n      stop\n        /* \"contracts/ReadyRoles.sol\":332:398  bytes32 public constant VERIFIER_ROLE = keccak256(\"VERIFIER_ROLE\") */\n    tag_24:\n      tag_109\n      tag_110\n      jump\t// in\n    tag_109:\n      mload(0x40)\n      tag_111\n      swap2\n      swap1\n      tag_51\n      jump\t// in\n    tag_111:\n      mload(0x40)\n      dup1\n      swap2\n      sub\n      swap1\n      return\n        /* \"contracts/ReadyRoles.sol\":3099:3237  function isJudge(address account) public view override returns (bool) {... */\n    tag_25:\n      tag_112\n      0x04\n      dup1\n      calldatasize\n      sub\n      dup2\n      add\n      swap1\n      tag_113\n      swap2\n      swap1\n      tag_37\n      jump\t// in\n    tag_113:\n      tag_114\n      jump\t// in\n    tag_112:\n      mload(0x40)\n      tag_115\n      swap2\n      swap1\n      tag_34\n      jump\t// in\n    tag_115:\n      mload(0x40)\n      dup1\n      swap2\n      sub\n      swap1\n      return\n        /* \"@openzeppelin/contracts@4.9.6/access/AccessControl.sol\":2732:2934  function supportsInterface(bytes4 interfaceId) public view virtual override returns (bool) {... */\n    tag_32:\n        /* \"@openzeppelin/contracts@4.9.6/access/AccessControl.sol\":2817:2821  bool */\n      0x00\n        /* \"@openzeppelin/contracts@4.9.6/access/AccessControl.sol\":2855:2887  type(IAccessControl).interfaceId */\n      0x7965db0b00000000000000000000000000000000000000000000000000000000\n        /* \"@openzeppelin/contracts@4.9.6/access/AccessControl.sol\":2840:2887  interfaceId == type(IAccessControl).interfaceId */\n      not(0xffffffffffffffffffffffffffffffffffffffffffffffffffffffff)\n      and\n        /* \"@openzeppelin/contracts@4.9.6/access/AccessControl.sol\":2840:2851  interfaceId */\n      dup3\n        /* \"@openzeppelin/contracts@4.9.6/access/AccessControl.sol\":2840:2887  interfaceId == type(IAccessControl).interfaceId */\n      not(0xffffffffffffffffffffffffffffffffffffffffffffffffffffffff)\n      and\n      eq\n        /* \"@openzeppelin/contracts@4.9.6/access/AccessControl.sol\":2840:2927  interfaceId == type(IAccessControl).interfaceId || super.supportsInterface(interfaceId) */\n      dup1\n      tag_117\n      jumpi\n      pop\n        /* \"@openzeppelin/contracts@4.9.6/access/AccessControl.sol\":2891:2927  super.supportsInterface(interfaceId) */\n      tag_118\n        /* \"@openzeppelin/contracts@4.9.6/access/AccessControl.sol\":2915:2926  interfaceId */\n      dup3\n        /* \"@openzeppelin/contracts@4.9.6/access/AccessControl.sol\":2891:2914  super.supportsInterface */\n      tag_119\n        /* \"@openzeppelin/contracts@4.9.6/access/AccessControl.sol\":2891:2927  super.supportsInterface(interfaceId) */\n      jump\t// in\n    tag_118:\n        /* \"@openzeppelin/contracts@4.9.6/access/AccessControl.sol\":2840:2927  interfaceId == type(IAccessControl).interfaceId || super.supportsInterface(interfaceId) */\n    tag_117:\n        /* \"@openzeppelin/contracts@4.9.6/access/AccessControl.sol\":2833:2927  return interfaceId == type(IAccessControl).interfaceId || super.supportsInterface(interfaceId) */\n      swap1\n      pop\n        /* \"@openzeppelin/contracts@4.9.6/access/AccessControl.sol\":2732:2934  function supportsInterface(bytes4 interfaceId) public view virtual override returns (bool) {... */\n      swap2\n      swap1\n      pop\n      jump\t// out\n        /* \"contracts/ReadyRoles.sol\":3380:3507  function judgeStatus(address account) external view override returns (Status) {... */\n    tag_38:\n        /* \"contracts/ReadyRoles.sol\":3450:3456  Status */\n      0x00\n        /* \"contracts/ReadyRoles.sol\":3476:3483  _judges */\n      0x03\n        /* \"contracts/ReadyRoles.sol\":3476:3492  _judges[account] */\n      0x00\n        /* \"contracts/ReadyRoles.sol\":3484:3491  account */\n      dup4\n        /* \"contracts/ReadyRoles.sol\":3476:3492  _judges[account] */\n      0xffffffffffffffffffffffffffffffffffffffff\n      and\n      0xffffffffffffffffffffffffffffffffffffffff\n      and\n      dup2\n      mstore\n      0x20\n      add\n      swap1\n      dup2\n      mstore\n      0x20\n      add\n      0x00\n      keccak256\n        /* \"contracts/ReadyRoles.sol\":3476:3499  _judges[account].status */\n      0x00\n      add\n      0x00\n      swap1\n      sload\n      swap1\n      0x0100\n      exp\n      swap1\n      div\n      0xff\n      and\n        /* \"contracts/ReadyRoles.sol\":3469:3499  return _judges[account].status */\n      swap1\n      pop\n        /* \"contracts/ReadyRoles.sol\":3380:3507  function judgeStatus(address account) external view override returns (Status) {... */\n      swap2\n      swap1\n      pop\n      jump\t// out\n        /* \"contracts/ReadyRoles.sol\":3513:3657  function lawyerProfileURI(address account) external view override returns (string memory) {... */\n    tag_43:\n        /* \"contracts/ReadyRoles.sol\":3588:3601  string memory */\n      0x60\n        /* \"contracts/ReadyRoles.sol\":3621:3629  _lawyers */\n      0x02\n        /* \"contracts/ReadyRoles.sol\":3621:3638  _lawyers[account] */\n      0x00\n        /* \"contracts/ReadyRoles.sol\":3630:3637  account */\n      dup4\n        /* \"contracts/ReadyRoles.sol\":3621:3638  _lawyers[account] */\n      0xffffffffffffffffffffffffffffffffffffffff\n      and\n      0xffffffffffffffffffffffffffffffffffffffff\n      and\n      dup2\n      mstore\n      0x20\n      add\n      swap1\n      dup2\n      mstore\n      0x20\n      add\n      0x00\n      keccak256\n        /* \"contracts/ReadyRoles.sol\":3621:3649  _lawyers[account].profileURI */\n      0x01\n      add\n        /* \"contracts/ReadyRoles.sol\":3614:3649  return _lawyers[account].profileURI */\n      dup1\n      sload\n      tag_122\n      swap1\n      tag_123\n      jump\t// in\n    tag_122:\n      dup1\n      0x1f\n      add\n      0x20\n      dup1\n      swap2\n      div\n      mul\n      0x20\n      add\n      mload(0x40)\n      swap1\n      dup2\n      add\n      0x40\n      mstore\n      dup1\n      swap3\n      swap2\n      swap1\n      dup2\n      dup2\n      mstore\n      0x20\n      add\n      dup3\n      dup1\n      sload\n      tag_124\n      swap1\n      tag_123\n      jump\t// in\n    tag_124:\n      dup1\n      iszero\n      tag_125\n      jumpi\n      dup1\n      0x1f\n      lt\n      tag_126\n      jumpi\n      0x0100\n      dup1\n      dup4\n      sload\n      div\n      mul\n      dup4\n      mstore\n      swap2\n      0x20\n      add\n      swap2\n      jump(tag_125)\n    tag_126:\n      dup3\n      add\n      swap2\n      swap1\n      0x00\n      mstore\n      keccak256(0x00, 0x20)\n      swap1\n    tag_127:\n      dup2\n      sload\n      dup2\n      mstore\n      swap1\n      0x01\n      add\n      swap1\n      0x20\n      add\n      dup1\n      dup4\n      gt\n      tag_127\n      jumpi\n      dup3\n      swap1\n      sub\n      0x1f\n      and\n      dup3\n      add\n      swap2\n    tag_125:\n      pop\n      pop\n      pop\n      pop\n      pop\n      swap1\n      pop\n        /* \"contracts/ReadyRoles.sol\":3513:3657  function lawyerProfileURI(address account) external view override returns (string memory) {... */\n      swap2\n      swap1\n      pop\n      jump\t// out\n        /* \"@openzeppelin/contracts@4.9.6/access/AccessControl.sol\":4504:4633  function getRoleAdmin(bytes32 role) public view virtual override returns (bytes32) {... */\n    tag_49:\n        /* \"@openzeppelin/contracts@4.9.6/access/AccessControl.sol\":4578:4585  bytes32 */\n      0x00\n        /* \"@openzeppelin/contracts@4.9.6/access/AccessControl.sol\":4604:4610  _roles */\n      0x00\n        /* \"@openzeppelin/contracts@4.9.6/access/AccessControl.sol\":4604:4616  _roles[role] */\n      0x00\n        /* \"@openzeppelin/contracts@4.9.6/access/AccessControl.sol\":4611:4615  role */\n      dup4\n        /* \"@openzeppelin/contracts@4.9.6/access/AccessControl.sol\":4604:4616  _roles[role] */\n      dup2\n      mstore\n      0x20\n      add\n      swap1\n      dup2\n      mstore\n      0x20\n      add\n      0x00\n      keccak256\n        /* \"@openzeppelin/contracts@4.9.6/access/AccessControl.sol\":4604:4626  _roles[role].adminRole */\n      0x01\n      add\n      sload\n        /* \"@openzeppelin/contracts@4.9.6/access/AccessControl.sol\":4597:4626  return _roles[role].adminRole */\n      swap1\n      pop\n        /* \"@openzeppelin/contracts@4.9.6/access/AccessControl.sol\":4504:4633  function getRoleAdmin(bytes32 role) public view virtual override returns (bytes32) {... */\n      swap2\n      swap1\n      pop\n      jump\t// out\n        /* \"contracts/ReadyRoles.sol\":1934:2204  function approveLawyer(address account, string calldata profileURI) external whenNotPaused onlyRole(VERIFIER_ROLE) {... */\n    tag_55:\n        /* \"@openzeppelin/contracts@4.9.6/security/Pausable.sol\":1239:1258  _requireNotPaused() */\n      tag_130\n        /* \"@openzeppelin/contracts@4.9.6/security/Pausable.sol\":1239:1256  _requireNotPaused */\n      tag_131\n        /* \"@openzeppelin/contracts@4.9.6/security/Pausable.sol\":1239:1258  _requireNotPaused() */\n      jump\t// in\n    tag_130:\n        /* \"contracts/ReadyRoles.sol\":372:398  keccak256(\"VERIFIER_ROLE\") */\n      0x0ce23c3e399818cfee81a7ab0880f714e53d7672b08df0fa62f2843416e1ea09\n        /* \"@openzeppelin/contracts@4.9.6/access/AccessControl.sol\":2631:2647  _checkRole(role) */\n      tag_133\n        /* \"@openzeppelin/contracts@4.9.6/access/AccessControl.sol\":2642:2646  role */\n      dup2\n        /* \"@openzeppelin/contracts@4.9.6/access/AccessControl.sol\":2631:2641  _checkRole */\n      tag_134\n        /* \"@openzeppelin/contracts@4.9.6/access/AccessControl.sol\":2631:2647  _checkRole(role) */\n      jump\t// in\n    tag_133:\n        /* \"contracts/ReadyRoles.sol\":2080:2145  Practitioner({ status: Status.Approved, profileURI: profileURI }) */\n      mload(0x40)\n      dup1\n      0x40\n      add\n      0x40\n      mstore\n      dup1\n        /* \"contracts/ReadyRoles.sol\":2103:2118  Status.Approved */\n      0x02\n        /* \"contracts/ReadyRoles.sol\":2080:2145  Practitioner({ status: Status.Approved, profileURI: profileURI }) */\n      0x03\n      dup2\n      gt\n      iszero\n      tag_136\n      jumpi\n      tag_137\n      tag_138\n      jump\t// in\n    tag_137:\n    tag_136:\n      dup2\n      mstore\n      0x20\n      add\n        /* \"contracts/ReadyRoles.sol\":2132:2142  profileURI */\n      dup5\n      dup5\n        /* \"contracts/ReadyRoles.sol\":2080:2145  Practitioner({ status: Status.Approved, profileURI: profileURI }) */\n      dup1\n      dup1\n      0x1f\n      add\n      0x20\n      dup1\n      swap2\n      div\n      mul\n      0x20\n      add\n      mload(0x40)\n      swap1\n      dup2\n      add\n      0x40\n      mstore\n      dup1\n      swap4\n      swap3\n      swap2\n      swap1\n      dup2\n      dup2\n      mstore\n      0x20\n      add\n      dup4\n      dup4\n      dup1\n      dup3\n      dup5\n      calldatacopy\n      0x00\n      dup2\n      dup5\n      add\n      mstore\n      not(0x1f)\n      0x1f\n      dup3\n      add\n      and\n      swap1\n      pop\n      dup1\n      dup4\n      add\n      swap3\n      pop\n      pop\n      pop\n      pop\n      pop\n      pop\n      pop\n      dup2\n      mstore\n      pop\n        /* \"contracts/ReadyRoles.sol\":2060:2068  _lawyers */\n      0x02\n        /* \"contracts/ReadyRoles.sol\":2060:2077  _lawyers[account] */\n      0x00\n        /* \"contracts/ReadyRoles.sol\":2069:2076  account */\n      dup7\n        /* \"contracts/ReadyRoles.sol\":2060:2077  _lawyers[account] */\n      0xffffffffffffffffffffffffffffffffffffffff\n      and\n      0xffffffffffffffffffffffffffffffffffffffff\n      and\n      dup2\n      mstore\n      0x20\n      add\n      swap1\n      dup2\n      mstore\n      0x20\n      add\n      0x00\n      keccak256\n        /* \"contracts/ReadyRoles.sol\":2060:2145  _lawyers[account] = Practitioner({ status: Status.Approved, profileURI: profileURI }) */\n      0x00\n      dup3\n      add\n      mload\n      dup2\n      0x00\n      add\n      exp(0x0100, 0x00)\n      dup2\n      sload\n      dup2\n      0xff\n      mul\n      not\n      and\n      swap1\n      dup4\n      0x03\n      dup2\n      gt\n      iszero\n      tag_139\n      jumpi\n      tag_140\n      tag_138\n      jump\t// in\n    tag_140:\n    tag_139:\n      mul\n      or\n      swap1\n      sstore\n      pop\n      0x20\n      dup3\n      add\n      mload\n      dup2\n      0x01\n      add\n      swap1\n      dup2\n      tag_141\n      swap2\n      swap1\n      tag_142\n      jump\t// in\n    tag_141:\n      pop\n      swap1\n      pop\n      pop\n        /* \"contracts/ReadyRoles.sol\":2176:2183  account */\n      dup4\n        /* \"contracts/ReadyRoles.sol\":2161:2196  LawyerApproved(account, profileURI) */\n      0xffffffffffffffffffffffffffffffffffffffff\n      and\n      0x1e3cd0ceabd235ef13135ef5f66bef5821a65db4e65196a65a9f6e7aa973e23a\n        /* \"contracts/ReadyRoles.sol\":2185:2195  profileURI */\n      dup5\n      dup5\n        /* \"contracts/ReadyRoles.sol\":2161:2196  LawyerApproved(account, profileURI) */\n      mload(0x40)\n      tag_143\n      swap3\n      swap2\n      swap1\n      tag_144\n      jump\t// in\n    tag_143:\n      mload(0x40)\n      dup1\n      swap2\n      sub\n      swap1\n      log2\n        /* \"@openzeppelin/contracts@4.9.6/security/Pausable.sol\":1268:1269  _ */\n      pop\n        /* \"contracts/ReadyRoles.sol\":1934:2204  function approveLawyer(address account, string calldata profileURI) external whenNotPaused onlyRole(VERIFIER_ROLE) {... */\n      pop\n      pop\n      pop\n      jump\t// out\n        /* \"@openzeppelin/contracts@4.9.6/access/AccessControl.sol\":4929:5074  function grantRole(bytes32 role, address account) public virtual override onlyRole(getRoleAdmin(role)) {... */\n    tag_59:\n        /* \"@openzeppelin/contracts@4.9.6/access/AccessControl.sol\":5012:5030  getRoleAdmin(role) */\n      tag_145\n        /* \"@openzeppelin/contracts@4.9.6/access/AccessControl.sol\":5025:5029  role */\n      dup3\n        /* \"@openzeppelin/contracts@4.9.6/access/AccessControl.sol\":5012:5024  getRoleAdmin */\n      tag_49\n        /* \"@openzeppelin/contracts@4.9.6/access/AccessControl.sol\":5012:5030  getRoleAdmin(role) */\n      jump\t// in\n    tag_145:\n        /* \"@openzeppelin/contracts@4.9.6/access/AccessControl.sol\":2631:2647  _checkRole(role) */\n      tag_147\n        /* \"@openzeppelin/contracts@4.9.6/access/AccessControl.sol\":2642:2646  role */\n      dup2\n        /* \"@openzeppelin/contracts@4.9.6/access/AccessControl.sol\":2631:2641  _checkRole */\n      tag_134\n        /* \"@openzeppelin/contracts@4.9.6/access/AccessControl.sol\":2631:2647  _checkRole(role) */\n      jump\t// in\n    tag_147:\n        /* \"@openzeppelin/contracts@4.9.6/access/AccessControl.sol\":5042:5067  _grantRole(role, account) */\n      tag_149\n        /* \"@openzeppelin/contracts@4.9.6/access/AccessControl.sol\":5053:5057  role */\n      dup4\n        /* \"@openzeppelin/contracts@4.9.6/access/AccessControl.sol\":5059:5066  account */\n      dup4\n        /* \"@openzeppelin/contracts@4.9.6/access/AccessControl.sol\":5042:5052  _grantRole */\n      tag_150\n        /* \"@openzeppelin/contracts@4.9.6/access/AccessControl.sol\":5042:5067  _grantRole(role, account) */\n      jump\t// in\n    tag_149:\n        /* \"@openzeppelin/contracts@4.9.6/access/AccessControl.sol\":4929:5074  function grantRole(bytes32 role, address account) public virtual override onlyRole(getRoleAdmin(role)) {... */\n      pop\n      pop\n      pop\n      jump\t// out\n        /* \"@openzeppelin/contracts@4.9.6/access/AccessControl.sol\":6038:6252  function renounceRole(bytes32 role, address account) public virtual override {... */\n    tag_62:\n        /* \"@openzeppelin/contracts@4.9.6/access/AccessControl.sol\":6144:6156  _msgSender() */\n      tag_152\n        /* \"@openzeppelin/contracts@4.9.6/access/AccessControl.sol\":6144:6154  _msgSender */\n      tag_153\n        /* \"@openzeppelin/contracts@4.9.6/access/AccessControl.sol\":6144:6156  _msgSender() */\n      jump\t// in\n    tag_152:\n        /* \"@openzeppelin/contracts@4.9.6/access/AccessControl.sol\":6133:6156  account == _msgSender() */\n      0xffffffffffffffffffffffffffffffffffffffff\n      and\n        /* \"@openzeppelin/contracts@4.9.6/access/AccessControl.sol\":6133:6140  account */\n      dup2\n        /* \"@openzeppelin/contracts@4.9.6/access/AccessControl.sol\":6133:6156  account == _msgSender() */\n      0xffffffffffffffffffffffffffffffffffffffff\n      and\n      eq\n        /* \"@openzeppelin/contracts@4.9.6/access/AccessControl.sol\":6125:6208  require(account == _msgSender(), \"AccessControl: can only renounce roles for self\") */\n      tag_154\n      jumpi\n      mload(0x40)\n      0x08c379a000000000000000000000000000000000000000000000000000000000\n      dup2\n      mstore\n      0x04\n      add\n      tag_155\n      swap1\n      tag_156\n      jump\t// in\n    tag_155:\n      mload(0x40)\n      dup1\n      swap2\n      sub\n      swap1\n      revert\n    tag_154:\n        /* \"@openzeppelin/contracts@4.9.6/access/AccessControl.sol\":6219:6245  _revokeRole(role, account) */\n      tag_157\n        /* \"@openzeppelin/contracts@4.9.6/access/AccessControl.sol\":6231:6235  role */\n      dup3\n        /* \"@openzeppelin/contracts@4.9.6/access/AccessControl.sol\":6237:6244  account */\n      dup3\n        /* \"@openzeppelin/contracts@4.9.6/access/AccessControl.sol\":6219:6230  _revokeRole */\n      tag_158\n        /* \"@openzeppelin/contracts@4.9.6/access/AccessControl.sol\":6219:6245  _revokeRole(role, account) */\n      jump\t// in\n    tag_157:\n        /* \"@openzeppelin/contracts@4.9.6/access/AccessControl.sol\":6038:6252  function renounceRole(bytes32 role, address account) public virtual override {... */\n      pop\n      pop\n      jump\t// out\n        /* \"contracts/ReadyRoles.sol\":3663:3805  function judgeProfileURI(address account) external view override returns (string memory) {... */\n    tag_65:\n        /* \"contracts/ReadyRoles.sol\":3737:3750  string memory */\n      0x60\n        /* \"contracts/ReadyRoles.sol\":3770:3777  _judges */\n      0x03\n        /* \"contracts/ReadyRoles.sol\":3770:3786  _judges[account] */\n      0x00\n        /* \"contracts/ReadyRoles.sol\":3778:3785  account */\n      dup4\n        /* \"contracts/ReadyRoles.sol\":3770:3786  _judges[account] */\n      0xffffffffffffffffffffffffffffffffffffffff\n      and\n      0xffffffffffffffffffffffffffffffffffffffff\n      and\n      dup2\n      mstore\n      0x20\n      add\n      swap1\n      dup2\n      mstore\n      0x20\n      add\n      0x00\n      keccak256\n        /* \"contracts/ReadyRoles.sol\":3770:3797  _judges[account].profileURI */\n      0x01\n      add\n        /* \"contracts/ReadyRoles.sol\":3763:3797  return _judges[account].profileURI */\n      dup1\n      sload\n      tag_160\n      swap1\n      tag_123\n      jump\t// in\n    tag_160:\n      dup1\n      0x1f\n      add\n      0x20\n      dup1\n      swap2\n      div\n      mul\n      0x20\n      add\n      mload(0x40)\n      swap1\n      dup2\n      add\n      0x40\n      mstore\n      dup1\n      swap3\n      swap2\n      swap1\n      dup2\n      dup2\n      mstore\n      0x20\n      add\n      dup3\n      dup1\n      sload\n      tag_161\n      swap1\n      tag_123\n      jump\t// in\n    tag_161:\n      dup1\n      iszero\n      tag_162\n      jumpi\n      dup1\n      0x1f\n      lt\n      tag_163\n      jumpi\n      0x0100\n      dup1\n      dup4\n      sload\n      div\n      mul\n      dup4\n      mstore\n      swap2\n      0x20\n      add\n      swap2\n      jump(tag_162)\n    tag_163:\n      dup3\n      add\n      swap2\n      swap1\n      0x00\n      mstore\n      keccak256(0x00, 0x20)\n      swap1\n    tag_164:\n      dup2\n      sload\n      dup2\n      mstore\n      swap1\n      0x01\n      add\n      swap1\n      0x20\n      add\n      dup1\n      dup4\n      gt\n      tag_164\n      jumpi\n      dup3\n      swap1\n      sub\n      0x1f\n      and\n      dup3\n      add\n      swap2\n    tag_162:\n      pop\n      pop\n      pop\n      pop\n      pop\n      swap1\n      pop\n        /* \"contracts/ReadyRoles.sol\":3663:3805  function judgeProfileURI(address account) external view override returns (string memory) {... */\n      swap2\n      swap1\n      pop\n      jump\t// out\n        /* \"contracts/ReadyRoles.sol\":1194:1266  function unpause() external onlyRole(DEFAULT_ADMIN_ROLE) { _unpause(); } */\n    tag_68:\n        /* \"@openzeppelin/contracts@4.9.6/access/AccessControl.sol\":2198:2202  0x00 */\n      0x00\n        /* \"contracts/ReadyRoles.sol\":1231:1249  DEFAULT_ADMIN_ROLE */\n      0x00\n      shl\n        /* \"@openzeppelin/contracts@4.9.6/access/AccessControl.sol\":2631:2647  _checkRole(role) */\n      tag_166\n        /* \"@openzeppelin/contracts@4.9.6/access/AccessControl.sol\":2642:2646  role */\n      dup2\n        /* \"@openzeppelin/contracts@4.9.6/access/AccessControl.sol\":2631:2641  _checkRole */\n      tag_134\n        /* \"@openzeppelin/contracts@4.9.6/access/AccessControl.sol\":2631:2647  _checkRole(role) */\n      jump\t// in\n    tag_166:\n        /* \"contracts/ReadyRoles.sol\":1253:1263  _unpause() */\n      tag_168\n        /* \"contracts/ReadyRoles.sol\":1253:1261  _unpause */\n      tag_169\n        /* \"contracts/ReadyRoles.sol\":1253:1263  _unpause() */\n      jump\t// in\n    tag_168:\n        /* \"contracts/ReadyRoles.sol\":1194:1266  function unpause() external onlyRole(DEFAULT_ADMIN_ROLE) { _unpause(); } */\n      pop\n      jump\t// out\n        /* \"contracts/ReadyRoles.sol\":2953:3093  function isLawyer(address account) public view override returns (bool) {... */\n    tag_71:\n        /* \"contracts/ReadyRoles.sol\":3018:3022  bool */\n      0x00\n        /* \"contracts/ReadyRoles.sol\":3070:3085  Status.Approved */\n      0x02\n        /* \"contracts/ReadyRoles.sol\":3042:3085  _lawyers[account].status == Status.Approved */\n      0x03\n      dup2\n      gt\n      iszero\n      tag_171\n      jumpi\n      tag_172\n      tag_138\n      jump\t// in\n    tag_172:\n    tag_171:\n        /* \"contracts/ReadyRoles.sol\":3042:3050  _lawyers */\n      0x02\n        /* \"contracts/ReadyRoles.sol\":3042:3059  _lawyers[account] */\n      0x00\n        /* \"contracts/ReadyRoles.sol\":3051:3058  account */\n      dup5\n        /* \"contracts/ReadyRoles.sol\":3042:3059  _lawyers[account] */\n      0xffffffffffffffffffffffffffffffffffffffff\n      and\n      0xffffffffffffffffffffffffffffffffffffffff\n      and\n      dup2\n      mstore\n      0x20\n      add\n      swap1\n      dup2\n      mstore\n      0x20\n      add\n      0x00\n      keccak256\n        /* \"contracts/ReadyRoles.sol\":3042:3066  _lawyers[account].status */\n      0x00\n      add\n      0x00\n      swap1\n      sload\n      swap1\n      0x0100\n      exp\n      swap1\n      div\n      0xff\n      and\n        /* \"contracts/ReadyRoles.sol\":3042:3085  _lawyers[account].status == Status.Approved */\n      0x03\n      dup2\n      gt\n      iszero\n      tag_173\n      jumpi\n      tag_174\n      tag_138\n      jump\t// in\n    tag_174:\n    tag_173:\n      eq\n        /* \"contracts/ReadyRoles.sol\":3035:3085  return _lawyers[account].status == Status.Approved */\n      swap1\n      pop\n        /* \"contracts/ReadyRoles.sol\":2953:3093  function isLawyer(address account) public view override returns (bool) {... */\n      swap2\n      swap1\n      pop\n      jump\t// out\n        /* \"@openzeppelin/contracts@4.9.6/security/Pausable.sol\":1615:1699  function paused() public view virtual returns (bool) {... */\n    tag_74:\n        /* \"@openzeppelin/contracts@4.9.6/security/Pausable.sol\":1662:1666  bool */\n      0x00\n        /* \"@openzeppelin/contracts@4.9.6/security/Pausable.sol\":1685:1692  _paused */\n      0x01\n      0x00\n      swap1\n      sload\n      swap1\n      0x0100\n      exp\n      swap1\n      div\n      0xff\n      and\n        /* \"@openzeppelin/contracts@4.9.6/security/Pausable.sol\":1678:1692  return _paused */\n      swap1\n      pop\n        /* \"@openzeppelin/contracts@4.9.6/security/Pausable.sol\":1615:1699  function paused() public view virtual returns (bool) {... */\n      swap1\n      jump\t// out\n        /* \"contracts/ReadyRoles.sol\":2565:2911  function setJudge(address account, string calldata profileURI, bool approved) external whenNotPaused onlyRole(VERIFIER_ROLE) {... */\n    tag_79:\n        /* \"@openzeppelin/contracts@4.9.6/security/Pausable.sol\":1239:1258  _requireNotPaused() */\n      tag_177\n        /* \"@openzeppelin/contracts@4.9.6/security/Pausable.sol\":1239:1256  _requireNotPaused */\n      tag_131\n        /* \"@openzeppelin/contracts@4.9.6/security/Pausable.sol\":1239:1258  _requireNotPaused() */\n      jump\t// in\n    tag_177:\n        /* \"contracts/ReadyRoles.sol\":372:398  keccak256(\"VERIFIER_ROLE\") */\n      0x0ce23c3e399818cfee81a7ab0880f714e53d7672b08df0fa62f2843416e1ea09\n        /* \"@openzeppelin/contracts@4.9.6/access/AccessControl.sol\":2631:2647  _checkRole(role) */\n      tag_179\n        /* \"@openzeppelin/contracts@4.9.6/access/AccessControl.sol\":2642:2646  role */\n      dup2\n        /* \"@openzeppelin/contracts@4.9.6/access/AccessControl.sol\":2631:2641  _checkRole */\n      tag_134\n        /* \"@openzeppelin/contracts@4.9.6/access/AccessControl.sol\":2631:2647  _checkRole(role) */\n      jump\t// in\n    tag_179:\n        /* \"contracts/ReadyRoles.sol\":2720:2848  Practitioner({... */\n      mload(0x40)\n      dup1\n      0x40\n      add\n      0x40\n      mstore\n      dup1\n        /* \"contracts/ReadyRoles.sol\":2756:2764  approved */\n      dup4\n        /* \"contracts/ReadyRoles.sol\":2756:2799  approved ? Status.Approved : Status.Revoked */\n      tag_181\n      jumpi\n        /* \"contracts/ReadyRoles.sol\":2785:2799  Status.Revoked */\n      0x03\n        /* \"contracts/ReadyRoles.sol\":2756:2799  approved ? Status.Approved : Status.Revoked */\n      jump(tag_182)\n    tag_181:\n        /* \"contracts/ReadyRoles.sol\":2767:2782  Status.Approved */\n      0x02\n        /* \"contracts/ReadyRoles.sol\":2756:2799  approved ? Status.Approved : Status.Revoked */\n    tag_182:\n        /* \"contracts/ReadyRoles.sol\":2720:2848  Practitioner({... */\n      0x03\n      dup2\n      gt\n      iszero\n      tag_183\n      jumpi\n      tag_184\n      tag_138\n      jump\t// in\n    tag_184:\n    tag_183:\n      dup2\n      mstore\n      0x20\n      add\n        /* \"contracts/ReadyRoles.sol\":2826:2836  profileURI */\n      dup6\n      dup6\n        /* \"contracts/ReadyRoles.sol\":2720:2848  Practitioner({... */\n      dup1\n      dup1\n      0x1f\n      add\n      0x20\n      dup1\n      swap2\n      div\n      mul\n      0x20\n      add\n      mload(0x40)\n      swap1\n      dup2\n      add\n      0x40\n      mstore\n      dup1\n      swap4\n      swap3\n      swap2\n      swap1\n      dup2\n      dup2\n      mstore\n      0x20\n      add\n      dup4\n      dup4\n      dup1\n      dup3\n      dup5\n      calldatacopy\n      0x00\n      dup2\n      dup5\n      add\n      mstore\n      not(0x1f)\n      0x1f\n      dup3\n      add\n      and\n      swap1\n      pop\n      dup1\n      dup4\n      add\n      swap3\n      pop\n      pop\n      pop\n      pop\n      pop\n      pop\n      pop\n      dup2\n      mstore\n      pop\n        /* \"contracts/ReadyRoles.sol\":2701:2708  _judges */\n      0x03\n        /* \"contracts/ReadyRoles.sol\":2701:2717  _judges[account] */\n      0x00\n        /* \"contracts/ReadyRoles.sol\":2709:2716  account */\n      dup8\n        /* \"contracts/ReadyRoles.sol\":2701:2717  _judges[account] */\n      0xffffffffffffffffffffffffffffffffffffffff\n      and\n      0xffffffffffffffffffffffffffffffffffffffff\n      and\n      dup2\n      mstore\n      0x20\n      add\n      swap1\n      dup2\n      mstore\n      0x20\n      add\n      0x00\n      keccak256\n        /* \"contracts/ReadyRoles.sol\":2701:2848  _judges[account] = Practitioner({... */\n      0x00\n      dup3\n      add\n      mload\n      dup2\n      0x00\n      add\n      exp(0x0100, 0x00)\n      dup2\n      sload\n      dup2\n      0xff\n      mul\n      not\n      and\n      swap1\n      dup4\n      0x03\n      dup2\n      gt\n      iszero\n      tag_185\n      jumpi\n      tag_186\n      tag_138\n      jump\t// in\n    tag_186:\n    tag_185:\n      mul\n      or\n      swap1\n      sstore\n      pop\n      0x20\n      dup3\n      add\n      mload\n      dup2\n      0x01\n      add\n      swap1\n      dup2\n      tag_187\n      swap2\n      swap1\n      tag_142\n      jump\t// in\n    tag_187:\n      pop\n      swap1\n      pop\n      pop\n        /* \"contracts/ReadyRoles.sol\":2873:2880  account */\n      dup5\n        /* \"contracts/ReadyRoles.sol\":2864:2903  JudgeSet(account, profileURI, approved) */\n      0xffffffffffffffffffffffffffffffffffffffff\n      and\n      0xcffd4fbe2caec14e51f5f5db2de90b994581d0d8a919f3cbb0c960407188d7d1\n        /* \"contracts/ReadyRoles.sol\":2882:2892  profileURI */\n      dup6\n      dup6\n        /* \"contracts/ReadyRoles.sol\":2894:2902  approved */\n      dup6\n        /* \"contracts/ReadyRoles.sol\":2864:2903  JudgeSet(account, profileURI, approved) */\n      mload(0x40)\n      tag_188\n      swap4\n      swap3\n      swap2\n      swap1\n      tag_189\n      jump\t// in\n    tag_188:\n      mload(0x40)\n      dup1\n      swap2\n      sub\n      swap1\n      log2\n        /* \"@openzeppelin/contracts@4.9.6/security/Pausable.sol\":1268:1269  _ */\n      pop\n        /* \"contracts/ReadyRoles.sol\":2565:2911  function setJudge(address account, string calldata profileURI, bool approved) external whenNotPaused onlyRole(VERIFIER_ROLE) {... */\n      pop\n      pop\n      pop\n      pop\n      jump\t// out\n        /* \"contracts/ReadyRoles.sol\":3245:3374  function lawyerStatus(address account) external view override returns (Status) {... */\n    tag_82:\n        /* \"contracts/ReadyRoles.sol\":3316:3322  Status */\n      0x00\n        /* \"contracts/ReadyRoles.sol\":3342:3350  _lawyers */\n      0x02\n        /* \"contracts/ReadyRoles.sol\":3342:3359  _lawyers[account] */\n      0x00\n        /* \"contracts/ReadyRoles.sol\":3351:3358  account */\n      dup4\n        /* \"contracts/ReadyRoles.sol\":3342:3359  _lawyers[account] */\n      0xffffffffffffffffffffffffffffffffffffffff\n      and\n      0xffffffffffffffffffffffffffffffffffffffff\n      and\n      dup2\n      mstore\n      0x20\n      add\n      swap1\n      dup2\n      mstore\n      0x20\n      add\n      0x00\n      keccak256\n        /* \"contracts/ReadyRoles.sol\":3342:3366  _lawyers[account].status */\n      0x00\n      add\n      0x00\n      swap1\n      sload\n      swap1\n      0x0100\n      exp\n      swap1\n      div\n      0xff\n      and\n        /* \"contracts/ReadyRoles.sol\":3335:3366  return _lawyers[account].status */\n      swap1\n      pop\n        /* \"contracts/ReadyRoles.sol\":3245:3374  function lawyerStatus(address account) external view override returns (Status) {... */\n      swap2\n      swap1\n      pop\n      jump\t// out\n        /* \"contracts/ReadyRoles.sol\":1120:1188  function pause() external onlyRole(DEFAULT_ADMIN_ROLE) { _pause(); } */\n    tag_85:\n        /* \"@openzeppelin/contracts@4.9.6/access/AccessControl.sol\":2198:2202  0x00 */\n      0x00\n        /* \"contracts/ReadyRoles.sol\":1155:1173  DEFAULT_ADMIN_ROLE */\n      0x00\n      shl\n        /* \"@openzeppelin/contracts@4.9.6/access/AccessControl.sol\":2631:2647  _checkRole(role) */\n      tag_192\n        /* \"@openzeppelin/contracts@4.9.6/access/AccessControl.sol\":2642:2646  role */\n      dup2\n        /* \"@openzeppelin/contracts@4.9.6/access/AccessControl.sol\":2631:2641  _checkRole */\n      tag_134\n        /* \"@openzeppelin/contracts@4.9.6/access/AccessControl.sol\":2631:2647  _checkRole(role) */\n      jump\t// in\n    tag_192:\n        /* \"contracts/ReadyRoles.sol\":1177:1185  _pause() */\n      tag_194\n        /* \"contracts/ReadyRoles.sol\":1177:1183  _pause */\n      tag_195\n        /* \"contracts/ReadyRoles.sol\":1177:1185  _pause() */\n      jump\t// in\n    tag_194:\n        /* \"contracts/ReadyRoles.sol\":1120:1188  function pause() external onlyRole(DEFAULT_ADMIN_ROLE) { _pause(); } */\n      pop\n      jump\t// out\n        /* \"contracts/ReadyRoles.sol\":1272:1400  function addVerifier(address account) external onlyRole(DEFAULT_ADMIN_ROLE) {... */\n    tag_88:\n        /* \"@openzeppelin/contracts@4.9.6/access/AccessControl.sol\":2198:2202  0x00 */\n      0x00\n        /* \"contracts/ReadyRoles.sol\":1328:1346  DEFAULT_ADMIN_ROLE */\n      0x00\n      shl\n        /* \"@openzeppelin/contracts@4.9.6/access/AccessControl.sol\":2631:2647  _checkRole(role) */\n      tag_197\n        /* \"@openzeppelin/contracts@4.9.6/access/AccessControl.sol\":2642:2646  role */\n      dup2\n        /* \"@openzeppelin/contracts@4.9.6/access/AccessControl.sol\":2631:2641  _checkRole */\n      tag_134\n        /* \"@openzeppelin/contracts@4.9.6/access/AccessControl.sol\":2631:2647  _checkRole(role) */\n      jump\t// in\n    tag_197:\n        /* \"contracts/ReadyRoles.sol\":1359:1392  grantRole(VERIFIER_ROLE, account) */\n      tag_199\n        /* \"contracts/ReadyRoles.sol\":372:398  keccak256(\"VERIFIER_ROLE\") */\n      0x0ce23c3e399818cfee81a7ab0880f714e53d7672b08df0fa62f2843416e1ea09\n        /* \"contracts/ReadyRoles.sol\":1384:1391  account */\n      dup4\n        /* \"contracts/ReadyRoles.sol\":1359:1368  grantRole */\n      tag_59\n        /* \"contracts/ReadyRoles.sol\":1359:1392  grantRole(VERIFIER_ROLE, account) */\n      jump\t// in\n    tag_199:\n        /* \"contracts/ReadyRoles.sol\":1272:1400  function addVerifier(address account) external onlyRole(DEFAULT_ADMIN_ROLE) {... */\n      pop\n      pop\n      jump\t// out\n        /* \"@openzeppelin/contracts@4.9.6/access/AccessControl.sol\":3021:3166  function hasRole(bytes32 role, address account) public view virtual override returns (bool) {... */\n    tag_91:\n        /* \"@openzeppelin/contracts@4.9.6/access/AccessControl.sol\":3107:3111  bool */\n      0x00\n        /* \"@openzeppelin/contracts@4.9.6/access/AccessControl.sol\":3130:3136  _roles */\n      0x00\n        /* \"@openzeppelin/contracts@4.9.6/access/AccessControl.sol\":3130:3142  _roles[role] */\n      0x00\n        /* \"@openzeppelin/contracts@4.9.6/access/AccessControl.sol\":3137:3141  role */\n      dup5\n        /* \"@openzeppelin/contracts@4.9.6/access/AccessControl.sol\":3130:3142  _roles[role] */\n      dup2\n      mstore\n      0x20\n      add\n      swap1\n      dup2\n      mstore\n      0x20\n      add\n      0x00\n      keccak256\n        /* \"@openzeppelin/contracts@4.9.6/access/AccessControl.sol\":3130:3150  _roles[role].members */\n      0x00\n      add\n        /* \"@openzeppelin/contracts@4.9.6/access/AccessControl.sol\":3130:3159  _roles[role].members[account] */\n      0x00\n        /* \"@openzeppelin/contracts@4.9.6/access/AccessControl.sol\":3151:3158  account */\n      dup4\n        /* \"@openzeppelin/contracts@4.9.6/access/AccessControl.sol\":3130:3159  _roles[role].members[account] */\n      0xffffffffffffffffffffffffffffffffffffffff\n      and\n      0xffffffffffffffffffffffffffffffffffffffff\n      and\n      dup2\n      mstore\n      0x20\n      add\n      swap1\n      dup2\n      mstore\n      0x20\n      add\n      0x00\n      keccak256\n      0x00\n      swap1\n      sload\n      swap1\n      0x0100\n      exp\n      swap1\n      div\n      0xff\n      and\n        /* \"@openzeppelin/contracts@4.9.6/access/AccessControl.sol\":3123:3159  return _roles[role].members[account] */\n      swap1\n      pop\n        /* \"@openzeppelin/contracts@4.9.6/access/AccessControl.sol\":3021:3166  function hasRole(bytes32 role, address account) public view virtual override returns (bool) {... */\n      swap3\n      swap2\n      pop\n      pop\n      jump\t// out\n        /* \"@openzeppelin/contracts@4.9.6/access/AccessControl.sol\":2153:2202  bytes32 public constant DEFAULT_ADMIN_ROLE = 0x00 */\n    tag_94:\n        /* \"@openzeppelin/contracts@4.9.6/access/AccessControl.sol\":2198:2202  0x00 */\n      0x00\n        /* \"@openzeppelin/contracts@4.9.6/access/AccessControl.sol\":2153:2202  bytes32 public constant DEFAULT_ADMIN_ROLE = 0x00 */\n      0x00\n      shl\n      dup2\n      jump\t// out\n        /* \"contracts/ReadyRoles.sol\":1570:1926  function requestLawyerVerification(string calldata profileURI) external whenNotPaused {... */\n    tag_99:\n        /* \"@openzeppelin/contracts@4.9.6/security/Pausable.sol\":1239:1258  _requireNotPaused() */\n      tag_202\n        /* \"@openzeppelin/contracts@4.9.6/security/Pausable.sol\":1239:1256  _requireNotPaused */\n      tag_131\n        /* \"@openzeppelin/contracts@4.9.6/security/Pausable.sol\":1239:1258  _requireNotPaused() */\n      jump\t// in\n    tag_202:\n        /* \"contracts/ReadyRoles.sol\":1667:1689  Practitioner storage p */\n      0x00\n        /* \"contracts/ReadyRoles.sol\":1692:1700  _lawyers */\n      0x02\n        /* \"contracts/ReadyRoles.sol\":1692:1712  _lawyers[msg.sender] */\n      0x00\n        /* \"contracts/ReadyRoles.sol\":1701:1711  msg.sender */\n      caller\n        /* \"contracts/ReadyRoles.sol\":1692:1712  _lawyers[msg.sender] */\n      0xffffffffffffffffffffffffffffffffffffffff\n      and\n      0xffffffffffffffffffffffffffffffffffffffff\n      and\n      dup2\n      mstore\n      0x20\n      add\n      swap1\n      dup2\n      mstore\n      0x20\n      add\n      0x00\n      keccak256\n        /* \"contracts/ReadyRoles.sol\":1667:1712  Practitioner storage p = _lawyers[msg.sender] */\n      swap1\n      pop\n        /* \"contracts/ReadyRoles.sol\":1743:1758  Status.Approved */\n      0x02\n        /* \"contracts/ReadyRoles.sol\":1731:1758  p.status != Status.Approved */\n      0x03\n      dup2\n      gt\n      iszero\n      tag_204\n      jumpi\n      tag_205\n      tag_138\n      jump\t// in\n    tag_205:\n    tag_204:\n        /* \"contracts/ReadyRoles.sol\":1731:1732  p */\n      dup2\n        /* \"contracts/ReadyRoles.sol\":1731:1739  p.status */\n      0x00\n      add\n      0x00\n      swap1\n      sload\n      swap1\n      0x0100\n      exp\n      swap1\n      div\n      0xff\n      and\n        /* \"contracts/ReadyRoles.sol\":1731:1758  p.status != Status.Approved */\n      0x03\n      dup2\n      gt\n      iszero\n      tag_206\n      jumpi\n      tag_207\n      tag_138\n      jump\t// in\n    tag_207:\n    tag_206:\n      sub\n        /* \"contracts/ReadyRoles.sol\":1723:1779  require(p.status != Status.Approved, \"Already approved\") */\n      tag_208\n      jumpi\n      mload(0x40)\n      0x08c379a000000000000000000000000000000000000000000000000000000000\n      dup2\n      mstore\n      0x04\n      add\n      tag_209\n      swap1\n      tag_210\n      jump\t// in\n    tag_209:\n      mload(0x40)\n      dup1\n      swap2\n      sub\n      swap1\n      revert\n    tag_208:\n        /* \"contracts/ReadyRoles.sol\":1805:1815  profileURI */\n      dup3\n      dup3\n        /* \"contracts/ReadyRoles.sol\":1790:1791  p */\n      dup3\n        /* \"contracts/ReadyRoles.sol\":1790:1802  p.profileURI */\n      0x01\n      add\n        /* \"contracts/ReadyRoles.sol\":1790:1815  p.profileURI = profileURI */\n      swap2\n      dup3\n      tag_211\n      swap3\n      swap2\n      swap1\n      tag_212\n      jump\t// in\n    tag_211:\n      pop\n        /* \"contracts/ReadyRoles.sol\":1837:1851  Status.Pending */\n      0x01\n        /* \"contracts/ReadyRoles.sol\":1826:1827  p */\n      dup2\n        /* \"contracts/ReadyRoles.sol\":1826:1834  p.status */\n      0x00\n      add\n      0x00\n        /* \"contracts/ReadyRoles.sol\":1826:1851  p.status = Status.Pending */\n      0x0100\n      exp\n      dup2\n      sload\n      dup2\n      0xff\n      mul\n      not\n      and\n      swap1\n      dup4\n      0x03\n      dup2\n      gt\n      iszero\n      tag_213\n      jumpi\n      tag_214\n      tag_138\n      jump\t// in\n    tag_214:\n    tag_213:\n      mul\n      or\n      swap1\n      sstore\n      pop\n        /* \"contracts/ReadyRoles.sol\":1895:1905  msg.sender */\n      caller\n        /* \"contracts/ReadyRoles.sol\":1867:1918  LawyerVerificationRequested(msg.sender, profileURI) */\n      0xffffffffffffffffffffffffffffffffffffffff\n      and\n      0x0603fa6e5f2465e73b4c69dcd5e274dbdc5ae4c0d42e635eaf6ec80cb77dcf54\n        /* \"contracts/ReadyRoles.sol\":1907:1917  profileURI */\n      dup5\n      dup5\n        /* \"contracts/ReadyRoles.sol\":1867:1918  LawyerVerificationRequested(msg.sender, profileURI) */\n      mload(0x40)\n      tag_215\n      swap3\n      swap2\n      swap1\n      tag_144\n      jump\t// in\n    tag_215:\n      mload(0x40)\n      dup1\n      swap2\n      sub\n      swap1\n      log2\n        /* \"contracts/ReadyRoles.sol\":1656:1926  {... */\n      pop\n        /* \"contracts/ReadyRoles.sol\":1570:1926  function requestLawyerVerification(string calldata profileURI) external whenNotPaused {... */\n      pop\n      pop\n      jump\t// out\n        /* \"contracts/ReadyRoles.sol\":1406:1538  function removeVerifier(address account) external onlyRole(DEFAULT_ADMIN_ROLE) {... */\n    tag_102:\n        /* \"@openzeppelin/contracts@4.9.6/access/AccessControl.sol\":2198:2202  0x00 */\n      0x00\n        /* \"contracts/ReadyRoles.sol\":1465:1483  DEFAULT_ADMIN_ROLE */\n      0x00\n      shl\n        /* \"@openzeppelin/contracts@4.9.6/access/AccessControl.sol\":2631:2647  _checkRole(role) */\n      tag_217\n        /* \"@openzeppelin/contracts@4.9.6/access/AccessControl.sol\":2642:2646  role */\n      dup2\n        /* \"@openzeppelin/contracts@4.9.6/access/AccessControl.sol\":2631:2641  _checkRole */\n      tag_134\n        /* \"@openzeppelin/contracts@4.9.6/access/AccessControl.sol\":2631:2647  _checkRole(role) */\n      jump\t// in\n    tag_217:\n        /* \"contracts/ReadyRoles.sol\":1496:1530  revokeRole(VERIFIER_ROLE, account) */\n      tag_219\n        /* \"contracts/ReadyRoles.sol\":372:398  keccak256(\"VERIFIER_ROLE\") */\n      0x0ce23c3e399818cfee81a7ab0880f714e53d7672b08df0fa62f2843416e1ea09\n        /* \"contracts/ReadyRoles.sol\":1522:1529  account */\n      dup4\n        /* \"contracts/ReadyRoles.sol\":1496:1506  revokeRole */\n      tag_108\n        /* \"contracts/ReadyRoles.sol\":1496:1530  revokeRole(VERIFIER_ROLE, account) */\n      jump\t// in\n    tag_219:\n        /* \"contracts/ReadyRoles.sol\":1406:1538  function removeVerifier(address account) external onlyRole(DEFAULT_ADMIN_ROLE) {... */\n      pop\n      pop\n      jump\t// out\n        /* \"contracts/ReadyRoles.sol\":2212:2534  function revokeLawyer(address account) external whenNotPaused onlyRole(VERIFIER_ROLE) {... */\n    tag_105:\n        /* \"@openzeppelin/contracts@4.9.6/security/Pausable.sol\":1239:1258  _requireNotPaused() */\n      tag_221\n        /* \"@openzeppelin/contracts@4.9.6/security/Pausable.sol\":1239:1256  _requireNotPaused */\n      tag_131\n        /* \"@openzeppelin/contracts@4.9.6/security/Pausable.sol\":1239:1258  _requireNotPaused() */\n      jump\t// in\n    tag_221:\n        /* \"contracts/ReadyRoles.sol\":372:398  keccak256(\"VERIFIER_ROLE\") */\n      0x0ce23c3e399818cfee81a7ab0880f714e53d7672b08df0fa62f2843416e1ea09\n        /* \"@openzeppelin/contracts@4.9.6/access/AccessControl.sol\":2631:2647  _checkRole(role) */\n      tag_223\n        /* \"@openzeppelin/contracts@4.9.6/access/AccessControl.sol\":2642:2646  role */\n      dup2\n        /* \"@openzeppelin/contracts@4.9.6/access/AccessControl.sol\":2631:2641  _checkRole */\n      tag_134\n        /* \"@openzeppelin/contracts@4.9.6/access/AccessControl.sol\":2631:2647  _checkRole(role) */\n      jump\t// in\n    tag_223:\n        /* \"contracts/ReadyRoles.sol\":2309:2331  Practitioner storage p */\n      0x00\n        /* \"contracts/ReadyRoles.sol\":2334:2342  _lawyers */\n      0x02\n        /* \"contracts/ReadyRoles.sol\":2334:2351  _lawyers[account] */\n      0x00\n        /* \"contracts/ReadyRoles.sol\":2343:2350  account */\n      dup5\n        /* \"contracts/ReadyRoles.sol\":2334:2351  _lawyers[account] */\n      0xffffffffffffffffffffffffffffffffffffffff\n      and\n      0xffffffffffffffffffffffffffffffffffffffff\n      and\n      dup2\n      mstore\n      0x20\n      add\n      swap1\n      dup2\n      mstore\n      0x20\n      add\n      0x00\n      keccak256\n        /* \"contracts/ReadyRoles.sol\":2309:2351  Practitioner storage p = _lawyers[account] */\n      swap1\n      pop\n        /* \"contracts/ReadyRoles.sol\":2382:2397  Status.Approved */\n      0x02\n        /* \"contracts/ReadyRoles.sol\":2370:2397  p.status == Status.Approved */\n      0x03\n      dup2\n      gt\n      iszero\n      tag_225\n      jumpi\n      tag_226\n      tag_138\n      jump\t// in\n    tag_226:\n    tag_225:\n        /* \"contracts/ReadyRoles.sol\":2370:2371  p */\n      dup2\n        /* \"contracts/ReadyRoles.sol\":2370:2378  p.status */\n      0x00\n      add\n      0x00\n      swap1\n      sload\n      swap1\n      0x0100\n      exp\n      swap1\n      div\n      0xff\n      and\n        /* \"contracts/ReadyRoles.sol\":2370:2397  p.status == Status.Approved */\n      0x03\n      dup2\n      gt\n      iszero\n      tag_227\n      jumpi\n      tag_228\n      tag_138\n      jump\t// in\n    tag_228:\n    tag_227:\n      eq\n        /* \"contracts/ReadyRoles.sol\":2370:2427  p.status == Status.Approved || p.status == Status.Pending */\n      dup1\n      tag_229\n      jumpi\n      pop\n        /* \"contracts/ReadyRoles.sol\":2413:2427  Status.Pending */\n      0x01\n        /* \"contracts/ReadyRoles.sol\":2401:2427  p.status == Status.Pending */\n      0x03\n      dup2\n      gt\n      iszero\n      tag_230\n      jumpi\n      tag_231\n      tag_138\n      jump\t// in\n    tag_231:\n    tag_230:\n        /* \"contracts/ReadyRoles.sol\":2401:2402  p */\n      dup2\n        /* \"contracts/ReadyRoles.sol\":2401:2409  p.status */\n      0x00\n      add\n      0x00\n      swap1\n      sload\n      swap1\n      0x0100\n      exp\n      swap1\n      div\n      0xff\n      and\n        /* \"contracts/ReadyRoles.sol\":2401:2427  p.status == Status.Pending */\n      0x03\n      dup2\n      gt\n      iszero\n      tag_232\n      jumpi\n      tag_233\n      tag_138\n      jump\t// in\n    tag_233:\n    tag_232:\n      eq\n        /* \"contracts/ReadyRoles.sol\":2370:2427  p.status == Status.Approved || p.status == Status.Pending */\n    tag_229:\n        /* \"contracts/ReadyRoles.sol\":2362:2452  require(p.status == Status.Approved || p.status == Status.Pending, \"Not approved/pending\") */\n      tag_234\n      jumpi\n      mload(0x40)\n      0x08c379a000000000000000000000000000000000000000000000000000000000\n      dup2\n      mstore\n      0x04\n      add\n      tag_235\n      swap1\n      tag_236\n      jump\t// in\n    tag_235:\n      mload(0x40)\n      dup1\n      swap2\n      sub\n      swap1\n      revert\n    tag_234:\n        /* \"contracts/ReadyRoles.sol\":2474:2488  Status.Revoked */\n      0x03\n        /* \"contracts/ReadyRoles.sol\":2463:2464  p */\n      dup2\n        /* \"contracts/ReadyRoles.sol\":2463:2471  p.status */\n      0x00\n      add\n      0x00\n        /* \"contracts/ReadyRoles.sol\":2463:2488  p.status = Status.Revoked */\n      0x0100\n      exp\n      dup2\n      sload\n      dup2\n      0xff\n      mul\n      not\n      and\n      swap1\n      dup4\n      0x03\n      dup2\n      gt\n      iszero\n      tag_237\n      jumpi\n      tag_238\n      tag_138\n      jump\t// in\n    tag_238:\n    tag_237:\n      mul\n      or\n      swap1\n      sstore\n      pop\n        /* \"contracts/ReadyRoles.sol\":2518:2525  account */\n      dup3\n        /* \"contracts/ReadyRoles.sol\":2504:2526  LawyerRevoked(account) */\n      0xffffffffffffffffffffffffffffffffffffffff\n      and\n      0x487dd17f7293d460a37466ca426b48d216097aca0d2337ae75446a575a022331\n      mload(0x40)\n      mload(0x40)\n      dup1\n      swap2\n      sub\n      swap1\n      log2\n        /* \"contracts/ReadyRoles.sol\":2298:2534  {... */\n      pop\n        /* \"@openzeppelin/contracts@4.9.6/security/Pausable.sol\":1268:1269  _ */\n      pop\n        /* \"contracts/ReadyRoles.sol\":2212:2534  function revokeLawyer(address account) external whenNotPaused onlyRole(VERIFIER_ROLE) {... */\n      pop\n      jump\t// out\n        /* \"@openzeppelin/contracts@4.9.6/access/AccessControl.sol\":5354:5501  function revokeRole(bytes32 role, address account) public virtual override onlyRole(getRoleAdmin(role)) {... */\n    tag_108:\n        /* \"@openzeppelin/contracts@4.9.6/access/AccessControl.sol\":5438:5456  getRoleAdmin(role) */\n      tag_239\n        /* \"@openzeppelin/contracts@4.9.6/access/AccessControl.sol\":5451:5455  role */\n      dup3\n        /* \"@openzeppelin/contracts@4.9.6/access/AccessControl.sol\":5438:5450  getRoleAdmin */\n      tag_49\n        /* \"@openzeppelin/contracts@4.9.6/access/AccessControl.sol\":5438:5456  getRoleAdmin(role) */\n      jump\t// in\n    tag_239:\n        /* \"@openzeppelin/contracts@4.9.6/access/AccessControl.sol\":2631:2647  _checkRole(role) */\n      tag_241\n        /* \"@openzeppelin/contracts@4.9.6/access/AccessControl.sol\":2642:2646  role */\n      dup2\n        /* \"@openzeppelin/contracts@4.9.6/access/AccessControl.sol\":2631:2641  _checkRole */\n      tag_134\n        /* \"@openzeppelin/contracts@4.9.6/access/AccessControl.sol\":2631:2647  _checkRole(role) */\n      jump\t// in\n    tag_241:\n        /* \"@openzeppelin/contracts@4.9.6/access/AccessControl.sol\":5468:5494  _revokeRole(role, account) */\n      tag_243\n        /* \"@openzeppelin/contracts@4.9.6/access/AccessControl.sol\":5480:5484  role */\n      dup4\n        /* \"@openzeppelin/contracts@4.9.6/access/AccessControl.sol\":5486:5493  account */\n      dup4\n        /* \"@openzeppelin/contracts@4.9.6/access/AccessControl.sol\":5468:5479  _revokeRole */\n      tag_158\n        /* \"@openzeppelin/contracts@4.9.6/access/AccessControl.sol\":5468:5494  _revokeRole(role, account) */\n      jump\t// in\n    tag_243:\n        /* \"@openzeppelin/contracts@4.9.6/access/AccessControl.sol\":5354:5501  function revokeRole(bytes32 role, address account) public virtual override onlyRole(getRoleAdmin(role)) {... */\n      pop\n      pop\n      pop\n      jump\t// out\n        /* \"contracts/ReadyRoles.sol\":332:398  bytes32 public constant VERIFIER_ROLE = keccak256(\"VERIFIER_ROLE\") */\n    tag_110:\n        /* \"contracts/ReadyRoles.sol\":372:398  keccak256(\"VERIFIER_ROLE\") */\n      0x0ce23c3e399818cfee81a7ab0880f714e53d7672b08df0fa62f2843416e1ea09\n        /* \"contracts/ReadyRoles.sol\":332:398  bytes32 public constant VERIFIER_ROLE = keccak256(\"VERIFIER_ROLE\") */\n      dup2\n      jump\t// out\n        /* \"contracts/ReadyRoles.sol\":3099:3237  function isJudge(address account) public view override returns (bool) {... */\n    tag_114:\n        /* \"contracts/ReadyRoles.sol\":3163:3167  bool */\n      0x00\n        /* \"contracts/ReadyRoles.sol\":3214:3229  Status.Approved */\n      0x02\n        /* \"contracts/ReadyRoles.sol\":3187:3229  _judges[account].status == Status.Approved */\n      0x03\n      dup2\n      gt\n      iszero\n      tag_245\n      jumpi\n      tag_246\n      tag_138\n      jump\t// in\n    tag_246:\n    tag_245:\n        /* \"contracts/ReadyRoles.sol\":3187:3194  _judges */\n      0x03\n        /* \"contracts/ReadyRoles.sol\":3187:3203  _judges[account] */\n      0x00\n        /* \"contracts/ReadyRoles.sol\":3195:3202  account */\n      dup5\n        /* \"contracts/ReadyRoles.sol\":3187:3203  _judges[account] */\n      0xffffffffffffffffffffffffffffffffffffffff\n      and\n      0xffffffffffffffffffffffffffffffffffffffff\n      and\n      dup2\n      mstore\n      0x20\n      add\n      swap1\n      dup2\n      mstore\n      0x20\n      add\n      0x00\n      keccak256\n        /* \"contracts/ReadyRoles.sol\":3187:3210  _judges[account].status */\n      0x00\n      add\n      0x00\n      swap1\n      sload\n      swap1\n      0x0100\n      exp\n      swap1\n      div\n      0xff\n      and\n        /* \"contracts/ReadyRoles.sol\":3187:3229  _judges[account].status == Status.Approved */\n      0x03\n      dup2\n      gt\n      iszero\n      tag_247\n      jumpi\n      tag_248\n      tag_138\n      jump\t// in\n    tag_248:\n    tag_247:\n      eq\n        /* \"contracts/ReadyRoles.sol\":3180:3229  return _judges[account].status == Status.Approved */\n      swap1\n      pop\n        /* \"contracts/ReadyRoles.sol\":3099:3237  function isJudge(address account) public view override returns (bool) {... */\n      swap2\n      swap1\n      pop\n      jump\t// out\n        /* \"@openzeppelin/contracts@4.9.6/utils/introspection/ERC165.sol\":829:984  function supportsInterface(bytes4 interfaceId) public view virtual override returns (bool) {... */\n    tag_119:\n        /* \"@openzeppelin/contracts@4.9.6/utils/introspection/ERC165.sol\":914:918  bool */\n      0x00\n        /* \"@openzeppelin/contracts@4.9.6/utils/introspection/ERC165.sol\":952:977  type(IERC165).interfaceId */\n      0x01ffc9a700000000000000000000000000000000000000000000000000000000\n        /* \"@openzeppelin/contracts@4.9.6/utils/introspection/ERC165.sol\":937:977  interfaceId == type(IERC165).interfaceId */\n      not(0xffffffffffffffffffffffffffffffffffffffffffffffffffffffff)\n      and\n        /* \"@openzeppelin/contracts@4.9.6/utils/introspection/ERC165.sol\":937:948  interfaceId */\n      dup3\n        /* \"@openzeppelin/contracts@4.9.6/utils/introspection/ERC165.sol\":937:977  interfaceId == type(IERC165).interfaceId */\n      not(0xffffffffffffffffffffffffffffffffffffffffffffffffffffffff)\n      and\n      eq\n        /* \"@openzeppelin/contracts@4.9.6/utils/introspection/ERC165.sol\":930:977  return interfaceId == type(IERC165).interfaceId */\n      swap1\n      pop\n        /* \"@openzeppelin/contracts@4.9.6/utils/introspection/ERC165.sol\":829:984  function supportsInterface(bytes4 interfaceId) public view virtual override returns (bool) {... */\n      swap2\n      swap1\n      pop\n      jump\t// out\n        /* \"@openzeppelin/contracts@4.9.6/security/Pausable.sol\":1767:1873  function _requireNotPaused() internal view virtual {... */\n    tag_131:\n        /* \"@openzeppelin/contracts@4.9.6/security/Pausable.sol\":1837:1845  paused() */\n      tag_251\n        /* \"@openzeppelin/contracts@4.9.6/security/Pausable.sol\":1837:1843  paused */\n      tag_74\n        /* \"@openzeppelin/contracts@4.9.6/security/Pausable.sol\":1837:1845  paused() */\n      jump\t// in\n    tag_251:\n        /* \"@openzeppelin/contracts@4.9.6/security/Pausable.sol\":1836:1845  !paused() */\n      iszero\n        /* \"@openzeppelin/contracts@4.9.6/security/Pausable.sol\":1828:1866  require(!paused(), \"Pausable: paused\") */\n      tag_252\n      jumpi\n      mload(0x40)\n      0x08c379a000000000000000000000000000000000000000000000000000000000\n      dup2\n      mstore\n      0x04\n      add\n      tag_253\n      swap1\n      tag_254\n      jump\t// in\n    tag_253:\n      mload(0x40)\n      dup1\n      swap2\n      sub\n      swap1\n      revert\n    tag_252:\n        /* \"@openzeppelin/contracts@4.9.6/security/Pausable.sol\":1767:1873  function _requireNotPaused() internal view virtual {... */\n      jump\t// out\n        /* \"@openzeppelin/contracts@4.9.6/access/AccessControl.sol\":3460:3563  function _checkRole(bytes32 role) internal view virtual {... */\n    tag_134:\n        /* \"@openzeppelin/contracts@4.9.6/access/AccessControl.sol\":3526:3556  _checkRole(role, _msgSender()) */\n      tag_256\n        /* \"@openzeppelin/contracts@4.9.6/access/AccessControl.sol\":3537:3541  role */\n      dup2\n        /* \"@openzeppelin/contracts@4.9.6/access/AccessControl.sol\":3543:3555  _msgSender() */\n      tag_257\n        /* \"@openzeppelin/contracts@4.9.6/access/AccessControl.sol\":3543:3553  _msgSender */\n      tag_153\n        /* \"@openzeppelin/contracts@4.9.6/access/AccessControl.sol\":3543:3555  _msgSender() */\n      jump\t// in\n    tag_257:\n        /* \"@openzeppelin/contracts@4.9.6/access/AccessControl.sol\":3526:3536  _checkRole */\n      tag_258\n        /* \"@openzeppelin/contracts@4.9.6/access/AccessControl.sol\":3526:3556  _checkRole(role, _msgSender()) */\n      jump\t// in\n    tag_256:\n        /* \"@openzeppelin/contracts@4.9.6/access/AccessControl.sol\":3460:3563  function _checkRole(bytes32 role) internal view virtual {... */\n      pop\n      jump\t// out\n        /* \"@openzeppelin/contracts@4.9.6/access/AccessControl.sol\":7587:7820  function _grantRole(bytes32 role, address account) internal virtual {... */\n    tag_150:\n        /* \"@openzeppelin/contracts@4.9.6/access/AccessControl.sol\":7670:7692  hasRole(role, account) */\n      tag_260\n        /* \"@openzeppelin/contracts@4.9.6/access/AccessControl.sol\":7678:7682  role */\n      dup3\n        /* \"@openzeppelin/contracts@4.9.6/access/AccessControl.sol\":7684:7691  account */\n      dup3\n        /* \"@openzeppelin/contracts@4.9.6/access/AccessControl.sol\":7670:7677  hasRole */\n      tag_91\n        /* \"@openzeppelin/contracts@4.9.6/access/AccessControl.sol\":7670:7692  hasRole(role, account) */\n      jump\t// in\n    tag_260:\n        /* \"@openzeppelin/contracts@4.9.6/access/AccessControl.sol\":7665:7814  if (!hasRole(role, account)) {... */\n      tag_261\n      jumpi\n        /* \"@openzeppelin/contracts@4.9.6/access/AccessControl.sol\":7740:7744  true */\n      0x01\n        /* \"@openzeppelin/contracts@4.9.6/access/AccessControl.sol\":7708:7714  _roles */\n      0x00\n        /* \"@openzeppelin/contracts@4.9.6/access/AccessControl.sol\":7708:7720  _roles[role] */\n      0x00\n        /* \"@openzeppelin/contracts@4.9.6/access/AccessControl.sol\":7715:7719  role */\n      dup5\n        /* \"@openzeppelin/contracts@4.9.6/access/AccessControl.sol\":7708:7720  _roles[role] */\n      dup2\n      mstore\n      0x20\n      add\n      swap1\n      dup2\n      mstore\n      0x20\n      add\n      0x00\n      keccak256\n        /* \"@openzeppelin/contracts@4.9.6/access/AccessControl.sol\":7708:7728  _roles[role].members */\n      0x00\n      add\n        /* \"@openzeppelin/contracts@4.9.6/access/AccessControl.sol\":7708:7737  _roles[role].members[account] */\n      0x00\n        /* \"@openzeppelin/contracts@4.9.6/access/AccessControl.sol\":7729:7736  account */\n      dup4\n        /* \"@openzeppelin/contracts@4.9.6/access/AccessControl.sol\":7708:7737  _roles[role].members[account] */\n      0xffffffffffffffffffffffffffffffffffffffff\n      and\n      0xffffffffffffffffffffffffffffffffffffffff\n      and\n      dup2\n      mstore\n      0x20\n      add\n      swap1\n      dup2\n      mstore\n      0x20\n      add\n      0x00\n      keccak256\n      0x00\n        /* \"@openzeppelin/contracts@4.9.6/access/AccessControl.sol\":7708:7744  _roles[role].members[account] = true */\n      0x0100\n      exp\n      dup2\n      sload\n      dup2\n      0xff\n      mul\n      not\n      and\n      swap1\n      dup4\n      iszero\n      iszero\n      mul\n      or\n      swap1\n      sstore\n      pop\n        /* \"@openzeppelin/contracts@4.9.6/access/AccessControl.sol\":7790:7802  _msgSender() */\n      tag_262\n        /* \"@openzeppelin/contracts@4.9.6/access/AccessControl.sol\":7790:7800  _msgSender */\n      tag_153\n        /* \"@openzeppelin/contracts@4.9.6/access/AccessControl.sol\":7790:7802  _msgSender() */\n      jump\t// in\n    tag_262:\n        /* \"@openzeppelin/contracts@4.9.6/access/AccessControl.sol\":7763:7803  RoleGranted(role, account, _msgSender()) */\n      0xffffffffffffffffffffffffffffffffffffffff\n      and\n        /* \"@openzeppelin/contracts@4.9.6/access/AccessControl.sol\":7781:7788  account */\n      dup2\n        /* \"@openzeppelin/contracts@4.9.6/access/AccessControl.sol\":7763:7803  RoleGranted(role, account, _msgSender()) */\n      0xffffffffffffffffffffffffffffffffffffffff\n      and\n        /* \"@openzeppelin/contracts@4.9.6/access/AccessControl.sol\":7775:7779  role */\n      dup4\n        /* \"@openzeppelin/contracts@4.9.6/access/AccessControl.sol\":7763:7803  RoleGranted(role, account, _msgSender()) */\n      0x2f8788117e7eff1d82e926ec794901d17c78024a50270940304540a733656f0d\n      mload(0x40)\n      mload(0x40)\n      dup1\n      swap2\n      sub\n      swap1\n      log4\n        /* \"@openzeppelin/contracts@4.9.6/access/AccessControl.sol\":7665:7814  if (!hasRole(role, account)) {... */\n    tag_261:\n        /* \"@openzeppelin/contracts@4.9.6/access/AccessControl.sol\":7587:7820  function _grantRole(bytes32 role, address account) internal virtual {... */\n      pop\n      pop\n      jump\t// out\n        /* \"@openzeppelin/contracts@4.9.6/utils/Context.sol\":655:751  function _msgSender() internal view virtual returns (address) {... */\n    tag_153:\n        /* \"@openzeppelin/contracts@4.9.6/utils/Context.sol\":708:715  address */\n      0x00\n        /* \"@openzeppelin/contracts@4.9.6/utils/Context.sol\":734:744  msg.sender */\n      caller\n        /* \"@openzeppelin/contracts@4.9.6/utils/Context.sol\":727:744  return msg.sender */\n      swap1\n      pop\n        /* \"@openzeppelin/contracts@4.9.6/utils/Context.sol\":655:751  function _msgSender() internal view virtual returns (address) {... */\n      swap1\n      jump\t// out\n        /* \"@openzeppelin/contracts@4.9.6/access/AccessControl.sol\":7991:8225  function _revokeRole(bytes32 role, address account) internal virtual {... */\n    tag_158:\n        /* \"@openzeppelin/contracts@4.9.6/access/AccessControl.sol\":8074:8096  hasRole(role, account) */\n      tag_265\n        /* \"@openzeppelin/contracts@4.9.6/access/AccessControl.sol\":8082:8086  role */\n      dup3\n        /* \"@openzeppelin/contracts@4.9.6/access/AccessControl.sol\":8088:8095  account */\n      dup3\n        /* \"@openzeppelin/contracts@4.9.6/access/AccessControl.sol\":8074:8081  hasRole */\n      tag_91\n        /* \"@openzeppelin/contracts@4.9.6/access/AccessControl.sol\":8074:8096  hasRole(role, account) */\n      jump\t// in\n    tag_265:\n        /* \"@openzeppelin/contracts@4.9.6/access/AccessControl.sol\":8070:8219  if (hasRole(role, account)) {... */\n      iszero\n      tag_266\n      jumpi\n        /* \"@openzeppelin/contracts@4.9.6/access/AccessControl.sol\":8144:8149  false */\n      0x00\n        /* \"@openzeppelin/contracts@4.9.6/access/AccessControl.sol\":8112:8118  _roles */\n      0x00\n        /* \"@openzeppelin/contracts@4.9.6/access/AccessControl.sol\":8112:8124  _roles[role] */\n      0x00\n        /* \"@openzeppelin/contracts@4.9.6/access/AccessControl.sol\":8119:8123  role */\n      dup5\n        /* \"@openzeppelin/contracts@4.9.6/access/AccessControl.sol\":8112:8124  _roles[role] */\n      dup2\n      mstore\n      0x20\n      add\n      swap1\n      dup2\n      mstore\n      0x20\n      add\n      0x00\n      keccak256\n        /* \"@openzeppelin/contracts@4.9.6/access/AccessControl.sol\":8112:8132  _roles[role].members */\n      0x00\n      add\n        /* \"@openzeppelin/contracts@4.9.6/access/AccessControl.sol\":8112:8141  _roles[role].members[account] */\n      0x00\n        /* \"@openzeppelin/contracts@4.9.6/access/AccessControl.sol\":8133:8140  account */\n      dup4\n        /* \"@openzeppelin/contracts@4.9.6/access/AccessControl.sol\":8112:8141  _roles[role].members[account] */\n      0xffffffffffffffffffffffffffffffffffffffff\n      and\n      0xffffffffffffffffffffffffffffffffffffffff\n      and\n      dup2\n      mstore\n      0x20\n      add\n      swap1\n      dup2\n      mstore\n      0x20\n      add\n      0x00\n      keccak256\n      0x00\n        /* \"@openzeppelin/contracts@4.9.6/access/AccessControl.sol\":8112:8149  _roles[role].members[account] = false */\n      0x0100\n      exp\n      dup2\n      sload\n      dup2\n      0xff\n      mul\n      not\n      and\n      swap1\n      dup4\n      iszero\n      iszero\n      mul\n      or\n      swap1\n      sstore\n      pop\n        /* \"@openzeppelin/contracts@4.9.6/access/AccessControl.sol\":8195:8207  _msgSender() */\n      tag_267\n        /* \"@openzeppelin/contracts@4.9.6/access/AccessControl.sol\":8195:8205  _msgSender */\n      tag_153\n        /* \"@openzeppelin/contracts@4.9.6/access/AccessControl.sol\":8195:8207  _msgSender() */\n      jump\t// in\n    tag_267:\n        /* \"@openzeppelin/contracts@4.9.6/access/AccessControl.sol\":8168:8208  RoleRevoked(role, account, _msgSender()) */\n      0xffffffffffffffffffffffffffffffffffffffff\n      and\n        /* \"@openzeppelin/contracts@4.9.6/access/AccessControl.sol\":8186:8193  account */\n      dup2\n        /* \"@openzeppelin/contracts@4.9.6/access/AccessControl.sol\":8168:8208  RoleRevoked(role, account, _msgSender()) */\n      0xffffffffffffffffffffffffffffffffffffffff\n      and\n        /* \"@openzeppelin/contracts@4.9.6/access/AccessControl.sol\":8180:8184  role */\n      dup4\n        /* \"@openzeppelin/contracts@4.9.6/access/AccessControl.sol\":8168:8208  RoleRevoked(role, account, _msgSender()) */\n      0xf6391f5c32d9c69d2a47ea670b442974b53935d1edc7fd64eb21e047a839171b\n      mload(0x40)\n      mload(0x40)\n      dup1\n      swap2\n      sub\n      swap1\n      log4\n        /* \"@openzeppelin/contracts@4.9.6/access/AccessControl.sol\":8070:8219  if (hasRole(role, account)) {... */\n    tag_266:\n        /* \"@openzeppelin/contracts@4.9.6/access/AccessControl.sol\":7991:8225  function _revokeRole(bytes32 role, address account) internal virtual {... */\n      pop\n      pop\n      jump\t// out\n        /* \"@openzeppelin/contracts@4.9.6/security/Pausable.sol\":2433:2550  function _unpause() internal virtual whenPaused {... */\n    tag_169:\n        /* \"@openzeppelin/contracts@4.9.6/security/Pausable.sol\":1486:1502  _requirePaused() */\n      tag_269\n        /* \"@openzeppelin/contracts@4.9.6/security/Pausable.sol\":1486:1500  _requirePaused */\n      tag_270\n        /* \"@openzeppelin/contracts@4.9.6/security/Pausable.sol\":1486:1502  _requirePaused() */\n      jump\t// in\n    tag_269:\n        /* \"@openzeppelin/contracts@4.9.6/security/Pausable.sol\":2501:2506  false */\n      0x00\n        /* \"@openzeppelin/contracts@4.9.6/security/Pausable.sol\":2491:2498  _paused */\n      0x01\n      0x00\n        /* \"@openzeppelin/contracts@4.9.6/security/Pausable.sol\":2491:2506  _paused = false */\n      0x0100\n      exp\n      dup2\n      sload\n      dup2\n      0xff\n      mul\n      not\n      and\n      swap1\n      dup4\n      iszero\n      iszero\n      mul\n      or\n      swap1\n      sstore\n      pop\n        /* \"@openzeppelin/contracts@4.9.6/security/Pausable.sol\":2521:2543  Unpaused(_msgSender()) */\n      0x5db9ee0a495bf2e6ff9c91a7834c1ba4fdd244a5e8aa4e537bd38aeae4b073aa\n        /* \"@openzeppelin/contracts@4.9.6/security/Pausable.sol\":2530:2542  _msgSender() */\n      tag_272\n        /* \"@openzeppelin/contracts@4.9.6/security/Pausable.sol\":2530:2540  _msgSender */\n      tag_153\n        /* \"@openzeppelin/contracts@4.9.6/security/Pausable.sol\":2530:2542  _msgSender() */\n      jump\t// in\n    tag_272:\n        /* \"@openzeppelin/contracts@4.9.6/security/Pausable.sol\":2521:2543  Unpaused(_msgSender()) */\n      mload(0x40)\n      tag_273\n      swap2\n      swap1\n      tag_274\n      jump\t// in\n    tag_273:\n      mload(0x40)\n      dup1\n      swap2\n      sub\n      swap1\n      log1\n        /* \"@openzeppelin/contracts@4.9.6/security/Pausable.sol\":2433:2550  function _unpause() internal virtual whenPaused {... */\n      jump\t// out\n        /* \"@openzeppelin/contracts@4.9.6/security/Pausable.sol\":2186:2301  function _pause() internal virtual whenNotPaused {... */\n    tag_195:\n        /* \"@openzeppelin/contracts@4.9.6/security/Pausable.sol\":1239:1258  _requireNotPaused() */\n      tag_276\n        /* \"@openzeppelin/contracts@4.9.6/security/Pausable.sol\":1239:1256  _requireNotPaused */\n      tag_131\n        /* \"@openzeppelin/contracts@4.9.6/security/Pausable.sol\":1239:1258  _requireNotPaused() */\n      jump\t// in\n    tag_276:\n        /* \"@openzeppelin/contracts@4.9.6/security/Pausable.sol\":2255:2259  true */\n      0x01\n        /* \"@openzeppelin/contracts@4.9.6/security/Pausable.sol\":2245:2252  _paused */\n      dup1\n      0x00\n        /* \"@openzeppelin/contracts@4.9.6/security/Pausable.sol\":2245:2259  _paused = true */\n      0x0100\n      exp\n      dup2\n      sload\n      dup2\n      0xff\n      mul\n      not\n      and\n      swap1\n      dup4\n      iszero\n      iszero\n      mul\n      or\n      swap1\n      sstore\n      pop\n        /* \"@openzeppelin/contracts@4.9.6/security/Pausable.sol\":2274:2294  Paused(_msgSender()) */\n      0x62e78cea01bee320cd4e420270b5ea74000d11b0c9f74754ebdbfc544b05a258\n        /* \"@openzeppelin/contracts@4.9.6/security/Pausable.sol\":2281:2293  _msgSender() */\n      tag_278\n        /* \"@openzeppelin/contracts@4.9.6/security/Pausable.sol\":2281:2291  _msgSender */\n      tag_153\n        /* \"@openzeppelin/contracts@4.9.6/security/Pausable.sol\":2281:2293  _msgSender() */\n      jump\t// in\n    tag_278:\n        /* \"@openzeppelin/contracts@4.9.6/security/Pausable.sol\":2274:2294  Paused(_msgSender()) */\n      mload(0x40)\n      tag_279\n      swap2\n      swap1\n      tag_274\n      jump\t// in\n    tag_279:\n      mload(0x40)\n      dup1\n      swap2\n      sub\n      swap1\n      log1\n        /* \"@openzeppelin/contracts@4.9.6/security/Pausable.sol\":2186:2301  function _pause() internal virtual whenNotPaused {... */\n      jump\t// out\n        /* \"@openzeppelin/contracts@4.9.6/access/AccessControl.sol\":3844:4323  function _checkRole(bytes32 role, address account) internal view virtual {... */\n    tag_258:\n        /* \"@openzeppelin/contracts@4.9.6/access/AccessControl.sol\":3932:3954  hasRole(role, account) */\n      tag_281\n        /* \"@openzeppelin/contracts@4.9.6/access/AccessControl.sol\":3940:3944  role */\n      dup3\n        /* \"@openzeppelin/contracts@4.9.6/access/AccessControl.sol\":3946:3953  account */\n      dup3\n        /* \"@openzeppelin/contracts@4.9.6/access/AccessControl.sol\":3932:3939  hasRole */\n      tag_91\n        /* \"@openzeppelin/contracts@4.9.6/access/AccessControl.sol\":3932:3954  hasRole(role, account) */\n      jump\t// in\n    tag_281:\n        /* \"@openzeppelin/contracts@4.9.6/access/AccessControl.sol\":3927:4317  if (!hasRole(role, account)) {... */\n      tag_282\n      jumpi\n        /* \"@openzeppelin/contracts@4.9.6/access/AccessControl.sol\":4115:4143  Strings.toHexString(account) */\n      tag_283\n        /* \"@openzeppelin/contracts@4.9.6/access/AccessControl.sol\":4135:4142  account */\n      dup2\n        /* \"@openzeppelin/contracts@4.9.6/access/AccessControl.sol\":4115:4134  Strings.toHexString */\n      tag_284\n        /* \"@openzeppelin/contracts@4.9.6/access/AccessControl.sol\":4115:4143  Strings.toHexString(account) */\n      jump\t// in\n    tag_283:\n        /* \"@openzeppelin/contracts@4.9.6/access/AccessControl.sol\":4214:4252  Strings.toHexString(uint256(role), 32) */\n      tag_285\n        /* \"@openzeppelin/contracts@4.9.6/access/AccessControl.sol\":4242:4246  role */\n      dup4\n        /* \"@openzeppelin/contracts@4.9.6/access/AccessControl.sol\":4234:4247  uint256(role) */\n      0x00\n      shr\n        /* \"@openzeppelin/contracts@4.9.6/access/AccessControl.sol\":4249:4251  32 */\n      0x20\n        /* \"@openzeppelin/contracts@4.9.6/access/AccessControl.sol\":4214:4233  Strings.toHexString */\n      tag_286\n        /* \"@openzeppelin/contracts@4.9.6/access/AccessControl.sol\":4214:4252  Strings.toHexString(uint256(role), 32) */\n      jump\t// in\n    tag_285:\n        /* \"@openzeppelin/contracts@4.9.6/access/AccessControl.sol\":4022:4274  abi.encodePacked(... */\n      add(0x20, mload(0x40))\n      tag_287\n      swap3\n      swap2\n      swap1\n      tag_288\n      jump\t// in\n    tag_287:\n      mload(0x40)\n      0x20\n      dup2\n      dup4\n      sub\n      sub\n      dup2\n      mstore\n      swap1\n      0x40\n      mstore\n        /* \"@openzeppelin/contracts@4.9.6/access/AccessControl.sol\":3970:4306  revert(... */\n      mload(0x40)\n      0x08c379a000000000000000000000000000000000000000000000000000000000\n      dup2\n      mstore\n      0x04\n      add\n      tag_289\n      swap2\n      swap1\n      tag_45\n      jump\t// in\n    tag_289:\n      mload(0x40)\n      dup1\n      swap2\n      sub\n      swap1\n      revert\n        /* \"@openzeppelin/contracts@4.9.6/access/AccessControl.sol\":3927:4317  if (!hasRole(role, account)) {... */\n    tag_282:\n        /* \"@openzeppelin/contracts@4.9.6/access/AccessControl.sol\":3844:4323  function _checkRole(bytes32 role, address account) internal view virtual {... */\n      pop\n      pop\n      jump\t// out\n        /* \"@openzeppelin/contracts@4.9.6/security/Pausable.sol\":1945:2051  function _requirePaused() internal view virtual {... */\n    tag_270:\n        /* \"@openzeppelin/contracts@4.9.6/security/Pausable.sol\":2011:2019  paused() */\n      tag_291\n        /* \"@openzeppelin/contracts@4.9.6/security/Pausable.sol\":2011:2017  paused */\n      tag_74\n        /* \"@openzeppelin/contracts@4.9.6/security/Pausable.sol\":2011:2019  paused() */\n      jump\t// in\n    tag_291:\n        /* \"@openzeppelin/contracts@4.9.6/security/Pausable.sol\":2003:2044  require(paused(), \"Pausable: not paused\") */\n      tag_292\n      jumpi\n      mload(0x40)\n      0x08c379a000000000000000000000000000000000000000000000000000000000\n      dup2\n      mstore\n      0x04\n      add\n      tag_293\n      swap1\n      tag_294\n      jump\t// in\n    tag_293:\n      mload(0x40)\n      dup1\n      swap2\n      sub\n      swap1\n      revert\n    tag_292:\n        /* \"@openzeppelin/contracts@4.9.6/security/Pausable.sol\":1945:2051  function _requirePaused() internal view virtual {... */\n      jump\t// out\n        /* \"@openzeppelin/contracts@4.9.6/utils/Strings.sol\":2407:2556  function toHexString(address addr) internal pure returns (string memory) {... */\n    tag_284:\n        /* \"@openzeppelin/contracts@4.9.6/utils/Strings.sol\":2465:2478  string memory */\n      0x60\n        /* \"@openzeppelin/contracts@4.9.6/utils/Strings.sol\":2497:2549  toHexString(uint256(uint160(addr)), _ADDRESS_LENGTH) */\n      tag_296\n        /* \"@openzeppelin/contracts@4.9.6/utils/Strings.sol\":2525:2529  addr */\n      dup3\n        /* \"@openzeppelin/contracts@4.9.6/utils/Strings.sol\":2509:2531  uint256(uint160(addr)) */\n      0xffffffffffffffffffffffffffffffffffffffff\n      and\n        /* \"@openzeppelin/contracts@4.9.6/utils/Strings.sol\":343:345  20 */\n      0x14\n        /* \"@openzeppelin/contracts@4.9.6/utils/Strings.sol\":2497:2549  toHexString(uint256(uint160(addr)), _ADDRESS_LENGTH) */\n      0xff\n      and\n        /* \"@openzeppelin/contracts@4.9.6/utils/Strings.sol\":2497:2508  toHexString */\n      tag_286\n        /* \"@openzeppelin/contracts@4.9.6/utils/Strings.sol\":2497:2549  toHexString(uint256(uint160(addr)), _ADDRESS_LENGTH) */\n      jump\t// in\n    tag_296:\n        /* \"@openzeppelin/contracts@4.9.6/utils/Strings.sol\":2490:2549  return toHexString(uint256(uint160(addr)), _ADDRESS_LENGTH) */\n      swap1\n      pop\n        /* \"@openzeppelin/contracts@4.9.6/utils/Strings.sol\":2407:2556  function toHexString(address addr) internal pure returns (string memory) {... */\n      swap2\n      swap1\n      pop\n      jump\t// out\n        /* \"@openzeppelin/contracts@4.9.6/utils/Strings.sol\":1818:2255  function toHexString(uint256 value, uint256 length) internal pure returns (string memory) {... */\n    tag_286:\n        /* \"@openzeppelin/contracts@4.9.6/utils/Strings.sol\":1893:1906  string memory */\n      0x60\n        /* \"@openzeppelin/contracts@4.9.6/utils/Strings.sol\":1918:1937  bytes memory buffer */\n      0x00\n        /* \"@openzeppelin/contracts@4.9.6/utils/Strings.sol\":1963:1964  2 */\n      0x02\n        /* \"@openzeppelin/contracts@4.9.6/utils/Strings.sol\":1954:1960  length */\n      dup4\n        /* \"@openzeppelin/contracts@4.9.6/utils/Strings.sol\":1950:1951  2 */\n      0x02\n        /* \"@openzeppelin/contracts@4.9.6/utils/Strings.sol\":1950:1960  2 * length */\n      tag_298\n      swap2\n      swap1\n      tag_299\n      jump\t// in\n    tag_298:\n        /* \"@openzeppelin/contracts@4.9.6/utils/Strings.sol\":1950:1964  2 * length + 2 */\n      tag_300\n      swap2\n      swap1\n      tag_301\n      jump\t// in\n    tag_300:\n        /* \"@openzeppelin/contracts@4.9.6/utils/Strings.sol\":1940:1965  new bytes(2 * length + 2) */\n      0xffffffffffffffff\n      dup2\n      gt\n      iszero\n      tag_302\n      jumpi\n      tag_303\n      tag_304\n      jump\t// in\n    tag_303:\n    tag_302:\n      mload(0x40)\n      swap1\n      dup1\n      dup3\n      mstore\n      dup1\n      0x1f\n      add\n      not(0x1f)\n      and\n      0x20\n      add\n      dup3\n      add\n      0x40\n      mstore\n      dup1\n      iszero\n      tag_305\n      jumpi\n      dup2\n      0x20\n      add\n      0x01\n      dup3\n      mul\n      dup1\n      calldatasize\n      dup4\n      calldatacopy\n      dup1\n      dup3\n      add\n      swap2\n      pop\n      pop\n      swap1\n      pop\n    tag_305:\n      pop\n        /* \"@openzeppelin/contracts@4.9.6/utils/Strings.sol\":1918:1965  bytes memory buffer = new bytes(2 * length + 2) */\n      swap1\n      pop\n        /* \"@openzeppelin/contracts@4.9.6/utils/Strings.sol\":1975:1990  buffer[0] = \"0\" */\n      0x3000000000000000000000000000000000000000000000000000000000000000\n        /* \"@openzeppelin/contracts@4.9.6/utils/Strings.sol\":1975:1981  buffer */\n      dup2\n        /* \"@openzeppelin/contracts@4.9.6/utils/Strings.sol\":1982:1983  0 */\n      0x00\n        /* \"@openzeppelin/contracts@4.9.6/utils/Strings.sol\":1975:1984  buffer[0] */\n      dup2\n      mload\n      dup2\n      lt\n      tag_306\n      jumpi\n      tag_307\n      tag_308\n      jump\t// in\n    tag_307:\n    tag_306:\n      0x20\n      add\n      add\n        /* \"@openzeppelin/contracts@4.9.6/utils/Strings.sol\":1975:1990  buffer[0] = \"0\" */\n      swap1\n      not(0xffffffffffffffffffffffffffffffffffffffffffffffffffffffffffffff)\n      and\n      swap1\n      dup2\n      0x00\n      byte\n      swap1\n      mstore8\n      pop\n        /* \"@openzeppelin/contracts@4.9.6/utils/Strings.sol\":2000:2015  buffer[1] = \"x\" */\n      0x7800000000000000000000000000000000000000000000000000000000000000\n        /* \"@openzeppelin/contracts@4.9.6/utils/Strings.sol\":2000:2006  buffer */\n      dup2\n        /* \"@openzeppelin/contracts@4.9.6/utils/Strings.sol\":2007:2008  1 */\n      0x01\n        /* \"@openzeppelin/contracts@4.9.6/utils/Strings.sol\":2000:2009  buffer[1] */\n      dup2\n      mload\n      dup2\n      lt\n      tag_309\n      jumpi\n      tag_310\n      tag_308\n      jump\t// in\n    tag_310:\n    tag_309:\n      0x20\n      add\n      add\n        /* \"@openzeppelin/contracts@4.9.6/utils/Strings.sol\":2000:2015  buffer[1] = \"x\" */\n      swap1\n      not(0xffffffffffffffffffffffffffffffffffffffffffffffffffffffffffffff)\n      and\n      swap1\n      dup2\n      0x00\n      byte\n      swap1\n      mstore8\n      pop\n        /* \"@openzeppelin/contracts@4.9.6/utils/Strings.sol\":2030:2039  uint256 i */\n      0x00\n        /* \"@openzeppelin/contracts@4.9.6/utils/Strings.sol\":2055:2056  1 */\n      0x01\n        /* \"@openzeppelin/contracts@4.9.6/utils/Strings.sol\":2046:2052  length */\n      dup5\n        /* \"@openzeppelin/contracts@4.9.6/utils/Strings.sol\":2042:2043  2 */\n      0x02\n        /* \"@openzeppelin/contracts@4.9.6/utils/Strings.sol\":2042:2052  2 * length */\n      tag_314\n      swap2\n      swap1\n      tag_299\n      jump\t// in\n    tag_314:\n        /* \"@openzeppelin/contracts@4.9.6/utils/Strings.sol\":2042:2056  2 * length + 1 */\n      tag_315\n      swap2\n      swap1\n      tag_301\n      jump\t// in\n    tag_315:\n        /* \"@openzeppelin/contracts@4.9.6/utils/Strings.sol\":2030:2056  uint256 i = 2 * length + 1 */\n      swap1\n      pop\n        /* \"@openzeppelin/contracts@4.9.6/utils/Strings.sol\":2025:2153  for (uint256 i = 2 * length + 1; i > 1; --i) {... */\n    tag_311:\n        /* \"@openzeppelin/contracts@4.9.6/utils/Strings.sol\":2062:2063  1 */\n      0x01\n        /* \"@openzeppelin/contracts@4.9.6/utils/Strings.sol\":2058:2059  i */\n      dup2\n        /* \"@openzeppelin/contracts@4.9.6/utils/Strings.sol\":2058:2063  i > 1 */\n      gt\n        /* \"@openzeppelin/contracts@4.9.6/utils/Strings.sol\":2025:2153  for (uint256 i = 2 * length + 1; i > 1; --i) {... */\n      iszero\n      tag_312\n      jumpi\n        /* \"@openzeppelin/contracts@4.9.6/utils/Strings.sol\":2096:2104  _SYMBOLS */\n      0x3031323334353637383961626364656600000000000000000000000000000000\n        /* \"@openzeppelin/contracts@4.9.6/utils/Strings.sol\":2113:2116  0xf */\n      0x0f\n        /* \"@openzeppelin/contracts@4.9.6/utils/Strings.sol\":2105:2110  value */\n      dup7\n        /* \"@openzeppelin/contracts@4.9.6/utils/Strings.sol\":2105:2116  value & 0xf */\n      and\n        /* \"@openzeppelin/contracts@4.9.6/utils/Strings.sol\":2096:2117  _SYMBOLS[value & 0xf] */\n      0x10\n      dup2\n      lt\n      tag_316\n      jumpi\n      tag_317\n      tag_308\n      jump\t// in\n    tag_317:\n    tag_316:\n      byte\n      0xf8\n      shl\n        /* \"@openzeppelin/contracts@4.9.6/utils/Strings.sol\":2084:2090  buffer */\n      dup3\n        /* \"@openzeppelin/contracts@4.9.6/utils/Strings.sol\":2091:2092  i */\n      dup3\n        /* \"@openzeppelin/contracts@4.9.6/utils/Strings.sol\":2084:2093  buffer[i] */\n      dup2\n      mload\n      dup2\n      lt\n      tag_318\n      jumpi\n      tag_319\n      tag_308\n      jump\t// in\n    tag_319:\n    tag_318:\n      0x20\n      add\n      add\n        /* \"@openzeppelin/contracts@4.9.6/utils/Strings.sol\":2084:2117  buffer[i] = _SYMBOLS[value & 0xf] */\n      swap1\n      not(0xffffffffffffffffffffffffffffffffffffffffffffffffffffffffffffff)\n      and\n      swap1\n      dup2\n      0x00\n      byte\n      swap1\n      mstore8\n      pop\n        /* \"@openzeppelin/contracts@4.9.6/utils/Strings.sol\":2141:2142  4 */\n      0x04\n        /* \"@openzeppelin/contracts@4.9.6/utils/Strings.sol\":2131:2142  value >>= 4 */\n      dup6\n      swap1\n      shr\n      swap5\n      pop\n        /* \"@openzeppelin/contracts@4.9.6/utils/Strings.sol\":2065:2068  --i */\n      dup1\n      tag_320\n      swap1\n      tag_321\n      jump\t// in\n    tag_320:\n      swap1\n      pop\n        /* \"@openzeppelin/contracts@4.9.6/utils/Strings.sol\":2025:2153  for (uint256 i = 2 * length + 1; i > 1; --i) {... */\n      jump(tag_311)\n    tag_312:\n      pop\n        /* \"@openzeppelin/contracts@4.9.6/utils/Strings.sol\":2179:2180  0 */\n      0x00\n        /* \"@openzeppelin/contracts@4.9.6/utils/Strings.sol\":2170:2175  value */\n      dup5\n        /* \"@openzeppelin/contracts@4.9.6/utils/Strings.sol\":2170:2180  value == 0 */\n      eq\n        /* \"@openzeppelin/contracts@4.9.6/utils/Strings.sol\":2162:2217  require(value == 0, \"Strings: hex length insufficient\") */\n      tag_322\n      jumpi\n      mload(0x40)\n      0x08c379a000000000000000000000000000000000000000000000000000000000\n      dup2\n      mstore\n      0x04\n      add\n      tag_323\n      swap1\n      tag_324\n      jump\t// in\n    tag_323:\n      mload(0x40)\n      dup1\n      swap2\n      sub\n      swap1\n      revert\n    tag_322:\n        /* \"@openzeppelin/contracts@4.9.6/utils/Strings.sol\":2241:2247  buffer */\n      dup1\n        /* \"@openzeppelin/contracts@4.9.6/utils/Strings.sol\":2227:2248  return string(buffer) */\n      swap2\n      pop\n      pop\n        /* \"@openzeppelin/contracts@4.9.6/utils/Strings.sol\":1818:2255  function toHexString(uint256 value, uint256 length) internal pure returns (string memory) {... */\n      swap3\n      swap2\n      pop\n      pop\n      jump\t// out\n        /* \"#utility.yul\":88:205   */\n    tag_326:\n        /* \"#utility.yul\":197:198   */\n      0x00\n        /* \"#utility.yul\":194:195   */\n      0x00\n        /* \"#utility.yul\":187:199   */\n      revert\n        /* \"#utility.yul\":211:328   */\n    tag_327:\n        /* \"#utility.yul\":320:321   */\n      0x00\n        /* \"#utility.yul\":317:318   */\n      0x00\n        /* \"#utility.yul\":310:322   */\n      revert\n        /* \"#utility.yul\":334:483   */\n    tag_328:\n        /* \"#utility.yul\":370:377   */\n      0x00\n        /* \"#utility.yul\":410:476   */\n      0xffffffff00000000000000000000000000000000000000000000000000000000\n        /* \"#utility.yul\":403:408   */\n      dup3\n        /* \"#utility.yul\":399:477   */\n      and\n        /* \"#utility.yul\":388:477   */\n      swap1\n      pop\n        /* \"#utility.yul\":334:483   */\n      swap2\n      swap1\n      pop\n      jump\t// out\n        /* \"#utility.yul\":489:609   */\n    tag_329:\n        /* \"#utility.yul\":561:584   */\n      tag_402\n        /* \"#utility.yul\":578:583   */\n      dup2\n        /* \"#utility.yul\":561:584   */\n      tag_328\n      jump\t// in\n    tag_402:\n        /* \"#utility.yul\":554:559   */\n      dup2\n        /* \"#utility.yul\":551:585   */\n      eq\n        /* \"#utility.yul\":541:603   */\n      tag_403\n      jumpi\n        /* \"#utility.yul\":599:600   */\n      0x00\n        /* \"#utility.yul\":596:597   */\n      0x00\n        /* \"#utility.yul\":589:601   */\n      revert\n        /* \"#utility.yul\":541:603   */\n    tag_403:\n        /* \"#utility.yul\":489:609   */\n      pop\n      jump\t// out\n        /* \"#utility.yul\":615:752   */\n    tag_330:\n        /* \"#utility.yul\":660:665   */\n      0x00\n        /* \"#utility.yul\":698:704   */\n      dup2\n        /* \"#utility.yul\":685:705   */\n      calldataload\n        /* \"#utility.yul\":676:705   */\n      swap1\n      pop\n        /* \"#utility.yul\":714:746   */\n      tag_405\n        /* \"#utility.yul\":740:745   */\n      dup2\n        /* \"#utility.yul\":714:746   */\n      tag_329\n      jump\t// in\n    tag_405:\n        /* \"#utility.yul\":615:752   */\n      swap3\n      swap2\n      pop\n      pop\n      jump\t// out\n        /* \"#utility.yul\":758:1085   */\n    tag_31:\n        /* \"#utility.yul\":816:822   */\n      0x00\n        /* \"#utility.yul\":865:867   */\n      0x20\n        /* \"#utility.yul\":853:862   */\n      dup3\n        /* \"#utility.yul\":844:851   */\n      dup5\n        /* \"#utility.yul\":840:863   */\n      sub\n        /* \"#utility.yul\":836:868   */\n      slt\n        /* \"#utility.yul\":833:952   */\n      iszero\n      tag_407\n      jumpi\n        /* \"#utility.yul\":871:950   */\n      tag_408\n      tag_326\n      jump\t// in\n    tag_408:\n        /* \"#utility.yul\":833:952   */\n    tag_407:\n        /* \"#utility.yul\":991:992   */\n      0x00\n        /* \"#utility.yul\":1016:1068   */\n      tag_409\n        /* \"#utility.yul\":1060:1067   */\n      dup5\n        /* \"#utility.yul\":1051:1057   */\n      dup3\n        /* \"#utility.yul\":1040:1049   */\n      dup6\n        /* \"#utility.yul\":1036:1058   */\n      add\n        /* \"#utility.yul\":1016:1068   */\n      tag_330\n      jump\t// in\n    tag_409:\n        /* \"#utility.yul\":1006:1068   */\n      swap2\n      pop\n        /* \"#utility.yul\":962:1078   */\n      pop\n        /* \"#utility.yul\":758:1085   */\n      swap3\n      swap2\n      pop\n      pop\n      jump\t// out\n        /* \"#utility.yul\":1091:1181   */\n    tag_331:\n        /* \"#utility.yul\":1125:1132   */\n      0x00\n        /* \"#utility.yul\":1168:1173   */\n      dup2\n        /* \"#utility.yul\":1161:1174   */\n      iszero\n        /* \"#utility.yul\":1154:1175   */\n      iszero\n        /* \"#utility.yul\":1143:1175   */\n      swap1\n      pop\n        /* \"#utility.yul\":1091:1181   */\n      swap2\n      swap1\n      pop\n      jump\t// out\n        /* \"#utility.yul\":1187:1296   */\n    tag_332:\n        /* \"#utility.yul\":1268:1289   */\n      tag_412\n        /* \"#utility.yul\":1283:1288   */\n      dup2\n        /* \"#utility.yul\":1268:1289   */\n      tag_331\n      jump\t// in\n    tag_412:\n        /* \"#utility.yul\":1263:1266   */\n      dup3\n        /* \"#utility.yul\":1256:1290   */\n      mstore\n        /* \"#utility.yul\":1187:1296   */\n      pop\n      pop\n      jump\t// out\n        /* \"#utility.yul\":1302:1512   */\n    tag_34:\n        /* \"#utility.yul\":1389:1393   */\n      0x00\n        /* \"#utility.yul\":1427:1429   */\n      0x20\n        /* \"#utility.yul\":1416:1425   */\n      dup3\n        /* \"#utility.yul\":1412:1430   */\n      add\n        /* \"#utility.yul\":1404:1430   */\n      swap1\n      pop\n        /* \"#utility.yul\":1440:1505   */\n      tag_414\n        /* \"#utility.yul\":1502:1503   */\n      0x00\n        /* \"#utility.yul\":1491:1500   */\n      dup4\n        /* \"#utility.yul\":1487:1504   */\n      add\n        /* \"#utility.yul\":1478:1484   */\n      dup5\n        /* \"#utility.yul\":1440:1505   */\n      tag_332\n      jump\t// in\n    tag_414:\n        /* \"#utility.yul\":1302:1512   */\n      swap3\n      swap2\n      pop\n      pop\n      jump\t// out\n        /* \"#utility.yul\":1518:1644   */\n    tag_333:\n        /* \"#utility.yul\":1555:1562   */\n      0x00\n        /* \"#utility.yul\":1595:1637   */\n      0xffffffffffffffffffffffffffffffffffffffff\n        /* \"#utility.yul\":1588:1593   */\n      dup3\n        /* \"#utility.yul\":1584:1638   */\n      and\n        /* \"#utility.yul\":1573:1638   */\n      swap1\n      pop\n        /* \"#utility.yul\":1518:1644   */\n      swap2\n      swap1\n      pop\n      jump\t// out\n        /* \"#utility.yul\":1650:1746   */\n    tag_334:\n        /* \"#utility.yul\":1687:1694   */\n      0x00\n        /* \"#utility.yul\":1716:1740   */\n      tag_417\n        /* \"#utility.yul\":1734:1739   */\n      dup3\n        /* \"#utility.yul\":1716:1740   */\n      tag_333\n      jump\t// in\n    tag_417:\n        /* \"#utility.yul\":1705:1740   */\n      swap1\n      pop\n        /* \"#utility.yul\":1650:1746   */\n      swap2\n      swap1\n      pop\n      jump\t// out\n        /* \"#utility.yul\":1752:1874   */\n    tag_335:\n        /* \"#utility.yul\":1825:1849   */\n      tag_419\n        /* \"#utility.yul\":1843:1848   */\n      dup2\n        /* \"#utility.yul\":1825:1849   */\n      tag_334\n      jump\t// in\n    tag_419:\n        /* \"#utility.yul\":1818:1823   */\n      dup2\n        /* \"#utility.yul\":1815:1850   */\n      eq\n        /* \"#utility.yul\":1805:1868   */\n      tag_420\n      jumpi\n        /* \"#utility.yul\":1864:1865   */\n      0x00\n        /* \"#utility.yul\":1861:1862   */\n      0x00\n        /* \"#utility.yul\":1854:1866   */\n      revert\n        /* \"#utility.yul\":1805:1868   */\n    tag_420:\n        /* \"#utility.yul\":1752:1874   */\n      pop\n      jump\t// out\n        /* \"#utility.yul\":1880:2019   */\n    tag_336:\n        /* \"#utility.yul\":1926:1931   */\n      0x00\n        /* \"#utility.yul\":1964:1970   */\n      dup2\n        /* \"#utility.yul\":1951:1971   */\n      calldataload\n        /* \"#utility.yul\":1942:1971   */\n      swap1\n      pop\n        /* \"#utility.yul\":1980:2013   */\n      tag_422\n        /* \"#utility.yul\":2007:2012   */\n      dup2\n        /* \"#utility.yul\":1980:2013   */\n      tag_335\n      jump\t// in\n    tag_422:\n        /* \"#utility.yul\":1880:2019   */\n      swap3\n      swap2\n      pop\n      pop\n      jump\t// out\n        /* \"#utility.yul\":2025:2354   */\n    tag_37:\n        /* \"#utility.yul\":2084:2090   */\n      0x00\n        /* \"#utility.yul\":2133:2135   */\n      0x20\n        /* \"#utility.yul\":2121:2130   */\n      dup3\n        /* \"#utility.yul\":2112:2119   */\n      dup5\n        /* \"#utility.yul\":2108:2131   */\n      sub\n        /* \"#utility.yul\":2104:2136   */\n      slt\n        /* \"#utility.yul\":2101:2220   */\n      iszero\n      tag_424\n      jumpi\n        /* \"#utility.yul\":2139:2218   */\n      tag_425\n      tag_326\n      jump\t// in\n    tag_425:\n        /* \"#utility.yul\":2101:2220   */\n    tag_424:\n        /* \"#utility.yul\":2259:2260   */\n      0x00\n        /* \"#utility.yul\":2284:2337   */\n      tag_426\n        /* \"#utility.yul\":2329:2336   */\n      dup5\n        /* \"#utility.yul\":2320:2326   */\n      dup3\n        /* \"#utility.yul\":2309:2318   */\n      dup6\n        /* \"#utility.yul\":2305:2327   */\n      add\n        /* \"#utility.yul\":2284:2337   */\n      tag_336\n      jump\t// in\n    tag_426:\n        /* \"#utility.yul\":2274:2337   */\n      swap2\n      pop\n        /* \"#utility.yul\":2230:2347   */\n      pop\n        /* \"#utility.yul\":2025:2354   */\n      swap3\n      swap2\n      pop\n      pop\n      jump\t// out\n        /* \"#utility.yul\":2360:2540   */\n    tag_138:\n        /* \"#utility.yul\":2408:2485   */\n      0x4e487b7100000000000000000000000000000000000000000000000000000000\n        /* \"#utility.yul\":2405:2406   */\n      0x00\n        /* \"#utility.yul\":2398:2486   */\n      mstore\n        /* \"#utility.yul\":2505:2509   */\n      0x21\n        /* \"#utility.yul\":2502:2503   */\n      0x04\n        /* \"#utility.yul\":2495:2510   */\n      mstore\n        /* \"#utility.yul\":2529:2533   */\n      0x24\n        /* \"#utility.yul\":2526:2527   */\n      0x00\n        /* \"#utility.yul\":2519:2534   */\n      revert\n        /* \"#utility.yul\":2546:2662   */\n    tag_337:\n        /* \"#utility.yul\":2630:2631   */\n      0x04\n        /* \"#utility.yul\":2623:2628   */\n      dup2\n        /* \"#utility.yul\":2620:2632   */\n      lt\n        /* \"#utility.yul\":2610:2656   */\n      tag_429\n      jumpi\n        /* \"#utility.yul\":2636:2654   */\n      tag_430\n      tag_138\n      jump\t// in\n    tag_430:\n        /* \"#utility.yul\":2610:2656   */\n    tag_429:\n        /* \"#utility.yul\":2546:2662   */\n      pop\n      jump\t// out\n        /* \"#utility.yul\":2668:2801   */\n    tag_338:\n        /* \"#utility.yul\":2716:2723   */\n      0x00\n        /* \"#utility.yul\":2745:2750   */\n      dup2\n        /* \"#utility.yul\":2734:2750   */\n      swap1\n      pop\n        /* \"#utility.yul\":2751:2795   */\n      tag_432\n        /* \"#utility.yul\":2789:2794   */\n      dup3\n        /* \"#utility.yul\":2751:2795   */\n      tag_337\n      jump\t// in\n    tag_432:\n        /* \"#utility.yul\":2668:2801   */\n      swap2\n      swap1\n      pop\n      jump\t// out\n        /* \"#utility.yul\":2807:2940   */\n    tag_339:\n        /* \"#utility.yul\":2866:2875   */\n      0x00\n        /* \"#utility.yul\":2899:2934   */\n      tag_434\n        /* \"#utility.yul\":2928:2933   */\n      dup3\n        /* \"#utility.yul\":2899:2934   */\n      tag_338\n      jump\t// in\n    tag_434:\n        /* \"#utility.yul\":2886:2934   */\n      swap1\n      pop\n        /* \"#utility.yul\":2807:2940   */\n      swap2\n      swap1\n      pop\n      jump\t// out\n        /* \"#utility.yul\":2946:3095   */\n    tag_340:\n        /* \"#utility.yul\":3042:3088   */\n      tag_436\n        /* \"#utility.yul\":3082:3087   */\n      dup2\n        /* \"#utility.yul\":3042:3088   */\n      tag_339\n      jump\t// in\n    tag_436:\n        /* \"#utility.yul\":3037:3040   */\n      dup3\n        /* \"#utility.yul\":3030:3089   */\n      mstore\n        /* \"#utility.yul\":2946:3095   */\n      pop\n      pop\n      jump\t// out\n        /* \"#utility.yul\":3101:3341   */\n    tag_40:\n        /* \"#utility.yul\":3203:3207   */\n      0x00\n        /* \"#utility.yul\":3241:3243   */\n      0x20\n        /* \"#utility.yul\":3230:3239   */\n      dup3\n        /* \"#utility.yul\":3226:3244   */\n      add\n        /* \"#utility.yul\":3218:3244   */\n      swap1\n      pop\n        /* \"#utility.yul\":3254:3334   */\n      tag_438\n        /* \"#utility.yul\":3331:3332   */\n      0x00\n        /* \"#utility.yul\":3320:3329   */\n      dup4\n        /* \"#utility.yul\":3316:3333   */\n      add\n        /* \"#utility.yul\":3307:3313   */\n      dup5\n        /* \"#utility.yul\":3254:3334   */\n      tag_340\n      jump\t// in\n    tag_438:\n        /* \"#utility.yul\":3101:3341   */\n      swap3\n      swap2\n      pop\n      pop\n      jump\t// out\n        /* \"#utility.yul\":3347:3446   */\n    tag_341:\n        /* \"#utility.yul\":3399:3405   */\n      0x00\n        /* \"#utility.yul\":3433:3438   */\n      dup2\n        /* \"#utility.yul\":3427:3439   */\n      mload\n        /* \"#utility.yul\":3417:3439   */\n      swap1\n      pop\n        /* \"#utility.yul\":3347:3446   */\n      swap2\n      swap1\n      pop\n      jump\t// out\n        /* \"#utility.yul\":3452:3621   */\n    tag_342:\n        /* \"#utility.yul\":3536:3547   */\n      0x00\n        /* \"#utility.yul\":3570:3576   */\n      dup3\n        /* \"#utility.yul\":3565:3568   */\n      dup3\n        /* \"#utility.yul\":3558:3577   */\n      mstore\n        /* \"#utility.yul\":3610:3614   */\n      0x20\n        /* \"#utility.yul\":3605:3608   */\n      dup3\n        /* \"#utility.yul\":3601:3615   */\n      add\n        /* \"#utility.yul\":3586:3615   */\n      swap1\n      pop\n        /* \"#utility.yul\":3452:3621   */\n      swap3\n      swap2\n      pop\n      pop\n      jump\t// out\n        /* \"#utility.yul\":3627:3766   */\n    tag_343:\n        /* \"#utility.yul\":3716:3722   */\n      dup3\n        /* \"#utility.yul\":3711:3714   */\n      dup2\n        /* \"#utility.yul\":3706:3709   */\n      dup4\n        /* \"#utility.yul\":3700:3723   */\n      mcopy\n        /* \"#utility.yul\":3757:3758   */\n      0x00\n        /* \"#utility.yul\":3748:3754   */\n      dup4\n        /* \"#utility.yul\":3743:3746   */\n      dup4\n        /* \"#utility.yul\":3739:3755   */\n      add\n        /* \"#utility.yul\":3732:3759   */\n      mstore\n        /* \"#utility.yul\":3627:3766   */\n      pop\n      pop\n      pop\n      jump\t// out\n        /* \"#utility.yul\":3772:3874   */\n    tag_344:\n        /* \"#utility.yul\":3813:3819   */\n      0x00\n        /* \"#utility.yul\":3864:3866   */\n      0x1f\n        /* \"#utility.yul\":3860:3867   */\n      not\n        /* \"#utility.yul\":3855:3857   */\n      0x1f\n        /* \"#utility.yul\":3848:3853   */\n      dup4\n        /* \"#utility.yul\":3844:3858   */\n      add\n        /* \"#utility.yul\":3840:3868   */\n      and\n        /* \"#utility.yul\":3830:3868   */\n      swap1\n      pop\n        /* \"#utility.yul\":3772:3874   */\n      swap2\n      swap1\n      pop\n      jump\t// out\n        /* \"#utility.yul\":3880:4257   */\n    tag_345:\n        /* \"#utility.yul\":3968:3971   */\n      0x00\n        /* \"#utility.yul\":3996:4035   */\n      tag_444\n        /* \"#utility.yul\":4029:4034   */\n      dup3\n        /* \"#utility.yul\":3996:4035   */\n      tag_341\n      jump\t// in\n    tag_444:\n        /* \"#utility.yul\":4051:4122   */\n      tag_445\n        /* \"#utility.yul\":4115:4121   */\n      dup2\n        /* \"#utility.yul\":4110:4113   */\n      dup6\n        /* \"#utility.yul\":4051:4122   */\n      tag_342\n      jump\t// in\n    tag_445:\n        /* \"#utility.yul\":4044:4122   */\n      swap4\n      pop\n        /* \"#utility.yul\":4131:4196   */\n      tag_446\n        /* \"#utility.yul\":4189:4195   */\n      dup2\n        /* \"#utility.yul\":4184:4187   */\n      dup6\n        /* \"#utility.yul\":4177:4181   */\n      0x20\n        /* \"#utility.yul\":4170:4175   */\n      dup7\n        /* \"#utility.yul\":4166:4182   */\n      add\n        /* \"#utility.yul\":4131:4196   */\n      tag_343\n      jump\t// in\n    tag_446:\n        /* \"#utility.yul\":4221:4250   */\n      tag_447\n        /* \"#utility.yul\":4243:4249   */\n      dup2\n        /* \"#utility.yul\":4221:4250   */\n      tag_344\n      jump\t// in\n    tag_447:\n        /* \"#utility.yul\":4216:4219   */\n      dup5\n        /* \"#utility.yul\":4212:4251   */\n      add\n        /* \"#utility.yul\":4205:4251   */\n      swap2\n      pop\n        /* \"#utility.yul\":3972:4257   */\n      pop\n        /* \"#utility.yul\":3880:4257   */\n      swap3\n      swap2\n      pop\n      pop\n      jump\t// out\n        /* \"#utility.yul\":4263:4576   */\n    tag_45:\n        /* \"#utility.yul\":4376:4380   */\n      0x00\n        /* \"#utility.yul\":4414:4416   */\n      0x20\n        /* \"#utility.yul\":4403:4412   */\n      dup3\n        /* \"#utility.yul\":4399:4417   */\n      add\n        /* \"#utility.yul\":4391:4417   */\n      swap1\n      pop\n        /* \"#utility.yul\":4463:4472   */\n      dup2\n        /* \"#utility.yul\":4457:4461   */\n      dup2\n        /* \"#utility.yul\":4453:4473   */\n      sub\n        /* \"#utility.yul\":4449:4450   */\n      0x00\n        /* \"#utility.yul\":4438:4447   */\n      dup4\n        /* \"#utility.yul\":4434:4451   */\n      add\n        /* \"#utility.yul\":4427:4474   */\n      mstore\n        /* \"#utility.yul\":4491:4569   */\n      tag_449\n        /* \"#utility.yul\":4564:4568   */\n      dup2\n        /* \"#utility.yul\":4555:4561   */\n      dup5\n        /* \"#utility.yul\":4491:4569   */\n      tag_345\n      jump\t// in\n    tag_449:\n        /* \"#utility.yul\":4483:4569   */\n      swap1\n      pop\n        /* \"#utility.yul\":4263:4576   */\n      swap3\n      swap2\n      pop\n      pop\n      jump\t// out\n        /* \"#utility.yul\":4582:4659   */\n    tag_346:\n        /* \"#utility.yul\":4619:4626   */\n      0x00\n        /* \"#utility.yul\":4648:4653   */\n      dup2\n        /* \"#utility.yul\":4637:4653   */\n      swap1\n      pop\n        /* \"#utility.yul\":4582:4659   */\n      swap2\n      swap1\n      pop\n      jump\t// out\n        /* \"#utility.yul\":4665:4787   */\n    tag_347:\n        /* \"#utility.yul\":4738:4762   */\n      tag_452\n        /* \"#utility.yul\":4756:4761   */\n      dup2\n        /* \"#utility.yul\":4738:4762   */\n      tag_346\n      jump\t// in\n    tag_452:\n        /* \"#utility.yul\":4731:4736   */\n      dup2\n        /* \"#utility.yul\":4728:4763   */\n      eq\n        /* \"#utility.yul\":4718:4781   */\n      tag_453\n      jumpi\n        /* \"#utility.yul\":4777:4778   */\n      0x00\n        /* \"#utility.yul\":4774:4775   */\n      0x00\n        /* \"#utility.yul\":4767:4779   */\n      revert\n        /* \"#utility.yul\":4718:4781   */\n    tag_453:\n        /* \"#utility.yul\":4665:4787   */\n      pop\n      jump\t// out\n        /* \"#utility.yul\":4793:4932   */\n    tag_348:\n        /* \"#utility.yul\":4839:4844   */\n      0x00\n        /* \"#utility.yul\":4877:4883   */\n      dup2\n        /* \"#utility.yul\":4864:4884   */\n      calldataload\n        /* \"#utility.yul\":4855:4884   */\n      swap1\n      pop\n        /* \"#utility.yul\":4893:4926   */\n      tag_455\n        /* \"#utility.yul\":4920:4925   */\n      dup2\n        /* \"#utility.yul\":4893:4926   */\n      tag_347\n      jump\t// in\n    tag_455:\n        /* \"#utility.yul\":4793:4932   */\n      swap3\n      swap2\n      pop\n      pop\n      jump\t// out\n        /* \"#utility.yul\":4938:5267   */\n    tag_48:\n        /* \"#utility.yul\":4997:5003   */\n      0x00\n        /* \"#utility.yul\":5046:5048   */\n      0x20\n        /* \"#utility.yul\":5034:5043   */\n      dup3\n        /* \"#utility.yul\":5025:5032   */\n      dup5\n        /* \"#utility.yul\":5021:5044   */\n      sub\n        /* \"#utility.yul\":5017:5049   */\n      slt\n        /* \"#utility.yul\":5014:5133   */\n      iszero\n      tag_457\n      jumpi\n        /* \"#utility.yul\":5052:5131   */\n      tag_458\n      tag_326\n      jump\t// in\n    tag_458:\n        /* \"#utility.yul\":5014:5133   */\n    tag_457:\n        /* \"#utility.yul\":5172:5173   */\n      0x00\n        /* \"#utility.yul\":5197:5250   */\n      tag_459\n        /* \"#utility.yul\":5242:5249   */\n      dup5\n        /* \"#utility.yul\":5233:5239   */\n      dup3\n        /* \"#utility.yul\":5222:5231   */\n      dup6\n        /* \"#utility.yul\":5218:5240   */\n      add\n        /* \"#utility.yul\":5197:5250   */\n      tag_348\n      jump\t// in\n    tag_459:\n        /* \"#utility.yul\":5187:5250   */\n      swap2\n      pop\n        /* \"#utility.yul\":5143:5260   */\n      pop\n        /* \"#utility.yul\":4938:5267   */\n      swap3\n      swap2\n      pop\n      pop\n      jump\t// out\n        /* \"#utility.yul\":5273:5391   */\n    tag_349:\n        /* \"#utility.yul\":5360:5384   */\n      tag_461\n        /* \"#utility.yul\":5378:5383   */\n      dup2\n        /* \"#utility.yul\":5360:5384   */\n      tag_346\n      jump\t// in\n    tag_461:\n        /* \"#utility.yul\":5355:5358   */\n      dup3\n        /* \"#utility.yul\":5348:5385   */\n      mstore\n        /* \"#utility.yul\":5273:5391   */\n      pop\n      pop\n      jump\t// out\n        /* \"#utility.yul\":5397:5619   */\n    tag_51:\n        /* \"#utility.yul\":5490:5494   */\n      0x00\n        /* \"#utility.yul\":5528:5530   */\n      0x20\n        /* \"#utility.yul\":5517:5526   */\n      dup3\n        /* \"#utility.yul\":5513:5531   */\n      add\n        /* \"#utility.yul\":5505:5531   */\n      swap1\n      pop\n        /* \"#utility.yul\":5541:5612   */\n      tag_463\n        /* \"#utility.yul\":5609:5610   */\n      0x00\n        /* \"#utility.yul\":5598:5607   */\n      dup4\n        /* \"#utility.yul\":5594:5611   */\n      add\n        /* \"#utility.yul\":5585:5591   */\n      dup5\n        /* \"#utility.yul\":5541:5612   */\n      tag_349\n      jump\t// in\n    tag_463:\n        /* \"#utility.yul\":5397:5619   */\n      swap3\n      swap2\n      pop\n      pop\n      jump\t// out\n        /* \"#utility.yul\":5625:5742   */\n    tag_350:\n        /* \"#utility.yul\":5734:5735   */\n      0x00\n        /* \"#utility.yul\":5731:5732   */\n      0x00\n        /* \"#utility.yul\":5724:5736   */\n      revert\n        /* \"#utility.yul\":5748:5865   */\n    tag_351:\n        /* \"#utility.yul\":5857:5858   */\n      0x00\n        /* \"#utility.yul\":5854:5855   */\n      0x00\n        /* \"#utility.yul\":5847:5859   */\n      revert\n        /* \"#utility.yul\":5871:5988   */\n    tag_352:\n        /* \"#utility.yul\":5980:5981   */\n      0x00\n        /* \"#utility.yul\":5977:5978   */\n      0x00\n        /* \"#utility.yul\":5970:5982   */\n      revert\n        /* \"#utility.yul\":6008:6561   */\n    tag_353:\n        /* \"#utility.yul\":6066:6074   */\n      0x00\n        /* \"#utility.yul\":6076:6082   */\n      0x00\n        /* \"#utility.yul\":6126:6129   */\n      dup4\n        /* \"#utility.yul\":6119:6123   */\n      0x1f\n        /* \"#utility.yul\":6111:6117   */\n      dup5\n        /* \"#utility.yul\":6107:6124   */\n      add\n        /* \"#utility.yul\":6103:6130   */\n      slt\n        /* \"#utility.yul\":6093:6215   */\n      tag_468\n      jumpi\n        /* \"#utility.yul\":6134:6213   */\n      tag_469\n      tag_350\n      jump\t// in\n    tag_469:\n        /* \"#utility.yul\":6093:6215   */\n    tag_468:\n        /* \"#utility.yul\":6247:6253   */\n      dup3\n        /* \"#utility.yul\":6234:6254   */\n      calldataload\n        /* \"#utility.yul\":6224:6254   */\n      swap1\n      pop\n        /* \"#utility.yul\":6277:6295   */\n      0xffffffffffffffff\n        /* \"#utility.yul\":6269:6275   */\n      dup2\n        /* \"#utility.yul\":6266:6296   */\n      gt\n        /* \"#utility.yul\":6263:6380   */\n      iszero\n      tag_470\n      jumpi\n        /* \"#utility.yul\":6299:6378   */\n      tag_471\n      tag_351\n      jump\t// in\n    tag_471:\n        /* \"#utility.yul\":6263:6380   */\n    tag_470:\n        /* \"#utility.yul\":6413:6417   */\n      0x20\n        /* \"#utility.yul\":6405:6411   */\n      dup4\n        /* \"#utility.yul\":6401:6418   */\n      add\n        /* \"#utility.yul\":6389:6418   */\n      swap2\n      pop\n        /* \"#utility.yul\":6467:6470   */\n      dup4\n        /* \"#utility.yul\":6459:6463   */\n      0x01\n        /* \"#utility.yul\":6451:6457   */\n      dup3\n        /* \"#utility.yul\":6447:6464   */\n      mul\n        /* \"#utility.yul\":6437:6445   */\n      dup4\n        /* \"#utility.yul\":6433:6465   */\n      add\n        /* \"#utility.yul\":6430:6471   */\n      gt\n        /* \"#utility.yul\":6427:6555   */\n      iszero\n      tag_472\n      jumpi\n        /* \"#utility.yul\":6474:6553   */\n      tag_473\n      tag_352\n      jump\t// in\n    tag_473:\n        /* \"#utility.yul\":6427:6555   */\n    tag_472:\n        /* \"#utility.yul\":6008:6561   */\n      swap3\n      pop\n      swap3\n      swap1\n      pop\n      jump\t// out\n        /* \"#utility.yul\":6567:7241   */\n    tag_54:\n        /* \"#utility.yul\":6647:6653   */\n      0x00\n        /* \"#utility.yul\":6655:6661   */\n      0x00\n        /* \"#utility.yul\":6663:6669   */\n      0x00\n        /* \"#utility.yul\":6712:6714   */\n      0x40\n        /* \"#utility.yul\":6700:6709   */\n      dup5\n        /* \"#utility.yul\":6691:6698   */\n      dup7\n        /* \"#utility.yul\":6687:6710   */\n      sub\n        /* \"#utility.yul\":6683:6715   */\n      slt\n        /* \"#utility.yul\":6680:6799   */\n      iszero\n      tag_475\n      jumpi\n        /* \"#utility.yul\":6718:6797   */\n      tag_476\n      tag_326\n      jump\t// in\n    tag_476:\n        /* \"#utility.yul\":6680:6799   */\n    tag_475:\n        /* \"#utility.yul\":6838:6839   */\n      0x00\n        /* \"#utility.yul\":6863:6916   */\n      tag_477\n        /* \"#utility.yul\":6908:6915   */\n      dup7\n        /* \"#utility.yul\":6899:6905   */\n      dup3\n        /* \"#utility.yul\":6888:6897   */\n      dup8\n        /* \"#utility.yul\":6884:6906   */\n      add\n        /* \"#utility.yul\":6863:6916   */\n      tag_336\n      jump\t// in\n    tag_477:\n        /* \"#utility.yul\":6853:6916   */\n      swap4\n      pop\n        /* \"#utility.yul\":6809:6926   */\n      pop\n        /* \"#utility.yul\":6993:6995   */\n      0x20\n        /* \"#utility.yul\":6982:6991   */\n      dup5\n        /* \"#utility.yul\":6978:6996   */\n      add\n        /* \"#utility.yul\":6965:6997   */\n      calldataload\n        /* \"#utility.yul\":7024:7042   */\n      0xffffffffffffffff\n        /* \"#utility.yul\":7016:7022   */\n      dup2\n        /* \"#utility.yul\":7013:7043   */\n      gt\n        /* \"#utility.yul\":7010:7127   */\n      iszero\n      tag_478\n      jumpi\n        /* \"#utility.yul\":7046:7125   */\n      tag_479\n      tag_327\n      jump\t// in\n    tag_479:\n        /* \"#utility.yul\":7010:7127   */\n    tag_478:\n        /* \"#utility.yul\":7159:7224   */\n      tag_480\n        /* \"#utility.yul\":7216:7223   */\n      dup7\n        /* \"#utility.yul\":7207:7213   */\n      dup3\n        /* \"#utility.yul\":7196:7205   */\n      dup8\n        /* \"#utility.yul\":7192:7214   */\n      add\n        /* \"#utility.yul\":7159:7224   */\n      tag_353\n      jump\t// in\n    tag_480:\n        /* \"#utility.yul\":7141:7224   */\n      swap3\n      pop\n      swap3\n      pop\n        /* \"#utility.yul\":6936:7234   */\n      pop\n        /* \"#utility.yul\":6567:7241   */\n      swap3\n      pop\n      swap3\n      pop\n      swap3\n      jump\t// out\n        /* \"#utility.yul\":7247:7721   */\n    tag_58:\n        /* \"#utility.yul\":7315:7321   */\n      0x00\n        /* \"#utility.yul\":7323:7329   */\n      0x00\n        /* \"#utility.yul\":7372:7374   */\n      0x40\n        /* \"#utility.yul\":7360:7369   */\n      dup4\n        /* \"#utility.yul\":7351:7358   */\n      dup6\n        /* \"#utility.yul\":7347:7370   */\n      sub\n        /* \"#utility.yul\":7343:7375   */\n      slt\n        /* \"#utility.yul\":7340:7459   */\n      iszero\n      tag_482\n      jumpi\n        /* \"#utility.yul\":7378:7457   */\n      tag_483\n      tag_326\n      jump\t// in\n    tag_483:\n        /* \"#utility.yul\":7340:7459   */\n    tag_482:\n        /* \"#utility.yul\":7498:7499   */\n      0x00\n        /* \"#utility.yul\":7523:7576   */\n      tag_484\n        /* \"#utility.yul\":7568:7575   */\n      dup6\n        /* \"#utility.yul\":7559:7565   */\n      dup3\n        /* \"#utility.yul\":7548:7557   */\n      dup7\n        /* \"#utility.yul\":7544:7566   */\n      add\n        /* \"#utility.yul\":7523:7576   */\n      tag_348\n      jump\t// in\n    tag_484:\n        /* \"#utility.yul\":7513:7576   */\n      swap3\n      pop\n        /* \"#utility.yul\":7469:7586   */\n      pop\n        /* \"#utility.yul\":7625:7627   */\n      0x20\n        /* \"#utility.yul\":7651:7704   */\n      tag_485\n        /* \"#utility.yul\":7696:7703   */\n      dup6\n        /* \"#utility.yul\":7687:7693   */\n      dup3\n        /* \"#utility.yul\":7676:7685   */\n      dup7\n        /* \"#utility.yul\":7672:7694   */\n      add\n        /* \"#utility.yul\":7651:7704   */\n      tag_336\n      jump\t// in\n    tag_485:\n        /* \"#utility.yul\":7641:7704   */\n      swap2\n      pop\n        /* \"#utility.yul\":7596:7714   */\n      pop\n        /* \"#utility.yul\":7247:7721   */\n      swap3\n      pop\n      swap3\n      swap1\n      pop\n      jump\t// out\n        /* \"#utility.yul\":7727:7843   */\n    tag_354:\n        /* \"#utility.yul\":7797:7818   */\n      tag_487\n        /* \"#utility.yul\":7812:7817   */\n      dup2\n        /* \"#utility.yul\":7797:7818   */\n      tag_331\n      jump\t// in\n    tag_487:\n        /* \"#utility.yul\":7790:7795   */\n      dup2\n        /* \"#utility.yul\":7787:7819   */\n      eq\n        /* \"#utility.yul\":7777:7837   */\n      tag_488\n      jumpi\n        /* \"#utility.yul\":7833:7834   */\n      0x00\n        /* \"#utility.yul\":7830:7831   */\n      0x00\n        /* \"#utility.yul\":7823:7835   */\n      revert\n        /* \"#utility.yul\":7777:7837   */\n    tag_488:\n        /* \"#utility.yul\":7727:7843   */\n      pop\n      jump\t// out\n        /* \"#utility.yul\":7849:7982   */\n    tag_355:\n        /* \"#utility.yul\":7892:7897   */\n      0x00\n        /* \"#utility.yul\":7930:7936   */\n      dup2\n        /* \"#utility.yul\":7917:7937   */\n      calldataload\n        /* \"#utility.yul\":7908:7937   */\n      swap1\n      pop\n        /* \"#utility.yul\":7946:7976   */\n      tag_490\n        /* \"#utility.yul\":7970:7975   */\n      dup2\n        /* \"#utility.yul\":7946:7976   */\n      tag_354\n      jump\t// in\n    tag_490:\n        /* \"#utility.yul\":7849:7982   */\n      swap3\n      swap2\n      pop\n      pop\n      jump\t// out\n        /* \"#utility.yul\":7988:8801   */\n    tag_78:\n        /* \"#utility.yul\":8074:8080   */\n      0x00\n        /* \"#utility.yul\":8082:8088   */\n      0x00\n        /* \"#utility.yul\":8090:8096   */\n      0x00\n        /* \"#utility.yul\":8098:8104   */\n      0x00\n        /* \"#utility.yul\":8147:8149   */\n      0x60\n        /* \"#utility.yul\":8135:8144   */\n      dup6\n        /* \"#utility.yul\":8126:8133   */\n      dup8\n        /* \"#utility.yul\":8122:8145   */\n      sub\n        /* \"#utility.yul\":8118:8150   */\n      slt\n        /* \"#utility.yul\":8115:8234   */\n      iszero\n      tag_492\n      jumpi\n        /* \"#utility.yul\":8153:8232   */\n      tag_493\n      tag_326\n      jump\t// in\n    tag_493:\n        /* \"#utility.yul\":8115:8234   */\n    tag_492:\n        /* \"#utility.yul\":8273:8274   */\n      0x00\n        /* \"#utility.yul\":8298:8351   */\n      tag_494\n        /* \"#utility.yul\":8343:8350   */\n      dup8\n        /* \"#utility.yul\":8334:8340   */\n      dup3\n        /* \"#utility.yul\":8323:8332   */\n      dup9\n        /* \"#utility.yul\":8319:8341   */\n      add\n        /* \"#utility.yul\":8298:8351   */\n      tag_336\n      jump\t// in\n    tag_494:\n        /* \"#utility.yul\":8288:8351   */\n      swap5\n      pop\n        /* \"#utility.yul\":8244:8361   */\n      pop\n        /* \"#utility.yul\":8428:8430   */\n      0x20\n        /* \"#utility.yul\":8417:8426   */\n      dup6\n        /* \"#utility.yul\":8413:8431   */\n      add\n        /* \"#utility.yul\":8400:8432   */\n      calldataload\n        /* \"#utility.yul\":8459:8477   */\n      0xffffffffffffffff\n        /* \"#utility.yul\":8451:8457   */\n      dup2\n        /* \"#utility.yul\":8448:8478   */\n      gt\n        /* \"#utility.yul\":8445:8562   */\n      iszero\n      tag_495\n      jumpi\n        /* \"#utility.yul\":8481:8560   */\n      tag_496\n      tag_327\n      jump\t// in\n    tag_496:\n        /* \"#utility.yul\":8445:8562   */\n    tag_495:\n        /* \"#utility.yul\":8594:8659   */\n      tag_497\n        /* \"#utility.yul\":8651:8658   */\n      dup8\n        /* \"#utility.yul\":8642:8648   */\n      dup3\n        /* \"#utility.yul\":8631:8640   */\n      dup9\n        /* \"#utility.yul\":8627:8649   */\n      add\n        /* \"#utility.yul\":8594:8659   */\n      tag_353\n      jump\t// in\n    tag_497:\n        /* \"#utility.yul\":8576:8659   */\n      swap4\n      pop\n      swap4\n      pop\n        /* \"#utility.yul\":8371:8669   */\n      pop\n        /* \"#utility.yul\":8708:8710   */\n      0x40\n        /* \"#utility.yul\":8734:8784   */\n      tag_498\n        /* \"#utility.yul\":8776:8783   */\n      dup8\n        /* \"#utility.yul\":8767:8773   */\n      dup3\n        /* \"#utility.yul\":8756:8765   */\n      dup9\n        /* \"#utility.yul\":8752:8774   */\n      add\n        /* \"#utility.yul\":8734:8784   */\n      tag_355\n      jump\t// in\n    tag_498:\n        /* \"#utility.yul\":8724:8784   */\n      swap2\n      pop\n        /* \"#utility.yul\":8679:8794   */\n      pop\n        /* \"#utility.yul\":7988:8801   */\n      swap3\n      swap6\n      swap2\n      swap5\n      pop\n      swap3\n      pop\n      jump\t// out\n        /* \"#utility.yul\":8807:9336   */\n    tag_98:\n        /* \"#utility.yul\":8878:8884   */\n      0x00\n        /* \"#utility.yul\":8886:8892   */\n      0x00\n        /* \"#utility.yul\":8935:8937   */\n      0x20\n        /* \"#utility.yul\":8923:8932   */\n      dup4\n        /* \"#utility.yul\":8914:8921   */\n      dup6\n        /* \"#utility.yul\":8910:8933   */\n      sub\n        /* \"#utility.yul\":8906:8938   */\n      slt\n        /* \"#utility.yul\":8903:9022   */\n      iszero\n      tag_500\n      jumpi\n        /* \"#utility.yul\":8941:9020   */\n      tag_501\n      tag_326\n      jump\t// in\n    tag_501:\n        /* \"#utility.yul\":8903:9022   */\n    tag_500:\n        /* \"#utility.yul\":9089:9090   */\n      0x00\n        /* \"#utility.yul\":9078:9087   */\n      dup4\n        /* \"#utility.yul\":9074:9091   */\n      add\n        /* \"#utility.yul\":9061:9092   */\n      calldataload\n        /* \"#utility.yul\":9119:9137   */\n      0xffffffffffffffff\n        /* \"#utility.yul\":9111:9117   */\n      dup2\n        /* \"#utility.yul\":9108:9138   */\n      gt\n        /* \"#utility.yul\":9105:9222   */\n      iszero\n      tag_502\n      jumpi\n        /* \"#utility.yul\":9141:9220   */\n      tag_503\n      tag_327\n      jump\t// in\n    tag_503:\n        /* \"#utility.yul\":9105:9222   */\n    tag_502:\n        /* \"#utility.yul\":9254:9319   */\n      tag_504\n        /* \"#utility.yul\":9311:9318   */\n      dup6\n        /* \"#utility.yul\":9302:9308   */\n      dup3\n        /* \"#utility.yul\":9291:9300   */\n      dup7\n        /* \"#utility.yul\":9287:9309   */\n      add\n        /* \"#utility.yul\":9254:9319   */\n      tag_353\n      jump\t// in\n    tag_504:\n        /* \"#utility.yul\":9236:9319   */\n      swap3\n      pop\n      swap3\n      pop\n        /* \"#utility.yul\":9032:9329   */\n      pop\n        /* \"#utility.yul\":8807:9336   */\n      swap3\n      pop\n      swap3\n      swap1\n      pop\n      jump\t// out\n        /* \"#utility.yul\":9342:9522   */\n    tag_356:\n        /* \"#utility.yul\":9390:9467   */\n      0x4e487b7100000000000000000000000000000000000000000000000000000000\n        /* \"#utility.yul\":9387:9388   */\n      0x00\n        /* \"#utility.yul\":9380:9468   */\n      mstore\n        /* \"#utility.yul\":9487:9491   */\n      0x22\n        /* \"#utility.yul\":9484:9485   */\n      0x04\n        /* \"#utility.yul\":9477:9492   */\n      mstore\n        /* \"#utility.yul\":9511:9515   */\n      0x24\n        /* \"#utility.yul\":9508:9509   */\n      0x00\n        /* \"#utility.yul\":9501:9516   */\n      revert\n        /* \"#utility.yul\":9528:9848   */\n    tag_123:\n        /* \"#utility.yul\":9572:9578   */\n      0x00\n        /* \"#utility.yul\":9609:9610   */\n      0x02\n        /* \"#utility.yul\":9603:9607   */\n      dup3\n        /* \"#utility.yul\":9599:9611   */\n      div\n        /* \"#utility.yul\":9589:9611   */\n      swap1\n      pop\n        /* \"#utility.yul\":9656:9657   */\n      0x01\n        /* \"#utility.yul\":9650:9654   */\n      dup3\n        /* \"#utility.yul\":9646:9658   */\n      and\n        /* \"#utility.yul\":9677:9695   */\n      dup1\n        /* \"#utility.yul\":9667:9748   */\n      tag_507\n      jumpi\n        /* \"#utility.yul\":9733:9737   */\n      0x7f\n        /* \"#utility.yul\":9725:9731   */\n      dup3\n        /* \"#utility.yul\":9721:9738   */\n      and\n        /* \"#utility.yul\":9711:9738   */\n      swap2\n      pop\n        /* \"#utility.yul\":9667:9748   */\n    tag_507:\n        /* \"#utility.yul\":9795:9797   */\n      0x20\n        /* \"#utility.yul\":9787:9793   */\n      dup3\n        /* \"#utility.yul\":9784:9798   */\n      lt\n        /* \"#utility.yul\":9764:9782   */\n      dup2\n        /* \"#utility.yul\":9761:9799   */\n      sub\n        /* \"#utility.yul\":9758:9842   */\n      tag_508\n      jumpi\n        /* \"#utility.yul\":9814:9832   */\n      tag_509\n      tag_356\n      jump\t// in\n    tag_509:\n        /* \"#utility.yul\":9758:9842   */\n    tag_508:\n        /* \"#utility.yul\":9579:9848   */\n      pop\n        /* \"#utility.yul\":9528:9848   */\n      swap2\n      swap1\n      pop\n      jump\t// out\n        /* \"#utility.yul\":9854:10034   */\n    tag_304:\n        /* \"#utility.yul\":9902:9979   */\n      0x4e487b7100000000000000000000000000000000000000000000000000000000\n        /* \"#utility.yul\":9899:9900   */\n      0x00\n        /* \"#utility.yul\":9892:9980   */\n      mstore\n        /* \"#utility.yul\":9999:10003   */\n      0x41\n        /* \"#utility.yul\":9996:9997   */\n      0x04\n        /* \"#utility.yul\":9989:10004   */\n      mstore\n        /* \"#utility.yul\":10023:10027   */\n      0x24\n        /* \"#utility.yul\":10020:10021   */\n      0x00\n        /* \"#utility.yul\":10013:10028   */\n      revert\n        /* \"#utility.yul\":10040:10181   */\n    tag_357:\n        /* \"#utility.yul\":10089:10093   */\n      0x00\n        /* \"#utility.yul\":10112:10115   */\n      dup2\n        /* \"#utility.yul\":10104:10115   */\n      swap1\n      pop\n        /* \"#utility.yul\":10135:10138   */\n      dup2\n        /* \"#utility.yul\":10132:10133   */\n      0x00\n        /* \"#utility.yul\":10125:10139   */\n      mstore\n        /* \"#utility.yul\":10169:10173   */\n      0x20\n        /* \"#utility.yul\":10166:10167   */\n      0x00\n        /* \"#utility.yul\":10156:10174   */\n      keccak256\n        /* \"#utility.yul\":10148:10174   */\n      swap1\n      pop\n        /* \"#utility.yul\":10040:10181   */\n      swap2\n      swap1\n      pop\n      jump\t// out\n        /* \"#utility.yul\":10187:10280   */\n    tag_358:\n        /* \"#utility.yul\":10224:10230   */\n      0x00\n        /* \"#utility.yul\":10271:10273   */\n      0x20\n        /* \"#utility.yul\":10266:10268   */\n      0x1f\n        /* \"#utility.yul\":10259:10264   */\n      dup4\n        /* \"#utility.yul\":10255:10269   */\n      add\n        /* \"#utility.yul\":10251:10274   */\n      div\n        /* \"#utility.yul\":10241:10274   */\n      swap1\n      pop\n        /* \"#utility.yul\":10187:10280   */\n      swap2\n      swap1\n      pop\n      jump\t// out\n        /* \"#utility.yul\":10286:10393   */\n    tag_359:\n        /* \"#utility.yul\":10330:10338   */\n      0x00\n        /* \"#utility.yul\":10380:10385   */\n      dup3\n        /* \"#utility.yul\":10374:10378   */\n      dup3\n        /* \"#utility.yul\":10370:10386   */\n      shl\n        /* \"#utility.yul\":10349:10386   */\n      swap1\n      pop\n        /* \"#utility.yul\":10286:10393   */\n      swap3\n      swap2\n      pop\n      pop\n      jump\t// out\n        /* \"#utility.yul\":10399:10792   */\n    tag_360:\n        /* \"#utility.yul\":10468:10474   */\n      0x00\n        /* \"#utility.yul\":10518:10519   */\n      0x08\n        /* \"#utility.yul\":10506:10516   */\n      dup4\n        /* \"#utility.yul\":10502:10520   */\n      mul\n        /* \"#utility.yul\":10541:10638   */\n      tag_515\n        /* \"#utility.yul\":10571:10637   */\n      0xffffffffffffffffffffffffffffffffffffffffffffffffffffffffffffffff\n        /* \"#utility.yul\":10560:10569   */\n      dup3\n        /* \"#utility.yul\":10541:10638   */\n      tag_359\n      jump\t// in\n    tag_515:\n        /* \"#utility.yul\":10659:10698   */\n      tag_516\n        /* \"#utility.yul\":10689:10697   */\n      dup7\n        /* \"#utility.yul\":10678:10687   */\n      dup4\n        /* \"#utility.yul\":10659:10698   */\n      tag_359\n      jump\t// in\n    tag_516:\n        /* \"#utility.yul\":10647:10698   */\n      swap6\n      pop\n        /* \"#utility.yul\":10731:10735   */\n      dup1\n        /* \"#utility.yul\":10727:10736   */\n      not\n        /* \"#utility.yul\":10720:10725   */\n      dup5\n        /* \"#utility.yul\":10716:10737   */\n      and\n        /* \"#utility.yul\":10707:10737   */\n      swap4\n      pop\n        /* \"#utility.yul\":10780:10784   */\n      dup1\n        /* \"#utility.yul\":10770:10778   */\n      dup7\n        /* \"#utility.yul\":10766:10785   */\n      and\n        /* \"#utility.yul\":10759:10764   */\n      dup5\n        /* \"#utility.yul\":10756:10786   */\n      or\n        /* \"#utility.yul\":10746:10786   */\n      swap3\n      pop\n        /* \"#utility.yul\":10475:10792   */\n      pop\n      pop\n        /* \"#utility.yul\":10399:10792   */\n      swap4\n      swap3\n      pop\n      pop\n      pop\n      jump\t// out\n        /* \"#utility.yul\":10798:10875   */\n    tag_361:\n        /* \"#utility.yul\":10835:10842   */\n      0x00\n        /* \"#utility.yul\":10864:10869   */\n      dup2\n        /* \"#utility.yul\":10853:10869   */\n      swap1\n      pop\n        /* \"#utility.yul\":10798:10875   */\n      swap2\n      swap1\n      pop\n      jump\t// out\n        /* \"#utility.yul\":10881:10941   */\n    tag_362:\n        /* \"#utility.yul\":10909:10912   */\n      0x00\n        /* \"#utility.yul\":10930:10935   */\n      dup2\n        /* \"#utility.yul\":10923:10935   */\n      swap1\n      pop\n        /* \"#utility.yul\":10881:10941   */\n      swap2\n      swap1\n      pop\n      jump\t// out\n        /* \"#utility.yul\":10947:11089   */\n    tag_363:\n        /* \"#utility.yul\":10997:11006   */\n      0x00\n        /* \"#utility.yul\":11030:11083   */\n      tag_520\n        /* \"#utility.yul\":11048:11082   */\n      tag_521\n        /* \"#utility.yul\":11057:11081   */\n      tag_522\n        /* \"#utility.yul\":11075:11080   */\n      dup5\n        /* \"#utility.yul\":11057:11081   */\n      tag_361\n      jump\t// in\n    tag_522:\n        /* \"#utility.yul\":11048:11082   */\n      tag_362\n      jump\t// in\n    tag_521:\n        /* \"#utility.yul\":11030:11083   */\n      tag_361\n      jump\t// in\n    tag_520:\n        /* \"#utility.yul\":11017:11083   */\n      swap1\n      pop\n        /* \"#utility.yul\":10947:11089   */\n      swap2\n      swap1\n      pop\n      jump\t// out\n        /* \"#utility.yul\":11095:11170   */\n    tag_364:\n        /* \"#utility.yul\":11138:11141   */\n      0x00\n        /* \"#utility.yul\":11159:11164   */\n      dup2\n        /* \"#utility.yul\":11152:11164   */\n      swap1\n      pop\n        /* \"#utility.yul\":11095:11170   */\n      swap2\n      swap1\n      pop\n      jump\t// out\n        /* \"#utility.yul\":11176:11445   */\n    tag_365:\n        /* \"#utility.yul\":11286:11325   */\n      tag_525\n        /* \"#utility.yul\":11317:11324   */\n      dup4\n        /* \"#utility.yul\":11286:11325   */\n      tag_363\n      jump\t// in\n    tag_525:\n        /* \"#utility.yul\":11347:11438   */\n      tag_526\n        /* \"#utility.yul\":11396:11437   */\n      tag_527\n        /* \"#utility.yul\":11420:11436   */\n      dup3\n        /* \"#utility.yul\":11396:11437   */\n      tag_364\n      jump\t// in\n    tag_527:\n        /* \"#utility.yul\":11388:11394   */\n      dup5\n        /* \"#utility.yul\":11381:11385   */\n      dup5\n        /* \"#utility.yul\":11375:11386   */\n      sload\n        /* \"#utility.yul\":11347:11438   */\n      tag_360\n      jump\t// in\n    tag_526:\n        /* \"#utility.yul\":11341:11345   */\n      dup3\n        /* \"#utility.yul\":11334:11439   */\n      sstore\n        /* \"#utility.yul\":11252:11445   */\n      pop\n        /* \"#utility.yul\":11176:11445   */\n      pop\n      pop\n      pop\n      jump\t// out\n        /* \"#utility.yul\":11451:11524   */\n    tag_366:\n        /* \"#utility.yul\":11496:11499   */\n      0x00\n        /* \"#utility.yul\":11517:11518   */\n      0x00\n        /* \"#utility.yul\":11510:11518   */\n      swap1\n      pop\n        /* \"#utility.yul\":11451:11524   */\n      swap1\n      jump\t// out\n        /* \"#utility.yul\":11530:11719   */\n    tag_367:\n        /* \"#utility.yul\":11607:11639   */\n      tag_530\n      tag_366\n      jump\t// in\n    tag_530:\n        /* \"#utility.yul\":11648:11713   */\n      tag_531\n        /* \"#utility.yul\":11706:11712   */\n      dup2\n        /* \"#utility.yul\":11698:11704   */\n      dup5\n        /* \"#utility.yul\":11692:11696   */\n      dup5\n        /* \"#utility.yul\":11648:11713   */\n      tag_365\n      jump\t// in\n    tag_531:\n        /* \"#utility.yul\":11583:11719   */\n      pop\n        /* \"#utility.yul\":11530:11719   */\n      pop\n      pop\n      jump\t// out\n        /* \"#utility.yul\":11725:11911   */\n    tag_368:\n        /* \"#utility.yul\":11785:11905   */\n    tag_533:\n        /* \"#utility.yul\":11802:11805   */\n      dup2\n        /* \"#utility.yul\":11795:11800   */\n      dup2\n        /* \"#utility.yul\":11792:11806   */\n      lt\n        /* \"#utility.yul\":11785:11905   */\n      iszero\n      tag_535\n      jumpi\n        /* \"#utility.yul\":11856:11895   */\n      tag_536\n        /* \"#utility.yul\":11893:11894   */\n      0x00\n        /* \"#utility.yul\":11886:11891   */\n      dup3\n        /* \"#utility.yul\":11856:11895   */\n      tag_367\n      jump\t// in\n    tag_536:\n        /* \"#utility.yul\":11829:11830   */\n      0x01\n        /* \"#utility.yul\":11822:11827   */\n      dup2\n        /* \"#utility.yul\":11818:11831   */\n      add\n        /* \"#utility.yul\":11809:11831   */\n      swap1\n      pop\n        /* \"#utility.yul\":11785:11905   */\n      jump(tag_533)\n    tag_535:\n        /* \"#utility.yul\":11725:11911   */\n      pop\n      pop\n      jump\t// out\n        /* \"#utility.yul\":11917:12460   */\n    tag_369:\n        /* \"#utility.yul\":12018:12020   */\n      0x1f\n        /* \"#utility.yul\":12013:12016   */\n      dup3\n        /* \"#utility.yul\":12010:12021   */\n      gt\n        /* \"#utility.yul\":12007:12453   */\n      iszero\n      tag_538\n      jumpi\n        /* \"#utility.yul\":12052:12090   */\n      tag_539\n        /* \"#utility.yul\":12084:12089   */\n      dup2\n        /* \"#utility.yul\":12052:12090   */\n      tag_357\n      jump\t// in\n    tag_539:\n        /* \"#utility.yul\":12136:12165   */\n      tag_540\n        /* \"#utility.yul\":12154:12164   */\n      dup5\n        /* \"#utility.yul\":12136:12165   */\n      tag_358\n      jump\t// in\n    tag_540:\n        /* \"#utility.yul\":12126:12134   */\n      dup2\n        /* \"#utility.yul\":12122:12166   */\n      add\n        /* \"#utility.yul\":12319:12321   */\n      0x20\n        /* \"#utility.yul\":12307:12317   */\n      dup6\n        /* \"#utility.yul\":12304:12322   */\n      lt\n        /* \"#utility.yul\":12301:12350   */\n      iszero\n      tag_541\n      jumpi\n        /* \"#utility.yul\":12340:12348   */\n      dup2\n        /* \"#utility.yul\":12325:12348   */\n      swap1\n      pop\n        /* \"#utility.yul\":12301:12350   */\n    tag_541:\n        /* \"#utility.yul\":12363:12443   */\n      tag_542\n        /* \"#utility.yul\":12419:12441   */\n      tag_543\n        /* \"#utility.yul\":12437:12440   */\n      dup6\n        /* \"#utility.yul\":12419:12441   */\n      tag_358\n      jump\t// in\n    tag_543:\n        /* \"#utility.yul\":12409:12417   */\n      dup4\n        /* \"#utility.yul\":12405:12442   */\n      add\n        /* \"#utility.yul\":12392:12403   */\n      dup3\n        /* \"#utility.yul\":12363:12443   */\n      tag_368\n      jump\t// in\n    tag_542:\n        /* \"#utility.yul\":12022:12453   */\n      pop\n      pop\n        /* \"#utility.yul\":12007:12453   */\n    tag_538:\n        /* \"#utility.yul\":11917:12460   */\n      pop\n      pop\n      pop\n      jump\t// out\n        /* \"#utility.yul\":12466:12583   */\n    tag_370:\n        /* \"#utility.yul\":12520:12528   */\n      0x00\n        /* \"#utility.yul\":12570:12575   */\n      dup3\n        /* \"#utility.yul\":12564:12568   */\n      dup3\n        /* \"#utility.yul\":12560:12576   */\n      shr\n        /* \"#utility.yul\":12539:12576   */\n      swap1\n      pop\n        /* \"#utility.yul\":12466:12583   */\n      swap3\n      swap2\n      pop\n      pop\n      jump\t// out\n        /* \"#utility.yul\":12589:12758   */\n    tag_371:\n        /* \"#utility.yul\":12633:12639   */\n      0x00\n        /* \"#utility.yul\":12666:12717   */\n      tag_546\n        /* \"#utility.yul\":12714:12715   */\n      0x00\n        /* \"#utility.yul\":12710:12716   */\n      not\n        /* \"#utility.yul\":12702:12707   */\n      dup5\n        /* \"#utility.yul\":12699:12700   */\n      0x08\n        /* \"#utility.yul\":12695:12708   */\n      mul\n        /* \"#utility.yul\":12666:12717   */\n      tag_370\n      jump\t// in\n    tag_546:\n        /* \"#utility.yul\":12662:12718   */\n      not\n        /* \"#utility.yul\":12747:12751   */\n      dup1\n        /* \"#utility.yul\":12741:12745   */\n      dup4\n        /* \"#utility.yul\":12737:12752   */\n      and\n        /* \"#utility.yul\":12727:12752   */\n      swap2\n      pop\n        /* \"#utility.yul\":12640:12758   */\n      pop\n        /* \"#utility.yul\":12589:12758   */\n      swap3\n      swap2\n      pop\n      pop\n      jump\t// out\n        /* \"#utility.yul\":12763:13058   */\n    tag_372:\n        /* \"#utility.yul\":12839:12843   */\n      0x00\n        /* \"#utility.yul\":12985:13014   */\n      tag_548\n        /* \"#utility.yul\":13010:13013   */\n      dup4\n        /* \"#utility.yul\":13004:13008   */\n      dup4\n        /* \"#utility.yul\":12985:13014   */\n      tag_371\n      jump\t// in\n    tag_548:\n        /* \"#utility.yul\":12977:13014   */\n      swap2\n      pop\n        /* \"#utility.yul\":13047:13050   */\n      dup3\n        /* \"#utility.yul\":13044:13045   */\n      0x02\n        /* \"#utility.yul\":13040:13051   */\n      mul\n        /* \"#utility.yul\":13034:13038   */\n      dup3\n        /* \"#utility.yul\":13031:13052   */\n      or\n        /* \"#utility.yul\":13023:13052   */\n      swap1\n      pop\n        /* \"#utility.yul\":12763:13058   */\n      swap3\n      swap2\n      pop\n      pop\n      jump\t// out\n        /* \"#utility.yul\":13063:14458   */\n    tag_142:\n        /* \"#utility.yul\":13180:13217   */\n      tag_550\n        /* \"#utility.yul\":13213:13216   */\n      dup3\n        /* \"#utility.yul\":13180:13217   */\n      tag_341\n      jump\t// in\n    tag_550:\n        /* \"#utility.yul\":13282:13300   */\n      0xffffffffffffffff\n        /* \"#utility.yul\":13274:13280   */\n      dup2\n        /* \"#utility.yul\":13271:13301   */\n      gt\n        /* \"#utility.yul\":13268:13324   */\n      iszero\n      tag_551\n      jumpi\n        /* \"#utility.yul\":13304:13322   */\n      tag_552\n      tag_304\n      jump\t// in\n    tag_552:\n        /* \"#utility.yul\":13268:13324   */\n    tag_551:\n        /* \"#utility.yul\":13348:13386   */\n      tag_553\n        /* \"#utility.yul\":13380:13384   */\n      dup3\n        /* \"#utility.yul\":13374:13385   */\n      sload\n        /* \"#utility.yul\":13348:13386   */\n      tag_123\n      jump\t// in\n    tag_553:\n        /* \"#utility.yul\":13433:13500   */\n      tag_554\n        /* \"#utility.yul\":13493:13499   */\n      dup3\n        /* \"#utility.yul\":13485:13491   */\n      dup3\n        /* \"#utility.yul\":13479:13483   */\n      dup6\n        /* \"#utility.yul\":13433:13500   */\n      tag_369\n      jump\t// in\n    tag_554:\n        /* \"#utility.yul\":13527:13528   */\n      0x00\n        /* \"#utility.yul\":13551:13555   */\n      0x20\n        /* \"#utility.yul\":13538:13555   */\n      swap1\n      pop\n        /* \"#utility.yul\":13583:13585   */\n      0x1f\n        /* \"#utility.yul\":13575:13581   */\n      dup4\n        /* \"#utility.yul\":13572:13586   */\n      gt\n        /* \"#utility.yul\":13600:13601   */\n      0x01\n        /* \"#utility.yul\":13595:14213   */\n      dup2\n      eq\n      tag_556\n      jumpi\n        /* \"#utility.yul\":14257:14258   */\n      0x00\n        /* \"#utility.yul\":14274:14280   */\n      dup5\n        /* \"#utility.yul\":14271:14348   */\n      iszero\n      tag_557\n      jumpi\n        /* \"#utility.yul\":14323:14332   */\n      dup3\n        /* \"#utility.yul\":14318:14321   */\n      dup8\n        /* \"#utility.yul\":14314:14333   */\n      add\n        /* \"#utility.yul\":14308:14334   */\n      mload\n        /* \"#utility.yul\":14299:14334   */\n      swap1\n      pop\n        /* \"#utility.yul\":14271:14348   */\n    tag_557:\n        /* \"#utility.yul\":14374:14441   */\n      tag_558\n        /* \"#utility.yul\":14434:14440   */\n      dup6\n        /* \"#utility.yul\":14427:14432   */\n      dup3\n        /* \"#utility.yul\":14374:14441   */\n      tag_372\n      jump\t// in\n    tag_558:\n        /* \"#utility.yul\":14368:14372   */\n      dup7\n        /* \"#utility.yul\":14361:14442   */\n      sstore\n        /* \"#utility.yul\":14230:14452   */\n      pop\n        /* \"#utility.yul\":13565:14452   */\n      jump(tag_555)\n        /* \"#utility.yul\":13595:14213   */\n    tag_556:\n        /* \"#utility.yul\":13647:13651   */\n      0x1f\n        /* \"#utility.yul\":13643:13652   */\n      not\n        /* \"#utility.yul\":13635:13641   */\n      dup5\n        /* \"#utility.yul\":13631:13653   */\n      and\n        /* \"#utility.yul\":13681:13718   */\n      tag_559\n        /* \"#utility.yul\":13713:13717   */\n      dup7\n        /* \"#utility.yul\":13681:13718   */\n      tag_357\n      jump\t// in\n    tag_559:\n        /* \"#utility.yul\":13740:13741   */\n      0x00\n        /* \"#utility.yul\":13754:13962   */\n    tag_560:\n        /* \"#utility.yul\":13768:13775   */\n      dup3\n        /* \"#utility.yul\":13765:13766   */\n      dup2\n        /* \"#utility.yul\":13762:13776   */\n      lt\n        /* \"#utility.yul\":13754:13962   */\n      iszero\n      tag_562\n      jumpi\n        /* \"#utility.yul\":13847:13856   */\n      dup5\n        /* \"#utility.yul\":13842:13845   */\n      dup10\n        /* \"#utility.yul\":13838:13857   */\n      add\n        /* \"#utility.yul\":13832:13858   */\n      mload\n        /* \"#utility.yul\":13824:13830   */\n      dup3\n        /* \"#utility.yul\":13817:13859   */\n      sstore\n        /* \"#utility.yul\":13898:13899   */\n      0x01\n        /* \"#utility.yul\":13890:13896   */\n      dup3\n        /* \"#utility.yul\":13886:13900   */\n      add\n        /* \"#utility.yul\":13876:13900   */\n      swap2\n      pop\n        /* \"#utility.yul\":13945:13947   */\n      0x20\n        /* \"#utility.yul\":13934:13943   */\n      dup6\n        /* \"#utility.yul\":13930:13948   */\n      add\n        /* \"#utility.yul\":13917:13948   */\n      swap5\n      pop\n        /* \"#utility.yul\":13791:13795   */\n      0x20\n        /* \"#utility.yul\":13788:13789   */\n      dup2\n        /* \"#utility.yul\":13784:13796   */\n      add\n        /* \"#utility.yul\":13779:13796   */\n      swap1\n      pop\n        /* \"#utility.yul\":13754:13962   */\n      jump(tag_560)\n    tag_562:\n        /* \"#utility.yul\":13990:13996   */\n      dup7\n        /* \"#utility.yul\":13981:13988   */\n      dup4\n        /* \"#utility.yul\":13978:13997   */\n      lt\n        /* \"#utility.yul\":13975:14154   */\n      iszero\n      tag_563\n      jumpi\n        /* \"#utility.yul\":14048:14057   */\n      dup5\n        /* \"#utility.yul\":14043:14046   */\n      dup10\n        /* \"#utility.yul\":14039:14058   */\n      add\n        /* \"#utility.yul\":14033:14059   */\n      mload\n        /* \"#utility.yul\":14091:14139   */\n      tag_564\n        /* \"#utility.yul\":14133:14137   */\n      0x1f\n        /* \"#utility.yul\":14125:14131   */\n      dup10\n        /* \"#utility.yul\":14121:14138   */\n      and\n        /* \"#utility.yul\":14110:14119   */\n      dup3\n        /* \"#utility.yul\":14091:14139   */\n      tag_371\n      jump\t// in\n    tag_564:\n        /* \"#utility.yul\":14083:14089   */\n      dup4\n        /* \"#utility.yul\":14076:14140   */\n      sstore\n        /* \"#utility.yul\":13998:14154   */\n      pop\n        /* \"#utility.yul\":13975:14154   */\n    tag_563:\n        /* \"#utility.yul\":14200:14201   */\n      0x01\n        /* \"#utility.yul\":14196:14197   */\n      0x02\n        /* \"#utility.yul\":14188:14194   */\n      dup9\n        /* \"#utility.yul\":14184:14198   */\n      mul\n        /* \"#utility.yul\":14180:14202   */\n      add\n        /* \"#utility.yul\":14174:14178   */\n      dup9\n        /* \"#utility.yul\":14167:14203   */\n      sstore\n        /* \"#utility.yul\":13602:14213   */\n      pop\n      pop\n      pop\n        /* \"#utility.yul\":13565:14452   */\n    tag_555:\n      pop\n        /* \"#utility.yul\":13155:14458   */\n      pop\n      pop\n      pop\n        /* \"#utility.yul\":13063:14458   */\n      pop\n      pop\n      jump\t// out\n        /* \"#utility.yul\":14464:14612   */\n    tag_373:\n        /* \"#utility.yul\":14562:14568   */\n      dup3\n        /* \"#utility.yul\":14557:14560   */\n      dup2\n        /* \"#utility.yul\":14552:14555   */\n      dup4\n        /* \"#utility.yul\":14539:14569   */\n      calldatacopy\n        /* \"#utility.yul\":14603:14604   */\n      0x00\n        /* \"#utility.yul\":14594:14600   */\n      dup4\n        /* \"#utility.yul\":14589:14592   */\n      dup4\n        /* \"#utility.yul\":14585:14601   */\n      add\n        /* \"#utility.yul\":14578:14605   */\n      mstore\n        /* \"#utility.yul\":14464:14612   */\n      pop\n      pop\n      pop\n      jump\t// out\n        /* \"#utility.yul\":14642:14959   */\n    tag_374:\n        /* \"#utility.yul\":14740:14743   */\n      0x00\n        /* \"#utility.yul\":14761:14832   */\n      tag_567\n        /* \"#utility.yul\":14825:14831   */\n      dup4\n        /* \"#utility.yul\":14820:14823   */\n      dup6\n        /* \"#utility.yul\":14761:14832   */\n      tag_342\n      jump\t// in\n    tag_567:\n        /* \"#utility.yul\":14754:14832   */\n      swap4\n      pop\n        /* \"#utility.yul\":14842:14898   */\n      tag_568\n        /* \"#utility.yul\":14891:14897   */\n      dup4\n        /* \"#utility.yul\":14886:14889   */\n      dup6\n        /* \"#utility.yul\":14879:14884   */\n      dup5\n        /* \"#utility.yul\":14842:14898   */\n      tag_373\n      jump\t// in\n    tag_568:\n        /* \"#utility.yul\":14923:14952   */\n      tag_569\n        /* \"#utility.yul\":14945:14951   */\n      dup4\n        /* \"#utility.yul\":14923:14952   */\n      tag_344\n      jump\t// in\n    tag_569:\n        /* \"#utility.yul\":14918:14921   */\n      dup5\n        /* \"#utility.yul\":14914:14953   */\n      add\n        /* \"#utility.yul\":14907:14953   */\n      swap1\n      pop\n        /* \"#utility.yul\":14642:14959   */\n      swap4\n      swap3\n      pop\n      pop\n      pop\n      jump\t// out\n        /* \"#utility.yul\":14965:15298   */\n    tag_144:\n        /* \"#utility.yul\":15088:15092   */\n      0x00\n        /* \"#utility.yul\":15126:15128   */\n      0x20\n        /* \"#utility.yul\":15115:15124   */\n      dup3\n        /* \"#utility.yul\":15111:15129   */\n      add\n        /* \"#utility.yul\":15103:15129   */\n      swap1\n      pop\n        /* \"#utility.yul\":15175:15184   */\n      dup2\n        /* \"#utility.yul\":15169:15173   */\n      dup2\n        /* \"#utility.yul\":15165:15185   */\n      sub\n        /* \"#utility.yul\":15161:15162   */\n      0x00\n        /* \"#utility.yul\":15150:15159   */\n      dup4\n        /* \"#utility.yul\":15146:15163   */\n      add\n        /* \"#utility.yul\":15139:15186   */\n      mstore\n        /* \"#utility.yul\":15203:15291   */\n      tag_571\n        /* \"#utility.yul\":15286:15290   */\n      dup2\n        /* \"#utility.yul\":15277:15283   */\n      dup5\n        /* \"#utility.yul\":15269:15275   */\n      dup7\n        /* \"#utility.yul\":15203:15291   */\n      tag_374\n      jump\t// in\n    tag_571:\n        /* \"#utility.yul\":15195:15291   */\n      swap1\n      pop\n        /* \"#utility.yul\":14965:15298   */\n      swap4\n      swap3\n      pop\n      pop\n      pop\n      jump\t// out\n        /* \"#utility.yul\":15304:15538   */\n    tag_375:\n        /* \"#utility.yul\":15444:15478   */\n      0x416363657373436f6e74726f6c3a2063616e206f6e6c792072656e6f756e6365\n        /* \"#utility.yul\":15440:15441   */\n      0x00\n        /* \"#utility.yul\":15432:15438   */\n      dup3\n        /* \"#utility.yul\":15428:15442   */\n      add\n        /* \"#utility.yul\":15421:15479   */\n      mstore\n        /* \"#utility.yul\":15513:15530   */\n      0x20726f6c657320666f722073656c660000000000000000000000000000000000\n        /* \"#utility.yul\":15508:15510   */\n      0x20\n        /* \"#utility.yul\":15500:15506   */\n      dup3\n        /* \"#utility.yul\":15496:15511   */\n      add\n        /* \"#utility.yul\":15489:15531   */\n      mstore\n        /* \"#utility.yul\":15304:15538   */\n      pop\n      jump\t// out\n        /* \"#utility.yul\":15544:15910   */\n    tag_376:\n        /* \"#utility.yul\":15686:15689   */\n      0x00\n        /* \"#utility.yul\":15707:15774   */\n      tag_574\n        /* \"#utility.yul\":15771:15773   */\n      0x2f\n        /* \"#utility.yul\":15766:15769   */\n      dup4\n        /* \"#utility.yul\":15707:15774   */\n      tag_342\n      jump\t// in\n    tag_574:\n        /* \"#utility.yul\":15700:15774   */\n      swap2\n      pop\n        /* \"#utility.yul\":15783:15876   */\n      tag_575\n        /* \"#utility.yul\":15872:15875   */\n      dup3\n        /* \"#utility.yul\":15783:15876   */\n      tag_375\n      jump\t// in\n    tag_575:\n        /* \"#utility.yul\":15901:15903   */\n      0x40\n        /* \"#utility.yul\":15896:15899   */\n      dup3\n        /* \"#utility.yul\":15892:15904   */\n      add\n        /* \"#utility.yul\":15885:15904   */\n      swap1\n      pop\n        /* \"#utility.yul\":15544:15910   */\n      swap2\n      swap1\n      pop\n      jump\t// out\n        /* \"#utility.yul\":15916:16335   */\n    tag_156:\n        /* \"#utility.yul\":16082:16086   */\n      0x00\n        /* \"#utility.yul\":16120:16122   */\n      0x20\n        /* \"#utility.yul\":16109:16118   */\n      dup3\n        /* \"#utility.yul\":16105:16123   */\n      add\n        /* \"#utility.yul\":16097:16123   */\n      swap1\n      pop\n        /* \"#utility.yul\":16169:16178   */\n      dup2\n        /* \"#utility.yul\":16163:16167   */\n      dup2\n        /* \"#utility.yul\":16159:16179   */\n      sub\n        /* \"#utility.yul\":16155:16156   */\n      0x00\n        /* \"#utility.yul\":16144:16153   */\n      dup4\n        /* \"#utility.yul\":16140:16157   */\n      add\n        /* \"#utility.yul\":16133:16180   */\n      mstore\n        /* \"#utility.yul\":16197:16328   */\n      tag_577\n        /* \"#utility.yul\":16323:16327   */\n      dup2\n        /* \"#utility.yul\":16197:16328   */\n      tag_376\n      jump\t// in\n    tag_577:\n        /* \"#utility.yul\":16189:16328   */\n      swap1\n      pop\n        /* \"#utility.yul\":15916:16335   */\n      swap2\n      swap1\n      pop\n      jump\t// out\n        /* \"#utility.yul\":16341:16772   */\n    tag_189:\n        /* \"#utility.yul\":16486:16490   */\n      0x00\n        /* \"#utility.yul\":16524:16526   */\n      0x40\n        /* \"#utility.yul\":16513:16522   */\n      dup3\n        /* \"#utility.yul\":16509:16527   */\n      add\n        /* \"#utility.yul\":16501:16527   */\n      swap1\n      pop\n        /* \"#utility.yul\":16573:16582   */\n      dup2\n        /* \"#utility.yul\":16567:16571   */\n      dup2\n        /* \"#utility.yul\":16563:16583   */\n      sub\n        /* \"#utility.yul\":16559:16560   */\n      0x00\n        /* \"#utility.yul\":16548:16557   */\n      dup4\n        /* \"#utility.yul\":16544:16561   */\n      add\n        /* \"#utility.yul\":16537:16584   */\n      mstore\n        /* \"#utility.yul\":16601:16689   */\n      tag_579\n        /* \"#utility.yul\":16684:16688   */\n      dup2\n        /* \"#utility.yul\":16675:16681   */\n      dup6\n        /* \"#utility.yul\":16667:16673   */\n      dup8\n        /* \"#utility.yul\":16601:16689   */\n      tag_374\n      jump\t// in\n    tag_579:\n        /* \"#utility.yul\":16593:16689   */\n      swap1\n      pop\n        /* \"#utility.yul\":16699:16765   */\n      tag_580\n        /* \"#utility.yul\":16761:16763   */\n      0x20\n        /* \"#utility.yul\":16750:16759   */\n      dup4\n        /* \"#utility.yul\":16746:16764   */\n      add\n        /* \"#utility.yul\":16737:16743   */\n      dup5\n        /* \"#utility.yul\":16699:16765   */\n      tag_332\n      jump\t// in\n    tag_580:\n        /* \"#utility.yul\":16341:16772   */\n      swap5\n      swap4\n      pop\n      pop\n      pop\n      pop\n      jump\t// out\n        /* \"#utility.yul\":16778:16944   */\n    tag_377:\n        /* \"#utility.yul\":16918:16936   */\n      0x416c726561647920617070726f76656400000000000000000000000000000000\n        /* \"#utility.yul\":16914:16915   */\n      0x00\n        /* \"#utility.yul\":16906:16912   */\n      dup3\n        /* \"#utility.yul\":16902:16916   */\n      add\n        /* \"#utility.yul\":16895:16937   */\n      mstore\n        /* \"#utility.yul\":16778:16944   */\n      pop\n      jump\t// out\n        /* \"#utility.yul\":16950:17316   */\n    tag_378:\n        /* \"#utility.yul\":17092:17095   */\n      0x00\n        /* \"#utility.yul\":17113:17180   */\n      tag_583\n        /* \"#utility.yul\":17177:17179   */\n      0x10\n        /* \"#utility.yul\":17172:17175   */\n      dup4\n        /* \"#utility.yul\":17113:17180   */\n      tag_342\n      jump\t// in\n    tag_583:\n        /* \"#utility.yul\":17106:17180   */\n      swap2\n      pop\n        /* \"#utility.yul\":17189:17282   */\n      tag_584\n        /* \"#utility.yul\":17278:17281   */\n      dup3\n        /* \"#utility.yul\":17189:17282   */\n      tag_377\n      jump\t// in\n    tag_584:\n        /* \"#utility.yul\":17307:17309   */\n      0x20\n        /* \"#utility.yul\":17302:17305   */\n      dup3\n        /* \"#utility.yul\":17298:17310   */\n      add\n        /* \"#utility.yul\":17291:17310   */\n      swap1\n      pop\n        /* \"#utility.yul\":16950:17316   */\n      swap2\n      swap1\n      pop\n      jump\t// out\n        /* \"#utility.yul\":17322:17741   */\n    tag_210:\n        /* \"#utility.yul\":17488:17492   */\n      0x00\n        /* \"#utility.yul\":17526:17528   */\n      0x20\n        /* \"#utility.yul\":17515:17524   */\n      dup3\n        /* \"#utility.yul\":17511:17529   */\n      add\n        /* \"#utility.yul\":17503:17529   */\n      swap1\n      pop\n        /* \"#utility.yul\":17575:17584   */\n      dup2\n        /* \"#utility.yul\":17569:17573   */\n      dup2\n        /* \"#utility.yul\":17565:17585   */\n      sub\n        /* \"#utility.yul\":17561:17562   */\n      0x00\n        /* \"#utility.yul\":17550:17559   */\n      dup4\n        /* \"#utility.yul\":17546:17563   */\n      add\n        /* \"#utility.yul\":17539:17586   */\n      mstore\n        /* \"#utility.yul\":17603:17734   */\n      tag_586\n        /* \"#utility.yul\":17729:17733   */\n      dup2\n        /* \"#utility.yul\":17603:17734   */\n      tag_378\n      jump\t// in\n    tag_586:\n        /* \"#utility.yul\":17595:17734   */\n      swap1\n      pop\n        /* \"#utility.yul\":17322:17741   */\n      swap2\n      swap1\n      pop\n      jump\t// out\n        /* \"#utility.yul\":17747:17844   */\n    tag_379:\n        /* \"#utility.yul\":17806:17812   */\n      0x00\n        /* \"#utility.yul\":17834:17837   */\n      dup3\n        /* \"#utility.yul\":17824:17837   */\n      swap1\n      pop\n        /* \"#utility.yul\":17747:17844   */\n      swap3\n      swap2\n      pop\n      pop\n      jump\t// out\n        /* \"#utility.yul\":17850:19253   */\n    tag_212:\n        /* \"#utility.yul\":17974:18018   */\n      tag_589\n        /* \"#utility.yul\":18014:18017   */\n      dup4\n        /* \"#utility.yul\":18009:18012   */\n      dup4\n        /* \"#utility.yul\":17974:18018   */\n      tag_379\n      jump\t// in\n    tag_589:\n        /* \"#utility.yul\":18083:18101   */\n      0xffffffffffffffff\n        /* \"#utility.yul\":18075:18081   */\n      dup2\n        /* \"#utility.yul\":18072:18102   */\n      gt\n        /* \"#utility.yul\":18069:18125   */\n      iszero\n      tag_590\n      jumpi\n        /* \"#utility.yul\":18105:18123   */\n      tag_591\n      tag_304\n      jump\t// in\n    tag_591:\n        /* \"#utility.yul\":18069:18125   */\n    tag_590:\n        /* \"#utility.yul\":18149:18187   */\n      tag_592\n        /* \"#utility.yul\":18181:18185   */\n      dup3\n        /* \"#utility.yul\":18175:18186   */\n      sload\n        /* \"#utility.yul\":18149:18187   */\n      tag_123\n      jump\t// in\n    tag_592:\n        /* \"#utility.yul\":18234:18301   */\n      tag_593\n        /* \"#utility.yul\":18294:18300   */\n      dup3\n        /* \"#utility.yul\":18286:18292   */\n      dup3\n        /* \"#utility.yul\":18280:18284   */\n      dup6\n        /* \"#utility.yul\":18234:18301   */\n      tag_369\n      jump\t// in\n    tag_593:\n        /* \"#utility.yul\":18328:18329   */\n      0x00\n        /* \"#utility.yul\":18357:18359   */\n      0x1f\n        /* \"#utility.yul\":18349:18355   */\n      dup4\n        /* \"#utility.yul\":18346:18360   */\n      gt\n        /* \"#utility.yul\":18374:18375   */\n      0x01\n        /* \"#utility.yul\":18369:19001   */\n      dup2\n      eq\n      tag_595\n      jumpi\n        /* \"#utility.yul\":19045:19046   */\n      0x00\n        /* \"#utility.yul\":19062:19068   */\n      dup5\n        /* \"#utility.yul\":19059:19143   */\n      iszero\n      tag_596\n      jumpi\n        /* \"#utility.yul\":19118:19127   */\n      dup3\n        /* \"#utility.yul\":19113:19116   */\n      dup8\n        /* \"#utility.yul\":19109:19128   */\n      add\n        /* \"#utility.yul\":19096:19129   */\n      calldataload\n        /* \"#utility.yul\":19087:19129   */\n      swap1\n      pop\n        /* \"#utility.yul\":19059:19143   */\n    tag_596:\n        /* \"#utility.yul\":19169:19236   */\n      tag_597\n        /* \"#utility.yul\":19229:19235   */\n      dup6\n        /* \"#utility.yul\":19222:19227   */\n      dup3\n        /* \"#utility.yul\":19169:19236   */\n      tag_372\n      jump\t// in\n    tag_597:\n        /* \"#utility.yul\":19163:19167   */\n      dup7\n        /* \"#utility.yul\":19156:19237   */\n      sstore\n        /* \"#utility.yul\":19018:19247   */\n      pop\n        /* \"#utility.yul\":18339:19247   */\n      jump(tag_594)\n        /* \"#utility.yul\":18369:19001   */\n    tag_595:\n        /* \"#utility.yul\":18421:18425   */\n      0x1f\n        /* \"#utility.yul\":18417:18426   */\n      not\n        /* \"#utility.yul\":18409:18415   */\n      dup5\n        /* \"#utility.yul\":18405:18427   */\n      and\n        /* \"#utility.yul\":18455:18492   */\n      tag_598\n        /* \"#utility.yul\":18487:18491   */\n      dup7\n        /* \"#utility.yul\":18455:18492   */\n      tag_357\n      jump\t// in\n    tag_598:\n        /* \"#utility.yul\":18514:18515   */\n      0x00\n        /* \"#utility.yul\":18528:18743   */\n    tag_599:\n        /* \"#utility.yul\":18542:18549   */\n      dup3\n        /* \"#utility.yul\":18539:18540   */\n      dup2\n        /* \"#utility.yul\":18536:18550   */\n      lt\n        /* \"#utility.yul\":18528:18743   */\n      iszero\n      tag_601\n      jumpi\n        /* \"#utility.yul\":18628:18637   */\n      dup5\n        /* \"#utility.yul\":18623:18626   */\n      dup10\n        /* \"#utility.yul\":18619:18638   */\n      add\n        /* \"#utility.yul\":18606:18639   */\n      calldataload\n        /* \"#utility.yul\":18598:18604   */\n      dup3\n        /* \"#utility.yul\":18591:18640   */\n      sstore\n        /* \"#utility.yul\":18679:18680   */\n      0x01\n        /* \"#utility.yul\":18671:18677   */\n      dup3\n        /* \"#utility.yul\":18667:18681   */\n      add\n        /* \"#utility.yul\":18657:18681   */\n      swap2\n      pop\n        /* \"#utility.yul\":18726:18728   */\n      0x20\n        /* \"#utility.yul\":18715:18724   */\n      dup6\n        /* \"#utility.yul\":18711:18729   */\n      add\n        /* \"#utility.yul\":18698:18729   */\n      swap5\n      pop\n        /* \"#utility.yul\":18565:18569   */\n      0x20\n        /* \"#utility.yul\":18562:18563   */\n      dup2\n        /* \"#utility.yul\":18558:18570   */\n      add\n        /* \"#utility.yul\":18553:18570   */\n      swap1\n      pop\n        /* \"#utility.yul\":18528:18743   */\n      jump(tag_599)\n    tag_601:\n        /* \"#utility.yul\":18771:18777   */\n      dup7\n        /* \"#utility.yul\":18762:18769   */\n      dup4\n        /* \"#utility.yul\":18759:18778   */\n      lt\n        /* \"#utility.yul\":18756:18942   */\n      iszero\n      tag_602\n      jumpi\n        /* \"#utility.yul\":18836:18845   */\n      dup5\n        /* \"#utility.yul\":18831:18834   */\n      dup10\n        /* \"#utility.yul\":18827:18846   */\n      add\n        /* \"#utility.yul\":18814:18847   */\n      calldataload\n        /* \"#utility.yul\":18879:18927   */\n      tag_603\n        /* \"#utility.yul\":18921:18925   */\n      0x1f\n        /* \"#utility.yul\":18913:18919   */\n      dup10\n        /* \"#utility.yul\":18909:18926   */\n      and\n        /* \"#utility.yul\":18898:18907   */\n      dup3\n        /* \"#utility.yul\":18879:18927   */\n      tag_371\n      jump\t// in\n    tag_603:\n        /* \"#utility.yul\":18871:18877   */\n      dup4\n        /* \"#utility.yul\":18864:18928   */\n      sstore\n        /* \"#utility.yul\":18779:18942   */\n      pop\n        /* \"#utility.yul\":18756:18942   */\n    tag_602:\n        /* \"#utility.yul\":18988:18989   */\n      0x01\n        /* \"#utility.yul\":18984:18985   */\n      0x02\n        /* \"#utility.yul\":18976:18982   */\n      dup9\n        /* \"#utility.yul\":18972:18986   */\n      mul\n        /* \"#utility.yul\":18968:18990   */\n      add\n        /* \"#utility.yul\":18962:18966   */\n      dup9\n        /* \"#utility.yul\":18955:18991   */\n      sstore\n        /* \"#utility.yul\":18376:19001   */\n      pop\n      pop\n      pop\n        /* \"#utility.yul\":18339:19247   */\n    tag_594:\n      pop\n        /* \"#utility.yul\":17949:19253   */\n      pop\n      pop\n      pop\n        /* \"#utility.yul\":17850:19253   */\n      pop\n      pop\n      pop\n      jump\t// out\n        /* \"#utility.yul\":19259:19429   */\n    tag_380:\n        /* \"#utility.yul\":19399:19421   */\n      0x4e6f7420617070726f7665642f70656e64696e67000000000000000000000000\n        /* \"#utility.yul\":19395:19396   */\n      0x00\n        /* \"#utility.yul\":19387:19393   */\n      dup3\n        /* \"#utility.yul\":19383:19397   */\n      add\n        /* \"#utility.yul\":19376:19422   */\n      mstore\n        /* \"#utility.yul\":19259:19429   */\n      pop\n      jump\t// out\n        /* \"#utility.yul\":19435:19801   */\n    tag_381:\n        /* \"#utility.yul\":19577:19580   */\n      0x00\n        /* \"#utility.yul\":19598:19665   */\n      tag_606\n        /* \"#utility.yul\":19662:19664   */\n      0x14\n        /* \"#utility.yul\":19657:19660   */\n      dup4\n        /* \"#utility.yul\":19598:19665   */\n      tag_342\n      jump\t// in\n    tag_606:\n        /* \"#utility.yul\":19591:19665   */\n      swap2\n      pop\n        /* \"#utility.yul\":19674:19767   */\n      tag_607\n        /* \"#utility.yul\":19763:19766   */\n      dup3\n        /* \"#utility.yul\":19674:19767   */\n      tag_380\n      jump\t// in\n    tag_607:\n        /* \"#utility.yul\":19792:19794   */\n      0x20\n        /* \"#utility.yul\":19787:19790   */\n      dup3\n        /* \"#utility.yul\":19783:19795   */\n      add\n        /* \"#utility.yul\":19776:19795   */\n      swap1\n      pop\n        /* \"#utility.yul\":19435:19801   */\n      swap2\n      swap1\n      pop\n      jump\t// out\n        /* \"#utility.yul\":19807:20226   */\n    tag_236:\n        /* \"#utility.yul\":19973:19977   */\n      0x00\n        /* \"#utility.yul\":20011:20013   */\n      0x20\n        /* \"#utility.yul\":20000:20009   */\n      dup3\n        /* \"#utility.yul\":19996:20014   */\n      add\n        /* \"#utility.yul\":19988:20014   */\n      swap1\n      pop\n        /* \"#utility.yul\":20060:20069   */\n      dup2\n        /* \"#utility.yul\":20054:20058   */\n      dup2\n        /* \"#utility.yul\":20050:20070   */\n      sub\n        /* \"#utility.yul\":20046:20047   */\n      0x00\n        /* \"#utility.yul\":20035:20044   */\n      dup4\n        /* \"#utility.yul\":20031:20048   */\n      add\n        /* \"#utility.yul\":20024:20071   */\n      mstore\n        /* \"#utility.yul\":20088:20219   */\n      tag_609\n        /* \"#utility.yul\":20214:20218   */\n      dup2\n        /* \"#utility.yul\":20088:20219   */\n      tag_381\n      jump\t// in\n    tag_609:\n        /* \"#utility.yul\":20080:20219   */\n      swap1\n      pop\n        /* \"#utility.yul\":19807:20226   */\n      swap2\n      swap1\n      pop\n      jump\t// out\n        /* \"#utility.yul\":20232:20398   */\n    tag_382:\n        /* \"#utility.yul\":20372:20390   */\n      0x5061757361626c653a2070617573656400000000000000000000000000000000\n        /* \"#utility.yul\":20368:20369   */\n      0x00\n        /* \"#utility.yul\":20360:20366   */\n      dup3\n        /* \"#utility.yul\":20356:20370   */\n      add\n        /* \"#utility.yul\":20349:20391   */\n      mstore\n        /* \"#utility.yul\":20232:20398   */\n      pop\n      jump\t// out\n        /* \"#utility.yul\":20404:20770   */\n    tag_383:\n        /* \"#utility.yul\":20546:20549   */\n      0x00\n        /* \"#utility.yul\":20567:20634   */\n      tag_612\n        /* \"#utility.yul\":20631:20633   */\n      0x10\n        /* \"#utility.yul\":20626:20629   */\n      dup4\n        /* \"#utility.yul\":20567:20634   */\n      tag_342\n      jump\t// in\n    tag_612:\n        /* \"#utility.yul\":20560:20634   */\n      swap2\n      pop\n        /* \"#utility.yul\":20643:20736   */\n      tag_613\n        /* \"#utility.yul\":20732:20735   */\n      dup3\n        /* \"#utility.yul\":20643:20736   */\n      tag_382\n      jump\t// in\n    tag_613:\n        /* \"#utility.yul\":20761:20763   */\n      0x20\n        /* \"#utility.yul\":20756:20759   */\n      dup3\n        /* \"#utility.yul\":20752:20764   */\n      add\n        /* \"#utility.yul\":20745:20764   */\n      swap1\n      pop\n        /* \"#utility.yul\":20404:20770   */\n      swap2\n      swap1\n      pop\n      jump\t// out\n        /* \"#utility.yul\":20776:21195   */\n    tag_254:\n        /* \"#utility.yul\":20942:20946   */\n      0x00\n        /* \"#utility.yul\":20980:20982   */\n      0x20\n        /* \"#utility.yul\":20969:20978   */\n      dup3\n        /* \"#utility.yul\":20965:20983   */\n      add\n        /* \"#utility.yul\":20957:20983   */\n      swap1\n      pop\n        /* \"#utility.yul\":21029:21038   */\n      dup2\n        /* \"#utility.yul\":21023:21027   */\n      dup2\n        /* \"#utility.yul\":21019:21039   */\n      sub\n        /* \"#utility.yul\":21015:21016   */\n      0x00\n        /* \"#utility.yul\":21004:21013   */\n      dup4\n        /* \"#utility.yul\":21000:21017   */\n      add\n        /* \"#utility.yul\":20993:21040   */\n      mstore\n        /* \"#utility.yul\":21057:21188   */\n      tag_615\n        /* \"#utility.yul\":21183:21187   */\n      dup2\n        /* \"#utility.yul\":21057:21188   */\n      tag_383\n      jump\t// in\n    tag_615:\n        /* \"#utility.yul\":21049:21188   */\n      swap1\n      pop\n        /* \"#utility.yul\":20776:21195   */\n      swap2\n      swap1\n      pop\n      jump\t// out\n        /* \"#utility.yul\":21201:21319   */\n    tag_384:\n        /* \"#utility.yul\":21288:21312   */\n      tag_617\n        /* \"#utility.yul\":21306:21311   */\n      dup2\n        /* \"#utility.yul\":21288:21312   */\n      tag_334\n      jump\t// in\n    tag_617:\n        /* \"#utility.yul\":21283:21286   */\n      dup3\n        /* \"#utility.yul\":21276:21313   */\n      mstore\n        /* \"#utility.yul\":21201:21319   */\n      pop\n      pop\n      jump\t// out\n        /* \"#utility.yul\":21325:21547   */\n    tag_274:\n        /* \"#utility.yul\":21418:21422   */\n      0x00\n        /* \"#utility.yul\":21456:21458   */\n      0x20\n        /* \"#utility.yul\":21445:21454   */\n      dup3\n        /* \"#utility.yul\":21441:21459   */\n      add\n        /* \"#utility.yul\":21433:21459   */\n      swap1\n      pop\n        /* \"#utility.yul\":21469:21540   */\n      tag_619\n        /* \"#utility.yul\":21537:21538   */\n      0x00\n        /* \"#utility.yul\":21526:21535   */\n      dup4\n        /* \"#utility.yul\":21522:21539   */\n      add\n        /* \"#utility.yul\":21513:21519   */\n      dup5\n        /* \"#utility.yul\":21469:21540   */\n      tag_384\n      jump\t// in\n    tag_619:\n        /* \"#utility.yul\":21325:21547   */\n      swap3\n      swap2\n      pop\n      pop\n      jump\t// out\n        /* \"#utility.yul\":21553:21701   */\n    tag_385:\n        /* \"#utility.yul\":21655:21666   */\n      0x00\n        /* \"#utility.yul\":21692:21695   */\n      dup2\n        /* \"#utility.yul\":21677:21695   */\n      swap1\n      pop\n        /* \"#utility.yul\":21553:21701   */\n      swap3\n      swap2\n      pop\n      pop\n      jump\t// out\n        /* \"#utility.yul\":21707:21880   */\n    tag_386:\n        /* \"#utility.yul\":21847:21872   */\n      0x416363657373436f6e74726f6c3a206163636f756e7420000000000000000000\n        /* \"#utility.yul\":21843:21844   */\n      0x00\n        /* \"#utility.yul\":21835:21841   */\n      dup3\n        /* \"#utility.yul\":21831:21845   */\n      add\n        /* \"#utility.yul\":21824:21873   */\n      mstore\n        /* \"#utility.yul\":21707:21880   */\n      pop\n      jump\t// out\n        /* \"#utility.yul\":21886:22288   */\n    tag_387:\n        /* \"#utility.yul\":22046:22049   */\n      0x00\n        /* \"#utility.yul\":22067:22152   */\n      tag_623\n        /* \"#utility.yul\":22149:22151   */\n      0x17\n        /* \"#utility.yul\":22144:22147   */\n      dup4\n        /* \"#utility.yul\":22067:22152   */\n      tag_385\n      jump\t// in\n    tag_623:\n        /* \"#utility.yul\":22060:22152   */\n      swap2\n      pop\n        /* \"#utility.yul\":22161:22254   */\n      tag_624\n        /* \"#utility.yul\":22250:22253   */\n      dup3\n        /* \"#utility.yul\":22161:22254   */\n      tag_386\n      jump\t// in\n    tag_624:\n        /* \"#utility.yul\":22279:22281   */\n      0x17\n        /* \"#utility.yul\":22274:22277   */\n      dup3\n        /* \"#utility.yul\":22270:22282   */\n      add\n        /* \"#utility.yul\":22263:22282   */\n      swap1\n      pop\n        /* \"#utility.yul\":21886:22288   */\n      swap2\n      swap1\n      pop\n      jump\t// out\n        /* \"#utility.yul\":22294:22684   */\n    tag_388:\n        /* \"#utility.yul\":22400:22403   */\n      0x00\n        /* \"#utility.yul\":22428:22467   */\n      tag_626\n        /* \"#utility.yul\":22461:22466   */\n      dup3\n        /* \"#utility.yul\":22428:22467   */\n      tag_341\n      jump\t// in\n    tag_626:\n        /* \"#utility.yul\":22483:22572   */\n      tag_627\n        /* \"#utility.yul\":22565:22571   */\n      dup2\n        /* \"#utility.yul\":22560:22563   */\n      dup6\n        /* \"#utility.yul\":22483:22572   */\n      tag_385\n      jump\t// in\n    tag_627:\n        /* \"#utility.yul\":22476:22572   */\n      swap4\n      pop\n        /* \"#utility.yul\":22581:22646   */\n      tag_628\n        /* \"#utility.yul\":22639:22645   */\n      dup2\n        /* \"#utility.yul\":22634:22637   */\n      dup6\n        /* \"#utility.yul\":22627:22631   */\n      0x20\n        /* \"#utility.yul\":22620:22625   */\n      dup7\n        /* \"#utility.yul\":22616:22632   */\n      add\n        /* \"#utility.yul\":22581:22646   */\n      tag_343\n      jump\t// in\n    tag_628:\n        /* \"#utility.yul\":22671:22677   */\n      dup1\n        /* \"#utility.yul\":22666:22669   */\n      dup5\n        /* \"#utility.yul\":22662:22678   */\n      add\n        /* \"#utility.yul\":22655:22678   */\n      swap2\n      pop\n        /* \"#utility.yul\":22404:22684   */\n      pop\n        /* \"#utility.yul\":22294:22684   */\n      swap3\n      swap2\n      pop\n      pop\n      jump\t// out\n        /* \"#utility.yul\":22690:22857   */\n    tag_389:\n        /* \"#utility.yul\":22830:22849   */\n      0x206973206d697373696e6720726f6c6520000000000000000000000000000000\n        /* \"#utility.yul\":22826:22827   */\n      0x00\n        /* \"#utility.yul\":22818:22824   */\n      dup3\n        /* \"#utility.yul\":22814:22828   */\n      add\n        /* \"#utility.yul\":22807:22850   */\n      mstore\n        /* \"#utility.yul\":22690:22857   */\n      pop\n      jump\t// out\n        /* \"#utility.yul\":22863:23265   */\n    tag_390:\n        /* \"#utility.yul\":23023:23026   */\n      0x00\n        /* \"#utility.yul\":23044:23129   */\n      tag_631\n        /* \"#utility.yul\":23126:23128   */\n      0x11\n        /* \"#utility.yul\":23121:23124   */\n      dup4\n        /* \"#utility.yul\":23044:23129   */\n      tag_385\n      jump\t// in\n    tag_631:\n        /* \"#utility.yul\":23037:23129   */\n      swap2\n      pop\n        /* \"#utility.yul\":23138:23231   */\n      tag_632\n        /* \"#utility.yul\":23227:23230   */\n      dup3\n        /* \"#utility.yul\":23138:23231   */\n      tag_389\n      jump\t// in\n    tag_632:\n        /* \"#utility.yul\":23256:23258   */\n      0x11\n        /* \"#utility.yul\":23251:23254   */\n      dup3\n        /* \"#utility.yul\":23247:23259   */\n      add\n        /* \"#utility.yul\":23240:23259   */\n      swap1\n      pop\n        /* \"#utility.yul\":22863:23265   */\n      swap2\n      swap1\n      pop\n      jump\t// out\n        /* \"#utility.yul\":23271:24238   */\n    tag_288:\n        /* \"#utility.yul\":23653:23656   */\n      0x00\n        /* \"#utility.yul\":23675:23823   */\n      tag_634\n        /* \"#utility.yul\":23819:23822   */\n      dup3\n        /* \"#utility.yul\":23675:23823   */\n      tag_387\n      jump\t// in\n    tag_634:\n        /* \"#utility.yul\":23668:23823   */\n      swap2\n      pop\n        /* \"#utility.yul\":23840:23935   */\n      tag_635\n        /* \"#utility.yul\":23931:23934   */\n      dup3\n        /* \"#utility.yul\":23922:23928   */\n      dup6\n        /* \"#utility.yul\":23840:23935   */\n      tag_388\n      jump\t// in\n    tag_635:\n        /* \"#utility.yul\":23833:23935   */\n      swap2\n      pop\n        /* \"#utility.yul\":23952:24100   */\n      tag_636\n        /* \"#utility.yul\":24096:24099   */\n      dup3\n        /* \"#utility.yul\":23952:24100   */\n      tag_390\n      jump\t// in\n    tag_636:\n        /* \"#utility.yul\":23945:24100   */\n      swap2\n      pop\n        /* \"#utility.yul\":24117:24212   */\n      tag_637\n        /* \"#utility.yul\":24208:24211   */\n      dup3\n        /* \"#utility.yul\":24199:24205   */\n      dup5\n        /* \"#utility.yul\":24117:24212   */\n      tag_388\n      jump\t// in\n    tag_637:\n        /* \"#utility.yul\":24110:24212   */\n      swap2\n      pop\n        /* \"#utility.yul\":24229:24232   */\n      dup2\n        /* \"#utility.yul\":24222:24232   */\n      swap1\n      pop\n        /* \"#utility.yul\":23271:24238   */\n      swap4\n      swap3\n      pop\n      pop\n      pop\n      jump\t// out\n        /* \"#utility.yul\":24244:24414   */\n    tag_391:\n        /* \"#utility.yul\":24384:24406   */\n      0x5061757361626c653a206e6f7420706175736564000000000000000000000000\n        /* \"#utility.yul\":24380:24381   */\n      0x00\n        /* \"#utility.yul\":24372:24378   */\n      dup3\n        /* \"#utility.yul\":24368:24382   */\n      add\n        /* \"#utility.yul\":24361:24407   */\n      mstore\n        /* \"#utility.yul\":24244:24414   */\n      pop\n      jump\t// out\n        /* \"#utility.yul\":24420:24786   */\n    tag_392:\n        /* \"#utility.yul\":24562:24565   */\n      0x00\n        /* \"#utility.yul\":24583:24650   */\n      tag_640\n        /* \"#utility.yul\":24647:24649   */\n      0x14\n        /* \"#utility.yul\":24642:24645   */\n      dup4\n        /* \"#utility.yul\":24583:24650   */\n      tag_342\n      jump\t// in\n    tag_640:\n        /* \"#utility.yul\":24576:24650   */\n      swap2\n      pop\n        /* \"#utility.yul\":24659:24752   */\n      tag_641\n        /* \"#utility.yul\":24748:24751   */\n      dup3\n        /* \"#utility.yul\":24659:24752   */\n      tag_391\n      jump\t// in\n    tag_641:\n        /* \"#utility.yul\":24777:24779   */\n      0x20\n        /* \"#utility.yul\":24772:24775   */\n      dup3\n        /* \"#utility.yul\":24768:24780   */\n      add\n        /* \"#utility.yul\":24761:24780   */\n      swap1\n      pop\n        /* \"#utility.yul\":24420:24786   */\n      swap2\n      swap1\n      pop\n      jump\t// out\n        /* \"#utility.yul\":24792:25211   */\n    tag_294:\n        /* \"#utility.yul\":24958:24962   */\n      0x00\n        /* \"#utility.yul\":24996:24998   */\n      0x20\n        /* \"#utility.yul\":24985:24994   */\n      dup3\n        /* \"#utility.yul\":24981:24999   */\n      add\n        /* \"#utility.yul\":24973:24999   */\n      swap1\n      pop\n        /* \"#utility.yul\":25045:25054   */\n      dup2\n        /* \"#utility.yul\":25039:25043   */\n      dup2\n        /* \"#utility.yul\":25035:25055   */\n      sub\n        /* \"#utility.yul\":25031:25032   */\n      0x00\n        /* \"#utility.yul\":25020:25029   */\n      dup4\n        /* \"#utility.yul\":25016:25033   */\n      add\n        /* \"#utility.yul\":25009:25056   */\n      mstore\n        /* \"#utility.yul\":25073:25204   */\n      tag_643\n        /* \"#utility.yul\":25199:25203   */\n      dup2\n        /* \"#utility.yul\":25073:25204   */\n      tag_392\n      jump\t// in\n    tag_643:\n        /* \"#utility.yul\":25065:25204   */\n      swap1\n      pop\n        /* \"#utility.yul\":24792:25211   */\n      swap2\n      swap1\n      pop\n      jump\t// out\n        /* \"#utility.yul\":25217:25397   */\n    tag_393:\n        /* \"#utility.yul\":25265:25342   */\n      0x4e487b7100000000000000000000000000000000000000000000000000000000\n        /* \"#utility.yul\":25262:25263   */\n      0x00\n        /* \"#utility.yul\":25255:25343   */\n      mstore\n        /* \"#utility.yul\":25362:25366   */\n      0x11\n        /* \"#utility.yul\":25359:25360   */\n      0x04\n        /* \"#utility.yul\":25352:25367   */\n      mstore\n        /* \"#utility.yul\":25386:25390   */\n      0x24\n        /* \"#utility.yul\":25383:25384   */\n      0x00\n        /* \"#utility.yul\":25376:25391   */\n      revert\n        /* \"#utility.yul\":25403:25813   */\n    tag_299:\n        /* \"#utility.yul\":25443:25450   */\n      0x00\n        /* \"#utility.yul\":25466:25486   */\n      tag_646\n        /* \"#utility.yul\":25484:25485   */\n      dup3\n        /* \"#utility.yul\":25466:25486   */\n      tag_361\n      jump\t// in\n    tag_646:\n        /* \"#utility.yul\":25461:25486   */\n      swap2\n      pop\n        /* \"#utility.yul\":25500:25520   */\n      tag_647\n        /* \"#utility.yul\":25518:25519   */\n      dup4\n        /* \"#utility.yul\":25500:25520   */\n      tag_361\n      jump\t// in\n    tag_647:\n        /* \"#utility.yul\":25495:25520   */\n      swap3\n      pop\n        /* \"#utility.yul\":25555:25556   */\n      dup3\n        /* \"#utility.yul\":25552:25553   */\n      dup3\n        /* \"#utility.yul\":25548:25557   */\n      mul\n        /* \"#utility.yul\":25577:25607   */\n      tag_648\n        /* \"#utility.yul\":25595:25606   */\n      dup2\n        /* \"#utility.yul\":25577:25607   */\n      tag_361\n      jump\t// in\n    tag_648:\n        /* \"#utility.yul\":25566:25607   */\n      swap2\n      pop\n        /* \"#utility.yul\":25756:25757   */\n      dup3\n        /* \"#utility.yul\":25747:25754   */\n      dup3\n        /* \"#utility.yul\":25743:25758   */\n      div\n        /* \"#utility.yul\":25740:25741   */\n      dup5\n        /* \"#utility.yul\":25737:25759   */\n      eq\n        /* \"#utility.yul\":25717:25718   */\n      dup4\n        /* \"#utility.yul\":25710:25719   */\n      iszero\n        /* \"#utility.yul\":25690:25773   */\n      or\n        /* \"#utility.yul\":25667:25806   */\n      tag_649\n      jumpi\n        /* \"#utility.yul\":25786:25804   */\n      tag_650\n      tag_393\n      jump\t// in\n    tag_650:\n        /* \"#utility.yul\":25667:25806   */\n    tag_649:\n        /* \"#utility.yul\":25451:25813   */\n      pop\n        /* \"#utility.yul\":25403:25813   */\n      swap3\n      swap2\n      pop\n      pop\n      jump\t// out\n        /* \"#utility.yul\":25819:26010   */\n    tag_301:\n        /* \"#utility.yul\":25859:25862   */\n      0x00\n        /* \"#utility.yul\":25878:25898   */\n      tag_652\n        /* \"#utility.yul\":25896:25897   */\n      dup3\n        /* \"#utility.yul\":25878:25898   */\n      tag_361\n      jump\t// in\n    tag_652:\n        /* \"#utility.yul\":25873:25898   */\n      swap2\n      pop\n        /* \"#utility.yul\":25912:25932   */\n      tag_653\n        /* \"#utility.yul\":25930:25931   */\n      dup4\n        /* \"#utility.yul\":25912:25932   */\n      tag_361\n      jump\t// in\n    tag_653:\n        /* \"#utility.yul\":25907:25932   */\n      swap3\n      pop\n        /* \"#utility.yul\":25955:25956   */\n      dup3\n        /* \"#utility.yul\":25952:25953   */\n      dup3\n        /* \"#utility.yul\":25948:25957   */\n      add\n        /* \"#utility.yul\":25941:25957   */\n      swap1\n      pop\n        /* \"#utility.yul\":25976:25979   */\n      dup1\n        /* \"#utility.yul\":25973:25974   */\n      dup3\n        /* \"#utility.yul\":25970:25980   */\n      gt\n        /* \"#utility.yul\":25967:26003   */\n      iszero\n      tag_654\n      jumpi\n        /* \"#utility.yul\":25983:26001   */\n      tag_655\n      tag_393\n      jump\t// in\n    tag_655:\n        /* \"#utility.yul\":25967:26003   */\n    tag_654:\n        /* \"#utility.yul\":25819:26010   */\n      swap3\n      swap2\n      pop\n      pop\n      jump\t// out\n        /* \"#utility.yul\":26016:26196   */\n    tag_308:\n        /* \"#utility.yul\":26064:26141   */\n      0x4e487b7100000000000000000000000000000000000000000000000000000000\n        /* \"#utility.yul\":26061:26062   */\n      0x00\n        /* \"#utility.yul\":26054:26142   */\n      mstore\n        /* \"#utility.yul\":26161:26165   */\n      0x32\n        /* \"#utility.yul\":26158:26159   */\n      0x04\n        /* \"#utility.yul\":26151:26166   */\n      mstore\n        /* \"#utility.yul\":26185:26189   */\n      0x24\n        /* \"#utility.yul\":26182:26183   */\n      0x00\n        /* \"#utility.yul\":26175:26190   */\n      revert\n        /* \"#utility.yul\":26202:26373   */\n    tag_321:\n        /* \"#utility.yul\":26241:26244   */\n      0x00\n        /* \"#utility.yul\":26264:26288   */\n      tag_658\n        /* \"#utility.yul\":26282:26287   */\n      dup3\n        /* \"#utility.yul\":26264:26288   */\n      tag_361\n      jump\t// in\n    tag_658:\n        /* \"#utility.yul\":26255:26288   */\n      swap2\n      pop\n        /* \"#utility.yul\":26310:26314   */\n      0x00\n        /* \"#utility.yul\":26303:26308   */\n      dup3\n        /* \"#utility.yul\":26300:26315   */\n      sub\n        /* \"#utility.yul\":26297:26338   */\n      tag_659\n      jumpi\n        /* \"#utility.yul\":26318:26336   */\n      tag_660\n      tag_393\n      jump\t// in\n    tag_660:\n        /* \"#utility.yul\":26297:26338   */\n    tag_659:\n        /* \"#utility.yul\":26365:26366   */\n      0x01\n        /* \"#utility.yul\":26358:26363   */\n      dup3\n        /* \"#utility.yul\":26354:26367   */\n      sub\n        /* \"#utility.yul\":26347:26367   */\n      swap1\n      pop\n        /* \"#utility.yul\":26202:26373   */\n      swap2\n      swap1\n      pop\n      jump\t// out\n        /* \"#utility.yul\":26379:26561   */\n    tag_394:\n        /* \"#utility.yul\":26519:26553   */\n      0x537472696e67733a20686578206c656e67746820696e73756666696369656e74\n        /* \"#utility.yul\":26515:26516   */\n      0x00\n        /* \"#utility.yul\":26507:26513   */\n      dup3\n        /* \"#utility.yul\":26503:26517   */\n      add\n        /* \"#utility.yul\":26496:26554   */\n      mstore\n        /* \"#utility.yul\":26379:26561   */\n      pop\n      jump\t// out\n        /* \"#utility.yul\":26567:26933   */\n    tag_395:\n        /* \"#utility.yul\":26709:26712   */\n      0x00\n        /* \"#utility.yul\":26730:26797   */\n      tag_663\n        /* \"#utility.yul\":26794:26796   */\n      0x20\n        /* \"#utility.yul\":26789:26792   */\n      dup4\n        /* \"#utility.yul\":26730:26797   */\n      tag_342\n      jump\t// in\n    tag_663:\n        /* \"#utility.yul\":26723:26797   */\n      swap2\n      pop\n        /* \"#utility.yul\":26806:26899   */\n      tag_664\n        /* \"#utility.yul\":26895:26898   */\n      dup3\n        /* \"#utility.yul\":26806:26899   */\n      tag_394\n      jump\t// in\n    tag_664:\n        /* \"#utility.yul\":26924:26926   */\n      0x20\n        /* \"#utility.yul\":26919:26922   */\n      dup3\n        /* \"#utility.yul\":26915:26927   */\n      add\n        /* \"#utility.yul\":26908:26927   */\n      swap1\n      pop\n        /* \"#utility.yul\":26567:26933   */\n      swap2\n      swap1\n      pop\n      jump\t// out\n        /* \"#utility.yul\":26939:27358   */\n    tag_324:\n        /* \"#utility.yul\":27105:27109   */\n      0x00\n        /* \"#utility.yul\":27143:27145   */\n      0x20\n        /* \"#utility.yul\":27132:27141   */\n      dup3\n        /* \"#utility.yul\":27128:27146   */\n      add\n        /* \"#utility.yul\":27120:27146   */\n      swap1\n      pop\n        /* \"#utility.yul\":27192:27201   */\n      dup2\n        /* \"#utility.yul\":27186:27190   */\n      dup2\n        /* \"#utility.yul\":27182:27202   */\n      sub\n        /* \"#utility.yul\":27178:27179   */\n      0x00\n        /* \"#utility.yul\":27167:27176   */\n      dup4\n        /* \"#utility.yul\":27163:27180   */\n      add\n        /* \"#utility.yul\":27156:27203   */\n      mstore\n        /* \"#utility.yul\":27220:27351   */\n      tag_666\n        /* \"#utility.yul\":27346:27350   */\n      dup2\n        /* \"#utility.yul\":27220:27351   */\n      tag_395\n      jump\t// in\n    tag_666:\n        /* \"#utility.yul\":27212:27351   */\n      swap1\n      pop\n        /* \"#utility.yul\":26939:27358   */\n      swap2\n      swap1\n      pop\n      jump\t// out\n\n    auxdata: 0xa2646970667358221220e660baafcf431f94932921806756c308c8949f3665a05a90c21fa3c9df3b732564736f6c634300081e0033\n}\n",
				"bytecode": {
					"linkReferences": {},
					"object": "608060405234801561000f575f5ffd5b5060405161273038038061273083398181016040528101906100319190610240565b5f60015f6101000a81548160ff02191690831515021790555061005c5f5f1b8261009260201b60201c565b61008c7f0ce23c3e399818cfee81a7ab0880f714e53d7672b08df0fa62f2843416e1ea098261009260201b60201c565b5061026b565b6100a2828261017860201b60201c565b6101745760015f5f8481526020019081526020015f205f015f8373ffffffffffffffffffffffffffffffffffffffff1673ffffffffffffffffffffffffffffffffffffffff1681526020019081526020015f205f6101000a81548160ff0219169083151502179055506101196101db60201b60201c565b73ffffffffffffffffffffffffffffffffffffffff168173ffffffffffffffffffffffffffffffffffffffff16837f2f8788117e7eff1d82e926ec794901d17c78024a50270940304540a733656f0d60405160405180910390a45b5050565b5f5f5f8481526020019081526020015f205f015f8373ffffffffffffffffffffffffffffffffffffffff1673ffffffffffffffffffffffffffffffffffffffff1681526020019081526020015f205f9054906101000a900460ff16905092915050565b5f33905090565b5f5ffd5b5f73ffffffffffffffffffffffffffffffffffffffff82169050919050565b5f61020f826101e6565b9050919050565b61021f81610205565b8114610229575f5ffd5b50565b5f8151905061023a81610216565b92915050565b5f60208284031215610255576102546101e2565b5b5f6102628482850161022c565b91505092915050565b6124b8806102785f395ff3fe608060405234801561000f575f5ffd5b506004361061014b575f3560e01c806374bc116e116100c1578063c4eab79b1161007a578063c4eab79b146103ab578063ca2dfd0a146103c7578063d28eaf85146103e3578063d547741f146103ff578063e7705db61461041b578063ed896d66146104395761014b565b806374bc116e146102eb57806378213c25146103075780638456cb59146103375780639000b3d61461034157806391d148541461035d578063a217fddf1461038d5761014b565b80632f2ff15d116101135780632f2ff15d1461022b57806336568abe146102475780633e277782146102635780633f4ba83a146102935780635939a84e1461029d5780635c975abb146102cd5761014b565b806301ffc9a71461014f57806316fbabca1461017f57806318ff1103146101af578063248a9ca3146101df5780632db9fc5f1461020f575b5f5ffd5b610169600480360381019061016491906116fc565b610469565b6040516101769190611741565b60405180910390f35b610199600480360381019061019491906117b4565b6104e2565b6040516101a69190611852565b60405180910390f35b6101c960048036038101906101c491906117b4565b610536565b6040516101d691906118db565b60405180910390f35b6101f960048036038101906101f4919061192e565b610606565b6040516102069190611968565b60405180910390f35b610229600480360381019061022491906119e2565b610622565b005b61024560048036038101906102409190611a3f565b610798565b005b610261600480360381019061025c9190611a3f565b6107b9565b005b61027d600480360381019061027891906117b4565b61083c565b60405161028a91906118db565b60405180910390f35b61029b61090c565b005b6102b760048036038101906102b291906117b4565b610923565b6040516102c49190611741565b60405180910390f35b6102d561099e565b6040516102e29190611741565b60405180910390f35b61030560048036038101906103009190611aa7565b6109b3565b005b610321600480360381019061031c91906117b4565b610b39565b60405161032e9190611852565b60405180910390f35b61033f610b8d565b005b61035b600480360381019061035691906117b4565b610ba4565b005b61037760048036038101906103729190611a3f565b610bde565b6040516103849190611741565b60405180910390f35b610395610c41565b6040516103a29190611968565b60405180910390f35b6103c560048036038101906103c09190611b18565b610c47565b005b6103e160048036038101906103dc91906117b4565b610d99565b005b6103fd60048036038101906103f891906117b4565b610dd3565b005b61041960048036038101906104149190611a3f565b610f6c565b005b610423610f8d565b6040516104309190611968565b60405180910390f35b610453600480360381019061044e91906117b4565b610fb1565b6040516104609190611741565b60405180910390f35b5f7f7965db0b000000000000000000000000000000000000000000000000000000007bffffffffffffffffffffffffffffffffffffffffffffffffffffffff1916827bffffffffffffffffffffffffffffffffffffffffffffffffffffffff191614806104db57506104da8261102c565b5b9050919050565b5f60035f8373ffffffffffffffffffffffffffffffffffffffff1673ffffffffffffffffffffffffffffffffffffffff1681526020019081526020015f205f015f9054906101000a900460ff169050919050565b606060025f8373ffffffffffffffffffffffffffffffffffffffff1673ffffffffffffffffffffffffffffffffffffffff1681526020019081526020015f20600101805461058390611b90565b80601f01602080910402602001604051908101604052809291908181526020018280546105af90611b90565b80156105fa5780601f106105d1576101008083540402835291602001916105fa565b820191905f5260205f20905b8154815290600101906020018083116105dd57829003601f168201915b50505050509050919050565b5f5f5f8381526020019081526020015f20600101549050919050565b61062a611095565b7f0ce23c3e399818cfee81a7ab0880f714e53d7672b08df0fa62f2843416e1ea09610654816110df565b604051806040016040528060026003811115610673576106726117df565b5b815260200184848080601f0160208091040260200160405190810160405280939291908181526020018383808284375f81840152601f19601f8201169050808301925050505050505081525060025f8673ffffffffffffffffffffffffffffffffffffffff1673ffffffffffffffffffffffffffffffffffffffff1681526020019081526020015f205f820151815f015f6101000a81548160ff02191690836003811115610724576107236117df565b5b0217905550602082015181600101908161073e9190611d96565b509050508373ffffffffffffffffffffffffffffffffffffffff167f1e3cd0ceabd235ef13135ef5f66bef5821a65db4e65196a65a9f6e7aa973e23a848460405161078a929190611e9f565b60405180910390a250505050565b6107a182610606565b6107aa816110df565b6107b483836110f3565b505050565b6107c16111cd565b73ffffffffffffffffffffffffffffffffffffffff168173ffffffffffffffffffffffffffffffffffffffff161461082e576040517f08c379a000000000000000000000000000000000000000000000000000000000815260040161082590611f31565b60405180910390fd5b61083882826111d4565b5050565b606060035f8373ffffffffffffffffffffffffffffffffffffffff1673ffffffffffffffffffffffffffffffffffffffff1681526020019081526020015f20600101805461088990611b90565b80601f01602080910402602001604051908101604052809291908181526020018280546108b590611b90565b80156109005780601f106108d757610100808354040283529160200191610900565b820191905f5260205f20905b8154815290600101906020018083116108e357829003601f168201915b50505050509050919050565b5f5f1b610918816110df565b6109206112ae565b50565b5f60026003811115610938576109376117df565b5b60025f8473ffffffffffffffffffffffffffffffffffffffff1673ffffffffffffffffffffffffffffffffffffffff1681526020019081526020015f205f015f9054906101000a900460ff166003811115610996576109956117df565b5b149050919050565b5f60015f9054906101000a900460ff16905090565b6109bb611095565b7f0ce23c3e399818cfee81a7ab0880f714e53d7672b08df0fa62f2843416e1ea096109e5816110df565b6040518060400160405280836109fc5760036109ff565b60025b6003811115610a1157610a106117df565b5b815260200185858080601f0160208091040260200160405190810160405280939291908181526020018383808284375f81840152601f19601f8201169050808301925050505050505081525060035f8773ffffffffffffffffffffffffffffffffffffffff1673ffffffffffffffffffffffffffffffffffffffff1681526020019081526020015f205f820151815f015f6101000a81548160ff02191690836003811115610ac257610ac16117df565b5b02179055506020820151816001019081610adc9190611d96565b509050508473ffffffffffffffffffffffffffffffffffffffff167fcffd4fbe2caec14e51f5f5db2de90b994581d0d8a919f3cbb0c960407188d7d1858585604051610b2a93929190611f4f565b60405180910390a25050505050565b5f60025f8373ffffffffffffffffffffffffffffffffffffffff1673ffffffffffffffffffffffffffffffffffffffff1681526020019081526020015f205f015f9054906101000a900460ff169050919050565b5f5f1b610b99816110df565b610ba161130f565b50565b5f5f1b610bb0816110df565b610bda7f0ce23c3e399818cfee81a7ab0880f714e53d7672b08df0fa62f2843416e1ea0983610798565b5050565b5f5f5f8481526020019081526020015f205f015f8373ffffffffffffffffffffffffffffffffffffffff1673ffffffffffffffffffffffffffffffffffffffff1681526020019081526020015f205f9054906101000a900460ff16905092915050565b5f5f1b81565b610c4f611095565b5f60025f3373ffffffffffffffffffffffffffffffffffffffff1673ffffffffffffffffffffffffffffffffffffffff1681526020019081526020015f20905060026003811115610ca357610ca26117df565b5b815f015f9054906101000a900460ff166003811115610cc557610cc46117df565b5b03610d05576040517f08c379a0000000000000000000000000000000000000000000000000000000008152600401610cfc90611fc9565b60405180910390fd5b8282826001019182610d18929190611ff1565b506001815f015f6101000a81548160ff02191690836003811115610d3f57610d3e6117df565b5b02179055503373ffffffffffffffffffffffffffffffffffffffff167f0603fa6e5f2465e73b4c69dcd5e274dbdc5ae4c0d42e635eaf6ec80cb77dcf548484604051610d8c929190611e9f565b60405180910390a2505050565b5f5f1b610da5816110df565b610dcf7f0ce23c3e399818cfee81a7ab0880f714e53d7672b08df0fa62f2843416e1ea0983610f6c565b5050565b610ddb611095565b7f0ce23c3e399818cfee81a7ab0880f714e53d7672b08df0fa62f2843416e1ea09610e05816110df565b5f60025f8473ffffffffffffffffffffffffffffffffffffffff1673ffffffffffffffffffffffffffffffffffffffff1681526020019081526020015f20905060026003811115610e5957610e586117df565b5b815f015f9054906101000a900460ff166003811115610e7b57610e7a6117df565b5b1480610eba575060016003811115610e9657610e956117df565b5b815f015f9054906101000a900460ff166003811115610eb857610eb76117df565b5b145b610ef9576040517f08c379a0000000000000000000000000000000000000000000000000000000008152600401610ef090612108565b60405180910390fd5b6003815f015f6101000a81548160ff02191690836003811115610f1f57610f1e6117df565b5b02179055508273ffffffffffffffffffffffffffffffffffffffff167f487dd17f7293d460a37466ca426b48d216097aca0d2337ae75446a575a02233160405160405180910390a2505050565b610f7582610606565b610f7e816110df565b610f8883836111d4565b505050565b7f0ce23c3e399818cfee81a7ab0880f714e53d7672b08df0fa62f2843416e1ea0981565b5f60026003811115610fc657610fc56117df565b5b60035f8473ffffffffffffffffffffffffffffffffffffffff1673ffffffffffffffffffffffffffffffffffffffff1681526020019081526020015f205f015f9054906101000a900460ff166003811115611024576110236117df565b5b149050919050565b5f7f01ffc9a7000000000000000000000000000000000000000000000000000000007bffffffffffffffffffffffffffffffffffffffffffffffffffffffff1916827bffffffffffffffffffffffffffffffffffffffffffffffffffffffff1916149050919050565b61109d61099e565b156110dd576040517f08c379a00000000000000000000000000000000000000000000000000000000081526004016110d490612170565b60405180910390fd5b565b6110f0816110eb6111cd565b611370565b50565b6110fd8282610bde565b6111c95760015f5f8481526020019081526020015f205f015f8373ffffffffffffffffffffffffffffffffffffffff1673ffffffffffffffffffffffffffffffffffffffff1681526020019081526020015f205f6101000a81548160ff02191690831515021790555061116e6111cd565b73ffffffffffffffffffffffffffffffffffffffff168173ffffffffffffffffffffffffffffffffffffffff16837f2f8788117e7eff1d82e926ec794901d17c78024a50270940304540a733656f0d60405160405180910390a45b5050565b5f33905090565b6111de8282610bde565b156112aa575f5f5f8481526020019081526020015f205f015f8373ffffffffffffffffffffffffffffffffffffffff1673ffffffffffffffffffffffffffffffffffffffff1681526020019081526020015f205f6101000a81548160ff02191690831515021790555061124f6111cd565b73ffffffffffffffffffffffffffffffffffffffff168173ffffffffffffffffffffffffffffffffffffffff16837ff6391f5c32d9c69d2a47ea670b442974b53935d1edc7fd64eb21e047a839171b60405160405180910390a45b5050565b6112b66113f4565b5f60015f6101000a81548160ff0219169083151502179055507f5db9ee0a495bf2e6ff9c91a7834c1ba4fdd244a5e8aa4e537bd38aeae4b073aa6112f86111cd565b604051611305919061219d565b60405180910390a1565b611317611095565b6001805f6101000a81548160ff0219169083151502179055507f62e78cea01bee320cd4e420270b5ea74000d11b0c9f74754ebdbfc544b05a2586113596111cd565b604051611366919061219d565b60405180910390a1565b61137a8282610bde565b6113f0576113878161143d565b611394835f1c602061146a565b6040516020016113a5929190612284565b6040516020818303038152906040526040517f08c379a00000000000000000000000000000000000000000000000000000000081526004016113e791906118db565b60405180910390fd5b5050565b6113fc61099e565b61143b576040517f08c379a000000000000000000000000000000000000000000000000000000000815260040161143290612307565b60405180910390fd5b565b60606114638273ffffffffffffffffffffffffffffffffffffffff16601460ff1661146a565b9050919050565b60605f600283600261147c9190612352565b6114869190612393565b67ffffffffffffffff81111561149f5761149e611bc0565b5b6040519080825280601f01601f1916602001820160405280156114d15781602001600182028036833780820191505090505b5090507f3000000000000000000000000000000000000000000000000000000000000000815f81518110611508576115076123c6565b5b60200101907effffffffffffffffffffffffffffffffffffffffffffffffffffffffffffff191690815f1a9053507f78000000000000000000000000000000000000000000000000000000000000008160018151811061156b5761156a6123c6565b5b60200101907effffffffffffffffffffffffffffffffffffffffffffffffffffffffffffff191690815f1a9053505f60018460026115a99190612352565b6115b39190612393565b90505b6001811115611652577f3031323334353637383961626364656600000000000000000000000000000000600f8616601081106115f5576115f46123c6565b5b1a60f81b82828151811061160c5761160b6123c6565b5b60200101907effffffffffffffffffffffffffffffffffffffffffffffffffffffffffffff191690815f1a905350600485901c94508061164b906123f3565b90506115b6565b505f8414611695576040517f08c379a000000000000000000000000000000000000000000000000000000000815260040161168c90612464565b60405180910390fd5b8091505092915050565b5f5ffd5b5f5ffd5b5f7fffffffff0000000000000000000000000000000000000000000000000000000082169050919050565b6116db816116a7565b81146116e5575f5ffd5b50565b5f813590506116f6816116d2565b92915050565b5f602082840312156117115761171061169f565b5b5f61171e848285016116e8565b91505092915050565b5f8115159050919050565b61173b81611727565b82525050565b5f6020820190506117545f830184611732565b92915050565b5f73ffffffffffffffffffffffffffffffffffffffff82169050919050565b5f6117838261175a565b9050919050565b61179381611779565b811461179d575f5ffd5b50565b5f813590506117ae8161178a565b92915050565b5f602082840312156117c9576117c861169f565b5b5f6117d6848285016117a0565b91505092915050565b7f4e487b71000000000000000000000000000000000000000000000000000000005f52602160045260245ffd5b6004811061181d5761181c6117df565b5b50565b5f81905061182d8261180c565b919050565b5f61183c82611820565b9050919050565b61184c81611832565b82525050565b5f6020820190506118655f830184611843565b92915050565b5f81519050919050565b5f82825260208201905092915050565b8281835e5f83830152505050565b5f601f19601f8301169050919050565b5f6118ad8261186b565b6118b78185611875565b93506118c7818560208601611885565b6118d081611893565b840191505092915050565b5f6020820190508181035f8301526118f381846118a3565b905092915050565b5f819050919050565b61190d816118fb565b8114611917575f5ffd5b50565b5f8135905061192881611904565b92915050565b5f602082840312156119435761194261169f565b5b5f6119508482850161191a565b91505092915050565b611962816118fb565b82525050565b5f60208201905061197b5f830184611959565b92915050565b5f5ffd5b5f5ffd5b5f5ffd5b5f5f83601f8401126119a2576119a1611981565b5b8235905067ffffffffffffffff8111156119bf576119be611985565b5b6020830191508360018202830111156119db576119da611989565b5b9250929050565b5f5f5f604084860312156119f9576119f861169f565b5b5f611a06868287016117a0565b935050602084013567ffffffffffffffff811115611a2757611a266116a3565b5b611a338682870161198d565b92509250509250925092565b5f5f60408385031215611a5557611a5461169f565b5b5f611a628582860161191a565b9250506020611a73858286016117a0565b9150509250929050565b611a8681611727565b8114611a90575f5ffd5b50565b5f81359050611aa181611a7d565b92915050565b5f5f5f5f60608587031215611abf57611abe61169f565b5b5f611acc878288016117a0565b945050602085013567ffffffffffffffff811115611aed57611aec6116a3565b5b611af98782880161198d565b93509350506040611b0c87828801611a93565b91505092959194509250565b5f5f60208385031215611b2e57611b2d61169f565b5b5f83013567ffffffffffffffff811115611b4b57611b4a6116a3565b5b611b578582860161198d565b92509250509250929050565b7f4e487b71000000000000000000000000000000000000000000000000000000005f52602260045260245ffd5b5f6002820490506001821680611ba757607f821691505b602082108103611bba57611bb9611b63565b5b50919050565b7f4e487b71000000000000000000000000000000000000000000000000000000005f52604160045260245ffd5b5f819050815f5260205f209050919050565b5f6020601f8301049050919050565b5f82821b905092915050565b5f60088302611c497fffffffffffffffffffffffffffffffffffffffffffffffffffffffffffffffff82611c0e565b611c538683611c0e565b95508019841693508086168417925050509392505050565b5f819050919050565b5f819050919050565b5f611c97611c92611c8d84611c6b565b611c74565b611c6b565b9050919050565b5f819050919050565b611cb083611c7d565b611cc4611cbc82611c9e565b848454611c1a565b825550505050565b5f5f905090565b611cdb611ccc565b611ce6818484611ca7565b505050565b5b81811015611d0957611cfe5f82611cd3565b600181019050611cec565b5050565b601f821115611d4e57611d1f81611bed565b611d2884611bff565b81016020851015611d37578190505b611d4b611d4385611bff565b830182611ceb565b50505b505050565b5f82821c905092915050565b5f611d6e5f1984600802611d53565b1980831691505092915050565b5f611d868383611d5f565b9150826002028217905092915050565b611d9f8261186b565b67ffffffffffffffff811115611db857611db7611bc0565b5b611dc28254611b90565b611dcd828285611d0d565b5f60209050601f831160018114611dfe575f8415611dec578287015190505b611df68582611d7b565b865550611e5d565b601f198416611e0c86611bed565b5f5b82811015611e3357848901518255600182019150602085019450602081019050611e0e565b86831015611e505784890151611e4c601f891682611d5f565b8355505b6001600288020188555050505b505050505050565b828183375f83830152505050565b5f611e7e8385611875565b9350611e8b838584611e65565b611e9483611893565b840190509392505050565b5f6020820190508181035f830152611eb8818486611e73565b90509392505050565b7f416363657373436f6e74726f6c3a2063616e206f6e6c792072656e6f756e63655f8201527f20726f6c657320666f722073656c660000000000000000000000000000000000602082015250565b5f611f1b602f83611875565b9150611f2682611ec1565b604082019050919050565b5f6020820190508181035f830152611f4881611f0f565b9050919050565b5f6040820190508181035f830152611f68818587611e73565b9050611f776020830184611732565b949350505050565b7f416c726561647920617070726f766564000000000000000000000000000000005f82015250565b5f611fb3601083611875565b9150611fbe82611f7f565b602082019050919050565b5f6020820190508181035f830152611fe081611fa7565b9050919050565b5f82905092915050565b611ffb8383611fe7565b67ffffffffffffffff81111561201457612013611bc0565b5b61201e8254611b90565b612029828285611d0d565b5f601f831160018114612056575f8415612044578287013590505b61204e8582611d7b565b8655506120b5565b601f19841661206486611bed565b5f5b8281101561208b57848901358255600182019150602085019450602081019050612066565b868310156120a857848901356120a4601f891682611d5f565b8355505b6001600288020188555050505b50505050505050565b7f4e6f7420617070726f7665642f70656e64696e670000000000000000000000005f82015250565b5f6120f2601483611875565b91506120fd826120be565b602082019050919050565b5f6020820190508181035f83015261211f816120e6565b9050919050565b7f5061757361626c653a20706175736564000000000000000000000000000000005f82015250565b5f61215a601083611875565b915061216582612126565b602082019050919050565b5f6020820190508181035f8301526121878161214e565b9050919050565b61219781611779565b82525050565b5f6020820190506121b05f83018461218e565b92915050565b5f81905092915050565b7f416363657373436f6e74726f6c3a206163636f756e74200000000000000000005f82015250565b5f6121f46017836121b6565b91506121ff826121c0565b601782019050919050565b5f6122148261186b565b61221e81856121b6565b935061222e818560208601611885565b80840191505092915050565b7f206973206d697373696e6720726f6c65200000000000000000000000000000005f82015250565b5f61226e6011836121b6565b91506122798261223a565b601182019050919050565b5f61228e826121e8565b915061229a828561220a565b91506122a582612262565b91506122b1828461220a565b91508190509392505050565b7f5061757361626c653a206e6f74207061757365640000000000000000000000005f82015250565b5f6122f1601483611875565b91506122fc826122bd565b602082019050919050565b5f6020820190508181035f83015261231e816122e5565b9050919050565b7f4e487b71000000000000000000000000000000000000000000000000000000005f52601160045260245ffd5b5f61235c82611c6b565b915061236783611c6b565b925082820261237581611c6b565b9150828204841483151761238c5761238b612325565b5b5092915050565b5f61239d82611c6b565b91506123a883611c6b565b92508282019050808211156123c0576123bf612325565b5b92915050565b7f4e487b71000000000000000000000000000000000000000000000000000000005f52603260045260245ffd5b5f6123fd82611c6b565b91505f820361240f5761240e612325565b5b600182039050919050565b7f537472696e67733a20686578206c656e67746820696e73756666696369656e745f82015250565b5f61244e602083611875565b91506124598261241a565b602082019050919050565b5f6020820190508181035f83015261247b81612442565b905091905056fea2646970667358221220e660baafcf431f94932921806756c308c8949f3665a05a90c21fa3c9df3b732564736f6c634300081e0033",
					"opcodes": "PUSH1 0x80 PUSH1 0x40 MSTORE CALLVALUE DUP1 ISZERO PUSH2 0xF JUMPI PUSH0 PUSH0 REVERT JUMPDEST POP PUSH1 0x40 MLOAD PUSH2 0x2730 CODESIZE SUB DUP1 PUSH2 0x2730 DUP4 CODECOPY DUP2 DUP2 ADD PUSH1 0x40 MSTORE DUP2 ADD SWAP1 PUSH2 0x31 SWAP2 SWAP1 PUSH2 0x240 JUMP JUMPDEST PUSH0 PUSH1 0x1 PUSH0 PUSH2 0x100 EXP DUP2 SLOAD DUP2 PUSH1 0xFF MUL NOT AND SWAP1 DUP4 ISZERO ISZERO MUL OR SWAP1 SSTORE POP PUSH2 0x5C PUSH0 PUSH0 SHL DUP3 PUSH2 0x92 PUSH1 0x20 SHL PUSH1 0x20 SHR JUMP JUMPDEST PUSH2 0x8C PUSH32 0xCE23C3E399818CFEE81A7AB0880F714E53D7672B08DF0FA62F2843416E1EA09 DUP3 PUSH2 0x92 PUSH1 0x20 SHL PUSH1 0x20 SHR JUMP JUMPDEST POP PUSH2 0x26B JUMP JUMPDEST PUSH2 0xA2 DUP3 DUP3 PUSH2 0x178 PUSH1 0x20 SHL PUSH1 0x20 SHR JUMP JUMPDEST PUSH2 0x174 JUMPI PUSH1 0x1 PUSH0 PUSH0 DUP5 DUP2 MSTORE PUSH1 0x20 ADD SWAP1 DUP2 MSTORE PUSH1 0x20 ADD PUSH0 KECCAK256 PUSH0 ADD PUSH0 DUP4 PUSH20 0xFFFFFFFFFFFFFFFFFFFFFFFFFFFFFFFFFFFFFFFF AND PUSH20 0xFFFFFFFFFFFFFFFFFFFFFFFFFFFFFFFFFFFFFFFF AND DUP2 MSTORE PUSH1 0x20 ADD SWAP1 DUP2 MSTORE PUSH1 0x20 ADD PUSH0 KECCAK256 PUSH0 PUSH2 0x100 EXP DUP2 SLOAD DUP2 PUSH1 0xFF MUL NOT AND SWAP1 DUP4 ISZERO ISZERO MUL OR SWAP1 SSTORE POP PUSH2 0x119 PUSH2 0x1DB PUSH1 0x20 SHL PUSH1 0x20 SHR JUMP JUMPDEST PUSH20 0xFFFFFFFFFFFFFFFFFFFFFFFFFFFFFFFFFFFFFFFF AND DUP2 PUSH20 0xFFFFFFFFFFFFFFFFFFFFFFFFFFFFFFFFFFFFFFFF AND DUP4 PUSH32 0x2F8788117E7EFF1D82E926EC794901D17C78024A50270940304540A733656F0D PUSH1 0x40 MLOAD PUSH1 0x40 MLOAD DUP1 SWAP2 SUB SWAP1 LOG4 JUMPDEST POP POP JUMP JUMPDEST PUSH0 PUSH0 PUSH0 DUP5 DUP2 MSTORE PUSH1 0x20 ADD SWAP1 DUP2 MSTORE PUSH1 0x20 ADD PUSH0 KECCAK256 PUSH0 ADD PUSH0 DUP4 PUSH20 0xFFFFFFFFFFFFFFFFFFFFFFFFFFFFFFFFFFFFFFFF AND PUSH20 0xFFFFFFFFFFFFFFFFFFFFFFFFFFFFFFFFFFFFFFFF AND DUP2 MSTORE PUSH1 0x20 ADD SWAP1 DUP2 MSTORE PUSH1 0x20 ADD PUSH0 KECCAK256 PUSH0 SWAP1 SLOAD SWAP1 PUSH2 0x100 EXP SWAP1 DIV PUSH1 0xFF AND SWAP1 POP SWAP3 SWAP2 POP POP JUMP JUMPDEST PUSH0 CALLER SWAP1 POP SWAP1 JUMP JUMPDEST PUSH0 PUSH0 REVERT JUMPDEST PUSH0 PUSH20 0xFFFFFFFFFFFFFFFFFFFFFFFFFFFFFFFFFFFFFFFF DUP3 AND SWAP1 POP SWAP2 SWAP1 POP JUMP JUMPDEST PUSH0 PUSH2 0x20F DUP3 PUSH2 0x1E6 JUMP JUMPDEST SWAP1 POP SWAP2 SWAP1 POP JUMP JUMPDEST PUSH2 0x21F DUP2 PUSH2 0x205 JUMP JUMPDEST DUP2 EQ PUSH2 0x229 JUMPI PUSH0 PUSH0 REVERT JUMPDEST POP JUMP JUMPDEST PUSH0 DUP2 MLOAD SWAP1 POP PUSH2 0x23A DUP2 PUSH2 0x216 JUMP JUMPDEST SWAP3 SWAP2 POP POP JUMP JUMPDEST PUSH0 PUSH1 0x20 DUP3 DUP5 SUB SLT ISZERO PUSH2 0x255 JUMPI PUSH2 0x254 PUSH2 0x1E2 JUMP JUMPDEST JUMPDEST PUSH0 PUSH2 0x262 DUP5 DUP3 DUP6 ADD PUSH2 0x22C JUMP JUMPDEST SWAP2 POP POP SWAP3 SWAP2 POP POP JUMP JUMPDEST PUSH2 0x24B8 DUP1 PUSH2 0x278 PUSH0 CODECOPY PUSH0 RETURN INVALID PUSH1 0x80 PUSH1 0x40 MSTORE CALLVALUE DUP1 ISZERO PUSH2 0xF JUMPI PUSH0 PUSH0 REVERT JUMPDEST POP PUSH1 0x4 CALLDATASIZE LT PUSH2 0x14B JUMPI PUSH0 CALLDATALOAD PUSH1 0xE0 SHR DUP1 PUSH4 0x74BC116E GT PUSH2 0xC1 JUMPI DUP1 PUSH4 0xC4EAB79B GT PUSH2 0x7A JUMPI DUP1 PUSH4 0xC4EAB79B EQ PUSH2 0x3AB JUMPI DUP1 PUSH4 0xCA2DFD0A EQ PUSH2 0x3C7 JUMPI DUP1 PUSH4 0xD28EAF85 EQ PUSH2 0x3E3 JUMPI DUP1 PUSH4 0xD547741F EQ PUSH2 0x3FF JUMPI DUP1 PUSH4 0xE7705DB6 EQ PUSH2 0x41B JUMPI DUP1 PUSH4 0xED896D66 EQ PUSH2 0x439 JUMPI PUSH2 0x14B JUMP JUMPDEST DUP1 PUSH4 0x74BC116E EQ PUSH2 0x2EB JUMPI DUP1 PUSH4 0x78213C25 EQ PUSH2 0x307 JUMPI DUP1 PUSH4 0x8456CB59 EQ PUSH2 0x337 JUMPI DUP1 PUSH4 0x9000B3D6 EQ PUSH2 0x341 JUMPI DUP1 PUSH4 0x91D14854 EQ PUSH2 0x35D JUMPI DUP1 PUSH4 0xA217FDDF EQ PUSH2 0x38D JUMPI PUSH2 0x14B JUMP JUMPDEST DUP1 PUSH4 0x2F2FF15D GT PUSH2 0x113 JUMPI DUP1 PUSH4 0x2F2FF15D EQ PUSH2 0x22B JUMPI DUP1 PUSH4 0x36568ABE EQ PUSH2 0x247 JUMPI DUP1 PUSH4 0x3E277782 EQ PUSH2 0x263 JUMPI DUP1 PUSH4 0x3F4BA83A EQ PUSH2 0x293 JUMPI DUP1 PUSH4 0x5939A84E EQ PUSH2 0x29D JUMPI DUP1 PUSH4 0x5C975ABB EQ PUSH2 0x2CD JUMPI PUSH2 0x14B JUMP JUMPDEST DUP1 PUSH4 0x1FFC9A7 EQ PUSH2 0x14F JUMPI DUP1 PUSH4 0x16FBABCA EQ PUSH2 0x17F JUMPI DUP1 PUSH4 0x18FF1103 EQ PUSH2 0x1AF JUMPI DUP1 PUSH4 0x248A9CA3 EQ PUSH2 0x1DF JUMPI DUP1 PUSH4 0x2DB9FC5F EQ PUSH2 0x20F JUMPI JUMPDEST PUSH0 PUSH0 REVERT JUMPDEST PUSH2 0x169 PUSH1 0x4 DUP1 CALLDATASIZE SUB DUP2 ADD SWAP1 PUSH2 0x164 SWAP2 SWAP1 PUSH2 0x16FC JUMP JUMPDEST PUSH2 0x469 JUMP JUMPDEST PUSH1 0x40 MLOAD PUSH2 0x176 SWAP2 SWAP1 PUSH2 0x1741 JUMP JUMPDEST PUSH1 0x40 MLOAD DUP1 SWAP2 SUB SWAP1 RETURN JUMPDEST PUSH2 0x199 PUSH1 0x4 DUP1 CALLDATASIZE SUB DUP2 ADD SWAP1 PUSH2 0x194 SWAP2 SWAP1 PUSH2 0x17B4 JUMP JUMPDEST PUSH2 0x4E2 JUMP JUMPDEST PUSH1 0x40 MLOAD PUSH2 0x1A6 SWAP2 SWAP1 PUSH2 0x1852 JUMP JUMPDEST PUSH1 0x40 MLOAD DUP1 SWAP2 SUB SWAP1 RETURN JUMPDEST PUSH2 0x1C9 PUSH1 0x4 DUP1 CALLDATASIZE SUB DUP2 ADD SWAP1 PUSH2 0x1C4 SWAP2 SWAP1 PUSH2 0x17B4 JUMP JUMPDEST PUSH2 0x536 JUMP JUMPDEST PUSH1 0x40 MLOAD PUSH2 0x1D6 SWAP2 SWAP1 PUSH2 0x18DB JUMP JUMPDEST PUSH1 0x40 MLOAD DUP1 SWAP2 SUB SWAP1 RETURN JUMPDEST PUSH2 0x1F9 PUSH1 0x4 DUP1 CALLDATASIZE SUB DUP2 ADD SWAP1 PUSH2 0x1F4 SWAP2 SWAP1 PUSH2 0x192E JUMP JUMPDEST PUSH2 0x606 JUMP JUMPDEST PUSH1 0x40 MLOAD PUSH2 0x206 SWAP2 SWAP1 PUSH2 0x1968 JUMP JUMPDEST PUSH1 0x40 MLOAD DUP1 SWAP2 SUB SWAP1 RETURN JUMPDEST PUSH2 0x229 PUSH1 0x4 DUP1 CALLDATASIZE SUB DUP2 ADD SWAP1 PUSH2 0x224 SWAP2 SWAP1 PUSH2 0x19E2 JUMP JUMPDEST PUSH2 0x622 JUMP JUMPDEST STOP JUMPDEST PUSH2 0x245 PUSH1 0x4 DUP1 CALLDATASIZE SUB DUP2 ADD SWAP1 PUSH2 0x240 SWAP2 SWAP1 PUSH2 0x1A3F JUMP JUMPDEST PUSH2 0x798 JUMP JUMPDEST STOP JUMPDEST PUSH2 0x261 PUSH1 0x4 DUP1 CALLDATASIZE SUB DUP2 ADD SWAP1 PUSH2 0x25C SWAP2 SWAP1 PUSH2 0x1A3F JUMP JUMPDEST PUSH2 0x7B9 JUMP JUMPDEST STOP JUMPDEST PUSH2 0x27D PUSH1 0x4 DUP1 CALLDATASIZE SUB DUP2 ADD SWAP1 PUSH2 0x278 SWAP2 SWAP1 PUSH2 0x17B4 JUMP JUMPDEST PUSH2 0x83C JUMP JUMPDEST PUSH1 0x40 MLOAD PUSH2 0x28A SWAP2 SWAP1 PUSH2 0x18DB JUMP JUMPDEST PUSH1 0x40 MLOAD DUP1 SWAP2 SUB SWAP1 RETURN JUMPDEST PUSH2 0x29B PUSH2 0x90C JUMP JUMPDEST STOP JUMPDEST PUSH2 0x2B7 PUSH1 0x4 DUP1 CALLDATASIZE SUB DUP2 ADD SWAP1 PUSH2 0x2B2 SWAP2 SWAP1 PUSH2 0x17B4 JUMP JUMPDEST PUSH2 0x923 JUMP JUMPDEST PUSH1 0x40 MLOAD PUSH2 0x2C4 SWAP2 SWAP1 PUSH2 0x1741 JUMP JUMPDEST PUSH1 0x40 MLOAD DUP1 SWAP2 SUB SWAP1 RETURN JUMPDEST PUSH2 0x2D5 PUSH2 0x99E JUMP JUMPDEST PUSH1 0x40 MLOAD PUSH2 0x2E2 SWAP2 SWAP1 PUSH2 0x1741 JUMP JUMPDEST PUSH1 0x40 MLOAD DUP1 SWAP2 SUB SWAP1 RETURN JUMPDEST PUSH2 0x305 PUSH1 0x4 DUP1 CALLDATASIZE SUB DUP2 ADD SWAP1 PUSH2 0x300 SWAP2 SWAP1 PUSH2 0x1AA7 JUMP JUMPDEST PUSH2 0x9B3 JUMP JUMPDEST STOP JUMPDEST PUSH2 0x321 PUSH1 0x4 DUP1 CALLDATASIZE SUB DUP2 ADD SWAP1 PUSH2 0x31C SWAP2 SWAP1 PUSH2 0x17B4 JUMP JUMPDEST PUSH2 0xB39 JUMP JUMPDEST PUSH1 0x40 MLOAD PUSH2 0x32E SWAP2 SWAP1 PUSH2 0x1852 JUMP JUMPDEST PUSH1 0x40 MLOAD DUP1 SWAP2 SUB SWAP1 RETURN JUMPDEST PUSH2 0x33F PUSH2 0xB8D JUMP JUMPDEST STOP JUMPDEST PUSH2 0x35B PUSH1 0x4 DUP1 CALLDATASIZE SUB DUP2 ADD SWAP1 PUSH2 0x356 SWAP2 SWAP1 PUSH2 0x17B4 JUMP JUMPDEST PUSH2 0xBA4 JUMP JUMPDEST STOP JUMPDEST PUSH2 0x377 PUSH1 0x4 DUP1 CALLDATASIZE SUB DUP2 ADD SWAP1 PUSH2 0x372 SWAP2 SWAP1 PUSH2 0x1A3F JUMP JUMPDEST PUSH2 0xBDE JUMP JUMPDEST PUSH1 0x40 MLOAD PUSH2 0x384 SWAP2 SWAP1 PUSH2 0x1741 JUMP JUMPDEST PUSH1 0x40 MLOAD DUP1 SWAP2 SUB SWAP1 RETURN JUMPDEST PUSH2 0x395 PUSH2 0xC41 JUMP JUMPDEST PUSH1 0x40 MLOAD PUSH2 0x3A2 SWAP2 SWAP1 PUSH2 0x1968 JUMP JUMPDEST PUSH1 0x40 MLOAD DUP1 SWAP2 SUB SWAP1 RETURN JUMPDEST PUSH2 0x3C5 PUSH1 0x4 DUP1 CALLDATASIZE SUB DUP2 ADD SWAP1 PUSH2 0x3C0 SWAP2 SWAP1 PUSH2 0x1B18 JUMP JUMPDEST PUSH2 0xC47 JUMP JUMPDEST STOP JUMPDEST PUSH2 0x3E1 PUSH1 0x4 DUP1 CALLDATASIZE SUB DUP2 ADD SWAP1 PUSH2 0x3DC SWAP2 SWAP1 PUSH2 0x17B4 JUMP JUMPDEST PUSH2 0xD99 JUMP JUMPDEST STOP JUMPDEST PUSH2 0x3FD PUSH1 0x4 DUP1 CALLDATASIZE SUB DUP2 ADD SWAP1 PUSH2 0x3F8 SWAP2 SWAP1 PUSH2 0x17B4 JUMP JUMPDEST PUSH2 0xDD3 JUMP JUMPDEST STOP JUMPDEST PUSH2 0x419 PUSH1 0x4 DUP1 CALLDATASIZE SUB DUP2 ADD SWAP1 PUSH2 0x414 SWAP2 SWAP1 PUSH2 0x1A3F JUMP JUMPDEST PUSH2 0xF6C JUMP JUMPDEST STOP JUMPDEST PUSH2 0x423 PUSH2 0xF8D JUMP JUMPDEST PUSH1 0x40 MLOAD PUSH2 0x430 SWAP2 SWAP1 PUSH2 0x1968 JUMP JUMPDEST PUSH1 0x40 MLOAD DUP1 SWAP2 SUB SWAP1 RETURN JUMPDEST PUSH2 0x453 PUSH1 0x4 DUP1 CALLDATASIZE SUB DUP2 ADD SWAP1 PUSH2 0x44E SWAP2 SWAP1 PUSH2 0x17B4 JUMP JUMPDEST PUSH2 0xFB1 JUMP JUMPDEST PUSH1 0x40 MLOAD PUSH2 0x460 SWAP2 SWAP1 PUSH2 0x1741 JUMP JUMPDEST PUSH1 0x40 MLOAD DUP1 SWAP2 SUB SWAP1 RETURN JUMPDEST PUSH0 PUSH32 0x7965DB0B00000000000000000000000000000000000000000000000000000000 PUSH28 0xFFFFFFFFFFFFFFFFFFFFFFFFFFFFFFFFFFFFFFFFFFFFFFFFFFFFFFFF NOT AND DUP3 PUSH28 0xFFFFFFFFFFFFFFFFFFFFFFFFFFFFFFFFFFFFFFFFFFFFFFFFFFFFFFFF NOT AND EQ DUP1 PUSH2 0x4DB JUMPI POP PUSH2 0x4DA DUP3 PUSH2 0x102C JUMP JUMPDEST JUMPDEST SWAP1 POP SWAP2 SWAP1 POP JUMP JUMPDEST PUSH0 PUSH1 0x3 PUSH0 DUP4 PUSH20 0xFFFFFFFFFFFFFFFFFFFFFFFFFFFFFFFFFFFFFFFF AND PUSH20 0xFFFFFFFFFFFFFFFFFFFFFFFFFFFFFFFFFFFFFFFF AND DUP2 MSTORE PUSH1 0x20 ADD SWAP1 DUP2 MSTORE PUSH1 0x20 ADD PUSH0 KECCAK256 PUSH0 ADD PUSH0 SWAP1 SLOAD SWAP1 PUSH2 0x100 EXP SWAP1 DIV PUSH1 0xFF AND SWAP1 POP SWAP2 SWAP1 POP JUMP JUMPDEST PUSH1 0x60 PUSH1 0x2 PUSH0 DUP4 PUSH20 0xFFFFFFFFFFFFFFFFFFFFFFFFFFFFFFFFFFFFFFFF AND PUSH20 0xFFFFFFFFFFFFFFFFFFFFFFFFFFFFFFFFFFFFFFFF AND DUP2 MSTORE PUSH1 0x20 ADD SWAP1 DUP2 MSTORE PUSH1 0x20 ADD PUSH0 KECCAK256 PUSH1 0x1 ADD DUP1 SLOAD PUSH2 0x583 SWAP1 PUSH2 0x1B90 JUMP JUMPDEST DUP1 PUSH1 0x1F ADD PUSH1 0x20 DUP1 SWAP2 DIV MUL PUSH1 0x20 ADD PUSH1 0x40 MLOAD SWAP1 DUP2 ADD PUSH1 0x40 MSTORE DUP1 SWAP3 SWAP2 SWAP1 DUP2 DUP2 MSTORE PUSH1 0x20 ADD DUP3 DUP1 SLOAD PUSH2 0x5AF SWAP1 PUSH2 0x1B90 JUMP JUMPDEST DUP1 ISZERO PUSH2 0x5FA JUMPI DUP1 PUSH1 0x1F LT PUSH2 0x5D1 JUMPI PUSH2 0x100 DUP1 DUP4 SLOAD DIV MUL DUP4 MSTORE SWAP2 PUSH1 0x20 ADD SWAP2 PUSH2 0x5FA JUMP JUMPDEST DUP3 ADD SWAP2 SWAP1 PUSH0 MSTORE PUSH1 0x20 PUSH0 KECCAK256 SWAP1 JUMPDEST DUP2 SLOAD DUP2 MSTORE SWAP1 PUSH1 0x1 ADD SWAP1 PUSH1 0x20 ADD DUP1 DUP4 GT PUSH2 0x5DD JUMPI DUP3 SWAP1 SUB PUSH1 0x1F AND DUP3 ADD SWAP2 JUMPDEST POP POP POP POP POP SWAP1 POP SWAP2 SWAP1 POP JUMP JUMPDEST PUSH0 PUSH0 PUSH0 DUP4 DUP2 MSTORE PUSH1 0x20 ADD SWAP1 DUP2 MSTORE PUSH1 0x20 ADD PUSH0 KECCAK256 PUSH1 0x1 ADD SLOAD SWAP1 POP SWAP2 SWAP1 POP JUMP JUMPDEST PUSH2 0x62A PUSH2 0x1095 JUMP JUMPDEST PUSH32 0xCE23C3E399818CFEE81A7AB0880F714E53D7672B08DF0FA62F2843416E1EA09 PUSH2 0x654 DUP2 PUSH2 0x10DF JUMP JUMPDEST PUSH1 0x40 MLOAD DUP1 PUSH1 0x40 ADD PUSH1 0x40 MSTORE DUP1 PUSH1 0x2 PUSH1 0x3 DUP2 GT ISZERO PUSH2 0x673 JUMPI PUSH2 0x672 PUSH2 0x17DF JUMP JUMPDEST JUMPDEST DUP2 MSTORE PUSH1 0x20 ADD DUP5 DUP5 DUP1 DUP1 PUSH1 0x1F ADD PUSH1 0x20 DUP1 SWAP2 DIV MUL PUSH1 0x20 ADD PUSH1 0x40 MLOAD SWAP1 DUP2 ADD PUSH1 0x40 MSTORE DUP1 SWAP4 SWAP3 SWAP2 SWAP1 DUP2 DUP2 MSTORE PUSH1 0x20 ADD DUP4 DUP4 DUP1 DUP3 DUP5 CALLDATACOPY PUSH0 DUP2 DUP5 ADD MSTORE PUSH1 0x1F NOT PUSH1 0x1F DUP3 ADD AND SWAP1 POP DUP1 DUP4 ADD SWAP3 POP POP POP POP POP POP POP DUP2 MSTORE POP PUSH1 0x2 PUSH0 DUP7 PUSH20 0xFFFFFFFFFFFFFFFFFFFFFFFFFFFFFFFFFFFFFFFF AND PUSH20 0xFFFFFFFFFFFFFFFFFFFFFFFFFFFFFFFFFFFFFFFF AND DUP2 MSTORE PUSH1 0x20 ADD SWAP1 DUP2 MSTORE PUSH1 0x20 ADD PUSH0 KECCAK256 PUSH0 DUP3 ADD MLOAD DUP2 PUSH0 ADD PUSH0 PUSH2 0x100 EXP DUP2 SLOAD DUP2 PUSH1 0xFF MUL NOT AND SWAP1 DUP4 PUSH1 0x3 DUP2 GT ISZERO PUSH2 0x724 JUMPI PUSH2 0x723 PUSH2 0x17DF JUMP JUMPDEST JUMPDEST MUL OR SWAP1 SSTORE POP PUSH1 0x20 DUP3 ADD MLOAD DUP2 PUSH1 0x1 ADD SWAP1 DUP2 PUSH2 0x73E SWAP2 SWAP1 PUSH2 0x1D96 JUMP JUMPDEST POP SWAP1 POP POP DUP4 PUSH20 0xFFFFFFFFFFFFFFFFFFFFFFFFFFFFFFFFFFFFFFFF AND PUSH32 0x1E3CD0CEABD235EF13135EF5F66BEF5821A65DB4E65196A65A9F6E7AA973E23A DUP5 DUP5 PUSH1 0x40 MLOAD PUSH2 0x78A SWAP3 SWAP2 SWAP1 PUSH2 0x1E9F JUMP JUMPDEST PUSH1 0x40 MLOAD DUP1 SWAP2 SUB SWAP1 LOG2 POP POP POP POP JUMP JUMPDEST PUSH2 0x7A1 DUP3 PUSH2 0x606 JUMP JUMPDEST PUSH2 0x7AA DUP2 PUSH2 0x10DF JUMP JUMPDEST PUSH2 0x7B4 DUP4 DUP4 PUSH2 0x10F3 JUMP JUMPDEST POP POP POP JUMP JUMPDEST PUSH2 0x7C1 PUSH2 0x11CD JUMP JUMPDEST PUSH20 0xFFFFFFFFFFFFFFFFFFFFFFFFFFFFFFFFFFFFFFFF AND DUP2 PUSH20 0xFFFFFFFFFFFFFFFFFFFFFFFFFFFFFFFFFFFFFFFF AND EQ PUSH2 0x82E JUMPI PUSH1 0x40 MLOAD PUSH32 0x8C379A000000000000000000000000000000000000000000000000000000000 DUP2 MSTORE PUSH1 0x4 ADD PUSH2 0x825 SWAP1 PUSH2 0x1F31 JUMP JUMPDEST PUSH1 0x40 MLOAD DUP1 SWAP2 SUB SWAP1 REVERT JUMPDEST PUSH2 0x838 DUP3 DUP3 PUSH2 0x11D4 JUMP JUMPDEST POP POP JUMP JUMPDEST PUSH1 0x60 PUSH1 0x3 PUSH0 DUP4 PUSH20 0xFFFFFFFFFFFFFFFFFFFFFFFFFFFFFFFFFFFFFFFF AND PUSH20 0xFFFFFFFFFFFFFFFFFFFFFFFFFFFFFFFFFFFFFFFF AND DUP2 MSTORE PUSH1 0x20 ADD SWAP1 DUP2 MSTORE PUSH1 0x20 ADD PUSH0 KECCAK256 PUSH1 0x1 ADD DUP1 SLOAD PUSH2 0x889 SWAP1 PUSH2 0x1B90 JUMP JUMPDEST DUP1 PUSH1 0x1F ADD PUSH1 0x20 DUP1 SWAP2 DIV MUL PUSH1 0x20 ADD PUSH1 0x40 MLOAD SWAP1 DUP2 ADD PUSH1 0x40 MSTORE DUP1 SWAP3 SWAP2 SWAP1 DUP2 DUP2 MSTORE PUSH1 0x20 ADD DUP3 DUP1 SLOAD PUSH2 0x8B5 SWAP1 PUSH2 0x1B90 JUMP JUMPDEST DUP1 ISZERO PUSH2 0x900 JUMPI DUP1 PUSH1 0x1F LT PUSH2 0x8D7 JUMPI PUSH2 0x100 DUP1 DUP4 SLOAD DIV MUL DUP4 MSTORE SWAP2 PUSH1 0x20 ADD SWAP2 PUSH2 0x900 JUMP JUMPDEST DUP3 ADD SWAP2 SWAP1 PUSH0 MSTORE PUSH1 0x20 PUSH0 KECCAK256 SWAP1 JUMPDEST DUP2 SLOAD DUP2 MSTORE SWAP1 PUSH1 0x1 ADD SWAP1 PUSH1 0x20 ADD DUP1 DUP4 GT PUSH2 0x8E3 JUMPI DUP3 SWAP1 SUB PUSH1 0x1F AND DUP3 ADD SWAP2 JUMPDEST POP POP POP POP POP SWAP1 POP SWAP2 SWAP1 POP JUMP JUMPDEST PUSH0 PUSH0 SHL PUSH2 0x918 DUP2 PUSH2 0x10DF JUMP JUMPDEST PUSH2 0x920 PUSH2 0x12AE JUMP JUMPDEST POP JUMP JUMPDEST PUSH0 PUSH1 0x2 PUSH1 0x3 DUP2 GT ISZERO PUSH2 0x938 JUMPI PUSH2 0x937 PUSH2 0x17DF JUMP JUMPDEST JUMPDEST PUSH1 0x2 PUSH0 DUP5 PUSH20 0xFFFFFFFFFFFFFFFFFFFFFFFFFFFFFFFFFFFFFFFF AND PUSH20 0xFFFFFFFFFFFFFFFFFFFFFFFFFFFFFFFFFFFFFFFF AND DUP2 MSTORE PUSH1 0x20 ADD SWAP1 DUP2 MSTORE PUSH1 0x20 ADD PUSH0 KECCAK256 PUSH0 ADD PUSH0 SWAP1 SLOAD SWAP1 PUSH2 0x100 EXP SWAP1 DIV PUSH1 0xFF AND PUSH1 0x3 DUP2 GT ISZERO PUSH2 0x996 JUMPI PUSH2 0x995 PUSH2 0x17DF JUMP JUMPDEST JUMPDEST EQ SWAP1 POP SWAP2 SWAP1 POP JUMP JUMPDEST PUSH0 PUSH1 0x1 PUSH0 SWAP1 SLOAD SWAP1 PUSH2 0x100 EXP SWAP1 DIV PUSH1 0xFF AND SWAP1 POP SWAP1 JUMP JUMPDEST PUSH2 0x9BB PUSH2 0x1095 JUMP JUMPDEST PUSH32 0xCE23C3E399818CFEE81A7AB0880F714E53D7672B08DF0FA62F2843416E1EA09 PUSH2 0x9E5 DUP2 PUSH2 0x10DF JUMP JUMPDEST PUSH1 0x40 MLOAD DUP1 PUSH1 0x40 ADD PUSH1 0x40 MSTORE DUP1 DUP4 PUSH2 0x9FC JUMPI PUSH1 0x3 PUSH2 0x9FF JUMP JUMPDEST PUSH1 0x2 JUMPDEST PUSH1 0x3 DUP2 GT ISZERO PUSH2 0xA11 JUMPI PUSH2 0xA10 PUSH2 0x17DF JUMP JUMPDEST JUMPDEST DUP2 MSTORE PUSH1 0x20 ADD DUP6 DUP6 DUP1 DUP1 PUSH1 0x1F ADD PUSH1 0x20 DUP1 SWAP2 DIV MUL PUSH1 0x20 ADD PUSH1 0x40 MLOAD SWAP1 DUP2 ADD PUSH1 0x40 MSTORE DUP1 SWAP4 SWAP3 SWAP2 SWAP1 DUP2 DUP2 MSTORE PUSH1 0x20 ADD DUP4 DUP4 DUP1 DUP3 DUP5 CALLDATACOPY PUSH0 DUP2 DUP5 ADD MSTORE PUSH1 0x1F NOT PUSH1 0x1F DUP3 ADD AND SWAP1 POP DUP1 DUP4 ADD SWAP3 POP POP POP POP POP POP POP DUP2 MSTORE POP PUSH1 0x3 PUSH0 DUP8 PUSH20 0xFFFFFFFFFFFFFFFFFFFFFFFFFFFFFFFFFFFFFFFF AND PUSH20 0xFFFFFFFFFFFFFFFFFFFFFFFFFFFFFFFFFFFFFFFF AND DUP2 MSTORE PUSH1 0x20 ADD SWAP1 DUP2 MSTORE PUSH1 0x20 ADD PUSH0 KECCAK256 PUSH0 DUP3 ADD MLOAD DUP2 PUSH0 ADD PUSH0 PUSH2 0x100 EXP DUP2 SLOAD DUP2 PUSH1 0xFF MUL NOT AND SWAP1 DUP4 PUSH1 0x3 DUP2 GT ISZERO PUSH2 0xAC2 JUMPI PUSH2 0xAC1 PUSH2 0x17DF JUMP JUMPDEST JUMPDEST MUL OR SWAP1 SSTORE POP PUSH1 0x20 DUP3 ADD MLOAD DUP2 PUSH1 0x1 ADD SWAP1 DUP2 PUSH2 0xADC SWAP2 SWAP1 PUSH2 0x1D96 JUMP JUMPDEST POP SWAP1 POP POP DUP5 PUSH20 0xFFFFFFFFFFFFFFFFFFFFFFFFFFFFFFFFFFFFFFFF AND PUSH32 0xCFFD4FBE2CAEC14E51F5F5DB2DE90B994581D0D8A919F3CBB0C960407188D7D1 DUP6 DUP6 DUP6 PUSH1 0x40 MLOAD PUSH2 0xB2A SWAP4 SWAP3 SWAP2 SWAP1 PUSH2 0x1F4F JUMP JUMPDEST PUSH1 0x40 MLOAD DUP1 SWAP2 SUB SWAP1 LOG2 POP POP POP POP POP JUMP JUMPDEST PUSH0 PUSH1 0x2 PUSH0 DUP4 PUSH20 0xFFFFFFFFFFFFFFFFFFFFFFFFFFFFFFFFFFFFFFFF AND PUSH20 0xFFFFFFFFFFFFFFFFFFFFFFFFFFFFFFFFFFFFFFFF AND DUP2 MSTORE PUSH1 0x20 ADD SWAP1 DUP2 MSTORE PUSH1 0x20 ADD PUSH0 KECCAK256 PUSH0 ADD PUSH0 SWAP1 SLOAD SWAP1 PUSH2 0x100 EXP SWAP1 DIV PUSH1 0xFF AND SWAP1 POP SWAP2 SWAP1 POP JUMP JUMPDEST PUSH0 PUSH0 SHL PUSH2 0xB99 DUP2 PUSH2 0x10DF JUMP JUMPDEST PUSH2 0xBA1 PUSH2 0x130F JUMP JUMPDEST POP JUMP JUMPDEST PUSH0 PUSH0 SHL PUSH2 0xBB0 DUP2 PUSH2 0x10DF JUMP JUMPDEST PUSH2 0xBDA PUSH32 0xCE23C3E399818CFEE81A7AB0880F714E53D7672B08DF0FA62F2843416E1EA09 DUP4 PUSH2 0x798 JUMP JUMPDEST POP POP JUMP JUMPDEST PUSH0 PUSH0 PUSH0 DUP5 DUP2 MSTORE PUSH1 0x20 ADD SWAP1 DUP2 MSTORE PUSH1 0x20 ADD PUSH0 KECCAK256 PUSH0 ADD PUSH0 DUP4 PUSH20 0xFFFFFFFFFFFFFFFFFFFFFFFFFFFFFFFFFFFFFFFF AND PUSH20 0xFFFFFFFFFFFFFFFFFFFFFFFFFFFFFFFFFFFFFFFF AND DUP2 MSTORE PUSH1 0x20 ADD SWAP1 DUP2 MSTORE PUSH1 0x20 ADD PUSH0 KECCAK256 PUSH0 SWAP1 SLOAD SWAP1 PUSH2 0x100 EXP SWAP1 DIV PUSH1 0xFF AND SWAP1 POP SWAP3 SWAP2 POP POP JUMP JUMPDEST PUSH0 PUSH0 SHL DUP2 JUMP JUMPDEST PUSH2 0xC4F PUSH2 0x1095 JUMP JUMPDEST PUSH0 PUSH1 0x2 PUSH0 CALLER PUSH20 0xFFFFFFFFFFFFFFFFFFFFFFFFFFFFFFFFFFFFFFFF AND PUSH20 0xFFFFFFFFFFFFFFFFFFFFFFFFFFFFFFFFFFFFFFFF AND DUP2 MSTORE PUSH1 0x20 ADD SWAP1 DUP2 MSTORE PUSH1 0x20 ADD PUSH0 KECCAK256 SWAP1 POP PUSH1 0x2 PUSH1 0x3 DUP2 GT ISZERO PUSH2 0xCA3 JUMPI PUSH2 0xCA2 PUSH2 0x17DF JUMP JUMPDEST JUMPDEST DUP2 PUSH0 ADD PUSH0 SWAP1 SLOAD SWAP1 PUSH2 0x100 EXP SWAP1 DIV PUSH1 0xFF AND PUSH1 0x3 DUP2 GT ISZERO PUSH2 0xCC5 JUMPI PUSH2 0xCC4 PUSH2 0x17DF JUMP JUMPDEST JUMPDEST SUB PUSH2 0xD05 JUMPI PUSH1 0x40 MLOAD PUSH32 0x8C379A000000000000000000000000000000000000000000000000000000000 DUP2 MSTORE PUSH1 0x4 ADD PUSH2 0xCFC SWAP1 PUSH2 0x1FC9 JUMP JUMPDEST PUSH1 0x40 MLOAD DUP1 SWAP2 SUB SWAP1 REVERT JUMPDEST DUP3 DUP3 DUP3 PUSH1 0x1 ADD SWAP2 DUP3 PUSH2 0xD18 SWAP3 SWAP2 SWAP1 PUSH2 0x1FF1 JUMP JUMPDEST POP PUSH1 0x1 DUP2 PUSH0 ADD PUSH0 PUSH2 0x100 EXP DUP2 SLOAD DUP2 PUSH1 0xFF MUL NOT AND SWAP1 DUP4 PUSH1 0x3 DUP2 GT ISZERO PUSH2 0xD3F JUMPI PUSH2 0xD3E PUSH2 0x17DF JUMP JUMPDEST JUMPDEST MUL OR SWAP1 SSTORE POP CALLER PUSH20 0xFFFFFFFFFFFFFFFFFFFFFFFFFFFFFFFFFFFFFFFF AND PUSH32 0x603FA6E5F2465E73B4C69DCD5E274DBDC5AE4C0D42E635EAF6EC80CB77DCF54 DUP5 DUP5 PUSH1 0x40 MLOAD PUSH2 0xD8C SWAP3 SWAP2 SWAP1 PUSH2 0x1E9F JUMP JUMPDEST PUSH1 0x40 MLOAD DUP1 SWAP2 SUB SWAP1 LOG2 POP POP POP JUMP JUMPDEST PUSH0 PUSH0 SHL PUSH2 0xDA5 DUP2 PUSH2 0x10DF JUMP JUMPDEST PUSH2 0xDCF PUSH32 0xCE23C3E399818CFEE81A7AB0880F714E53D7672B08DF0FA62F2843416E1EA09 DUP4 PUSH2 0xF6C JUMP JUMPDEST POP POP JUMP JUMPDEST PUSH2 0xDDB PUSH2 0x1095 JUMP JUMPDEST PUSH32 0xCE23C3E399818CFEE81A7AB0880F714E53D7672B08DF0FA62F2843416E1EA09 PUSH2 0xE05 DUP2 PUSH2 0x10DF JUMP JUMPDEST PUSH0 PUSH1 0x2 PUSH0 DUP5 PUSH20 0xFFFFFFFFFFFFFFFFFFFFFFFFFFFFFFFFFFFFFFFF AND PUSH20 0xFFFFFFFFFFFFFFFFFFFFFFFFFFFFFFFFFFFFFFFF AND DUP2 MSTORE PUSH1 0x20 ADD SWAP1 DUP2 MSTORE PUSH1 0x20 ADD PUSH0 KECCAK256 SWAP1 POP PUSH1 0x2 PUSH1 0x3 DUP2 GT ISZERO PUSH2 0xE59 JUMPI PUSH2 0xE58 PUSH2 0x17DF JUMP JUMPDEST JUMPDEST DUP2 PUSH0 ADD PUSH0 SWAP1 SLOAD SWAP1 PUSH2 0x100 EXP SWAP1 DIV PUSH1 0xFF AND PUSH1 0x3 DUP2 GT ISZERO PUSH2 0xE7B JUMPI PUSH2 0xE7A PUSH2 0x17DF JUMP JUMPDEST JUMPDEST EQ DUP1 PUSH2 0xEBA JUMPI POP PUSH1 0x1 PUSH1 0x3 DUP2 GT ISZERO PUSH2 0xE96 JUMPI PUSH2 0xE95 PUSH2 0x17DF JUMP JUMPDEST JUMPDEST DUP2 PUSH0 ADD PUSH0 SWAP1 SLOAD SWAP1 PUSH2 0x100 EXP SWAP1 DIV PUSH1 0xFF AND PUSH1 0x3 DUP2 GT ISZERO PUSH2 0xEB8 JUMPI PUSH2 0xEB7 PUSH2 0x17DF JUMP JUMPDEST JUMPDEST EQ JUMPDEST PUSH2 0xEF9 JUMPI PUSH1 0x40 MLOAD PUSH32 0x8C379A000000000000000000000000000000000000000000000000000000000 DUP2 MSTORE PUSH1 0x4 ADD PUSH2 0xEF0 SWAP1 PUSH2 0x2108 JUMP JUMPDEST PUSH1 0x40 MLOAD DUP1 SWAP2 SUB SWAP1 REVERT JUMPDEST PUSH1 0x3 DUP2 PUSH0 ADD PUSH0 PUSH2 0x100 EXP DUP2 SLOAD DUP2 PUSH1 0xFF MUL NOT AND SWAP1 DUP4 PUSH1 0x3 DUP2 GT ISZERO PUSH2 0xF1F JUMPI PUSH2 0xF1E PUSH2 0x17DF JUMP JUMPDEST JUMPDEST MUL OR SWAP1 SSTORE POP DUP3 PUSH20 0xFFFFFFFFFFFFFFFFFFFFFFFFFFFFFFFFFFFFFFFF AND PUSH32 0x487DD17F7293D460A37466CA426B48D216097ACA0D2337AE75446A575A022331 PUSH1 0x40 MLOAD PUSH1 0x40 MLOAD DUP1 SWAP2 SUB SWAP1 LOG2 POP POP POP JUMP JUMPDEST PUSH2 0xF75 DUP3 PUSH2 0x606 JUMP JUMPDEST PUSH2 0xF7E DUP2 PUSH2 0x10DF JUMP JUMPDEST PUSH2 0xF88 DUP4 DUP4 PUSH2 0x11D4 JUMP JUMPDEST POP POP POP JUMP JUMPDEST PUSH32 0xCE23C3E399818CFEE81A7AB0880F714E53D7672B08DF0FA62F2843416E1EA09 DUP2 JUMP JUMPDEST PUSH0 PUSH1 0x2 PUSH1 0x3 DUP2 GT ISZERO PUSH2 0xFC6 JUMPI PUSH2 0xFC5 PUSH2 0x17DF JUMP JUMPDEST JUMPDEST PUSH1 0x3 PUSH0 DUP5 PUSH20 0xFFFFFFFFFFFFFFFFFFFFFFFFFFFFFFFFFFFFFFFF AND PUSH20 0xFFFFFFFFFFFFFFFFFFFFFFFFFFFFFFFFFFFFFFFF AND DUP2 MSTORE PUSH1 0x20 ADD SWAP1 DUP2 MSTORE PUSH1 0x20 ADD PUSH0 KECCAK256 PUSH0 ADD PUSH0 SWAP1 SLOAD SWAP1 PUSH2 0x100 EXP SWAP1 DIV PUSH1 0xFF AND PUSH1 0x3 DUP2 GT ISZERO PUSH2 0x1024 JUMPI PUSH2 0x1023 PUSH2 0x17DF JUMP JUMPDEST JUMPDEST EQ SWAP1 POP SWAP2 SWAP1 POP JUMP JUMPDEST PUSH0 PUSH32 0x1FFC9A700000000000000000000000000000000000000000000000000000000 PUSH28 0xFFFFFFFFFFFFFFFFFFFFFFFFFFFFFFFFFFFFFFFFFFFFFFFFFFFFFFFF NOT AND DUP3 PUSH28 0xFFFFFFFFFFFFFFFFFFFFFFFFFFFFFFFFFFFFFFFFFFFFFFFFFFFFFFFF NOT AND EQ SWAP1 POP SWAP2 SWAP1 POP JUMP JUMPDEST PUSH2 0x109D PUSH2 0x99E JUMP JUMPDEST ISZERO PUSH2 0x10DD JUMPI PUSH1 0x40 MLOAD PUSH32 0x8C379A000000000000000000000000000000000000000000000000000000000 DUP2 MSTORE PUSH1 0x4 ADD PUSH2 0x10D4 SWAP1 PUSH2 0x2170 JUMP JUMPDEST PUSH1 0x40 MLOAD DUP1 SWAP2 SUB SWAP1 REVERT JUMPDEST JUMP JUMPDEST PUSH2 0x10F0 DUP2 PUSH2 0x10EB PUSH2 0x11CD JUMP JUMPDEST PUSH2 0x1370 JUMP JUMPDEST POP JUMP JUMPDEST PUSH2 0x10FD DUP3 DUP3 PUSH2 0xBDE JUMP JUMPDEST PUSH2 0x11C9 JUMPI PUSH1 0x1 PUSH0 PUSH0 DUP5 DUP2 MSTORE PUSH1 0x20 ADD SWAP1 DUP2 MSTORE PUSH1 0x20 ADD PUSH0 KECCAK256 PUSH0 ADD PUSH0 DUP4 PUSH20 0xFFFFFFFFFFFFFFFFFFFFFFFFFFFFFFFFFFFFFFFF AND PUSH20 0xFFFFFFFFFFFFFFFFFFFFFFFFFFFFFFFFFFFFFFFF AND DUP2 MSTORE PUSH1 0x20 ADD SWAP1 DUP2 MSTORE PUSH1 0x20 ADD PUSH0 KECCAK256 PUSH0 PUSH2 0x100 EXP DUP2 SLOAD DUP2 PUSH1 0xFF MUL NOT AND SWAP1 DUP4 ISZERO ISZERO MUL OR SWAP1 SSTORE POP PUSH2 0x116E PUSH2 0x11CD JUMP JUMPDEST PUSH20 0xFFFFFFFFFFFFFFFFFFFFFFFFFFFFFFFFFFFFFFFF AND DUP2 PUSH20 0xFFFFFFFFFFFFFFFFFFFFFFFFFFFFFFFFFFFFFFFF AND DUP4 PUSH32 0x2F8788117E7EFF1D82E926EC794901D17C78024A50270940304540A733656F0D PUSH1 0x40 MLOAD PUSH1 0x40 MLOAD DUP1 SWAP2 SUB SWAP1 LOG4 JUMPDEST POP POP JUMP JUMPDEST PUSH0 CALLER SWAP1 POP SWAP1 JUMP JUMPDEST PUSH2 0x11DE DUP3 DUP3 PUSH2 0xBDE JUMP JUMPDEST ISZERO PUSH2 0x12AA JUMPI PUSH0 PUSH0 PUSH0 DUP5 DUP2 MSTORE PUSH1 0x20 ADD SWAP1 DUP2 MSTORE PUSH1 0x20 ADD PUSH0 KECCAK256 PUSH0 ADD PUSH0 DUP4 PUSH20 0xFFFFFFFFFFFFFFFFFFFFFFFFFFFFFFFFFFFFFFFF AND PUSH20 0xFFFFFFFFFFFFFFFFFFFFFFFFFFFFFFFFFFFFFFFF AND DUP2 MSTORE PUSH1 0x20 ADD SWAP1 DUP2 MSTORE PUSH1 0x20 ADD PUSH0 KECCAK256 PUSH0 PUSH2 0x100 EXP DUP2 SLOAD DUP2 PUSH1 0xFF MUL NOT AND SWAP1 DUP4 ISZERO ISZERO MUL OR SWAP1 SSTORE POP PUSH2 0x124F PUSH2 0x11CD JUMP JUMPDEST PUSH20 0xFFFFFFFFFFFFFFFFFFFFFFFFFFFFFFFFFFFFFFFF AND DUP2 PUSH20 0xFFFFFFFFFFFFFFFFFFFFFFFFFFFFFFFFFFFFFFFF AND DUP4 PUSH32 0xF6391F5C32D9C69D2A47EA670B442974B53935D1EDC7FD64EB21E047A839171B PUSH1 0x40 MLOAD PUSH1 0x40 MLOAD DUP1 SWAP2 SUB SWAP1 LOG4 JUMPDEST POP POP JUMP JUMPDEST PUSH2 0x12B6 PUSH2 0x13F4 JUMP JUMPDEST PUSH0 PUSH1 0x1 PUSH0 PUSH2 0x100 EXP DUP2 SLOAD DUP2 PUSH1 0xFF MUL NOT AND SWAP1 DUP4 ISZERO ISZERO MUL OR SWAP1 SSTORE POP PUSH32 0x5DB9EE0A495BF2E6FF9C91A7834C1BA4FDD244A5E8AA4E537BD38AEAE4B073AA PUSH2 0x12F8 PUSH2 0x11CD JUMP JUMPDEST PUSH1 0x40 MLOAD PUSH2 0x1305 SWAP2 SWAP1 PUSH2 0x219D JUMP JUMPDEST PUSH1 0x40 MLOAD DUP1 SWAP2 SUB SWAP1 LOG1 JUMP JUMPDEST PUSH2 0x1317 PUSH2 0x1095 JUMP JUMPDEST PUSH1 0x1 DUP1 PUSH0 PUSH2 0x100 EXP DUP2 SLOAD DUP2 PUSH1 0xFF MUL NOT AND SWAP1 DUP4 ISZERO ISZERO MUL OR SWAP1 SSTORE POP PUSH32 0x62E78CEA01BEE320CD4E420270B5EA74000D11B0C9F74754EBDBFC544B05A258 PUSH2 0x1359 PUSH2 0x11CD JUMP JUMPDEST PUSH1 0x40 MLOAD PUSH2 0x1366 SWAP2 SWAP1 PUSH2 0x219D JUMP JUMPDEST PUSH1 0x40 MLOAD DUP1 SWAP2 SUB SWAP1 LOG1 JUMP JUMPDEST PUSH2 0x137A DUP3 DUP3 PUSH2 0xBDE JUMP JUMPDEST PUSH2 0x13F0 JUMPI PUSH2 0x1387 DUP2 PUSH2 0x143D JUMP JUMPDEST PUSH2 0x1394 DUP4 PUSH0 SHR PUSH1 0x20 PUSH2 0x146A JUMP JUMPDEST PUSH1 0x40 MLOAD PUSH1 0x20 ADD PUSH2 0x13A5 SWAP3 SWAP2 SWAP1 PUSH2 0x2284 JUMP JUMPDEST PUSH1 0x40 MLOAD PUSH1 0x20 DUP2 DUP4 SUB SUB DUP2 MSTORE SWAP1 PUSH1 0x40 MSTORE PUSH1 0x40 MLOAD PUSH32 0x8C379A000000000000000000000000000000000000000000000000000000000 DUP2 MSTORE PUSH1 0x4 ADD PUSH2 0x13E7 SWAP2 SWAP1 PUSH2 0x18DB JUMP JUMPDEST PUSH1 0x40 MLOAD DUP1 SWAP2 SUB SWAP1 REVERT JUMPDEST POP POP JUMP JUMPDEST PUSH2 0x13FC PUSH2 0x99E JUMP JUMPDEST PUSH2 0x143B JUMPI PUSH1 0x40 MLOAD PUSH32 0x8C379A000000000000000000000000000000000000000000000000000000000 DUP2 MSTORE PUSH1 0x4 ADD PUSH2 0x1432 SWAP1 PUSH2 0x2307 JUMP JUMPDEST PUSH1 0x40 MLOAD DUP1 SWAP2 SUB SWAP1 REVERT JUMPDEST JUMP JUMPDEST PUSH1 0x60 PUSH2 0x1463 DUP3 PUSH20 0xFFFFFFFFFFFFFFFFFFFFFFFFFFFFFFFFFFFFFFFF AND PUSH1 0x14 PUSH1 0xFF AND PUSH2 0x146A JUMP JUMPDEST SWAP1 POP SWAP2 SWAP1 POP JUMP JUMPDEST PUSH1 0x60 PUSH0 PUSH1 0x2 DUP4 PUSH1 0x2 PUSH2 0x147C SWAP2 SWAP1 PUSH2 0x2352 JUMP JUMPDEST PUSH2 0x1486 SWAP2 SWAP1 PUSH2 0x2393 JUMP JUMPDEST PUSH8 0xFFFFFFFFFFFFFFFF DUP2 GT ISZERO PUSH2 0x149F JUMPI PUSH2 0x149E PUSH2 0x1BC0 JUMP JUMPDEST JUMPDEST PUSH1 0x40 MLOAD SWAP1 DUP1 DUP3 MSTORE DUP1 PUSH1 0x1F ADD PUSH1 0x1F NOT AND PUSH1 0x20 ADD DUP3 ADD PUSH1 0x40 MSTORE DUP1 ISZERO PUSH2 0x14D1 JUMPI DUP2 PUSH1 0x20 ADD PUSH1 0x1 DUP3 MUL DUP1 CALLDATASIZE DUP4 CALLDATACOPY DUP1 DUP3 ADD SWAP2 POP POP SWAP1 POP JUMPDEST POP SWAP1 POP PUSH32 0x3000000000000000000000000000000000000000000000000000000000000000 DUP2 PUSH0 DUP2 MLOAD DUP2 LT PUSH2 0x1508 JUMPI PUSH2 0x1507 PUSH2 0x23C6 JUMP JUMPDEST JUMPDEST PUSH1 0x20 ADD ADD SWAP1 PUSH31 0xFFFFFFFFFFFFFFFFFFFFFFFFFFFFFFFFFFFFFFFFFFFFFFFFFFFFFFFFFFFFFF NOT AND SWAP1 DUP2 PUSH0 BYTE SWAP1 MSTORE8 POP PUSH32 0x7800000000000000000000000000000000000000000000000000000000000000 DUP2 PUSH1 0x1 DUP2 MLOAD DUP2 LT PUSH2 0x156B JUMPI PUSH2 0x156A PUSH2 0x23C6 JUMP JUMPDEST JUMPDEST PUSH1 0x20 ADD ADD SWAP1 PUSH31 0xFFFFFFFFFFFFFFFFFFFFFFFFFFFFFFFFFFFFFFFFFFFFFFFFFFFFFFFFFFFFFF NOT AND SWAP1 DUP2 PUSH0 BYTE SWAP1 MSTORE8 POP PUSH0 PUSH1 0x1 DUP5 PUSH1 0x2 PUSH2 0x15A9 SWAP2 SWAP1 PUSH2 0x2352 JUMP JUMPDEST PUSH2 0x15B3 SWAP2 SWAP1 PUSH2 0x2393 JUMP JUMPDEST SWAP1 POP JUMPDEST PUSH1 0x1 DUP2 GT ISZERO PUSH2 0x1652 JUMPI PUSH32 0x3031323334353637383961626364656600000000000000000000000000000000 PUSH1 0xF DUP7 AND PUSH1 0x10 DUP2 LT PUSH2 0x15F5 JUMPI PUSH2 0x15F4 PUSH2 0x23C6 JUMP JUMPDEST JUMPDEST BYTE PUSH1 0xF8 SHL DUP3 DUP3 DUP2 MLOAD DUP2 LT PUSH2 0x160C JUMPI PUSH2 0x160B PUSH2 0x23C6 JUMP JUMPDEST JUMPDEST PUSH1 0x20 ADD ADD SWAP1 PUSH31 0xFFFFFFFFFFFFFFFFFFFFFFFFFFFFFFFFFFFFFFFFFFFFFFFFFFFFFFFFFFFFFF NOT AND SWAP1 DUP2 PUSH0 BYTE SWAP1 MSTORE8 POP PUSH1 0x4 DUP6 SWAP1 SHR SWAP5 POP DUP1 PUSH2 0x164B SWAP1 PUSH2 0x23F3 JUMP JUMPDEST SWAP1 POP PUSH2 0x15B6 JUMP JUMPDEST POP PUSH0 DUP5 EQ PUSH2 0x1695 JUMPI PUSH1 0x40 MLOAD PUSH32 0x8C379A000000000000000000000000000000000000000000000000000000000 DUP2 MSTORE PUSH1 0x4 ADD PUSH2 0x168C SWAP1 PUSH2 0x2464 JUMP JUMPDEST PUSH1 0x40 MLOAD DUP1 SWAP2 SUB SWAP1 REVERT JUMPDEST DUP1 SWAP2 POP POP SWAP3 SWAP2 POP POP JUMP JUMPDEST PUSH0 PUSH0 REVERT JUMPDEST PUSH0 PUSH0 REVERT JUMPDEST PUSH0 PUSH32 0xFFFFFFFF00000000000000000000000000000000000000000000000000000000 DUP3 AND SWAP1 POP SWAP2 SWAP1 POP JUMP JUMPDEST PUSH2 0x16DB DUP2 PUSH2 0x16A7 JUMP JUMPDEST DUP2 EQ PUSH2 0x16E5 JUMPI PUSH0 PUSH0 REVERT JUMPDEST POP JUMP JUMPDEST PUSH0 DUP2 CALLDATALOAD SWAP1 POP PUSH2 0x16F6 DUP2 PUSH2 0x16D2 JUMP JUMPDEST SWAP3 SWAP2 POP POP JUMP JUMPDEST PUSH0 PUSH1 0x20 DUP3 DUP5 SUB SLT ISZERO PUSH2 0x1711 JUMPI PUSH2 0x1710 PUSH2 0x169F JUMP JUMPDEST JUMPDEST PUSH0 PUSH2 0x171E DUP5 DUP3 DUP6 ADD PUSH2 0x16E8 JUMP JUMPDEST SWAP2 POP POP SWAP3 SWAP2 POP POP JUMP JUMPDEST PUSH0 DUP2 ISZERO ISZERO SWAP1 POP SWAP2 SWAP1 POP JUMP JUMPDEST PUSH2 0x173B DUP2 PUSH2 0x1727 JUMP JUMPDEST DUP3 MSTORE POP POP JUMP JUMPDEST PUSH0 PUSH1 0x20 DUP3 ADD SWAP1 POP PUSH2 0x1754 PUSH0 DUP4 ADD DUP5 PUSH2 0x1732 JUMP JUMPDEST SWAP3 SWAP2 POP POP JUMP JUMPDEST PUSH0 PUSH20 0xFFFFFFFFFFFFFFFFFFFFFFFFFFFFFFFFFFFFFFFF DUP3 AND SWAP1 POP SWAP2 SWAP1 POP JUMP JUMPDEST PUSH0 PUSH2 0x1783 DUP3 PUSH2 0x175A JUMP JUMPDEST SWAP1 POP SWAP2 SWAP1 POP JUMP JUMPDEST PUSH2 0x1793 DUP2 PUSH2 0x1779 JUMP JUMPDEST DUP2 EQ PUSH2 0x179D JUMPI PUSH0 PUSH0 REVERT JUMPDEST POP JUMP JUMPDEST PUSH0 DUP2 CALLDATALOAD SWAP1 POP PUSH2 0x17AE DUP2 PUSH2 0x178A JUMP JUMPDEST SWAP3 SWAP2 POP POP JUMP JUMPDEST PUSH0 PUSH1 0x20 DUP3 DUP5 SUB SLT ISZERO PUSH2 0x17C9 JUMPI PUSH2 0x17C8 PUSH2 0x169F JUMP JUMPDEST JUMPDEST PUSH0 PUSH2 0x17D6 DUP5 DUP3 DUP6 ADD PUSH2 0x17A0 JUMP JUMPDEST SWAP2 POP POP SWAP3 SWAP2 POP POP JUMP JUMPDEST PUSH32 0x4E487B7100000000000000000000000000000000000000000000000000000000 PUSH0 MSTORE PUSH1 0x21 PUSH1 0x4 MSTORE PUSH1 0x24 PUSH0 REVERT JUMPDEST PUSH1 0x4 DUP2 LT PUSH2 0x181D JUMPI PUSH2 0x181C PUSH2 0x17DF JUMP JUMPDEST JUMPDEST POP JUMP JUMPDEST PUSH0 DUP2 SWAP1 POP PUSH2 0x182D DUP3 PUSH2 0x180C JUMP JUMPDEST SWAP2 SWAP1 POP JUMP JUMPDEST PUSH0 PUSH2 0x183C DUP3 PUSH2 0x1820 JUMP JUMPDEST SWAP1 POP SWAP2 SWAP1 POP JUMP JUMPDEST PUSH2 0x184C DUP2 PUSH2 0x1832 JUMP JUMPDEST DUP3 MSTORE POP POP JUMP JUMPDEST PUSH0 PUSH1 0x20 DUP3 ADD SWAP1 POP PUSH2 0x1865 PUSH0 DUP4 ADD DUP5 PUSH2 0x1843 JUMP JUMPDEST SWAP3 SWAP2 POP POP JUMP JUMPDEST PUSH0 DUP2 MLOAD SWAP1 POP SWAP2 SWAP1 POP JUMP JUMPDEST PUSH0 DUP3 DUP3 MSTORE PUSH1 0x20 DUP3 ADD SWAP1 POP SWAP3 SWAP2 POP POP JUMP JUMPDEST DUP3 DUP2 DUP4 MCOPY PUSH0 DUP4 DUP4 ADD MSTORE POP POP POP JUMP JUMPDEST PUSH0 PUSH1 0x1F NOT PUSH1 0x1F DUP4 ADD AND SWAP1 POP SWAP2 SWAP1 POP JUMP JUMPDEST PUSH0 PUSH2 0x18AD DUP3 PUSH2 0x186B JUMP JUMPDEST PUSH2 0x18B7 DUP2 DUP6 PUSH2 0x1875 JUMP JUMPDEST SWAP4 POP PUSH2 0x18C7 DUP2 DUP6 PUSH1 0x20 DUP7 ADD PUSH2 0x1885 JUMP JUMPDEST PUSH2 0x18D0 DUP2 PUSH2 0x1893 JUMP JUMPDEST DUP5 ADD SWAP2 POP POP SWAP3 SWAP2 POP POP JUMP JUMPDEST PUSH0 PUSH1 0x20 DUP3 ADD SWAP1 POP DUP2 DUP2 SUB PUSH0 DUP4 ADD MSTORE PUSH2 0x18F3 DUP2 DUP5 PUSH2 0x18A3 JUMP JUMPDEST SWAP1 POP SWAP3 SWAP2 POP POP JUMP JUMPDEST PUSH0 DUP2 SWAP1 POP SWAP2 SWAP1 POP JUMP JUMPDEST PUSH2 0x190D DUP2 PUSH2 0x18FB JUMP JUMPDEST DUP2 EQ PUSH2 0x1917 JUMPI PUSH0 PUSH0 REVERT JUMPDEST POP JUMP JUMPDEST PUSH0 DUP2 CALLDATALOAD SWAP1 POP PUSH2 0x1928 DUP2 PUSH2 0x1904 JUMP JUMPDEST SWAP3 SWAP2 POP POP JUMP JUMPDEST PUSH0 PUSH1 0x20 DUP3 DUP5 SUB SLT ISZERO PUSH2 0x1943 JUMPI PUSH2 0x1942 PUSH2 0x169F JUMP JUMPDEST JUMPDEST PUSH0 PUSH2 0x1950 DUP5 DUP3 DUP6 ADD PUSH2 0x191A JUMP JUMPDEST SWAP2 POP POP SWAP3 SWAP2 POP POP JUMP JUMPDEST PUSH2 0x1962 DUP2 PUSH2 0x18FB JUMP JUMPDEST DUP3 MSTORE POP POP JUMP JUMPDEST PUSH0 PUSH1 0x20 DUP3 ADD SWAP1 POP PUSH2 0x197B PUSH0 DUP4 ADD DUP5 PUSH2 0x1959 JUMP JUMPDEST SWAP3 SWAP2 POP POP JUMP JUMPDEST PUSH0 PUSH0 REVERT JUMPDEST PUSH0 PUSH0 REVERT JUMPDEST PUSH0 PUSH0 REVERT JUMPDEST PUSH0 PUSH0 DUP4 PUSH1 0x1F DUP5 ADD SLT PUSH2 0x19A2 JUMPI PUSH2 0x19A1 PUSH2 0x1981 JUMP JUMPDEST JUMPDEST DUP3 CALLDATALOAD SWAP1 POP PUSH8 0xFFFFFFFFFFFFFFFF DUP2 GT ISZERO PUSH2 0x19BF JUMPI PUSH2 0x19BE PUSH2 0x1985 JUMP JUMPDEST JUMPDEST PUSH1 0x20 DUP4 ADD SWAP2 POP DUP4 PUSH1 0x1 DUP3 MUL DUP4 ADD GT ISZERO PUSH2 0x19DB JUMPI PUSH2 0x19DA PUSH2 0x1989 JUMP JUMPDEST JUMPDEST SWAP3 POP SWAP3 SWAP1 POP JUMP JUMPDEST PUSH0 PUSH0 PUSH0 PUSH1 0x40 DUP5 DUP7 SUB SLT ISZERO PUSH2 0x19F9 JUMPI PUSH2 0x19F8 PUSH2 0x169F JUMP JUMPDEST JUMPDEST PUSH0 PUSH2 0x1A06 DUP7 DUP3 DUP8 ADD PUSH2 0x17A0 JUMP JUMPDEST SWAP4 POP POP PUSH1 0x20 DUP5 ADD CALLDATALOAD PUSH8 0xFFFFFFFFFFFFFFFF DUP2 GT ISZERO PUSH2 0x1A27 JUMPI PUSH2 0x1A26 PUSH2 0x16A3 JUMP JUMPDEST JUMPDEST PUSH2 0x1A33 DUP7 DUP3 DUP8 ADD PUSH2 0x198D JUMP JUMPDEST SWAP3 POP SWAP3 POP POP SWAP3 POP SWAP3 POP SWAP3 JUMP JUMPDEST PUSH0 PUSH0 PUSH1 0x40 DUP4 DUP6 SUB SLT ISZERO PUSH2 0x1A55 JUMPI PUSH2 0x1A54 PUSH2 0x169F JUMP JUMPDEST JUMPDEST PUSH0 PUSH2 0x1A62 DUP6 DUP3 DUP7 ADD PUSH2 0x191A JUMP JUMPDEST SWAP3 POP POP PUSH1 0x20 PUSH2 0x1A73 DUP6 DUP3 DUP7 ADD PUSH2 0x17A0 JUMP JUMPDEST SWAP2 POP POP SWAP3 POP SWAP3 SWAP1 POP JUMP JUMPDEST PUSH2 0x1A86 DUP2 PUSH2 0x1727 JUMP JUMPDEST DUP2 EQ PUSH2 0x1A90 JUMPI PUSH0 PUSH0 REVERT JUMPDEST POP JUMP JUMPDEST PUSH0 DUP2 CALLDATALOAD SWAP1 POP PUSH2 0x1AA1 DUP2 PUSH2 0x1A7D JUMP JUMPDEST SWAP3 SWAP2 POP POP JUMP JUMPDEST PUSH0 PUSH0 PUSH0 PUSH0 PUSH1 0x60 DUP6 DUP8 SUB SLT ISZERO PUSH2 0x1ABF JUMPI PUSH2 0x1ABE PUSH2 0x169F JUMP JUMPDEST JUMPDEST PUSH0 PUSH2 0x1ACC DUP8 DUP3 DUP9 ADD PUSH2 0x17A0 JUMP JUMPDEST SWAP5 POP POP PUSH1 0x20 DUP6 ADD CALLDATALOAD PUSH8 0xFFFFFFFFFFFFFFFF DUP2 GT ISZERO PUSH2 0x1AED JUMPI PUSH2 0x1AEC PUSH2 0x16A3 JUMP JUMPDEST JUMPDEST PUSH2 0x1AF9 DUP8 DUP3 DUP9 ADD PUSH2 0x198D JUMP JUMPDEST SWAP4 POP SWAP4 POP POP PUSH1 0x40 PUSH2 0x1B0C DUP8 DUP3 DUP9 ADD PUSH2 0x1A93 JUMP JUMPDEST SWAP2 POP POP SWAP3 SWAP6 SWAP2 SWAP5 POP SWAP3 POP JUMP JUMPDEST PUSH0 PUSH0 PUSH1 0x20 DUP4 DUP6 SUB SLT ISZERO PUSH2 0x1B2E JUMPI PUSH2 0x1B2D PUSH2 0x169F JUMP JUMPDEST JUMPDEST PUSH0 DUP4 ADD CALLDATALOAD PUSH8 0xFFFFFFFFFFFFFFFF DUP2 GT ISZERO PUSH2 0x1B4B JUMPI PUSH2 0x1B4A PUSH2 0x16A3 JUMP JUMPDEST JUMPDEST PUSH2 0x1B57 DUP6 DUP3 DUP7 ADD PUSH2 0x198D JUMP JUMPDEST SWAP3 POP SWAP3 POP POP SWAP3 POP SWAP3 SWAP1 POP JUMP JUMPDEST PUSH32 0x4E487B7100000000000000000000000000000000000000000000000000000000 PUSH0 MSTORE PUSH1 0x22 PUSH1 0x4 MSTORE PUSH1 0x24 PUSH0 REVERT JUMPDEST PUSH0 PUSH1 0x2 DUP3 DIV SWAP1 POP PUSH1 0x1 DUP3 AND DUP1 PUSH2 0x1BA7 JUMPI PUSH1 0x7F DUP3 AND SWAP2 POP JUMPDEST PUSH1 0x20 DUP3 LT DUP2 SUB PUSH2 0x1BBA JUMPI PUSH2 0x1BB9 PUSH2 0x1B63 JUMP JUMPDEST JUMPDEST POP SWAP2 SWAP1 POP JUMP JUMPDEST PUSH32 0x4E487B7100000000000000000000000000000000000000000000000000000000 PUSH0 MSTORE PUSH1 0x41 PUSH1 0x4 MSTORE PUSH1 0x24 PUSH0 REVERT JUMPDEST PUSH0 DUP2 SWAP1 POP DUP2 PUSH0 MSTORE PUSH1 0x20 PUSH0 KECCAK256 SWAP1 POP SWAP2 SWAP1 POP JUMP JUMPDEST PUSH0 PUSH1 0x20 PUSH1 0x1F DUP4 ADD DIV SWAP1 POP SWAP2 SWAP1 POP JUMP JUMPDEST PUSH0 DUP3 DUP3 SHL SWAP1 POP SWAP3 SWAP2 POP POP JUMP JUMPDEST PUSH0 PUSH1 0x8 DUP4 MUL PUSH2 0x1C49 PUSH32 0xFFFFFFFFFFFFFFFFFFFFFFFFFFFFFFFFFFFFFFFFFFFFFFFFFFFFFFFFFFFFFFFF DUP3 PUSH2 0x1C0E JUMP JUMPDEST PUSH2 0x1C53 DUP7 DUP4 PUSH2 0x1C0E JUMP JUMPDEST SWAP6 POP DUP1 NOT DUP5 AND SWAP4 POP DUP1 DUP7 AND DUP5 OR SWAP3 POP POP POP SWAP4 SWAP3 POP POP POP JUMP JUMPDEST PUSH0 DUP2 SWAP1 POP SWAP2 SWAP1 POP JUMP JUMPDEST PUSH0 DUP2 SWAP1 POP SWAP2 SWAP1 POP JUMP JUMPDEST PUSH0 PUSH2 0x1C97 PUSH2 0x1C92 PUSH2 0x1C8D DUP5 PUSH2 0x1C6B JUMP JUMPDEST PUSH2 0x1C74 JUMP JUMPDEST PUSH2 0x1C6B JUMP JUMPDEST SWAP1 POP SWAP2 SWAP1 POP JUMP JUMPDEST PUSH0 DUP2 SWAP1 POP SWAP2 SWAP1 POP JUMP JUMPDEST PUSH2 0x1CB0 DUP4 PUSH2 0x1C7D JUMP JUMPDEST PUSH2 0x1CC4 PUSH2 0x1CBC DUP3 PUSH2 0x1C9E JUMP JUMPDEST DUP5 DUP5 SLOAD PUSH2 0x1C1A JUMP JUMPDEST DUP3 SSTORE POP POP POP POP JUMP JUMPDEST PUSH0 PUSH0 SWAP1 POP SWAP1 JUMP JUMPDEST PUSH2 0x1CDB PUSH2 0x1CCC JUMP JUMPDEST PUSH2 0x1CE6 DUP2 DUP5 DUP5 PUSH2 0x1CA7 JUMP JUMPDEST POP POP POP JUMP JUMPDEST JUMPDEST DUP2 DUP2 LT ISZERO PUSH2 0x1D09 JUMPI PUSH2 0x1CFE PUSH0 DUP3 PUSH2 0x1CD3 JUMP JUMPDEST PUSH1 0x1 DUP2 ADD SWAP1 POP PUSH2 0x1CEC JUMP JUMPDEST POP POP JUMP JUMPDEST PUSH1 0x1F DUP3 GT ISZERO PUSH2 0x1D4E JUMPI PUSH2 0x1D1F DUP2 PUSH2 0x1BED JUMP JUMPDEST PUSH2 0x1D28 DUP5 PUSH2 0x1BFF JUMP JUMPDEST DUP2 ADD PUSH1 0x20 DUP6 LT ISZERO PUSH2 0x1D37 JUMPI DUP2 SWAP1 POP JUMPDEST PUSH2 0x1D4B PUSH2 0x1D43 DUP6 PUSH2 0x1BFF JUMP JUMPDEST DUP4 ADD DUP3 PUSH2 0x1CEB JUMP JUMPDEST POP POP JUMPDEST POP POP POP JUMP JUMPDEST PUSH0 DUP3 DUP3 SHR SWAP1 POP SWAP3 SWAP2 POP POP JUMP JUMPDEST PUSH0 PUSH2 0x1D6E PUSH0 NOT DUP5 PUSH1 0x8 MUL PUSH2 0x1D53 JUMP JUMPDEST NOT DUP1 DUP4 AND SWAP2 POP POP SWAP3 SWAP2 POP POP JUMP JUMPDEST PUSH0 PUSH2 0x1D86 DUP4 DUP4 PUSH2 0x1D5F JUMP JUMPDEST SWAP2 POP DUP3 PUSH1 0x2 MUL DUP3 OR SWAP1 POP SWAP3 SWAP2 POP POP JUMP JUMPDEST PUSH2 0x1D9F DUP3 PUSH2 0x186B JUMP JUMPDEST PUSH8 0xFFFFFFFFFFFFFFFF DUP2 GT ISZERO PUSH2 0x1DB8 JUMPI PUSH2 0x1DB7 PUSH2 0x1BC0 JUMP JUMPDEST JUMPDEST PUSH2 0x1DC2 DUP3 SLOAD PUSH2 0x1B90 JUMP JUMPDEST PUSH2 0x1DCD DUP3 DUP3 DUP6 PUSH2 0x1D0D JUMP JUMPDEST PUSH0 PUSH1 0x20 SWAP1 POP PUSH1 0x1F DUP4 GT PUSH1 0x1 DUP2 EQ PUSH2 0x1DFE JUMPI PUSH0 DUP5 ISZERO PUSH2 0x1DEC JUMPI DUP3 DUP8 ADD MLOAD SWAP1 POP JUMPDEST PUSH2 0x1DF6 DUP6 DUP3 PUSH2 0x1D7B JUMP JUMPDEST DUP7 SSTORE POP PUSH2 0x1E5D JUMP JUMPDEST PUSH1 0x1F NOT DUP5 AND PUSH2 0x1E0C DUP7 PUSH2 0x1BED JUMP JUMPDEST PUSH0 JUMPDEST DUP3 DUP2 LT ISZERO PUSH2 0x1E33 JUMPI DUP5 DUP10 ADD MLOAD DUP3 SSTORE PUSH1 0x1 DUP3 ADD SWAP2 POP PUSH1 0x20 DUP6 ADD SWAP5 POP PUSH1 0x20 DUP2 ADD SWAP1 POP PUSH2 0x1E0E JUMP JUMPDEST DUP7 DUP4 LT ISZERO PUSH2 0x1E50 JUMPI DUP5 DUP10 ADD MLOAD PUSH2 0x1E4C PUSH1 0x1F DUP10 AND DUP3 PUSH2 0x1D5F JUMP JUMPDEST DUP4 SSTORE POP JUMPDEST PUSH1 0x1 PUSH1 0x2 DUP9 MUL ADD DUP9 SSTORE POP POP POP JUMPDEST POP POP POP POP POP POP JUMP JUMPDEST DUP3 DUP2 DUP4 CALLDATACOPY PUSH0 DUP4 DUP4 ADD MSTORE POP POP POP JUMP JUMPDEST PUSH0 PUSH2 0x1E7E DUP4 DUP6 PUSH2 0x1875 JUMP JUMPDEST SWAP4 POP PUSH2 0x1E8B DUP4 DUP6 DUP5 PUSH2 0x1E65 JUMP JUMPDEST PUSH2 0x1E94 DUP4 PUSH2 0x1893 JUMP JUMPDEST DUP5 ADD SWAP1 POP SWAP4 SWAP3 POP POP POP JUMP JUMPDEST PUSH0 PUSH1 0x20 DUP3 ADD SWAP1 POP DUP2 DUP2 SUB PUSH0 DUP4 ADD MSTORE PUSH2 0x1EB8 DUP2 DUP5 DUP7 PUSH2 0x1E73 JUMP JUMPDEST SWAP1 POP SWAP4 SWAP3 POP POP POP JUMP JUMPDEST PUSH32 0x416363657373436F6E74726F6C3A2063616E206F6E6C792072656E6F756E6365 PUSH0 DUP3 ADD MSTORE PUSH32 0x20726F6C657320666F722073656C660000000000000000000000000000000000 PUSH1 0x20 DUP3 ADD MSTORE POP JUMP JUMPDEST PUSH0 PUSH2 0x1F1B PUSH1 0x2F DUP4 PUSH2 0x1875 JUMP JUMPDEST SWAP2 POP PUSH2 0x1F26 DUP3 PUSH2 0x1EC1 JUMP JUMPDEST PUSH1 0x40 DUP3 ADD SWAP1 POP SWAP2 SWAP1 POP JUMP JUMPDEST PUSH0 PUSH1 0x20 DUP3 ADD SWAP1 POP DUP2 DUP2 SUB PUSH0 DUP4 ADD MSTORE PUSH2 0x1F48 DUP2 PUSH2 0x1F0F JUMP JUMPDEST SWAP1 POP SWAP2 SWAP1 POP JUMP JUMPDEST PUSH0 PUSH1 0x40 DUP3 ADD SWAP1 POP DUP2 DUP2 SUB PUSH0 DUP4 ADD MSTORE PUSH2 0x1F68 DUP2 DUP6 DUP8 PUSH2 0x1E73 JUMP JUMPDEST SWAP1 POP PUSH2 0x1F77 PUSH1 0x20 DUP4 ADD DUP5 PUSH2 0x1732 JUMP JUMPDEST SWAP5 SWAP4 POP POP POP POP JUMP JUMPDEST PUSH32 0x416C726561647920617070726F76656400000000000000000000000000000000 PUSH0 DUP3 ADD MSTORE POP JUMP JUMPDEST PUSH0 PUSH2 0x1FB3 PUSH1 0x10 DUP4 PUSH2 0x1875 JUMP JUMPDEST SWAP2 POP PUSH2 0x1FBE DUP3 PUSH2 0x1F7F JUMP JUMPDEST PUSH1 0x20 DUP3 ADD SWAP1 POP SWAP2 SWAP1 POP JUMP JUMPDEST PUSH0 PUSH1 0x20 DUP3 ADD SWAP1 POP DUP2 DUP2 SUB PUSH0 DUP4 ADD MSTORE PUSH2 0x1FE0 DUP2 PUSH2 0x1FA7 JUMP JUMPDEST SWAP1 POP SWAP2 SWAP1 POP JUMP JUMPDEST PUSH0 DUP3 SWAP1 POP SWAP3 SWAP2 POP POP JUMP JUMPDEST PUSH2 0x1FFB DUP4 DUP4 PUSH2 0x1FE7 JUMP JUMPDEST PUSH8 0xFFFFFFFFFFFFFFFF DUP2 GT ISZERO PUSH2 0x2014 JUMPI PUSH2 0x2013 PUSH2 0x1BC0 JUMP JUMPDEST JUMPDEST PUSH2 0x201E DUP3 SLOAD PUSH2 0x1B90 JUMP JUMPDEST PUSH2 0x2029 DUP3 DUP3 DUP6 PUSH2 0x1D0D JUMP JUMPDEST PUSH0 PUSH1 0x1F DUP4 GT PUSH1 0x1 DUP2 EQ PUSH2 0x2056 JUMPI PUSH0 DUP5 ISZERO PUSH2 0x2044 JUMPI DUP3 DUP8 ADD CALLDATALOAD SWAP1 POP JUMPDEST PUSH2 0x204E DUP6 DUP3 PUSH2 0x1D7B JUMP JUMPDEST DUP7 SSTORE POP PUSH2 0x20B5 JUMP JUMPDEST PUSH1 0x1F NOT DUP5 AND PUSH2 0x2064 DUP7 PUSH2 0x1BED JUMP JUMPDEST PUSH0 JUMPDEST DUP3 DUP2 LT ISZERO PUSH2 0x208B JUMPI DUP5 DUP10 ADD CALLDATALOAD DUP3 SSTORE PUSH1 0x1 DUP3 ADD SWAP2 POP PUSH1 0x20 DUP6 ADD SWAP5 POP PUSH1 0x20 DUP2 ADD SWAP1 POP PUSH2 0x2066 JUMP JUMPDEST DUP7 DUP4 LT ISZERO PUSH2 0x20A8 JUMPI DUP5 DUP10 ADD CALLDATALOAD PUSH2 0x20A4 PUSH1 0x1F DUP10 AND DUP3 PUSH2 0x1D5F JUMP JUMPDEST DUP4 SSTORE POP JUMPDEST PUSH1 0x1 PUSH1 0x2 DUP9 MUL ADD DUP9 SSTORE POP POP POP JUMPDEST POP POP POP POP POP POP POP JUMP JUMPDEST PUSH32 0x4E6F7420617070726F7665642F70656E64696E67000000000000000000000000 PUSH0 DUP3 ADD MSTORE POP JUMP JUMPDEST PUSH0 PUSH2 0x20F2 PUSH1 0x14 DUP4 PUSH2 0x1875 JUMP JUMPDEST SWAP2 POP PUSH2 0x20FD DUP3 PUSH2 0x20BE JUMP JUMPDEST PUSH1 0x20 DUP3 ADD SWAP1 POP SWAP2 SWAP1 POP JUMP JUMPDEST PUSH0 PUSH1 0x20 DUP3 ADD SWAP1 POP DUP2 DUP2 SUB PUSH0 DUP4 ADD MSTORE PUSH2 0x211F DUP2 PUSH2 0x20E6 JUMP JUMPDEST SWAP1 POP SWAP2 SWAP1 POP JUMP JUMPDEST PUSH32 0x5061757361626C653A2070617573656400000000000000000000000000000000 PUSH0 DUP3 ADD MSTORE POP JUMP JUMPDEST PUSH0 PUSH2 0x215A PUSH1 0x10 DUP4 PUSH2 0x1875 JUMP JUMPDEST SWAP2 POP PUSH2 0x2165 DUP3 PUSH2 0x2126 JUMP JUMPDEST PUSH1 0x20 DUP3 ADD SWAP1 POP SWAP2 SWAP1 POP JUMP JUMPDEST PUSH0 PUSH1 0x20 DUP3 ADD SWAP1 POP DUP2 DUP2 SUB PUSH0 DUP4 ADD MSTORE PUSH2 0x2187 DUP2 PUSH2 0x214E JUMP JUMPDEST SWAP1 POP SWAP2 SWAP1 POP JUMP JUMPDEST PUSH2 0x2197 DUP2 PUSH2 0x1779 JUMP JUMPDEST DUP3 MSTORE POP POP JUMP JUMPDEST PUSH0 PUSH1 0x20 DUP3 ADD SWAP1 POP PUSH2 0x21B0 PUSH0 DUP4 ADD DUP5 PUSH2 0x218E JUMP JUMPDEST SWAP3 SWAP2 POP POP JUMP JUMPDEST PUSH0 DUP2 SWAP1 POP SWAP3 SWAP2 POP POP JUMP JUMPDEST PUSH32 0x416363657373436F6E74726F6C3A206163636F756E7420000000000000000000 PUSH0 DUP3 ADD MSTORE POP JUMP JUMPDEST PUSH0 PUSH2 0x21F4 PUSH1 0x17 DUP4 PUSH2 0x21B6 JUMP JUMPDEST SWAP2 POP PUSH2 0x21FF DUP3 PUSH2 0x21C0 JUMP JUMPDEST PUSH1 0x17 DUP3 ADD SWAP1 POP SWAP2 SWAP1 POP JUMP JUMPDEST PUSH0 PUSH2 0x2214 DUP3 PUSH2 0x186B JUMP JUMPDEST PUSH2 0x221E DUP2 DUP6 PUSH2 0x21B6 JUMP JUMPDEST SWAP4 POP PUSH2 0x222E DUP2 DUP6 PUSH1 0x20 DUP7 ADD PUSH2 0x1885 JUMP JUMPDEST DUP1 DUP5 ADD SWAP2 POP POP SWAP3 SWAP2 POP POP JUMP JUMPDEST PUSH32 0x206973206D697373696E6720726F6C6520000000000000000000000000000000 PUSH0 DUP3 ADD MSTORE POP JUMP JUMPDEST PUSH0 PUSH2 0x226E PUSH1 0x11 DUP4 PUSH2 0x21B6 JUMP JUMPDEST SWAP2 POP PUSH2 0x2279 DUP3 PUSH2 0x223A JUMP JUMPDEST PUSH1 0x11 DUP3 ADD SWAP1 POP SWAP2 SWAP1 POP JUMP JUMPDEST PUSH0 PUSH2 0x228E DUP3 PUSH2 0x21E8 JUMP JUMPDEST SWAP2 POP PUSH2 0x229A DUP3 DUP6 PUSH2 0x220A JUMP JUMPDEST SWAP2 POP PUSH2 0x22A5 DUP3 PUSH2 0x2262 JUMP JUMPDEST SWAP2 POP PUSH2 0x22B1 DUP3 DUP5 PUSH2 0x220A JUMP JUMPDEST SWAP2 POP DUP2 SWAP1 POP SWAP4 SWAP3 POP POP POP JUMP JUMPDEST PUSH32 0x5061757361626C653A206E6F7420706175736564000000000000000000000000 PUSH0 DUP3 ADD MSTORE POP JUMP JUMPDEST PUSH0 PUSH2 0x22F1 PUSH1 0x14 DUP4 PUSH2 0x1875 JUMP JUMPDEST SWAP2 POP PUSH2 0x22FC DUP3 PUSH2 0x22BD JUMP JUMPDEST PUSH1 0x20 DUP3 ADD SWAP1 POP SWAP2 SWAP1 POP JUMP JUMPDEST PUSH0 PUSH1 0x20 DUP3 ADD SWAP1 POP DUP2 DUP2 SUB PUSH0 DUP4 ADD MSTORE PUSH2 0x231E DUP2 PUSH2 0x22E5 JUMP JUMPDEST SWAP1 POP SWAP2 SWAP1 POP JUMP JUMPDEST PUSH32 0x4E487B7100000000000000000000000000000000000000000000000000000000 PUSH0 MSTORE PUSH1 0x11 PUSH1 0x4 MSTORE PUSH1 0x24 PUSH0 REVERT JUMPDEST PUSH0 PUSH2 0x235C DUP3 PUSH2 0x1C6B JUMP JUMPDEST SWAP2 POP PUSH2 0x2367 DUP4 PUSH2 0x1C6B JUMP JUMPDEST SWAP3 POP DUP3 DUP3 MUL PUSH2 0x2375 DUP2 PUSH2 0x1C6B JUMP JUMPDEST SWAP2 POP DUP3 DUP3 DIV DUP5 EQ DUP4 ISZERO OR PUSH2 0x238C JUMPI PUSH2 0x238B PUSH2 0x2325 JUMP JUMPDEST JUMPDEST POP SWAP3 SWAP2 POP POP JUMP JUMPDEST PUSH0 PUSH2 0x239D DUP3 PUSH2 0x1C6B JUMP JUMPDEST SWAP2 POP PUSH2 0x23A8 DUP4 PUSH2 0x1C6B JUMP JUMPDEST SWAP3 POP DUP3 DUP3 ADD SWAP1 POP DUP1 DUP3 GT ISZERO PUSH2 0x23C0 JUMPI PUSH2 0x23BF PUSH2 0x2325 JUMP JUMPDEST JUMPDEST SWAP3 SWAP2 POP POP JUMP JUMPDEST PUSH32 0x4E487B7100000000000000000000000000000000000000000000000000000000 PUSH0 MSTORE PUSH1 0x32 PUSH1 0x4 MSTORE PUSH1 0x24 PUSH0 REVERT JUMPDEST PUSH0 PUSH2 0x23FD DUP3 PUSH2 0x1C6B JUMP JUMPDEST SWAP2 POP PUSH0 DUP3 SUB PUSH2 0x240F JUMPI PUSH2 0x240E PUSH2 0x2325 JUMP JUMPDEST JUMPDEST PUSH1 0x1 DUP3 SUB SWAP1 POP SWAP2 SWAP1 POP JUMP JUMPDEST PUSH32 0x537472696E67733A20686578206C656E67746820696E73756666696369656E74 PUSH0 DUP3 ADD MSTORE POP JUMP JUMPDEST PUSH0 PUSH2 0x244E PUSH1 0x20 DUP4 PUSH2 0x1875 JUMP JUMPDEST SWAP2 POP PUSH2 0x2459 DUP3 PUSH2 0x241A JUMP JUMPDEST PUSH1 0x20 DUP3 ADD SWAP1 POP SWAP2 SWAP1 POP JUMP JUMPDEST PUSH0 PUSH1 0x20 DUP3 ADD SWAP1 POP DUP2 DUP2 SUB PUSH0 DUP4 ADD MSTORE PUSH2 0x247B DUP2 PUSH2 0x2442 JUMP JUMPDEST SWAP1 POP SWAP2 SWAP1 POP JUMP INVALID LOG2 PUSH5 0x6970667358 0x22 SLT KECCAK256 DUPN 0x60 0xBA 0xAF 0xCF NUMBER 0x1F SWAP5 SWAP4 0x29 0x21 DUP1 PUSH8 0x56C308C8949F3665 LOG0 GAS SWAP1 0xC2 0x1F LOG3 0xC9 0xDF EXTCODESIZE PUSH20 0x2564736F6C634300081E00330000000000000000 "
				},
				"gasEstimates": {
					"creation": {
						"codeDepositCost": "1880000",
						"executionCost": "infinite",
						"totalCost": "infinite"
					},
					"external": {
						"DEFAULT_ADMIN_ROLE()": "462",
						"VERIFIER_ROLE()": "435",
						"addVerifier(address)": "infinite",
						"approveLawyer(address,string)": "infinite",
						"getRoleAdmin(bytes32)": "infinite",
						"grantRole(bytes32,address)": "infinite",
						"hasRole(bytes32,address)": "3231",
						"isJudge(address)": "3065",
						"isLawyer(address)": "3044",
						"judgeProfileURI(address)": "infinite",
						"judgeStatus(address)": "3009",
						"lawyerProfileURI(address)": "infinite",
						"lawyerStatus(address)": "3008",
						"pause()": "infinite",
						"paused()": "2606",
						"removeVerifier(address)": "infinite",
						"renounceRole(bytes32,address)": "infinite",
						"requestLawyerVerification(string)": "infinite",
						"revokeLawyer(address)": "infinite",
						"revokeRole(bytes32,address)": "infinite",
						"setJudge(address,string,bool)": "infinite",
						"supportsInterface(bytes4)": "741",
						"unpause()": "infinite"
					}
				},
				"methodIdentifiers": {
					"DEFAULT_ADMIN_ROLE()": "a217fddf",
					"VERIFIER_ROLE()": "e7705db6",
					"addVerifier(address)": "9000b3d6",
					"approveLawyer(address,string)": "2db9fc5f",
					"getRoleAdmin(bytes32)": "248a9ca3",
					"grantRole(bytes32,address)": "2f2ff15d",
					"hasRole(bytes32,address)": "91d14854",
					"isJudge(address)": "ed896d66",
					"isLawyer(address)": "5939a84e",
					"judgeProfileURI(address)": "3e277782",
					"judgeStatus(address)": "16fbabca",
					"lawyerProfileURI(address)": "18ff1103",
					"lawyerStatus(address)": "78213c25",
					"pause()": "8456cb59",
					"paused()": "5c975abb",
					"removeVerifier(address)": "ca2dfd0a",
					"renounceRole(bytes32,address)": "36568abe",
					"requestLawyerVerification(string)": "c4eab79b",
					"revokeLawyer(address)": "d28eaf85",
					"revokeRole(bytes32,address)": "d547741f",
					"setJudge(address,string,bool)": "74bc116e",
					"supportsInterface(bytes4)": "01ffc9a7",
					"unpause()": "3f4ba83a"
				}
			},
			"storageLayout": {
				"storage": [
					{
						"astId": 24,
						"contract": "contracts/ReadyRoles.sol:ReadyRoles",
						"label": "_roles",
						"offset": 0,
						"slot": "0",
						"type": "t_mapping(t_bytes32,t_struct(RoleData)19_storage)"
					},
					{
						"astId": 406,
						"contract": "contracts/ReadyRoles.sol:ReadyRoles",
						"label": "_paused",
						"offset": 0,
						"slot": "1",
						"type": "t_bool"
					},
					{
						"astId": 1789,
						"contract": "contracts/ReadyRoles.sol:ReadyRoles",
						"label": "_lawyers",
						"offset": 0,
						"slot": "2",
						"type": "t_mapping(t_address,t_struct(Practitioner)1784_storage)"
					},
					{
						"astId": 1794,
						"contract": "contracts/ReadyRoles.sol:ReadyRoles",
						"label": "_judges",
						"offset": 0,
						"slot": "3",
						"type": "t_mapping(t_address,t_struct(Practitioner)1784_storage)"
					}
				],
				"types": {
					"t_address": {
						"encoding": "inplace",
						"label": "address",
						"numberOfBytes": "20"
					},
					"t_bool": {
						"encoding": "inplace",
						"label": "bool",
						"numberOfBytes": "1"
					},
					"t_bytes32": {
						"encoding": "inplace",
						"label": "bytes32",
						"numberOfBytes": "32"
					},
					"t_enum(Status)2133": {
						"encoding": "inplace",
						"label": "enum ILegalPractitionerRegistry.Status",
						"numberOfBytes": "1"
					},
					"t_mapping(t_address,t_bool)": {
						"encoding": "mapping",
						"key": "t_address",
						"label": "mapping(address => bool)",
						"numberOfBytes": "32",
						"value": "t_bool"
					},
					"t_mapping(t_address,t_struct(Practitioner)1784_storage)": {
						"encoding": "mapping",
						"key": "t_address",
						"label": "mapping(address => struct ReadyRoles.Practitioner)",
						"numberOfBytes": "32",
						"value": "t_struct(Practitioner)1784_storage"
					},
					"t_mapping(t_bytes32,t_struct(RoleData)19_storage)": {
						"encoding": "mapping",
						"key": "t_bytes32",
						"label": "mapping(bytes32 => struct AccessControl.RoleData)",
						"numberOfBytes": "32",
						"value": "t_struct(RoleData)19_storage"
					},
					"t_string_storage": {
						"encoding": "bytes",
						"label": "string",
						"numberOfBytes": "32"
					},
					"t_struct(Practitioner)1784_storage": {
						"encoding": "inplace",
						"label": "struct ReadyRoles.Practitioner",
						"members": [
							{
								"astId": 1781,
								"contract": "contracts/ReadyRoles.sol:ReadyRoles",
								"label": "status",
								"offset": 0,
								"slot": "0",
								"type": "t_enum(Status)2133"
							},
							{
								"astId": 1783,
								"contract": "contracts/ReadyRoles.sol:ReadyRoles",
								"label": "profileURI",
								"offset": 0,
								"slot": "1",
								"type": "t_string_storage"
							}
						],
						"numberOfBytes": "64"
					},
					"t_struct(RoleData)19_storage": {
						"encoding": "inplace",
						"label": "struct AccessControl.RoleData",
						"members": [
							{
								"astId": 16,
								"contract": "contracts/ReadyRoles.sol:ReadyRoles",
								"label": "members",
								"offset": 0,
								"slot": "0",
								"type": "t_mapping(t_address,t_bool)"
							},
							{
								"astId": 18,
								"contract": "contracts/ReadyRoles.sol:ReadyRoles",
								"label": "adminRole",
								"offset": 0,
								"slot": "1",
								"type": "t_bytes32"
							}
						],
						"numberOfBytes": "64"
					}
				}
			},
			"userdoc": {
				"kind": "user",
				"methods": {},
				"version": 1
			}
		}
	}
}