{
	"contracts/ReadyListings.sol": {
		"ReadyListings": {
			"abi": [
				{
					"inputs": [
						{
							"internalType": "address",
							"name": "admin",
							"type": "address"
						},
						{
							"internalType": "address",
							"name": "registryAddress",
							"type": "address"
						}
					],
					"stateMutability": "nonpayable",
					"type": "constructor"
				},
				{
					"anonymous": false,
					"inputs": [
						{
							"indexed": true,
							"internalType": "bytes32",
							"name": "signalId",
							"type": "bytes32"
						}
					],
					"name": "CaseSignalClosed",
					"type": "event"
				},
				{
					"anonymous": false,
					"inputs": [
						{
							"indexed": true,
							"internalType": "bytes32",
							"name": "signalId",
							"type": "bytes32"
						},
						{
							"indexed": true,
							"internalType": "address",
							"name": "client",
							"type": "address"
						},
						{
							"indexed": false,
							"internalType": "string",
							"name": "caseURI",
							"type": "string"
						},
						{
							"indexed": false,
							"internalType": "uint256",
							"name": "budgetMin",
							"type": "uint256"
						},
						{
							"indexed": false,
							"internalType": "uint256",
							"name": "budgetMax",
							"type": "uint256"
						},
						{
							"indexed": false,
							"internalType": "string[]",
							"name": "tags",
							"type": "string[]"
						}
					],
					"name": "CaseSignalCreated",
					"type": "event"
				},
				{
					"anonymous": false,
					"inputs": [
						{
							"indexed": true,
							"internalType": "address",
							"name": "lawyer",
							"type": "address"
						}
					],
					"name": "LawyerListingRemoved",
					"type": "event"
				},
				{
					"anonymous": false,
					"inputs": [
						{
							"indexed": true,
							"internalType": "address",
							"name": "lawyer",
							"type": "address"
						},
						{
							"indexed": false,
							"internalType": "string",
							"name": "profileURI",
							"type": "string"
						},
						{
							"indexed": false,
							"internalType": "uint256",
							"name": "hourlyRate",
							"type": "uint256"
						},
						{
							"indexed": false,
							"internalType": "string[]",
							"name": "tags",
							"type": "string[]"
						}
					],
					"name": "LawyerListingUpserted",
					"type": "event"
				},
				{
					"anonymous": false,
					"inputs": [
						{
							"indexed": false,
							"internalType": "address",
							"name": "account",
							"type": "address"
						}
					],
					"name": "Paused",
					"type": "event"
				},
				{
					"anonymous": false,
					"inputs": [
						{
							"indexed": true,
							"internalType": "bytes32",
							"name": "role",
							"type": "bytes32"
						},
						{
							"indexed": true,
							"internalType": "bytes32",
							"name": "previousAdminRole",
							"type": "bytes32"
						},
						{
							"indexed": true,
							"internalType": "bytes32",
							"name": "newAdminRole",
							"type": "bytes32"
						}
					],
					"name": "RoleAdminChanged",
					"type": "event"
				},
				{
					"anonymous": false,
					"inputs": [
						{
							"indexed": true,
							"internalType": "bytes32",
							"name": "role",
							"type": "bytes32"
						},
						{
							"indexed": true,
							"internalType": "address",
							"name": "account",
							"type": "address"
						},
						{
							"indexed": true,
							"internalType": "address",
							"name": "sender",
							"type": "address"
						}
					],
					"name": "RoleGranted",
					"type": "event"
				},
				{
					"anonymous": false,
					"inputs": [
						{
							"indexed": true,
							"internalType": "bytes32",
							"name": "role",
							"type": "bytes32"
						},
						{
							"indexed": true,
							"internalType": "address",
							"name": "account",
							"type": "address"
						},
						{
							"indexed": true,
							"internalType": "address",
							"name": "sender",
							"type": "address"
						}
					],
					"name": "RoleRevoked",
					"type": "event"
				},
				{
					"anonymous": false,
					"inputs": [
						{
							"indexed": false,
							"internalType": "address",
							"name": "account",
							"type": "address"
						}
					],
					"name": "Unpaused",
					"type": "event"
				},
				{
					"inputs": [],
					"name": "DEFAULT_ADMIN_ROLE",
					"outputs": [
						{
							"internalType": "bytes32",
							"name": "",
							"type": "bytes32"
						}
					],
					"stateMutability": "view",
					"type": "function"
				},
				{
					"inputs": [],
					"name": "OPERATOR_ROLE",
					"outputs": [
						{
							"internalType": "bytes32",
							"name": "",
							"type": "bytes32"
						}
					],
					"stateMutability": "view",
					"type": "function"
				},
				{
					"inputs": [
						{
							"internalType": "bytes32",
							"name": "signalId",
							"type": "bytes32"
						}
					],
					"name": "caseSignalClient",
					"outputs": [
						{
							"internalType": "address",
							"name": "",
							"type": "address"
						}
					],
					"stateMutability": "view",
					"type": "function"
				},
				{
					"inputs": [
						{
							"internalType": "bytes32",
							"name": "signalId",
							"type": "bytes32"
						}
					],
					"name": "closeCaseSignal",
					"outputs": [],
					"stateMutability": "nonpayable",
					"type": "function"
				},
				{
					"inputs": [
						{
							"internalType": "bytes32",
							"name": "signalId",
							"type": "bytes32"
						},
						{
							"internalType": "string",
							"name": "caseURI",
							"type": "string"
						},
						{
							"internalType": "uint256",
							"name": "budgetMin",
							"type": "uint256"
						},
						{
							"internalType": "uint256",
							"name": "budgetMax",
							"type": "uint256"
						},
						{
							"internalType": "string[]",
							"name": "tags",
							"type": "string[]"
						}
					],
					"name": "createCaseSignal",
					"outputs": [],
					"stateMutability": "nonpayable",
					"type": "function"
				},
				{
					"inputs": [
						{
							"internalType": "bytes32",
							"name": "role",
							"type": "bytes32"
						}
					],
					"name": "getRoleAdmin",
					"outputs": [
						{
							"internalType": "bytes32",
							"name": "",
							"type": "bytes32"
						}
					],
					"stateMutability": "view",
					"type": "function"
				},
				{
					"inputs": [
						{
							"internalType": "bytes32",
							"name": "role",
							"type": "bytes32"
						},
						{
							"internalType": "address",
							"name": "account",
							"type": "address"
						}
					],
					"name": "grantRole",
					"outputs": [],
					"stateMutability": "nonpayable",
					"type": "function"
				},
				{
					"inputs": [
						{
							"internalType": "address",
							"name": "lawyer",
							"type": "address"
						}
					],
					"name": "hasLawyerListing",
					"outputs": [
						{
							"internalType": "bool",
							"name": "",
							"type": "bool"
						}
					],
					"stateMutability": "view",
					"type": "function"
				},
				{
					"inputs": [
						{
							"internalType": "bytes32",
							"name": "role",
							"type": "bytes32"
						},
						{
							"internalType": "address",
							"name": "account",
							"type": "address"
						}
					],
					"name": "hasRole",
					"outputs": [
						{
							"internalType": "bool",
							"name": "",
							"type": "bool"
						}
					],
					"stateMutability": "view",
					"type": "function"
				},
				{
					"inputs": [],
					"name": "pause",
					"outputs": [],
					"stateMutability": "nonpayable",
					"type": "function"
				},
				{
					"inputs": [],
					"name": "paused",
					"outputs": [
						{
							"internalType": "bool",
							"name": "",
							"type": "bool"
						}
					],
					"stateMutability": "view",
					"type": "function"
				},
				{
					"inputs": [],
					"name": "registry",
					"outputs": [
						{
							"internalType": "contract ILegalPractitionerRegistry",
							"name": "",
							"type": "address"
						}
					],
					"stateMutability": "view",
					"type": "function"
				},
				{
					"inputs": [],
					"name": "removeLawyerListing",
					"outputs": [],
					"stateMutability": "nonpayable",
					"type": "function"
				},
				{
					"inputs": [
						{
							"internalType": "bytes32",
							"name": "role",
							"type": "bytes32"
						},
						{
							"internalType": "address",
							"name": "account",
							"type": "address"
						}
					],
					"name": "renounceRole",
					"outputs": [],
					"stateMutability": "nonpayable",
					"type": "function"
				},
				{
					"inputs": [
						{
							"internalType": "bytes32",
							"name": "role",
							"type": "bytes32"
						},
						{
							"internalType": "address",
							"name": "account",
							"type": "address"
						}
					],
					"name": "revokeRole",
					"outputs": [],
					"stateMutability": "nonpayable",
					"type": "function"
				},
				{
					"inputs": [
						{
							"internalType": "address",
							"name": "account",
							"type": "address"
						},
						{
							"internalType": "bool",
							"name": "ok",
							"type": "bool"
						}
					],
					"name": "setOperator",
					"outputs": [],
					"stateMutability": "nonpayable",
					"type": "function"
				},
				{
					"inputs": [
						{
							"internalType": "bytes4",
							"name": "interfaceId",
							"type": "bytes4"
						}
					],
					"name": "supportsInterface",
					"outputs": [
						{
							"internalType": "bool",
							"name": "",
							"type": "bool"
						}
					],
					"stateMutability": "view",
					"type": "function"
				},
				{
					"inputs": [],
					"name": "unpause",
					"outputs": [],
					"stateMutability": "nonpayable",
					"type": "function"
				},
				{
					"inputs": [
						{
							"internalType": "string",
							"name": "profileURI",
							"type": "string"
						},
						{
							"internalType": "uint256",
							"name": "hourlyRate",
							"type": "uint256"
						},
						{
							"internalType": "string[]",
							"name": "tags",
							"type": "string[]"
						}
					],
					"name": "upsertLawyerListing",
					"outputs": [],
					"stateMutability": "nonpayable",
					"type": "function"
				}
			],
			"devdoc": {
				"events": {
					"Paused(address)": {
						"details": "Emitted when the pause is triggered by `account`."
					},
					"RoleAdminChanged(bytes32,bytes32,bytes32)": {
						"details": "Emitted when `newAdminRole` is set as ``role``'s admin role, replacing `previousAdminRole` `DEFAULT_ADMIN_ROLE` is the starting admin for all roles, despite {RoleAdminChanged} not being emitted signaling this. _Available since v3.1._"
					},
					"RoleGranted(bytes32,address,address)": {
						"details": "Emitted when `account` is granted `role`. `sender` is the account that originated the contract call, an admin role bearer except when using {AccessControl-_setupRole}."
					},
					"RoleRevoked(bytes32,address,address)": {
						"details": "Emitted when `account` is revoked `role`. `sender` is the account that originated the contract call:   - if using `revokeRole`, it is the admin role bearer   - if using `renounceRole`, it is the role bearer (i.e. `account`)"
					},
					"Unpaused(address)": {
						"details": "Emitted when the pause is lifted by `account`."
					}
				},
				"kind": "dev",
				"methods": {
					"getRoleAdmin(bytes32)": {
						"details": "Returns the admin role that controls `role`. See {grantRole} and {revokeRole}. To change a role's admin, use {_setRoleAdmin}."
					},
					"grantRole(bytes32,address)": {
						"details": "Grants `role` to `account`. If `account` had not been already granted `role`, emits a {RoleGranted} event. Requirements: - the caller must have ``role``'s admin role. May emit a {RoleGranted} event."
					},
					"hasRole(bytes32,address)": {
						"details": "Returns `true` if `account` has been granted `role`."
					},
					"paused()": {
						"details": "Returns true if the contract is paused, and false otherwise."
					},
					"renounceRole(bytes32,address)": {
						"details": "Revokes `role` from the calling account. Roles are often managed via {grantRole} and {revokeRole}: this function's purpose is to provide a mechanism for accounts to lose their privileges if they are compromised (such as when a trusted device is misplaced). If the calling account had been revoked `role`, emits a {RoleRevoked} event. Requirements: - the caller must be `account`. May emit a {RoleRevoked} event."
					},
					"revokeRole(bytes32,address)": {
						"details": "Revokes `role` from `account`. If `account` had been granted `role`, emits a {RoleRevoked} event. Requirements: - the caller must have ``role``'s admin role. May emit a {RoleRevoked} event."
					},
					"supportsInterface(bytes4)": {
						"details": "See {IERC165-supportsInterface}."
					}
				},
				"version": 1
			},
			"evm": {
				"assembly": "    /* \"contracts/ReadyListings.sol\":298:3280  contract ReadyListings is IReadyListings, AccessControl, Pausable {... */\n  mstore(0x40, 0xa0)\n    /* \"contracts/ReadyListings.sol\":812:1028  constructor(address admin, address registryAddress) {... */\n  callvalue\n  dup1\n  iszero\n  tag_1\n  jumpi\n  revert(0x00, 0x00)\ntag_1:\n  pop\n  mload(0x40)\n  sub(codesize, bytecodeSize)\n  dup1\n  bytecodeSize\n  dup4\n  codecopy\n  dup2\n  dup2\n  add\n  0x40\n  mstore\n  dup2\n  add\n  swap1\n  tag_2\n  swap2\n  swap1\n  tag_3\n  jump\t// in\ntag_2:\n    /* \"@openzeppelin/contracts@4.9.6/security/Pausable.sol\":1006:1011  false */\n  0x00\n    /* \"@openzeppelin/contracts@4.9.6/security/Pausable.sol\":996:1003  _paused */\n  0x01\n  0x00\n    /* \"@openzeppelin/contracts@4.9.6/security/Pausable.sol\":996:1011  _paused = false */\n  0x0100\n  exp\n  dup2\n  sload\n  dup2\n  0xff\n  mul\n  not\n  and\n  swap1\n  dup4\n  iszero\n  iszero\n  mul\n  or\n  swap1\n  sstore\n  pop\n    /* \"contracts/ReadyListings.sol\":875:912  _grantRole(DEFAULT_ADMIN_ROLE, admin) */\n  tag_8\n    /* \"@openzeppelin/contracts@4.9.6/access/AccessControl.sol\":2198:2202  0x00 */\n  0x00\n    /* \"contracts/ReadyListings.sol\":886:904  DEFAULT_ADMIN_ROLE */\n  0x00\n  shl\n    /* \"contracts/ReadyListings.sol\":906:911  admin */\n  dup4\n    /* \"contracts/ReadyListings.sol\":875:885  _grantRole */\n  shl(0x20, tag_9)\n    /* \"contracts/ReadyListings.sol\":875:912  _grantRole(DEFAULT_ADMIN_ROLE, admin) */\n  0x20\n  shr\n  jump\t// in\ntag_8:\n    /* \"contracts/ReadyListings.sol\":923:955  _grantRole(OPERATOR_ROLE, admin) */\n  tag_10\n    /* \"contracts/ReadyListings.sol\":472:498  keccak256(\"OPERATOR_ROLE\") */\n  0x97667070c54ef182b0f5858b034beac1b6f3089aa2d3188bb1e8929f4fa9b929\n    /* \"contracts/ReadyListings.sol\":949:954  admin */\n  dup4\n    /* \"contracts/ReadyListings.sol\":923:933  _grantRole */\n  shl(0x20, tag_9)\n    /* \"contracts/ReadyListings.sol\":923:955  _grantRole(OPERATOR_ROLE, admin) */\n  0x20\n  shr\n  jump\t// in\ntag_10:\n    /* \"contracts/ReadyListings.sol\":1004:1019  registryAddress */\n  dup1\n    /* \"contracts/ReadyListings.sol\":966:1020  registry = ILegalPractitionerRegistry(registryAddress) */\n  0xffffffffffffffffffffffffffffffffffffffff\n  and\n  0x80\n  dup2\n  0xffffffffffffffffffffffffffffffffffffffff\n  and\n  dup2\n  mstore\n  pop\n  pop\n    /* \"contracts/ReadyListings.sol\":812:1028  constructor(address admin, address registryAddress) {... */\n  pop\n  pop\n    /* \"contracts/ReadyListings.sol\":298:3280  contract ReadyListings is IReadyListings, AccessControl, Pausable {... */\n  jump(tag_11)\n    /* \"@openzeppelin/contracts@4.9.6/access/AccessControl.sol\":7587:7820  function _grantRole(bytes32 role, address account) internal virtual {... */\ntag_9:\n    /* \"@openzeppelin/contracts@4.9.6/access/AccessControl.sol\":7670:7692  hasRole(role, account) */\n  tag_13\n    /* \"@openzeppelin/contracts@4.9.6/access/AccessControl.sol\":7678:7682  role */\n  dup3\n    /* \"@openzeppelin/contracts@4.9.6/access/AccessControl.sol\":7684:7691  account */\n  dup3\n    /* \"@openzeppelin/contracts@4.9.6/access/AccessControl.sol\":7670:7677  hasRole */\n  shl(0x20, tag_14)\n    /* \"@openzeppelin/contracts@4.9.6/access/AccessControl.sol\":7670:7692  hasRole(role, account) */\n  0x20\n  shr\n  jump\t// in\ntag_13:\n    /* \"@openzeppelin/contracts@4.9.6/access/AccessControl.sol\":7665:7814  if (!hasRole(role, account)) {... */\n  tag_15\n  jumpi\n    /* \"@openzeppelin/contracts@4.9.6/access/AccessControl.sol\":7740:7744  true */\n  0x01\n    /* \"@openzeppelin/contracts@4.9.6/access/AccessControl.sol\":7708:7714  _roles */\n  0x00\n    /* \"@openzeppelin/contracts@4.9.6/access/AccessControl.sol\":7708:7720  _roles[role] */\n  0x00\n    /* \"@openzeppelin/contracts@4.9.6/access/AccessControl.sol\":7715:7719  role */\n  dup5\n    /* \"@openzeppelin/contracts@4.9.6/access/AccessControl.sol\":7708:7720  _roles[role] */\n  dup2\n  mstore\n  0x20\n  add\n  swap1\n  dup2\n  mstore\n  0x20\n  add\n  0x00\n  keccak256\n    /* \"@openzeppelin/contracts@4.9.6/access/AccessControl.sol\":7708:7728  _roles[role].members */\n  0x00\n  add\n    /* \"@openzeppelin/contracts@4.9.6/access/AccessControl.sol\":7708:7737  _roles[role].members[account] */\n  0x00\n    /* \"@openzeppelin/contracts@4.9.6/access/AccessControl.sol\":7729:7736  account */\n  dup4\n    /* \"@openzeppelin/contracts@4.9.6/access/AccessControl.sol\":7708:7737  _roles[role].members[account] */\n  0xffffffffffffffffffffffffffffffffffffffff\n  and\n  0xffffffffffffffffffffffffffffffffffffffff\n  and\n  dup2\n  mstore\n  0x20\n  add\n  swap1\n  dup2\n  mstore\n  0x20\n  add\n  0x00\n  keccak256\n  0x00\n    /* \"@openzeppelin/contracts@4.9.6/access/AccessControl.sol\":7708:7744  _roles[role].members[account] = true */\n  0x0100\n  exp\n  dup2\n  sload\n  dup2\n  0xff\n  mul\n  not\n  and\n  swap1\n  dup4\n  iszero\n  iszero\n  mul\n  or\n  swap1\n  sstore\n  pop\n    /* \"@openzeppelin/contracts@4.9.6/access/AccessControl.sol\":7790:7802  _msgSender() */\n  tag_16\n    /* \"@openzeppelin/contracts@4.9.6/access/AccessControl.sol\":7790:7800  _msgSender */\n  shl(0x20, tag_17)\n    /* \"@openzeppelin/contracts@4.9.6/access/AccessControl.sol\":7790:7802  _msgSender() */\n  0x20\n  shr\n  jump\t// in\ntag_16:\n    /* \"@openzeppelin/contracts@4.9.6/access/AccessControl.sol\":7763:7803  RoleGranted(role, account, _msgSender()) */\n  0xffffffffffffffffffffffffffffffffffffffff\n  and\n    /* \"@openzeppelin/contracts@4.9.6/access/AccessControl.sol\":7781:7788  account */\n  dup2\n    /* \"@openzeppelin/contracts@4.9.6/access/AccessControl.sol\":7763:7803  RoleGranted(role, account, _msgSender()) */\n  0xffffffffffffffffffffffffffffffffffffffff\n  and\n    /* \"@openzeppelin/contracts@4.9.6/access/AccessControl.sol\":7775:7779  role */\n  dup4\n    /* \"@openzeppelin/contracts@4.9.6/access/AccessControl.sol\":7763:7803  RoleGranted(role, account, _msgSender()) */\n  0x2f8788117e7eff1d82e926ec794901d17c78024a50270940304540a733656f0d\n  mload(0x40)\n  mload(0x40)\n  dup1\n  swap2\n  sub\n  swap1\n  log4\n    /* \"@openzeppelin/contracts@4.9.6/access/AccessControl.sol\":7665:7814  if (!hasRole(role, account)) {... */\ntag_15:\n    /* \"@openzeppelin/contracts@4.9.6/access/AccessControl.sol\":7587:7820  function _grantRole(bytes32 role, address account) internal virtual {... */\n  pop\n  pop\n  jump\t// out\n    /* \"@openzeppelin/contracts@4.9.6/access/AccessControl.sol\":3021:3166  function hasRole(bytes32 role, address account) public view virtual override returns (bool) {... */\ntag_14:\n    /* \"@openzeppelin/contracts@4.9.6/access/AccessControl.sol\":3107:3111  bool */\n  0x00\n    /* \"@openzeppelin/contracts@4.9.6/access/AccessControl.sol\":3130:3136  _roles */\n  0x00\n    /* \"@openzeppelin/contracts@4.9.6/access/AccessControl.sol\":3130:3142  _roles[role] */\n  0x00\n    /* \"@openzeppelin/contracts@4.9.6/access/AccessControl.sol\":3137:3141  role */\n  dup5\n    /* \"@openzeppelin/contracts@4.9.6/access/AccessControl.sol\":3130:3142  _roles[role] */\n  dup2\n  mstore\n  0x20\n  add\n  swap1\n  dup2\n  mstore\n  0x20\n  add\n  0x00\n  keccak256\n    /* \"@openzeppelin/contracts@4.9.6/access/AccessControl.sol\":3130:3150  _roles[role].members */\n  0x00\n  add\n    /* \"@openzeppelin/contracts@4.9.6/access/AccessControl.sol\":3130:3159  _roles[role].members[account] */\n  0x00\n    /* \"@openzeppelin/contracts@4.9.6/access/AccessControl.sol\":3151:3158  account */\n  dup4\n    /* \"@openzeppelin/contracts@4.9.6/access/AccessControl.sol\":3130:3159  _roles[role].members[account] */\n  0xffffffffffffffffffffffffffffffffffffffff\n  and\n  0xffffffffffffffffffffffffffffffffffffffff\n  and\n  dup2\n  mstore\n  0x20\n  add\n  swap1\n  dup2\n  mstore\n  0x20\n  add\n  0x00\n  keccak256\n  0x00\n  swap1\n  sload\n  swap1\n  0x0100\n  exp\n  swap1\n  div\n  0xff\n  and\n    /* \"@openzeppelin/contracts@4.9.6/access/AccessControl.sol\":3123:3159  return _roles[role].members[account] */\n  swap1\n  pop\n    /* \"@openzeppelin/contracts@4.9.6/access/AccessControl.sol\":3021:3166  function hasRole(bytes32 role, address account) public view virtual override returns (bool) {... */\n  swap3\n  swap2\n  pop\n  pop\n  jump\t// out\n    /* \"@openzeppelin/contracts@4.9.6/utils/Context.sol\":655:751  function _msgSender() internal view virtual returns (address) {... */\ntag_17:\n    /* \"@openzeppelin/contracts@4.9.6/utils/Context.sol\":708:715  address */\n  0x00\n    /* \"@openzeppelin/contracts@4.9.6/utils/Context.sol\":734:744  msg.sender */\n  caller\n    /* \"@openzeppelin/contracts@4.9.6/utils/Context.sol\":727:744  return msg.sender */\n  swap1\n  pop\n    /* \"@openzeppelin/contracts@4.9.6/utils/Context.sol\":655:751  function _msgSender() internal view virtual returns (address) {... */\n  swap1\n  jump\t// out\n    /* \"#utility.yul\":88:205   */\ntag_21:\n    /* \"#utility.yul\":197:198   */\n  0x00\n    /* \"#utility.yul\":194:195   */\n  0x00\n    /* \"#utility.yul\":187:199   */\n  revert\n    /* \"#utility.yul\":334:460   */\ntag_23:\n    /* \"#utility.yul\":371:378   */\n  0x00\n    /* \"#utility.yul\":411:453   */\n  0xffffffffffffffffffffffffffffffffffffffff\n    /* \"#utility.yul\":404:409   */\n  dup3\n    /* \"#utility.yul\":400:454   */\n  and\n    /* \"#utility.yul\":389:454   */\n  swap1\n  pop\n    /* \"#utility.yul\":334:460   */\n  swap2\n  swap1\n  pop\n  jump\t// out\n    /* \"#utility.yul\":466:562   */\ntag_24:\n    /* \"#utility.yul\":503:510   */\n  0x00\n    /* \"#utility.yul\":532:556   */\n  tag_33\n    /* \"#utility.yul\":550:555   */\n  dup3\n    /* \"#utility.yul\":532:556   */\n  tag_23\n  jump\t// in\ntag_33:\n    /* \"#utility.yul\":521:556   */\n  swap1\n  pop\n    /* \"#utility.yul\":466:562   */\n  swap2\n  swap1\n  pop\n  jump\t// out\n    /* \"#utility.yul\":568:690   */\ntag_25:\n    /* \"#utility.yul\":641:665   */\n  tag_35\n    /* \"#utility.yul\":659:664   */\n  dup2\n    /* \"#utility.yul\":641:665   */\n  tag_24\n  jump\t// in\ntag_35:\n    /* \"#utility.yul\":634:639   */\n  dup2\n    /* \"#utility.yul\":631:666   */\n  eq\n    /* \"#utility.yul\":621:684   */\n  tag_36\n  jumpi\n    /* \"#utility.yul\":680:681   */\n  0x00\n    /* \"#utility.yul\":677:678   */\n  0x00\n    /* \"#utility.yul\":670:682   */\n  revert\n    /* \"#utility.yul\":621:684   */\ntag_36:\n    /* \"#utility.yul\":568:690   */\n  pop\n  jump\t// out\n    /* \"#utility.yul\":696:839   */\ntag_26:\n    /* \"#utility.yul\":753:758   */\n  0x00\n    /* \"#utility.yul\":784:790   */\n  dup2\n    /* \"#utility.yul\":778:791   */\n  mload\n    /* \"#utility.yul\":769:791   */\n  swap1\n  pop\n    /* \"#utility.yul\":800:833   */\n  tag_38\n    /* \"#utility.yul\":827:832   */\n  dup2\n    /* \"#utility.yul\":800:833   */\n  tag_25\n  jump\t// in\ntag_38:\n    /* \"#utility.yul\":696:839   */\n  swap3\n  swap2\n  pop\n  pop\n  jump\t// out\n    /* \"#utility.yul\":845:1352   */\ntag_3:\n    /* \"#utility.yul\":924:930   */\n  0x00\n    /* \"#utility.yul\":932:938   */\n  0x00\n    /* \"#utility.yul\":981:983   */\n  0x40\n    /* \"#utility.yul\":969:978   */\n  dup4\n    /* \"#utility.yul\":960:967   */\n  dup6\n    /* \"#utility.yul\":956:979   */\n  sub\n    /* \"#utility.yul\":952:984   */\n  slt\n    /* \"#utility.yul\":949:1068   */\n  iszero\n  tag_40\n  jumpi\n    /* \"#utility.yul\":987:1066   */\n  tag_41\n  tag_21\n  jump\t// in\ntag_41:\n    /* \"#utility.yul\":949:1068   */\ntag_40:\n    /* \"#utility.yul\":1107:1108   */\n  0x00\n    /* \"#utility.yul\":1132:1196   */\n  tag_42\n    /* \"#utility.yul\":1188:1195   */\n  dup6\n    /* \"#utility.yul\":1179:1185   */\n  dup3\n    /* \"#utility.yul\":1168:1177   */\n  dup7\n    /* \"#utility.yul\":1164:1186   */\n  add\n    /* \"#utility.yul\":1132:1196   */\n  tag_26\n  jump\t// in\ntag_42:\n    /* \"#utility.yul\":1122:1196   */\n  swap3\n  pop\n    /* \"#utility.yul\":1078:1206   */\n  pop\n    /* \"#utility.yul\":1245:1247   */\n  0x20\n    /* \"#utility.yul\":1271:1335   */\n  tag_43\n    /* \"#utility.yul\":1327:1334   */\n  dup6\n    /* \"#utility.yul\":1318:1324   */\n  dup3\n    /* \"#utility.yul\":1307:1316   */\n  dup7\n    /* \"#utility.yul\":1303:1325   */\n  add\n    /* \"#utility.yul\":1271:1335   */\n  tag_26\n  jump\t// in\ntag_43:\n    /* \"#utility.yul\":1261:1335   */\n  swap2\n  pop\n    /* \"#utility.yul\":1216:1345   */\n  pop\n    /* \"#utility.yul\":845:1352   */\n  swap3\n  pop\n  swap3\n  swap1\n  pop\n  jump\t// out\n    /* \"contracts/ReadyListings.sol\":298:3280  contract ReadyListings is IReadyListings, AccessControl, Pausable {... */\ntag_11:\n  mload(0x80)\n  codecopy(0x00, dataOffset(sub_0), dataSize(sub_0))\n  0x00\n  assignImmutable(\"0xab8d769fd3bb2ad700183759eb21b77f2db7ac77bcbda1f27a61bbc684dd0630\")\n  return(0x00, dataSize(sub_0))\nstop\n\nsub_0: assembly {\n        /* \"contracts/ReadyListings.sol\":298:3280  contract ReadyListings is IReadyListings, AccessControl, Pausable {... */\n      mstore(0x40, 0x80)\n      callvalue\n      dup1\n      iszero\n      tag_1\n      jumpi\n      revert(0x00, 0x00)\n    tag_1:\n      pop\n      jumpi(tag_2, lt(calldatasize, 0x04))\n      shr(0xe0, calldataload(0x00))\n      dup1\n      0x73d8df4a\n      gt\n      tag_22\n      jumpi\n      dup1\n      0xa5b33370\n      gt\n      tag_23\n      jumpi\n      dup1\n      0xa5b33370\n      eq\n      tag_17\n      jumpi\n      dup1\n      0xba6665b2\n      eq\n      tag_18\n      jumpi\n      dup1\n      0xcfc6c4b5\n      eq\n      tag_19\n      jumpi\n      dup1\n      0xd547741f\n      eq\n      tag_20\n      jumpi\n      dup1\n      0xf5b541a6\n      eq\n      tag_21\n      jumpi\n      jump(tag_2)\n    tag_23:\n      dup1\n      0x73d8df4a\n      eq\n      tag_12\n      jumpi\n      dup1\n      0x7b103999\n      eq\n      tag_13\n      jumpi\n      dup1\n      0x8456cb59\n      eq\n      tag_14\n      jumpi\n      dup1\n      0x91d14854\n      eq\n      tag_15\n      jumpi\n      dup1\n      0xa217fddf\n      eq\n      tag_16\n      jumpi\n      jump(tag_2)\n    tag_22:\n      dup1\n      0x2f2ff15d\n      gt\n      tag_24\n      jumpi\n      dup1\n      0x2f2ff15d\n      eq\n      tag_7\n      jumpi\n      dup1\n      0x36568abe\n      eq\n      tag_8\n      jumpi\n      dup1\n      0x3f4ba83a\n      eq\n      tag_9\n      jumpi\n      dup1\n      0x558a7297\n      eq\n      tag_10\n      jumpi\n      dup1\n      0x5c975abb\n      eq\n      tag_11\n      jumpi\n      jump(tag_2)\n    tag_24:\n      dup1\n      0x01ffc9a7\n      eq\n      tag_3\n      jumpi\n      dup1\n      0x05d7e0cc\n      eq\n      tag_4\n      jumpi\n      dup1\n      0x2219774e\n      eq\n      tag_5\n      jumpi\n      dup1\n      0x248a9ca3\n      eq\n      tag_6\n      jumpi\n    tag_2:\n      revert(0x00, 0x00)\n        /* \"@openzeppelin/contracts@4.9.6/access/AccessControl.sol\":2732:2934  function supportsInterface(bytes4 interfaceId) public view virtual override returns (bool) {... */\n    tag_3:\n      tag_25\n      0x04\n      dup1\n      calldatasize\n      sub\n      dup2\n      add\n      swap1\n      tag_26\n      swap2\n      swap1\n      tag_27\n      jump\t// in\n    tag_26:\n      tag_28\n      jump\t// in\n    tag_25:\n      mload(0x40)\n      tag_29\n      swap2\n      swap1\n      tag_30\n      jump\t// in\n    tag_29:\n      mload(0x40)\n      dup1\n      swap2\n      sub\n      swap1\n      return\n        /* \"contracts/ReadyListings.sol\":2160:2716  function createCaseSignal(... */\n    tag_4:\n      tag_31\n      0x04\n      dup1\n      calldatasize\n      sub\n      dup2\n      add\n      swap1\n      tag_32\n      swap2\n      swap1\n      tag_33\n      jump\t// in\n    tag_32:\n      tag_34\n      jump\t// in\n    tag_31:\n      stop\n        /* \"contracts/ReadyListings.sol\":2724:3000  function closeCaseSignal(bytes32 signalId) external whenNotPaused {... */\n    tag_5:\n      tag_35\n      0x04\n      dup1\n      calldatasize\n      sub\n      dup2\n      add\n      swap1\n      tag_36\n      swap2\n      swap1\n      tag_37\n      jump\t// in\n    tag_36:\n      tag_38\n      jump\t// in\n    tag_35:\n      stop\n        /* \"@openzeppelin/contracts@4.9.6/access/AccessControl.sol\":4504:4633  function getRoleAdmin(bytes32 role) public view virtual override returns (bytes32) {... */\n    tag_6:\n      tag_39\n      0x04\n      dup1\n      calldatasize\n      sub\n      dup2\n      add\n      swap1\n      tag_40\n      swap2\n      swap1\n      tag_37\n      jump\t// in\n    tag_40:\n      tag_41\n      jump\t// in\n    tag_39:\n      mload(0x40)\n      tag_42\n      swap2\n      swap1\n      tag_43\n      jump\t// in\n    tag_42:\n      mload(0x40)\n      dup1\n      swap2\n      sub\n      swap1\n      return\n        /* \"@openzeppelin/contracts@4.9.6/access/AccessControl.sol\":4929:5074  function grantRole(bytes32 role, address account) public virtual override onlyRole(getRoleAdmin(role)) {... */\n    tag_7:\n      tag_44\n      0x04\n      dup1\n      calldatasize\n      sub\n      dup2\n      add\n      swap1\n      tag_45\n      swap2\n      swap1\n      tag_46\n      jump\t// in\n    tag_45:\n      tag_47\n      jump\t// in\n    tag_44:\n      stop\n        /* \"@openzeppelin/contracts@4.9.6/access/AccessControl.sol\":6038:6252  function renounceRole(bytes32 role, address account) public virtual override {... */\n    tag_8:\n      tag_48\n      0x04\n      dup1\n      calldatasize\n      sub\n      dup2\n      add\n      swap1\n      tag_49\n      swap2\n      swap1\n      tag_46\n      jump\t// in\n    tag_49:\n      tag_50\n      jump\t// in\n    tag_48:\n      stop\n        /* \"contracts/ReadyListings.sol\":1117:1170  function unpause() external onlyAdmin { _unpause(); } */\n    tag_9:\n      tag_51\n      tag_52\n      jump\t// in\n    tag_51:\n      stop\n        /* \"contracts/ReadyListings.sol\":1176:1354  function setOperator(address account, bool ok) external onlyAdmin {... */\n    tag_10:\n      tag_53\n      0x04\n      dup1\n      calldatasize\n      sub\n      dup2\n      add\n      swap1\n      tag_54\n      swap2\n      swap1\n      tag_55\n      jump\t// in\n    tag_54:\n      tag_56\n      jump\t// in\n    tag_53:\n      stop\n        /* \"@openzeppelin/contracts@4.9.6/security/Pausable.sol\":1615:1699  function paused() public view virtual returns (bool) {... */\n    tag_11:\n      tag_57\n      tag_58\n      jump\t// in\n    tag_57:\n      mload(0x40)\n      tag_59\n      swap2\n      swap1\n      tag_30\n      jump\t// in\n    tag_59:\n      mload(0x40)\n      dup1\n      swap2\n      sub\n      swap1\n      return\n        /* \"contracts/ReadyListings.sol\":1398:1817  function upsertLawyerListing(... */\n    tag_12:\n      tag_60\n      0x04\n      dup1\n      calldatasize\n      sub\n      dup2\n      add\n      swap1\n      tag_61\n      swap2\n      swap1\n      tag_62\n      jump\t// in\n    tag_61:\n      tag_63\n      jump\t// in\n    tag_60:\n      stop\n        /* \"contracts/ReadyListings.sol\":371:423  ILegalPractitionerRegistry public immutable registry */\n    tag_13:\n      tag_64\n      tag_65\n      jump\t// in\n    tag_64:\n      mload(0x40)\n      tag_66\n      swap2\n      swap1\n      tag_67\n      jump\t// in\n    tag_66:\n      mload(0x40)\n      dup1\n      swap2\n      sub\n      swap1\n      return\n        /* \"contracts/ReadyListings.sol\":1062:1111  function pause() external onlyAdmin { _pause(); } */\n    tag_14:\n      tag_68\n      tag_69\n      jump\t// in\n    tag_68:\n      stop\n        /* \"@openzeppelin/contracts@4.9.6/access/AccessControl.sol\":3021:3166  function hasRole(bytes32 role, address account) public view virtual override returns (bool) {... */\n    tag_15:\n      tag_70\n      0x04\n      dup1\n      calldatasize\n      sub\n      dup2\n      add\n      swap1\n      tag_71\n      swap2\n      swap1\n      tag_46\n      jump\t// in\n    tag_71:\n      tag_72\n      jump\t// in\n    tag_70:\n      mload(0x40)\n      tag_73\n      swap2\n      swap1\n      tag_30\n      jump\t// in\n    tag_73:\n      mload(0x40)\n      dup1\n      swap2\n      sub\n      swap1\n      return\n        /* \"@openzeppelin/contracts@4.9.6/access/AccessControl.sol\":2153:2202  bytes32 public constant DEFAULT_ADMIN_ROLE = 0x00 */\n    tag_16:\n      tag_74\n      tag_75\n      jump\t// in\n    tag_74:\n      mload(0x40)\n      tag_76\n      swap2\n      swap1\n      tag_43\n      jump\t// in\n    tag_76:\n      mload(0x40)\n      dup1\n      swap2\n      sub\n      swap1\n      return\n        /* \"contracts/ReadyListings.sol\":3157:3277  function caseSignalClient(bytes32 signalId) external view override returns (address) { return _signalClient[signalId]; } */\n    tag_17:\n      tag_77\n      0x04\n      dup1\n      calldatasize\n      sub\n      dup2\n      add\n      swap1\n      tag_78\n      swap2\n      swap1\n      tag_37\n      jump\t// in\n    tag_78:\n      tag_79\n      jump\t// in\n    tag_77:\n      mload(0x40)\n      tag_80\n      swap2\n      swap1\n      tag_81\n      jump\t// in\n    tag_80:\n      mload(0x40)\n      dup1\n      swap2\n      sub\n      swap1\n      return\n        /* \"contracts/ReadyListings.sol\":1825:2112  function removeLawyerListing() external whenNotPaused {... */\n    tag_18:\n      tag_82\n      tag_83\n      jump\t// in\n    tag_82:\n      stop\n        /* \"contracts/ReadyListings.sol\":3034:3151  function hasLawyerListing(address lawyer) external view override returns (bool) { return _lawyerHasListing[lawyer]; } */\n    tag_19:\n      tag_84\n      0x04\n      dup1\n      calldatasize\n      sub\n      dup2\n      add\n      swap1\n      tag_85\n      swap2\n      swap1\n      tag_86\n      jump\t// in\n    tag_85:\n      tag_87\n      jump\t// in\n    tag_84:\n      mload(0x40)\n      tag_88\n      swap2\n      swap1\n      tag_30\n      jump\t// in\n    tag_88:\n      mload(0x40)\n      dup1\n      swap2\n      sub\n      swap1\n      return\n        /* \"@openzeppelin/contracts@4.9.6/access/AccessControl.sol\":5354:5501  function revokeRole(bytes32 role, address account) public virtual override onlyRole(getRoleAdmin(role)) {... */\n    tag_20:\n      tag_89\n      0x04\n      dup1\n      calldatasize\n      sub\n      dup2\n      add\n      swap1\n      tag_90\n      swap2\n      swap1\n      tag_46\n      jump\t// in\n    tag_90:\n      tag_91\n      jump\t// in\n    tag_89:\n      stop\n        /* \"contracts/ReadyListings.sol\":432:498  bytes32 public constant OPERATOR_ROLE = keccak256(\"OPERATOR_ROLE\") */\n    tag_21:\n      tag_92\n      tag_93\n      jump\t// in\n    tag_92:\n      mload(0x40)\n      tag_94\n      swap2\n      swap1\n      tag_43\n      jump\t// in\n    tag_94:\n      mload(0x40)\n      dup1\n      swap2\n      sub\n      swap1\n      return\n        /* \"@openzeppelin/contracts@4.9.6/access/AccessControl.sol\":2732:2934  function supportsInterface(bytes4 interfaceId) public view virtual override returns (bool) {... */\n    tag_28:\n        /* \"@openzeppelin/contracts@4.9.6/access/AccessControl.sol\":2817:2821  bool */\n      0x00\n        /* \"@openzeppelin/contracts@4.9.6/access/AccessControl.sol\":2855:2887  type(IAccessControl).interfaceId */\n      0x7965db0b00000000000000000000000000000000000000000000000000000000\n        /* \"@openzeppelin/contracts@4.9.6/access/AccessControl.sol\":2840:2887  interfaceId == type(IAccessControl).interfaceId */\n      not(0xffffffffffffffffffffffffffffffffffffffffffffffffffffffff)\n      and\n        /* \"@openzeppelin/contracts@4.9.6/access/AccessControl.sol\":2840:2851  interfaceId */\n      dup3\n        /* \"@openzeppelin/contracts@4.9.6/access/AccessControl.sol\":2840:2887  interfaceId == type(IAccessControl).interfaceId */\n      not(0xffffffffffffffffffffffffffffffffffffffffffffffffffffffff)\n      and\n      eq\n        /* \"@openzeppelin/contracts@4.9.6/access/AccessControl.sol\":2840:2927  interfaceId == type(IAccessControl).interfaceId || super.supportsInterface(interfaceId) */\n      dup1\n      tag_96\n      jumpi\n      pop\n        /* \"@openzeppelin/contracts@4.9.6/access/AccessControl.sol\":2891:2927  super.supportsInterface(interfaceId) */\n      tag_97\n        /* \"@openzeppelin/contracts@4.9.6/access/AccessControl.sol\":2915:2926  interfaceId */\n      dup3\n        /* \"@openzeppelin/contracts@4.9.6/access/AccessControl.sol\":2891:2914  super.supportsInterface */\n      tag_98\n        /* \"@openzeppelin/contracts@4.9.6/access/AccessControl.sol\":2891:2927  super.supportsInterface(interfaceId) */\n      jump\t// in\n    tag_97:\n        /* \"@openzeppelin/contracts@4.9.6/access/AccessControl.sol\":2840:2927  interfaceId == type(IAccessControl).interfaceId || super.supportsInterface(interfaceId) */\n    tag_96:\n        /* \"@openzeppelin/contracts@4.9.6/access/AccessControl.sol\":2833:2927  return interfaceId == type(IAccessControl).interfaceId || super.supportsInterface(interfaceId) */\n      swap1\n      pop\n        /* \"@openzeppelin/contracts@4.9.6/access/AccessControl.sol\":2732:2934  function supportsInterface(bytes4 interfaceId) public view virtual override returns (bool) {... */\n      swap2\n      swap1\n      pop\n      jump\t// out\n        /* \"contracts/ReadyListings.sol\":2160:2716  function createCaseSignal(... */\n    tag_34:\n        /* \"@openzeppelin/contracts@4.9.6/security/Pausable.sol\":1239:1258  _requireNotPaused() */\n      tag_100\n        /* \"@openzeppelin/contracts@4.9.6/security/Pausable.sol\":1239:1256  _requireNotPaused */\n      tag_101\n        /* \"@openzeppelin/contracts@4.9.6/security/Pausable.sol\":1239:1258  _requireNotPaused() */\n      jump\t// in\n    tag_100:\n        /* \"contracts/ReadyListings.sol\":2420:2421  0 */\n      0x00\n        /* \"contracts/ReadyListings.sol\":2385:2422  _signalClient[signalId] == address(0) */\n      0xffffffffffffffffffffffffffffffffffffffff\n      and\n        /* \"contracts/ReadyListings.sol\":2385:2398  _signalClient */\n      0x03\n        /* \"contracts/ReadyListings.sol\":2385:2408  _signalClient[signalId] */\n      0x00\n        /* \"contracts/ReadyListings.sol\":2399:2407  signalId */\n      dup10\n        /* \"contracts/ReadyListings.sol\":2385:2408  _signalClient[signalId] */\n      dup2\n      mstore\n      0x20\n      add\n      swap1\n      dup2\n      mstore\n      0x20\n      add\n      0x00\n      keccak256\n      0x00\n      swap1\n      sload\n      swap1\n      0x0100\n      exp\n      swap1\n      div\n      0xffffffffffffffffffffffffffffffffffffffff\n      and\n        /* \"contracts/ReadyListings.sol\":2385:2422  _signalClient[signalId] == address(0) */\n      0xffffffffffffffffffffffffffffffffffffffff\n      and\n      eq\n        /* \"contracts/ReadyListings.sol\":2377:2436  require(_signalClient[signalId] == address(0), \"id exists\") */\n      tag_103\n      jumpi\n      mload(0x40)\n      0x08c379a000000000000000000000000000000000000000000000000000000000\n      dup2\n      mstore\n      0x04\n      add\n      tag_104\n      swap1\n      tag_105\n      jump\t// in\n    tag_104:\n      mload(0x40)\n      dup1\n      swap2\n      sub\n      swap1\n      revert\n    tag_103:\n        /* \"contracts/ReadyListings.sol\":2479:2480  0 */\n      0x00\n        /* \"contracts/ReadyListings.sol\":2461:2468  caseURI */\n      dup7\n      dup7\n        /* \"contracts/ReadyListings.sol\":2455:2476  bytes(caseURI).length */\n      swap1\n      pop\n        /* \"contracts/ReadyListings.sol\":2455:2480  bytes(caseURI).length > 0 */\n      gt\n        /* \"contracts/ReadyListings.sol\":2447:2494  require(bytes(caseURI).length > 0, \"empty uri\") */\n      tag_106\n      jumpi\n      mload(0x40)\n      0x08c379a000000000000000000000000000000000000000000000000000000000\n      dup2\n      mstore\n      0x04\n      add\n      tag_107\n      swap1\n      tag_108\n      jump\t// in\n    tag_107:\n      mload(0x40)\n      dup1\n      swap2\n      sub\n      swap1\n      revert\n    tag_106:\n        /* \"contracts/ReadyListings.sol\":2526:2527  0 */\n      0x00\n        /* \"contracts/ReadyListings.sol\":2513:2522  budgetMax */\n      dup4\n        /* \"contracts/ReadyListings.sol\":2513:2527  budgetMax == 0 */\n      eq\n        /* \"contracts/ReadyListings.sol\":2513:2553  budgetMax == 0 || budgetMax >= budgetMin */\n      dup1\n      tag_109\n      jumpi\n      pop\n        /* \"contracts/ReadyListings.sol\":2544:2553  budgetMin */\n      dup4\n        /* \"contracts/ReadyListings.sol\":2531:2540  budgetMax */\n      dup4\n        /* \"contracts/ReadyListings.sol\":2531:2553  budgetMax >= budgetMin */\n      lt\n      iszero\n        /* \"contracts/ReadyListings.sol\":2513:2553  budgetMax == 0 || budgetMax >= budgetMin */\n    tag_109:\n        /* \"contracts/ReadyListings.sol\":2505:2567  require(budgetMax == 0 || budgetMax >= budgetMin, \"bad range\") */\n      tag_110\n      jumpi\n      mload(0x40)\n      0x08c379a000000000000000000000000000000000000000000000000000000000\n      dup2\n      mstore\n      0x04\n      add\n      tag_111\n      swap1\n      tag_112\n      jump\t// in\n    tag_111:\n      mload(0x40)\n      dup1\n      swap2\n      sub\n      swap1\n      revert\n    tag_110:\n        /* \"contracts/ReadyListings.sol\":2606:2616  msg.sender */\n      caller\n        /* \"contracts/ReadyListings.sol\":2580:2593  _signalClient */\n      0x03\n        /* \"contracts/ReadyListings.sol\":2580:2603  _signalClient[signalId] */\n      0x00\n        /* \"contracts/ReadyListings.sol\":2594:2602  signalId */\n      dup10\n        /* \"contracts/ReadyListings.sol\":2580:2603  _signalClient[signalId] */\n      dup2\n      mstore\n      0x20\n      add\n      swap1\n      dup2\n      mstore\n      0x20\n      add\n      0x00\n      keccak256\n      0x00\n        /* \"contracts/ReadyListings.sol\":2580:2616  _signalClient[signalId] = msg.sender */\n      0x0100\n      exp\n      dup2\n      sload\n      dup2\n      0xffffffffffffffffffffffffffffffffffffffff\n      mul\n      not\n      and\n      swap1\n      dup4\n      0xffffffffffffffffffffffffffffffffffffffff\n      and\n      mul\n      or\n      swap1\n      sstore\n      pop\n        /* \"contracts/ReadyListings.sol\":2660:2670  msg.sender */\n      caller\n        /* \"contracts/ReadyListings.sol\":2632:2708  CaseSignalCreated(signalId, msg.sender, caseURI, budgetMin, budgetMax, tags) */\n      0xffffffffffffffffffffffffffffffffffffffff\n      and\n        /* \"contracts/ReadyListings.sol\":2650:2658  signalId */\n      dup8\n        /* \"contracts/ReadyListings.sol\":2632:2708  CaseSignalCreated(signalId, msg.sender, caseURI, budgetMin, budgetMax, tags) */\n      0x48675d35033645783fb30a5b8ebd5044986d6e302c33751db084f52f9291b9d9\n        /* \"contracts/ReadyListings.sol\":2672:2679  caseURI */\n      dup9\n      dup9\n        /* \"contracts/ReadyListings.sol\":2681:2690  budgetMin */\n      dup9\n        /* \"contracts/ReadyListings.sol\":2692:2701  budgetMax */\n      dup9\n        /* \"contracts/ReadyListings.sol\":2703:2707  tags */\n      dup9\n      dup9\n        /* \"contracts/ReadyListings.sol\":2632:2708  CaseSignalCreated(signalId, msg.sender, caseURI, budgetMin, budgetMax, tags) */\n      mload(0x40)\n      tag_113\n      swap7\n      swap6\n      swap5\n      swap4\n      swap3\n      swap2\n      swap1\n      tag_114\n      jump\t// in\n    tag_113:\n      mload(0x40)\n      dup1\n      swap2\n      sub\n      swap1\n      log3\n        /* \"contracts/ReadyListings.sol\":2160:2716  function createCaseSignal(... */\n      pop\n      pop\n      pop\n      pop\n      pop\n      pop\n      pop\n      jump\t// out\n        /* \"contracts/ReadyListings.sol\":2724:3000  function closeCaseSignal(bytes32 signalId) external whenNotPaused {... */\n    tag_38:\n        /* \"@openzeppelin/contracts@4.9.6/security/Pausable.sol\":1239:1258  _requireNotPaused() */\n      tag_116\n        /* \"@openzeppelin/contracts@4.9.6/security/Pausable.sol\":1239:1256  _requireNotPaused */\n      tag_101\n        /* \"@openzeppelin/contracts@4.9.6/security/Pausable.sol\":1239:1258  _requireNotPaused() */\n      jump\t// in\n    tag_116:\n        /* \"contracts/ReadyListings.sol\":2836:2846  msg.sender */\n      caller\n        /* \"contracts/ReadyListings.sol\":2809:2846  _signalClient[signalId] == msg.sender */\n      0xffffffffffffffffffffffffffffffffffffffff\n      and\n        /* \"contracts/ReadyListings.sol\":2809:2822  _signalClient */\n      0x03\n        /* \"contracts/ReadyListings.sol\":2809:2832  _signalClient[signalId] */\n      0x00\n        /* \"contracts/ReadyListings.sol\":2823:2831  signalId */\n      dup4\n        /* \"contracts/ReadyListings.sol\":2809:2832  _signalClient[signalId] */\n      dup2\n      mstore\n      0x20\n      add\n      swap1\n      dup2\n      mstore\n      0x20\n      add\n      0x00\n      keccak256\n      0x00\n      swap1\n      sload\n      swap1\n      0x0100\n      exp\n      swap1\n      div\n      0xffffffffffffffffffffffffffffffffffffffff\n      and\n        /* \"contracts/ReadyListings.sol\":2809:2846  _signalClient[signalId] == msg.sender */\n      0xffffffffffffffffffffffffffffffffffffffff\n      and\n      eq\n        /* \"contracts/ReadyListings.sol\":2809:2889  _signalClient[signalId] == msg.sender || hasRole(DEFAULT_ADMIN_ROLE, msg.sender) */\n      dup1\n      tag_118\n      jumpi\n      pop\n        /* \"contracts/ReadyListings.sol\":2850:2889  hasRole(DEFAULT_ADMIN_ROLE, msg.sender) */\n      tag_119\n        /* \"@openzeppelin/contracts@4.9.6/access/AccessControl.sol\":2198:2202  0x00 */\n      0x00\n        /* \"contracts/ReadyListings.sol\":2858:2876  DEFAULT_ADMIN_ROLE */\n      0x00\n      shl\n        /* \"contracts/ReadyListings.sol\":2878:2888  msg.sender */\n      caller\n        /* \"contracts/ReadyListings.sol\":2850:2857  hasRole */\n      tag_72\n        /* \"contracts/ReadyListings.sol\":2850:2889  hasRole(DEFAULT_ADMIN_ROLE, msg.sender) */\n      jump\t// in\n    tag_119:\n        /* \"contracts/ReadyListings.sol\":2809:2889  _signalClient[signalId] == msg.sender || hasRole(DEFAULT_ADMIN_ROLE, msg.sender) */\n    tag_118:\n        /* \"contracts/ReadyListings.sol\":2801:2909  require(_signalClient[signalId] == msg.sender || hasRole(DEFAULT_ADMIN_ROLE, msg.sender), \"not owner/admin\") */\n      tag_120\n      jumpi\n      mload(0x40)\n      0x08c379a000000000000000000000000000000000000000000000000000000000\n      dup2\n      mstore\n      0x04\n      add\n      tag_121\n      swap1\n      tag_122\n      jump\t// in\n    tag_121:\n      mload(0x40)\n      dup1\n      swap2\n      sub\n      swap1\n      revert\n    tag_120:\n        /* \"contracts/ReadyListings.sol\":2927:2940  _signalClient */\n      0x03\n        /* \"contracts/ReadyListings.sol\":2927:2950  _signalClient[signalId] */\n      0x00\n        /* \"contracts/ReadyListings.sol\":2941:2949  signalId */\n      dup3\n        /* \"contracts/ReadyListings.sol\":2927:2950  _signalClient[signalId] */\n      dup2\n      mstore\n      0x20\n      add\n      swap1\n      dup2\n      mstore\n      0x20\n      add\n      0x00\n      keccak256\n      0x00\n        /* \"contracts/ReadyListings.sol\":2920:2950  delete _signalClient[signalId] */\n      0x0100\n      exp\n      dup2\n      sload\n      swap1\n      0xffffffffffffffffffffffffffffffffffffffff\n      mul\n      not\n      and\n      swap1\n      sstore\n        /* \"contracts/ReadyListings.sol\":2983:2991  signalId */\n      dup1\n        /* \"contracts/ReadyListings.sol\":2966:2992  CaseSignalClosed(signalId) */\n      0x6651ce8991a6dfcf6417c4f614264d05982ee51b7ac81800262485eb952789c7\n      mload(0x40)\n      mload(0x40)\n      dup1\n      swap2\n      sub\n      swap1\n      log2\n        /* \"contracts/ReadyListings.sol\":2724:3000  function closeCaseSignal(bytes32 signalId) external whenNotPaused {... */\n      pop\n      jump\t// out\n        /* \"@openzeppelin/contracts@4.9.6/access/AccessControl.sol\":4504:4633  function getRoleAdmin(bytes32 role) public view virtual override returns (bytes32) {... */\n    tag_41:\n        /* \"@openzeppelin/contracts@4.9.6/access/AccessControl.sol\":4578:4585  bytes32 */\n      0x00\n        /* \"@openzeppelin/contracts@4.9.6/access/AccessControl.sol\":4604:4610  _roles */\n      0x00\n        /* \"@openzeppelin/contracts@4.9.6/access/AccessControl.sol\":4604:4616  _roles[role] */\n      0x00\n        /* \"@openzeppelin/contracts@4.9.6/access/AccessControl.sol\":4611:4615  role */\n      dup4\n        /* \"@openzeppelin/contracts@4.9.6/access/AccessControl.sol\":4604:4616  _roles[role] */\n      dup2\n      mstore\n      0x20\n      add\n      swap1\n      dup2\n      mstore\n      0x20\n      add\n      0x00\n      keccak256\n        /* \"@openzeppelin/contracts@4.9.6/access/AccessControl.sol\":4604:4626  _roles[role].adminRole */\n      0x01\n      add\n      sload\n        /* \"@openzeppelin/contracts@4.9.6/access/AccessControl.sol\":4597:4626  return _roles[role].adminRole */\n      swap1\n      pop\n        /* \"@openzeppelin/contracts@4.9.6/access/AccessControl.sol\":4504:4633  function getRoleAdmin(bytes32 role) public view virtual override returns (bytes32) {... */\n      swap2\n      swap1\n      pop\n      jump\t// out\n        /* \"@openzeppelin/contracts@4.9.6/access/AccessControl.sol\":4929:5074  function grantRole(bytes32 role, address account) public virtual override onlyRole(getRoleAdmin(role)) {... */\n    tag_47:\n        /* \"@openzeppelin/contracts@4.9.6/access/AccessControl.sol\":5012:5030  getRoleAdmin(role) */\n      tag_124\n        /* \"@openzeppelin/contracts@4.9.6/access/AccessControl.sol\":5025:5029  role */\n      dup3\n        /* \"@openzeppelin/contracts@4.9.6/access/AccessControl.sol\":5012:5024  getRoleAdmin */\n      tag_41\n        /* \"@openzeppelin/contracts@4.9.6/access/AccessControl.sol\":5012:5030  getRoleAdmin(role) */\n      jump\t// in\n    tag_124:\n        /* \"@openzeppelin/contracts@4.9.6/access/AccessControl.sol\":2631:2647  _checkRole(role) */\n      tag_126\n        /* \"@openzeppelin/contracts@4.9.6/access/AccessControl.sol\":2642:2646  role */\n      dup2\n        /* \"@openzeppelin/contracts@4.9.6/access/AccessControl.sol\":2631:2641  _checkRole */\n      tag_127\n        /* \"@openzeppelin/contracts@4.9.6/access/AccessControl.sol\":2631:2647  _checkRole(role) */\n      jump\t// in\n    tag_126:\n        /* \"@openzeppelin/contracts@4.9.6/access/AccessControl.sol\":5042:5067  _grantRole(role, account) */\n      tag_129\n        /* \"@openzeppelin/contracts@4.9.6/access/AccessControl.sol\":5053:5057  role */\n      dup4\n        /* \"@openzeppelin/contracts@4.9.6/access/AccessControl.sol\":5059:5066  account */\n      dup4\n        /* \"@openzeppelin/contracts@4.9.6/access/AccessControl.sol\":5042:5052  _grantRole */\n      tag_130\n        /* \"@openzeppelin/contracts@4.9.6/access/AccessControl.sol\":5042:5067  _grantRole(role, account) */\n      jump\t// in\n    tag_129:\n        /* \"@openzeppelin/contracts@4.9.6/access/AccessControl.sol\":4929:5074  function grantRole(bytes32 role, address account) public virtual override onlyRole(getRoleAdmin(role)) {... */\n      pop\n      pop\n      pop\n      jump\t// out\n        /* \"@openzeppelin/contracts@4.9.6/access/AccessControl.sol\":6038:6252  function renounceRole(bytes32 role, address account) public virtual override {... */\n    tag_50:\n        /* \"@openzeppelin/contracts@4.9.6/access/AccessControl.sol\":6144:6156  _msgSender() */\n      tag_132\n        /* \"@openzeppelin/contracts@4.9.6/access/AccessControl.sol\":6144:6154  _msgSender */\n      tag_133\n        /* \"@openzeppelin/contracts@4.9.6/access/AccessControl.sol\":6144:6156  _msgSender() */\n      jump\t// in\n    tag_132:\n        /* \"@openzeppelin/contracts@4.9.6/access/AccessControl.sol\":6133:6156  account == _msgSender() */\n      0xffffffffffffffffffffffffffffffffffffffff\n      and\n        /* \"@openzeppelin/contracts@4.9.6/access/AccessControl.sol\":6133:6140  account */\n      dup2\n        /* \"@openzeppelin/contracts@4.9.6/access/AccessControl.sol\":6133:6156  account == _msgSender() */\n      0xffffffffffffffffffffffffffffffffffffffff\n      and\n      eq\n        /* \"@openzeppelin/contracts@4.9.6/access/AccessControl.sol\":6125:6208  require(account == _msgSender(), \"AccessControl: can only renounce roles for self\") */\n      tag_134\n      jumpi\n      mload(0x40)\n      0x08c379a000000000000000000000000000000000000000000000000000000000\n      dup2\n      mstore\n      0x04\n      add\n      tag_135\n      swap1\n      tag_136\n      jump\t// in\n    tag_135:\n      mload(0x40)\n      dup1\n      swap2\n      sub\n      swap1\n      revert\n    tag_134:\n        /* \"@openzeppelin/contracts@4.9.6/access/AccessControl.sol\":6219:6245  _revokeRole(role, account) */\n      tag_137\n        /* \"@openzeppelin/contracts@4.9.6/access/AccessControl.sol\":6231:6235  role */\n      dup3\n        /* \"@openzeppelin/contracts@4.9.6/access/AccessControl.sol\":6237:6244  account */\n      dup3\n        /* \"@openzeppelin/contracts@4.9.6/access/AccessControl.sol\":6219:6230  _revokeRole */\n      tag_138\n        /* \"@openzeppelin/contracts@4.9.6/access/AccessControl.sol\":6219:6245  _revokeRole(role, account) */\n      jump\t// in\n    tag_137:\n        /* \"@openzeppelin/contracts@4.9.6/access/AccessControl.sol\":6038:6252  function renounceRole(bytes32 role, address account) public virtual override {... */\n      pop\n      pop\n      jump\t// out\n        /* \"contracts/ReadyListings.sol\":1117:1170  function unpause() external onlyAdmin { _unpause(); } */\n    tag_52:\n        /* \"contracts/ReadyListings.sol\":731:770  hasRole(DEFAULT_ADMIN_ROLE, msg.sender) */\n      tag_140\n        /* \"@openzeppelin/contracts@4.9.6/access/AccessControl.sol\":2198:2202  0x00 */\n      0x00\n        /* \"contracts/ReadyListings.sol\":739:757  DEFAULT_ADMIN_ROLE */\n      0x00\n      shl\n        /* \"contracts/ReadyListings.sol\":759:769  msg.sender */\n      caller\n        /* \"contracts/ReadyListings.sol\":731:738  hasRole */\n      tag_72\n        /* \"contracts/ReadyListings.sol\":731:770  hasRole(DEFAULT_ADMIN_ROLE, msg.sender) */\n      jump\t// in\n    tag_140:\n        /* \"contracts/ReadyListings.sol\":723:784  require(hasRole(DEFAULT_ADMIN_ROLE, msg.sender), \"Not admin\") */\n      tag_141\n      jumpi\n      mload(0x40)\n      0x08c379a000000000000000000000000000000000000000000000000000000000\n      dup2\n      mstore\n      0x04\n      add\n      tag_142\n      swap1\n      tag_143\n      jump\t// in\n    tag_142:\n      mload(0x40)\n      dup1\n      swap2\n      sub\n      swap1\n      revert\n    tag_141:\n        /* \"contracts/ReadyListings.sol\":1157:1167  _unpause() */\n      tag_145\n        /* \"contracts/ReadyListings.sol\":1157:1165  _unpause */\n      tag_146\n        /* \"contracts/ReadyListings.sol\":1157:1167  _unpause() */\n      jump\t// in\n    tag_145:\n        /* \"contracts/ReadyListings.sol\":1117:1170  function unpause() external onlyAdmin { _unpause(); } */\n      jump\t// out\n        /* \"contracts/ReadyListings.sol\":1176:1354  function setOperator(address account, bool ok) external onlyAdmin {... */\n    tag_56:\n        /* \"contracts/ReadyListings.sol\":731:770  hasRole(DEFAULT_ADMIN_ROLE, msg.sender) */\n      tag_148\n        /* \"@openzeppelin/contracts@4.9.6/access/AccessControl.sol\":2198:2202  0x00 */\n      0x00\n        /* \"contracts/ReadyListings.sol\":739:757  DEFAULT_ADMIN_ROLE */\n      0x00\n      shl\n        /* \"contracts/ReadyListings.sol\":759:769  msg.sender */\n      caller\n        /* \"contracts/ReadyListings.sol\":731:738  hasRole */\n      tag_72\n        /* \"contracts/ReadyListings.sol\":731:770  hasRole(DEFAULT_ADMIN_ROLE, msg.sender) */\n      jump\t// in\n    tag_148:\n        /* \"contracts/ReadyListings.sol\":723:784  require(hasRole(DEFAULT_ADMIN_ROLE, msg.sender), \"Not admin\") */\n      tag_149\n      jumpi\n      mload(0x40)\n      0x08c379a000000000000000000000000000000000000000000000000000000000\n      dup2\n      mstore\n      0x04\n      add\n      tag_150\n      swap1\n      tag_143\n      jump\t// in\n    tag_150:\n      mload(0x40)\n      dup1\n      swap2\n      sub\n      swap1\n      revert\n    tag_149:\n        /* \"contracts/ReadyListings.sol\":1257:1259  ok */\n      dup1\n        /* \"contracts/ReadyListings.sol\":1253:1346  if (ok) _grantRole(OPERATOR_ROLE, account);... */\n      iszero\n      tag_152\n      jumpi\n        /* \"contracts/ReadyListings.sol\":1261:1295  _grantRole(OPERATOR_ROLE, account) */\n      tag_153\n        /* \"contracts/ReadyListings.sol\":472:498  keccak256(\"OPERATOR_ROLE\") */\n      0x97667070c54ef182b0f5858b034beac1b6f3089aa2d3188bb1e8929f4fa9b929\n        /* \"contracts/ReadyListings.sol\":1287:1294  account */\n      dup4\n        /* \"contracts/ReadyListings.sol\":1261:1271  _grantRole */\n      tag_130\n        /* \"contracts/ReadyListings.sol\":1261:1295  _grantRole(OPERATOR_ROLE, account) */\n      jump\t// in\n    tag_153:\n        /* \"contracts/ReadyListings.sol\":1253:1346  if (ok) _grantRole(OPERATOR_ROLE, account);... */\n      jump(tag_154)\n    tag_152:\n        /* \"contracts/ReadyListings.sol\":1311:1346  _revokeRole(OPERATOR_ROLE, account) */\n      tag_155\n        /* \"contracts/ReadyListings.sol\":472:498  keccak256(\"OPERATOR_ROLE\") */\n      0x97667070c54ef182b0f5858b034beac1b6f3089aa2d3188bb1e8929f4fa9b929\n        /* \"contracts/ReadyListings.sol\":1338:1345  account */\n      dup4\n        /* \"contracts/ReadyListings.sol\":1311:1322  _revokeRole */\n      tag_138\n        /* \"contracts/ReadyListings.sol\":1311:1346  _revokeRole(OPERATOR_ROLE, account) */\n      jump\t// in\n    tag_155:\n        /* \"contracts/ReadyListings.sol\":1253:1346  if (ok) _grantRole(OPERATOR_ROLE, account);... */\n    tag_154:\n        /* \"contracts/ReadyListings.sol\":1176:1354  function setOperator(address account, bool ok) external onlyAdmin {... */\n      pop\n      pop\n      jump\t// out\n        /* \"@openzeppelin/contracts@4.9.6/security/Pausable.sol\":1615:1699  function paused() public view virtual returns (bool) {... */\n    tag_58:\n        /* \"@openzeppelin/contracts@4.9.6/security/Pausable.sol\":1662:1666  bool */\n      0x00\n        /* \"@openzeppelin/contracts@4.9.6/security/Pausable.sol\":1685:1692  _paused */\n      0x01\n      0x00\n      swap1\n      sload\n      swap1\n      0x0100\n      exp\n      swap1\n      div\n      0xff\n      and\n        /* \"@openzeppelin/contracts@4.9.6/security/Pausable.sol\":1678:1692  return _paused */\n      swap1\n      pop\n        /* \"@openzeppelin/contracts@4.9.6/security/Pausable.sol\":1615:1699  function paused() public view virtual returns (bool) {... */\n      swap1\n      jump\t// out\n        /* \"contracts/ReadyListings.sol\":1398:1817  function upsertLawyerListing(... */\n    tag_63:\n        /* \"@openzeppelin/contracts@4.9.6/security/Pausable.sol\":1239:1258  _requireNotPaused() */\n      tag_158\n        /* \"@openzeppelin/contracts@4.9.6/security/Pausable.sol\":1239:1256  _requireNotPaused */\n      tag_101\n        /* \"@openzeppelin/contracts@4.9.6/security/Pausable.sol\":1239:1258  _requireNotPaused() */\n      jump\t// in\n    tag_158:\n        /* \"contracts/ReadyListings.sol\":1575:1583  registry */\n      immutable(\"0xab8d769fd3bb2ad700183759eb21b77f2db7ac77bcbda1f27a61bbc684dd0630\")\n        /* \"contracts/ReadyListings.sol\":1575:1592  registry.isLawyer */\n      0xffffffffffffffffffffffffffffffffffffffff\n      and\n      0x5939a84e\n        /* \"contracts/ReadyListings.sol\":1593:1603  msg.sender */\n      caller\n        /* \"contracts/ReadyListings.sol\":1575:1604  registry.isLawyer(msg.sender) */\n      mload(0x40)\n      dup3\n      0xffffffff\n      and\n      0xe0\n      shl\n      dup2\n      mstore\n      0x04\n      add\n      tag_160\n      swap2\n      swap1\n      tag_81\n      jump\t// in\n    tag_160:\n      0x20\n      mload(0x40)\n      dup1\n      dup4\n      sub\n      dup2\n      dup7\n      gas\n      staticcall\n      iszero\n      dup1\n      iszero\n      tag_162\n      jumpi\n      returndatacopy(0x00, 0x00, returndatasize)\n      revert(0x00, returndatasize)\n    tag_162:\n      pop\n      pop\n      pop\n      pop\n      mload(0x40)\n      returndatasize\n      not(0x1f)\n      0x1f\n      dup3\n      add\n      and\n      dup3\n      add\n      dup1\n      0x40\n      mstore\n      pop\n      dup2\n      add\n      swap1\n      tag_163\n      swap2\n      swap1\n      tag_164\n      jump\t// in\n    tag_163:\n        /* \"contracts/ReadyListings.sol\":1567:1620  require(registry.isLawyer(msg.sender), \"lawyer only\") */\n      tag_165\n      jumpi\n      mload(0x40)\n      0x08c379a000000000000000000000000000000000000000000000000000000000\n      dup2\n      mstore\n      0x04\n      add\n      tag_166\n      swap1\n      tag_167\n      jump\t// in\n    tag_166:\n      mload(0x40)\n      dup1\n      swap2\n      sub\n      swap1\n      revert\n    tag_165:\n        /* \"contracts/ReadyListings.sol\":1666:1667  0 */\n      0x00\n        /* \"contracts/ReadyListings.sol\":1645:1655  profileURI */\n      dup6\n      dup6\n        /* \"contracts/ReadyListings.sol\":1639:1663  bytes(profileURI).length */\n      swap1\n      pop\n        /* \"contracts/ReadyListings.sol\":1639:1667  bytes(profileURI).length > 0 */\n      gt\n        /* \"contracts/ReadyListings.sol\":1631:1681  require(bytes(profileURI).length > 0, \"empty uri\") */\n      tag_168\n      jumpi\n      mload(0x40)\n      0x08c379a000000000000000000000000000000000000000000000000000000000\n      dup2\n      mstore\n      0x04\n      add\n      tag_169\n      swap1\n      tag_108\n      jump\t// in\n    tag_169:\n      mload(0x40)\n      dup1\n      swap2\n      sub\n      swap1\n      revert\n    tag_168:\n        /* \"contracts/ReadyListings.sol\":1724:1728  true */\n      0x01\n        /* \"contracts/ReadyListings.sol\":1692:1709  _lawyerHasListing */\n      0x02\n        /* \"contracts/ReadyListings.sol\":1692:1721  _lawyerHasListing[msg.sender] */\n      0x00\n        /* \"contracts/ReadyListings.sol\":1710:1720  msg.sender */\n      caller\n        /* \"contracts/ReadyListings.sol\":1692:1721  _lawyerHasListing[msg.sender] */\n      0xffffffffffffffffffffffffffffffffffffffff\n      and\n      0xffffffffffffffffffffffffffffffffffffffff\n      and\n      dup2\n      mstore\n      0x20\n      add\n      swap1\n      dup2\n      mstore\n      0x20\n      add\n      0x00\n      keccak256\n      0x00\n        /* \"contracts/ReadyListings.sol\":1692:1728  _lawyerHasListing[msg.sender] = true */\n      0x0100\n      exp\n      dup2\n      sload\n      dup2\n      0xff\n      mul\n      not\n      and\n      swap1\n      dup4\n      iszero\n      iszero\n      mul\n      or\n      swap1\n      sstore\n      pop\n        /* \"contracts/ReadyListings.sol\":1768:1778  msg.sender */\n      caller\n        /* \"contracts/ReadyListings.sol\":1746:1809  LawyerListingUpserted(msg.sender, profileURI, hourlyRate, tags) */\n      0xffffffffffffffffffffffffffffffffffffffff\n      and\n      0x2a57dd4c7fb43c11c2ec41544dd1f1042ac2a2768e062779f53074639def2af7\n        /* \"contracts/ReadyListings.sol\":1780:1790  profileURI */\n      dup7\n      dup7\n        /* \"contracts/ReadyListings.sol\":1792:1802  hourlyRate */\n      dup7\n        /* \"contracts/ReadyListings.sol\":1804:1808  tags */\n      dup7\n      dup7\n        /* \"contracts/ReadyListings.sol\":1746:1809  LawyerListingUpserted(msg.sender, profileURI, hourlyRate, tags) */\n      mload(0x40)\n      tag_170\n      swap6\n      swap5\n      swap4\n      swap3\n      swap2\n      swap1\n      tag_171\n      jump\t// in\n    tag_170:\n      mload(0x40)\n      dup1\n      swap2\n      sub\n      swap1\n      log2\n        /* \"contracts/ReadyListings.sol\":1398:1817  function upsertLawyerListing(... */\n      pop\n      pop\n      pop\n      pop\n      pop\n      jump\t// out\n        /* \"contracts/ReadyListings.sol\":371:423  ILegalPractitionerRegistry public immutable registry */\n    tag_65:\n      immutable(\"0xab8d769fd3bb2ad700183759eb21b77f2db7ac77bcbda1f27a61bbc684dd0630\")\n      dup2\n      jump\t// out\n        /* \"contracts/ReadyListings.sol\":1062:1111  function pause() external onlyAdmin { _pause(); } */\n    tag_69:\n        /* \"contracts/ReadyListings.sol\":731:770  hasRole(DEFAULT_ADMIN_ROLE, msg.sender) */\n      tag_173\n        /* \"@openzeppelin/contracts@4.9.6/access/AccessControl.sol\":2198:2202  0x00 */\n      0x00\n        /* \"contracts/ReadyListings.sol\":739:757  DEFAULT_ADMIN_ROLE */\n      0x00\n      shl\n        /* \"contracts/ReadyListings.sol\":759:769  msg.sender */\n      caller\n        /* \"contracts/ReadyListings.sol\":731:738  hasRole */\n      tag_72\n        /* \"contracts/ReadyListings.sol\":731:770  hasRole(DEFAULT_ADMIN_ROLE, msg.sender) */\n      jump\t// in\n    tag_173:\n        /* \"contracts/ReadyListings.sol\":723:784  require(hasRole(DEFAULT_ADMIN_ROLE, msg.sender), \"Not admin\") */\n      tag_174\n      jumpi\n      mload(0x40)\n      0x08c379a000000000000000000000000000000000000000000000000000000000\n      dup2\n      mstore\n      0x04\n      add\n      tag_175\n      swap1\n      tag_143\n      jump\t// in\n    tag_175:\n      mload(0x40)\n      dup1\n      swap2\n      sub\n      swap1\n      revert\n    tag_174:\n        /* \"contracts/ReadyListings.sol\":1100:1108  _pause() */\n      tag_177\n        /* \"contracts/ReadyListings.sol\":1100:1106  _pause */\n      tag_178\n        /* \"contracts/ReadyListings.sol\":1100:1108  _pause() */\n      jump\t// in\n    tag_177:\n        /* \"contracts/ReadyListings.sol\":1062:1111  function pause() external onlyAdmin { _pause(); } */\n      jump\t// out\n        /* \"@openzeppelin/contracts@4.9.6/access/AccessControl.sol\":3021:3166  function hasRole(bytes32 role, address account) public view virtual override returns (bool) {... */\n    tag_72:\n        /* \"@openzeppelin/contracts@4.9.6/access/AccessControl.sol\":3107:3111  bool */\n      0x00\n        /* \"@openzeppelin/contracts@4.9.6/access/AccessControl.sol\":3130:3136  _roles */\n      0x00\n        /* \"@openzeppelin/contracts@4.9.6/access/AccessControl.sol\":3130:3142  _roles[role] */\n      0x00\n        /* \"@openzeppelin/contracts@4.9.6/access/AccessControl.sol\":3137:3141  role */\n      dup5\n        /* \"@openzeppelin/contracts@4.9.6/access/AccessControl.sol\":3130:3142  _roles[role] */\n      dup2\n      mstore\n      0x20\n      add\n      swap1\n      dup2\n      mstore\n      0x20\n      add\n      0x00\n      keccak256\n        /* \"@openzeppelin/contracts@4.9.6/access/AccessControl.sol\":3130:3150  _roles[role].members */\n      0x00\n      add\n        /* \"@openzeppelin/contracts@4.9.6/access/AccessControl.sol\":3130:3159  _roles[role].members[account] */\n      0x00\n        /* \"@openzeppelin/contracts@4.9.6/access/AccessControl.sol\":3151:3158  account */\n      dup4\n        /* \"@openzeppelin/contracts@4.9.6/access/AccessControl.sol\":3130:3159  _roles[role].members[account] */\n      0xffffffffffffffffffffffffffffffffffffffff\n      and\n      0xffffffffffffffffffffffffffffffffffffffff\n      and\n      dup2\n      mstore\n      0x20\n      add\n      swap1\n      dup2\n      mstore\n      0x20\n      add\n      0x00\n      keccak256\n      0x00\n      swap1\n      sload\n      swap1\n      0x0100\n      exp\n      swap1\n      div\n      0xff\n      and\n        /* \"@openzeppelin/contracts@4.9.6/access/AccessControl.sol\":3123:3159  return _roles[role].members[account] */\n      swap1\n      pop\n        /* \"@openzeppelin/contracts@4.9.6/access/AccessControl.sol\":3021:3166  function hasRole(bytes32 role, address account) public view virtual override returns (bool) {... */\n      swap3\n      swap2\n      pop\n      pop\n      jump\t// out\n        /* \"@openzeppelin/contracts@4.9.6/access/AccessControl.sol\":2153:2202  bytes32 public constant DEFAULT_ADMIN_ROLE = 0x00 */\n    tag_75:\n        /* \"@openzeppelin/contracts@4.9.6/access/AccessControl.sol\":2198:2202  0x00 */\n      0x00\n        /* \"@openzeppelin/contracts@4.9.6/access/AccessControl.sol\":2153:2202  bytes32 public constant DEFAULT_ADMIN_ROLE = 0x00 */\n      0x00\n      shl\n      dup2\n      jump\t// out\n        /* \"contracts/ReadyListings.sol\":3157:3277  function caseSignalClient(bytes32 signalId) external view override returns (address) { return _signalClient[signalId]; } */\n    tag_79:\n        /* \"contracts/ReadyListings.sol\":3233:3240  address */\n      0x00\n        /* \"contracts/ReadyListings.sol\":3251:3264  _signalClient */\n      0x03\n        /* \"contracts/ReadyListings.sol\":3251:3274  _signalClient[signalId] */\n      0x00\n        /* \"contracts/ReadyListings.sol\":3265:3273  signalId */\n      dup4\n        /* \"contracts/ReadyListings.sol\":3251:3274  _signalClient[signalId] */\n      dup2\n      mstore\n      0x20\n      add\n      swap1\n      dup2\n      mstore\n      0x20\n      add\n      0x00\n      keccak256\n      0x00\n      swap1\n      sload\n      swap1\n      0x0100\n      exp\n      swap1\n      div\n      0xffffffffffffffffffffffffffffffffffffffff\n      and\n        /* \"contracts/ReadyListings.sol\":3244:3274  return _signalClient[signalId] */\n      swap1\n      pop\n        /* \"contracts/ReadyListings.sol\":3157:3277  function caseSignalClient(bytes32 signalId) external view override returns (address) { return _signalClient[signalId]; } */\n      swap2\n      swap1\n      pop\n      jump\t// out\n        /* \"contracts/ReadyListings.sol\":1825:2112  function removeLawyerListing() external whenNotPaused {... */\n    tag_83:\n        /* \"@openzeppelin/contracts@4.9.6/security/Pausable.sol\":1239:1258  _requireNotPaused() */\n      tag_182\n        /* \"@openzeppelin/contracts@4.9.6/security/Pausable.sol\":1239:1256  _requireNotPaused */\n      tag_101\n        /* \"@openzeppelin/contracts@4.9.6/security/Pausable.sol\":1239:1258  _requireNotPaused() */\n      jump\t// in\n    tag_182:\n        /* \"contracts/ReadyListings.sol\":1898:1906  registry */\n      immutable(\"0xab8d769fd3bb2ad700183759eb21b77f2db7ac77bcbda1f27a61bbc684dd0630\")\n        /* \"contracts/ReadyListings.sol\":1898:1915  registry.isLawyer */\n      0xffffffffffffffffffffffffffffffffffffffff\n      and\n      0x5939a84e\n        /* \"contracts/ReadyListings.sol\":1916:1926  msg.sender */\n      caller\n        /* \"contracts/ReadyListings.sol\":1898:1927  registry.isLawyer(msg.sender) */\n      mload(0x40)\n      dup3\n      0xffffffff\n      and\n      0xe0\n      shl\n      dup2\n      mstore\n      0x04\n      add\n      tag_184\n      swap2\n      swap1\n      tag_81\n      jump\t// in\n    tag_184:\n      0x20\n      mload(0x40)\n      dup1\n      dup4\n      sub\n      dup2\n      dup7\n      gas\n      staticcall\n      iszero\n      dup1\n      iszero\n      tag_186\n      jumpi\n      returndatacopy(0x00, 0x00, returndatasize)\n      revert(0x00, returndatasize)\n    tag_186:\n      pop\n      pop\n      pop\n      pop\n      mload(0x40)\n      returndatasize\n      not(0x1f)\n      0x1f\n      dup3\n      add\n      and\n      dup3\n      add\n      dup1\n      0x40\n      mstore\n      pop\n      dup2\n      add\n      swap1\n      tag_187\n      swap2\n      swap1\n      tag_164\n      jump\t// in\n    tag_187:\n        /* \"contracts/ReadyListings.sol\":1890:1943  require(registry.isLawyer(msg.sender), \"lawyer only\") */\n      tag_188\n      jumpi\n      mload(0x40)\n      0x08c379a000000000000000000000000000000000000000000000000000000000\n      dup2\n      mstore\n      0x04\n      add\n      tag_189\n      swap1\n      tag_167\n      jump\t// in\n    tag_189:\n      mload(0x40)\n      dup1\n      swap2\n      sub\n      swap1\n      revert\n    tag_188:\n        /* \"contracts/ReadyListings.sol\":1962:1979  _lawyerHasListing */\n      0x02\n        /* \"contracts/ReadyListings.sol\":1962:1991  _lawyerHasListing[msg.sender] */\n      0x00\n        /* \"contracts/ReadyListings.sol\":1980:1990  msg.sender */\n      caller\n        /* \"contracts/ReadyListings.sol\":1962:1991  _lawyerHasListing[msg.sender] */\n      0xffffffffffffffffffffffffffffffffffffffff\n      and\n      0xffffffffffffffffffffffffffffffffffffffff\n      and\n      dup2\n      mstore\n      0x20\n      add\n      swap1\n      dup2\n      mstore\n      0x20\n      add\n      0x00\n      keccak256\n      0x00\n      swap1\n      sload\n      swap1\n      0x0100\n      exp\n      swap1\n      div\n      0xff\n      and\n        /* \"contracts/ReadyListings.sol\":1954:2006  require(_lawyerHasListing[msg.sender], \"no listing\") */\n      tag_190\n      jumpi\n      mload(0x40)\n      0x08c379a000000000000000000000000000000000000000000000000000000000\n      dup2\n      mstore\n      0x04\n      add\n      tag_191\n      swap1\n      tag_192\n      jump\t// in\n    tag_191:\n      mload(0x40)\n      dup1\n      swap2\n      sub\n      swap1\n      revert\n    tag_190:\n        /* \"contracts/ReadyListings.sol\":2049:2054  false */\n      0x00\n        /* \"contracts/ReadyListings.sol\":2017:2034  _lawyerHasListing */\n      0x02\n        /* \"contracts/ReadyListings.sol\":2017:2046  _lawyerHasListing[msg.sender] */\n      0x00\n        /* \"contracts/ReadyListings.sol\":2035:2045  msg.sender */\n      caller\n        /* \"contracts/ReadyListings.sol\":2017:2046  _lawyerHasListing[msg.sender] */\n      0xffffffffffffffffffffffffffffffffffffffff\n      and\n      0xffffffffffffffffffffffffffffffffffffffff\n      and\n      dup2\n      mstore\n      0x20\n      add\n      swap1\n      dup2\n      mstore\n      0x20\n      add\n      0x00\n      keccak256\n      0x00\n        /* \"contracts/ReadyListings.sol\":2017:2054  _lawyerHasListing[msg.sender] = false */\n      0x0100\n      exp\n      dup2\n      sload\n      dup2\n      0xff\n      mul\n      not\n      and\n      swap1\n      dup4\n      iszero\n      iszero\n      mul\n      or\n      swap1\n      sstore\n      pop\n        /* \"contracts/ReadyListings.sol\":2093:2103  msg.sender */\n      caller\n        /* \"contracts/ReadyListings.sol\":2072:2104  LawyerListingRemoved(msg.sender) */\n      0xffffffffffffffffffffffffffffffffffffffff\n      and\n      0x55b0385547097c32b5a830c8fc394a36f1f77b7dc62a5f34dcd60b403abcd009\n      mload(0x40)\n      mload(0x40)\n      dup1\n      swap2\n      sub\n      swap1\n      log2\n        /* \"contracts/ReadyListings.sol\":1825:2112  function removeLawyerListing() external whenNotPaused {... */\n      jump\t// out\n        /* \"contracts/ReadyListings.sol\":3034:3151  function hasLawyerListing(address lawyer) external view override returns (bool) { return _lawyerHasListing[lawyer]; } */\n    tag_87:\n        /* \"contracts/ReadyListings.sol\":3108:3112  bool */\n      0x00\n        /* \"contracts/ReadyListings.sol\":3123:3140  _lawyerHasListing */\n      0x02\n        /* \"contracts/ReadyListings.sol\":3123:3148  _lawyerHasListing[lawyer] */\n      0x00\n        /* \"contracts/ReadyListings.sol\":3141:3147  lawyer */\n      dup4\n        /* \"contracts/ReadyListings.sol\":3123:3148  _lawyerHasListing[lawyer] */\n      0xffffffffffffffffffffffffffffffffffffffff\n      and\n      0xffffffffffffffffffffffffffffffffffffffff\n      and\n      dup2\n      mstore\n      0x20\n      add\n      swap1\n      dup2\n      mstore\n      0x20\n      add\n      0x00\n      keccak256\n      0x00\n      swap1\n      sload\n      swap1\n      0x0100\n      exp\n      swap1\n      div\n      0xff\n      and\n        /* \"contracts/ReadyListings.sol\":3116:3148  return _lawyerHasListing[lawyer] */\n      swap1\n      pop\n        /* \"contracts/ReadyListings.sol\":3034:3151  function hasLawyerListing(address lawyer) external view override returns (bool) { return _lawyerHasListing[lawyer]; } */\n      swap2\n      swap1\n      pop\n      jump\t// out\n        /* \"@openzeppelin/contracts@4.9.6/access/AccessControl.sol\":5354:5501  function revokeRole(bytes32 role, address account) public virtual override onlyRole(getRoleAdmin(role)) {... */\n    tag_91:\n        /* \"@openzeppelin/contracts@4.9.6/access/AccessControl.sol\":5438:5456  getRoleAdmin(role) */\n      tag_194\n        /* \"@openzeppelin/contracts@4.9.6/access/AccessControl.sol\":5451:5455  role */\n      dup3\n        /* \"@openzeppelin/contracts@4.9.6/access/AccessControl.sol\":5438:5450  getRoleAdmin */\n      tag_41\n        /* \"@openzeppelin/contracts@4.9.6/access/AccessControl.sol\":5438:5456  getRoleAdmin(role) */\n      jump\t// in\n    tag_194:\n        /* \"@openzeppelin/contracts@4.9.6/access/AccessControl.sol\":2631:2647  _checkRole(role) */\n      tag_196\n        /* \"@openzeppelin/contracts@4.9.6/access/AccessControl.sol\":2642:2646  role */\n      dup2\n        /* \"@openzeppelin/contracts@4.9.6/access/AccessControl.sol\":2631:2641  _checkRole */\n      tag_127\n        /* \"@openzeppelin/contracts@4.9.6/access/AccessControl.sol\":2631:2647  _checkRole(role) */\n      jump\t// in\n    tag_196:\n        /* \"@openzeppelin/contracts@4.9.6/access/AccessControl.sol\":5468:5494  _revokeRole(role, account) */\n      tag_198\n        /* \"@openzeppelin/contracts@4.9.6/access/AccessControl.sol\":5480:5484  role */\n      dup4\n        /* \"@openzeppelin/contracts@4.9.6/access/AccessControl.sol\":5486:5493  account */\n      dup4\n        /* \"@openzeppelin/contracts@4.9.6/access/AccessControl.sol\":5468:5479  _revokeRole */\n      tag_138\n        /* \"@openzeppelin/contracts@4.9.6/access/AccessControl.sol\":5468:5494  _revokeRole(role, account) */\n      jump\t// in\n    tag_198:\n        /* \"@openzeppelin/contracts@4.9.6/access/AccessControl.sol\":5354:5501  function revokeRole(bytes32 role, address account) public virtual override onlyRole(getRoleAdmin(role)) {... */\n      pop\n      pop\n      pop\n      jump\t// out\n        /* \"contracts/ReadyListings.sol\":432:498  bytes32 public constant OPERATOR_ROLE = keccak256(\"OPERATOR_ROLE\") */\n    tag_93:\n        /* \"contracts/ReadyListings.sol\":472:498  keccak256(\"OPERATOR_ROLE\") */\n      0x97667070c54ef182b0f5858b034beac1b6f3089aa2d3188bb1e8929f4fa9b929\n        /* \"contracts/ReadyListings.sol\":432:498  bytes32 public constant OPERATOR_ROLE = keccak256(\"OPERATOR_ROLE\") */\n      dup2\n      jump\t// out\n        /* \"@openzeppelin/contracts@4.9.6/utils/introspection/ERC165.sol\":829:984  function supportsInterface(bytes4 interfaceId) public view virtual override returns (bool) {... */\n    tag_98:\n        /* \"@openzeppelin/contracts@4.9.6/utils/introspection/ERC165.sol\":914:918  bool */\n      0x00\n        /* \"@openzeppelin/contracts@4.9.6/utils/introspection/ERC165.sol\":952:977  type(IERC165).interfaceId */\n      0x01ffc9a700000000000000000000000000000000000000000000000000000000\n        /* \"@openzeppelin/contracts@4.9.6/utils/introspection/ERC165.sol\":937:977  interfaceId == type(IERC165).interfaceId */\n      not(0xffffffffffffffffffffffffffffffffffffffffffffffffffffffff)\n      and\n        /* \"@openzeppelin/contracts@4.9.6/utils/introspection/ERC165.sol\":937:948  interfaceId */\n      dup3\n        /* \"@openzeppelin/contracts@4.9.6/utils/introspection/ERC165.sol\":937:977  interfaceId == type(IERC165).interfaceId */\n      not(0xffffffffffffffffffffffffffffffffffffffffffffffffffffffff)\n      and\n      eq\n        /* \"@openzeppelin/contracts@4.9.6/utils/introspection/ERC165.sol\":930:977  return interfaceId == type(IERC165).interfaceId */\n      swap1\n      pop\n        /* \"@openzeppelin/contracts@4.9.6/utils/introspection/ERC165.sol\":829:984  function supportsInterface(bytes4 interfaceId) public view virtual override returns (bool) {... */\n      swap2\n      swap1\n      pop\n      jump\t// out\n        /* \"@openzeppelin/contracts@4.9.6/security/Pausable.sol\":1767:1873  function _requireNotPaused() internal view virtual {... */\n    tag_101:\n        /* \"@openzeppelin/contracts@4.9.6/security/Pausable.sol\":1837:1845  paused() */\n      tag_201\n        /* \"@openzeppelin/contracts@4.9.6/security/Pausable.sol\":1837:1843  paused */\n      tag_58\n        /* \"@openzeppelin/contracts@4.9.6/security/Pausable.sol\":1837:1845  paused() */\n      jump\t// in\n    tag_201:\n        /* \"@openzeppelin/contracts@4.9.6/security/Pausable.sol\":1836:1845  !paused() */\n      iszero\n        /* \"@openzeppelin/contracts@4.9.6/security/Pausable.sol\":1828:1866  require(!paused(), \"Pausable: paused\") */\n      tag_202\n      jumpi\n      mload(0x40)\n      0x08c379a000000000000000000000000000000000000000000000000000000000\n      dup2\n      mstore\n      0x04\n      add\n      tag_203\n      swap1\n      tag_204\n      jump\t// in\n    tag_203:\n      mload(0x40)\n      dup1\n      swap2\n      sub\n      swap1\n      revert\n    tag_202:\n        /* \"@openzeppelin/contracts@4.9.6/security/Pausable.sol\":1767:1873  function _requireNotPaused() internal view virtual {... */\n      jump\t// out\n        /* \"@openzeppelin/contracts@4.9.6/access/AccessControl.sol\":3460:3563  function _checkRole(bytes32 role) internal view virtual {... */\n    tag_127:\n        /* \"@openzeppelin/contracts@4.9.6/access/AccessControl.sol\":3526:3556  _checkRole(role, _msgSender()) */\n      tag_206\n        /* \"@openzeppelin/contracts@4.9.6/access/AccessControl.sol\":3537:3541  role */\n      dup2\n        /* \"@openzeppelin/contracts@4.9.6/access/AccessControl.sol\":3543:3555  _msgSender() */\n      tag_207\n        /* \"@openzeppelin/contracts@4.9.6/access/AccessControl.sol\":3543:3553  _msgSender */\n      tag_133\n        /* \"@openzeppelin/contracts@4.9.6/access/AccessControl.sol\":3543:3555  _msgSender() */\n      jump\t// in\n    tag_207:\n        /* \"@openzeppelin/contracts@4.9.6/access/AccessControl.sol\":3526:3536  _checkRole */\n      tag_208\n        /* \"@openzeppelin/contracts@4.9.6/access/AccessControl.sol\":3526:3556  _checkRole(role, _msgSender()) */\n      jump\t// in\n    tag_206:\n        /* \"@openzeppelin/contracts@4.9.6/access/AccessControl.sol\":3460:3563  function _checkRole(bytes32 role) internal view virtual {... */\n      pop\n      jump\t// out\n        /* \"@openzeppelin/contracts@4.9.6/access/AccessControl.sol\":7587:7820  function _grantRole(bytes32 role, address account) internal virtual {... */\n    tag_130:\n        /* \"@openzeppelin/contracts@4.9.6/access/AccessControl.sol\":7670:7692  hasRole(role, account) */\n      tag_210\n        /* \"@openzeppelin/contracts@4.9.6/access/AccessControl.sol\":7678:7682  role */\n      dup3\n        /* \"@openzeppelin/contracts@4.9.6/access/AccessControl.sol\":7684:7691  account */\n      dup3\n        /* \"@openzeppelin/contracts@4.9.6/access/AccessControl.sol\":7670:7677  hasRole */\n      tag_72\n        /* \"@openzeppelin/contracts@4.9.6/access/AccessControl.sol\":7670:7692  hasRole(role, account) */\n      jump\t// in\n    tag_210:\n        /* \"@openzeppelin/contracts@4.9.6/access/AccessControl.sol\":7665:7814  if (!hasRole(role, account)) {... */\n      tag_211\n      jumpi\n        /* \"@openzeppelin/contracts@4.9.6/access/AccessControl.sol\":7740:7744  true */\n      0x01\n        /* \"@openzeppelin/contracts@4.9.6/access/AccessControl.sol\":7708:7714  _roles */\n      0x00\n        /* \"@openzeppelin/contracts@4.9.6/access/AccessControl.sol\":7708:7720  _roles[role] */\n      0x00\n        /* \"@openzeppelin/contracts@4.9.6/access/AccessControl.sol\":7715:7719  role */\n      dup5\n        /* \"@openzeppelin/contracts@4.9.6/access/AccessControl.sol\":7708:7720  _roles[role] */\n      dup2\n      mstore\n      0x20\n      add\n      swap1\n      dup2\n      mstore\n      0x20\n      add\n      0x00\n      keccak256\n        /* \"@openzeppelin/contracts@4.9.6/access/AccessControl.sol\":7708:7728  _roles[role].members */\n      0x00\n      add\n        /* \"@openzeppelin/contracts@4.9.6/access/AccessControl.sol\":7708:7737  _roles[role].members[account] */\n      0x00\n        /* \"@openzeppelin/contracts@4.9.6/access/AccessControl.sol\":7729:7736  account */\n      dup4\n        /* \"@openzeppelin/contracts@4.9.6/access/AccessControl.sol\":7708:7737  _roles[role].members[account] */\n      0xffffffffffffffffffffffffffffffffffffffff\n      and\n      0xffffffffffffffffffffffffffffffffffffffff\n      and\n      dup2\n      mstore\n      0x20\n      add\n      swap1\n      dup2\n      mstore\n      0x20\n      add\n      0x00\n      keccak256\n      0x00\n        /* \"@openzeppelin/contracts@4.9.6/access/AccessControl.sol\":7708:7744  _roles[role].members[account] = true */\n      0x0100\n      exp\n      dup2\n      sload\n      dup2\n      0xff\n      mul\n      not\n      and\n      swap1\n      dup4\n      iszero\n      iszero\n      mul\n      or\n      swap1\n      sstore\n      pop\n        /* \"@openzeppelin/contracts@4.9.6/access/AccessControl.sol\":7790:7802  _msgSender() */\n      tag_212\n        /* \"@openzeppelin/contracts@4.9.6/access/AccessControl.sol\":7790:7800  _msgSender */\n      tag_133\n        /* \"@openzeppelin/contracts@4.9.6/access/AccessControl.sol\":7790:7802  _msgSender() */\n      jump\t// in\n    tag_212:\n        /* \"@openzeppelin/contracts@4.9.6/access/AccessControl.sol\":7763:7803  RoleGranted(role, account, _msgSender()) */\n      0xffffffffffffffffffffffffffffffffffffffff\n      and\n        /* \"@openzeppelin/contracts@4.9.6/access/AccessControl.sol\":7781:7788  account */\n      dup2\n        /* \"@openzeppelin/contracts@4.9.6/access/AccessControl.sol\":7763:7803  RoleGranted(role, account, _msgSender()) */\n      0xffffffffffffffffffffffffffffffffffffffff\n      and\n        /* \"@openzeppelin/contracts@4.9.6/access/AccessControl.sol\":7775:7779  role */\n      dup4\n        /* \"@openzeppelin/contracts@4.9.6/access/AccessControl.sol\":7763:7803  RoleGranted(role, account, _msgSender()) */\n      0x2f8788117e7eff1d82e926ec794901d17c78024a50270940304540a733656f0d\n      mload(0x40)\n      mload(0x40)\n      dup1\n      swap2\n      sub\n      swap1\n      log4\n        /* \"@openzeppelin/contracts@4.9.6/access/AccessControl.sol\":7665:7814  if (!hasRole(role, account)) {... */\n    tag_211:\n        /* \"@openzeppelin/contracts@4.9.6/access/AccessControl.sol\":7587:7820  function _grantRole(bytes32 role, address account) internal virtual {... */\n      pop\n      pop\n      jump\t// out\n        /* \"@openzeppelin/contracts@4.9.6/utils/Context.sol\":655:751  function _msgSender() internal view virtual returns (address) {... */\n    tag_133:\n        /* \"@openzeppelin/contracts@4.9.6/utils/Context.sol\":708:715  address */\n      0x00\n        /* \"@openzeppelin/contracts@4.9.6/utils/Context.sol\":734:744  msg.sender */\n      caller\n        /* \"@openzeppelin/contracts@4.9.6/utils/Context.sol\":727:744  return msg.sender */\n      swap1\n      pop\n        /* \"@openzeppelin/contracts@4.9.6/utils/Context.sol\":655:751  function _msgSender() internal view virtual returns (address) {... */\n      swap1\n      jump\t// out\n        /* \"@openzeppelin/contracts@4.9.6/access/AccessControl.sol\":7991:8225  function _revokeRole(bytes32 role, address account) internal virtual {... */\n    tag_138:\n        /* \"@openzeppelin/contracts@4.9.6/access/AccessControl.sol\":8074:8096  hasRole(role, account) */\n      tag_215\n        /* \"@openzeppelin/contracts@4.9.6/access/AccessControl.sol\":8082:8086  role */\n      dup3\n        /* \"@openzeppelin/contracts@4.9.6/access/AccessControl.sol\":8088:8095  account */\n      dup3\n        /* \"@openzeppelin/contracts@4.9.6/access/AccessControl.sol\":8074:8081  hasRole */\n      tag_72\n        /* \"@openzeppelin/contracts@4.9.6/access/AccessControl.sol\":8074:8096  hasRole(role, account) */\n      jump\t// in\n    tag_215:\n        /* \"@openzeppelin/contracts@4.9.6/access/AccessControl.sol\":8070:8219  if (hasRole(role, account)) {... */\n      iszero\n      tag_216\n      jumpi\n        /* \"@openzeppelin/contracts@4.9.6/access/AccessControl.sol\":8144:8149  false */\n      0x00\n        /* \"@openzeppelin/contracts@4.9.6/access/AccessControl.sol\":8112:8118  _roles */\n      0x00\n        /* \"@openzeppelin/contracts@4.9.6/access/AccessControl.sol\":8112:8124  _roles[role] */\n      0x00\n        /* \"@openzeppelin/contracts@4.9.6/access/AccessControl.sol\":8119:8123  role */\n      dup5\n        /* \"@openzeppelin/contracts@4.9.6/access/AccessControl.sol\":8112:8124  _roles[role] */\n      dup2\n      mstore\n      0x20\n      add\n      swap1\n      dup2\n      mstore\n      0x20\n      add\n      0x00\n      keccak256\n        /* \"@openzeppelin/contracts@4.9.6/access/AccessControl.sol\":8112:8132  _roles[role].members */\n      0x00\n      add\n        /* \"@openzeppelin/contracts@4.9.6/access/AccessControl.sol\":8112:8141  _roles[role].members[account] */\n      0x00\n        /* \"@openzeppelin/contracts@4.9.6/access/AccessControl.sol\":8133:8140  account */\n      dup4\n        /* \"@openzeppelin/contracts@4.9.6/access/AccessControl.sol\":8112:8141  _roles[role].members[account] */\n      0xffffffffffffffffffffffffffffffffffffffff\n      and\n      0xffffffffffffffffffffffffffffffffffffffff\n      and\n      dup2\n      mstore\n      0x20\n      add\n      swap1\n      dup2\n      mstore\n      0x20\n      add\n      0x00\n      keccak256\n      0x00\n        /* \"@openzeppelin/contracts@4.9.6/access/AccessControl.sol\":8112:8149  _roles[role].members[account] = false */\n      0x0100\n      exp\n      dup2\n      sload\n      dup2\n      0xff\n      mul\n      not\n      and\n      swap1\n      dup4\n      iszero\n      iszero\n      mul\n      or\n      swap1\n      sstore\n      pop\n        /* \"@openzeppelin/contracts@4.9.6/access/AccessControl.sol\":8195:8207  _msgSender() */\n      tag_217\n        /* \"@openzeppelin/contracts@4.9.6/access/AccessControl.sol\":8195:8205  _msgSender */\n      tag_133\n        /* \"@openzeppelin/contracts@4.9.6/access/AccessControl.sol\":8195:8207  _msgSender() */\n      jump\t// in\n    tag_217:\n        /* \"@openzeppelin/contracts@4.9.6/access/AccessControl.sol\":8168:8208  RoleRevoked(role, account, _msgSender()) */\n      0xffffffffffffffffffffffffffffffffffffffff\n      and\n        /* \"@openzeppelin/contracts@4.9.6/access/AccessControl.sol\":8186:8193  account */\n      dup2\n        /* \"@openzeppelin/contracts@4.9.6/access/AccessControl.sol\":8168:8208  RoleRevoked(role, account, _msgSender()) */\n      0xffffffffffffffffffffffffffffffffffffffff\n      and\n        /* \"@openzeppelin/contracts@4.9.6/access/AccessControl.sol\":8180:8184  role */\n      dup4\n        /* \"@openzeppelin/contracts@4.9.6/access/AccessControl.sol\":8168:8208  RoleRevoked(role, account, _msgSender()) */\n      0xf6391f5c32d9c69d2a47ea670b442974b53935d1edc7fd64eb21e047a839171b\n      mload(0x40)\n      mload(0x40)\n      dup1\n      swap2\n      sub\n      swap1\n      log4\n        /* \"@openzeppelin/contracts@4.9.6/access/AccessControl.sol\":8070:8219  if (hasRole(role, account)) {... */\n    tag_216:\n        /* \"@openzeppelin/contracts@4.9.6/access/AccessControl.sol\":7991:8225  function _revokeRole(bytes32 role, address account) internal virtual {... */\n      pop\n      pop\n      jump\t// out\n        /* \"@openzeppelin/contracts@4.9.6/security/Pausable.sol\":2433:2550  function _unpause() internal virtual whenPaused {... */\n    tag_146:\n        /* \"@openzeppelin/contracts@4.9.6/security/Pausable.sol\":1486:1502  _requirePaused() */\n      tag_219\n        /* \"@openzeppelin/contracts@4.9.6/security/Pausable.sol\":1486:1500  _requirePaused */\n      tag_220\n        /* \"@openzeppelin/contracts@4.9.6/security/Pausable.sol\":1486:1502  _requirePaused() */\n      jump\t// in\n    tag_219:\n        /* \"@openzeppelin/contracts@4.9.6/security/Pausable.sol\":2501:2506  false */\n      0x00\n        /* \"@openzeppelin/contracts@4.9.6/security/Pausable.sol\":2491:2498  _paused */\n      0x01\n      0x00\n        /* \"@openzeppelin/contracts@4.9.6/security/Pausable.sol\":2491:2506  _paused = false */\n      0x0100\n      exp\n      dup2\n      sload\n      dup2\n      0xff\n      mul\n      not\n      and\n      swap1\n      dup4\n      iszero\n      iszero\n      mul\n      or\n      swap1\n      sstore\n      pop\n        /* \"@openzeppelin/contracts@4.9.6/security/Pausable.sol\":2521:2543  Unpaused(_msgSender()) */\n      0x5db9ee0a495bf2e6ff9c91a7834c1ba4fdd244a5e8aa4e537bd38aeae4b073aa\n        /* \"@openzeppelin/contracts@4.9.6/security/Pausable.sol\":2530:2542  _msgSender() */\n      tag_222\n        /* \"@openzeppelin/contracts@4.9.6/security/Pausable.sol\":2530:2540  _msgSender */\n      tag_133\n        /* \"@openzeppelin/contracts@4.9.6/security/Pausable.sol\":2530:2542  _msgSender() */\n      jump\t// in\n    tag_222:\n        /* \"@openzeppelin/contracts@4.9.6/security/Pausable.sol\":2521:2543  Unpaused(_msgSender()) */\n      mload(0x40)\n      tag_223\n      swap2\n      swap1\n      tag_81\n      jump\t// in\n    tag_223:\n      mload(0x40)\n      dup1\n      swap2\n      sub\n      swap1\n      log1\n        /* \"@openzeppelin/contracts@4.9.6/security/Pausable.sol\":2433:2550  function _unpause() internal virtual whenPaused {... */\n      jump\t// out\n        /* \"@openzeppelin/contracts@4.9.6/security/Pausable.sol\":2186:2301  function _pause() internal virtual whenNotPaused {... */\n    tag_178:\n        /* \"@openzeppelin/contracts@4.9.6/security/Pausable.sol\":1239:1258  _requireNotPaused() */\n      tag_225\n        /* \"@openzeppelin/contracts@4.9.6/security/Pausable.sol\":1239:1256  _requireNotPaused */\n      tag_101\n        /* \"@openzeppelin/contracts@4.9.6/security/Pausable.sol\":1239:1258  _requireNotPaused() */\n      jump\t// in\n    tag_225:\n        /* \"@openzeppelin/contracts@4.9.6/security/Pausable.sol\":2255:2259  true */\n      0x01\n        /* \"@openzeppelin/contracts@4.9.6/security/Pausable.sol\":2245:2252  _paused */\n      dup1\n      0x00\n        /* \"@openzeppelin/contracts@4.9.6/security/Pausable.sol\":2245:2259  _paused = true */\n      0x0100\n      exp\n      dup2\n      sload\n      dup2\n      0xff\n      mul\n      not\n      and\n      swap1\n      dup4\n      iszero\n      iszero\n      mul\n      or\n      swap1\n      sstore\n      pop\n        /* \"@openzeppelin/contracts@4.9.6/security/Pausable.sol\":2274:2294  Paused(_msgSender()) */\n      0x62e78cea01bee320cd4e420270b5ea74000d11b0c9f74754ebdbfc544b05a258\n        /* \"@openzeppelin/contracts@4.9.6/security/Pausable.sol\":2281:2293  _msgSender() */\n      tag_227\n        /* \"@openzeppelin/contracts@4.9.6/security/Pausable.sol\":2281:2291  _msgSender */\n      tag_133\n        /* \"@openzeppelin/contracts@4.9.6/security/Pausable.sol\":2281:2293  _msgSender() */\n      jump\t// in\n    tag_227:\n        /* \"@openzeppelin/contracts@4.9.6/security/Pausable.sol\":2274:2294  Paused(_msgSender()) */\n      mload(0x40)\n      tag_228\n      swap2\n      swap1\n      tag_81\n      jump\t// in\n    tag_228:\n      mload(0x40)\n      dup1\n      swap2\n      sub\n      swap1\n      log1\n        /* \"@openzeppelin/contracts@4.9.6/security/Pausable.sol\":2186:2301  function _pause() internal virtual whenNotPaused {... */\n      jump\t// out\n        /* \"@openzeppelin/contracts@4.9.6/access/AccessControl.sol\":3844:4323  function _checkRole(bytes32 role, address account) internal view virtual {... */\n    tag_208:\n        /* \"@openzeppelin/contracts@4.9.6/access/AccessControl.sol\":3932:3954  hasRole(role, account) */\n      tag_230\n        /* \"@openzeppelin/contracts@4.9.6/access/AccessControl.sol\":3940:3944  role */\n      dup3\n        /* \"@openzeppelin/contracts@4.9.6/access/AccessControl.sol\":3946:3953  account */\n      dup3\n        /* \"@openzeppelin/contracts@4.9.6/access/AccessControl.sol\":3932:3939  hasRole */\n      tag_72\n        /* \"@openzeppelin/contracts@4.9.6/access/AccessControl.sol\":3932:3954  hasRole(role, account) */\n      jump\t// in\n    tag_230:\n        /* \"@openzeppelin/contracts@4.9.6/access/AccessControl.sol\":3927:4317  if (!hasRole(role, account)) {... */\n      tag_231\n      jumpi\n        /* \"@openzeppelin/contracts@4.9.6/access/AccessControl.sol\":4115:4143  Strings.toHexString(account) */\n      tag_232\n        /* \"@openzeppelin/contracts@4.9.6/access/AccessControl.sol\":4135:4142  account */\n      dup2\n        /* \"@openzeppelin/contracts@4.9.6/access/AccessControl.sol\":4115:4134  Strings.toHexString */\n      tag_233\n        /* \"@openzeppelin/contracts@4.9.6/access/AccessControl.sol\":4115:4143  Strings.toHexString(account) */\n      jump\t// in\n    tag_232:\n        /* \"@openzeppelin/contracts@4.9.6/access/AccessControl.sol\":4214:4252  Strings.toHexString(uint256(role), 32) */\n      tag_234\n        /* \"@openzeppelin/contracts@4.9.6/access/AccessControl.sol\":4242:4246  role */\n      dup4\n        /* \"@openzeppelin/contracts@4.9.6/access/AccessControl.sol\":4234:4247  uint256(role) */\n      0x00\n      shr\n        /* \"@openzeppelin/contracts@4.9.6/access/AccessControl.sol\":4249:4251  32 */\n      0x20\n        /* \"@openzeppelin/contracts@4.9.6/access/AccessControl.sol\":4214:4233  Strings.toHexString */\n      tag_235\n        /* \"@openzeppelin/contracts@4.9.6/access/AccessControl.sol\":4214:4252  Strings.toHexString(uint256(role), 32) */\n      jump\t// in\n    tag_234:\n        /* \"@openzeppelin/contracts@4.9.6/access/AccessControl.sol\":4022:4274  abi.encodePacked(... */\n      add(0x20, mload(0x40))\n      tag_236\n      swap3\n      swap2\n      swap1\n      tag_237\n      jump\t// in\n    tag_236:\n      mload(0x40)\n      0x20\n      dup2\n      dup4\n      sub\n      sub\n      dup2\n      mstore\n      swap1\n      0x40\n      mstore\n        /* \"@openzeppelin/contracts@4.9.6/access/AccessControl.sol\":3970:4306  revert(... */\n      mload(0x40)\n      0x08c379a000000000000000000000000000000000000000000000000000000000\n      dup2\n      mstore\n      0x04\n      add\n      tag_238\n      swap2\n      swap1\n      tag_239\n      jump\t// in\n    tag_238:\n      mload(0x40)\n      dup1\n      swap2\n      sub\n      swap1\n      revert\n        /* \"@openzeppelin/contracts@4.9.6/access/AccessControl.sol\":3927:4317  if (!hasRole(role, account)) {... */\n    tag_231:\n        /* \"@openzeppelin/contracts@4.9.6/access/AccessControl.sol\":3844:4323  function _checkRole(bytes32 role, address account) internal view virtual {... */\n      pop\n      pop\n      jump\t// out\n        /* \"@openzeppelin/contracts@4.9.6/security/Pausable.sol\":1945:2051  function _requirePaused() internal view virtual {... */\n    tag_220:\n        /* \"@openzeppelin/contracts@4.9.6/security/Pausable.sol\":2011:2019  paused() */\n      tag_241\n        /* \"@openzeppelin/contracts@4.9.6/security/Pausable.sol\":2011:2017  paused */\n      tag_58\n        /* \"@openzeppelin/contracts@4.9.6/security/Pausable.sol\":2011:2019  paused() */\n      jump\t// in\n    tag_241:\n        /* \"@openzeppelin/contracts@4.9.6/security/Pausable.sol\":2003:2044  require(paused(), \"Pausable: not paused\") */\n      tag_242\n      jumpi\n      mload(0x40)\n      0x08c379a000000000000000000000000000000000000000000000000000000000\n      dup2\n      mstore\n      0x04\n      add\n      tag_243\n      swap1\n      tag_244\n      jump\t// in\n    tag_243:\n      mload(0x40)\n      dup1\n      swap2\n      sub\n      swap1\n      revert\n    tag_242:\n        /* \"@openzeppelin/contracts@4.9.6/security/Pausable.sol\":1945:2051  function _requirePaused() internal view virtual {... */\n      jump\t// out\n        /* \"@openzeppelin/contracts@4.9.6/utils/Strings.sol\":2407:2556  function toHexString(address addr) internal pure returns (string memory) {... */\n    tag_233:\n        /* \"@openzeppelin/contracts@4.9.6/utils/Strings.sol\":2465:2478  string memory */\n      0x60\n        /* \"@openzeppelin/contracts@4.9.6/utils/Strings.sol\":2497:2549  toHexString(uint256(uint160(addr)), _ADDRESS_LENGTH) */\n      tag_246\n        /* \"@openzeppelin/contracts@4.9.6/utils/Strings.sol\":2525:2529  addr */\n      dup3\n        /* \"@openzeppelin/contracts@4.9.6/utils/Strings.sol\":2509:2531  uint256(uint160(addr)) */\n      0xffffffffffffffffffffffffffffffffffffffff\n      and\n        /* \"@openzeppelin/contracts@4.9.6/utils/Strings.sol\":343:345  20 */\n      0x14\n        /* \"@openzeppelin/contracts@4.9.6/utils/Strings.sol\":2497:2549  toHexString(uint256(uint160(addr)), _ADDRESS_LENGTH) */\n      0xff\n      and\n        /* \"@openzeppelin/contracts@4.9.6/utils/Strings.sol\":2497:2508  toHexString */\n      tag_235\n        /* \"@openzeppelin/contracts@4.9.6/utils/Strings.sol\":2497:2549  toHexString(uint256(uint160(addr)), _ADDRESS_LENGTH) */\n      jump\t// in\n    tag_246:\n        /* \"@openzeppelin/contracts@4.9.6/utils/Strings.sol\":2490:2549  return toHexString(uint256(uint160(addr)), _ADDRESS_LENGTH) */\n      swap1\n      pop\n        /* \"@openzeppelin/contracts@4.9.6/utils/Strings.sol\":2407:2556  function toHexString(address addr) internal pure returns (string memory) {... */\n      swap2\n      swap1\n      pop\n      jump\t// out\n        /* \"@openzeppelin/contracts@4.9.6/utils/Strings.sol\":1818:2255  function toHexString(uint256 value, uint256 length) internal pure returns (string memory) {... */\n    tag_235:\n        /* \"@openzeppelin/contracts@4.9.6/utils/Strings.sol\":1893:1906  string memory */\n      0x60\n        /* \"@openzeppelin/contracts@4.9.6/utils/Strings.sol\":1918:1937  bytes memory buffer */\n      0x00\n        /* \"@openzeppelin/contracts@4.9.6/utils/Strings.sol\":1963:1964  2 */\n      0x02\n        /* \"@openzeppelin/contracts@4.9.6/utils/Strings.sol\":1954:1960  length */\n      dup4\n        /* \"@openzeppelin/contracts@4.9.6/utils/Strings.sol\":1950:1951  2 */\n      0x02\n        /* \"@openzeppelin/contracts@4.9.6/utils/Strings.sol\":1950:1960  2 * length */\n      tag_248\n      swap2\n      swap1\n      tag_249\n      jump\t// in\n    tag_248:\n        /* \"@openzeppelin/contracts@4.9.6/utils/Strings.sol\":1950:1964  2 * length + 2 */\n      tag_250\n      swap2\n      swap1\n      tag_251\n      jump\t// in\n    tag_250:\n        /* \"@openzeppelin/contracts@4.9.6/utils/Strings.sol\":1940:1965  new bytes(2 * length + 2) */\n      0xffffffffffffffff\n      dup2\n      gt\n      iszero\n      tag_252\n      jumpi\n      tag_253\n      tag_254\n      jump\t// in\n    tag_253:\n    tag_252:\n      mload(0x40)\n      swap1\n      dup1\n      dup3\n      mstore\n      dup1\n      0x1f\n      add\n      not(0x1f)\n      and\n      0x20\n      add\n      dup3\n      add\n      0x40\n      mstore\n      dup1\n      iszero\n      tag_255\n      jumpi\n      dup2\n      0x20\n      add\n      0x01\n      dup3\n      mul\n      dup1\n      calldatasize\n      dup4\n      calldatacopy\n      dup1\n      dup3\n      add\n      swap2\n      pop\n      pop\n      swap1\n      pop\n    tag_255:\n      pop\n        /* \"@openzeppelin/contracts@4.9.6/utils/Strings.sol\":1918:1965  bytes memory buffer = new bytes(2 * length + 2) */\n      swap1\n      pop\n        /* \"@openzeppelin/contracts@4.9.6/utils/Strings.sol\":1975:1990  buffer[0] = \"0\" */\n      0x3000000000000000000000000000000000000000000000000000000000000000\n        /* \"@openzeppelin/contracts@4.9.6/utils/Strings.sol\":1975:1981  buffer */\n      dup2\n        /* \"@openzeppelin/contracts@4.9.6/utils/Strings.sol\":1982:1983  0 */\n      0x00\n        /* \"@openzeppelin/contracts@4.9.6/utils/Strings.sol\":1975:1984  buffer[0] */\n      dup2\n      mload\n      dup2\n      lt\n      tag_256\n      jumpi\n      tag_257\n      tag_258\n      jump\t// in\n    tag_257:\n    tag_256:\n      0x20\n      add\n      add\n        /* \"@openzeppelin/contracts@4.9.6/utils/Strings.sol\":1975:1990  buffer[0] = \"0\" */\n      swap1\n      not(0xffffffffffffffffffffffffffffffffffffffffffffffffffffffffffffff)\n      and\n      swap1\n      dup2\n      0x00\n      byte\n      swap1\n      mstore8\n      pop\n        /* \"@openzeppelin/contracts@4.9.6/utils/Strings.sol\":2000:2015  buffer[1] = \"x\" */\n      0x7800000000000000000000000000000000000000000000000000000000000000\n        /* \"@openzeppelin/contracts@4.9.6/utils/Strings.sol\":2000:2006  buffer */\n      dup2\n        /* \"@openzeppelin/contracts@4.9.6/utils/Strings.sol\":2007:2008  1 */\n      0x01\n        /* \"@openzeppelin/contracts@4.9.6/utils/Strings.sol\":2000:2009  buffer[1] */\n      dup2\n      mload\n      dup2\n      lt\n      tag_259\n      jumpi\n      tag_260\n      tag_258\n      jump\t// in\n    tag_260:\n    tag_259:\n      0x20\n      add\n      add\n        /* \"@openzeppelin/contracts@4.9.6/utils/Strings.sol\":2000:2015  buffer[1] = \"x\" */\n      swap1\n      not(0xffffffffffffffffffffffffffffffffffffffffffffffffffffffffffffff)\n      and\n      swap1\n      dup2\n      0x00\n      byte\n      swap1\n      mstore8\n      pop\n        /* \"@openzeppelin/contracts@4.9.6/utils/Strings.sol\":2030:2039  uint256 i */\n      0x00\n        /* \"@openzeppelin/contracts@4.9.6/utils/Strings.sol\":2055:2056  1 */\n      0x01\n        /* \"@openzeppelin/contracts@4.9.6/utils/Strings.sol\":2046:2052  length */\n      dup5\n        /* \"@openzeppelin/contracts@4.9.6/utils/Strings.sol\":2042:2043  2 */\n      0x02\n        /* \"@openzeppelin/contracts@4.9.6/utils/Strings.sol\":2042:2052  2 * length */\n      tag_264\n      swap2\n      swap1\n      tag_249\n      jump\t// in\n    tag_264:\n        /* \"@openzeppelin/contracts@4.9.6/utils/Strings.sol\":2042:2056  2 * length + 1 */\n      tag_265\n      swap2\n      swap1\n      tag_251\n      jump\t// in\n    tag_265:\n        /* \"@openzeppelin/contracts@4.9.6/utils/Strings.sol\":2030:2056  uint256 i = 2 * length + 1 */\n      swap1\n      pop\n        /* \"@openzeppelin/contracts@4.9.6/utils/Strings.sol\":2025:2153  for (uint256 i = 2 * length + 1; i > 1; --i) {... */\n    tag_261:\n        /* \"@openzeppelin/contracts@4.9.6/utils/Strings.sol\":2062:2063  1 */\n      0x01\n        /* \"@openzeppelin/contracts@4.9.6/utils/Strings.sol\":2058:2059  i */\n      dup2\n        /* \"@openzeppelin/contracts@4.9.6/utils/Strings.sol\":2058:2063  i > 1 */\n      gt\n        /* \"@openzeppelin/contracts@4.9.6/utils/Strings.sol\":2025:2153  for (uint256 i = 2 * length + 1; i > 1; --i) {... */\n      iszero\n      tag_262\n      jumpi\n        /* \"@openzeppelin/contracts@4.9.6/utils/Strings.sol\":2096:2104  _SYMBOLS */\n      0x3031323334353637383961626364656600000000000000000000000000000000\n        /* \"@openzeppelin/contracts@4.9.6/utils/Strings.sol\":2113:2116  0xf */\n      0x0f\n        /* \"@openzeppelin/contracts@4.9.6/utils/Strings.sol\":2105:2110  value */\n      dup7\n        /* \"@openzeppelin/contracts@4.9.6/utils/Strings.sol\":2105:2116  value & 0xf */\n      and\n        /* \"@openzeppelin/contracts@4.9.6/utils/Strings.sol\":2096:2117  _SYMBOLS[value & 0xf] */\n      0x10\n      dup2\n      lt\n      tag_266\n      jumpi\n      tag_267\n      tag_258\n      jump\t// in\n    tag_267:\n    tag_266:\n      byte\n      0xf8\n      shl\n        /* \"@openzeppelin/contracts@4.9.6/utils/Strings.sol\":2084:2090  buffer */\n      dup3\n        /* \"@openzeppelin/contracts@4.9.6/utils/Strings.sol\":2091:2092  i */\n      dup3\n        /* \"@openzeppelin/contracts@4.9.6/utils/Strings.sol\":2084:2093  buffer[i] */\n      dup2\n      mload\n      dup2\n      lt\n      tag_268\n      jumpi\n      tag_269\n      tag_258\n      jump\t// in\n    tag_269:\n    tag_268:\n      0x20\n      add\n      add\n        /* \"@openzeppelin/contracts@4.9.6/utils/Strings.sol\":2084:2117  buffer[i] = _SYMBOLS[value & 0xf] */\n      swap1\n      not(0xffffffffffffffffffffffffffffffffffffffffffffffffffffffffffffff)\n      and\n      swap1\n      dup2\n      0x00\n      byte\n      swap1\n      mstore8\n      pop\n        /* \"@openzeppelin/contracts@4.9.6/utils/Strings.sol\":2141:2142  4 */\n      0x04\n        /* \"@openzeppelin/contracts@4.9.6/utils/Strings.sol\":2131:2142  value >>= 4 */\n      dup6\n      swap1\n      shr\n      swap5\n      pop\n        /* \"@openzeppelin/contracts@4.9.6/utils/Strings.sol\":2065:2068  --i */\n      dup1\n      tag_270\n      swap1\n      tag_271\n      jump\t// in\n    tag_270:\n      swap1\n      pop\n        /* \"@openzeppelin/contracts@4.9.6/utils/Strings.sol\":2025:2153  for (uint256 i = 2 * length + 1; i > 1; --i) {... */\n      jump(tag_261)\n    tag_262:\n      pop\n        /* \"@openzeppelin/contracts@4.9.6/utils/Strings.sol\":2179:2180  0 */\n      0x00\n        /* \"@openzeppelin/contracts@4.9.6/utils/Strings.sol\":2170:2175  value */\n      dup5\n        /* \"@openzeppelin/contracts@4.9.6/utils/Strings.sol\":2170:2180  value == 0 */\n      eq\n        /* \"@openzeppelin/contracts@4.9.6/utils/Strings.sol\":2162:2217  require(value == 0, \"Strings: hex length insufficient\") */\n      tag_272\n      jumpi\n      mload(0x40)\n      0x08c379a000000000000000000000000000000000000000000000000000000000\n      dup2\n      mstore\n      0x04\n      add\n      tag_273\n      swap1\n      tag_274\n      jump\t// in\n    tag_273:\n      mload(0x40)\n      dup1\n      swap2\n      sub\n      swap1\n      revert\n    tag_272:\n        /* \"@openzeppelin/contracts@4.9.6/utils/Strings.sol\":2241:2247  buffer */\n      dup1\n        /* \"@openzeppelin/contracts@4.9.6/utils/Strings.sol\":2227:2248  return string(buffer) */\n      swap2\n      pop\n      pop\n        /* \"@openzeppelin/contracts@4.9.6/utils/Strings.sol\":1818:2255  function toHexString(uint256 value, uint256 length) internal pure returns (string memory) {... */\n      swap3\n      swap2\n      pop\n      pop\n      jump\t// out\n        /* \"#utility.yul\":88:205   */\n    tag_276:\n        /* \"#utility.yul\":197:198   */\n      0x00\n        /* \"#utility.yul\":194:195   */\n      0x00\n        /* \"#utility.yul\":187:199   */\n      revert\n        /* \"#utility.yul\":211:328   */\n    tag_277:\n        /* \"#utility.yul\":320:321   */\n      0x00\n        /* \"#utility.yul\":317:318   */\n      0x00\n        /* \"#utility.yul\":310:322   */\n      revert\n        /* \"#utility.yul\":334:483   */\n    tag_278:\n        /* \"#utility.yul\":370:377   */\n      0x00\n        /* \"#utility.yul\":410:476   */\n      0xffffffff00000000000000000000000000000000000000000000000000000000\n        /* \"#utility.yul\":403:408   */\n      dup3\n        /* \"#utility.yul\":399:477   */\n      and\n        /* \"#utility.yul\":388:477   */\n      swap1\n      pop\n        /* \"#utility.yul\":334:483   */\n      swap2\n      swap1\n      pop\n      jump\t// out\n        /* \"#utility.yul\":489:609   */\n    tag_279:\n        /* \"#utility.yul\":561:584   */\n      tag_362\n        /* \"#utility.yul\":578:583   */\n      dup2\n        /* \"#utility.yul\":561:584   */\n      tag_278\n      jump\t// in\n    tag_362:\n        /* \"#utility.yul\":554:559   */\n      dup2\n        /* \"#utility.yul\":551:585   */\n      eq\n        /* \"#utility.yul\":541:603   */\n      tag_363\n      jumpi\n        /* \"#utility.yul\":599:600   */\n      0x00\n        /* \"#utility.yul\":596:597   */\n      0x00\n        /* \"#utility.yul\":589:601   */\n      revert\n        /* \"#utility.yul\":541:603   */\n    tag_363:\n        /* \"#utility.yul\":489:609   */\n      pop\n      jump\t// out\n        /* \"#utility.yul\":615:752   */\n    tag_280:\n        /* \"#utility.yul\":660:665   */\n      0x00\n        /* \"#utility.yul\":698:704   */\n      dup2\n        /* \"#utility.yul\":685:705   */\n      calldataload\n        /* \"#utility.yul\":676:705   */\n      swap1\n      pop\n        /* \"#utility.yul\":714:746   */\n      tag_365\n        /* \"#utility.yul\":740:745   */\n      dup2\n        /* \"#utility.yul\":714:746   */\n      tag_279\n      jump\t// in\n    tag_365:\n        /* \"#utility.yul\":615:752   */\n      swap3\n      swap2\n      pop\n      pop\n      jump\t// out\n        /* \"#utility.yul\":758:1085   */\n    tag_27:\n        /* \"#utility.yul\":816:822   */\n      0x00\n        /* \"#utility.yul\":865:867   */\n      0x20\n        /* \"#utility.yul\":853:862   */\n      dup3\n        /* \"#utility.yul\":844:851   */\n      dup5\n        /* \"#utility.yul\":840:863   */\n      sub\n        /* \"#utility.yul\":836:868   */\n      slt\n        /* \"#utility.yul\":833:952   */\n      iszero\n      tag_367\n      jumpi\n        /* \"#utility.yul\":871:950   */\n      tag_368\n      tag_276\n      jump\t// in\n    tag_368:\n        /* \"#utility.yul\":833:952   */\n    tag_367:\n        /* \"#utility.yul\":991:992   */\n      0x00\n        /* \"#utility.yul\":1016:1068   */\n      tag_369\n        /* \"#utility.yul\":1060:1067   */\n      dup5\n        /* \"#utility.yul\":1051:1057   */\n      dup3\n        /* \"#utility.yul\":1040:1049   */\n      dup6\n        /* \"#utility.yul\":1036:1058   */\n      add\n        /* \"#utility.yul\":1016:1068   */\n      tag_280\n      jump\t// in\n    tag_369:\n        /* \"#utility.yul\":1006:1068   */\n      swap2\n      pop\n        /* \"#utility.yul\":962:1078   */\n      pop\n        /* \"#utility.yul\":758:1085   */\n      swap3\n      swap2\n      pop\n      pop\n      jump\t// out\n        /* \"#utility.yul\":1091:1181   */\n    tag_281:\n        /* \"#utility.yul\":1125:1132   */\n      0x00\n        /* \"#utility.yul\":1168:1173   */\n      dup2\n        /* \"#utility.yul\":1161:1174   */\n      iszero\n        /* \"#utility.yul\":1154:1175   */\n      iszero\n        /* \"#utility.yul\":1143:1175   */\n      swap1\n      pop\n        /* \"#utility.yul\":1091:1181   */\n      swap2\n      swap1\n      pop\n      jump\t// out\n        /* \"#utility.yul\":1187:1296   */\n    tag_282:\n        /* \"#utility.yul\":1268:1289   */\n      tag_372\n        /* \"#utility.yul\":1283:1288   */\n      dup2\n        /* \"#utility.yul\":1268:1289   */\n      tag_281\n      jump\t// in\n    tag_372:\n        /* \"#utility.yul\":1263:1266   */\n      dup3\n        /* \"#utility.yul\":1256:1290   */\n      mstore\n        /* \"#utility.yul\":1187:1296   */\n      pop\n      pop\n      jump\t// out\n        /* \"#utility.yul\":1302:1512   */\n    tag_30:\n        /* \"#utility.yul\":1389:1393   */\n      0x00\n        /* \"#utility.yul\":1427:1429   */\n      0x20\n        /* \"#utility.yul\":1416:1425   */\n      dup3\n        /* \"#utility.yul\":1412:1430   */\n      add\n        /* \"#utility.yul\":1404:1430   */\n      swap1\n      pop\n        /* \"#utility.yul\":1440:1505   */\n      tag_374\n        /* \"#utility.yul\":1502:1503   */\n      0x00\n        /* \"#utility.yul\":1491:1500   */\n      dup4\n        /* \"#utility.yul\":1487:1504   */\n      add\n        /* \"#utility.yul\":1478:1484   */\n      dup5\n        /* \"#utility.yul\":1440:1505   */\n      tag_282\n      jump\t// in\n    tag_374:\n        /* \"#utility.yul\":1302:1512   */\n      swap3\n      swap2\n      pop\n      pop\n      jump\t// out\n        /* \"#utility.yul\":1518:1595   */\n    tag_283:\n        /* \"#utility.yul\":1555:1562   */\n      0x00\n        /* \"#utility.yul\":1584:1589   */\n      dup2\n        /* \"#utility.yul\":1573:1589   */\n      swap1\n      pop\n        /* \"#utility.yul\":1518:1595   */\n      swap2\n      swap1\n      pop\n      jump\t// out\n        /* \"#utility.yul\":1601:1723   */\n    tag_284:\n        /* \"#utility.yul\":1674:1698   */\n      tag_377\n        /* \"#utility.yul\":1692:1697   */\n      dup2\n        /* \"#utility.yul\":1674:1698   */\n      tag_283\n      jump\t// in\n    tag_377:\n        /* \"#utility.yul\":1667:1672   */\n      dup2\n        /* \"#utility.yul\":1664:1699   */\n      eq\n        /* \"#utility.yul\":1654:1717   */\n      tag_378\n      jumpi\n        /* \"#utility.yul\":1713:1714   */\n      0x00\n        /* \"#utility.yul\":1710:1711   */\n      0x00\n        /* \"#utility.yul\":1703:1715   */\n      revert\n        /* \"#utility.yul\":1654:1717   */\n    tag_378:\n        /* \"#utility.yul\":1601:1723   */\n      pop\n      jump\t// out\n        /* \"#utility.yul\":1729:1868   */\n    tag_285:\n        /* \"#utility.yul\":1775:1780   */\n      0x00\n        /* \"#utility.yul\":1813:1819   */\n      dup2\n        /* \"#utility.yul\":1800:1820   */\n      calldataload\n        /* \"#utility.yul\":1791:1820   */\n      swap1\n      pop\n        /* \"#utility.yul\":1829:1862   */\n      tag_380\n        /* \"#utility.yul\":1856:1861   */\n      dup2\n        /* \"#utility.yul\":1829:1862   */\n      tag_284\n      jump\t// in\n    tag_380:\n        /* \"#utility.yul\":1729:1868   */\n      swap3\n      swap2\n      pop\n      pop\n      jump\t// out\n        /* \"#utility.yul\":1874:1991   */\n    tag_286:\n        /* \"#utility.yul\":1983:1984   */\n      0x00\n        /* \"#utility.yul\":1980:1981   */\n      0x00\n        /* \"#utility.yul\":1973:1985   */\n      revert\n        /* \"#utility.yul\":1997:2114   */\n    tag_287:\n        /* \"#utility.yul\":2106:2107   */\n      0x00\n        /* \"#utility.yul\":2103:2104   */\n      0x00\n        /* \"#utility.yul\":2096:2108   */\n      revert\n        /* \"#utility.yul\":2120:2237   */\n    tag_288:\n        /* \"#utility.yul\":2229:2230   */\n      0x00\n        /* \"#utility.yul\":2226:2227   */\n      0x00\n        /* \"#utility.yul\":2219:2231   */\n      revert\n        /* \"#utility.yul\":2257:2810   */\n    tag_289:\n        /* \"#utility.yul\":2315:2323   */\n      0x00\n        /* \"#utility.yul\":2325:2331   */\n      0x00\n        /* \"#utility.yul\":2375:2378   */\n      dup4\n        /* \"#utility.yul\":2368:2372   */\n      0x1f\n        /* \"#utility.yul\":2360:2366   */\n      dup5\n        /* \"#utility.yul\":2356:2373   */\n      add\n        /* \"#utility.yul\":2352:2379   */\n      slt\n        /* \"#utility.yul\":2342:2464   */\n      tag_385\n      jumpi\n        /* \"#utility.yul\":2383:2462   */\n      tag_386\n      tag_286\n      jump\t// in\n    tag_386:\n        /* \"#utility.yul\":2342:2464   */\n    tag_385:\n        /* \"#utility.yul\":2496:2502   */\n      dup3\n        /* \"#utility.yul\":2483:2503   */\n      calldataload\n        /* \"#utility.yul\":2473:2503   */\n      swap1\n      pop\n        /* \"#utility.yul\":2526:2544   */\n      0xffffffffffffffff\n        /* \"#utility.yul\":2518:2524   */\n      dup2\n        /* \"#utility.yul\":2515:2545   */\n      gt\n        /* \"#utility.yul\":2512:2629   */\n      iszero\n      tag_387\n      jumpi\n        /* \"#utility.yul\":2548:2627   */\n      tag_388\n      tag_287\n      jump\t// in\n    tag_388:\n        /* \"#utility.yul\":2512:2629   */\n    tag_387:\n        /* \"#utility.yul\":2662:2666   */\n      0x20\n        /* \"#utility.yul\":2654:2660   */\n      dup4\n        /* \"#utility.yul\":2650:2667   */\n      add\n        /* \"#utility.yul\":2638:2667   */\n      swap2\n      pop\n        /* \"#utility.yul\":2716:2719   */\n      dup4\n        /* \"#utility.yul\":2708:2712   */\n      0x01\n        /* \"#utility.yul\":2700:2706   */\n      dup3\n        /* \"#utility.yul\":2696:2713   */\n      mul\n        /* \"#utility.yul\":2686:2694   */\n      dup4\n        /* \"#utility.yul\":2682:2714   */\n      add\n        /* \"#utility.yul\":2679:2720   */\n      gt\n        /* \"#utility.yul\":2676:2804   */\n      iszero\n      tag_389\n      jumpi\n        /* \"#utility.yul\":2723:2802   */\n      tag_390\n      tag_288\n      jump\t// in\n    tag_390:\n        /* \"#utility.yul\":2676:2804   */\n    tag_389:\n        /* \"#utility.yul\":2257:2810   */\n      swap3\n      pop\n      swap3\n      swap1\n      pop\n      jump\t// out\n        /* \"#utility.yul\":2816:2893   */\n    tag_290:\n        /* \"#utility.yul\":2853:2860   */\n      0x00\n        /* \"#utility.yul\":2882:2887   */\n      dup2\n        /* \"#utility.yul\":2871:2887   */\n      swap1\n      pop\n        /* \"#utility.yul\":2816:2893   */\n      swap2\n      swap1\n      pop\n      jump\t// out\n        /* \"#utility.yul\":2899:3021   */\n    tag_291:\n        /* \"#utility.yul\":2972:2996   */\n      tag_393\n        /* \"#utility.yul\":2990:2995   */\n      dup2\n        /* \"#utility.yul\":2972:2996   */\n      tag_290\n      jump\t// in\n    tag_393:\n        /* \"#utility.yul\":2965:2970   */\n      dup2\n        /* \"#utility.yul\":2962:2997   */\n      eq\n        /* \"#utility.yul\":2952:3015   */\n      tag_394\n      jumpi\n        /* \"#utility.yul\":3011:3012   */\n      0x00\n        /* \"#utility.yul\":3008:3009   */\n      0x00\n        /* \"#utility.yul\":3001:3013   */\n      revert\n        /* \"#utility.yul\":2952:3015   */\n    tag_394:\n        /* \"#utility.yul\":2899:3021   */\n      pop\n      jump\t// out\n        /* \"#utility.yul\":3027:3166   */\n    tag_292:\n        /* \"#utility.yul\":3073:3078   */\n      0x00\n        /* \"#utility.yul\":3111:3117   */\n      dup2\n        /* \"#utility.yul\":3098:3118   */\n      calldataload\n        /* \"#utility.yul\":3089:3118   */\n      swap1\n      pop\n        /* \"#utility.yul\":3127:3160   */\n      tag_396\n        /* \"#utility.yul\":3154:3159   */\n      dup2\n        /* \"#utility.yul\":3127:3160   */\n      tag_291\n      jump\t// in\n    tag_396:\n        /* \"#utility.yul\":3027:3166   */\n      swap3\n      swap2\n      pop\n      pop\n      jump\t// out\n        /* \"#utility.yul\":3188:3768   */\n    tag_293:\n        /* \"#utility.yul\":3273:3281   */\n      0x00\n        /* \"#utility.yul\":3283:3289   */\n      0x00\n        /* \"#utility.yul\":3333:3336   */\n      dup4\n        /* \"#utility.yul\":3326:3330   */\n      0x1f\n        /* \"#utility.yul\":3318:3324   */\n      dup5\n        /* \"#utility.yul\":3314:3331   */\n      add\n        /* \"#utility.yul\":3310:3337   */\n      slt\n        /* \"#utility.yul\":3300:3422   */\n      tag_398\n      jumpi\n        /* \"#utility.yul\":3341:3420   */\n      tag_399\n      tag_286\n      jump\t// in\n    tag_399:\n        /* \"#utility.yul\":3300:3422   */\n    tag_398:\n        /* \"#utility.yul\":3454:3460   */\n      dup3\n        /* \"#utility.yul\":3441:3461   */\n      calldataload\n        /* \"#utility.yul\":3431:3461   */\n      swap1\n      pop\n        /* \"#utility.yul\":3484:3502   */\n      0xffffffffffffffff\n        /* \"#utility.yul\":3476:3482   */\n      dup2\n        /* \"#utility.yul\":3473:3503   */\n      gt\n        /* \"#utility.yul\":3470:3587   */\n      iszero\n      tag_400\n      jumpi\n        /* \"#utility.yul\":3506:3585   */\n      tag_401\n      tag_287\n      jump\t// in\n    tag_401:\n        /* \"#utility.yul\":3470:3587   */\n    tag_400:\n        /* \"#utility.yul\":3620:3624   */\n      0x20\n        /* \"#utility.yul\":3612:3618   */\n      dup4\n        /* \"#utility.yul\":3608:3625   */\n      add\n        /* \"#utility.yul\":3596:3625   */\n      swap2\n      pop\n        /* \"#utility.yul\":3674:3677   */\n      dup4\n        /* \"#utility.yul\":3666:3670   */\n      0x20\n        /* \"#utility.yul\":3658:3664   */\n      dup3\n        /* \"#utility.yul\":3654:3671   */\n      mul\n        /* \"#utility.yul\":3644:3652   */\n      dup4\n        /* \"#utility.yul\":3640:3672   */\n      add\n        /* \"#utility.yul\":3637:3678   */\n      gt\n        /* \"#utility.yul\":3634:3762   */\n      iszero\n      tag_402\n      jumpi\n        /* \"#utility.yul\":3681:3760   */\n      tag_403\n      tag_288\n      jump\t// in\n    tag_403:\n        /* \"#utility.yul\":3634:3762   */\n    tag_402:\n        /* \"#utility.yul\":3188:3768   */\n      swap3\n      pop\n      swap3\n      swap1\n      pop\n      jump\t// out\n        /* \"#utility.yul\":3774:5139   */\n    tag_33:\n        /* \"#utility.yul\":3920:3926   */\n      0x00\n        /* \"#utility.yul\":3928:3934   */\n      0x00\n        /* \"#utility.yul\":3936:3942   */\n      0x00\n        /* \"#utility.yul\":3944:3950   */\n      0x00\n        /* \"#utility.yul\":3952:3958   */\n      0x00\n        /* \"#utility.yul\":3960:3966   */\n      0x00\n        /* \"#utility.yul\":3968:3974   */\n      0x00\n        /* \"#utility.yul\":4017:4020   */\n      0xa0\n        /* \"#utility.yul\":4005:4014   */\n      dup9\n        /* \"#utility.yul\":3996:4003   */\n      dup11\n        /* \"#utility.yul\":3992:4015   */\n      sub\n        /* \"#utility.yul\":3988:4021   */\n      slt\n        /* \"#utility.yul\":3985:4105   */\n      iszero\n      tag_405\n      jumpi\n        /* \"#utility.yul\":4024:4103   */\n      tag_406\n      tag_276\n      jump\t// in\n    tag_406:\n        /* \"#utility.yul\":3985:4105   */\n    tag_405:\n        /* \"#utility.yul\":4144:4145   */\n      0x00\n        /* \"#utility.yul\":4169:4222   */\n      tag_407\n        /* \"#utility.yul\":4214:4221   */\n      dup11\n        /* \"#utility.yul\":4205:4211   */\n      dup3\n        /* \"#utility.yul\":4194:4203   */\n      dup12\n        /* \"#utility.yul\":4190:4212   */\n      add\n        /* \"#utility.yul\":4169:4222   */\n      tag_285\n      jump\t// in\n    tag_407:\n        /* \"#utility.yul\":4159:4222   */\n      swap8\n      pop\n        /* \"#utility.yul\":4115:4232   */\n      pop\n        /* \"#utility.yul\":4299:4301   */\n      0x20\n        /* \"#utility.yul\":4288:4297   */\n      dup9\n        /* \"#utility.yul\":4284:4302   */\n      add\n        /* \"#utility.yul\":4271:4303   */\n      calldataload\n        /* \"#utility.yul\":4330:4348   */\n      0xffffffffffffffff\n        /* \"#utility.yul\":4322:4328   */\n      dup2\n        /* \"#utility.yul\":4319:4349   */\n      gt\n        /* \"#utility.yul\":4316:4433   */\n      iszero\n      tag_408\n      jumpi\n        /* \"#utility.yul\":4352:4431   */\n      tag_409\n      tag_277\n      jump\t// in\n    tag_409:\n        /* \"#utility.yul\":4316:4433   */\n    tag_408:\n        /* \"#utility.yul\":4465:4530   */\n      tag_410\n        /* \"#utility.yul\":4522:4529   */\n      dup11\n        /* \"#utility.yul\":4513:4519   */\n      dup3\n        /* \"#utility.yul\":4502:4511   */\n      dup12\n        /* \"#utility.yul\":4498:4520   */\n      add\n        /* \"#utility.yul\":4465:4530   */\n      tag_289\n      jump\t// in\n    tag_410:\n        /* \"#utility.yul\":4447:4530   */\n      swap7\n      pop\n      swap7\n      pop\n        /* \"#utility.yul\":4242:4540   */\n      pop\n        /* \"#utility.yul\":4579:4581   */\n      0x40\n        /* \"#utility.yul\":4605:4658   */\n      tag_411\n        /* \"#utility.yul\":4650:4657   */\n      dup11\n        /* \"#utility.yul\":4641:4647   */\n      dup3\n        /* \"#utility.yul\":4630:4639   */\n      dup12\n        /* \"#utility.yul\":4626:4648   */\n      add\n        /* \"#utility.yul\":4605:4658   */\n      tag_292\n      jump\t// in\n    tag_411:\n        /* \"#utility.yul\":4595:4658   */\n      swap5\n      pop\n        /* \"#utility.yul\":4550:4668   */\n      pop\n        /* \"#utility.yul\":4707:4709   */\n      0x60\n        /* \"#utility.yul\":4733:4786   */\n      tag_412\n        /* \"#utility.yul\":4778:4785   */\n      dup11\n        /* \"#utility.yul\":4769:4775   */\n      dup3\n        /* \"#utility.yul\":4758:4767   */\n      dup12\n        /* \"#utility.yul\":4754:4776   */\n      add\n        /* \"#utility.yul\":4733:4786   */\n      tag_292\n      jump\t// in\n    tag_412:\n        /* \"#utility.yul\":4723:4786   */\n      swap4\n      pop\n        /* \"#utility.yul\":4678:4796   */\n      pop\n        /* \"#utility.yul\":4863:4866   */\n      0x80\n        /* \"#utility.yul\":4852:4861   */\n      dup9\n        /* \"#utility.yul\":4848:4867   */\n      add\n        /* \"#utility.yul\":4835:4868   */\n      calldataload\n        /* \"#utility.yul\":4895:4913   */\n      0xffffffffffffffff\n        /* \"#utility.yul\":4887:4893   */\n      dup2\n        /* \"#utility.yul\":4884:4914   */\n      gt\n        /* \"#utility.yul\":4881:4998   */\n      iszero\n      tag_413\n      jumpi\n        /* \"#utility.yul\":4917:4996   */\n      tag_414\n      tag_277\n      jump\t// in\n    tag_414:\n        /* \"#utility.yul\":4881:4998   */\n    tag_413:\n        /* \"#utility.yul\":5030:5122   */\n      tag_415\n        /* \"#utility.yul\":5114:5121   */\n      dup11\n        /* \"#utility.yul\":5105:5111   */\n      dup3\n        /* \"#utility.yul\":5094:5103   */\n      dup12\n        /* \"#utility.yul\":5090:5112   */\n      add\n        /* \"#utility.yul\":5030:5122   */\n      tag_293\n      jump\t// in\n    tag_415:\n        /* \"#utility.yul\":5012:5122   */\n      swap3\n      pop\n      swap3\n      pop\n        /* \"#utility.yul\":4806:5132   */\n      pop\n        /* \"#utility.yul\":3774:5139   */\n      swap3\n      swap6\n      swap9\n      swap2\n      swap5\n      swap8\n      pop\n      swap3\n      swap6\n      pop\n      jump\t// out\n        /* \"#utility.yul\":5145:5474   */\n    tag_37:\n        /* \"#utility.yul\":5204:5210   */\n      0x00\n        /* \"#utility.yul\":5253:5255   */\n      0x20\n        /* \"#utility.yul\":5241:5250   */\n      dup3\n        /* \"#utility.yul\":5232:5239   */\n      dup5\n        /* \"#utility.yul\":5228:5251   */\n      sub\n        /* \"#utility.yul\":5224:5256   */\n      slt\n        /* \"#utility.yul\":5221:5340   */\n      iszero\n      tag_417\n      jumpi\n        /* \"#utility.yul\":5259:5338   */\n      tag_418\n      tag_276\n      jump\t// in\n    tag_418:\n        /* \"#utility.yul\":5221:5340   */\n    tag_417:\n        /* \"#utility.yul\":5379:5380   */\n      0x00\n        /* \"#utility.yul\":5404:5457   */\n      tag_419\n        /* \"#utility.yul\":5449:5456   */\n      dup5\n        /* \"#utility.yul\":5440:5446   */\n      dup3\n        /* \"#utility.yul\":5429:5438   */\n      dup6\n        /* \"#utility.yul\":5425:5447   */\n      add\n        /* \"#utility.yul\":5404:5457   */\n      tag_285\n      jump\t// in\n    tag_419:\n        /* \"#utility.yul\":5394:5457   */\n      swap2\n      pop\n        /* \"#utility.yul\":5350:5467   */\n      pop\n        /* \"#utility.yul\":5145:5474   */\n      swap3\n      swap2\n      pop\n      pop\n      jump\t// out\n        /* \"#utility.yul\":5480:5598   */\n    tag_294:\n        /* \"#utility.yul\":5567:5591   */\n      tag_421\n        /* \"#utility.yul\":5585:5590   */\n      dup2\n        /* \"#utility.yul\":5567:5591   */\n      tag_283\n      jump\t// in\n    tag_421:\n        /* \"#utility.yul\":5562:5565   */\n      dup3\n        /* \"#utility.yul\":5555:5592   */\n      mstore\n        /* \"#utility.yul\":5480:5598   */\n      pop\n      pop\n      jump\t// out\n        /* \"#utility.yul\":5604:5826   */\n    tag_43:\n        /* \"#utility.yul\":5697:5701   */\n      0x00\n        /* \"#utility.yul\":5735:5737   */\n      0x20\n        /* \"#utility.yul\":5724:5733   */\n      dup3\n        /* \"#utility.yul\":5720:5738   */\n      add\n        /* \"#utility.yul\":5712:5738   */\n      swap1\n      pop\n        /* \"#utility.yul\":5748:5819   */\n      tag_423\n        /* \"#utility.yul\":5816:5817   */\n      0x00\n        /* \"#utility.yul\":5805:5814   */\n      dup4\n        /* \"#utility.yul\":5801:5818   */\n      add\n        /* \"#utility.yul\":5792:5798   */\n      dup5\n        /* \"#utility.yul\":5748:5819   */\n      tag_294\n      jump\t// in\n    tag_423:\n        /* \"#utility.yul\":5604:5826   */\n      swap3\n      swap2\n      pop\n      pop\n      jump\t// out\n        /* \"#utility.yul\":5832:5958   */\n    tag_295:\n        /* \"#utility.yul\":5869:5876   */\n      0x00\n        /* \"#utility.yul\":5909:5951   */\n      0xffffffffffffffffffffffffffffffffffffffff\n        /* \"#utility.yul\":5902:5907   */\n      dup3\n        /* \"#utility.yul\":5898:5952   */\n      and\n        /* \"#utility.yul\":5887:5952   */\n      swap1\n      pop\n        /* \"#utility.yul\":5832:5958   */\n      swap2\n      swap1\n      pop\n      jump\t// out\n        /* \"#utility.yul\":5964:6060   */\n    tag_296:\n        /* \"#utility.yul\":6001:6008   */\n      0x00\n        /* \"#utility.yul\":6030:6054   */\n      tag_426\n        /* \"#utility.yul\":6048:6053   */\n      dup3\n        /* \"#utility.yul\":6030:6054   */\n      tag_295\n      jump\t// in\n    tag_426:\n        /* \"#utility.yul\":6019:6054   */\n      swap1\n      pop\n        /* \"#utility.yul\":5964:6060   */\n      swap2\n      swap1\n      pop\n      jump\t// out\n        /* \"#utility.yul\":6066:6188   */\n    tag_297:\n        /* \"#utility.yul\":6139:6163   */\n      tag_428\n        /* \"#utility.yul\":6157:6162   */\n      dup2\n        /* \"#utility.yul\":6139:6163   */\n      tag_296\n      jump\t// in\n    tag_428:\n        /* \"#utility.yul\":6132:6137   */\n      dup2\n        /* \"#utility.yul\":6129:6164   */\n      eq\n        /* \"#utility.yul\":6119:6182   */\n      tag_429\n      jumpi\n        /* \"#utility.yul\":6178:6179   */\n      0x00\n        /* \"#utility.yul\":6175:6176   */\n      0x00\n        /* \"#utility.yul\":6168:6180   */\n      revert\n        /* \"#utility.yul\":6119:6182   */\n    tag_429:\n        /* \"#utility.yul\":6066:6188   */\n      pop\n      jump\t// out\n        /* \"#utility.yul\":6194:6333   */\n    tag_298:\n        /* \"#utility.yul\":6240:6245   */\n      0x00\n        /* \"#utility.yul\":6278:6284   */\n      dup2\n        /* \"#utility.yul\":6265:6285   */\n      calldataload\n        /* \"#utility.yul\":6256:6285   */\n      swap1\n      pop\n        /* \"#utility.yul\":6294:6327   */\n      tag_431\n        /* \"#utility.yul\":6321:6326   */\n      dup2\n        /* \"#utility.yul\":6294:6327   */\n      tag_297\n      jump\t// in\n    tag_431:\n        /* \"#utility.yul\":6194:6333   */\n      swap3\n      swap2\n      pop\n      pop\n      jump\t// out\n        /* \"#utility.yul\":6339:6813   */\n    tag_46:\n        /* \"#utility.yul\":6407:6413   */\n      0x00\n        /* \"#utility.yul\":6415:6421   */\n      0x00\n        /* \"#utility.yul\":6464:6466   */\n      0x40\n        /* \"#utility.yul\":6452:6461   */\n      dup4\n        /* \"#utility.yul\":6443:6450   */\n      dup6\n        /* \"#utility.yul\":6439:6462   */\n      sub\n        /* \"#utility.yul\":6435:6467   */\n      slt\n        /* \"#utility.yul\":6432:6551   */\n      iszero\n      tag_433\n      jumpi\n        /* \"#utility.yul\":6470:6549   */\n      tag_434\n      tag_276\n      jump\t// in\n    tag_434:\n        /* \"#utility.yul\":6432:6551   */\n    tag_433:\n        /* \"#utility.yul\":6590:6591   */\n      0x00\n        /* \"#utility.yul\":6615:6668   */\n      tag_435\n        /* \"#utility.yul\":6660:6667   */\n      dup6\n        /* \"#utility.yul\":6651:6657   */\n      dup3\n        /* \"#utility.yul\":6640:6649   */\n      dup7\n        /* \"#utility.yul\":6636:6658   */\n      add\n        /* \"#utility.yul\":6615:6668   */\n      tag_285\n      jump\t// in\n    tag_435:\n        /* \"#utility.yul\":6605:6668   */\n      swap3\n      pop\n        /* \"#utility.yul\":6561:6678   */\n      pop\n        /* \"#utility.yul\":6717:6719   */\n      0x20\n        /* \"#utility.yul\":6743:6796   */\n      tag_436\n        /* \"#utility.yul\":6788:6795   */\n      dup6\n        /* \"#utility.yul\":6779:6785   */\n      dup3\n        /* \"#utility.yul\":6768:6777   */\n      dup7\n        /* \"#utility.yul\":6764:6786   */\n      add\n        /* \"#utility.yul\":6743:6796   */\n      tag_298\n      jump\t// in\n    tag_436:\n        /* \"#utility.yul\":6733:6796   */\n      swap2\n      pop\n        /* \"#utility.yul\":6688:6806   */\n      pop\n        /* \"#utility.yul\":6339:6813   */\n      swap3\n      pop\n      swap3\n      swap1\n      pop\n      jump\t// out\n        /* \"#utility.yul\":6819:6935   */\n    tag_299:\n        /* \"#utility.yul\":6889:6910   */\n      tag_438\n        /* \"#utility.yul\":6904:6909   */\n      dup2\n        /* \"#utility.yul\":6889:6910   */\n      tag_281\n      jump\t// in\n    tag_438:\n        /* \"#utility.yul\":6882:6887   */\n      dup2\n        /* \"#utility.yul\":6879:6911   */\n      eq\n        /* \"#utility.yul\":6869:6929   */\n      tag_439\n      jumpi\n        /* \"#utility.yul\":6925:6926   */\n      0x00\n        /* \"#utility.yul\":6922:6923   */\n      0x00\n        /* \"#utility.yul\":6915:6927   */\n      revert\n        /* \"#utility.yul\":6869:6929   */\n    tag_439:\n        /* \"#utility.yul\":6819:6935   */\n      pop\n      jump\t// out\n        /* \"#utility.yul\":6941:7074   */\n    tag_300:\n        /* \"#utility.yul\":6984:6989   */\n      0x00\n        /* \"#utility.yul\":7022:7028   */\n      dup2\n        /* \"#utility.yul\":7009:7029   */\n      calldataload\n        /* \"#utility.yul\":7000:7029   */\n      swap1\n      pop\n        /* \"#utility.yul\":7038:7068   */\n      tag_441\n        /* \"#utility.yul\":7062:7067   */\n      dup2\n        /* \"#utility.yul\":7038:7068   */\n      tag_299\n      jump\t// in\n    tag_441:\n        /* \"#utility.yul\":6941:7074   */\n      swap3\n      swap2\n      pop\n      pop\n      jump\t// out\n        /* \"#utility.yul\":7080:7548   */\n    tag_55:\n        /* \"#utility.yul\":7145:7151   */\n      0x00\n        /* \"#utility.yul\":7153:7159   */\n      0x00\n        /* \"#utility.yul\":7202:7204   */\n      0x40\n        /* \"#utility.yul\":7190:7199   */\n      dup4\n        /* \"#utility.yul\":7181:7188   */\n      dup6\n        /* \"#utility.yul\":7177:7200   */\n      sub\n        /* \"#utility.yul\":7173:7205   */\n      slt\n        /* \"#utility.yul\":7170:7289   */\n      iszero\n      tag_443\n      jumpi\n        /* \"#utility.yul\":7208:7287   */\n      tag_444\n      tag_276\n      jump\t// in\n    tag_444:\n        /* \"#utility.yul\":7170:7289   */\n    tag_443:\n        /* \"#utility.yul\":7328:7329   */\n      0x00\n        /* \"#utility.yul\":7353:7406   */\n      tag_445\n        /* \"#utility.yul\":7398:7405   */\n      dup6\n        /* \"#utility.yul\":7389:7395   */\n      dup3\n        /* \"#utility.yul\":7378:7387   */\n      dup7\n        /* \"#utility.yul\":7374:7396   */\n      add\n        /* \"#utility.yul\":7353:7406   */\n      tag_298\n      jump\t// in\n    tag_445:\n        /* \"#utility.yul\":7343:7406   */\n      swap3\n      pop\n        /* \"#utility.yul\":7299:7416   */\n      pop\n        /* \"#utility.yul\":7455:7457   */\n      0x20\n        /* \"#utility.yul\":7481:7531   */\n      tag_446\n        /* \"#utility.yul\":7523:7530   */\n      dup6\n        /* \"#utility.yul\":7514:7520   */\n      dup3\n        /* \"#utility.yul\":7503:7512   */\n      dup7\n        /* \"#utility.yul\":7499:7521   */\n      add\n        /* \"#utility.yul\":7481:7531   */\n      tag_300\n      jump\t// in\n    tag_446:\n        /* \"#utility.yul\":7471:7531   */\n      swap2\n      pop\n        /* \"#utility.yul\":7426:7541   */\n      pop\n        /* \"#utility.yul\":7080:7548   */\n      swap3\n      pop\n      swap3\n      swap1\n      pop\n      jump\t// out\n        /* \"#utility.yul\":7554:8627   */\n    tag_62:\n        /* \"#utility.yul\":7682:7688   */\n      0x00\n        /* \"#utility.yul\":7690:7696   */\n      0x00\n        /* \"#utility.yul\":7698:7704   */\n      0x00\n        /* \"#utility.yul\":7706:7712   */\n      0x00\n        /* \"#utility.yul\":7714:7720   */\n      0x00\n        /* \"#utility.yul\":7763:7765   */\n      0x60\n        /* \"#utility.yul\":7751:7760   */\n      dup7\n        /* \"#utility.yul\":7742:7749   */\n      dup9\n        /* \"#utility.yul\":7738:7761   */\n      sub\n        /* \"#utility.yul\":7734:7766   */\n      slt\n        /* \"#utility.yul\":7731:7850   */\n      iszero\n      tag_448\n      jumpi\n        /* \"#utility.yul\":7769:7848   */\n      tag_449\n      tag_276\n      jump\t// in\n    tag_449:\n        /* \"#utility.yul\":7731:7850   */\n    tag_448:\n        /* \"#utility.yul\":7917:7918   */\n      0x00\n        /* \"#utility.yul\":7906:7915   */\n      dup7\n        /* \"#utility.yul\":7902:7919   */\n      add\n        /* \"#utility.yul\":7889:7920   */\n      calldataload\n        /* \"#utility.yul\":7947:7965   */\n      0xffffffffffffffff\n        /* \"#utility.yul\":7939:7945   */\n      dup2\n        /* \"#utility.yul\":7936:7966   */\n      gt\n        /* \"#utility.yul\":7933:8050   */\n      iszero\n      tag_450\n      jumpi\n        /* \"#utility.yul\":7969:8048   */\n      tag_451\n      tag_277\n      jump\t// in\n    tag_451:\n        /* \"#utility.yul\":7933:8050   */\n    tag_450:\n        /* \"#utility.yul\":8082:8147   */\n      tag_452\n        /* \"#utility.yul\":8139:8146   */\n      dup9\n        /* \"#utility.yul\":8130:8136   */\n      dup3\n        /* \"#utility.yul\":8119:8128   */\n      dup10\n        /* \"#utility.yul\":8115:8137   */\n      add\n        /* \"#utility.yul\":8082:8147   */\n      tag_289\n      jump\t// in\n    tag_452:\n        /* \"#utility.yul\":8064:8147   */\n      swap6\n      pop\n      swap6\n      pop\n        /* \"#utility.yul\":7860:8157   */\n      pop\n        /* \"#utility.yul\":8196:8198   */\n      0x20\n        /* \"#utility.yul\":8222:8275   */\n      tag_453\n        /* \"#utility.yul\":8267:8274   */\n      dup9\n        /* \"#utility.yul\":8258:8264   */\n      dup3\n        /* \"#utility.yul\":8247:8256   */\n      dup10\n        /* \"#utility.yul\":8243:8265   */\n      add\n        /* \"#utility.yul\":8222:8275   */\n      tag_292\n      jump\t// in\n    tag_453:\n        /* \"#utility.yul\":8212:8275   */\n      swap4\n      pop\n        /* \"#utility.yul\":8167:8285   */\n      pop\n        /* \"#utility.yul\":8352:8354   */\n      0x40\n        /* \"#utility.yul\":8341:8350   */\n      dup7\n        /* \"#utility.yul\":8337:8355   */\n      add\n        /* \"#utility.yul\":8324:8356   */\n      calldataload\n        /* \"#utility.yul\":8383:8401   */\n      0xffffffffffffffff\n        /* \"#utility.yul\":8375:8381   */\n      dup2\n        /* \"#utility.yul\":8372:8402   */\n      gt\n        /* \"#utility.yul\":8369:8486   */\n      iszero\n      tag_454\n      jumpi\n        /* \"#utility.yul\":8405:8484   */\n      tag_455\n      tag_277\n      jump\t// in\n    tag_455:\n        /* \"#utility.yul\":8369:8486   */\n    tag_454:\n        /* \"#utility.yul\":8518:8610   */\n      tag_456\n        /* \"#utility.yul\":8602:8609   */\n      dup9\n        /* \"#utility.yul\":8593:8599   */\n      dup3\n        /* \"#utility.yul\":8582:8591   */\n      dup10\n        /* \"#utility.yul\":8578:8600   */\n      add\n        /* \"#utility.yul\":8518:8610   */\n      tag_293\n      jump\t// in\n    tag_456:\n        /* \"#utility.yul\":8500:8610   */\n      swap3\n      pop\n      swap3\n      pop\n        /* \"#utility.yul\":8295:8620   */\n      pop\n        /* \"#utility.yul\":7554:8627   */\n      swap3\n      swap6\n      pop\n      swap3\n      swap6\n      swap1\n      swap4\n      pop\n      jump\t// out\n        /* \"#utility.yul\":8633:8693   */\n    tag_301:\n        /* \"#utility.yul\":8661:8664   */\n      0x00\n        /* \"#utility.yul\":8682:8687   */\n      dup2\n        /* \"#utility.yul\":8675:8687   */\n      swap1\n      pop\n        /* \"#utility.yul\":8633:8693   */\n      swap2\n      swap1\n      pop\n      jump\t// out\n        /* \"#utility.yul\":8699:8841   */\n    tag_302:\n        /* \"#utility.yul\":8749:8758   */\n      0x00\n        /* \"#utility.yul\":8782:8835   */\n      tag_459\n        /* \"#utility.yul\":8800:8834   */\n      tag_460\n        /* \"#utility.yul\":8809:8833   */\n      tag_461\n        /* \"#utility.yul\":8827:8832   */\n      dup5\n        /* \"#utility.yul\":8809:8833   */\n      tag_295\n      jump\t// in\n    tag_461:\n        /* \"#utility.yul\":8800:8834   */\n      tag_301\n      jump\t// in\n    tag_460:\n        /* \"#utility.yul\":8782:8835   */\n      tag_295\n      jump\t// in\n    tag_459:\n        /* \"#utility.yul\":8769:8835   */\n      swap1\n      pop\n        /* \"#utility.yul\":8699:8841   */\n      swap2\n      swap1\n      pop\n      jump\t// out\n        /* \"#utility.yul\":8847:8973   */\n    tag_303:\n        /* \"#utility.yul\":8897:8906   */\n      0x00\n        /* \"#utility.yul\":8930:8967   */\n      tag_463\n        /* \"#utility.yul\":8961:8966   */\n      dup3\n        /* \"#utility.yul\":8930:8967   */\n      tag_302\n      jump\t// in\n    tag_463:\n        /* \"#utility.yul\":8917:8967   */\n      swap1\n      pop\n        /* \"#utility.yul\":8847:8973   */\n      swap2\n      swap1\n      pop\n      jump\t// out\n        /* \"#utility.yul\":8979:9140   */\n    tag_304:\n        /* \"#utility.yul\":9064:9073   */\n      0x00\n        /* \"#utility.yul\":9097:9134   */\n      tag_465\n        /* \"#utility.yul\":9128:9133   */\n      dup3\n        /* \"#utility.yul\":9097:9134   */\n      tag_303\n      jump\t// in\n    tag_465:\n        /* \"#utility.yul\":9084:9134   */\n      swap1\n      pop\n        /* \"#utility.yul\":8979:9140   */\n      swap2\n      swap1\n      pop\n      jump\t// out\n        /* \"#utility.yul\":9146:9347   */\n    tag_305:\n        /* \"#utility.yul\":9268:9340   */\n      tag_467\n        /* \"#utility.yul\":9334:9339   */\n      dup2\n        /* \"#utility.yul\":9268:9340   */\n      tag_304\n      jump\t// in\n    tag_467:\n        /* \"#utility.yul\":9263:9266   */\n      dup3\n        /* \"#utility.yul\":9256:9341   */\n      mstore\n        /* \"#utility.yul\":9146:9347   */\n      pop\n      pop\n      jump\t// out\n        /* \"#utility.yul\":9353:9645   */\n    tag_67:\n        /* \"#utility.yul\":9481:9485   */\n      0x00\n        /* \"#utility.yul\":9519:9521   */\n      0x20\n        /* \"#utility.yul\":9508:9517   */\n      dup3\n        /* \"#utility.yul\":9504:9522   */\n      add\n        /* \"#utility.yul\":9496:9522   */\n      swap1\n      pop\n        /* \"#utility.yul\":9532:9638   */\n      tag_469\n        /* \"#utility.yul\":9635:9636   */\n      0x00\n        /* \"#utility.yul\":9624:9633   */\n      dup4\n        /* \"#utility.yul\":9620:9637   */\n      add\n        /* \"#utility.yul\":9611:9617   */\n      dup5\n        /* \"#utility.yul\":9532:9638   */\n      tag_305\n      jump\t// in\n    tag_469:\n        /* \"#utility.yul\":9353:9645   */\n      swap3\n      swap2\n      pop\n      pop\n      jump\t// out\n        /* \"#utility.yul\":9651:9769   */\n    tag_306:\n        /* \"#utility.yul\":9738:9762   */\n      tag_471\n        /* \"#utility.yul\":9756:9761   */\n      dup2\n        /* \"#utility.yul\":9738:9762   */\n      tag_296\n      jump\t// in\n    tag_471:\n        /* \"#utility.yul\":9733:9736   */\n      dup3\n        /* \"#utility.yul\":9726:9763   */\n      mstore\n        /* \"#utility.yul\":9651:9769   */\n      pop\n      pop\n      jump\t// out\n        /* \"#utility.yul\":9775:9997   */\n    tag_81:\n        /* \"#utility.yul\":9868:9872   */\n      0x00\n        /* \"#utility.yul\":9906:9908   */\n      0x20\n        /* \"#utility.yul\":9895:9904   */\n      dup3\n        /* \"#utility.yul\":9891:9909   */\n      add\n        /* \"#utility.yul\":9883:9909   */\n      swap1\n      pop\n        /* \"#utility.yul\":9919:9990   */\n      tag_473\n        /* \"#utility.yul\":9987:9988   */\n      0x00\n        /* \"#utility.yul\":9976:9985   */\n      dup4\n        /* \"#utility.yul\":9972:9989   */\n      add\n        /* \"#utility.yul\":9963:9969   */\n      dup5\n        /* \"#utility.yul\":9919:9990   */\n      tag_306\n      jump\t// in\n    tag_473:\n        /* \"#utility.yul\":9775:9997   */\n      swap3\n      swap2\n      pop\n      pop\n      jump\t// out\n        /* \"#utility.yul\":10003:10332   */\n    tag_86:\n        /* \"#utility.yul\":10062:10068   */\n      0x00\n        /* \"#utility.yul\":10111:10113   */\n      0x20\n        /* \"#utility.yul\":10099:10108   */\n      dup3\n        /* \"#utility.yul\":10090:10097   */\n      dup5\n        /* \"#utility.yul\":10086:10109   */\n      sub\n        /* \"#utility.yul\":10082:10114   */\n      slt\n        /* \"#utility.yul\":10079:10198   */\n      iszero\n      tag_475\n      jumpi\n        /* \"#utility.yul\":10117:10196   */\n      tag_476\n      tag_276\n      jump\t// in\n    tag_476:\n        /* \"#utility.yul\":10079:10198   */\n    tag_475:\n        /* \"#utility.yul\":10237:10238   */\n      0x00\n        /* \"#utility.yul\":10262:10315   */\n      tag_477\n        /* \"#utility.yul\":10307:10314   */\n      dup5\n        /* \"#utility.yul\":10298:10304   */\n      dup3\n        /* \"#utility.yul\":10287:10296   */\n      dup6\n        /* \"#utility.yul\":10283:10305   */\n      add\n        /* \"#utility.yul\":10262:10315   */\n      tag_298\n      jump\t// in\n    tag_477:\n        /* \"#utility.yul\":10252:10315   */\n      swap2\n      pop\n        /* \"#utility.yul\":10208:10325   */\n      pop\n        /* \"#utility.yul\":10003:10332   */\n      swap3\n      swap2\n      pop\n      pop\n      jump\t// out\n        /* \"#utility.yul\":10338:10507   */\n    tag_307:\n        /* \"#utility.yul\":10422:10433   */\n      0x00\n        /* \"#utility.yul\":10456:10462   */\n      dup3\n        /* \"#utility.yul\":10451:10454   */\n      dup3\n        /* \"#utility.yul\":10444:10463   */\n      mstore\n        /* \"#utility.yul\":10496:10500   */\n      0x20\n        /* \"#utility.yul\":10491:10494   */\n      dup3\n        /* \"#utility.yul\":10487:10501   */\n      add\n        /* \"#utility.yul\":10472:10501   */\n      swap1\n      pop\n        /* \"#utility.yul\":10338:10507   */\n      swap3\n      swap2\n      pop\n      pop\n      jump\t// out\n        /* \"#utility.yul\":10513:10672   */\n    tag_308:\n        /* \"#utility.yul\":10653:10664   */\n      0x6964206578697374730000000000000000000000000000000000000000000000\n        /* \"#utility.yul\":10649:10650   */\n      0x00\n        /* \"#utility.yul\":10641:10647   */\n      dup3\n        /* \"#utility.yul\":10637:10651   */\n      add\n        /* \"#utility.yul\":10630:10665   */\n      mstore\n        /* \"#utility.yul\":10513:10672   */\n      pop\n      jump\t// out\n        /* \"#utility.yul\":10678:11043   */\n    tag_309:\n        /* \"#utility.yul\":10820:10823   */\n      0x00\n        /* \"#utility.yul\":10841:10907   */\n      tag_481\n        /* \"#utility.yul\":10905:10906   */\n      0x09\n        /* \"#utility.yul\":10900:10903   */\n      dup4\n        /* \"#utility.yul\":10841:10907   */\n      tag_307\n      jump\t// in\n    tag_481:\n        /* \"#utility.yul\":10834:10907   */\n      swap2\n      pop\n        /* \"#utility.yul\":10916:11009   */\n      tag_482\n        /* \"#utility.yul\":11005:11008   */\n      dup3\n        /* \"#utility.yul\":10916:11009   */\n      tag_308\n      jump\t// in\n    tag_482:\n        /* \"#utility.yul\":11034:11036   */\n      0x20\n        /* \"#utility.yul\":11029:11032   */\n      dup3\n        /* \"#utility.yul\":11025:11037   */\n      add\n        /* \"#utility.yul\":11018:11037   */\n      swap1\n      pop\n        /* \"#utility.yul\":10678:11043   */\n      swap2\n      swap1\n      pop\n      jump\t// out\n        /* \"#utility.yul\":11049:11468   */\n    tag_105:\n        /* \"#utility.yul\":11215:11219   */\n      0x00\n        /* \"#utility.yul\":11253:11255   */\n      0x20\n        /* \"#utility.yul\":11242:11251   */\n      dup3\n        /* \"#utility.yul\":11238:11256   */\n      add\n        /* \"#utility.yul\":11230:11256   */\n      swap1\n      pop\n        /* \"#utility.yul\":11302:11311   */\n      dup2\n        /* \"#utility.yul\":11296:11300   */\n      dup2\n        /* \"#utility.yul\":11292:11312   */\n      sub\n        /* \"#utility.yul\":11288:11289   */\n      0x00\n        /* \"#utility.yul\":11277:11286   */\n      dup4\n        /* \"#utility.yul\":11273:11290   */\n      add\n        /* \"#utility.yul\":11266:11313   */\n      mstore\n        /* \"#utility.yul\":11330:11461   */\n      tag_484\n        /* \"#utility.yul\":11456:11460   */\n      dup2\n        /* \"#utility.yul\":11330:11461   */\n      tag_309\n      jump\t// in\n    tag_484:\n        /* \"#utility.yul\":11322:11461   */\n      swap1\n      pop\n        /* \"#utility.yul\":11049:11468   */\n      swap2\n      swap1\n      pop\n      jump\t// out\n        /* \"#utility.yul\":11474:11633   */\n    tag_310:\n        /* \"#utility.yul\":11614:11625   */\n      0x656d707479207572690000000000000000000000000000000000000000000000\n        /* \"#utility.yul\":11610:11611   */\n      0x00\n        /* \"#utility.yul\":11602:11608   */\n      dup3\n        /* \"#utility.yul\":11598:11612   */\n      add\n        /* \"#utility.yul\":11591:11626   */\n      mstore\n        /* \"#utility.yul\":11474:11633   */\n      pop\n      jump\t// out\n        /* \"#utility.yul\":11639:12004   */\n    tag_311:\n        /* \"#utility.yul\":11781:11784   */\n      0x00\n        /* \"#utility.yul\":11802:11868   */\n      tag_487\n        /* \"#utility.yul\":11866:11867   */\n      0x09\n        /* \"#utility.yul\":11861:11864   */\n      dup4\n        /* \"#utility.yul\":11802:11868   */\n      tag_307\n      jump\t// in\n    tag_487:\n        /* \"#utility.yul\":11795:11868   */\n      swap2\n      pop\n        /* \"#utility.yul\":11877:11970   */\n      tag_488\n        /* \"#utility.yul\":11966:11969   */\n      dup3\n        /* \"#utility.yul\":11877:11970   */\n      tag_310\n      jump\t// in\n    tag_488:\n        /* \"#utility.yul\":11995:11997   */\n      0x20\n        /* \"#utility.yul\":11990:11993   */\n      dup3\n        /* \"#utility.yul\":11986:11998   */\n      add\n        /* \"#utility.yul\":11979:11998   */\n      swap1\n      pop\n        /* \"#utility.yul\":11639:12004   */\n      swap2\n      swap1\n      pop\n      jump\t// out\n        /* \"#utility.yul\":12010:12429   */\n    tag_108:\n        /* \"#utility.yul\":12176:12180   */\n      0x00\n        /* \"#utility.yul\":12214:12216   */\n      0x20\n        /* \"#utility.yul\":12203:12212   */\n      dup3\n        /* \"#utility.yul\":12199:12217   */\n      add\n        /* \"#utility.yul\":12191:12217   */\n      swap1\n      pop\n        /* \"#utility.yul\":12263:12272   */\n      dup2\n        /* \"#utility.yul\":12257:12261   */\n      dup2\n        /* \"#utility.yul\":12253:12273   */\n      sub\n        /* \"#utility.yul\":12249:12250   */\n      0x00\n        /* \"#utility.yul\":12238:12247   */\n      dup4\n        /* \"#utility.yul\":12234:12251   */\n      add\n        /* \"#utility.yul\":12227:12274   */\n      mstore\n        /* \"#utility.yul\":12291:12422   */\n      tag_490\n        /* \"#utility.yul\":12417:12421   */\n      dup2\n        /* \"#utility.yul\":12291:12422   */\n      tag_311\n      jump\t// in\n    tag_490:\n        /* \"#utility.yul\":12283:12422   */\n      swap1\n      pop\n        /* \"#utility.yul\":12010:12429   */\n      swap2\n      swap1\n      pop\n      jump\t// out\n        /* \"#utility.yul\":12435:12594   */\n    tag_312:\n        /* \"#utility.yul\":12575:12586   */\n      0x6261642072616e67650000000000000000000000000000000000000000000000\n        /* \"#utility.yul\":12571:12572   */\n      0x00\n        /* \"#utility.yul\":12563:12569   */\n      dup3\n        /* \"#utility.yul\":12559:12573   */\n      add\n        /* \"#utility.yul\":12552:12587   */\n      mstore\n        /* \"#utility.yul\":12435:12594   */\n      pop\n      jump\t// out\n        /* \"#utility.yul\":12600:12965   */\n    tag_313:\n        /* \"#utility.yul\":12742:12745   */\n      0x00\n        /* \"#utility.yul\":12763:12829   */\n      tag_493\n        /* \"#utility.yul\":12827:12828   */\n      0x09\n        /* \"#utility.yul\":12822:12825   */\n      dup4\n        /* \"#utility.yul\":12763:12829   */\n      tag_307\n      jump\t// in\n    tag_493:\n        /* \"#utility.yul\":12756:12829   */\n      swap2\n      pop\n        /* \"#utility.yul\":12838:12931   */\n      tag_494\n        /* \"#utility.yul\":12927:12930   */\n      dup3\n        /* \"#utility.yul\":12838:12931   */\n      tag_312\n      jump\t// in\n    tag_494:\n        /* \"#utility.yul\":12956:12958   */\n      0x20\n        /* \"#utility.yul\":12951:12954   */\n      dup3\n        /* \"#utility.yul\":12947:12959   */\n      add\n        /* \"#utility.yul\":12940:12959   */\n      swap1\n      pop\n        /* \"#utility.yul\":12600:12965   */\n      swap2\n      swap1\n      pop\n      jump\t// out\n        /* \"#utility.yul\":12971:13390   */\n    tag_112:\n        /* \"#utility.yul\":13137:13141   */\n      0x00\n        /* \"#utility.yul\":13175:13177   */\n      0x20\n        /* \"#utility.yul\":13164:13173   */\n      dup3\n        /* \"#utility.yul\":13160:13178   */\n      add\n        /* \"#utility.yul\":13152:13178   */\n      swap1\n      pop\n        /* \"#utility.yul\":13224:13233   */\n      dup2\n        /* \"#utility.yul\":13218:13222   */\n      dup2\n        /* \"#utility.yul\":13214:13234   */\n      sub\n        /* \"#utility.yul\":13210:13211   */\n      0x00\n        /* \"#utility.yul\":13199:13208   */\n      dup4\n        /* \"#utility.yul\":13195:13212   */\n      add\n        /* \"#utility.yul\":13188:13235   */\n      mstore\n        /* \"#utility.yul\":13252:13383   */\n      tag_496\n        /* \"#utility.yul\":13378:13382   */\n      dup2\n        /* \"#utility.yul\":13252:13383   */\n      tag_313\n      jump\t// in\n    tag_496:\n        /* \"#utility.yul\":13244:13383   */\n      swap1\n      pop\n        /* \"#utility.yul\":12971:13390   */\n      swap2\n      swap1\n      pop\n      jump\t// out\n        /* \"#utility.yul\":13396:13544   */\n    tag_314:\n        /* \"#utility.yul\":13494:13500   */\n      dup3\n        /* \"#utility.yul\":13489:13492   */\n      dup2\n        /* \"#utility.yul\":13484:13487   */\n      dup4\n        /* \"#utility.yul\":13471:13501   */\n      calldatacopy\n        /* \"#utility.yul\":13535:13536   */\n      0x00\n        /* \"#utility.yul\":13526:13532   */\n      dup4\n        /* \"#utility.yul\":13521:13524   */\n      dup4\n        /* \"#utility.yul\":13517:13533   */\n      add\n        /* \"#utility.yul\":13510:13537   */\n      mstore\n        /* \"#utility.yul\":13396:13544   */\n      pop\n      pop\n      pop\n      jump\t// out\n        /* \"#utility.yul\":13550:13652   */\n    tag_315:\n        /* \"#utility.yul\":13591:13597   */\n      0x00\n        /* \"#utility.yul\":13642:13644   */\n      0x1f\n        /* \"#utility.yul\":13638:13645   */\n      not\n        /* \"#utility.yul\":13633:13635   */\n      0x1f\n        /* \"#utility.yul\":13626:13631   */\n      dup4\n        /* \"#utility.yul\":13622:13636   */\n      add\n        /* \"#utility.yul\":13618:13646   */\n      and\n        /* \"#utility.yul\":13608:13646   */\n      swap1\n      pop\n        /* \"#utility.yul\":13550:13652   */\n      swap2\n      swap1\n      pop\n      jump\t// out\n        /* \"#utility.yul\":13682:13999   */\n    tag_316:\n        /* \"#utility.yul\":13780:13783   */\n      0x00\n        /* \"#utility.yul\":13801:13872   */\n      tag_500\n        /* \"#utility.yul\":13865:13871   */\n      dup4\n        /* \"#utility.yul\":13860:13863   */\n      dup6\n        /* \"#utility.yul\":13801:13872   */\n      tag_307\n      jump\t// in\n    tag_500:\n        /* \"#utility.yul\":13794:13872   */\n      swap4\n      pop\n        /* \"#utility.yul\":13882:13938   */\n      tag_501\n        /* \"#utility.yul\":13931:13937   */\n      dup4\n        /* \"#utility.yul\":13926:13929   */\n      dup6\n        /* \"#utility.yul\":13919:13924   */\n      dup5\n        /* \"#utility.yul\":13882:13938   */\n      tag_314\n      jump\t// in\n    tag_501:\n        /* \"#utility.yul\":13963:13992   */\n      tag_502\n        /* \"#utility.yul\":13985:13991   */\n      dup4\n        /* \"#utility.yul\":13963:13992   */\n      tag_315\n      jump\t// in\n    tag_502:\n        /* \"#utility.yul\":13958:13961   */\n      dup5\n        /* \"#utility.yul\":13954:13993   */\n      add\n        /* \"#utility.yul\":13947:13993   */\n      swap1\n      pop\n        /* \"#utility.yul\":13682:13999   */\n      swap4\n      swap3\n      pop\n      pop\n      pop\n      jump\t// out\n        /* \"#utility.yul\":14005:14123   */\n    tag_317:\n        /* \"#utility.yul\":14092:14116   */\n      tag_504\n        /* \"#utility.yul\":14110:14115   */\n      dup2\n        /* \"#utility.yul\":14092:14116   */\n      tag_290\n      jump\t// in\n    tag_504:\n        /* \"#utility.yul\":14087:14090   */\n      dup3\n        /* \"#utility.yul\":14080:14117   */\n      mstore\n        /* \"#utility.yul\":14005:14123   */\n      pop\n      pop\n      jump\t// out\n        /* \"#utility.yul\":14129:14323   */\n    tag_318:\n        /* \"#utility.yul\":14238:14249   */\n      0x00\n        /* \"#utility.yul\":14272:14278   */\n      dup3\n        /* \"#utility.yul\":14267:14270   */\n      dup3\n        /* \"#utility.yul\":14260:14279   */\n      mstore\n        /* \"#utility.yul\":14312:14316   */\n      0x20\n        /* \"#utility.yul\":14307:14310   */\n      dup3\n        /* \"#utility.yul\":14303:14317   */\n      add\n        /* \"#utility.yul\":14288:14317   */\n      swap1\n      pop\n        /* \"#utility.yul\":14129:14323   */\n      swap3\n      swap2\n      pop\n      pop\n      jump\t// out\n        /* \"#utility.yul\":14329:14443   */\n    tag_319:\n        /* \"#utility.yul\":14410:14414   */\n      0x00\n        /* \"#utility.yul\":14433:14436   */\n      dup2\n        /* \"#utility.yul\":14425:14436   */\n      swap1\n      pop\n        /* \"#utility.yul\":14329:14443   */\n      swap2\n      swap1\n      pop\n      jump\t// out\n        /* \"#utility.yul\":14449:14608   */\n    tag_320:\n        /* \"#utility.yul\":14523:14534   */\n      0x00\n        /* \"#utility.yul\":14557:14563   */\n      dup3\n        /* \"#utility.yul\":14552:14555   */\n      dup3\n        /* \"#utility.yul\":14545:14564   */\n      mstore\n        /* \"#utility.yul\":14597:14601   */\n      0x20\n        /* \"#utility.yul\":14592:14595   */\n      dup3\n        /* \"#utility.yul\":14588:14602   */\n      add\n        /* \"#utility.yul\":14573:14602   */\n      swap1\n      pop\n        /* \"#utility.yul\":14449:14608   */\n      swap3\n      swap2\n      pop\n      pop\n      jump\t// out\n        /* \"#utility.yul\":14638:14935   */\n    tag_321:\n        /* \"#utility.yul\":14726:14729   */\n      0x00\n        /* \"#utility.yul\":14747:14808   */\n      tag_509\n        /* \"#utility.yul\":14801:14807   */\n      dup4\n        /* \"#utility.yul\":14796:14799   */\n      dup6\n        /* \"#utility.yul\":14747:14808   */\n      tag_320\n      jump\t// in\n    tag_509:\n        /* \"#utility.yul\":14740:14808   */\n      swap4\n      pop\n        /* \"#utility.yul\":14818:14874   */\n      tag_510\n        /* \"#utility.yul\":14867:14873   */\n      dup4\n        /* \"#utility.yul\":14862:14865   */\n      dup6\n        /* \"#utility.yul\":14855:14860   */\n      dup5\n        /* \"#utility.yul\":14818:14874   */\n      tag_314\n      jump\t// in\n    tag_510:\n        /* \"#utility.yul\":14899:14928   */\n      tag_511\n        /* \"#utility.yul\":14921:14927   */\n      dup4\n        /* \"#utility.yul\":14899:14928   */\n      tag_315\n      jump\t// in\n    tag_511:\n        /* \"#utility.yul\":14894:14897   */\n      dup5\n        /* \"#utility.yul\":14890:14929   */\n      add\n        /* \"#utility.yul\":14883:14929   */\n      swap1\n      pop\n        /* \"#utility.yul\":14638:14935   */\n      swap4\n      swap3\n      pop\n      pop\n      pop\n      jump\t// out\n        /* \"#utility.yul\":14941:15157   */\n    tag_322:\n        /* \"#utility.yul\":15040:15050   */\n      0x00\n        /* \"#utility.yul\":15075:15151   */\n      tag_513\n        /* \"#utility.yul\":15147:15150   */\n      dup5\n        /* \"#utility.yul\":15139:15145   */\n      dup5\n        /* \"#utility.yul\":15131:15137   */\n      dup5\n        /* \"#utility.yul\":15075:15151   */\n      tag_321\n      jump\t// in\n    tag_513:\n        /* \"#utility.yul\":15061:15151   */\n      swap1\n      pop\n        /* \"#utility.yul\":14941:15157   */\n      swap4\n      swap3\n      pop\n      pop\n      pop\n      jump\t// out\n        /* \"#utility.yul\":15163:15280   */\n    tag_323:\n        /* \"#utility.yul\":15272:15273   */\n      0x00\n        /* \"#utility.yul\":15269:15270   */\n      0x00\n        /* \"#utility.yul\":15262:15274   */\n      revert\n        /* \"#utility.yul\":15286:15403   */\n    tag_324:\n        /* \"#utility.yul\":15395:15396   */\n      0x00\n        /* \"#utility.yul\":15392:15393   */\n      0x00\n        /* \"#utility.yul\":15385:15397   */\n      revert\n        /* \"#utility.yul\":15409:15526   */\n    tag_325:\n        /* \"#utility.yul\":15518:15519   */\n      0x00\n        /* \"#utility.yul\":15515:15516   */\n      0x00\n        /* \"#utility.yul\":15508:15520   */\n      revert\n        /* \"#utility.yul\":15532:16244   */\n    tag_326:\n        /* \"#utility.yul\":15597:15602   */\n      0x00\n        /* \"#utility.yul\":15604:15610   */\n      0x00\n        /* \"#utility.yul\":15660:15663   */\n      dup4\n        /* \"#utility.yul\":15647:15664   */\n      calldataload\n        /* \"#utility.yul\":15752:15753   */\n      0x01\n        /* \"#utility.yul\":15746:15750   */\n      0x20\n        /* \"#utility.yul\":15742:15754   */\n      sub\n        /* \"#utility.yul\":15731:15739   */\n      dup5\n        /* \"#utility.yul\":15715:15729   */\n      calldatasize\n        /* \"#utility.yul\":15711:15740   */\n      sub\n        /* \"#utility.yul\":15707:15755   */\n      sub\n        /* \"#utility.yul\":15687:15705   */\n      dup2\n        /* \"#utility.yul\":15683:15756   */\n      slt\n        /* \"#utility.yul\":15673:15841   */\n      tag_518\n      jumpi\n        /* \"#utility.yul\":15760:15839   */\n      tag_519\n      tag_325\n      jump\t// in\n    tag_519:\n        /* \"#utility.yul\":15673:15841   */\n    tag_518:\n        /* \"#utility.yul\":15883:15891   */\n      dup4\n        /* \"#utility.yul\":15863:15881   */\n      dup2\n        /* \"#utility.yul\":15859:15892   */\n      add\n        /* \"#utility.yul\":15850:15892   */\n      swap3\n      pop\n        /* \"#utility.yul\":15925:15930   */\n      dup3\n        /* \"#utility.yul\":15912:15931   */\n      calldataload\n        /* \"#utility.yul\":15902:15931   */\n      swap2\n      pop\n        /* \"#utility.yul\":15960:15964   */\n      0x20\n        /* \"#utility.yul\":15953:15958   */\n      dup4\n        /* \"#utility.yul\":15949:15965   */\n      add\n        /* \"#utility.yul\":15940:15965   */\n      swap3\n      pop\n        /* \"#utility.yul\":15988:16006   */\n      0xffffffffffffffff\n        /* \"#utility.yul\":15980:15986   */\n      dup3\n        /* \"#utility.yul\":15977:16007   */\n      gt\n        /* \"#utility.yul\":15974:16091   */\n      iszero\n      tag_520\n      jumpi\n        /* \"#utility.yul\":16010:16089   */\n      tag_521\n      tag_323\n      jump\t// in\n    tag_521:\n        /* \"#utility.yul\":15974:16091   */\n    tag_520:\n        /* \"#utility.yul\":16146:16150   */\n      0x01\n        /* \"#utility.yul\":16138:16144   */\n      dup3\n        /* \"#utility.yul\":16134:16151   */\n      mul\n        /* \"#utility.yul\":16118:16132   */\n      calldatasize\n        /* \"#utility.yul\":16114:16152   */\n      sub\n        /* \"#utility.yul\":16107:16112   */\n      dup4\n        /* \"#utility.yul\":16103:16153   */\n      sgt\n        /* \"#utility.yul\":16100:16237   */\n      iszero\n      tag_522\n      jumpi\n        /* \"#utility.yul\":16156:16235   */\n      tag_523\n      tag_324\n      jump\t// in\n    tag_523:\n        /* \"#utility.yul\":16100:16237   */\n    tag_522:\n        /* \"#utility.yul\":15611:16244   */\n      pop\n        /* \"#utility.yul\":15532:16244   */\n      swap3\n      pop\n      swap3\n      swap1\n      pop\n      jump\t// out\n        /* \"#utility.yul\":16250:16377   */\n    tag_327:\n        /* \"#utility.yul\":16334:16338   */\n      0x00\n        /* \"#utility.yul\":16366:16370   */\n      0x20\n        /* \"#utility.yul\":16361:16364   */\n      dup3\n        /* \"#utility.yul\":16357:16371   */\n      add\n        /* \"#utility.yul\":16349:16371   */\n      swap1\n      pop\n        /* \"#utility.yul\":16250:16377   */\n      swap2\n      swap1\n      pop\n      jump\t// out\n        /* \"#utility.yul\":16411:17409   */\n    tag_328:\n        /* \"#utility.yul\":16562:16565   */\n      0x00\n        /* \"#utility.yul\":16585:16681   */\n      tag_526\n        /* \"#utility.yul\":16674:16680   */\n      dup4\n        /* \"#utility.yul\":16669:16672   */\n      dup6\n        /* \"#utility.yul\":16585:16681   */\n      tag_318\n      jump\t// in\n    tag_526:\n        /* \"#utility.yul\":16578:16681   */\n      swap4\n      pop\n        /* \"#utility.yul\":16707:16710   */\n      dup4\n        /* \"#utility.yul\":16752:16756   */\n      0x20\n        /* \"#utility.yul\":16744:16750   */\n      dup5\n        /* \"#utility.yul\":16740:16757   */\n      mul\n        /* \"#utility.yul\":16735:16738   */\n      dup6\n        /* \"#utility.yul\":16731:16758   */\n      add\n        /* \"#utility.yul\":16782:16852   */\n      tag_527\n        /* \"#utility.yul\":16846:16851   */\n      dup5\n        /* \"#utility.yul\":16782:16852   */\n      tag_319\n      jump\t// in\n    tag_527:\n        /* \"#utility.yul\":16875:16882   */\n      dup1\n        /* \"#utility.yul\":16906:16907   */\n      0x00\n        /* \"#utility.yul\":16891:17364   */\n    tag_528:\n        /* \"#utility.yul\":16916:16922   */\n      dup8\n        /* \"#utility.yul\":16913:16914   */\n      dup2\n        /* \"#utility.yul\":16910:16923   */\n      lt\n        /* \"#utility.yul\":16891:17364   */\n      iszero\n      tag_530\n      jumpi\n        /* \"#utility.yul\":16987:16996   */\n      dup5\n        /* \"#utility.yul\":16981:16985   */\n      dup5\n        /* \"#utility.yul\":16977:16997   */\n      sub\n        /* \"#utility.yul\":16972:16975   */\n      dup10\n        /* \"#utility.yul\":16965:16998   */\n      mstore\n        /* \"#utility.yul\":17047:17101   */\n      tag_531\n        /* \"#utility.yul\":17094:17100   */\n      dup3\n        /* \"#utility.yul\":17085:17092   */\n      dup5\n        /* \"#utility.yul\":17047:17101   */\n      tag_326\n      jump\t// in\n    tag_531:\n        /* \"#utility.yul\":17122:17223   */\n      tag_532\n        /* \"#utility.yul\":17218:17222   */\n      dup7\n        /* \"#utility.yul\":17203:17216   */\n      dup3\n        /* \"#utility.yul\":17188:17201   */\n      dup5\n        /* \"#utility.yul\":17122:17223   */\n      tag_322\n      jump\t// in\n    tag_532:\n        /* \"#utility.yul\":17114:17223   */\n      swap6\n      pop\n        /* \"#utility.yul\":17246:17320   */\n      tag_533\n        /* \"#utility.yul\":17313:17319   */\n      dup5\n        /* \"#utility.yul\":17246:17320   */\n      tag_327\n      jump\t// in\n    tag_533:\n        /* \"#utility.yul\":17236:17320   */\n      swap4\n      pop\n        /* \"#utility.yul\":17349:17353   */\n      0x20\n        /* \"#utility.yul\":17344:17347   */\n      dup12\n        /* \"#utility.yul\":17340:17354   */\n      add\n        /* \"#utility.yul\":17333:17354   */\n      swap11\n      pop\n        /* \"#utility.yul\":16951:17364   */\n      pop\n      pop\n        /* \"#utility.yul\":16938:16939   */\n      0x01\n        /* \"#utility.yul\":16935:16936   */\n      dup2\n        /* \"#utility.yul\":16931:16940   */\n      add\n        /* \"#utility.yul\":16926:16940   */\n      swap1\n      pop\n        /* \"#utility.yul\":16891:17364   */\n      jump(tag_528)\n    tag_530:\n        /* \"#utility.yul\":16895:16909   */\n      pop\n        /* \"#utility.yul\":17380:17384   */\n      dup3\n        /* \"#utility.yul\":17373:17384   */\n      swap8\n      pop\n        /* \"#utility.yul\":17400:17403   */\n      dup8\n        /* \"#utility.yul\":17393:17403   */\n      swap5\n      pop\n        /* \"#utility.yul\":16567:17409   */\n      pop\n      pop\n      pop\n      pop\n        /* \"#utility.yul\":16411:17409   */\n      swap4\n      swap3\n      pop\n      pop\n      pop\n      jump\t// out\n        /* \"#utility.yul\":17415:18294   */\n    tag_114:\n        /* \"#utility.yul\":17704:17708   */\n      0x00\n        /* \"#utility.yul\":17742:17745   */\n      0x80\n        /* \"#utility.yul\":17731:17740   */\n      dup3\n        /* \"#utility.yul\":17727:17746   */\n      add\n        /* \"#utility.yul\":17719:17746   */\n      swap1\n      pop\n        /* \"#utility.yul\":17792:17801   */\n      dup2\n        /* \"#utility.yul\":17786:17790   */\n      dup2\n        /* \"#utility.yul\":17782:17802   */\n      sub\n        /* \"#utility.yul\":17778:17779   */\n      0x00\n        /* \"#utility.yul\":17767:17776   */\n      dup4\n        /* \"#utility.yul\":17763:17780   */\n      add\n        /* \"#utility.yul\":17756:17803   */\n      mstore\n        /* \"#utility.yul\":17820:17908   */\n      tag_535\n        /* \"#utility.yul\":17903:17907   */\n      dup2\n        /* \"#utility.yul\":17894:17900   */\n      dup9\n        /* \"#utility.yul\":17886:17892   */\n      dup11\n        /* \"#utility.yul\":17820:17908   */\n      tag_316\n      jump\t// in\n    tag_535:\n        /* \"#utility.yul\":17812:17908   */\n      swap1\n      pop\n        /* \"#utility.yul\":17918:17990   */\n      tag_536\n        /* \"#utility.yul\":17986:17988   */\n      0x20\n        /* \"#utility.yul\":17975:17984   */\n      dup4\n        /* \"#utility.yul\":17971:17989   */\n      add\n        /* \"#utility.yul\":17962:17968   */\n      dup8\n        /* \"#utility.yul\":17918:17990   */\n      tag_317\n      jump\t// in\n    tag_536:\n        /* \"#utility.yul\":18000:18072   */\n      tag_537\n        /* \"#utility.yul\":18068:18070   */\n      0x40\n        /* \"#utility.yul\":18057:18066   */\n      dup4\n        /* \"#utility.yul\":18053:18071   */\n      add\n        /* \"#utility.yul\":18044:18050   */\n      dup7\n        /* \"#utility.yul\":18000:18072   */\n      tag_317\n      jump\t// in\n    tag_537:\n        /* \"#utility.yul\":18119:18128   */\n      dup2\n        /* \"#utility.yul\":18113:18117   */\n      dup2\n        /* \"#utility.yul\":18109:18129   */\n      sub\n        /* \"#utility.yul\":18104:18106   */\n      0x60\n        /* \"#utility.yul\":18093:18102   */\n      dup4\n        /* \"#utility.yul\":18089:18107   */\n      add\n        /* \"#utility.yul\":18082:18130   */\n      mstore\n        /* \"#utility.yul\":18147:18287   */\n      tag_538\n        /* \"#utility.yul\":18282:18286   */\n      dup2\n        /* \"#utility.yul\":18273:18279   */\n      dup5\n        /* \"#utility.yul\":18265:18271   */\n      dup7\n        /* \"#utility.yul\":18147:18287   */\n      tag_328\n      jump\t// in\n    tag_538:\n        /* \"#utility.yul\":18139:18287   */\n      swap1\n      pop\n        /* \"#utility.yul\":17415:18294   */\n      swap8\n      swap7\n      pop\n      pop\n      pop\n      pop\n      pop\n      pop\n      pop\n      jump\t// out\n        /* \"#utility.yul\":18300:18465   */\n    tag_329:\n        /* \"#utility.yul\":18440:18457   */\n      0x6e6f74206f776e65722f61646d696e0000000000000000000000000000000000\n        /* \"#utility.yul\":18436:18437   */\n      0x00\n        /* \"#utility.yul\":18428:18434   */\n      dup3\n        /* \"#utility.yul\":18424:18438   */\n      add\n        /* \"#utility.yul\":18417:18458   */\n      mstore\n        /* \"#utility.yul\":18300:18465   */\n      pop\n      jump\t// out\n        /* \"#utility.yul\":18471:18837   */\n    tag_330:\n        /* \"#utility.yul\":18613:18616   */\n      0x00\n        /* \"#utility.yul\":18634:18701   */\n      tag_541\n        /* \"#utility.yul\":18698:18700   */\n      0x0f\n        /* \"#utility.yul\":18693:18696   */\n      dup4\n        /* \"#utility.yul\":18634:18701   */\n      tag_307\n      jump\t// in\n    tag_541:\n        /* \"#utility.yul\":18627:18701   */\n      swap2\n      pop\n        /* \"#utility.yul\":18710:18803   */\n      tag_542\n        /* \"#utility.yul\":18799:18802   */\n      dup3\n        /* \"#utility.yul\":18710:18803   */\n      tag_329\n      jump\t// in\n    tag_542:\n        /* \"#utility.yul\":18828:18830   */\n      0x20\n        /* \"#utility.yul\":18823:18826   */\n      dup3\n        /* \"#utility.yul\":18819:18831   */\n      add\n        /* \"#utility.yul\":18812:18831   */\n      swap1\n      pop\n        /* \"#utility.yul\":18471:18837   */\n      swap2\n      swap1\n      pop\n      jump\t// out\n        /* \"#utility.yul\":18843:19262   */\n    tag_122:\n        /* \"#utility.yul\":19009:19013   */\n      0x00\n        /* \"#utility.yul\":19047:19049   */\n      0x20\n        /* \"#utility.yul\":19036:19045   */\n      dup3\n        /* \"#utility.yul\":19032:19050   */\n      add\n        /* \"#utility.yul\":19024:19050   */\n      swap1\n      pop\n        /* \"#utility.yul\":19096:19105   */\n      dup2\n        /* \"#utility.yul\":19090:19094   */\n      dup2\n        /* \"#utility.yul\":19086:19106   */\n      sub\n        /* \"#utility.yul\":19082:19083   */\n      0x00\n        /* \"#utility.yul\":19071:19080   */\n      dup4\n        /* \"#utility.yul\":19067:19084   */\n      add\n        /* \"#utility.yul\":19060:19107   */\n      mstore\n        /* \"#utility.yul\":19124:19255   */\n      tag_544\n        /* \"#utility.yul\":19250:19254   */\n      dup2\n        /* \"#utility.yul\":19124:19255   */\n      tag_330\n      jump\t// in\n    tag_544:\n        /* \"#utility.yul\":19116:19255   */\n      swap1\n      pop\n        /* \"#utility.yul\":18843:19262   */\n      swap2\n      swap1\n      pop\n      jump\t// out\n        /* \"#utility.yul\":19268:19502   */\n    tag_331:\n        /* \"#utility.yul\":19408:19442   */\n      0x416363657373436f6e74726f6c3a2063616e206f6e6c792072656e6f756e6365\n        /* \"#utility.yul\":19404:19405   */\n      0x00\n        /* \"#utility.yul\":19396:19402   */\n      dup3\n        /* \"#utility.yul\":19392:19406   */\n      add\n        /* \"#utility.yul\":19385:19443   */\n      mstore\n        /* \"#utility.yul\":19477:19494   */\n      0x20726f6c657320666f722073656c660000000000000000000000000000000000\n        /* \"#utility.yul\":19472:19474   */\n      0x20\n        /* \"#utility.yul\":19464:19470   */\n      dup3\n        /* \"#utility.yul\":19460:19475   */\n      add\n        /* \"#utility.yul\":19453:19495   */\n      mstore\n        /* \"#utility.yul\":19268:19502   */\n      pop\n      jump\t// out\n        /* \"#utility.yul\":19508:19874   */\n    tag_332:\n        /* \"#utility.yul\":19650:19653   */\n      0x00\n        /* \"#utility.yul\":19671:19738   */\n      tag_547\n        /* \"#utility.yul\":19735:19737   */\n      0x2f\n        /* \"#utility.yul\":19730:19733   */\n      dup4\n        /* \"#utility.yul\":19671:19738   */\n      tag_307\n      jump\t// in\n    tag_547:\n        /* \"#utility.yul\":19664:19738   */\n      swap2\n      pop\n        /* \"#utility.yul\":19747:19840   */\n      tag_548\n        /* \"#utility.yul\":19836:19839   */\n      dup3\n        /* \"#utility.yul\":19747:19840   */\n      tag_331\n      jump\t// in\n    tag_548:\n        /* \"#utility.yul\":19865:19867   */\n      0x40\n        /* \"#utility.yul\":19860:19863   */\n      dup3\n        /* \"#utility.yul\":19856:19868   */\n      add\n        /* \"#utility.yul\":19849:19868   */\n      swap1\n      pop\n        /* \"#utility.yul\":19508:19874   */\n      swap2\n      swap1\n      pop\n      jump\t// out\n        /* \"#utility.yul\":19880:20299   */\n    tag_136:\n        /* \"#utility.yul\":20046:20050   */\n      0x00\n        /* \"#utility.yul\":20084:20086   */\n      0x20\n        /* \"#utility.yul\":20073:20082   */\n      dup3\n        /* \"#utility.yul\":20069:20087   */\n      add\n        /* \"#utility.yul\":20061:20087   */\n      swap1\n      pop\n        /* \"#utility.yul\":20133:20142   */\n      dup2\n        /* \"#utility.yul\":20127:20131   */\n      dup2\n        /* \"#utility.yul\":20123:20143   */\n      sub\n        /* \"#utility.yul\":20119:20120   */\n      0x00\n        /* \"#utility.yul\":20108:20117   */\n      dup4\n        /* \"#utility.yul\":20104:20121   */\n      add\n        /* \"#utility.yul\":20097:20144   */\n      mstore\n        /* \"#utility.yul\":20161:20292   */\n      tag_550\n        /* \"#utility.yul\":20287:20291   */\n      dup2\n        /* \"#utility.yul\":20161:20292   */\n      tag_332\n      jump\t// in\n    tag_550:\n        /* \"#utility.yul\":20153:20292   */\n      swap1\n      pop\n        /* \"#utility.yul\":19880:20299   */\n      swap2\n      swap1\n      pop\n      jump\t// out\n        /* \"#utility.yul\":20305:20464   */\n    tag_333:\n        /* \"#utility.yul\":20445:20456   */\n      0x4e6f742061646d696e0000000000000000000000000000000000000000000000\n        /* \"#utility.yul\":20441:20442   */\n      0x00\n        /* \"#utility.yul\":20433:20439   */\n      dup3\n        /* \"#utility.yul\":20429:20443   */\n      add\n        /* \"#utility.yul\":20422:20457   */\n      mstore\n        /* \"#utility.yul\":20305:20464   */\n      pop\n      jump\t// out\n        /* \"#utility.yul\":20470:20835   */\n    tag_334:\n        /* \"#utility.yul\":20612:20615   */\n      0x00\n        /* \"#utility.yul\":20633:20699   */\n      tag_553\n        /* \"#utility.yul\":20697:20698   */\n      0x09\n        /* \"#utility.yul\":20692:20695   */\n      dup4\n        /* \"#utility.yul\":20633:20699   */\n      tag_307\n      jump\t// in\n    tag_553:\n        /* \"#utility.yul\":20626:20699   */\n      swap2\n      pop\n        /* \"#utility.yul\":20708:20801   */\n      tag_554\n        /* \"#utility.yul\":20797:20800   */\n      dup3\n        /* \"#utility.yul\":20708:20801   */\n      tag_333\n      jump\t// in\n    tag_554:\n        /* \"#utility.yul\":20826:20828   */\n      0x20\n        /* \"#utility.yul\":20821:20824   */\n      dup3\n        /* \"#utility.yul\":20817:20829   */\n      add\n        /* \"#utility.yul\":20810:20829   */\n      swap1\n      pop\n        /* \"#utility.yul\":20470:20835   */\n      swap2\n      swap1\n      pop\n      jump\t// out\n        /* \"#utility.yul\":20841:21260   */\n    tag_143:\n        /* \"#utility.yul\":21007:21011   */\n      0x00\n        /* \"#utility.yul\":21045:21047   */\n      0x20\n        /* \"#utility.yul\":21034:21043   */\n      dup3\n        /* \"#utility.yul\":21030:21048   */\n      add\n        /* \"#utility.yul\":21022:21048   */\n      swap1\n      pop\n        /* \"#utility.yul\":21094:21103   */\n      dup2\n        /* \"#utility.yul\":21088:21092   */\n      dup2\n        /* \"#utility.yul\":21084:21104   */\n      sub\n        /* \"#utility.yul\":21080:21081   */\n      0x00\n        /* \"#utility.yul\":21069:21078   */\n      dup4\n        /* \"#utility.yul\":21065:21082   */\n      add\n        /* \"#utility.yul\":21058:21105   */\n      mstore\n        /* \"#utility.yul\":21122:21253   */\n      tag_556\n        /* \"#utility.yul\":21248:21252   */\n      dup2\n        /* \"#utility.yul\":21122:21253   */\n      tag_334\n      jump\t// in\n    tag_556:\n        /* \"#utility.yul\":21114:21253   */\n      swap1\n      pop\n        /* \"#utility.yul\":20841:21260   */\n      swap2\n      swap1\n      pop\n      jump\t// out\n        /* \"#utility.yul\":21266:21403   */\n    tag_335:\n        /* \"#utility.yul\":21320:21325   */\n      0x00\n        /* \"#utility.yul\":21351:21357   */\n      dup2\n        /* \"#utility.yul\":21345:21358   */\n      mload\n        /* \"#utility.yul\":21336:21358   */\n      swap1\n      pop\n        /* \"#utility.yul\":21367:21397   */\n      tag_558\n        /* \"#utility.yul\":21391:21396   */\n      dup2\n        /* \"#utility.yul\":21367:21397   */\n      tag_299\n      jump\t// in\n    tag_558:\n        /* \"#utility.yul\":21266:21403   */\n      swap3\n      swap2\n      pop\n      pop\n      jump\t// out\n        /* \"#utility.yul\":21409:21754   */\n    tag_164:\n        /* \"#utility.yul\":21476:21482   */\n      0x00\n        /* \"#utility.yul\":21525:21527   */\n      0x20\n        /* \"#utility.yul\":21513:21522   */\n      dup3\n        /* \"#utility.yul\":21504:21511   */\n      dup5\n        /* \"#utility.yul\":21500:21523   */\n      sub\n        /* \"#utility.yul\":21496:21528   */\n      slt\n        /* \"#utility.yul\":21493:21612   */\n      iszero\n      tag_560\n      jumpi\n        /* \"#utility.yul\":21531:21610   */\n      tag_561\n      tag_276\n      jump\t// in\n    tag_561:\n        /* \"#utility.yul\":21493:21612   */\n    tag_560:\n        /* \"#utility.yul\":21651:21652   */\n      0x00\n        /* \"#utility.yul\":21676:21737   */\n      tag_562\n        /* \"#utility.yul\":21729:21736   */\n      dup5\n        /* \"#utility.yul\":21720:21726   */\n      dup3\n        /* \"#utility.yul\":21709:21718   */\n      dup6\n        /* \"#utility.yul\":21705:21727   */\n      add\n        /* \"#utility.yul\":21676:21737   */\n      tag_335\n      jump\t// in\n    tag_562:\n        /* \"#utility.yul\":21666:21737   */\n      swap2\n      pop\n        /* \"#utility.yul\":21622:21747   */\n      pop\n        /* \"#utility.yul\":21409:21754   */\n      swap3\n      swap2\n      pop\n      pop\n      jump\t// out\n        /* \"#utility.yul\":21760:21921   */\n    tag_336:\n        /* \"#utility.yul\":21900:21913   */\n      0x6c6177796572206f6e6c79000000000000000000000000000000000000000000\n        /* \"#utility.yul\":21896:21897   */\n      0x00\n        /* \"#utility.yul\":21888:21894   */\n      dup3\n        /* \"#utility.yul\":21884:21898   */\n      add\n        /* \"#utility.yul\":21877:21914   */\n      mstore\n        /* \"#utility.yul\":21760:21921   */\n      pop\n      jump\t// out\n        /* \"#utility.yul\":21927:22293   */\n    tag_337:\n        /* \"#utility.yul\":22069:22072   */\n      0x00\n        /* \"#utility.yul\":22090:22157   */\n      tag_565\n        /* \"#utility.yul\":22154:22156   */\n      0x0b\n        /* \"#utility.yul\":22149:22152   */\n      dup4\n        /* \"#utility.yul\":22090:22157   */\n      tag_307\n      jump\t// in\n    tag_565:\n        /* \"#utility.yul\":22083:22157   */\n      swap2\n      pop\n        /* \"#utility.yul\":22166:22259   */\n      tag_566\n        /* \"#utility.yul\":22255:22258   */\n      dup3\n        /* \"#utility.yul\":22166:22259   */\n      tag_336\n      jump\t// in\n    tag_566:\n        /* \"#utility.yul\":22284:22286   */\n      0x20\n        /* \"#utility.yul\":22279:22282   */\n      dup3\n        /* \"#utility.yul\":22275:22287   */\n      add\n        /* \"#utility.yul\":22268:22287   */\n      swap1\n      pop\n        /* \"#utility.yul\":21927:22293   */\n      swap2\n      swap1\n      pop\n      jump\t// out\n        /* \"#utility.yul\":22299:22718   */\n    tag_167:\n        /* \"#utility.yul\":22465:22469   */\n      0x00\n        /* \"#utility.yul\":22503:22505   */\n      0x20\n        /* \"#utility.yul\":22492:22501   */\n      dup3\n        /* \"#utility.yul\":22488:22506   */\n      add\n        /* \"#utility.yul\":22480:22506   */\n      swap1\n      pop\n        /* \"#utility.yul\":22552:22561   */\n      dup2\n        /* \"#utility.yul\":22546:22550   */\n      dup2\n        /* \"#utility.yul\":22542:22562   */\n      sub\n        /* \"#utility.yul\":22538:22539   */\n      0x00\n        /* \"#utility.yul\":22527:22536   */\n      dup4\n        /* \"#utility.yul\":22523:22540   */\n      add\n        /* \"#utility.yul\":22516:22563   */\n      mstore\n        /* \"#utility.yul\":22580:22711   */\n      tag_568\n        /* \"#utility.yul\":22706:22710   */\n      dup2\n        /* \"#utility.yul\":22580:22711   */\n      tag_337\n      jump\t// in\n    tag_568:\n        /* \"#utility.yul\":22572:22711   */\n      swap1\n      pop\n        /* \"#utility.yul\":22299:22718   */\n      swap2\n      swap1\n      pop\n      jump\t// out\n        /* \"#utility.yul\":22724:23492   */\n    tag_171:\n        /* \"#utility.yul\":22985:22989   */\n      0x00\n        /* \"#utility.yul\":23023:23025   */\n      0x60\n        /* \"#utility.yul\":23012:23021   */\n      dup3\n        /* \"#utility.yul\":23008:23026   */\n      add\n        /* \"#utility.yul\":23000:23026   */\n      swap1\n      pop\n        /* \"#utility.yul\":23072:23081   */\n      dup2\n        /* \"#utility.yul\":23066:23070   */\n      dup2\n        /* \"#utility.yul\":23062:23082   */\n      sub\n        /* \"#utility.yul\":23058:23059   */\n      0x00\n        /* \"#utility.yul\":23047:23056   */\n      dup4\n        /* \"#utility.yul\":23043:23060   */\n      add\n        /* \"#utility.yul\":23036:23083   */\n      mstore\n        /* \"#utility.yul\":23100:23188   */\n      tag_570\n        /* \"#utility.yul\":23183:23187   */\n      dup2\n        /* \"#utility.yul\":23174:23180   */\n      dup8\n        /* \"#utility.yul\":23166:23172   */\n      dup10\n        /* \"#utility.yul\":23100:23188   */\n      tag_316\n      jump\t// in\n    tag_570:\n        /* \"#utility.yul\":23092:23188   */\n      swap1\n      pop\n        /* \"#utility.yul\":23198:23270   */\n      tag_571\n        /* \"#utility.yul\":23266:23268   */\n      0x20\n        /* \"#utility.yul\":23255:23264   */\n      dup4\n        /* \"#utility.yul\":23251:23269   */\n      add\n        /* \"#utility.yul\":23242:23248   */\n      dup7\n        /* \"#utility.yul\":23198:23270   */\n      tag_317\n      jump\t// in\n    tag_571:\n        /* \"#utility.yul\":23317:23326   */\n      dup2\n        /* \"#utility.yul\":23311:23315   */\n      dup2\n        /* \"#utility.yul\":23307:23327   */\n      sub\n        /* \"#utility.yul\":23302:23304   */\n      0x40\n        /* \"#utility.yul\":23291:23300   */\n      dup4\n        /* \"#utility.yul\":23287:23305   */\n      add\n        /* \"#utility.yul\":23280:23328   */\n      mstore\n        /* \"#utility.yul\":23345:23485   */\n      tag_572\n        /* \"#utility.yul\":23480:23484   */\n      dup2\n        /* \"#utility.yul\":23471:23477   */\n      dup5\n        /* \"#utility.yul\":23463:23469   */\n      dup7\n        /* \"#utility.yul\":23345:23485   */\n      tag_328\n      jump\t// in\n    tag_572:\n        /* \"#utility.yul\":23337:23485   */\n      swap1\n      pop\n        /* \"#utility.yul\":22724:23492   */\n      swap7\n      swap6\n      pop\n      pop\n      pop\n      pop\n      pop\n      pop\n      jump\t// out\n        /* \"#utility.yul\":23498:23658   */\n    tag_338:\n        /* \"#utility.yul\":23638:23650   */\n      0x6e6f206c697374696e6700000000000000000000000000000000000000000000\n        /* \"#utility.yul\":23634:23635   */\n      0x00\n        /* \"#utility.yul\":23626:23632   */\n      dup3\n        /* \"#utility.yul\":23622:23636   */\n      add\n        /* \"#utility.yul\":23615:23651   */\n      mstore\n        /* \"#utility.yul\":23498:23658   */\n      pop\n      jump\t// out\n        /* \"#utility.yul\":23664:24030   */\n    tag_339:\n        /* \"#utility.yul\":23806:23809   */\n      0x00\n        /* \"#utility.yul\":23827:23894   */\n      tag_575\n        /* \"#utility.yul\":23891:23893   */\n      0x0a\n        /* \"#utility.yul\":23886:23889   */\n      dup4\n        /* \"#utility.yul\":23827:23894   */\n      tag_307\n      jump\t// in\n    tag_575:\n        /* \"#utility.yul\":23820:23894   */\n      swap2\n      pop\n        /* \"#utility.yul\":23903:23996   */\n      tag_576\n        /* \"#utility.yul\":23992:23995   */\n      dup3\n        /* \"#utility.yul\":23903:23996   */\n      tag_338\n      jump\t// in\n    tag_576:\n        /* \"#utility.yul\":24021:24023   */\n      0x20\n        /* \"#utility.yul\":24016:24019   */\n      dup3\n        /* \"#utility.yul\":24012:24024   */\n      add\n        /* \"#utility.yul\":24005:24024   */\n      swap1\n      pop\n        /* \"#utility.yul\":23664:24030   */\n      swap2\n      swap1\n      pop\n      jump\t// out\n        /* \"#utility.yul\":24036:24455   */\n    tag_192:\n        /* \"#utility.yul\":24202:24206   */\n      0x00\n        /* \"#utility.yul\":24240:24242   */\n      0x20\n        /* \"#utility.yul\":24229:24238   */\n      dup3\n        /* \"#utility.yul\":24225:24243   */\n      add\n        /* \"#utility.yul\":24217:24243   */\n      swap1\n      pop\n        /* \"#utility.yul\":24289:24298   */\n      dup2\n        /* \"#utility.yul\":24283:24287   */\n      dup2\n        /* \"#utility.yul\":24279:24299   */\n      sub\n        /* \"#utility.yul\":24275:24276   */\n      0x00\n        /* \"#utility.yul\":24264:24273   */\n      dup4\n        /* \"#utility.yul\":24260:24277   */\n      add\n        /* \"#utility.yul\":24253:24300   */\n      mstore\n        /* \"#utility.yul\":24317:24448   */\n      tag_578\n        /* \"#utility.yul\":24443:24447   */\n      dup2\n        /* \"#utility.yul\":24317:24448   */\n      tag_339\n      jump\t// in\n    tag_578:\n        /* \"#utility.yul\":24309:24448   */\n      swap1\n      pop\n        /* \"#utility.yul\":24036:24455   */\n      swap2\n      swap1\n      pop\n      jump\t// out\n        /* \"#utility.yul\":24461:24627   */\n    tag_340:\n        /* \"#utility.yul\":24601:24619   */\n      0x5061757361626c653a2070617573656400000000000000000000000000000000\n        /* \"#utility.yul\":24597:24598   */\n      0x00\n        /* \"#utility.yul\":24589:24595   */\n      dup3\n        /* \"#utility.yul\":24585:24599   */\n      add\n        /* \"#utility.yul\":24578:24620   */\n      mstore\n        /* \"#utility.yul\":24461:24627   */\n      pop\n      jump\t// out\n        /* \"#utility.yul\":24633:24999   */\n    tag_341:\n        /* \"#utility.yul\":24775:24778   */\n      0x00\n        /* \"#utility.yul\":24796:24863   */\n      tag_581\n        /* \"#utility.yul\":24860:24862   */\n      0x10\n        /* \"#utility.yul\":24855:24858   */\n      dup4\n        /* \"#utility.yul\":24796:24863   */\n      tag_307\n      jump\t// in\n    tag_581:\n        /* \"#utility.yul\":24789:24863   */\n      swap2\n      pop\n        /* \"#utility.yul\":24872:24965   */\n      tag_582\n        /* \"#utility.yul\":24961:24964   */\n      dup3\n        /* \"#utility.yul\":24872:24965   */\n      tag_340\n      jump\t// in\n    tag_582:\n        /* \"#utility.yul\":24990:24992   */\n      0x20\n        /* \"#utility.yul\":24985:24988   */\n      dup3\n        /* \"#utility.yul\":24981:24993   */\n      add\n        /* \"#utility.yul\":24974:24993   */\n      swap1\n      pop\n        /* \"#utility.yul\":24633:24999   */\n      swap2\n      swap1\n      pop\n      jump\t// out\n        /* \"#utility.yul\":25005:25424   */\n    tag_204:\n        /* \"#utility.yul\":25171:25175   */\n      0x00\n        /* \"#utility.yul\":25209:25211   */\n      0x20\n        /* \"#utility.yul\":25198:25207   */\n      dup3\n        /* \"#utility.yul\":25194:25212   */\n      add\n        /* \"#utility.yul\":25186:25212   */\n      swap1\n      pop\n        /* \"#utility.yul\":25258:25267   */\n      dup2\n        /* \"#utility.yul\":25252:25256   */\n      dup2\n        /* \"#utility.yul\":25248:25268   */\n      sub\n        /* \"#utility.yul\":25244:25245   */\n      0x00\n        /* \"#utility.yul\":25233:25242   */\n      dup4\n        /* \"#utility.yul\":25229:25246   */\n      add\n        /* \"#utility.yul\":25222:25269   */\n      mstore\n        /* \"#utility.yul\":25286:25417   */\n      tag_584\n        /* \"#utility.yul\":25412:25416   */\n      dup2\n        /* \"#utility.yul\":25286:25417   */\n      tag_341\n      jump\t// in\n    tag_584:\n        /* \"#utility.yul\":25278:25417   */\n      swap1\n      pop\n        /* \"#utility.yul\":25005:25424   */\n      swap2\n      swap1\n      pop\n      jump\t// out\n        /* \"#utility.yul\":25430:25578   */\n    tag_342:\n        /* \"#utility.yul\":25532:25543   */\n      0x00\n        /* \"#utility.yul\":25569:25572   */\n      dup2\n        /* \"#utility.yul\":25554:25572   */\n      swap1\n      pop\n        /* \"#utility.yul\":25430:25578   */\n      swap3\n      swap2\n      pop\n      pop\n      jump\t// out\n        /* \"#utility.yul\":25584:25757   */\n    tag_343:\n        /* \"#utility.yul\":25724:25749   */\n      0x416363657373436f6e74726f6c3a206163636f756e7420000000000000000000\n        /* \"#utility.yul\":25720:25721   */\n      0x00\n        /* \"#utility.yul\":25712:25718   */\n      dup3\n        /* \"#utility.yul\":25708:25722   */\n      add\n        /* \"#utility.yul\":25701:25750   */\n      mstore\n        /* \"#utility.yul\":25584:25757   */\n      pop\n      jump\t// out\n        /* \"#utility.yul\":25763:26165   */\n    tag_344:\n        /* \"#utility.yul\":25923:25926   */\n      0x00\n        /* \"#utility.yul\":25944:26029   */\n      tag_588\n        /* \"#utility.yul\":26026:26028   */\n      0x17\n        /* \"#utility.yul\":26021:26024   */\n      dup4\n        /* \"#utility.yul\":25944:26029   */\n      tag_342\n      jump\t// in\n    tag_588:\n        /* \"#utility.yul\":25937:26029   */\n      swap2\n      pop\n        /* \"#utility.yul\":26038:26131   */\n      tag_589\n        /* \"#utility.yul\":26127:26130   */\n      dup3\n        /* \"#utility.yul\":26038:26131   */\n      tag_343\n      jump\t// in\n    tag_589:\n        /* \"#utility.yul\":26156:26158   */\n      0x17\n        /* \"#utility.yul\":26151:26154   */\n      dup3\n        /* \"#utility.yul\":26147:26159   */\n      add\n        /* \"#utility.yul\":26140:26159   */\n      swap1\n      pop\n        /* \"#utility.yul\":25763:26165   */\n      swap2\n      swap1\n      pop\n      jump\t// out\n        /* \"#utility.yul\":26171:26270   */\n    tag_345:\n        /* \"#utility.yul\":26223:26229   */\n      0x00\n        /* \"#utility.yul\":26257:26262   */\n      dup2\n        /* \"#utility.yul\":26251:26263   */\n      mload\n        /* \"#utility.yul\":26241:26263   */\n      swap1\n      pop\n        /* \"#utility.yul\":26171:26270   */\n      swap2\n      swap1\n      pop\n      jump\t// out\n        /* \"#utility.yul\":26276:26415   */\n    tag_346:\n        /* \"#utility.yul\":26365:26371   */\n      dup3\n        /* \"#utility.yul\":26360:26363   */\n      dup2\n        /* \"#utility.yul\":26355:26358   */\n      dup4\n        /* \"#utility.yul\":26349:26372   */\n      mcopy\n        /* \"#utility.yul\":26406:26407   */\n      0x00\n        /* \"#utility.yul\":26397:26403   */\n      dup4\n        /* \"#utility.yul\":26392:26395   */\n      dup4\n        /* \"#utility.yul\":26388:26404   */\n      add\n        /* \"#utility.yul\":26381:26408   */\n      mstore\n        /* \"#utility.yul\":26276:26415   */\n      pop\n      pop\n      pop\n      jump\t// out\n        /* \"#utility.yul\":26421:26811   */\n    tag_347:\n        /* \"#utility.yul\":26527:26530   */\n      0x00\n        /* \"#utility.yul\":26555:26594   */\n      tag_593\n        /* \"#utility.yul\":26588:26593   */\n      dup3\n        /* \"#utility.yul\":26555:26594   */\n      tag_345\n      jump\t// in\n    tag_593:\n        /* \"#utility.yul\":26610:26699   */\n      tag_594\n        /* \"#utility.yul\":26692:26698   */\n      dup2\n        /* \"#utility.yul\":26687:26690   */\n      dup6\n        /* \"#utility.yul\":26610:26699   */\n      tag_342\n      jump\t// in\n    tag_594:\n        /* \"#utility.yul\":26603:26699   */\n      swap4\n      pop\n        /* \"#utility.yul\":26708:26773   */\n      tag_595\n        /* \"#utility.yul\":26766:26772   */\n      dup2\n        /* \"#utility.yul\":26761:26764   */\n      dup6\n        /* \"#utility.yul\":26754:26758   */\n      0x20\n        /* \"#utility.yul\":26747:26752   */\n      dup7\n        /* \"#utility.yul\":26743:26759   */\n      add\n        /* \"#utility.yul\":26708:26773   */\n      tag_346\n      jump\t// in\n    tag_595:\n        /* \"#utility.yul\":26798:26804   */\n      dup1\n        /* \"#utility.yul\":26793:26796   */\n      dup5\n        /* \"#utility.yul\":26789:26805   */\n      add\n        /* \"#utility.yul\":26782:26805   */\n      swap2\n      pop\n        /* \"#utility.yul\":26531:26811   */\n      pop\n        /* \"#utility.yul\":26421:26811   */\n      swap3\n      swap2\n      pop\n      pop\n      jump\t// out\n        /* \"#utility.yul\":26817:26984   */\n    tag_348:\n        /* \"#utility.yul\":26957:26976   */\n      0x206973206d697373696e6720726f6c6520000000000000000000000000000000\n        /* \"#utility.yul\":26953:26954   */\n      0x00\n        /* \"#utility.yul\":26945:26951   */\n      dup3\n        /* \"#utility.yul\":26941:26955   */\n      add\n        /* \"#utility.yul\":26934:26977   */\n      mstore\n        /* \"#utility.yul\":26817:26984   */\n      pop\n      jump\t// out\n        /* \"#utility.yul\":26990:27392   */\n    tag_349:\n        /* \"#utility.yul\":27150:27153   */\n      0x00\n        /* \"#utility.yul\":27171:27256   */\n      tag_598\n        /* \"#utility.yul\":27253:27255   */\n      0x11\n        /* \"#utility.yul\":27248:27251   */\n      dup4\n        /* \"#utility.yul\":27171:27256   */\n      tag_342\n      jump\t// in\n    tag_598:\n        /* \"#utility.yul\":27164:27256   */\n      swap2\n      pop\n        /* \"#utility.yul\":27265:27358   */\n      tag_599\n        /* \"#utility.yul\":27354:27357   */\n      dup3\n        /* \"#utility.yul\":27265:27358   */\n      tag_348\n      jump\t// in\n    tag_599:\n        /* \"#utility.yul\":27383:27385   */\n      0x11\n        /* \"#utility.yul\":27378:27381   */\n      dup3\n        /* \"#utility.yul\":27374:27386   */\n      add\n        /* \"#utility.yul\":27367:27386   */\n      swap1\n      pop\n        /* \"#utility.yul\":26990:27392   */\n      swap2\n      swap1\n      pop\n      jump\t// out\n        /* \"#utility.yul\":27398:28365   */\n    tag_237:\n        /* \"#utility.yul\":27780:27783   */\n      0x00\n        /* \"#utility.yul\":27802:27950   */\n      tag_601\n        /* \"#utility.yul\":27946:27949   */\n      dup3\n        /* \"#utility.yul\":27802:27950   */\n      tag_344\n      jump\t// in\n    tag_601:\n        /* \"#utility.yul\":27795:27950   */\n      swap2\n      pop\n        /* \"#utility.yul\":27967:28062   */\n      tag_602\n        /* \"#utility.yul\":28058:28061   */\n      dup3\n        /* \"#utility.yul\":28049:28055   */\n      dup6\n        /* \"#utility.yul\":27967:28062   */\n      tag_347\n      jump\t// in\n    tag_602:\n        /* \"#utility.yul\":27960:28062   */\n      swap2\n      pop\n        /* \"#utility.yul\":28079:28227   */\n      tag_603\n        /* \"#utility.yul\":28223:28226   */\n      dup3\n        /* \"#utility.yul\":28079:28227   */\n      tag_349\n      jump\t// in\n    tag_603:\n        /* \"#utility.yul\":28072:28227   */\n      swap2\n      pop\n        /* \"#utility.yul\":28244:28339   */\n      tag_604\n        /* \"#utility.yul\":28335:28338   */\n      dup3\n        /* \"#utility.yul\":28326:28332   */\n      dup5\n        /* \"#utility.yul\":28244:28339   */\n      tag_347\n      jump\t// in\n    tag_604:\n        /* \"#utility.yul\":28237:28339   */\n      swap2\n      pop\n        /* \"#utility.yul\":28356:28359   */\n      dup2\n        /* \"#utility.yul\":28349:28359   */\n      swap1\n      pop\n        /* \"#utility.yul\":27398:28365   */\n      swap4\n      swap3\n      pop\n      pop\n      pop\n      jump\t// out\n        /* \"#utility.yul\":28371:28748   */\n    tag_350:\n        /* \"#utility.yul\":28459:28462   */\n      0x00\n        /* \"#utility.yul\":28487:28526   */\n      tag_606\n        /* \"#utility.yul\":28520:28525   */\n      dup3\n        /* \"#utility.yul\":28487:28526   */\n      tag_345\n      jump\t// in\n    tag_606:\n        /* \"#utility.yul\":28542:28613   */\n      tag_607\n        /* \"#utility.yul\":28606:28612   */\n      dup2\n        /* \"#utility.yul\":28601:28604   */\n      dup6\n        /* \"#utility.yul\":28542:28613   */\n      tag_307\n      jump\t// in\n    tag_607:\n        /* \"#utility.yul\":28535:28613   */\n      swap4\n      pop\n        /* \"#utility.yul\":28622:28687   */\n      tag_608\n        /* \"#utility.yul\":28680:28686   */\n      dup2\n        /* \"#utility.yul\":28675:28678   */\n      dup6\n        /* \"#utility.yul\":28668:28672   */\n      0x20\n        /* \"#utility.yul\":28661:28666   */\n      dup7\n        /* \"#utility.yul\":28657:28673   */\n      add\n        /* \"#utility.yul\":28622:28687   */\n      tag_346\n      jump\t// in\n    tag_608:\n        /* \"#utility.yul\":28712:28741   */\n      tag_609\n        /* \"#utility.yul\":28734:28740   */\n      dup2\n        /* \"#utility.yul\":28712:28741   */\n      tag_315\n      jump\t// in\n    tag_609:\n        /* \"#utility.yul\":28707:28710   */\n      dup5\n        /* \"#utility.yul\":28703:28742   */\n      add\n        /* \"#utility.yul\":28696:28742   */\n      swap2\n      pop\n        /* \"#utility.yul\":28463:28748   */\n      pop\n        /* \"#utility.yul\":28371:28748   */\n      swap3\n      swap2\n      pop\n      pop\n      jump\t// out\n        /* \"#utility.yul\":28754:29067   */\n    tag_239:\n        /* \"#utility.yul\":28867:28871   */\n      0x00\n        /* \"#utility.yul\":28905:28907   */\n      0x20\n        /* \"#utility.yul\":28894:28903   */\n      dup3\n        /* \"#utility.yul\":28890:28908   */\n      add\n        /* \"#utility.yul\":28882:28908   */\n      swap1\n      pop\n        /* \"#utility.yul\":28954:28963   */\n      dup2\n        /* \"#utility.yul\":28948:28952   */\n      dup2\n        /* \"#utility.yul\":28944:28964   */\n      sub\n        /* \"#utility.yul\":28940:28941   */\n      0x00\n        /* \"#utility.yul\":28929:28938   */\n      dup4\n        /* \"#utility.yul\":28925:28942   */\n      add\n        /* \"#utility.yul\":28918:28965   */\n      mstore\n        /* \"#utility.yul\":28982:29060   */\n      tag_611\n        /* \"#utility.yul\":29055:29059   */\n      dup2\n        /* \"#utility.yul\":29046:29052   */\n      dup5\n        /* \"#utility.yul\":28982:29060   */\n      tag_350\n      jump\t// in\n    tag_611:\n        /* \"#utility.yul\":28974:29060   */\n      swap1\n      pop\n        /* \"#utility.yul\":28754:29067   */\n      swap3\n      swap2\n      pop\n      pop\n      jump\t// out\n        /* \"#utility.yul\":29073:29243   */\n    tag_351:\n        /* \"#utility.yul\":29213:29235   */\n      0x5061757361626c653a206e6f7420706175736564000000000000000000000000\n        /* \"#utility.yul\":29209:29210   */\n      0x00\n        /* \"#utility.yul\":29201:29207   */\n      dup3\n        /* \"#utility.yul\":29197:29211   */\n      add\n        /* \"#utility.yul\":29190:29236   */\n      mstore\n        /* \"#utility.yul\":29073:29243   */\n      pop\n      jump\t// out\n        /* \"#utility.yul\":29249:29615   */\n    tag_352:\n        /* \"#utility.yul\":29391:29394   */\n      0x00\n        /* \"#utility.yul\":29412:29479   */\n      tag_614\n        /* \"#utility.yul\":29476:29478   */\n      0x14\n        /* \"#utility.yul\":29471:29474   */\n      dup4\n        /* \"#utility.yul\":29412:29479   */\n      tag_307\n      jump\t// in\n    tag_614:\n        /* \"#utility.yul\":29405:29479   */\n      swap2\n      pop\n        /* \"#utility.yul\":29488:29581   */\n      tag_615\n        /* \"#utility.yul\":29577:29580   */\n      dup3\n        /* \"#utility.yul\":29488:29581   */\n      tag_351\n      jump\t// in\n    tag_615:\n        /* \"#utility.yul\":29606:29608   */\n      0x20\n        /* \"#utility.yul\":29601:29604   */\n      dup3\n        /* \"#utility.yul\":29597:29609   */\n      add\n        /* \"#utility.yul\":29590:29609   */\n      swap1\n      pop\n        /* \"#utility.yul\":29249:29615   */\n      swap2\n      swap1\n      pop\n      jump\t// out\n        /* \"#utility.yul\":29621:30040   */\n    tag_244:\n        /* \"#utility.yul\":29787:29791   */\n      0x00\n        /* \"#utility.yul\":29825:29827   */\n      0x20\n        /* \"#utility.yul\":29814:29823   */\n      dup3\n        /* \"#utility.yul\":29810:29828   */\n      add\n        /* \"#utility.yul\":29802:29828   */\n      swap1\n      pop\n        /* \"#utility.yul\":29874:29883   */\n      dup2\n        /* \"#utility.yul\":29868:29872   */\n      dup2\n        /* \"#utility.yul\":29864:29884   */\n      sub\n        /* \"#utility.yul\":29860:29861   */\n      0x00\n        /* \"#utility.yul\":29849:29858   */\n      dup4\n        /* \"#utility.yul\":29845:29862   */\n      add\n        /* \"#utility.yul\":29838:29885   */\n      mstore\n        /* \"#utility.yul\":29902:30033   */\n      tag_617\n        /* \"#utility.yul\":30028:30032   */\n      dup2\n        /* \"#utility.yul\":29902:30033   */\n      tag_352\n      jump\t// in\n    tag_617:\n        /* \"#utility.yul\":29894:30033   */\n      swap1\n      pop\n        /* \"#utility.yul\":29621:30040   */\n      swap2\n      swap1\n      pop\n      jump\t// out\n        /* \"#utility.yul\":30046:30226   */\n    tag_353:\n        /* \"#utility.yul\":30094:30171   */\n      0x4e487b7100000000000000000000000000000000000000000000000000000000\n        /* \"#utility.yul\":30091:30092   */\n      0x00\n        /* \"#utility.yul\":30084:30172   */\n      mstore\n        /* \"#utility.yul\":30191:30195   */\n      0x11\n        /* \"#utility.yul\":30188:30189   */\n      0x04\n        /* \"#utility.yul\":30181:30196   */\n      mstore\n        /* \"#utility.yul\":30215:30219   */\n      0x24\n        /* \"#utility.yul\":30212:30213   */\n      0x00\n        /* \"#utility.yul\":30205:30220   */\n      revert\n        /* \"#utility.yul\":30232:30642   */\n    tag_249:\n        /* \"#utility.yul\":30272:30279   */\n      0x00\n        /* \"#utility.yul\":30295:30315   */\n      tag_620\n        /* \"#utility.yul\":30313:30314   */\n      dup3\n        /* \"#utility.yul\":30295:30315   */\n      tag_290\n      jump\t// in\n    tag_620:\n        /* \"#utility.yul\":30290:30315   */\n      swap2\n      pop\n        /* \"#utility.yul\":30329:30349   */\n      tag_621\n        /* \"#utility.yul\":30347:30348   */\n      dup4\n        /* \"#utility.yul\":30329:30349   */\n      tag_290\n      jump\t// in\n    tag_621:\n        /* \"#utility.yul\":30324:30349   */\n      swap3\n      pop\n        /* \"#utility.yul\":30384:30385   */\n      dup3\n        /* \"#utility.yul\":30381:30382   */\n      dup3\n        /* \"#utility.yul\":30377:30386   */\n      mul\n        /* \"#utility.yul\":30406:30436   */\n      tag_622\n        /* \"#utility.yul\":30424:30435   */\n      dup2\n        /* \"#utility.yul\":30406:30436   */\n      tag_290\n      jump\t// in\n    tag_622:\n        /* \"#utility.yul\":30395:30436   */\n      swap2\n      pop\n        /* \"#utility.yul\":30585:30586   */\n      dup3\n        /* \"#utility.yul\":30576:30583   */\n      dup3\n        /* \"#utility.yul\":30572:30587   */\n      div\n        /* \"#utility.yul\":30569:30570   */\n      dup5\n        /* \"#utility.yul\":30566:30588   */\n      eq\n        /* \"#utility.yul\":30546:30547   */\n      dup4\n        /* \"#utility.yul\":30539:30548   */\n      iszero\n        /* \"#utility.yul\":30519:30602   */\n      or\n        /* \"#utility.yul\":30496:30635   */\n      tag_623\n      jumpi\n        /* \"#utility.yul\":30615:30633   */\n      tag_624\n      tag_353\n      jump\t// in\n    tag_624:\n        /* \"#utility.yul\":30496:30635   */\n    tag_623:\n        /* \"#utility.yul\":30280:30642   */\n      pop\n        /* \"#utility.yul\":30232:30642   */\n      swap3\n      swap2\n      pop\n      pop\n      jump\t// out\n        /* \"#utility.yul\":30648:30839   */\n    tag_251:\n        /* \"#utility.yul\":30688:30691   */\n      0x00\n        /* \"#utility.yul\":30707:30727   */\n      tag_626\n        /* \"#utility.yul\":30725:30726   */\n      dup3\n        /* \"#utility.yul\":30707:30727   */\n      tag_290\n      jump\t// in\n    tag_626:\n        /* \"#utility.yul\":30702:30727   */\n      swap2\n      pop\n        /* \"#utility.yul\":30741:30761   */\n      tag_627\n        /* \"#utility.yul\":30759:30760   */\n      dup4\n        /* \"#utility.yul\":30741:30761   */\n      tag_290\n      jump\t// in\n    tag_627:\n        /* \"#utility.yul\":30736:30761   */\n      swap3\n      pop\n        /* \"#utility.yul\":30784:30785   */\n      dup3\n        /* \"#utility.yul\":30781:30782   */\n      dup3\n        /* \"#utility.yul\":30777:30786   */\n      add\n        /* \"#utility.yul\":30770:30786   */\n      swap1\n      pop\n        /* \"#utility.yul\":30805:30808   */\n      dup1\n        /* \"#utility.yul\":30802:30803   */\n      dup3\n        /* \"#utility.yul\":30799:30809   */\n      gt\n        /* \"#utility.yul\":30796:30832   */\n      iszero\n      tag_628\n      jumpi\n        /* \"#utility.yul\":30812:30830   */\n      tag_629\n      tag_353\n      jump\t// in\n    tag_629:\n        /* \"#utility.yul\":30796:30832   */\n    tag_628:\n        /* \"#utility.yul\":30648:30839   */\n      swap3\n      swap2\n      pop\n      pop\n      jump\t// out\n        /* \"#utility.yul\":30845:31025   */\n    tag_254:\n        /* \"#utility.yul\":30893:30970   */\n      0x4e487b7100000000000000000000000000000000000000000000000000000000\n        /* \"#utility.yul\":30890:30891   */\n      0x00\n        /* \"#utility.yul\":30883:30971   */\n      mstore\n        /* \"#utility.yul\":30990:30994   */\n      0x41\n        /* \"#utility.yul\":30987:30988   */\n      0x04\n        /* \"#utility.yul\":30980:30995   */\n      mstore\n        /* \"#utility.yul\":31014:31018   */\n      0x24\n        /* \"#utility.yul\":31011:31012   */\n      0x00\n        /* \"#utility.yul\":31004:31019   */\n      revert\n        /* \"#utility.yul\":31031:31211   */\n    tag_258:\n        /* \"#utility.yul\":31079:31156   */\n      0x4e487b7100000000000000000000000000000000000000000000000000000000\n        /* \"#utility.yul\":31076:31077   */\n      0x00\n        /* \"#utility.yul\":31069:31157   */\n      mstore\n        /* \"#utility.yul\":31176:31180   */\n      0x32\n        /* \"#utility.yul\":31173:31174   */\n      0x04\n        /* \"#utility.yul\":31166:31181   */\n      mstore\n        /* \"#utility.yul\":31200:31204   */\n      0x24\n        /* \"#utility.yul\":31197:31198   */\n      0x00\n        /* \"#utility.yul\":31190:31205   */\n      revert\n        /* \"#utility.yul\":31217:31388   */\n    tag_271:\n        /* \"#utility.yul\":31256:31259   */\n      0x00\n        /* \"#utility.yul\":31279:31303   */\n      tag_633\n        /* \"#utility.yul\":31297:31302   */\n      dup3\n        /* \"#utility.yul\":31279:31303   */\n      tag_290\n      jump\t// in\n    tag_633:\n        /* \"#utility.yul\":31270:31303   */\n      swap2\n      pop\n        /* \"#utility.yul\":31325:31329   */\n      0x00\n        /* \"#utility.yul\":31318:31323   */\n      dup3\n        /* \"#utility.yul\":31315:31330   */\n      sub\n        /* \"#utility.yul\":31312:31353   */\n      tag_634\n      jumpi\n        /* \"#utility.yul\":31333:31351   */\n      tag_635\n      tag_353\n      jump\t// in\n    tag_635:\n        /* \"#utility.yul\":31312:31353   */\n    tag_634:\n        /* \"#utility.yul\":31380:31381   */\n      0x01\n        /* \"#utility.yul\":31373:31378   */\n      dup3\n        /* \"#utility.yul\":31369:31382   */\n      sub\n        /* \"#utility.yul\":31362:31382   */\n      swap1\n      pop\n        /* \"#utility.yul\":31217:31388   */\n      swap2\n      swap1\n      pop\n      jump\t// out\n        /* \"#utility.yul\":31394:31576   */\n    tag_354:\n        /* \"#utility.yul\":31534:31568   */\n      0x537472696e67733a20686578206c656e67746820696e73756666696369656e74\n        /* \"#utility.yul\":31530:31531   */\n      0x00\n        /* \"#utility.yul\":31522:31528   */\n      dup3\n        /* \"#utility.yul\":31518:31532   */\n      add\n        /* \"#utility.yul\":31511:31569   */\n      mstore\n        /* \"#utility.yul\":31394:31576   */\n      pop\n      jump\t// out\n        /* \"#utility.yul\":31582:31948   */\n    tag_355:\n        /* \"#utility.yul\":31724:31727   */\n      0x00\n        /* \"#utility.yul\":31745:31812   */\n      tag_638\n        /* \"#utility.yul\":31809:31811   */\n      0x20\n        /* \"#utility.yul\":31804:31807   */\n      dup4\n        /* \"#utility.yul\":31745:31812   */\n      tag_307\n      jump\t// in\n    tag_638:\n        /* \"#utility.yul\":31738:31812   */\n      swap2\n      pop\n        /* \"#utility.yul\":31821:31914   */\n      tag_639\n        /* \"#utility.yul\":31910:31913   */\n      dup3\n        /* \"#utility.yul\":31821:31914   */\n      tag_354\n      jump\t// in\n    tag_639:\n        /* \"#utility.yul\":31939:31941   */\n      0x20\n        /* \"#utility.yul\":31934:31937   */\n      dup3\n        /* \"#utility.yul\":31930:31942   */\n      add\n        /* \"#utility.yul\":31923:31942   */\n      swap1\n      pop\n        /* \"#utility.yul\":31582:31948   */\n      swap2\n      swap1\n      pop\n      jump\t// out\n        /* \"#utility.yul\":31954:32373   */\n    tag_274:\n        /* \"#utility.yul\":32120:32124   */\n      0x00\n        /* \"#utility.yul\":32158:32160   */\n      0x20\n        /* \"#utility.yul\":32147:32156   */\n      dup3\n        /* \"#utility.yul\":32143:32161   */\n      add\n        /* \"#utility.yul\":32135:32161   */\n      swap1\n      pop\n        /* \"#utility.yul\":32207:32216   */\n      dup2\n        /* \"#utility.yul\":32201:32205   */\n      dup2\n        /* \"#utility.yul\":32197:32217   */\n      sub\n        /* \"#utility.yul\":32193:32194   */\n      0x00\n        /* \"#utility.yul\":32182:32191   */\n      dup4\n        /* \"#utility.yul\":32178:32195   */\n      add\n        /* \"#utility.yul\":32171:32218   */\n      mstore\n        /* \"#utility.yul\":32235:32366   */\n      tag_641\n        /* \"#utility.yul\":32361:32365   */\n      dup2\n        /* \"#utility.yul\":32235:32366   */\n      tag_355\n      jump\t// in\n    tag_641:\n        /* \"#utility.yul\":32227:32366   */\n      swap1\n      pop\n        /* \"#utility.yul\":31954:32373   */\n      swap2\n      swap1\n      pop\n      jump\t// out\n\n    auxdata: 0xa264697066735822122074a793e5e6725eca69a9bb301fd6f52eb2fb44fdfa4625fecfc4b5f259b6bab264736f6c634300081e0033\n}\n",
				"bytecode": {
					"linkReferences": {},
					"object": "60a060405234801561000f575f5ffd5b506040516126db3803806126db83398181016040528101906100319190610275565b5f60015f6101000a81548160ff02191690831515021790555061005c5f5f1b836100c760201b60201c565b61008c7f97667070c54ef182b0f5858b034beac1b6f3089aa2d3188bb1e8929f4fa9b929836100c760201b60201c565b8073ffffffffffffffffffffffffffffffffffffffff1660808173ffffffffffffffffffffffffffffffffffffffff168152505050506102b3565b6100d782826101ad60201b60201c565b6101a95760015f5f8481526020019081526020015f205f015f8373ffffffffffffffffffffffffffffffffffffffff1673ffffffffffffffffffffffffffffffffffffffff1681526020019081526020015f205f6101000a81548160ff02191690831515021790555061014e61021060201b60201c565b73ffffffffffffffffffffffffffffffffffffffff168173ffffffffffffffffffffffffffffffffffffffff16837f2f8788117e7eff1d82e926ec794901d17c78024a50270940304540a733656f0d60405160405180910390a45b5050565b5f5f5f8481526020019081526020015f205f015f8373ffffffffffffffffffffffffffffffffffffffff1673ffffffffffffffffffffffffffffffffffffffff1681526020019081526020015f205f9054906101000a900460ff16905092915050565b5f33905090565b5f5ffd5b5f73ffffffffffffffffffffffffffffffffffffffff82169050919050565b5f6102448261021b565b9050919050565b6102548161023a565b811461025e575f5ffd5b50565b5f8151905061026f8161024b565b92915050565b5f5f6040838503121561028b5761028a610217565b5b5f61029885828601610261565b92505060206102a985828601610261565b9150509250929050565b6080516124026102d95f395f81816108ce01528181610a9c0152610bbf01526124025ff3fe608060405234801561000f575f5ffd5b506004361061011f575f3560e01c806373d8df4a116100ab578063a5b333701161006f578063a5b33370146102c9578063ba6665b2146102f9578063cfc6c4b514610303578063d547741f14610333578063f5b541a61461034f5761011f565b806373d8df4a146102375780637b103999146102535780638456cb591461027157806391d148541461027b578063a217fddf146102ab5761011f565b80632f2ff15d116100f25780632f2ff15d146101bb57806336568abe146101d75780633f4ba83a146101f3578063558a7297146101fd5780635c975abb146102195761011f565b806301ffc9a71461012357806305d7e0cc146101535780632219774e1461016f578063248a9ca31461018b575b5f5ffd5b61013d6004803603810190610138919061151d565b61036d565b60405161014a9190611562565b60405180910390f35b61016d60048036038101906101689190611697565b6103e6565b005b6101896004803603810190610184919061174e565b6105cf565b005b6101a560048036038101906101a0919061174e565b6106eb565b6040516101b29190611788565b60405180910390f35b6101d560048036038101906101d091906117fb565b610707565b005b6101f160048036038101906101ec91906117fb565b610728565b005b6101fb6107ab565b005b61021760048036038101906102129190611863565b610800565b005b6102216108af565b60405161022e9190611562565b60405180910390f35b610251600480360381019061024c91906118a1565b6108c4565b005b61025b610a9a565b604051610268919061198d565b60405180910390f35b610279610abe565b005b610295600480360381019061029091906117fb565b610b13565b6040516102a29190611562565b60405180910390f35b6102b3610b76565b6040516102c09190611788565b60405180910390f35b6102e360048036038101906102de919061174e565b610b7c565b6040516102f091906119b5565b60405180910390f35b610301610bb5565b005b61031d600480360381019061031891906119ce565b610db6565b60405161032a9190611562565b60405180910390f35b61034d600480360381019061034891906117fb565b610e08565b005b610357610e29565b6040516103649190611788565b60405180910390f35b5f7f7965db0b000000000000000000000000000000000000000000000000000000007bffffffffffffffffffffffffffffffffffffffffffffffffffffffff1916827bffffffffffffffffffffffffffffffffffffffffffffffffffffffff191614806103df57506103de82610e4d565b5b9050919050565b6103ee610eb6565b5f73ffffffffffffffffffffffffffffffffffffffff1660035f8981526020019081526020015f205f9054906101000a900473ffffffffffffffffffffffffffffffffffffffff1673ffffffffffffffffffffffffffffffffffffffff161461048c576040517f08c379a000000000000000000000000000000000000000000000000000000000815260040161048390611a53565b60405180910390fd5b5f86869050116104d1576040517f08c379a00000000000000000000000000000000000000000000000000000000081526004016104c890611abb565b60405180910390fd5b5f8314806104df5750838310155b61051e576040517f08c379a000000000000000000000000000000000000000000000000000000000815260040161051590611b23565b60405180910390fd5b3360035f8981526020019081526020015f205f6101000a81548173ffffffffffffffffffffffffffffffffffffffff021916908373ffffffffffffffffffffffffffffffffffffffff1602179055503373ffffffffffffffffffffffffffffffffffffffff16877f48675d35033645783fb30a5b8ebd5044986d6e302c33751db084f52f9291b9d98888888888886040516105be96959493929190611cf2565b60405180910390a350505050505050565b6105d7610eb6565b3373ffffffffffffffffffffffffffffffffffffffff1660035f8381526020019081526020015f205f9054906101000a900473ffffffffffffffffffffffffffffffffffffffff1673ffffffffffffffffffffffffffffffffffffffff16148061064957506106485f5f1b33610b13565b5b610688576040517f08c379a000000000000000000000000000000000000000000000000000000000815260040161067f90611d91565b60405180910390fd5b60035f8281526020019081526020015f205f6101000a81549073ffffffffffffffffffffffffffffffffffffffff0219169055807f6651ce8991a6dfcf6417c4f614264d05982ee51b7ac81800262485eb952789c760405160405180910390a250565b5f5f5f8381526020019081526020015f20600101549050919050565b610710826106eb565b61071981610f00565b6107238383610f14565b505050565b610730610fee565b73ffffffffffffffffffffffffffffffffffffffff168173ffffffffffffffffffffffffffffffffffffffff161461079d576040517f08c379a000000000000000000000000000000000000000000000000000000000815260040161079490611e1f565b60405180910390fd5b6107a78282610ff5565b5050565b6107b75f5f1b33610b13565b6107f6576040517f08c379a00000000000000000000000000000000000000000000000000000000081526004016107ed90611e87565b60405180910390fd5b6107fe6110cf565b565b61080c5f5f1b33610b13565b61084b576040517f08c379a000000000000000000000000000000000000000000000000000000000815260040161084290611e87565b60405180910390fd5b80156108805761087b7f97667070c54ef182b0f5858b034beac1b6f3089aa2d3188bb1e8929f4fa9b92983610f14565b6108ab565b6108aa7f97667070c54ef182b0f5858b034beac1b6f3089aa2d3188bb1e8929f4fa9b92983610ff5565b5b5050565b5f60015f9054906101000a900460ff16905090565b6108cc610eb6565b7f000000000000000000000000000000000000000000000000000000000000000073ffffffffffffffffffffffffffffffffffffffff16635939a84e336040518263ffffffff1660e01b815260040161092591906119b5565b602060405180830381865afa158015610940573d5f5f3e3d5ffd5b505050506040513d601f19601f820116820180604052508101906109649190611eb9565b6109a3576040517f08c379a000000000000000000000000000000000000000000000000000000000815260040161099a90611f2e565b60405180910390fd5b5f85859050116109e8576040517f08c379a00000000000000000000000000000000000000000000000000000000081526004016109df90611abb565b60405180910390fd5b600160025f3373ffffffffffffffffffffffffffffffffffffffff1673ffffffffffffffffffffffffffffffffffffffff1681526020019081526020015f205f6101000a81548160ff0219169083151502179055503373ffffffffffffffffffffffffffffffffffffffff167f2a57dd4c7fb43c11c2ec41544dd1f1042ac2a2768e062779f53074639def2af78686868686604051610a8b959493929190611f4c565b60405180910390a25050505050565b7f000000000000000000000000000000000000000000000000000000000000000081565b610aca5f5f1b33610b13565b610b09576040517f08c379a0000000000000000000000000000000000000000000000000000000008152600401610b0090611e87565b60405180910390fd5b610b11611130565b565b5f5f5f8481526020019081526020015f205f015f8373ffffffffffffffffffffffffffffffffffffffff1673ffffffffffffffffffffffffffffffffffffffff1681526020019081526020015f205f9054906101000a900460ff16905092915050565b5f5f1b81565b5f60035f8381526020019081526020015f205f9054906101000a900473ffffffffffffffffffffffffffffffffffffffff169050919050565b610bbd610eb6565b7f000000000000000000000000000000000000000000000000000000000000000073ffffffffffffffffffffffffffffffffffffffff16635939a84e336040518263ffffffff1660e01b8152600401610c1691906119b5565b602060405180830381865afa158015610c31573d5f5f3e3d5ffd5b505050506040513d601f19601f82011682018060405250810190610c559190611eb9565b610c94576040517f08c379a0000000000000000000000000000000000000000000000000000000008152600401610c8b90611f2e565b60405180910390fd5b60025f3373ffffffffffffffffffffffffffffffffffffffff1673ffffffffffffffffffffffffffffffffffffffff1681526020019081526020015f205f9054906101000a900460ff16610d1d576040517f08c379a0000000000000000000000000000000000000000000000000000000008152600401610d1490611fdd565b60405180910390fd5b5f60025f3373ffffffffffffffffffffffffffffffffffffffff1673ffffffffffffffffffffffffffffffffffffffff1681526020019081526020015f205f6101000a81548160ff0219169083151502179055503373ffffffffffffffffffffffffffffffffffffffff167f55b0385547097c32b5a830c8fc394a36f1f77b7dc62a5f34dcd60b403abcd00960405160405180910390a2565b5f60025f8373ffffffffffffffffffffffffffffffffffffffff1673ffffffffffffffffffffffffffffffffffffffff1681526020019081526020015f205f9054906101000a900460ff169050919050565b610e11826106eb565b610e1a81610f00565b610e248383610ff5565b505050565b7f97667070c54ef182b0f5858b034beac1b6f3089aa2d3188bb1e8929f4fa9b92981565b5f7f01ffc9a7000000000000000000000000000000000000000000000000000000007bffffffffffffffffffffffffffffffffffffffffffffffffffffffff1916827bffffffffffffffffffffffffffffffffffffffffffffffffffffffff1916149050919050565b610ebe6108af565b15610efe576040517f08c379a0000000000000000000000000000000000000000000000000000000008152600401610ef590612045565b60405180910390fd5b565b610f1181610f0c610fee565b611191565b50565b610f1e8282610b13565b610fea5760015f5f8481526020019081526020015f205f015f8373ffffffffffffffffffffffffffffffffffffffff1673ffffffffffffffffffffffffffffffffffffffff1681526020019081526020015f205f6101000a81548160ff021916908315150217905550610f8f610fee565b73ffffffffffffffffffffffffffffffffffffffff168173ffffffffffffffffffffffffffffffffffffffff16837f2f8788117e7eff1d82e926ec794901d17c78024a50270940304540a733656f0d60405160405180910390a45b5050565b5f33905090565b610fff8282610b13565b156110cb575f5f5f8481526020019081526020015f205f015f8373ffffffffffffffffffffffffffffffffffffffff1673ffffffffffffffffffffffffffffffffffffffff1681526020019081526020015f205f6101000a81548160ff021916908315150217905550611070610fee565b73ffffffffffffffffffffffffffffffffffffffff168173ffffffffffffffffffffffffffffffffffffffff16837ff6391f5c32d9c69d2a47ea670b442974b53935d1edc7fd64eb21e047a839171b60405160405180910390a45b5050565b6110d7611215565b5f60015f6101000a81548160ff0219169083151502179055507f5db9ee0a495bf2e6ff9c91a7834c1ba4fdd244a5e8aa4e537bd38aeae4b073aa611119610fee565b60405161112691906119b5565b60405180910390a1565b611138610eb6565b6001805f6101000a81548160ff0219169083151502179055507f62e78cea01bee320cd4e420270b5ea74000d11b0c9f74754ebdbfc544b05a25861117a610fee565b60405161118791906119b5565b60405180910390a1565b61119b8282610b13565b611211576111a88161125e565b6111b5835f1c602061128b565b6040516020016111c6929190612149565b6040516020818303038152906040526040517f08c379a000000000000000000000000000000000000000000000000000000000815260040161120891906121ba565b60405180910390fd5b5050565b61121d6108af565b61125c576040517f08c379a000000000000000000000000000000000000000000000000000000000815260040161125390612224565b60405180910390fd5b565b60606112848273ffffffffffffffffffffffffffffffffffffffff16601460ff1661128b565b9050919050565b60605f600283600261129d919061226f565b6112a791906122b0565b67ffffffffffffffff8111156112c0576112bf6122e3565b5b6040519080825280601f01601f1916602001820160405280156112f25781602001600182028036833780820191505090505b5090507f3000000000000000000000000000000000000000000000000000000000000000815f8151811061132957611328612310565b5b60200101907effffffffffffffffffffffffffffffffffffffffffffffffffffffffffffff191690815f1a9053507f78000000000000000000000000000000000000000000000000000000000000008160018151811061138c5761138b612310565b5b60200101907effffffffffffffffffffffffffffffffffffffffffffffffffffffffffffff191690815f1a9053505f60018460026113ca919061226f565b6113d491906122b0565b90505b6001811115611473577f3031323334353637383961626364656600000000000000000000000000000000600f86166010811061141657611415612310565b5b1a60f81b82828151811061142d5761142c612310565b5b60200101907effffffffffffffffffffffffffffffffffffffffffffffffffffffffffffff191690815f1a905350600485901c94508061146c9061233d565b90506113d7565b505f84146114b6576040517f08c379a00000000000000000000000000000000000000000000000000000000081526004016114ad906123ae565b60405180910390fd5b8091505092915050565b5f5ffd5b5f5ffd5b5f7fffffffff0000000000000000000000000000000000000000000000000000000082169050919050565b6114fc816114c8565b8114611506575f5ffd5b50565b5f81359050611517816114f3565b92915050565b5f60208284031215611532576115316114c0565b5b5f61153f84828501611509565b91505092915050565b5f8115159050919050565b61155c81611548565b82525050565b5f6020820190506115755f830184611553565b92915050565b5f819050919050565b61158d8161157b565b8114611597575f5ffd5b50565b5f813590506115a881611584565b92915050565b5f5ffd5b5f5ffd5b5f5ffd5b5f5f83601f8401126115cf576115ce6115ae565b5b8235905067ffffffffffffffff8111156115ec576115eb6115b2565b5b602083019150836001820283011115611608576116076115b6565b5b9250929050565b5f819050919050565b6116218161160f565b811461162b575f5ffd5b50565b5f8135905061163c81611618565b92915050565b5f5f83601f840112611657576116566115ae565b5b8235905067ffffffffffffffff811115611674576116736115b2565b5b6020830191508360208202830111156116905761168f6115b6565b5b9250929050565b5f5f5f5f5f5f5f60a0888a0312156116b2576116b16114c0565b5b5f6116bf8a828b0161159a565b975050602088013567ffffffffffffffff8111156116e0576116df6114c4565b5b6116ec8a828b016115ba565b965096505060406116ff8a828b0161162e565b94505060606117108a828b0161162e565b935050608088013567ffffffffffffffff811115611731576117306114c4565b5b61173d8a828b01611642565b925092505092959891949750929550565b5f60208284031215611763576117626114c0565b5b5f6117708482850161159a565b91505092915050565b6117828161157b565b82525050565b5f60208201905061179b5f830184611779565b92915050565b5f73ffffffffffffffffffffffffffffffffffffffff82169050919050565b5f6117ca826117a1565b9050919050565b6117da816117c0565b81146117e4575f5ffd5b50565b5f813590506117f5816117d1565b92915050565b5f5f60408385031215611811576118106114c0565b5b5f61181e8582860161159a565b925050602061182f858286016117e7565b9150509250929050565b61184281611548565b811461184c575f5ffd5b50565b5f8135905061185d81611839565b92915050565b5f5f60408385031215611879576118786114c0565b5b5f611886858286016117e7565b92505060206118978582860161184f565b9150509250929050565b5f5f5f5f5f606086880312156118ba576118b96114c0565b5b5f86013567ffffffffffffffff8111156118d7576118d66114c4565b5b6118e3888289016115ba565b955095505060206118f68882890161162e565b935050604086013567ffffffffffffffff811115611917576119166114c4565b5b61192388828901611642565b92509250509295509295909350565b5f819050919050565b5f61195561195061194b846117a1565b611932565b6117a1565b9050919050565b5f6119668261193b565b9050919050565b5f6119778261195c565b9050919050565b6119878161196d565b82525050565b5f6020820190506119a05f83018461197e565b92915050565b6119af816117c0565b82525050565b5f6020820190506119c85f8301846119a6565b92915050565b5f602082840312156119e3576119e26114c0565b5b5f6119f0848285016117e7565b91505092915050565b5f82825260208201905092915050565b7f69642065786973747300000000000000000000000000000000000000000000005f82015250565b5f611a3d6009836119f9565b9150611a4882611a09565b602082019050919050565b5f6020820190508181035f830152611a6a81611a31565b9050919050565b7f656d7074792075726900000000000000000000000000000000000000000000005f82015250565b5f611aa56009836119f9565b9150611ab082611a71565b602082019050919050565b5f6020820190508181035f830152611ad281611a99565b9050919050565b7f6261642072616e676500000000000000000000000000000000000000000000005f82015250565b5f611b0d6009836119f9565b9150611b1882611ad9565b602082019050919050565b5f6020820190508181035f830152611b3a81611b01565b9050919050565b828183375f83830152505050565b5f601f19601f8301169050919050565b5f611b6a83856119f9565b9350611b77838584611b41565b611b8083611b4f565b840190509392505050565b611b948161160f565b82525050565b5f82825260208201905092915050565b5f819050919050565b5f82825260208201905092915050565b5f611bce8385611bb3565b9350611bdb838584611b41565b611be483611b4f565b840190509392505050565b5f611bfb848484611bc3565b90509392505050565b5f5ffd5b5f5ffd5b5f5ffd5b5f5f83356001602003843603038112611c2c57611c2b611c0c565b5b83810192508235915060208301925067ffffffffffffffff821115611c5457611c53611c04565b5b600182023603831315611c6a57611c69611c08565b5b509250929050565b5f602082019050919050565b5f611c898385611b9a565b935083602084028501611c9b84611baa565b805f5b87811015611ce0578484038952611cb58284611c10565b611cc0868284611bef565b9550611ccb84611c72565b935060208b019a505050600181019050611c9e565b50829750879450505050509392505050565b5f6080820190508181035f830152611d0b81888a611b5f565b9050611d1a6020830187611b8b565b611d276040830186611b8b565b8181036060830152611d3a818486611c7e565b9050979650505050505050565b7f6e6f74206f776e65722f61646d696e00000000000000000000000000000000005f82015250565b5f611d7b600f836119f9565b9150611d8682611d47565b602082019050919050565b5f6020820190508181035f830152611da881611d6f565b9050919050565b7f416363657373436f6e74726f6c3a2063616e206f6e6c792072656e6f756e63655f8201527f20726f6c657320666f722073656c660000000000000000000000000000000000602082015250565b5f611e09602f836119f9565b9150611e1482611daf565b604082019050919050565b5f6020820190508181035f830152611e3681611dfd565b9050919050565b7f4e6f742061646d696e00000000000000000000000000000000000000000000005f82015250565b5f611e716009836119f9565b9150611e7c82611e3d565b602082019050919050565b5f6020820190508181035f830152611e9e81611e65565b9050919050565b5f81519050611eb381611839565b92915050565b5f60208284031215611ece57611ecd6114c0565b5b5f611edb84828501611ea5565b91505092915050565b7f6c6177796572206f6e6c790000000000000000000000000000000000000000005f82015250565b5f611f18600b836119f9565b9150611f2382611ee4565b602082019050919050565b5f6020820190508181035f830152611f4581611f0c565b9050919050565b5f6060820190508181035f830152611f65818789611b5f565b9050611f746020830186611b8b565b8181036040830152611f87818486611c7e565b90509695505050505050565b7f6e6f206c697374696e67000000000000000000000000000000000000000000005f82015250565b5f611fc7600a836119f9565b9150611fd282611f93565b602082019050919050565b5f6020820190508181035f830152611ff481611fbb565b9050919050565b7f5061757361626c653a20706175736564000000000000000000000000000000005f82015250565b5f61202f6010836119f9565b915061203a82611ffb565b602082019050919050565b5f6020820190508181035f83015261205c81612023565b9050919050565b5f81905092915050565b7f416363657373436f6e74726f6c3a206163636f756e74200000000000000000005f82015250565b5f6120a1601783612063565b91506120ac8261206d565b601782019050919050565b5f81519050919050565b8281835e5f83830152505050565b5f6120d9826120b7565b6120e38185612063565b93506120f38185602086016120c1565b80840191505092915050565b7f206973206d697373696e6720726f6c65200000000000000000000000000000005f82015250565b5f612133601183612063565b915061213e826120ff565b601182019050919050565b5f61215382612095565b915061215f82856120cf565b915061216a82612127565b915061217682846120cf565b91508190509392505050565b5f61218c826120b7565b61219681856119f9565b93506121a68185602086016120c1565b6121af81611b4f565b840191505092915050565b5f6020820190508181035f8301526121d28184612182565b905092915050565b7f5061757361626c653a206e6f74207061757365640000000000000000000000005f82015250565b5f61220e6014836119f9565b9150612219826121da565b602082019050919050565b5f6020820190508181035f83015261223b81612202565b9050919050565b7f4e487b71000000000000000000000000000000000000000000000000000000005f52601160045260245ffd5b5f6122798261160f565b91506122848361160f565b92508282026122928161160f565b915082820484148315176122a9576122a8612242565b5b5092915050565b5f6122ba8261160f565b91506122c58361160f565b92508282019050808211156122dd576122dc612242565b5b92915050565b7f4e487b71000000000000000000000000000000000000000000000000000000005f52604160045260245ffd5b7f4e487b71000000000000000000000000000000000000000000000000000000005f52603260045260245ffd5b5f6123478261160f565b91505f820361235957612358612242565b5b600182039050919050565b7f537472696e67733a20686578206c656e67746820696e73756666696369656e745f82015250565b5f6123986020836119f9565b91506123a382612364565b602082019050919050565b5f6020820190508181035f8301526123c58161238c565b905091905056fea264697066735822122074a793e5e6725eca69a9bb301fd6f52eb2fb44fdfa4625fecfc4b5f259b6bab264736f6c634300081e0033",
					"opcodes": "PUSH1 0xA0 PUSH1 0x40 MSTORE CALLVALUE DUP1 ISZERO PUSH2 0xF JUMPI PUSH0 PUSH0 REVERT JUMPDEST POP PUSH1 0x40 MLOAD PUSH2 0x26DB CODESIZE SUB DUP1 PUSH2 0x26DB DUP4 CODECOPY DUP2 DUP2 ADD PUSH1 0x40 MSTORE DUP2 ADD SWAP1 PUSH2 0x31 SWAP2 SWAP1 PUSH2 0x275 JUMP JUMPDEST PUSH0 PUSH1 0x1 PUSH0 PUSH2 0x100 EXP DUP2 SLOAD DUP2 PUSH1 0xFF MUL NOT AND SWAP1 DUP4 ISZERO ISZERO MUL OR SWAP1 SSTORE POP PUSH2 0x5C PUSH0 PUSH0 SHL DUP4 PUSH2 0xC7 PUSH1 0x20 SHL PUSH1 0x20 SHR JUMP JUMPDEST PUSH2 0x8C PUSH32 0x97667070C54EF182B0F5858B034BEAC1B6F3089AA2D3188BB1E8929F4FA9B929 DUP4 PUSH2 0xC7 PUSH1 0x20 SHL PUSH1 0x20 SHR JUMP JUMPDEST DUP1 PUSH20 0xFFFFFFFFFFFFFFFFFFFFFFFFFFFFFFFFFFFFFFFF AND PUSH1 0x80 DUP2 PUSH20 0xFFFFFFFFFFFFFFFFFFFFFFFFFFFFFFFFFFFFFFFF AND DUP2 MSTORE POP POP POP POP PUSH2 0x2B3 JUMP JUMPDEST PUSH2 0xD7 DUP3 DUP3 PUSH2 0x1AD PUSH1 0x20 SHL PUSH1 0x20 SHR JUMP JUMPDEST PUSH2 0x1A9 JUMPI PUSH1 0x1 PUSH0 PUSH0 DUP5 DUP2 MSTORE PUSH1 0x20 ADD SWAP1 DUP2 MSTORE PUSH1 0x20 ADD PUSH0 KECCAK256 PUSH0 ADD PUSH0 DUP4 PUSH20 0xFFFFFFFFFFFFFFFFFFFFFFFFFFFFFFFFFFFFFFFF AND PUSH20 0xFFFFFFFFFFFFFFFFFFFFFFFFFFFFFFFFFFFFFFFF AND DUP2 MSTORE PUSH1 0x20 ADD SWAP1 DUP2 MSTORE PUSH1 0x20 ADD PUSH0 KECCAK256 PUSH0 PUSH2 0x100 EXP DUP2 SLOAD DUP2 PUSH1 0xFF MUL NOT AND SWAP1 DUP4 ISZERO ISZERO MUL OR SWAP1 SSTORE POP PUSH2 0x14E PUSH2 0x210 PUSH1 0x20 SHL PUSH1 0x20 SHR JUMP JUMPDEST PUSH20 0xFFFFFFFFFFFFFFFFFFFFFFFFFFFFFFFFFFFFFFFF AND DUP2 PUSH20 0xFFFFFFFFFFFFFFFFFFFFFFFFFFFFFFFFFFFFFFFF AND DUP4 PUSH32 0x2F8788117E7EFF1D82E926EC794901D17C78024A50270940304540A733656F0D PUSH1 0x40 MLOAD PUSH1 0x40 MLOAD DUP1 SWAP2 SUB SWAP1 LOG4 JUMPDEST POP POP JUMP JUMPDEST PUSH0 PUSH0 PUSH0 DUP5 DUP2 MSTORE PUSH1 0x20 ADD SWAP1 DUP2 MSTORE PUSH1 0x20 ADD PUSH0 KECCAK256 PUSH0 ADD PUSH0 DUP4 PUSH20 0xFFFFFFFFFFFFFFFFFFFFFFFFFFFFFFFFFFFFFFFF AND PUSH20 0xFFFFFFFFFFFFFFFFFFFFFFFFFFFFFFFFFFFFFFFF AND DUP2 MSTORE PUSH1 0x20 ADD SWAP1 DUP2 MSTORE PUSH1 0x20 ADD PUSH0 KECCAK256 PUSH0 SWAP1 SLOAD SWAP1 PUSH2 0x100 EXP SWAP1 DIV PUSH1 0xFF AND SWAP1 POP SWAP3 SWAP2 POP POP JUMP JUMPDEST PUSH0 CALLER SWAP1 POP SWAP1 JUMP JUMPDEST PUSH0 PUSH0 REVERT JUMPDEST PUSH0 PUSH20 0xFFFFFFFFFFFFFFFFFFFFFFFFFFFFFFFFFFFFFFFF DUP3 AND SWAP1 POP SWAP2 SWAP1 POP JUMP JUMPDEST PUSH0 PUSH2 0x244 DUP3 PUSH2 0x21B JUMP JUMPDEST SWAP1 POP SWAP2 SWAP1 POP JUMP JUMPDEST PUSH2 0x254 DUP2 PUSH2 0x23A JUMP JUMPDEST DUP2 EQ PUSH2 0x25E JUMPI PUSH0 PUSH0 REVERT JUMPDEST POP JUMP JUMPDEST PUSH0 DUP2 MLOAD SWAP1 POP PUSH2 0x26F DUP2 PUSH2 0x24B JUMP JUMPDEST SWAP3 SWAP2 POP POP JUMP JUMPDEST PUSH0 PUSH0 PUSH1 0x40 DUP4 DUP6 SUB SLT ISZERO PUSH2 0x28B JUMPI PUSH2 0x28A PUSH2 0x217 JUMP JUMPDEST JUMPDEST PUSH0 PUSH2 0x298 DUP6 DUP3 DUP7 ADD PUSH2 0x261 JUMP JUMPDEST SWAP3 POP POP PUSH1 0x20 PUSH2 0x2A9 DUP6 DUP3 DUP7 ADD PUSH2 0x261 JUMP JUMPDEST SWAP2 POP POP SWAP3 POP SWAP3 SWAP1 POP JUMP JUMPDEST PUSH1 0x80 MLOAD PUSH2 0x2402 PUSH2 0x2D9 PUSH0 CODECOPY PUSH0 DUP2 DUP2 PUSH2 0x8CE ADD MSTORE DUP2 DUP2 PUSH2 0xA9C ADD MSTORE PUSH2 0xBBF ADD MSTORE PUSH2 0x2402 PUSH0 RETURN INVALID PUSH1 0x80 PUSH1 0x40 MSTORE CALLVALUE DUP1 ISZERO PUSH2 0xF JUMPI PUSH0 PUSH0 REVERT JUMPDEST POP PUSH1 0x4 CALLDATASIZE LT PUSH2 0x11F JUMPI PUSH0 CALLDATALOAD PUSH1 0xE0 SHR DUP1 PUSH4 0x73D8DF4A GT PUSH2 0xAB JUMPI DUP1 PUSH4 0xA5B33370 GT PUSH2 0x6F JUMPI DUP1 PUSH4 0xA5B33370 EQ PUSH2 0x2C9 JUMPI DUP1 PUSH4 0xBA6665B2 EQ PUSH2 0x2F9 JUMPI DUP1 PUSH4 0xCFC6C4B5 EQ PUSH2 0x303 JUMPI DUP1 PUSH4 0xD547741F EQ PUSH2 0x333 JUMPI DUP1 PUSH4 0xF5B541A6 EQ PUSH2 0x34F JUMPI PUSH2 0x11F JUMP JUMPDEST DUP1 PUSH4 0x73D8DF4A EQ PUSH2 0x237 JUMPI DUP1 PUSH4 0x7B103999 EQ PUSH2 0x253 JUMPI DUP1 PUSH4 0x8456CB59 EQ PUSH2 0x271 JUMPI DUP1 PUSH4 0x91D14854 EQ PUSH2 0x27B JUMPI DUP1 PUSH4 0xA217FDDF EQ PUSH2 0x2AB JUMPI PUSH2 0x11F JUMP JUMPDEST DUP1 PUSH4 0x2F2FF15D GT PUSH2 0xF2 JUMPI DUP1 PUSH4 0x2F2FF15D EQ PUSH2 0x1BB JUMPI DUP1 PUSH4 0x36568ABE EQ PUSH2 0x1D7 JUMPI DUP1 PUSH4 0x3F4BA83A EQ PUSH2 0x1F3 JUMPI DUP1 PUSH4 0x558A7297 EQ PUSH2 0x1FD JUMPI DUP1 PUSH4 0x5C975ABB EQ PUSH2 0x219 JUMPI PUSH2 0x11F JUMP JUMPDEST DUP1 PUSH4 0x1FFC9A7 EQ PUSH2 0x123 JUMPI DUP1 PUSH4 0x5D7E0CC EQ PUSH2 0x153 JUMPI DUP1 PUSH4 0x2219774E EQ PUSH2 0x16F JUMPI DUP1 PUSH4 0x248A9CA3 EQ PUSH2 0x18B JUMPI JUMPDEST PUSH0 PUSH0 REVERT JUMPDEST PUSH2 0x13D PUSH1 0x4 DUP1 CALLDATASIZE SUB DUP2 ADD SWAP1 PUSH2 0x138 SWAP2 SWAP1 PUSH2 0x151D JUMP JUMPDEST PUSH2 0x36D JUMP JUMPDEST PUSH1 0x40 MLOAD PUSH2 0x14A SWAP2 SWAP1 PUSH2 0x1562 JUMP JUMPDEST PUSH1 0x40 MLOAD DUP1 SWAP2 SUB SWAP1 RETURN JUMPDEST PUSH2 0x16D PUSH1 0x4 DUP1 CALLDATASIZE SUB DUP2 ADD SWAP1 PUSH2 0x168 SWAP2 SWAP1 PUSH2 0x1697 JUMP JUMPDEST PUSH2 0x3E6 JUMP JUMPDEST STOP JUMPDEST PUSH2 0x189 PUSH1 0x4 DUP1 CALLDATASIZE SUB DUP2 ADD SWAP1 PUSH2 0x184 SWAP2 SWAP1 PUSH2 0x174E JUMP JUMPDEST PUSH2 0x5CF JUMP JUMPDEST STOP JUMPDEST PUSH2 0x1A5 PUSH1 0x4 DUP1 CALLDATASIZE SUB DUP2 ADD SWAP1 PUSH2 0x1A0 SWAP2 SWAP1 PUSH2 0x174E JUMP JUMPDEST PUSH2 0x6EB JUMP JUMPDEST PUSH1 0x40 MLOAD PUSH2 0x1B2 SWAP2 SWAP1 PUSH2 0x1788 JUMP JUMPDEST PUSH1 0x40 MLOAD DUP1 SWAP2 SUB SWAP1 RETURN JUMPDEST PUSH2 0x1D5 PUSH1 0x4 DUP1 CALLDATASIZE SUB DUP2 ADD SWAP1 PUSH2 0x1D0 SWAP2 SWAP1 PUSH2 0x17FB JUMP JUMPDEST PUSH2 0x707 JUMP JUMPDEST STOP JUMPDEST PUSH2 0x1F1 PUSH1 0x4 DUP1 CALLDATASIZE SUB DUP2 ADD SWAP1 PUSH2 0x1EC SWAP2 SWAP1 PUSH2 0x17FB JUMP JUMPDEST PUSH2 0x728 JUMP JUMPDEST STOP JUMPDEST PUSH2 0x1FB PUSH2 0x7AB JUMP JUMPDEST STOP JUMPDEST PUSH2 0x217 PUSH1 0x4 DUP1 CALLDATASIZE SUB DUP2 ADD SWAP1 PUSH2 0x212 SWAP2 SWAP1 PUSH2 0x1863 JUMP JUMPDEST PUSH2 0x800 JUMP JUMPDEST STOP JUMPDEST PUSH2 0x221 PUSH2 0x8AF JUMP JUMPDEST PUSH1 0x40 MLOAD PUSH2 0x22E SWAP2 SWAP1 PUSH2 0x1562 JUMP JUMPDEST PUSH1 0x40 MLOAD DUP1 SWAP2 SUB SWAP1 RETURN JUMPDEST PUSH2 0x251 PUSH1 0x4 DUP1 CALLDATASIZE SUB DUP2 ADD SWAP1 PUSH2 0x24C SWAP2 SWAP1 PUSH2 0x18A1 JUMP JUMPDEST PUSH2 0x8C4 JUMP JUMPDEST STOP JUMPDEST PUSH2 0x25B PUSH2 0xA9A JUMP JUMPDEST PUSH1 0x40 MLOAD PUSH2 0x268 SWAP2 SWAP1 PUSH2 0x198D JUMP JUMPDEST PUSH1 0x40 MLOAD DUP1 SWAP2 SUB SWAP1 RETURN JUMPDEST PUSH2 0x279 PUSH2 0xABE JUMP JUMPDEST STOP JUMPDEST PUSH2 0x295 PUSH1 0x4 DUP1 CALLDATASIZE SUB DUP2 ADD SWAP1 PUSH2 0x290 SWAP2 SWAP1 PUSH2 0x17FB JUMP JUMPDEST PUSH2 0xB13 JUMP JUMPDEST PUSH1 0x40 MLOAD PUSH2 0x2A2 SWAP2 SWAP1 PUSH2 0x1562 JUMP JUMPDEST PUSH1 0x40 MLOAD DUP1 SWAP2 SUB SWAP1 RETURN JUMPDEST PUSH2 0x2B3 PUSH2 0xB76 JUMP JUMPDEST PUSH1 0x40 MLOAD PUSH2 0x2C0 SWAP2 SWAP1 PUSH2 0x1788 JUMP JUMPDEST PUSH1 0x40 MLOAD DUP1 SWAP2 SUB SWAP1 RETURN JUMPDEST PUSH2 0x2E3 PUSH1 0x4 DUP1 CALLDATASIZE SUB DUP2 ADD SWAP1 PUSH2 0x2DE SWAP2 SWAP1 PUSH2 0x174E JUMP JUMPDEST PUSH2 0xB7C JUMP JUMPDEST PUSH1 0x40 MLOAD PUSH2 0x2F0 SWAP2 SWAP1 PUSH2 0x19B5 JUMP JUMPDEST PUSH1 0x40 MLOAD DUP1 SWAP2 SUB SWAP1 RETURN JUMPDEST PUSH2 0x301 PUSH2 0xBB5 JUMP JUMPDEST STOP JUMPDEST PUSH2 0x31D PUSH1 0x4 DUP1 CALLDATASIZE SUB DUP2 ADD SWAP1 PUSH2 0x318 SWAP2 SWAP1 PUSH2 0x19CE JUMP JUMPDEST PUSH2 0xDB6 JUMP JUMPDEST PUSH1 0x40 MLOAD PUSH2 0x32A SWAP2 SWAP1 PUSH2 0x1562 JUMP JUMPDEST PUSH1 0x40 MLOAD DUP1 SWAP2 SUB SWAP1 RETURN JUMPDEST PUSH2 0x34D PUSH1 0x4 DUP1 CALLDATASIZE SUB DUP2 ADD SWAP1 PUSH2 0x348 SWAP2 SWAP1 PUSH2 0x17FB JUMP JUMPDEST PUSH2 0xE08 JUMP JUMPDEST STOP JUMPDEST PUSH2 0x357 PUSH2 0xE29 JUMP JUMPDEST PUSH1 0x40 MLOAD PUSH2 0x364 SWAP2 SWAP1 PUSH2 0x1788 JUMP JUMPDEST PUSH1 0x40 MLOAD DUP1 SWAP2 SUB SWAP1 RETURN JUMPDEST PUSH0 PUSH32 0x7965DB0B00000000000000000000000000000000000000000000000000000000 PUSH28 0xFFFFFFFFFFFFFFFFFFFFFFFFFFFFFFFFFFFFFFFFFFFFFFFFFFFFFFFF NOT AND DUP3 PUSH28 0xFFFFFFFFFFFFFFFFFFFFFFFFFFFFFFFFFFFFFFFFFFFFFFFFFFFFFFFF NOT AND EQ DUP1 PUSH2 0x3DF JUMPI POP PUSH2 0x3DE DUP3 PUSH2 0xE4D JUMP JUMPDEST JUMPDEST SWAP1 POP SWAP2 SWAP1 POP JUMP JUMPDEST PUSH2 0x3EE PUSH2 0xEB6 JUMP JUMPDEST PUSH0 PUSH20 0xFFFFFFFFFFFFFFFFFFFFFFFFFFFFFFFFFFFFFFFF AND PUSH1 0x3 PUSH0 DUP10 DUP2 MSTORE PUSH1 0x20 ADD SWAP1 DUP2 MSTORE PUSH1 0x20 ADD PUSH0 KECCAK256 PUSH0 SWAP1 SLOAD SWAP1 PUSH2 0x100 EXP SWAP1 DIV PUSH20 0xFFFFFFFFFFFFFFFFFFFFFFFFFFFFFFFFFFFFFFFF AND PUSH20 0xFFFFFFFFFFFFFFFFFFFFFFFFFFFFFFFFFFFFFFFF AND EQ PUSH2 0x48C JUMPI PUSH1 0x40 MLOAD PUSH32 0x8C379A000000000000000000000000000000000000000000000000000000000 DUP2 MSTORE PUSH1 0x4 ADD PUSH2 0x483 SWAP1 PUSH2 0x1A53 JUMP JUMPDEST PUSH1 0x40 MLOAD DUP1 SWAP2 SUB SWAP1 REVERT JUMPDEST PUSH0 DUP7 DUP7 SWAP1 POP GT PUSH2 0x4D1 JUMPI PUSH1 0x40 MLOAD PUSH32 0x8C379A000000000000000000000000000000000000000000000000000000000 DUP2 MSTORE PUSH1 0x4 ADD PUSH2 0x4C8 SWAP1 PUSH2 0x1ABB JUMP JUMPDEST PUSH1 0x40 MLOAD DUP1 SWAP2 SUB SWAP1 REVERT JUMPDEST PUSH0 DUP4 EQ DUP1 PUSH2 0x4DF JUMPI POP DUP4 DUP4 LT ISZERO JUMPDEST PUSH2 0x51E JUMPI PUSH1 0x40 MLOAD PUSH32 0x8C379A000000000000000000000000000000000000000000000000000000000 DUP2 MSTORE PUSH1 0x4 ADD PUSH2 0x515 SWAP1 PUSH2 0x1B23 JUMP JUMPDEST PUSH1 0x40 MLOAD DUP1 SWAP2 SUB SWAP1 REVERT JUMPDEST CALLER PUSH1 0x3 PUSH0 DUP10 DUP2 MSTORE PUSH1 0x20 ADD SWAP1 DUP2 MSTORE PUSH1 0x20 ADD PUSH0 KECCAK256 PUSH0 PUSH2 0x100 EXP DUP2 SLOAD DUP2 PUSH20 0xFFFFFFFFFFFFFFFFFFFFFFFFFFFFFFFFFFFFFFFF MUL NOT AND SWAP1 DUP4 PUSH20 0xFFFFFFFFFFFFFFFFFFFFFFFFFFFFFFFFFFFFFFFF AND MUL OR SWAP1 SSTORE POP CALLER PUSH20 0xFFFFFFFFFFFFFFFFFFFFFFFFFFFFFFFFFFFFFFFF AND DUP8 PUSH32 0x48675D35033645783FB30A5B8EBD5044986D6E302C33751DB084F52F9291B9D9 DUP9 DUP9 DUP9 DUP9 DUP9 DUP9 PUSH1 0x40 MLOAD PUSH2 0x5BE SWAP7 SWAP6 SWAP5 SWAP4 SWAP3 SWAP2 SWAP1 PUSH2 0x1CF2 JUMP JUMPDEST PUSH1 0x40 MLOAD DUP1 SWAP2 SUB SWAP1 LOG3 POP POP POP POP POP POP POP JUMP JUMPDEST PUSH2 0x5D7 PUSH2 0xEB6 JUMP JUMPDEST CALLER PUSH20 0xFFFFFFFFFFFFFFFFFFFFFFFFFFFFFFFFFFFFFFFF AND PUSH1 0x3 PUSH0 DUP4 DUP2 MSTORE PUSH1 0x20 ADD SWAP1 DUP2 MSTORE PUSH1 0x20 ADD PUSH0 KECCAK256 PUSH0 SWAP1 SLOAD SWAP1 PUSH2 0x100 EXP SWAP1 DIV PUSH20 0xFFFFFFFFFFFFFFFFFFFFFFFFFFFFFFFFFFFFFFFF AND PUSH20 0xFFFFFFFFFFFFFFFFFFFFFFFFFFFFFFFFFFFFFFFF AND EQ DUP1 PUSH2 0x649 JUMPI POP PUSH2 0x648 PUSH0 PUSH0 SHL CALLER PUSH2 0xB13 JUMP JUMPDEST JUMPDEST PUSH2 0x688 JUMPI PUSH1 0x40 MLOAD PUSH32 0x8C379A000000000000000000000000000000000000000000000000000000000 DUP2 MSTORE PUSH1 0x4 ADD PUSH2 0x67F SWAP1 PUSH2 0x1D91 JUMP JUMPDEST PUSH1 0x40 MLOAD DUP1 SWAP2 SUB SWAP1 REVERT JUMPDEST PUSH1 0x3 PUSH0 DUP3 DUP2 MSTORE PUSH1 0x20 ADD SWAP1 DUP2 MSTORE PUSH1 0x20 ADD PUSH0 KECCAK256 PUSH0 PUSH2 0x100 EXP DUP2 SLOAD SWAP1 PUSH20 0xFFFFFFFFFFFFFFFFFFFFFFFFFFFFFFFFFFFFFFFF MUL NOT AND SWAP1 SSTORE DUP1 PUSH32 0x6651CE8991A6DFCF6417C4F614264D05982EE51B7AC81800262485EB952789C7 PUSH1 0x40 MLOAD PUSH1 0x40 MLOAD DUP1 SWAP2 SUB SWAP1 LOG2 POP JUMP JUMPDEST PUSH0 PUSH0 PUSH0 DUP4 DUP2 MSTORE PUSH1 0x20 ADD SWAP1 DUP2 MSTORE PUSH1 0x20 ADD PUSH0 KECCAK256 PUSH1 0x1 ADD SLOAD SWAP1 POP SWAP2 SWAP1 POP JUMP JUMPDEST PUSH2 0x710 DUP3 PUSH2 0x6EB JUMP JUMPDEST PUSH2 0x719 DUP2 PUSH2 0xF00 JUMP JUMPDEST PUSH2 0x723 DUP4 DUP4 PUSH2 0xF14 JUMP JUMPDEST POP POP POP JUMP JUMPDEST PUSH2 0x730 PUSH2 0xFEE JUMP JUMPDEST PUSH20 0xFFFFFFFFFFFFFFFFFFFFFFFFFFFFFFFFFFFFFFFF AND DUP2 PUSH20 0xFFFFFFFFFFFFFFFFFFFFFFFFFFFFFFFFFFFFFFFF AND EQ PUSH2 0x79D JUMPI PUSH1 0x40 MLOAD PUSH32 0x8C379A000000000000000000000000000000000000000000000000000000000 DUP2 MSTORE PUSH1 0x4 ADD PUSH2 0x794 SWAP1 PUSH2 0x1E1F JUMP JUMPDEST PUSH1 0x40 MLOAD DUP1 SWAP2 SUB SWAP1 REVERT JUMPDEST PUSH2 0x7A7 DUP3 DUP3 PUSH2 0xFF5 JUMP JUMPDEST POP POP JUMP JUMPDEST PUSH2 0x7B7 PUSH0 PUSH0 SHL CALLER PUSH2 0xB13 JUMP JUMPDEST PUSH2 0x7F6 JUMPI PUSH1 0x40 MLOAD PUSH32 0x8C379A000000000000000000000000000000000000000000000000000000000 DUP2 MSTORE PUSH1 0x4 ADD PUSH2 0x7ED SWAP1 PUSH2 0x1E87 JUMP JUMPDEST PUSH1 0x40 MLOAD DUP1 SWAP2 SUB SWAP1 REVERT JUMPDEST PUSH2 0x7FE PUSH2 0x10CF JUMP JUMPDEST JUMP JUMPDEST PUSH2 0x80C PUSH0 PUSH0 SHL CALLER PUSH2 0xB13 JUMP JUMPDEST PUSH2 0x84B JUMPI PUSH1 0x40 MLOAD PUSH32 0x8C379A000000000000000000000000000000000000000000000000000000000 DUP2 MSTORE PUSH1 0x4 ADD PUSH2 0x842 SWAP1 PUSH2 0x1E87 JUMP JUMPDEST PUSH1 0x40 MLOAD DUP1 SWAP2 SUB SWAP1 REVERT JUMPDEST DUP1 ISZERO PUSH2 0x880 JUMPI PUSH2 0x87B PUSH32 0x97667070C54EF182B0F5858B034BEAC1B6F3089AA2D3188BB1E8929F4FA9B929 DUP4 PUSH2 0xF14 JUMP JUMPDEST PUSH2 0x8AB JUMP JUMPDEST PUSH2 0x8AA PUSH32 0x97667070C54EF182B0F5858B034BEAC1B6F3089AA2D3188BB1E8929F4FA9B929 DUP4 PUSH2 0xFF5 JUMP JUMPDEST JUMPDEST POP POP JUMP JUMPDEST PUSH0 PUSH1 0x1 PUSH0 SWAP1 SLOAD SWAP1 PUSH2 0x100 EXP SWAP1 DIV PUSH1 0xFF AND SWAP1 POP SWAP1 JUMP JUMPDEST PUSH2 0x8CC PUSH2 0xEB6 JUMP JUMPDEST PUSH32 0x0 PUSH20 0xFFFFFFFFFFFFFFFFFFFFFFFFFFFFFFFFFFFFFFFF AND PUSH4 0x5939A84E CALLER PUSH1 0x40 MLOAD DUP3 PUSH4 0xFFFFFFFF AND PUSH1 0xE0 SHL DUP2 MSTORE PUSH1 0x4 ADD PUSH2 0x925 SWAP2 SWAP1 PUSH2 0x19B5 JUMP JUMPDEST PUSH1 0x20 PUSH1 0x40 MLOAD DUP1 DUP4 SUB DUP2 DUP7 GAS STATICCALL ISZERO DUP1 ISZERO PUSH2 0x940 JUMPI RETURNDATASIZE PUSH0 PUSH0 RETURNDATACOPY RETURNDATASIZE PUSH0 REVERT JUMPDEST POP POP POP POP PUSH1 0x40 MLOAD RETURNDATASIZE PUSH1 0x1F NOT PUSH1 0x1F DUP3 ADD AND DUP3 ADD DUP1 PUSH1 0x40 MSTORE POP DUP2 ADD SWAP1 PUSH2 0x964 SWAP2 SWAP1 PUSH2 0x1EB9 JUMP JUMPDEST PUSH2 0x9A3 JUMPI PUSH1 0x40 MLOAD PUSH32 0x8C379A000000000000000000000000000000000000000000000000000000000 DUP2 MSTORE PUSH1 0x4 ADD PUSH2 0x99A SWAP1 PUSH2 0x1F2E JUMP JUMPDEST PUSH1 0x40 MLOAD DUP1 SWAP2 SUB SWAP1 REVERT JUMPDEST PUSH0 DUP6 DUP6 SWAP1 POP GT PUSH2 0x9E8 JUMPI PUSH1 0x40 MLOAD PUSH32 0x8C379A000000000000000000000000000000000000000000000000000000000 DUP2 MSTORE PUSH1 0x4 ADD PUSH2 0x9DF SWAP1 PUSH2 0x1ABB JUMP JUMPDEST PUSH1 0x40 MLOAD DUP1 SWAP2 SUB SWAP1 REVERT JUMPDEST PUSH1 0x1 PUSH1 0x2 PUSH0 CALLER PUSH20 0xFFFFFFFFFFFFFFFFFFFFFFFFFFFFFFFFFFFFFFFF AND PUSH20 0xFFFFFFFFFFFFFFFFFFFFFFFFFFFFFFFFFFFFFFFF AND DUP2 MSTORE PUSH1 0x20 ADD SWAP1 DUP2 MSTORE PUSH1 0x20 ADD PUSH0 KECCAK256 PUSH0 PUSH2 0x100 EXP DUP2 SLOAD DUP2 PUSH1 0xFF MUL NOT AND SWAP1 DUP4 ISZERO ISZERO MUL OR SWAP1 SSTORE POP CALLER PUSH20 0xFFFFFFFFFFFFFFFFFFFFFFFFFFFFFFFFFFFFFFFF AND PUSH32 0x2A57DD4C7FB43C11C2EC41544DD1F1042AC2A2768E062779F53074639DEF2AF7 DUP7 DUP7 DUP7 DUP7 DUP7 PUSH1 0x40 MLOAD PUSH2 0xA8B SWAP6 SWAP5 SWAP4 SWAP3 SWAP2 SWAP1 PUSH2 0x1F4C JUMP JUMPDEST PUSH1 0x40 MLOAD DUP1 SWAP2 SUB SWAP1 LOG2 POP POP POP POP POP JUMP JUMPDEST PUSH32 0x0 DUP2 JUMP JUMPDEST PUSH2 0xACA PUSH0 PUSH0 SHL CALLER PUSH2 0xB13 JUMP JUMPDEST PUSH2 0xB09 JUMPI PUSH1 0x40 MLOAD PUSH32 0x8C379A000000000000000000000000000000000000000000000000000000000 DUP2 MSTORE PUSH1 0x4 ADD PUSH2 0xB00 SWAP1 PUSH2 0x1E87 JUMP JUMPDEST PUSH1 0x40 MLOAD DUP1 SWAP2 SUB SWAP1 REVERT JUMPDEST PUSH2 0xB11 PUSH2 0x1130 JUMP JUMPDEST JUMP JUMPDEST PUSH0 PUSH0 PUSH0 DUP5 DUP2 MSTORE PUSH1 0x20 ADD SWAP1 DUP2 MSTORE PUSH1 0x20 ADD PUSH0 KECCAK256 PUSH0 ADD PUSH0 DUP4 PUSH20 0xFFFFFFFFFFFFFFFFFFFFFFFFFFFFFFFFFFFFFFFF AND PUSH20 0xFFFFFFFFFFFFFFFFFFFFFFFFFFFFFFFFFFFFFFFF AND DUP2 MSTORE PUSH1 0x20 ADD SWAP1 DUP2 MSTORE PUSH1 0x20 ADD PUSH0 KECCAK256 PUSH0 SWAP1 SLOAD SWAP1 PUSH2 0x100 EXP SWAP1 DIV PUSH1 0xFF AND SWAP1 POP SWAP3 SWAP2 POP POP JUMP JUMPDEST PUSH0 PUSH0 SHL DUP2 JUMP JUMPDEST PUSH0 PUSH1 0x3 PUSH0 DUP4 DUP2 MSTORE PUSH1 0x20 ADD SWAP1 DUP2 MSTORE PUSH1 0x20 ADD PUSH0 KECCAK256 PUSH0 SWAP1 SLOAD SWAP1 PUSH2 0x100 EXP SWAP1 DIV PUSH20 0xFFFFFFFFFFFFFFFFFFFFFFFFFFFFFFFFFFFFFFFF AND SWAP1 POP SWAP2 SWAP1 POP JUMP JUMPDEST PUSH2 0xBBD PUSH2 0xEB6 JUMP JUMPDEST PUSH32 0x0 PUSH20 0xFFFFFFFFFFFFFFFFFFFFFFFFFFFFFFFFFFFFFFFF AND PUSH4 0x5939A84E CALLER PUSH1 0x40 MLOAD DUP3 PUSH4 0xFFFFFFFF AND PUSH1 0xE0 SHL DUP2 MSTORE PUSH1 0x4 ADD PUSH2 0xC16 SWAP2 SWAP1 PUSH2 0x19B5 JUMP JUMPDEST PUSH1 0x20 PUSH1 0x40 MLOAD DUP1 DUP4 SUB DUP2 DUP7 GAS STATICCALL ISZERO DUP1 ISZERO PUSH2 0xC31 JUMPI RETURNDATASIZE PUSH0 PUSH0 RETURNDATACOPY RETURNDATASIZE PUSH0 REVERT JUMPDEST POP POP POP POP PUSH1 0x40 MLOAD RETURNDATASIZE PUSH1 0x1F NOT PUSH1 0x1F DUP3 ADD AND DUP3 ADD DUP1 PUSH1 0x40 MSTORE POP DUP2 ADD SWAP1 PUSH2 0xC55 SWAP2 SWAP1 PUSH2 0x1EB9 JUMP JUMPDEST PUSH2 0xC94 JUMPI PUSH1 0x40 MLOAD PUSH32 0x8C379A000000000000000000000000000000000000000000000000000000000 DUP2 MSTORE PUSH1 0x4 ADD PUSH2 0xC8B SWAP1 PUSH2 0x1F2E JUMP JUMPDEST PUSH1 0x40 MLOAD DUP1 SWAP2 SUB SWAP1 REVERT JUMPDEST PUSH1 0x2 PUSH0 CALLER PUSH20 0xFFFFFFFFFFFFFFFFFFFFFFFFFFFFFFFFFFFFFFFF AND PUSH20 0xFFFFFFFFFFFFFFFFFFFFFFFFFFFFFFFFFFFFFFFF AND DUP2 MSTORE PUSH1 0x20 ADD SWAP1 DUP2 MSTORE PUSH1 0x20 ADD PUSH0 KECCAK256 PUSH0 SWAP1 SLOAD SWAP1 PUSH2 0x100 EXP SWAP1 DIV PUSH1 0xFF AND PUSH2 0xD1D JUMPI PUSH1 0x40 MLOAD PUSH32 0x8C379A000000000000000000000000000000000000000000000000000000000 DUP2 MSTORE PUSH1 0x4 ADD PUSH2 0xD14 SWAP1 PUSH2 0x1FDD JUMP JUMPDEST PUSH1 0x40 MLOAD DUP1 SWAP2 SUB SWAP1 REVERT JUMPDEST PUSH0 PUSH1 0x2 PUSH0 CALLER PUSH20 0xFFFFFFFFFFFFFFFFFFFFFFFFFFFFFFFFFFFFFFFF AND PUSH20 0xFFFFFFFFFFFFFFFFFFFFFFFFFFFFFFFFFFFFFFFF AND DUP2 MSTORE PUSH1 0x20 ADD SWAP1 DUP2 MSTORE PUSH1 0x20 ADD PUSH0 KECCAK256 PUSH0 PUSH2 0x100 EXP DUP2 SLOAD DUP2 PUSH1 0xFF MUL NOT AND SWAP1 DUP4 ISZERO ISZERO MUL OR SWAP1 SSTORE POP CALLER PUSH20 0xFFFFFFFFFFFFFFFFFFFFFFFFFFFFFFFFFFFFFFFF AND PUSH32 0x55B0385547097C32B5A830C8FC394A36F1F77B7DC62A5F34DCD60B403ABCD009 PUSH1 0x40 MLOAD PUSH1 0x40 MLOAD DUP1 SWAP2 SUB SWAP1 LOG2 JUMP JUMPDEST PUSH0 PUSH1 0x2 PUSH0 DUP4 PUSH20 0xFFFFFFFFFFFFFFFFFFFFFFFFFFFFFFFFFFFFFFFF AND PUSH20 0xFFFFFFFFFFFFFFFFFFFFFFFFFFFFFFFFFFFFFFFF AND DUP2 MSTORE PUSH1 0x20 ADD SWAP1 DUP2 MSTORE PUSH1 0x20 ADD PUSH0 KECCAK256 PUSH0 SWAP1 SLOAD SWAP1 PUSH2 0x100 EXP SWAP1 DIV PUSH1 0xFF AND SWAP1 POP SWAP2 SWAP1 POP JUMP JUMPDEST PUSH2 0xE11 DUP3 PUSH2 0x6EB JUMP JUMPDEST PUSH2 0xE1A DUP2 PUSH2 0xF00 JUMP JUMPDEST PUSH2 0xE24 DUP4 DUP4 PUSH2 0xFF5 JUMP JUMPDEST POP POP POP JUMP JUMPDEST PUSH32 0x97667070C54EF182B0F5858B034BEAC1B6F3089AA2D3188BB1E8929F4FA9B929 DUP2 JUMP JUMPDEST PUSH0 PUSH32 0x1FFC9A700000000000000000000000000000000000000000000000000000000 PUSH28 0xFFFFFFFFFFFFFFFFFFFFFFFFFFFFFFFFFFFFFFFFFFFFFFFFFFFFFFFF NOT AND DUP3 PUSH28 0xFFFFFFFFFFFFFFFFFFFFFFFFFFFFFFFFFFFFFFFFFFFFFFFFFFFFFFFF NOT AND EQ SWAP1 POP SWAP2 SWAP1 POP JUMP JUMPDEST PUSH2 0xEBE PUSH2 0x8AF JUMP JUMPDEST ISZERO PUSH2 0xEFE JUMPI PUSH1 0x40 MLOAD PUSH32 0x8C379A000000000000000000000000000000000000000000000000000000000 DUP2 MSTORE PUSH1 0x4 ADD PUSH2 0xEF5 SWAP1 PUSH2 0x2045 JUMP JUMPDEST PUSH1 0x40 MLOAD DUP1 SWAP2 SUB SWAP1 REVERT JUMPDEST JUMP JUMPDEST PUSH2 0xF11 DUP2 PUSH2 0xF0C PUSH2 0xFEE JUMP JUMPDEST PUSH2 0x1191 JUMP JUMPDEST POP JUMP JUMPDEST PUSH2 0xF1E DUP3 DUP3 PUSH2 0xB13 JUMP JUMPDEST PUSH2 0xFEA JUMPI PUSH1 0x1 PUSH0 PUSH0 DUP5 DUP2 MSTORE PUSH1 0x20 ADD SWAP1 DUP2 MSTORE PUSH1 0x20 ADD PUSH0 KECCAK256 PUSH0 ADD PUSH0 DUP4 PUSH20 0xFFFFFFFFFFFFFFFFFFFFFFFFFFFFFFFFFFFFFFFF AND PUSH20 0xFFFFFFFFFFFFFFFFFFFFFFFFFFFFFFFFFFFFFFFF AND DUP2 MSTORE PUSH1 0x20 ADD SWAP1 DUP2 MSTORE PUSH1 0x20 ADD PUSH0 KECCAK256 PUSH0 PUSH2 0x100 EXP DUP2 SLOAD DUP2 PUSH1 0xFF MUL NOT AND SWAP1 DUP4 ISZERO ISZERO MUL OR SWAP1 SSTORE POP PUSH2 0xF8F PUSH2 0xFEE JUMP JUMPDEST PUSH20 0xFFFFFFFFFFFFFFFFFFFFFFFFFFFFFFFFFFFFFFFF AND DUP2 PUSH20 0xFFFFFFFFFFFFFFFFFFFFFFFFFFFFFFFFFFFFFFFF AND DUP4 PUSH32 0x2F8788117E7EFF1D82E926EC794901D17C78024A50270940304540A733656F0D PUSH1 0x40 MLOAD PUSH1 0x40 MLOAD DUP1 SWAP2 SUB SWAP1 LOG4 JUMPDEST POP POP JUMP JUMPDEST PUSH0 CALLER SWAP1 POP SWAP1 JUMP JUMPDEST PUSH2 0xFFF DUP3 DUP3 PUSH2 0xB13 JUMP JUMPDEST ISZERO PUSH2 0x10CB JUMPI PUSH0 PUSH0 PUSH0 DUP5 DUP2 MSTORE PUSH1 0x20 ADD SWAP1 DUP2 MSTORE PUSH1 0x20 ADD PUSH0 KECCAK256 PUSH0 ADD PUSH0 DUP4 PUSH20 0xFFFFFFFFFFFFFFFFFFFFFFFFFFFFFFFFFFFFFFFF AND PUSH20 0xFFFFFFFFFFFFFFFFFFFFFFFFFFFFFFFFFFFFFFFF AND DUP2 MSTORE PUSH1 0x20 ADD SWAP1 DUP2 MSTORE PUSH1 0x20 ADD PUSH0 KECCAK256 PUSH0 PUSH2 0x100 EXP DUP2 SLOAD DUP2 PUSH1 0xFF MUL NOT AND SWAP1 DUP4 ISZERO ISZERO MUL OR SWAP1 SSTORE POP PUSH2 0x1070 PUSH2 0xFEE JUMP JUMPDEST PUSH20 0xFFFFFFFFFFFFFFFFFFFFFFFFFFFFFFFFFFFFFFFF AND DUP2 PUSH20 0xFFFFFFFFFFFFFFFFFFFFFFFFFFFFFFFFFFFFFFFF AND DUP4 PUSH32 0xF6391F5C32D9C69D2A47EA670B442974B53935D1EDC7FD64EB21E047A839171B PUSH1 0x40 MLOAD PUSH1 0x40 MLOAD DUP1 SWAP2 SUB SWAP1 LOG4 JUMPDEST POP POP JUMP JUMPDEST PUSH2 0x10D7 PUSH2 0x1215 JUMP JUMPDEST PUSH0 PUSH1 0x1 PUSH0 PUSH2 0x100 EXP DUP2 SLOAD DUP2 PUSH1 0xFF MUL NOT AND SWAP1 DUP4 ISZERO ISZERO MUL OR SWAP1 SSTORE POP PUSH32 0x5DB9EE0A495BF2E6FF9C91A7834C1BA4FDD244A5E8AA4E537BD38AEAE4B073AA PUSH2 0x1119 PUSH2 0xFEE JUMP JUMPDEST PUSH1 0x40 MLOAD PUSH2 0x1126 SWAP2 SWAP1 PUSH2 0x19B5 JUMP JUMPDEST PUSH1 0x40 MLOAD DUP1 SWAP2 SUB SWAP1 LOG1 JUMP JUMPDEST PUSH2 0x1138 PUSH2 0xEB6 JUMP JUMPDEST PUSH1 0x1 DUP1 PUSH0 PUSH2 0x100 EXP DUP2 SLOAD DUP2 PUSH1 0xFF MUL NOT AND SWAP1 DUP4 ISZERO ISZERO MUL OR SWAP1 SSTORE POP PUSH32 0x62E78CEA01BEE320CD4E420270B5EA74000D11B0C9F74754EBDBFC544B05A258 PUSH2 0x117A PUSH2 0xFEE JUMP JUMPDEST PUSH1 0x40 MLOAD PUSH2 0x1187 SWAP2 SWAP1 PUSH2 0x19B5 JUMP JUMPDEST PUSH1 0x40 MLOAD DUP1 SWAP2 SUB SWAP1 LOG1 JUMP JUMPDEST PUSH2 0x119B DUP3 DUP3 PUSH2 0xB13 JUMP JUMPDEST PUSH2 0x1211 JUMPI PUSH2 0x11A8 DUP2 PUSH2 0x125E JUMP JUMPDEST PUSH2 0x11B5 DUP4 PUSH0 SHR PUSH1 0x20 PUSH2 0x128B JUMP JUMPDEST PUSH1 0x40 MLOAD PUSH1 0x20 ADD PUSH2 0x11C6 SWAP3 SWAP2 SWAP1 PUSH2 0x2149 JUMP JUMPDEST PUSH1 0x40 MLOAD PUSH1 0x20 DUP2 DUP4 SUB SUB DUP2 MSTORE SWAP1 PUSH1 0x40 MSTORE PUSH1 0x40 MLOAD PUSH32 0x8C379A000000000000000000000000000000000000000000000000000000000 DUP2 MSTORE PUSH1 0x4 ADD PUSH2 0x1208 SWAP2 SWAP1 PUSH2 0x21BA JUMP JUMPDEST PUSH1 0x40 MLOAD DUP1 SWAP2 SUB SWAP1 REVERT JUMPDEST POP POP JUMP JUMPDEST PUSH2 0x121D PUSH2 0x8AF JUMP JUMPDEST PUSH2 0x125C JUMPI PUSH1 0x40 MLOAD PUSH32 0x8C379A000000000000000000000000000000000000000000000000000000000 DUP2 MSTORE PUSH1 0x4 ADD PUSH2 0x1253 SWAP1 PUSH2 0x2224 JUMP JUMPDEST PUSH1 0x40 MLOAD DUP1 SWAP2 SUB SWAP1 REVERT JUMPDEST JUMP JUMPDEST PUSH1 0x60 PUSH2 0x1284 DUP3 PUSH20 0xFFFFFFFFFFFFFFFFFFFFFFFFFFFFFFFFFFFFFFFF AND PUSH1 0x14 PUSH1 0xFF AND PUSH2 0x128B JUMP JUMPDEST SWAP1 POP SWAP2 SWAP1 POP JUMP JUMPDEST PUSH1 0x60 PUSH0 PUSH1 0x2 DUP4 PUSH1 0x2 PUSH2 0x129D SWAP2 SWAP1 PUSH2 0x226F JUMP JUMPDEST PUSH2 0x12A7 SWAP2 SWAP1 PUSH2 0x22B0 JUMP JUMPDEST PUSH8 0xFFFFFFFFFFFFFFFF DUP2 GT ISZERO PUSH2 0x12C0 JUMPI PUSH2 0x12BF PUSH2 0x22E3 JUMP JUMPDEST JUMPDEST PUSH1 0x40 MLOAD SWAP1 DUP1 DUP3 MSTORE DUP1 PUSH1 0x1F ADD PUSH1 0x1F NOT AND PUSH1 0x20 ADD DUP3 ADD PUSH1 0x40 MSTORE DUP1 ISZERO PUSH2 0x12F2 JUMPI DUP2 PUSH1 0x20 ADD PUSH1 0x1 DUP3 MUL DUP1 CALLDATASIZE DUP4 CALLDATACOPY DUP1 DUP3 ADD SWAP2 POP POP SWAP1 POP JUMPDEST POP SWAP1 POP PUSH32 0x3000000000000000000000000000000000000000000000000000000000000000 DUP2 PUSH0 DUP2 MLOAD DUP2 LT PUSH2 0x1329 JUMPI PUSH2 0x1328 PUSH2 0x2310 JUMP JUMPDEST JUMPDEST PUSH1 0x20 ADD ADD SWAP1 PUSH31 0xFFFFFFFFFFFFFFFFFFFFFFFFFFFFFFFFFFFFFFFFFFFFFFFFFFFFFFFFFFFFFF NOT AND SWAP1 DUP2 PUSH0 BYTE SWAP1 MSTORE8 POP PUSH32 0x7800000000000000000000000000000000000000000000000000000000000000 DUP2 PUSH1 0x1 DUP2 MLOAD DUP2 LT PUSH2 0x138C JUMPI PUSH2 0x138B PUSH2 0x2310 JUMP JUMPDEST JUMPDEST PUSH1 0x20 ADD ADD SWAP1 PUSH31 0xFFFFFFFFFFFFFFFFFFFFFFFFFFFFFFFFFFFFFFFFFFFFFFFFFFFFFFFFFFFFFF NOT AND SWAP1 DUP2 PUSH0 BYTE SWAP1 MSTORE8 POP PUSH0 PUSH1 0x1 DUP5 PUSH1 0x2 PUSH2 0x13CA SWAP2 SWAP1 PUSH2 0x226F JUMP JUMPDEST PUSH2 0x13D4 SWAP2 SWAP1 PUSH2 0x22B0 JUMP JUMPDEST SWAP1 POP JUMPDEST PUSH1 0x1 DUP2 GT ISZERO PUSH2 0x1473 JUMPI PUSH32 0x3031323334353637383961626364656600000000000000000000000000000000 PUSH1 0xF DUP7 AND PUSH1 0x10 DUP2 LT PUSH2 0x1416 JUMPI PUSH2 0x1415 PUSH2 0x2310 JUMP JUMPDEST JUMPDEST BYTE PUSH1 0xF8 SHL DUP3 DUP3 DUP2 MLOAD DUP2 LT PUSH2 0x142D JUMPI PUSH2 0x142C PUSH2 0x2310 JUMP JUMPDEST JUMPDEST PUSH1 0x20 ADD ADD SWAP1 PUSH31 0xFFFFFFFFFFFFFFFFFFFFFFFFFFFFFFFFFFFFFFFFFFFFFFFFFFFFFFFFFFFFFF NOT AND SWAP1 DUP2 PUSH0 BYTE SWAP1 MSTORE8 POP PUSH1 0x4 DUP6 SWAP1 SHR SWAP5 POP DUP1 PUSH2 0x146C SWAP1 PUSH2 0x233D JUMP JUMPDEST SWAP1 POP PUSH2 0x13D7 JUMP JUMPDEST POP PUSH0 DUP5 EQ PUSH2 0x14B6 JUMPI PUSH1 0x40 MLOAD PUSH32 0x8C379A000000000000000000000000000000000000000000000000000000000 DUP2 MSTORE PUSH1 0x4 ADD PUSH2 0x14AD SWAP1 PUSH2 0x23AE JUMP JUMPDEST PUSH1 0x40 MLOAD DUP1 SWAP2 SUB SWAP1 REVERT JUMPDEST DUP1 SWAP2 POP POP SWAP3 SWAP2 POP POP JUMP JUMPDEST PUSH0 PUSH0 REVERT JUMPDEST PUSH0 PUSH0 REVERT JUMPDEST PUSH0 PUSH32 0xFFFFFFFF00000000000000000000000000000000000000000000000000000000 DUP3 AND SWAP1 POP SWAP2 SWAP1 POP JUMP JUMPDEST PUSH2 0x14FC DUP2 PUSH2 0x14C8 JUMP JUMPDEST DUP2 EQ PUSH2 0x1506 JUMPI PUSH0 PUSH0 REVERT JUMPDEST POP JUMP JUMPDEST PUSH0 DUP2 CALLDATALOAD SWAP1 POP PUSH2 0x1517 DUP2 PUSH2 0x14F3 JUMP JUMPDEST SWAP3 SWAP2 POP POP JUMP JUMPDEST PUSH0 PUSH1 0x20 DUP3 DUP5 SUB SLT ISZERO PUSH2 0x1532 JUMPI PUSH2 0x1531 PUSH2 0x14C0 JUMP JUMPDEST JUMPDEST PUSH0 PUSH2 0x153F DUP5 DUP3 DUP6 ADD PUSH2 0x1509 JUMP JUMPDEST SWAP2 POP POP SWAP3 SWAP2 POP POP JUMP JUMPDEST PUSH0 DUP2 ISZERO ISZERO SWAP1 POP SWAP2 SWAP1 POP JUMP JUMPDEST PUSH2 0x155C DUP2 PUSH2 0x1548 JUMP JUMPDEST DUP3 MSTORE POP POP JUMP JUMPDEST PUSH0 PUSH1 0x20 DUP3 ADD SWAP1 POP PUSH2 0x1575 PUSH0 DUP4 ADD DUP5 PUSH2 0x1553 JUMP JUMPDEST SWAP3 SWAP2 POP POP JUMP JUMPDEST PUSH0 DUP2 SWAP1 POP SWAP2 SWAP1 POP JUMP JUMPDEST PUSH2 0x158D DUP2 PUSH2 0x157B JUMP JUMPDEST DUP2 EQ PUSH2 0x1597 JUMPI PUSH0 PUSH0 REVERT JUMPDEST POP JUMP JUMPDEST PUSH0 DUP2 CALLDATALOAD SWAP1 POP PUSH2 0x15A8 DUP2 PUSH2 0x1584 JUMP JUMPDEST SWAP3 SWAP2 POP POP JUMP JUMPDEST PUSH0 PUSH0 REVERT JUMPDEST PUSH0 PUSH0 REVERT JUMPDEST PUSH0 PUSH0 REVERT JUMPDEST PUSH0 PUSH0 DUP4 PUSH1 0x1F DUP5 ADD SLT PUSH2 0x15CF JUMPI PUSH2 0x15CE PUSH2 0x15AE JUMP JUMPDEST JUMPDEST DUP3 CALLDATALOAD SWAP1 POP PUSH8 0xFFFFFFFFFFFFFFFF DUP2 GT ISZERO PUSH2 0x15EC JUMPI PUSH2 0x15EB PUSH2 0x15B2 JUMP JUMPDEST JUMPDEST PUSH1 0x20 DUP4 ADD SWAP2 POP DUP4 PUSH1 0x1 DUP3 MUL DUP4 ADD GT ISZERO PUSH2 0x1608 JUMPI PUSH2 0x1607 PUSH2 0x15B6 JUMP JUMPDEST JUMPDEST SWAP3 POP SWAP3 SWAP1 POP JUMP JUMPDEST PUSH0 DUP2 SWAP1 POP SWAP2 SWAP1 POP JUMP JUMPDEST PUSH2 0x1621 DUP2 PUSH2 0x160F JUMP JUMPDEST DUP2 EQ PUSH2 0x162B JUMPI PUSH0 PUSH0 REVERT JUMPDEST POP JUMP JUMPDEST PUSH0 DUP2 CALLDATALOAD SWAP1 POP PUSH2 0x163C DUP2 PUSH2 0x1618 JUMP JUMPDEST SWAP3 SWAP2 POP POP JUMP JUMPDEST PUSH0 PUSH0 DUP4 PUSH1 0x1F DUP5 ADD SLT PUSH2 0x1657 JUMPI PUSH2 0x1656 PUSH2 0x15AE JUMP JUMPDEST JUMPDEST DUP3 CALLDATALOAD SWAP1 POP PUSH8 0xFFFFFFFFFFFFFFFF DUP2 GT ISZERO PUSH2 0x1674 JUMPI PUSH2 0x1673 PUSH2 0x15B2 JUMP JUMPDEST JUMPDEST PUSH1 0x20 DUP4 ADD SWAP2 POP DUP4 PUSH1 0x20 DUP3 MUL DUP4 ADD GT ISZERO PUSH2 0x1690 JUMPI PUSH2 0x168F PUSH2 0x15B6 JUMP JUMPDEST JUMPDEST SWAP3 POP SWAP3 SWAP1 POP JUMP JUMPDEST PUSH0 PUSH0 PUSH0 PUSH0 PUSH0 PUSH0 PUSH0 PUSH1 0xA0 DUP9 DUP11 SUB SLT ISZERO PUSH2 0x16B2 JUMPI PUSH2 0x16B1 PUSH2 0x14C0 JUMP JUMPDEST JUMPDEST PUSH0 PUSH2 0x16BF DUP11 DUP3 DUP12 ADD PUSH2 0x159A JUMP JUMPDEST SWAP8 POP POP PUSH1 0x20 DUP9 ADD CALLDATALOAD PUSH8 0xFFFFFFFFFFFFFFFF DUP2 GT ISZERO PUSH2 0x16E0 JUMPI PUSH2 0x16DF PUSH2 0x14C4 JUMP JUMPDEST JUMPDEST PUSH2 0x16EC DUP11 DUP3 DUP12 ADD PUSH2 0x15BA JUMP JUMPDEST SWAP7 POP SWAP7 POP POP PUSH1 0x40 PUSH2 0x16FF DUP11 DUP3 DUP12 ADD PUSH2 0x162E JUMP JUMPDEST SWAP5 POP POP PUSH1 0x60 PUSH2 0x1710 DUP11 DUP3 DUP12 ADD PUSH2 0x162E JUMP JUMPDEST SWAP4 POP POP PUSH1 0x80 DUP9 ADD CALLDATALOAD PUSH8 0xFFFFFFFFFFFFFFFF DUP2 GT ISZERO PUSH2 0x1731 JUMPI PUSH2 0x1730 PUSH2 0x14C4 JUMP JUMPDEST JUMPDEST PUSH2 0x173D DUP11 DUP3 DUP12 ADD PUSH2 0x1642 JUMP JUMPDEST SWAP3 POP SWAP3 POP POP SWAP3 SWAP6 SWAP9 SWAP2 SWAP5 SWAP8 POP SWAP3 SWAP6 POP JUMP JUMPDEST PUSH0 PUSH1 0x20 DUP3 DUP5 SUB SLT ISZERO PUSH2 0x1763 JUMPI PUSH2 0x1762 PUSH2 0x14C0 JUMP JUMPDEST JUMPDEST PUSH0 PUSH2 0x1770 DUP5 DUP3 DUP6 ADD PUSH2 0x159A JUMP JUMPDEST SWAP2 POP POP SWAP3 SWAP2 POP POP JUMP JUMPDEST PUSH2 0x1782 DUP2 PUSH2 0x157B JUMP JUMPDEST DUP3 MSTORE POP POP JUMP JUMPDEST PUSH0 PUSH1 0x20 DUP3 ADD SWAP1 POP PUSH2 0x179B PUSH0 DUP4 ADD DUP5 PUSH2 0x1779 JUMP JUMPDEST SWAP3 SWAP2 POP POP JUMP JUMPDEST PUSH0 PUSH20 0xFFFFFFFFFFFFFFFFFFFFFFFFFFFFFFFFFFFFFFFF DUP3 AND SWAP1 POP SWAP2 SWAP1 POP JUMP JUMPDEST PUSH0 PUSH2 0x17CA DUP3 PUSH2 0x17A1 JUMP JUMPDEST SWAP1 POP SWAP2 SWAP1 POP JUMP JUMPDEST PUSH2 0x17DA DUP2 PUSH2 0x17C0 JUMP JUMPDEST DUP2 EQ PUSH2 0x17E4 JUMPI PUSH0 PUSH0 REVERT JUMPDEST POP JUMP JUMPDEST PUSH0 DUP2 CALLDATALOAD SWAP1 POP PUSH2 0x17F5 DUP2 PUSH2 0x17D1 JUMP JUMPDEST SWAP3 SWAP2 POP POP JUMP JUMPDEST PUSH0 PUSH0 PUSH1 0x40 DUP4 DUP6 SUB SLT ISZERO PUSH2 0x1811 JUMPI PUSH2 0x1810 PUSH2 0x14C0 JUMP JUMPDEST JUMPDEST PUSH0 PUSH2 0x181E DUP6 DUP3 DUP7 ADD PUSH2 0x159A JUMP JUMPDEST SWAP3 POP POP PUSH1 0x20 PUSH2 0x182F DUP6 DUP3 DUP7 ADD PUSH2 0x17E7 JUMP JUMPDEST SWAP2 POP POP SWAP3 POP SWAP3 SWAP1 POP JUMP JUMPDEST PUSH2 0x1842 DUP2 PUSH2 0x1548 JUMP JUMPDEST DUP2 EQ PUSH2 0x184C JUMPI PUSH0 PUSH0 REVERT JUMPDEST POP JUMP JUMPDEST PUSH0 DUP2 CALLDATALOAD SWAP1 POP PUSH2 0x185D DUP2 PUSH2 0x1839 JUMP JUMPDEST SWAP3 SWAP2 POP POP JUMP JUMPDEST PUSH0 PUSH0 PUSH1 0x40 DUP4 DUP6 SUB SLT ISZERO PUSH2 0x1879 JUMPI PUSH2 0x1878 PUSH2 0x14C0 JUMP JUMPDEST JUMPDEST PUSH0 PUSH2 0x1886 DUP6 DUP3 DUP7 ADD PUSH2 0x17E7 JUMP JUMPDEST SWAP3 POP POP PUSH1 0x20 PUSH2 0x1897 DUP6 DUP3 DUP7 ADD PUSH2 0x184F JUMP JUMPDEST SWAP2 POP POP SWAP3 POP SWAP3 SWAP1 POP JUMP JUMPDEST PUSH0 PUSH0 PUSH0 PUSH0 PUSH0 PUSH1 0x60 DUP7 DUP9 SUB SLT ISZERO PUSH2 0x18BA JUMPI PUSH2 0x18B9 PUSH2 0x14C0 JUMP JUMPDEST JUMPDEST PUSH0 DUP7 ADD CALLDATALOAD PUSH8 0xFFFFFFFFFFFFFFFF DUP2 GT ISZERO PUSH2 0x18D7 JUMPI PUSH2 0x18D6 PUSH2 0x14C4 JUMP JUMPDEST JUMPDEST PUSH2 0x18E3 DUP9 DUP3 DUP10 ADD PUSH2 0x15BA JUMP JUMPDEST SWAP6 POP SWAP6 POP POP PUSH1 0x20 PUSH2 0x18F6 DUP9 DUP3 DUP10 ADD PUSH2 0x162E JUMP JUMPDEST SWAP4 POP POP PUSH1 0x40 DUP7 ADD CALLDATALOAD PUSH8 0xFFFFFFFFFFFFFFFF DUP2 GT ISZERO PUSH2 0x1917 JUMPI PUSH2 0x1916 PUSH2 0x14C4 JUMP JUMPDEST JUMPDEST PUSH2 0x1923 DUP9 DUP3 DUP10 ADD PUSH2 0x1642 JUMP JUMPDEST SWAP3 POP SWAP3 POP POP SWAP3 SWAP6 POP SWAP3 SWAP6 SWAP1 SWAP4 POP JUMP JUMPDEST PUSH0 DUP2 SWAP1 POP SWAP2 SWAP1 POP JUMP JUMPDEST PUSH0 PUSH2 0x1955 PUSH2 0x1950 PUSH2 0x194B DUP5 PUSH2 0x17A1 JUMP JUMPDEST PUSH2 0x1932 JUMP JUMPDEST PUSH2 0x17A1 JUMP JUMPDEST SWAP1 POP SWAP2 SWAP1 POP JUMP JUMPDEST PUSH0 PUSH2 0x1966 DUP3 PUSH2 0x193B JUMP JUMPDEST SWAP1 POP SWAP2 SWAP1 POP JUMP JUMPDEST PUSH0 PUSH2 0x1977 DUP3 PUSH2 0x195C JUMP JUMPDEST SWAP1 POP SWAP2 SWAP1 POP JUMP JUMPDEST PUSH2 0x1987 DUP2 PUSH2 0x196D JUMP JUMPDEST DUP3 MSTORE POP POP JUMP JUMPDEST PUSH0 PUSH1 0x20 DUP3 ADD SWAP1 POP PUSH2 0x19A0 PUSH0 DUP4 ADD DUP5 PUSH2 0x197E JUMP JUMPDEST SWAP3 SWAP2 POP POP JUMP JUMPDEST PUSH2 0x19AF DUP2 PUSH2 0x17C0 JUMP JUMPDEST DUP3 MSTORE POP POP JUMP JUMPDEST PUSH0 PUSH1 0x20 DUP3 ADD SWAP1 POP PUSH2 0x19C8 PUSH0 DUP4 ADD DUP5 PUSH2 0x19A6 JUMP JUMPDEST SWAP3 SWAP2 POP POP JUMP JUMPDEST PUSH0 PUSH1 0x20 DUP3 DUP5 SUB SLT ISZERO PUSH2 0x19E3 JUMPI PUSH2 0x19E2 PUSH2 0x14C0 JUMP JUMPDEST JUMPDEST PUSH0 PUSH2 0x19F0 DUP5 DUP3 DUP6 ADD PUSH2 0x17E7 JUMP JUMPDEST SWAP2 POP POP SWAP3 SWAP2 POP POP JUMP JUMPDEST PUSH0 DUP3 DUP3 MSTORE PUSH1 0x20 DUP3 ADD SWAP1 POP SWAP3 SWAP2 POP POP JUMP JUMPDEST PUSH32 0x6964206578697374730000000000000000000000000000000000000000000000 PUSH0 DUP3 ADD MSTORE POP JUMP JUMPDEST PUSH0 PUSH2 0x1A3D PUSH1 0x9 DUP4 PUSH2 0x19F9 JUMP JUMPDEST SWAP2 POP PUSH2 0x1A48 DUP3 PUSH2 0x1A09 JUMP JUMPDEST PUSH1 0x20 DUP3 ADD SWAP1 POP SWAP2 SWAP1 POP JUMP JUMPDEST PUSH0 PUSH1 0x20 DUP3 ADD SWAP1 POP DUP2 DUP2 SUB PUSH0 DUP4 ADD MSTORE PUSH2 0x1A6A DUP2 PUSH2 0x1A31 JUMP JUMPDEST SWAP1 POP SWAP2 SWAP1 POP JUMP JUMPDEST PUSH32 0x656D707479207572690000000000000000000000000000000000000000000000 PUSH0 DUP3 ADD MSTORE POP JUMP JUMPDEST PUSH0 PUSH2 0x1AA5 PUSH1 0x9 DUP4 PUSH2 0x19F9 JUMP JUMPDEST SWAP2 POP PUSH2 0x1AB0 DUP3 PUSH2 0x1A71 JUMP JUMPDEST PUSH1 0x20 DUP3 ADD SWAP1 POP SWAP2 SWAP1 POP JUMP JUMPDEST PUSH0 PUSH1 0x20 DUP3 ADD SWAP1 POP DUP2 DUP2 SUB PUSH0 DUP4 ADD MSTORE PUSH2 0x1AD2 DUP2 PUSH2 0x1A99 JUMP JUMPDEST SWAP1 POP SWAP2 SWAP1 POP JUMP JUMPDEST PUSH32 0x6261642072616E67650000000000000000000000000000000000000000000000 PUSH0 DUP3 ADD MSTORE POP JUMP JUMPDEST PUSH0 PUSH2 0x1B0D PUSH1 0x9 DUP4 PUSH2 0x19F9 JUMP JUMPDEST SWAP2 POP PUSH2 0x1B18 DUP3 PUSH2 0x1AD9 JUMP JUMPDEST PUSH1 0x20 DUP3 ADD SWAP1 POP SWAP2 SWAP1 POP JUMP JUMPDEST PUSH0 PUSH1 0x20 DUP3 ADD SWAP1 POP DUP2 DUP2 SUB PUSH0 DUP4 ADD MSTORE PUSH2 0x1B3A DUP2 PUSH2 0x1B01 JUMP JUMPDEST SWAP1 POP SWAP2 SWAP1 POP JUMP JUMPDEST DUP3 DUP2 DUP4 CALLDATACOPY PUSH0 DUP4 DUP4 ADD MSTORE POP POP POP JUMP JUMPDEST PUSH0 PUSH1 0x1F NOT PUSH1 0x1F DUP4 ADD AND SWAP1 POP SWAP2 SWAP1 POP JUMP JUMPDEST PUSH0 PUSH2 0x1B6A DUP4 DUP6 PUSH2 0x19F9 JUMP JUMPDEST SWAP4 POP PUSH2 0x1B77 DUP4 DUP6 DUP5 PUSH2 0x1B41 JUMP JUMPDEST PUSH2 0x1B80 DUP4 PUSH2 0x1B4F JUMP JUMPDEST DUP5 ADD SWAP1 POP SWAP4 SWAP3 POP POP POP JUMP JUMPDEST PUSH2 0x1B94 DUP2 PUSH2 0x160F JUMP JUMPDEST DUP3 MSTORE POP POP JUMP JUMPDEST PUSH0 DUP3 DUP3 MSTORE PUSH1 0x20 DUP3 ADD SWAP1 POP SWAP3 SWAP2 POP POP JUMP JUMPDEST PUSH0 DUP2 SWAP1 POP SWAP2 SWAP1 POP JUMP JUMPDEST PUSH0 DUP3 DUP3 MSTORE PUSH1 0x20 DUP3 ADD SWAP1 POP SWAP3 SWAP2 POP POP JUMP JUMPDEST PUSH0 PUSH2 0x1BCE DUP4 DUP6 PUSH2 0x1BB3 JUMP JUMPDEST SWAP4 POP PUSH2 0x1BDB DUP4 DUP6 DUP5 PUSH2 0x1B41 JUMP JUMPDEST PUSH2 0x1BE4 DUP4 PUSH2 0x1B4F JUMP JUMPDEST DUP5 ADD SWAP1 POP SWAP4 SWAP3 POP POP POP JUMP JUMPDEST PUSH0 PUSH2 0x1BFB DUP5 DUP5 DUP5 PUSH2 0x1BC3 JUMP JUMPDEST SWAP1 POP SWAP4 SWAP3 POP POP POP JUMP JUMPDEST PUSH0 PUSH0 REVERT JUMPDEST PUSH0 PUSH0 REVERT JUMPDEST PUSH0 PUSH0 REVERT JUMPDEST PUSH0 PUSH0 DUP4 CALLDATALOAD PUSH1 0x1 PUSH1 0x20 SUB DUP5 CALLDATASIZE SUB SUB DUP2 SLT PUSH2 0x1C2C JUMPI PUSH2 0x1C2B PUSH2 0x1C0C JUMP JUMPDEST JUMPDEST DUP4 DUP2 ADD SWAP3 POP DUP3 CALLDATALOAD SWAP2 POP PUSH1 0x20 DUP4 ADD SWAP3 POP PUSH8 0xFFFFFFFFFFFFFFFF DUP3 GT ISZERO PUSH2 0x1C54 JUMPI PUSH2 0x1C53 PUSH2 0x1C04 JUMP JUMPDEST JUMPDEST PUSH1 0x1 DUP3 MUL CALLDATASIZE SUB DUP4 SGT ISZERO PUSH2 0x1C6A JUMPI PUSH2 0x1C69 PUSH2 0x1C08 JUMP JUMPDEST JUMPDEST POP SWAP3 POP SWAP3 SWAP1 POP JUMP JUMPDEST PUSH0 PUSH1 0x20 DUP3 ADD SWAP1 POP SWAP2 SWAP1 POP JUMP JUMPDEST PUSH0 PUSH2 0x1C89 DUP4 DUP6 PUSH2 0x1B9A JUMP JUMPDEST SWAP4 POP DUP4 PUSH1 0x20 DUP5 MUL DUP6 ADD PUSH2 0x1C9B DUP5 PUSH2 0x1BAA JUMP JUMPDEST DUP1 PUSH0 JUMPDEST DUP8 DUP2 LT ISZERO PUSH2 0x1CE0 JUMPI DUP5 DUP5 SUB DUP10 MSTORE PUSH2 0x1CB5 DUP3 DUP5 PUSH2 0x1C10 JUMP JUMPDEST PUSH2 0x1CC0 DUP7 DUP3 DUP5 PUSH2 0x1BEF JUMP JUMPDEST SWAP6 POP PUSH2 0x1CCB DUP5 PUSH2 0x1C72 JUMP JUMPDEST SWAP4 POP PUSH1 0x20 DUP12 ADD SWAP11 POP POP POP PUSH1 0x1 DUP2 ADD SWAP1 POP PUSH2 0x1C9E JUMP JUMPDEST POP DUP3 SWAP8 POP DUP8 SWAP5 POP POP POP POP POP SWAP4 SWAP3 POP POP POP JUMP JUMPDEST PUSH0 PUSH1 0x80 DUP3 ADD SWAP1 POP DUP2 DUP2 SUB PUSH0 DUP4 ADD MSTORE PUSH2 0x1D0B DUP2 DUP9 DUP11 PUSH2 0x1B5F JUMP JUMPDEST SWAP1 POP PUSH2 0x1D1A PUSH1 0x20 DUP4 ADD DUP8 PUSH2 0x1B8B JUMP JUMPDEST PUSH2 0x1D27 PUSH1 0x40 DUP4 ADD DUP7 PUSH2 0x1B8B JUMP JUMPDEST DUP2 DUP2 SUB PUSH1 0x60 DUP4 ADD MSTORE PUSH2 0x1D3A DUP2 DUP5 DUP7 PUSH2 0x1C7E JUMP JUMPDEST SWAP1 POP SWAP8 SWAP7 POP POP POP POP POP POP POP JUMP JUMPDEST PUSH32 0x6E6F74206F776E65722F61646D696E0000000000000000000000000000000000 PUSH0 DUP3 ADD MSTORE POP JUMP JUMPDEST PUSH0 PUSH2 0x1D7B PUSH1 0xF DUP4 PUSH2 0x19F9 JUMP JUMPDEST SWAP2 POP PUSH2 0x1D86 DUP3 PUSH2 0x1D47 JUMP JUMPDEST PUSH1 0x20 DUP3 ADD SWAP1 POP SWAP2 SWAP1 POP JUMP JUMPDEST PUSH0 PUSH1 0x20 DUP3 ADD SWAP1 POP DUP2 DUP2 SUB PUSH0 DUP4 ADD MSTORE PUSH2 0x1DA8 DUP2 PUSH2 0x1D6F JUMP JUMPDEST SWAP1 POP SWAP2 SWAP1 POP JUMP JUMPDEST PUSH32 0x416363657373436F6E74726F6C3A2063616E206F6E6C792072656E6F756E6365 PUSH0 DUP3 ADD MSTORE PUSH32 0x20726F6C657320666F722073656C660000000000000000000000000000000000 PUSH1 0x20 DUP3 ADD MSTORE POP JUMP JUMPDEST PUSH0 PUSH2 0x1E09 PUSH1 0x2F DUP4 PUSH2 0x19F9 JUMP JUMPDEST SWAP2 POP PUSH2 0x1E14 DUP3 PUSH2 0x1DAF JUMP JUMPDEST PUSH1 0x40 DUP3 ADD SWAP1 POP SWAP2 SWAP1 POP JUMP JUMPDEST PUSH0 PUSH1 0x20 DUP3 ADD SWAP1 POP DUP2 DUP2 SUB PUSH0 DUP4 ADD MSTORE PUSH2 0x1E36 DUP2 PUSH2 0x1DFD JUMP JUMPDEST SWAP1 POP SWAP2 SWAP1 POP JUMP JUMPDEST PUSH32 0x4E6F742061646D696E0000000000000000000000000000000000000000000000 PUSH0 DUP3 ADD MSTORE POP JUMP JUMPDEST PUSH0 PUSH2 0x1E71 PUSH1 0x9 DUP4 PUSH2 0x19F9 JUMP JUMPDEST SWAP2 POP PUSH2 0x1E7C DUP3 PUSH2 0x1E3D JUMP JUMPDEST PUSH1 0x20 DUP3 ADD SWAP1 POP SWAP2 SWAP1 POP JUMP JUMPDEST PUSH0 PUSH1 0x20 DUP3 ADD SWAP1 POP DUP2 DUP2 SUB PUSH0 DUP4 ADD MSTORE PUSH2 0x1E9E DUP2 PUSH2 0x1E65 JUMP JUMPDEST SWAP1 POP SWAP2 SWAP1 POP JUMP JUMPDEST PUSH0 DUP2 MLOAD SWAP1 POP PUSH2 0x1EB3 DUP2 PUSH2 0x1839 JUMP JUMPDEST SWAP3 SWAP2 POP POP JUMP JUMPDEST PUSH0 PUSH1 0x20 DUP3 DUP5 SUB SLT ISZERO PUSH2 0x1ECE JUMPI PUSH2 0x1ECD PUSH2 0x14C0 JUMP JUMPDEST JUMPDEST PUSH0 PUSH2 0x1EDB DUP5 DUP3 DUP6 ADD PUSH2 0x1EA5 JUMP JUMPDEST SWAP2 POP POP SWAP3 SWAP2 POP POP JUMP JUMPDEST PUSH32 0x6C6177796572206F6E6C79000000000000000000000000000000000000000000 PUSH0 DUP3 ADD MSTORE POP JUMP JUMPDEST PUSH0 PUSH2 0x1F18 PUSH1 0xB DUP4 PUSH2 0x19F9 JUMP JUMPDEST SWAP2 POP PUSH2 0x1F23 DUP3 PUSH2 0x1EE4 JUMP JUMPDEST PUSH1 0x20 DUP3 ADD SWAP1 POP SWAP2 SWAP1 POP JUMP JUMPDEST PUSH0 PUSH1 0x20 DUP3 ADD SWAP1 POP DUP2 DUP2 SUB PUSH0 DUP4 ADD MSTORE PUSH2 0x1F45 DUP2 PUSH2 0x1F0C JUMP JUMPDEST SWAP1 POP SWAP2 SWAP1 POP JUMP JUMPDEST PUSH0 PUSH1 0x60 DUP3 ADD SWAP1 POP DUP2 DUP2 SUB PUSH0 DUP4 ADD MSTORE PUSH2 0x1F65 DUP2 DUP8 DUP10 PUSH2 0x1B5F JUMP JUMPDEST SWAP1 POP PUSH2 0x1F74 PUSH1 0x20 DUP4 ADD DUP7 PUSH2 0x1B8B JUMP JUMPDEST DUP2 DUP2 SUB PUSH1 0x40 DUP4 ADD MSTORE PUSH2 0x1F87 DUP2 DUP5 DUP7 PUSH2 0x1C7E JUMP JUMPDEST SWAP1 POP SWAP7 SWAP6 POP POP POP POP POP POP JUMP JUMPDEST PUSH32 0x6E6F206C697374696E6700000000000000000000000000000000000000000000 PUSH0 DUP3 ADD MSTORE POP JUMP JUMPDEST PUSH0 PUSH2 0x1FC7 PUSH1 0xA DUP4 PUSH2 0x19F9 JUMP JUMPDEST SWAP2 POP PUSH2 0x1FD2 DUP3 PUSH2 0x1F93 JUMP JUMPDEST PUSH1 0x20 DUP3 ADD SWAP1 POP SWAP2 SWAP1 POP JUMP JUMPDEST PUSH0 PUSH1 0x20 DUP3 ADD SWAP1 POP DUP2 DUP2 SUB PUSH0 DUP4 ADD MSTORE PUSH2 0x1FF4 DUP2 PUSH2 0x1FBB JUMP JUMPDEST SWAP1 POP SWAP2 SWAP1 POP JUMP JUMPDEST PUSH32 0x5061757361626C653A2070617573656400000000000000000000000000000000 PUSH0 DUP3 ADD MSTORE POP JUMP JUMPDEST PUSH0 PUSH2 0x202F PUSH1 0x10 DUP4 PUSH2 0x19F9 JUMP JUMPDEST SWAP2 POP PUSH2 0x203A DUP3 PUSH2 0x1FFB JUMP JUMPDEST PUSH1 0x20 DUP3 ADD SWAP1 POP SWAP2 SWAP1 POP JUMP JUMPDEST PUSH0 PUSH1 0x20 DUP3 ADD SWAP1 POP DUP2 DUP2 SUB PUSH0 DUP4 ADD MSTORE PUSH2 0x205C DUP2 PUSH2 0x2023 JUMP JUMPDEST SWAP1 POP SWAP2 SWAP1 POP JUMP JUMPDEST PUSH0 DUP2 SWAP1 POP SWAP3 SWAP2 POP POP JUMP JUMPDEST PUSH32 0x416363657373436F6E74726F6C3A206163636F756E7420000000000000000000 PUSH0 DUP3 ADD MSTORE POP JUMP JUMPDEST PUSH0 PUSH2 0x20A1 PUSH1 0x17 DUP4 PUSH2 0x2063 JUMP JUMPDEST SWAP2 POP PUSH2 0x20AC DUP3 PUSH2 0x206D JUMP JUMPDEST PUSH1 0x17 DUP3 ADD SWAP1 POP SWAP2 SWAP1 POP JUMP JUMPDEST PUSH0 DUP2 MLOAD SWAP1 POP SWAP2 SWAP1 POP JUMP JUMPDEST DUP3 DUP2 DUP4 MCOPY PUSH0 DUP4 DUP4 ADD MSTORE POP POP POP JUMP JUMPDEST PUSH0 PUSH2 0x20D9 DUP3 PUSH2 0x20B7 JUMP JUMPDEST PUSH2 0x20E3 DUP2 DUP6 PUSH2 0x2063 JUMP JUMPDEST SWAP4 POP PUSH2 0x20F3 DUP2 DUP6 PUSH1 0x20 DUP7 ADD PUSH2 0x20C1 JUMP JUMPDEST DUP1 DUP5 ADD SWAP2 POP POP SWAP3 SWAP2 POP POP JUMP JUMPDEST PUSH32 0x206973206D697373696E6720726F6C6520000000000000000000000000000000 PUSH0 DUP3 ADD MSTORE POP JUMP JUMPDEST PUSH0 PUSH2 0x2133 PUSH1 0x11 DUP4 PUSH2 0x2063 JUMP JUMPDEST SWAP2 POP PUSH2 0x213E DUP3 PUSH2 0x20FF JUMP JUMPDEST PUSH1 0x11 DUP3 ADD SWAP1 POP SWAP2 SWAP1 POP JUMP JUMPDEST PUSH0 PUSH2 0x2153 DUP3 PUSH2 0x2095 JUMP JUMPDEST SWAP2 POP PUSH2 0x215F DUP3 DUP6 PUSH2 0x20CF JUMP JUMPDEST SWAP2 POP PUSH2 0x216A DUP3 PUSH2 0x2127 JUMP JUMPDEST SWAP2 POP PUSH2 0x2176 DUP3 DUP5 PUSH2 0x20CF JUMP JUMPDEST SWAP2 POP DUP2 SWAP1 POP SWAP4 SWAP3 POP POP POP JUMP JUMPDEST PUSH0 PUSH2 0x218C DUP3 PUSH2 0x20B7 JUMP JUMPDEST PUSH2 0x2196 DUP2 DUP6 PUSH2 0x19F9 JUMP JUMPDEST SWAP4 POP PUSH2 0x21A6 DUP2 DUP6 PUSH1 0x20 DUP7 ADD PUSH2 0x20C1 JUMP JUMPDEST PUSH2 0x21AF DUP2 PUSH2 0x1B4F JUMP JUMPDEST DUP5 ADD SWAP2 POP POP SWAP3 SWAP2 POP POP JUMP JUMPDEST PUSH0 PUSH1 0x20 DUP3 ADD SWAP1 POP DUP2 DUP2 SUB PUSH0 DUP4 ADD MSTORE PUSH2 0x21D2 DUP2 DUP5 PUSH2 0x2182 JUMP JUMPDEST SWAP1 POP SWAP3 SWAP2 POP POP JUMP JUMPDEST PUSH32 0x5061757361626C653A206E6F7420706175736564000000000000000000000000 PUSH0 DUP3 ADD MSTORE POP JUMP JUMPDEST PUSH0 PUSH2 0x220E PUSH1 0x14 DUP4 PUSH2 0x19F9 JUMP JUMPDEST SWAP2 POP PUSH2 0x2219 DUP3 PUSH2 0x21DA JUMP JUMPDEST PUSH1 0x20 DUP3 ADD SWAP1 POP SWAP2 SWAP1 POP JUMP JUMPDEST PUSH0 PUSH1 0x20 DUP3 ADD SWAP1 POP DUP2 DUP2 SUB PUSH0 DUP4 ADD MSTORE PUSH2 0x223B DUP2 PUSH2 0x2202 JUMP JUMPDEST SWAP1 POP SWAP2 SWAP1 POP JUMP JUMPDEST PUSH32 0x4E487B7100000000000000000000000000000000000000000000000000000000 PUSH0 MSTORE PUSH1 0x11 PUSH1 0x4 MSTORE PUSH1 0x24 PUSH0 REVERT JUMPDEST PUSH0 PUSH2 0x2279 DUP3 PUSH2 0x160F JUMP JUMPDEST SWAP2 POP PUSH2 0x2284 DUP4 PUSH2 0x160F JUMP JUMPDEST SWAP3 POP DUP3 DUP3 MUL PUSH2 0x2292 DUP2 PUSH2 0x160F JUMP JUMPDEST SWAP2 POP DUP3 DUP3 DIV DUP5 EQ DUP4 ISZERO OR PUSH2 0x22A9 JUMPI PUSH2 0x22A8 PUSH2 0x2242 JUMP JUMPDEST JUMPDEST POP SWAP3 SWAP2 POP POP JUMP JUMPDEST PUSH0 PUSH2 0x22BA DUP3 PUSH2 0x160F JUMP JUMPDEST SWAP2 POP PUSH2 0x22C5 DUP4 PUSH2 0x160F JUMP JUMPDEST SWAP3 POP DUP3 DUP3 ADD SWAP1 POP DUP1 DUP3 GT ISZERO PUSH2 0x22DD JUMPI PUSH2 0x22DC PUSH2 0x2242 JUMP JUMPDEST JUMPDEST SWAP3 SWAP2 POP POP JUMP JUMPDEST PUSH32 0x4E487B7100000000000000000000000000000000000000000000000000000000 PUSH0 MSTORE PUSH1 0x41 PUSH1 0x4 MSTORE PUSH1 0x24 PUSH0 REVERT JUMPDEST PUSH32 0x4E487B7100000000000000000000000000000000000000000000000000000000 PUSH0 MSTORE PUSH1 0x32 PUSH1 0x4 MSTORE PUSH1 0x24 PUSH0 REVERT JUMPDEST PUSH0 PUSH2 0x2347 DUP3 PUSH2 0x160F JUMP JUMPDEST SWAP2 POP PUSH0 DUP3 SUB PUSH2 0x2359 JUMPI PUSH2 0x2358 PUSH2 0x2242 JUMP JUMPDEST JUMPDEST PUSH1 0x1 DUP3 SUB SWAP1 POP SWAP2 SWAP1 POP JUMP JUMPDEST PUSH32 0x537472696E67733A20686578206C656E67746820696E73756666696369656E74 PUSH0 DUP3 ADD MSTORE POP JUMP JUMPDEST PUSH0 PUSH2 0x2398 PUSH1 0x20 DUP4 PUSH2 0x19F9 JUMP JUMPDEST SWAP2 POP PUSH2 0x23A3 DUP3 PUSH2 0x2364 JUMP JUMPDEST PUSH1 0x20 DUP3 ADD SWAP1 POP SWAP2 SWAP1 POP JUMP JUMPDEST PUSH0 PUSH1 0x20 DUP3 ADD SWAP1 POP DUP2 DUP2 SUB PUSH0 DUP4 ADD MSTORE PUSH2 0x23C5 DUP2 PUSH2 0x238C JUMP JUMPDEST SWAP1 POP SWAP2 SWAP1 POP JUMP INVALID LOG2 PUSH5 0x6970667358 0x22 SLT KECCAK256 PUSH21 0xA793E5E6725ECA69A9BB301FD6F52EB2FB44FDFA46 0x25 INVALID 0xCF 0xC4 0xB5 CALLCODE MSIZE 0xB6 0xBA 0xB2 PUSH5 0x736F6C6343 STOP ADDMOD 0x1E STOP CALLER "
				},
				"gasEstimates": {
					"creation": {
						"codeDepositCost": "1843600",
						"executionCost": "infinite",
						"totalCost": "infinite"
					},
					"external": {
						"DEFAULT_ADMIN_ROLE()": "440",
						"OPERATOR_ROLE()": "435",
						"caseSignalClient(bytes32)": "2874",
						"closeCaseSignal(bytes32)": "32774",
						"createCaseSignal(bytes32,string,uint256,uint256,string[])": "infinite",
						"getRoleAdmin(bytes32)": "infinite",
						"grantRole(bytes32,address)": "infinite",
						"hasLawyerListing(address)": "2936",
						"hasRole(bytes32,address)": "3209",
						"pause()": "30352",
						"paused()": "2584",
						"registry()": "infinite",
						"removeLawyerListing()": "infinite",
						"renounceRole(bytes32,address)": "infinite",
						"revokeRole(bytes32,address)": "infinite",
						"setOperator(address,bool)": "infinite",
						"supportsInterface(bytes4)": "741",
						"unpause()": "30348",
						"upsertLawyerListing(string,uint256,string[])": "infinite"
					}
				},
				"methodIdentifiers": {
					"DEFAULT_ADMIN_ROLE()": "a217fddf",
					"OPERATOR_ROLE()": "f5b541a6",
					"caseSignalClient(bytes32)": "a5b33370",
					"closeCaseSignal(bytes32)": "2219774e",
					"createCaseSignal(bytes32,string,uint256,uint256,string[])": "05d7e0cc",
					"getRoleAdmin(bytes32)": "248a9ca3",
					"grantRole(bytes32,address)": "2f2ff15d",
					"hasLawyerListing(address)": "cfc6c4b5",
					"hasRole(bytes32,address)": "91d14854",
					"pause()": "8456cb59",
					"paused()": "5c975abb",
					"registry()": "7b103999",
					"removeLawyerListing()": "ba6665b2",
					"renounceRole(bytes32,address)": "36568abe",
					"revokeRole(bytes32,address)": "d547741f",
					"setOperator(address,bool)": "558a7297",
					"supportsInterface(bytes4)": "01ffc9a7",
					"unpause()": "3f4ba83a",
					"upsertLawyerListing(string,uint256,string[])": "73d8df4a"
				}
			},
			"storageLayout": {
				"storage": [
					{
						"astId": 24,
						"contract": "contracts/ReadyListings.sol:ReadyListings",
						"label": "_roles",
						"offset": 0,
						"slot": "0",
						"type": "t_mapping(t_bytes32,t_struct(RoleData)19_storage)"
					},
					{
						"astId": 406,
						"contract": "contracts/ReadyListings.sol:ReadyListings",
						"label": "_paused",
						"offset": 0,
						"slot": "1",
						"type": "t_bool"
					},
					{
						"astId": 1786,
						"contract": "contracts/ReadyListings.sol:ReadyListings",
						"label": "_lawyerHasListing",
						"offset": 0,
						"slot": "2",
						"type": "t_mapping(t_address,t_bool)"
					},
					{
						"astId": 1790,
						"contract": "contracts/ReadyListings.sol:ReadyListings",
						"label": "_signalClient",
						"offset": 0,
						"slot": "3",
						"type": "t_mapping(t_bytes32,t_address)"
					}
				],
				"types": {
					"t_address": {
						"encoding": "inplace",
						"label": "address",
						"numberOfBytes": "20"
					},
					"t_bool": {
						"encoding": "inplace",
						"label": "bool",
						"numberOfBytes": "1"
					},
					"t_bytes32": {
						"encoding": "inplace",
						"label": "bytes32",
						"numberOfBytes": "32"
					},
					"t_mapping(t_address,t_bool)": {
						"encoding": "mapping",
						"key": "t_address",
						"label": "mapping(address => bool)",
						"numberOfBytes": "32",
						"value": "t_bool"
					},
					"t_mapping(t_bytes32,t_address)": {
						"encoding": "mapping",
						"key": "t_bytes32",
						"label": "mapping(bytes32 => address)",
						"numberOfBytes": "32",
						"value": "t_address"
					},
					"t_mapping(t_bytes32,t_struct(RoleData)19_storage)": {
						"encoding": "mapping",
						"key": "t_bytes32",
						"label": "mapping(bytes32 => struct AccessControl.RoleData)",
						"numberOfBytes": "32",
						"value": "t_struct(RoleData)19_storage"
					},
					"t_struct(RoleData)19_storage": {
						"encoding": "inplace",
						"label": "struct AccessControl.RoleData",
						"members": [
							{
								"astId": 16,
								"contract": "contracts/ReadyListings.sol:ReadyListings",
								"label": "members",
								"offset": 0,
								"slot": "0",
								"type": "t_mapping(t_address,t_bool)"
							},
							{
								"astId": 18,
								"contract": "contracts/ReadyListings.sol:ReadyListings",
								"label": "adminRole",
								"offset": 0,
								"slot": "1",
								"type": "t_bytes32"
							}
						],
						"numberOfBytes": "64"
					}
				}
			},
			"userdoc": {
				"kind": "user",
				"methods": {},
				"version": 1
			}
		}
	}
}